:020000040800F2
:10000000200F002025E000080F0D0008110D00084A
:10001000150D0008190D00081D0D00080000000056
:10002000000000000000000000000000210D00089A
:10003000230D000800000000250D0008270D000812
:100040003FE000083FE000083FE0000859CC00080E
:100050003FE000083FE000083FE000083FE0000804
:100060003FE000083FE000083FE000083FE00008F4
:100070003FE000083FE000083FE000083FE00008E4
:1000800035D8000895D800083FE000083FE0000898
:100090003FE000083FE000083FE000083FE00008C4
:1000A0003FE000083FE000083FE000083FE00008B4
:1000B0008DA7000811A700082B0C00083FE00008DE
:1000C0003FE000083FE000083FE000083FE0000894
:1000D0003FE00008990B0008FF0A00083FE0000815
:1000E00093DD00083FE000083FE000083FE0000823
:1000F0003FE000083FE000083FE000083FE0000864
:100100003FE000083FE00008BDA700083FE000080E
:100110003FE000083FE000083FE000083FE0000843
:100120003FE000083FE000083FE000083FE0000833
:1001300000F002F800F05AF80AA090E8000C82449F
:100140008344AAF10107DA4501D100F04FF8AFF27C
:10015000090EBAE80F0013F0010F18BFFB1A43F0A5
:1001600001031847EC1A01000C1B01000A444FF070
:10017000000C10F8013B13F0070408BF10F8014B06
:100180001D1108BF10F8015B641E05D010F8016B4B
:10019000641E01F8016BF9D113F0080F1EBF10F8AF
:1001A000014BAD1C0C1B09D16D1E58BF01F801CBD2
:1001B000FAD505E014F8016B01F8016B6D1EF9D555
:1001C0009142D6D37047000000230024002500266A
:1001D000103A28BF78C1FBD8520728BF30C148BFAA
:1001E0000B6070471FB51FBD10B510BD10F058FC57
:1001F0001146FFF7F7FF09F06CF810F076FC03B436
:10020000FFF7F2FF03BC0DF04DFE00000CB500201F
:10021000019000906C48006840F480306A490860A2
:1002200000BF6948006800F4003000900198401C4D
:100230000190009818B90198B0F5A06FF1D162480B
:10024000006800F4003010B10120009001E00020AF
:1002500000900098012843D15C48006840F01000ED
:100260005A4908600846006820F003000860084604
:10027000006840F0020008605348406852494860F6
:100280000846406848600846406840F4806048601E
:100290000846406820F47C1048600846406840F4F6
:1002A000E81048600846006840F08070086000BFB1
:1002B0004548006800F000700028F9D042484068C6
:1002C00020F00300404948600846406840F00200C2
:1002D000486000BF3C48406800F00C000828F9D195
:1002E0000CBD10B5FFF792FF10BD10B53648006881
:1002F00040F001003449086008464068344908402D
:100300003149486008460068324908402E49086073
:100310000846006820F4802008600846406820F401
:10032000FE0048604FF41F008860FFF7DAFF4FF0CF
:1003300000602949086010BD10B50021002000228E
:10034000214B5B6803F00C0121B1042906D0082978
:1003500028D107E0214B224C236027E01F4B204C83
:10036000236023E0184B5B6803F47010164B5B6846
:1003700003F48032022303EB904022B9194B43432C
:10038000174C23600DE0104B5B6803F4003323B17E
:10039000144B4343124C236003E0104B4343104C77
:1003A000236003E00D4B0E4C236000BF00BF064BE3
:1003B0005B68C3F303130C4CE15C094B1B68CB4037
:1003C000074C236010BD00000010024000200240D6
:1003D0000000FFF8FFFFF6FE08ED00E000127A00D3
:1003E0000000002000093D000400002070B5024616
:1003F0000C46FF25FF2309E012F8010B80EA0501F6
:10040000FA48405C80EA0305F948435C201EA4F1E9
:100410000106F4B2F0D143EA052070BD10B5012009
:10042000F4490870F4480EF0DDFAF4490870F44815
:100430000078012856D00021F2480FF035F800214D
:10044000F0480FF0C5FAF0480078A0B1EB4800780A
:10045000EE49097888420ED10020ED490870ED4937
:10046000087008460078401C0870E4480078EA49A3
:10047000E84A12788854E448007860BBE448007881
:1004800048BBE4480078642813DADC480178E24A83
:10049000E0480078401C1154DE480078401CDD49DB
:1004A000087008460078082815DB084600780870B0
:1004B00011E00120D6490870D1490870D54800786C
:1004C000D5490870D54800688078D5490968887092
:1004D0000020D04908700020CB4908700121C9488C
:1004E0000EF0E2FF10BD10B50120C2490870CD49E1
:1004F0000870CD480EF076FAC0490870C048007800
:10050000012856D00021BF480EF0CEFF0021BD4883
:100510000FF05EFABC480078A0B1B8480078BB493B
:10052000097888420ED10020B9490870B94908708D
:1005300008460078401C0870B0480078B649B54AB3
:1005400012788854B048007860BBB148007848BB46
:10055000B0480078642813DAA8480178AE4AAD485C
:100560000078401C1154AB480078401CA949087021
:1005700008460078082815DB08460078087011E066
:100580000120A34908709E490870A2480078A2493A
:100590000870A24800688078A14909688870002026
:1005A0009C490870002098490870012195480EF078
:1005B0007BFF10BD10B59A4800689C490978405CE3
:1005C0009B490870084601788B480EF007FA974857
:1005D0000078401C954908709148006800780978B7
:1005E000884210DA0020864908708D490968087031
:1005F0008849087001208D490870002240F2266168
:100600007D480EF08AF910BD70B500257F4800784E
:1006100088490870032048708748007888708749A7
:100620008748006811F058F9064611F0B9F8000A39
:100630008049C87081498248006811F04DF906462A
:1006400011F0AEF87B4908717E48006811F0A8F8F7
:100650000121B1EBE03F07D17A4801684FF08F40AC
:1006600011F042FA7749086074497648006811F041
:1006700033F9064611F094F8000A6E4948716F4943
:100680007048006811F028F9064611F089F86949A8
:10069000887169480088051F04E00021A81D654A8B
:1006A00011546D1E002DF8DC63480078C01CC1B2E7
:1006B0006048FFF79BFE044621125E4A5E480088B0
:1006C000C01C11545C480088001D14545A4800781E
:1006D000401D5D49087010465C490860012240F2E7
:1006E000277145480EF019F970BD70B500254748CF
:1006F000007850490870032048704F48007888708F
:100700005048006811F04CF80121B1EBE03F07D1EF
:100710004C4801684FF08F4011F0E6F949490860F4
:1007200046494848006811F0D7F8064611F038F8F5
:10073000000A4049C87041494248006811F0CCF8AD
:10074000064611F02DF83B4908713B480088851E8C
:1007500004E00021281D374A11546D1E002DF8DCDD
:1007600035480078C01CC1B23248FFF73FFE04464E
:100770002112304A30480088C01C11542E4800888D
:10078000001D14542C480078401D2F490870104655
:100790002E490860012240F2277117480EF0BDF87B
:1007A00070BD70B5002519480078224908700320F3
:1007B000487021480078887020492148006811F06D
:1007C0008BF8064610F0ECFF000A1A49C8701B4966
:1007D0001B48006811F080F8064610F0E1FF15494B
:1007E000087115480088851E37E00000360000209B
:1007F000360100202D000020004400401C00002095
:100800002C00002000080040180000207402002086
:10081000190000201F0000202804002024000020D0
:10082000280000202F000020003801402000002078
:100830001D000020120600201400002000002041AE
:10084000600300205C0300204C02002048020020CE
:100850000021281DFE4A11546D1E002DF8DCFD48B4
:100860000078C01CC1B2FA48FFF7C0FD044621124F
:10087000F74AF8480088C01C1154F6480088001D4B
:100880001454F4480078401DF34908701046F349A9
:100890000860012240F22771F1480EF03EF870BD69
:1008A00010B50220EF490870EF4800884FF6FA7142
:1008B000884205DAED48007810B900200DF0DFF825
:1008C000E94800884FF6FA71884203DAE748007871
:1008D00001280ED101200DF0D2F80120E349087063
:1008E000E14800884FF6FA71884202DB3220DE4987
:1008F00008800A20DE49088008460288DD49DA4877
:1009000000880DF099F8DC480078D1490870D94882
:1009100000784870D74840788870D6488078C8708A
:10092000D448C0780871D34800794871D1484079DB
:100930008871D0488079C871CE48C0790872CD4896
:10094000007A4872CB48407A88720B20C2490870FE
:10095000C54800880A30C4490880084600880A2132
:1009600090FBF1F0C549098888420BDD3220BE4971
:1009700008800020C24908703220C2490880002047
:10098000C1490870B248B5490860012240F2277198
:10099000B3480DF0C2FF10BD70B50025BB480088FC
:1009A000B6490880B4480078A94908700320487007
:1009B00002208870B1480088000AC870AF480078EB
:1009C00008710521A248FFF711FD04462012A04935
:1009D00048718C710720A04908709D489F490860A4
:1009E000012240F227719E480DF097FF70BD2DE95E
:1009F000F04104460F460020A5490870A54800783C
:100A000000283BD12078401E255C4FF6FF7000EA9D
:100A100005252078205C05432078C01E205C8D4988
:100A20000880084600884FF6FF7101EA00208949D6
:100A300008802078801E205C098808434FF6FF71EB
:100A400001EA40008349088008460088202801DD2B
:100A5000202008802078801EC1B2601CFFF7C6FCF1
:100A6000064606218C48FFF7C1FC06462078801E0A
:100A7000C1B2601CFFF7BAFC064600E02E46AE424B
:100A800038D18448007808BBA07801281BD00328FF
:100A90001AD1022181480DF0F2FB6E48008804282B
:100AA00002D1FFF7B1FD0DE06A480088022809D1A4
:100AB000207910B9FFF775FE04E02079012801D1F3
:100AC000FFF713FE01E000E000BF16E0E07840B160
:100AD00010280DD1022171480DF0D1FBFFF7E0FE87
:100AE00007E002216D480DF0CAFBFFF755FF00E05B
:100AF00000BF02E000206A490870BDE8F08110B52F
:100B000040F2255156480DF0EDFF20B10320654914
:100B10000870FFF783FC40F2277151480DF0E2FFA7
:100B2000002838D04C48007800280BDD4B4800687E
:100B300001784A480068401C484B186048480DF04E
:100B40004DFF1FE000BF402145480DF0B5FF0028D4
:100B5000F9D0002240F2277141480DF0DEFE02215B
:100B60004E480DF08EFB00204D4908704E4908702C
:100B7000322404E0002036490855601E44B2002C9F
:100B8000F8DA00BF34480078002804DD32480078E5
:100B9000401E3149087010BD10B540F22551434840
:100BA0000DF0A0FF20B103203E490870FFF79BFC29
:100BB00040F227713D480DF095FF002834D02648BB
:100BC000007800280BDD254800680178234800687C
:100BD000401C224B186035480DF000FF1BE000BFA1
:100BE000402132480DF068FF0028F9D0002240F281
:100BF00027712E480DF091FE0020294908702A49DE
:100C00000870322404E0002011490855601E44B2E7
:100C1000002CF8DA00BF10480078002804DD0E48E8
:100C20000078401E0C49087010BD10B50121204805
:100C30000EF003FF002869D001201E490870002132
:100C40001B480EF031FC002119480EF0C1FE33E0C4
:100C500012060020140000204C0200204802002050
:100C6000004400401D03002016000020300000203A
:100C700034000020CC050020740200203200002047
:100C80001C030020480300201B0300203C0200201E
:100C90002D0000202F000020290400200008014022
:100CA0002C0000202E0000201F00002000380140F2
:100CB000000800401800002001201B4908701B4854
:100CC00000781B4908701B480078D8B11748007895
:100CD000042817DD012018490870154800792228DA
:100CE00003D01348C078102803D10120134908709D
:100CF00002E000201149087011480168114800689D
:100D0000FFF775FE012110480EF0A8FE10BD7047D8
:100D100000BFFEE700BFFEE700BFFEE700BFFEE743
:100D20007047704770477047190000201F0000206F
:100D3000280400202D0000202C0000202F0000207F
:100D4000280000202400002000080040002100E0CE
:100D5000491C8142FCD3704710B50524FE4804802D
:100D600000200CF08CFE2246FC4900200CF064FEB2
:100D700064200DF06AF8F9480078F9490870F748DE
:100D80004078F8490860F848096850F82100F749A8
:100D9000086010BD10B53224EF48048000200CF02C
:100DA0006EFE2246ED4900200CF046FE64200DF058
:100DB0004CF8EA480078EA490870E8484078E94980
:100DC0000860E948096850F82100E8490860E348EC
:100DD0008078E7490860E148C078E649086008463D
:100DE0000068502804DD08460068A0F5807008609F
:100DF000DA480079E049086008460068502804DDB8
:100E000008460068A0F580700860D4484079DB4946
:100E10000860D2488079DA490860D048C079D94959
:100E20000860CE48007AD8490860CC48407AD74953
:100E30000860CA48807AD6490860C848C07AD5494F
:100E40000860C648007BD4490860C448407BD34949
:100E50000860C248807BD2490860C048C07BD14945
:100E60000880BE48007C097800EB0120CD4908804D
:100E7000BA48407CCC490870B848807CCB490860AF
:100E8000B648C07CCA490860B448007DC9490860BA
:100E900008460068502804DD08460068A0F5807008
:100EA0000860AE48407DC449086008460068502884
:100EB00004DD08460068A0F580700860A748807DC2
:100EC000BE490860A548C07DBD490860A348007EB2
:100ED000BC49086008460068642804DD08460068CC
:100EE000A0F5807008609D48407EB74908600846BC
:100EF0000068642804DD08460068A0F5807008607A
:100F00009648807E18B19548807EFF2812D193487C
:100F1000C07E18B19148C07EFF280BD18F48007F5A
:100F200018B18E48007FFF2804D14FF4C870A7493C
:100F3000086011E08948807E8849C97E01EB810103
:100F400000EB41008549097F01EBC10202EB011171
:100F500000EB81009D4908608048407F18B17F48C0
:100F6000407FFF281BD17D48807F18B17B48807F60
:100F7000FF2814D17948C07F18B17848C07FFF2876
:100F80000DD1764890F8200020B1744890F82000E8
:100F9000FF2804D14FF4FA608D49086014E06F48CF
:100FA000407F6E49897F0A2202FB01006B49C97F9D
:100FB000642202FB0100694991F820104FF47A7213
:100FC00002FB010082490860644890F8210020B1CA
:100FD000624890F82100FF2816D1604890F822005E
:100FE00020B15E4890F82200FF280DD15B4890F8B0
:100FF000230020B1594890F82300FF2804D14FF472
:10100000C8707449086010E0544890F821005349B2
:1010100091F822100A2202FB0100504991F8231096
:10102000642202FB01006B4908604C4890F82400E0
:1010300020B14A4890F82400FF281FD1474890F873
:10104000250020B1454890F82500FF2816D14348D7
:1010500090F8260020B1414890F82600FF280DD1D5
:101060003E4890F8270020B13C4890F82700FF2820
:1010700004D14FF4FA605849086017E0374890F8F7
:101080002400364991F825100A2202FB0100334959
:1010900091F82610642202FB0100304991F82710D4
:1010A0004FF47A7202FB01004B4908602B4890F81C
:1010B000280020B1294890F82800FF281FD1274890
:1010C00090F8290020B1254890F82900FF2816D172
:1010D000224890F82A0020B1204890F82A00FF28E2
:1010E0000DD11E4890F82B0020B11C4890F82B0021
:1010F000FF2804D14FF4FA603849086017E0174818
:1011000090F82800154991F829100A2202FB0100E5
:10111000124991F82A10642202FB01000F4991F84C
:101120002B104FF47A7202FB01002C4908600B4827
:1011300090F82C0020B1094890F82C00FF2865D1C8
:10114000064890F82D0020B1044890F82D00FF28A3
:101150005CD1024844E0000018030020760600201D
:10116000740200207C02002080020020780200200F
:1011700094020020980200209C020020A802002077
:10118000AC020020B0020020B4020020B80200200F
:10119000BC020020C0020020C4020020C8020020BF
:1011A000CC020020480300201B030020D8020020AE
:1011B000E0020020E8020020F0020020F8020020F7
:1011C0000003002008030020100300206C0300200F
:1011D0007003002074030020780300207C030020AB
:1011E00090F82E0020B1F94890F82E00FF280DD17C
:1011F000F64890F82F0020B1F44890F82F00FF280F
:1012000004D14FF4FA60F249086017E0EF4890F813
:101210002C00EE4991F82D100A2202FB0100EB4947
:1012200091F82E10642202FB0100E84991F82F107A
:101230004FF47A7202FB0100E549086010BD10B559
:10124000E4480480E4480078E4490870E448007801
:101250004870E44800788870E3480078C870E34834
:1012600000780871E24800784871E2480078887197
:10127000E1480078C871E14800780872E0480078D9
:101280004872E04800788872DF480078C872DF480A
:1012900000780873DE4800784873DE480078887369
:1012A000DD480088000AC873DB4800780874DB4812
:1012B00000784874DA4800788874DA480078C8748E
:1012C000D94800780875D94800784875D84800781A
:1012D0008875D8480078C875D74800780876D74808
:1012E00000784876D6480068642190FBF1F201FB53
:1012F00012000A2190FBF1F201FB1200B749887637
:10130000CF480068642190FBF1F201FB12000A2132
:1013100090FBF1F0B149C876C9480068642190FBA0
:10132000F1F0AE490877C74800684FF47A7190FB36
:10133000F1F201FB1200642190FBF1F201FB1200BB
:101340000A2190FBF1F201FB1200A4494877BD4845
:1013500000684FF47A7190FBF1F201FB12006421F6
:1013600090FBF1F201FB12000A2190FBF1F09B4986
:101370008877B44800684FF47A7190FBF1F201FB72
:101380001200642190FBF1F09449C877AD480068E1
:101390004FF47A7190FBF1F0904981F82000AA484F
:1013A0000068642190FBF1F201FB12000A2190FB1E
:1013B000F1F201FB1200894981F82100A24800687E
:1013C000642190FBF1F201FB12000A2190FBF1F085
:1013D000824981F822009C480068642190FBF1F06A
:1013E0007E4981F82300994800684FF47A7190FB98
:1013F000F1F201FB1200642190FBF1F201FB1200FB
:101400000A2190FBF1F201FB1200744981F82400DB
:101410008E4800684FF47A7190FBF1F201FB1200E4
:10142000642190FBF1F201FB12000A2190FBF1F024
:101430006A4981F82500854800684FF47A7190FB6D
:10144000F1F201FB1200642190FBF1F0634981F895
:1014500026007E4800684FF47A7190FBF1F05F49F6
:1014600081F827007A4800684FF47A7190FBF1F216
:1014700001FB1200642190FBF1F201FB12000A2132
:1014800090FBF1F201FB1200544981F828007048EA
:1014900000684FF47A7190FBF1F201FB12006421B5
:1014A00090FBF1F201FB12000A2190FBF1F04B4995
:1014B00081F82900664800684FF47A7190FBF1F2D8
:1014C00001FB1200642190FBF1F0444981F82A00ED
:1014D0005F4800684FF47A7190FBF1F03F4981F862
:1014E0002B003B4800684FF47A7190FBF1F201FB4E
:1014F0001200642190FBF1F201FB12000A2190FB23
:10150000F1F201FB1200354981F82C0030480068E7
:101510004FF47A7190FBF1F201FB1200642190FB11
:10152000F1F201FB12000A2190FBF1F02B4981F846
:101530002D00274800684FF47A7190FBF1F201FB0F
:101540001200642190FBF1F0244981F82E0020481C
:1015500000684FF47A7190FBF1F0204981F82F0078
:10156000322400200CF08BFA22461C4900200CF09B
:1015700074FA64200CF069FC10BD08B50121042048
:101580000DF08CF84020ADF8000010208DF803001D
:1015900003208DF8020069462E480CF0C3FD08BDFB
:1015A00010B5044640212B480CF069FEA0B20CF0A7
:1015B0004CFC402127480CF064FE10BD03B583B0FD
:1015C00003981A2882F0378446E00000760600204F
:1015D000800300201803002074020020440600202D
:1015E0007C02002094020020980200209C0200202F
:1015F000A8020020AC020020B0020020B4020020AB
:10160000B8020020BC020020C0020020C40200205A
:10161000C8020020CC020020480300201B03002049
:10162000D8020020E0020020E8020020F0020020A2
:10163000F80200200003002008030020100300200F
:101640006C03002070030020740300207803002046
:101650007C03002000080140DFE810F01A001C00A5
:10166000DB00BF0146026103B8096F043805A20A16
:10167000C50FDC10FC056106DC066907F007AA0847
:101680005909740BA20CBD0DC80EE2118F13D713AC
:1016900002F0D1BB0AF0F3FB002108460AF051F931
:1016A0000122082102200AF0F1F8012102200AF0AB
:1016B00030F9012104200AF02CF90AF0A1FBFB48C3
:1016C0000078642190FBF1F201FB12000A2190FBEB
:1016D000F1F201FB1200C0B2014602901A200AF09A
:1016E00046F9F2480078642190FBF1F201FB120008
:1016F0000A2190FBF1F0C0B2014602901C200AF0D2
:1017000036F9EA480078642190FBF1F0C0B2014656
:1017100002901E200AF02BF9049810B1012876D10E
:101720003AE0E2480078401EE04908700846007838
:10173000012801DAFE2008700AF062FBDB4800781D
:10174000642190FBF1F201FB12000A2190FBF1F2FF
:1017500001FB1200C0B2014602901A200AF007F9FC
:10176000D2480078642190FBF1F201FB12000A21BB
:1017700090FBF1F0C0B2014602901C200AF0F7F88D
:10178000CA480078642190FBF1F0C0B20146029093
:101790001E200AF0ECF83AE0C4480078401CC34927
:1017A000087008460078FE2801DD012008700AF064
:1017B00027FBBE480078642190FBF1F201FB120088
:1017C0000A2190FBF1F201FB1200C0B20146029027
:1017D0001A200AF0CCF8B5480078642190FBF1F2A9
:1017E00001FB12000A2190FBF1F0C0B20146029009
:1017F0001C200AF0BCF8AD480078642190FBF1F0A1
:10180000C0B2014602901E200AF0B1F800BF00BF2E
:101810003EE70AF034FB022100200AF092F8012290
:10182000082102200AF032F801220821022009F0E2
:101830006BFF012102200AF084F8022104200AF043
:1018400068F80AF0DDFA9A489A49096850F82100C8
:101850009949086008460068642190FBF1F00A216C
:1018600090FBF1F201FB1200C0B2014602901A2077
:101870000AF07DF890480068642190FBF1F00A219D
:1018800090FBF1F090FBF1F201FB1200C0B20146B7
:1018900002901C200AF06BF88748006842F2107131
:1018A00090FBF1F0C0B2014602901E200AF05FF8F2
:1018B000049810B1012846D146E07E480068401ED9
:1018C0007C49086008460068002801DA04200860A6
:1018D00077487849096850F8210077490860084638
:1018E00000680CF0EEFA0AF08BFA73480068642185
:1018F00090FBF1F00A2190FBF1F201FB1200C0B263
:10190000014602901A200AF032F86B480068642100
:1019100090FBF1F00A2190FBF1F090FBF1F201FB5A
:101920001200C0B2014602901C200AF020F8624862
:10193000006842F2107190FBF1F0C0B201460290D3
:101940001E200AF014F846E05A480068401C594925
:10195000086008460068042801DD0020086054483B
:101960005449096850F82100534908600846006846
:101970000CF0A7FA0AF044FA4F480068642190FB83
:10198000F1F00A2190FBF1F201FB1200C0B2014616
:1019900002901A2009F0EBFF47480068642190FB91
:1019A000F1F00A2190FBF1F090FBF1F201FB120043
:1019B000C0B2014602901C2009F0D9FF3E480068E1
:1019C00042F2107190FBF1F0C0B2014602901E206D
:1019D00009F0CDFF00BF00BF5AE60AF050FA082117
:1019E000002009F0AEFF01220821022009F04EFF7D
:1019F0000721022009F0A5FF0321042009F089FF37
:101A00002E48006801280AD10AF0FAF90A211A20A2
:101A100009F0C3FF00211C2009F0A9FF0DE00AF026
:101A2000EFF905211A2009F0B8FF05211C2009F063
:101A3000B4FF00211E2009F09AFF049810B101287C
:101A400050D122E01D48006868B901201B49086098
:101A50000AF0D6F90A211A2009F09FFF00211C2064
:101A600009F085FF10E00020144908600AF0C8F969
:101A700005211A2009F091FF05211C2009F08DFF96
:101A800000211E2009F073FF2CE00C480068B8B953
:101A900001200A4908600AF0B3F90A211A2009F066
:101AA0007CFF00211C2009F062FF1AE07402002074
:101AB000800200207C020020780200209402002096
:101AC0000020FE4908600AF09BF905211A2009F060
:101AD00064FF05211C2009F060FF00211E2009F091
:101AE00046FF00BF00BFD3E50AF0C9F90B21002073
:101AF00009F027FF01220821022009F0C7FE032177
:101B0000022009F01EFF0421084609F002FF01210E
:101B1000172009F080FF0AF073F9E94800680028EF
:101B20000ADA01220821072009F0B0FEE448006823
:101B30004042E449086008E0E1480068E149086083
:101B400000220821072009F0A1FE00211A2009F037
:101B50000EFF012211461C2009F098FED9480068AA
:101B60000A2190FBF1F201FB1200C0B20146029083
:101B70001C2009F038FFD34800680A2190FBF1F0DF
:101B8000C0B2014602901E2009F0F1FE049810B187
:101B900001287AD17AE0CC480068C94909688842AE
:101BA0002BDB0AF02DF9C648006800280ADA01226A
:101BB0000821072009F06AFEC14800684042C14977
:101BC000086008E0BE480068BE490860002208219D
:101BD000072009F05BFE00220821072009F056FECD
:101BE00008211A2009F0D9FE08211C2009F0D5FE91
:101BF00006211E2009F0D1FE47E0B1480068401ED2
:101C0000AF4908600846006810F1280F02DA6FF04B
:101C1000270008600AF0F4F8A948006800280ADAEA
:101C200001220821072009F031FEA5480068404242
:101C3000A449086008E0A2480068A24908600022A0
:101C40000821072009F022FE00211A2009F08FFE4A
:101C5000012211461C2009F019FE9A4800680A2149
:101C600090FBF1F201FB1200C0B2014602901C2071
:101C700009F0B9FE934800680A2190FBF1F0C0B268
:101C8000014602901E2009F072FE46E08C48006872
:101C9000401C8B49086008460068502801DD502030
:101CA00008600AF0ADF88648006800280ADA0122C8
:101CB0000821072009F0EAFD814800684042814977
:101CC000086008E07E4800687E490860002208211C
:101CD000072009F0DBFD00211A2009F048FE01224F
:101CE00011461C2009F0D2FD764800680A2190FBBD
:101CF000F1F201FB1200C0B2014602901C2009F073
:101D000072FE704800680A2190FBF1F0C0B20146F3
:101D100002901E2009F02BFE00BF00BFB8E40AF0BD
:101D2000AEF80421002009F00CFE01220821022057
:101D300009F0ACFD0321022009F003FE042108464E
:101D400009F0E7FD0121172009F065FE0AF058F8B7
:101D50005D48006800280ADA01220821072009F0FE
:101D600095FD5948006840425849086008E05648C7
:101D700000685649086000220821072009F086FD06
:101D800000211A2009F0F3FD012211461C2009F060
:101D90007DFD4E4800680A2190FBF1F201FB120024
:101DA000C0B2014602901C2009F01DFE47480068A1
:101DB0000A2190FBF1F0C0B2014602901E2009F00A
:101DC000D6FD049810B1012848D148E03E4800688B
:101DD000401E3D4908600846006810F1280F02DAED
:101DE0006FF0270008600AF00BF8374800680028F9
:101DF0000ADA01220821072009F048FD324800686C
:101E000040423249086008E02F4800682F490860C6
:101E100000220821072009F039FD00211A2009F0CD
:101E2000A6FD012211461C2009F030FD274800685C
:101E30000A2190FBF1F201FB1200C0B201460290B0
:101E40001C2009F0D0FD214800680A2190FBF1F028
:101E5000C0B2014602901E2009F089FD6BE01A48CD
:101E6000006817490968884213DB09F0C9FF00229E
:101E70000821072009F00AFD08211A2009F08DFD2C
:101E800008211C2009F089FD06211E2009F085FD8E
:101E900050E00D480068401C0B4908600846006887
:101EA000502801DD5020086009F0AAFF06480068AC
:101EB000002815DA01220821072009E094020020F9
:101EC00098020020A40200209C020020A002002012
:101ED00009F0DCFCFB4800684042FB49086008E070
:101EE000F8480068F849086000220821072009F036
:101EF000CDFC00211A2009F03AFD012211461C20D8
:101F000009F0C4FCF04800680A2190FBF1F201FBE3
:101F10001200C0B2014602901C2009F064FDEA489C
:101F200000680A2190FBF1F0C0B2014602901E2029
:101F300009F01DFD00BF00BF6AE400220821072050
:101F400009F0A4FC09F09BFF0B21002009F0F9FC2B
:101F500001220821022009F099FC0B21022009F03E
:101F6000F0FC0421084609F0D4FC09F049FF0022E6
:101F70000821072009F08AFC00211A2009F033FD0E
:101F8000012211461C2009F081FCD04800680A217A
:101F900090FBF1F201FB1200C0B2014602901C203E
:101FA00009F021FDC94800680A2190FBF1F0C0B298
:101FB000014602901E2009F0DAFC049810B10128B5
:101FC0004DD14DE0C1480068C1490968884213DC21
:101FD00009F016FF00220821072009F057FC08210C
:101FE0001A2009F0DAFC08211C2009F0D6FC062191
:101FF0001E2009F0D2FC32E0B4480068401EB3490C
:10200000086008460068002801DA0120086009F02D
:10201000F7FE00220821072009F038FC00211A20D1
:1020200009F0E1FC012211461C2009F02FFCA74811
:1020300000680A2190FBF1F201FB1200C0B20146D8
:1020400002901C2009F0CFFCA04800680A2190FBF8
:10205000F1F0C0B2014602901E2009F088FC33E086
:102060009A480068401C994908600846006863283F
:1020700001DD6320086009F0C3FE0022082107206B
:1020800009F004FC00211A2009F0ADFC01221146E0
:102090001C2009F0FBFB8D4800680A2190FBF1F23F
:1020A00001FB1200C0B2014602901C2009F09BFC0B
:1020B000864800680A2190FBF1F0C0B20146029008
:1020C0001E2009F054FC00BF00BF85E409F0D7FED4
:1020D0000421002009F035FC01220821022009F02A
:1020E000D5FB0B21022009F02CFC0421084609F045
:1020F00010FC09F085FE00220821072009F0C6FB2C
:1021000000211A2009F06FFC012211461C2009F061
:10211000BDFB6F4800680A2190FBF1F201FB120041
:10212000C0B2014602901C2009F05DFC68480068BE
:102130000A2190FBF1F0C0B2014602901E2009F086
:1021400016FC049810B1012833D133E060480068D0
:10215000401E5F49086008460068002801DA002038
:10216000086009F04DFE00220821072009F08EFBCF
:1021700000211A2009F037FC012211461C2009F029
:1021800085FB534800680A2190FBF1F201FB120025
:10219000C0B2014602901C2009F025FC4C480068A2
:1021A0000A2190FBF1F0C0B2014602901E2009F016
:1021B000DEFB4DE04548006845490968884213DC6C
:1021C00009F01EFE00220821072009F05FFB08210C
:1021D0001A2009F0E2FB08211C2009F0DEFB062191
:1021E0001E2009F0DAFB32E039480068401C38490B
:1021F000086008460068632801DD6320086009F074
:10220000FFFD00220821072009F040FB00211A20D1
:1022100009F0E9FB012211461C2009F037FB2C488C
:1022200000680A2190FBF1F201FB1200C0B20146E6
:1022300002901C2009F0D7FB254800680A2190FB7A
:10224000F1F0C0B2014602901E2009F090FB00BFE1
:1022500000BF48E409F013FE0521002009F071FBDE
:1022600001220821022009F011FB0321022009F0BC
:1022700068FB0621042009F04CFB0121172009F01E
:10228000CAFB09F0BDFD13480068012804D10521EF
:102290001C2009F082FB03E003211C2009F07DFBD8
:1022A000049810B1012838D120E00A48006898B994
:1022B00001200849086009F0A3FD05211C2009F050
:1022C0006CFB12E09C020020A0020020A80200206B
:1022D000AC020020B00200200020F949086009F09B
:1022E0008FFD03211C2009F058FB16E0F44800681C
:1022F00048B90120F249086009F082FD05211C203F
:1023000009F04BFB08E00020ED49086009F078FD7A
:1023100003211C2009F041FB00BF00BFFEE409F0CF
:10232000AEFD0821002009F00CFB0122082102204B
:1023300009F0ACFA0521022009F003FB0721042073
:1023400009F0E7FA09F05CFDDE480068012808D1D1
:102350000A211A2009F021FB00211C2009F007FBAB
:102360000BE005211A2009F018FB05211C2009F0BB
:1023700014FB00211E2009F0FAFA049810B101287C
:1023800046D122E0CF48006868B90120CD490860F5
:1023900009F036FD0A211A2009F0FFFA00211C205D
:1023A00009F0E5FA10E00020C649086009F028FDB0
:1023B00005211A2009F0F1FA05211C2009F0EDFA97
:1023C00000211E2009F0D3FA22E0BE48006868B957
:1023D0000120BC49086009F013FD0A211A2009F008
:1023E000DCFA00211C2009F0C2FA10E00020B549F7
:1023F000086009F005FD05211A2009F0CEFA052133
:102400001C2009F0CAFA00211E2009F0B0FA00BF12
:1024100000BF83E409F033FD0121002009F079FABF
:1024200001220821022009F031FA0321022009F0DB
:1024300088FA0821042009F06CFA09F0E1FCA248AE
:10244000006838B90A211A2009F0A7FA00211C20D7
:1024500009F08DFA9C48006801280BD105211A204B
:1024600009F09BFA05211C2009F097FA00211E2093
:1024700009F07DFA049810B1012856D12AE092485B
:102480000068401E9049086008460068002801DA8C
:10249000012008608C48006848B909F0B1FC0A21A5
:1024A0001A2009F07AFA00211C2009F060FA864807
:1024B000006801280DD109F0A3FC05211A2009F0BC
:1024C0006CFA05211C2009F068FA00211E2009F091
:1024D0004EFA2AE07C480068401C7B4908600846A8
:1024E0000068012801DD002008607748006848B9CD
:1024F00009F086FC0A211A2009F04FFA00211C205D
:1025000009F035FA7048006801280DD109F078FC0F
:1025100005211A2009F041FA05211C2009F03DFA95
:1025200000211E2009F023FA00BF00BF04E509F0D6
:10253000A6FC0221002009F0ECF90122082102206A
:1025400009F0A4F90321022009F0FBF90821042075
:1025500009F0DFF909F054FC5C48006801280CD14F
:1025600003211A2009F019FA09211C2009F015FA93
:1025700003211E2009F011FA0BE000211A2009F0B6
:102580000CFA08211C2009F008FA00211E2009F08D
:10259000EEF9049810B101284ED126E04B480068AE
:1025A00088B901204949086009F02AFC03211A2052
:1025B00009F0F3F909211C2009F0EFF903211E208D
:1025C00009F0EBF910E000204049086009F018FC20
:1025D00000211A2009F0E1F908211C2009F0DDF999
:1025E00000211E2009F0C3F926E03848006888B9A8
:1025F00001203649086009F003FC03211A2009F084
:10260000CCF909211C2009F0C8F903211E2009F08A
:10261000C4F910E000202D49086009F0F1FB002109
:102620001A2009F0BAF908211C2009F0B6F9002196
:102630001E2009F09CF900BF00BF7DE409F01FFCDB
:102640000321002009F065F901220821022009F088
:102650001DF90321022009F074F90821042009F072
:1026600058F909F0CDFB1A4800680A2190FBF1F2F5
:1026700001FB1200C0B2014602901A2009F077F95E
:10268000134800680A2190FBF1F090FBF1F201FB86
:102690001200C0B2014602901C2009F068F90C48F3
:1026A0000068642190FBF1F0C0B2014602901E2048
:1026B00009F05DF9049868B1012877D140E0000085
:1026C000B0020020B4020020B8020020BC020020AA
:1026D000C0020020FE480068401EFD490860084610
:1026E0000068012802DA4FF41670086009F088FBD0
:1026F000F74800680A2190FBF1F201FB1200C0B21A
:10270000014602901A2009F032F9F14800680A21C6
:1027100090FBF1F090FBF1F201FB1200C0B2014618
:1027200002901C2009F023F9E9480068642190FB1D
:10273000F1F0C0B2014602901E2009F018F935E010
:10274000E3480068401CE249086008460068B0F5AC
:10275000167F01DD0120086009F052FBDC480068AB
:102760000A2190FBF1F201FB1200C0B20146029077
:102770001A2009F0FCF8D64800680A2190FBF1F015
:1027800090FBF1F201FB1200C0B2014602901C2046
:1027900009F0EDF8CE480068642190FBF1F0C0B27A
:1027A000014602901E2009F0E2F800BF00BF8CE451
:1027B00009F065FB0421002009F0ABF80122082193
:1027C000022009F063F80321022009F0BAF8082179
:1027D000042009F09EF809F013FBBE4800680A21A6
:1027E00090FBF1F201FB1200C0B2014602901A20E8
:1027F00009F0BDF8B74800680A2190FBF1F090FBA2
:10280000F1F201FB1200C0B2014602901C2009F057
:10281000AEF8B0480068642190FBF1F0C0B2014608
:1028200002901E2009F0A3F8049810B101286CD181
:1028300035E0A8480068401EA649086008460068C0
:10284000012802DA4FF41670086009F0D9FAA1489D
:1028500000680A2190FBF1F201FB1200C0B20146B0
:1028600002901A2009F083F89A4800680A2190FB28
:10287000F1F090FBF1F201FB1200C0B201460290B0
:102880001C2009F074F893480068642190FBF1F073
:10289000C0B2014602901E2009F069F835E08D486B
:1028A0000068401C8B49086008460068B0F5167F38
:1028B00001DD0120086009F0A3FA864800680A21BA
:1028C00090FBF1F201FB1200C0B2014602901A2007
:1028D00009F04DF87F4800680A2190FBF1F090FB69
:1028E000F1F201FB1200C0B2014602901C2009F077
:1028F0003EF878480068642190FBF1F0C0B20146D0
:1029000002901E2009F033F800BF00BFA1E409F0D7
:10291000B6FA0521002008F0FCFF01220821022060
:1029200008F0B4FF0321022009F00BF8082104206D
:1029300008F0EFFF09F064FA674800680A2190FB8D
:10294000F1F201FB1200C0B2014602901A2009F018
:102950000EF8049810B1012836D11AE05E480068DC
:10296000401E5D49086008460068002801DA012021
:10297000086009F045FA584800680A2190FBF1F216
:1029800001FB1200C0B2014602901A2008F0EFFFCE
:102990001AE051480068401C4F490860084600682A
:1029A000012801DD0020086009F02AFA4A48006881
:1029B0000A2190FBF1F201FB1200C0B20146029025
:1029C0001A2008F0D4FF00BF00BF42E409F057FA14
:1029D00000220821072008F059FF002208210A20C0
:1029E00008F054FF0021084608F0ABFF012208213F
:1029F000022008F04BFF0321022008F0A2FF04216F
:102A0000084608F086FF0121172009F004F809F0B4
:102A1000F7F9324800680A2190FBF1F201FB12003D
:102A2000C0B2014602901A2008F0A1FF012211460F
:102A30001C2008F02BFF294800680A2190FBF1F0C8
:102A400090FBF1F201FB1200C0B2014602901C2083
:102A500008F0C9FF21480068642190FBF1F0C0B282
:102A6000014602901E2008F082FF049810B1012850
:102A700043D143E019480068401E184908600846E1
:102A80000068002801DA0020086009F0B9F913484D
:102A900000680A2190FBF1F201FB1200C0B201466E
:102AA00002901A2008F063FF012211461C2008F052
:102AB000EDFE0A4800680A2190FBF1F090FBF1F26C
:102AC00001FB1200C0B2014602901C2008E0000089
:102AD000C0020020C4020020D4020020D80200203E
:102AE00008F081FFFE480068642190FBF1F0C0B25D
:102AF000014602901E2008F03AFF4FE0F8480068B7
:102B0000401CF7490860F7480068F7490968401A0F
:102B1000032190FBF1F000EB8000F1490968B1EB73
:102B2000400F0CDDEF480068EF490968401A0321A7
:102B300090FBF1F000EB80004000E949086009F0EB
:102B40005FF9E74800680A2190FBF1F201FB1200EF
:102B5000C0B2014602901A2008F009FF0122114676
:102B60001C2008F093FEDE4800680A2190FBF1F07B
:102B700090FBF1F201FB1200C0B2014602901C2052
:102B800008F031FFD6480068642190FBF1F0C0B234
:102B9000014602901E2008F0EAFE00BF00BF38E4A4
:102BA00009F06DF90021084608F0CBFE012208214A
:102BB000022008F06BFE0B21022008F0C2FE042167
:102BC000084608F0A6FEC94800680A2190FBF1F209
:102BD00001FB1200C0B20246012102901C2008F045
:102BE00055FE09F00DF900211A2008F0FCFEBF483F
:102BF00000680A2190FBF1F090FBF1F201FB12005A
:102C0000C0B2014602901C2008F0EDFEB7480068F3
:102C1000642190FBF1F0C0B2014602901E2008F042
:102C2000A6FE049810B1012839D139E0AF480068F8
:102C3000401EAE49086008460068002801DA0020FE
:102C4000086009F0DDF8A94800680A2190FBF1F25C
:102C500001FB1200C0B2014602901A2008F0C3FE28
:102C6000012211461C2008F011FEA04800680A212C
:102C700090FBF1F090FBF1F201FB1200C0B20146B3
:102C800002901C2008F0AFFE98480068642190FB79
:102C9000F1F0C0B2014602901E2008F068FE4FE03D
:102CA00092480068401C9149086091480068914929
:102CB0000968401A032190FBF1F000EB80008B497A
:102CC0000968B1EB400F0CDD894800688949096843
:102CD000401A032190FBF1F000EB80004000834993
:102CE000086009F08DF8814800680A2190FBF1F234
:102CF00001FB1200C0B2014602901A2008F073FED8
:102D0000012211461C2008F0C1FD784800680A2104
:102D100090FBF1F090FBF1F201FB1200C0B2014612
:102D200002901C2008F05FFE70480068642190FB50
:102D3000F1F0C0B2014602901E2008F018FE00BF5C
:102D400000BF7AE409F09BF80021084608F0E1FD95
:102D500001220821022008F099FD0321022008F039
:102D6000F0FD0721042008F0ECFD0121172008F0F8
:102D700052FE09F045F86048006800280ADA01228E
:102D80000821072008F082FD5B48006840425B494B
:102D9000086008E058480068584908600022082187
:102DA000072008F073FD00211A2008F0E0FD012241
:102DB00011461C2008F06AFD504800680A2190FB6B
:102DC000F1F201FB1200C0B2014602901C2008F093
:102DD0000AFE4A4800680A2190FBF1F0C0B20146A1
:102DE00002901E2008F0C3FD049810B1012848D1BC
:102DF00048E041480068401E3F49086008460068B6
:102E000010F1280F02DA6FF02700086008F0F8FFD1
:102E10003948006800280ADA01220821072008F052
:102E200035FD3548006840423449086008E03248C2
:102E300000683249086000220821072008F026FDBA
:102E400000211A2008F093FD012211461C2008F0F1
:102E50001DFD2A4800680A2190FBF1F201FB1200D7
:102E6000C0B2014602901C2008F0BDFD2348006856
:102E70000A2190FBF1F0C0B2014602901E2008F03A
:102E800076FD8BE01C4800681D49096888423EDBDE
:102E900008F0B6FF1848006800280ADA0122082165
:102EA000072008F0F3FC144800684042134908600A
:102EB00008E0114800681149086000220821072035
:102EC00008F0E4FC00220821072008F0DFFC0821BC
:102ED0001A2008F062FD08211C2008F05EFD11E0B8
:102EE000D8020020980200209C020020E00200206E
:102EF000A8020020AC020020E8020020EC02002022
:102F0000F002002006211E2008F047FD45E0FE48A3
:102F10000068401CFC49086008460068502801DD34
:102F20005020086008F06CFFF748006800280ADAB3
:102F300001220821072008F0A9FCF348006840425C
:102F4000F249086008E0F0480068F0490860002293
:102F50000821072008F09AFC00211A2008F007FD3C
:102F6000012211461C2008F091FCE84800680A2163
:102F700090FBF1F201FB1200C0B2014602901C204E
:102F800008F031FDE14800680A2190FBF1F0C0B281
:102F9000014602901E2008F0EAFC00BF00BF06E4D4
:102FA00008F06DFF0121002008F0B3FC0122082188
:102FB000022008F06BFC0321022008F0C2FC07216C
:102FC000042008F0BEFC0121172008F024FD08F0C1
:102FD00017FFCF48006800280ADA012208210720DD
:102FE00008F054FCCA4800684042CA49086008E03A
:102FF000C7480068C749086000220821072008F078
:1030000045FC00211A2008F0B2FC012211461C20C8
:1030100008F03CFCBF4800680A2190FBF1F201FB7C
:103020001200C0B2014602901C2008F0DCFCB94836
:1030300000680A2190FBF1F0C0B2014602901E2008
:1030400008F095FC049810B101287AD17AE0AE48D6
:103050000068AF49096888422BDB08F0D1FEAC4814
:10306000006800280ADA01220821072008F00EFC77
:10307000A74800684042A749086008E0A4480068E3
:10308000A449086000220821072008F0FFFB002265
:103090000821072008F0FAFB08211A2008F07DFC1F
:1030A00008211C2008F079FC06211E2008F075FC80
:1030B00047E097480068401E954908600846006848
:1030C00010F1280F02DA6FF02700086008F098FE70
:1030D0008F48006800280ADA01220821072008F03A
:1030E000D5FB8B48006840428A49086008E0884860
:1030F00000688849086000220821072008F0C6FB04
:1031000000211A2008F033FC012211461C2008F08F
:10311000BDFB804800680A2190FBF1F201FB120020
:10312000C0B2014602901C2008F05DFC794800689E
:103130000A2190FBF1F0C0B2014602901E2008F077
:1031400016FC46E072480068401C71490860084659
:103150000068502801DD5020086008F051FE6C48DE
:10316000006800280ADA01220821072008F08EFBF7
:103170006748006840426749086008E064480068A2
:103180006449086000220821072008F07FFB002125
:103190001A2008F0ECFB012211461C2008F076FBF7
:1031A0005C4800680A2190FBF1F201FB1200C0B2FA
:1031B000014602901C2008F016FC564800680A21BF
:1031C00090FBF1F0C0B2014602901E2008F0CFFB48
:1031D00000BF00BFE3E408F052FE0021084608F0FB
:1031E00098FB01220821022008F050FB0B2102204D
:1031F00008F0A7FB0721042008F0A3FB08F000FE5D
:103200004548006800280ADA01220821072008F052
:103210003DFB4148006840424049086008E03E48A4
:1032200000683E49086000220821072008F02EFBB4
:1032300000211A2008F0D7FB012211461C2008F0BB
:1032400025FB364800680A2190FBF1F201FB1200D1
:10325000C0B2014602901C2008F0C5FB2F48006850
:103260000A2190FBF1F0C0B2014602901E2008F046
:103270007EFB049810B1012854D154E02648006820
:10328000401E2549086008460068002801DA002031
:10329000086008F0B5FD2048006800280ADA01221D
:1032A0000821072008F0F2FA1B48006840421B4939
:1032B000086008E0184800681849086000220821E2
:1032C000072008F0E3FA00211A2008F08CFB012205
:1032D00011461C2008F0DAFA104800680A2190FB19
:1032E000F1F201FB1200C0B2014602901C2008F06E
:1032F0007AFB0A4800680A2190FBF1F0C0B201464F
:1033000002901E200CE00000E8020020EC020020E9
:10331000F0020020F4020020F8020020FC0200204D
:1033200008F025FB60E0FE480068FE490968884215
:1033300026DB08F065FDFA48006800280ADA012259
:103340000821072008F0A2FAF54800684042F64933
:10335000086008E0F2480068F3490860002208218C
:10336000072008F093FA08211A2008F016FB08211C
:103370001C2008F012FB06211E2008F00EFB33E093
:10338000E7480068401CE649086008460068632872
:1033900001DD0920086008F033FD00220821072024
:1033A00008F074FA00211A2008F01DFB01221146D2
:1033B0001C2008F06BFADC4800680A2190FBF1F24F
:1033C00001FB1200C0B2014602901C2008F00BFB6A
:1033D000D54800680A2190FBF1F0C0B20146029086
:1033E0001E2008F0C4FA00BF00BFAAE408F047FDA1
:1033F0000121002008F08DFA01220821022008F0A6
:1034000045FA0B21022008F09CFA0721042008F05D
:1034100098FA08F0F5FCC348006800280ADA01228F
:103420000821072008F032FABE4800684042BF4930
:10343000086008E0BB480068BC4908600022082119
:10344000072008F023FA00211A2008F0CCFA012204
:1034500011461C2008F01AFAB44800680A2190FBB3
:10346000F1F201FB1200C0B2014602901C2008F0EC
:10347000BAFAAE4800680A2190FBF1F0C0B20146EA
:1034800002901E2008F073FA049810B1012860D150
:1034900060E0A3480068A3490968884213DB08F08C
:1034A000AFFC00220821072008F0F0F908211A20BB
:1034B00008F073FA08211C2008F06FFA06211E207C
:1034C00008F06BFA45E097480068401E954908608F
:1034D00008460068002801DA0020086008F090FC27
:1034E0009048006800280ADA01220821072008F025
:1034F000CDF98C48006840428C49086008E0894852
:1035000000688A49086000220821072008F0BEF9F7
:1035100000211A2008F067FA012211461C2008F049
:10352000B5F9824800680A2190FBF1F201FB120014
:10353000C0B2014602901C2008F055FA7B48006892
:103540000A2190FBF1F0C0B2014602901E2008F063
:103550000EFA46E073480068401C7249086008464D
:103560000068632801DD6320086008F049FC6D48AD
:10357000006800280ADA01220821072008F086F9ED
:103580006848006840426949086008E0654800688A
:103590006649086000220821072008F077F9002119
:1035A0001A2008F020FA012211461C2008F06EF9BA
:1035B0005E4800680A2190FBF1F201FB1200C0B2E4
:1035C000014602901C2008F00EFA584800680A21B3
:1035D00090FBF1F0C0B2014602901E2008F0C7F93E
:1035E00000BF00BF1BE208F04AFC0021084608F0BB
:1035F00090F901220821022008F048F90321022055
:1036000008F09FF90521042008F083F90121172013
:1036100008F001FA08F0F4FB4548006800280ADACF
:1036200001220821072008F031F941480068404292
:103630004049086008E03E4800683E4908600022B2
:103640000821072008F022F93A4800680A2190FB77
:10365000F1F201FB1200C0B2014602901A2008F0FC
:1036600086F9012211461C2008F010F93148006843
:103670000A2190FBF1F090FBF1F201FB1200C0B2C5
:10368000014602901C2008F0AEF92A480068642127
:1036900090FBF1F0C0B2014602901E2008F067F9DD
:1036A000049810B1012860D160E021480068401EF4
:1036B0001F4908600846006810F1640F02DA6FF0D5
:1036C000630008601A48006800280ADA012208210D
:1036D000072008F0DBF816480068404215490860EA
:1036E00008E01348006813490860002208210720F9
:1036F00008F0CCF808F084FB0E4800680A2190FB23
:10370000F1F201FB1200C0B2014602901A2008F04B
:103710002EF9012211461C2008F0B8F805480BE0EC
:10372000F802002000030020FC0200200403002017
:10373000080300200C03002000680A2190FBF1F030
:1037400090FBF1F201FB1200C0B2014602901C2076
:1037500008F049F9FE480068642190FBF1F0C0B21E
:10376000014602901E2008F002F951E0F948006875
:10377000401CF849086008460068642801DD6420A0
:103780000860F448006800280ADA012208210720AE
:1037900008F07CF8EF4800684042ED49086008E016
:1037A000EC480068EA49086000220821072008F078
:1037B0006DF808F025FBE64800680A2190FBF1F25D
:1037C00001FB1200C0B2014602901A2008F0CFF8A7
:1037D000012211461C2008F059F8DD4800680A2132
:1037E00090FBF1F090FBF1F201FB1200C0B2014638
:1037F00002901C2008F0F7F8D5480068642190FB7F
:10380000F1F0C0B2014602901E2008F0B0F800BFEF
:1038100000BF10E308F033FB0021084608F079F8F8
:1038200001220821022008F031F80B21022008F0C3
:1038300088F80521042008F06CF808F0E1FAC64881
:10384000006800280ADA01220821072008F01EF883
:10385000C14800684042C149086008E0BE480068AD
:10386000BE49086000220821072008F00FF8BB4875
:1038700000680A2190FBF1F201FB1200C0B2014680
:1038800002901A2008F0AFF8012211461C2007F020
:10389000FDFFB24800680A2190FBF1F090FBF1F2C5
:1038A00001FB1200C0B2014602901C2008F09BF8F8
:1038B000AA480068642190FBF1F0C0B20146029072
:1038C0001E2008F054F8049810B1012853D153E099
:1038D000A1480068401EA04908600846006810F131
:1038E000640F02DA6FF0630008609B4800680028EC
:1038F0000ADA01220821072007F0C8FF964800686D
:1039000040429649086008E093480068934908607F
:1039100000220821072007F0B9FF08F071FA8F484C
:1039200000680A2190FBF1F201FB1200C0B20146CF
:1039300002901A2008F057F8012211461C2007F0C7
:10394000A5FF864800680A2190FBF1F090FBF1F298
:1039500001FB1200C0B2014602901C2008F043F89F
:103960007E480068642190FBF1F0C0B201460290ED
:103970001E2007F0FCFF51E077480068401C7649A4
:10398000086008460068642801DD64200860724809
:10399000006800280ADA01220821072007F076FFD4
:1039A0006D48006840426D49086008E06A48006858
:1039B0006A49086000220821072007F067FF08F025
:1039C0001FFA664800680A2190FBF1F201FB120021
:1039D000C0B2014602901A2008F005F801221146F3
:1039E0001C2007F053FF5D4800680A2190FBF1F0AE
:1039F00090FBF1F201FB1200C0B2014602901C20C4
:103A000007F0F1FF55480068642190FBF1F0C0B267
:103A1000014602901E2007F0AAFF00BF00BF0AE285
:103A200008F02DFA0821002007F08BFF0721022063
:103A300007F087FF0121042007F083FF00220821FF
:103A4000072007F023FF08F0DBF94FF080414448DE
:103A500000680DF041FF0290424800680146019065
:103A600002980DF005FF08D201211C2007F07FFF0E
:103A700000211A2007F07BFF7EE14FF0804138489B
:103A800000680DF029FF0290364840680146019019
:103A900002980DF0EDFE17D24FF0804130480068DB
:103AA0000DF01AFF02902F4800680146019002981D
:103AB0000DF0DEFF08D802211C2007F058FF00217E
:103AC0001A2007F054FF57E14FF080412448006866
:103AD0000DF002FF02902348806801460190029891
:103AE0000DF0C6FE17D24FF080411D4800680DF062
:103AF000F3FE02901B4840680146019002980DF0C9
:103B0000B7FF08D803211C2007F031FF00211A203D
:103B100007F02DFF30E14FF08041114800680DF0B3
:103B2000DBFE02900F48C0680146019002980DF03C
:103B30009FFE25D24FF08041094800680DF0CCFE71
:103B40000290084880680146019002980CE000004D
:103B50000C030020080300201003002014030020A1
:103B6000900300209C0300200DF082FF08D8042160
:103B70001C2007F0FCFE00211A2007F0F8FEFBE0F5
:103B80004FF08041FE4800680DF0A6FE0290FD480F
:103B900000690146019002980DF06AFE17D24FF0BD
:103BA0008041F74800680DF097FE0290F548C06824
:103BB0000146019002980DF05BFF08D805211C20FA
:103BC00007F0D5FE00211A2007F0D1FED4E04FF017
:103BD0008041EB4800680DF07FFE0290E9484069A3
:103BE0000146019002980DF043FE17D24FF080413C
:103BF000E34800680DF070FE0290E248006901465B
:103C0000019002980DF034FF08D806211C2007F01F
:103C1000AEFE00211A2007F0AAFEADE04FF0804171
:103C2000D74800680DF058FE0290D64880690146DA
:103C3000019002980DF01CFE17D24FF08041D04841
:103C400000680DF049FE0290CE484069014601909F
:103C500002980DF00DFF08D807211C2007F087FE01
:103C600000211A2007F083FE86E04FF08041C4480F
:103C700000680DF031FE0290C248C0690146019013
:103C800002980DF0F5FD17D24FF08041BC48006856
:103C90000DF022FE0290BB48806901460190029817
:103CA0000DF0E6FE08D808211C2007F060FE002178
:103CB0001A2007F05CFE5FE04FF08041B0480068DA
:103CC0000DF00AFE0290AF48006A0146019002988A
:103CD0000DF0CEFD17D24FF08041A94800680DF0DD
:103CE000FBFD0290A748C0690146019002980DF0C3
:103CF000BFFE08D809211C2007F039FE00211A2038
:103D000007F035FE38E04FF080419D4800680DF027
:103D1000E3FD02909B48406A0146019002980DF035
:103D2000A7FD0ED24FF08041954800680DF0D4FDFC
:103D300002909448006A0146019002980DF098FEA6
:103D40000ED94FF080418E4800680DF0C5FD0290FD
:103D50008C48406A0146019002980DF089FE0BD80C
:103D600001211E2007F003FE00211C2007F0FFFDAB
:103D700000211A2007F0FBFD5DE008F080F8042127
:103D8000002007F0DEFD0621022007F0DAFD052104
:103D9000042007F0BEFD08F033F87B4800780146A8
:103DA00002901A2007F0E3FD049810B101282AD1EF
:103DB00014E075480068401E7349086008460068B2
:103DC000012801DA0420086008F01AF86E4800782B
:103DD000014602901A2007F0CAFD14E06A48006804
:103DE000401C6949086008460068042801DD01207C
:103DF000086008F005F864480078014602901A202F
:103E000007F0B5FD00BF00BF15E008F038F8062147
:103E1000022007F07EFD0121042007F07AFD07F063
:103E2000EFFF01205949086000205949086001202E
:103E30005849086000BF00BF05B000BD03B583B09E
:103E400003981A2882F03483DFE810F01A001C006F
:103E5000EA00CE014B02590357041805C805230692
:103E60009E063607BD076C0824098309430A080B20
:103E7000060C100D080E0D0F17102A11C9121C1375
:103E800002F016BB07F0FBFF0021084607F059FDC2
:103E900001220821022007F0F9FC0121022007F08D
:103EA00038FD0121042007F034FD07F0A9FF3A484E
:103EB0000078642190FBF1F201FB12000A2190FBD3
:103EC000F1F201FB1200C0B2014602901A2007F085
:103ED0004EFD31480078642190FBF1F201FB1200A5
:103EE0000A2190FBF1F0C0B2014602901C2007F0BD
:103EF0003EFD29480078642190FBF1F0C0B20146F4
:103F000002901E2007F033FD049810B1012849D11A
:103F100049E021480078401E1F4908700846007893
:103F2000012801DAFE20087007F06AFF1A480078BD
:103F3000642190FBF1F201FB12000A2190FBF1F2E7
:103F400001FB1200C0B2014602901A2007F00FFDDB
:103F500011480078642190FBF1F201FB12000A2164
:103F600090FBF1F0C0B2014602901C2007F0FFFC6C
:103F700009480078642190FBF1F0C0B201460DE0E1
:103F8000900300209C030020CC0200203803002076
:103F900024030020400300207402002002901E2011
:103FA00007F0E5FC3AE0FA480078401CF849087050
:103FB00008460078FE2801DD0120087007F020FF88
:103FC000F3480078642190FBF1F201FB12000A2112
:103FD00090FBF1F201FB1200C0B2014602901A20E0
:103FE00007F0C5FCEA480078642190FBF1F201FB80
:103FF00012000A2190FBF1F0C0B2014602901C2091
:1040000007F0B5FCE2480078642190FBF1F0C0B203
:10401000014602901E2007F0AAFC00BF00BF2FE758
:1040200007F02DFF0221002007F08BFC0122082160
:10403000022007F02BFC01220821022007F064FB7C
:104040000121022007F07DFC0221042007F061FC21
:1040500007F0D6FECF48D049096850F82100CF4973
:10406000086008460068642190FBF1F00A2190FB8B
:10407000F1F201FB1200C0B2014602901A2007F0D3
:1040800076FCC6480068642190FBF1F00A2190FBA1
:10409000F1F090FBF1F201FB1200C0B20146029078
:1040A0001C2007F064FCBD48006842F2107190FBD0
:1040B000F1F0C0B2014602901E2007F058FC0498AF
:1040C00010B1012846D146E0B3480068401EB2490D
:1040D000086008460068002801DA04200860AD483E
:1040E000AD49096850F82100AC49086008460068ED
:1040F00009F0E7FE07F084FEA8480068642190FB01
:10410000F1F00A2190FBF1F201FB1200C0B201466E
:1041100002901A2007F02BFCA0480068642190FB55
:10412000F1F00A2190FBF1F090FBF1F201FB12009B
:10413000C0B2014602901C2007F019FC97480068A5
:1041400042F2107190FBF1F0C0B2014602901E20C5
:1041500007F00DFC46E090480068401C8E4908605E
:1041600008460068042801DD0020086089488A4963
:10417000096850F82100894908600846006809F07C
:10418000A0FE07F03DFE85480068642190FBF1F039
:104190000A2190FBF1F201FB1200C0B2014602902D
:1041A0001A2007F0E4FB7D480068642190FBF1F0E1
:1041B0000A2190FBF1F090FBF1F201FB1200C0B27A
:1041C000014602901C2007F0D2FB7448006842F2BE
:1041D000107190FBF1F0C0B2014602901E2007F072
:1041E000C6FB00BF00BF4BE607F049FE08210020D8
:1041F00007F0A7FB01220821022007F047FB072157
:10420000022007F09EFB0321042007F082FB644894
:10421000006801280AD107F0F3FD0A211A2007F0EF
:10422000BCFB00211C2007F0A2FB0DE007F0E8FD1D
:1042300005211A2007F0B1FB05211C2007F0ADFB7A
:1042400000211E2007F093FB049810B1012846D1ED
:1042500022E05348006868B901205149086007F01E
:10426000CFFD0A211A2007F098FB00211C2007F03F
:104270007EFB10E000204A49086007F0C1FD0521DF
:104280001A2007F08AFB05211C2007F086FB00217D
:104290001E2007F06CFB22E04148006868B901204D
:1042A0003F49086007F0ACFD0A211A2007F075FBB2
:1042B00000211C2007F05BFB10E00020384908605B
:1042C00007F09EFD05211A2007F067FB05211C2041
:1042D00007F063FB00211E2007F049FB00BF00BF71
:1042E000CEE507F0CCFD0B21002007F02AFB0122D0
:1042F0000821022007F0CAFA0321022007F021FB5F
:104300000421084607F005FB0121172007F083FB75
:1043100007F076FD2348006800280ADA0122082108
:10432000072007F0B3FA1F48006840421E490860A2
:1043300008E01C4800681C4908600022082107208A
:1043400007F0A4FA00211A2007F011FB0122114600
:104350001C2007F09BFA144800680A2190FBF1F238
:1043600001FB1200C0B2014602901C2007F03BFB8B
:104370000D4800680A2190FBF1F0C0B2014602909E
:104380001E2007F0F4FA049880B101287ED185E060
:1043900074020020800200207C02002078020020AD
:1043A0009402002098020020A4020020FD4800682A
:1043B000FD490968884226DD07F022FDFA480068B9
:1043C00000280ADA01220821072007F05FFAF648E0
:1043D00000684042F549086008E0F3480068F34986
:1043E000086000220821072007F050FA08211A204F
:1043F00007F0D3FA08211C2007F0CFFA06211E206F
:1044000007F0CBFA49E0E8480068401EE64908603A
:104410000846006810F1280F02DA6FF027000860E4
:1044200007F0EEFCE048006800280ADA01220821C3
:10443000072007F02BFADC4800684042DB4908609F
:1044400008E0D9480068D9490860002208210720FF
:1044500007F01CFA00211A2007F089FA0122114600
:104460001C2007F013FAD14800680A2190FBF1F2F2
:1044700001FB1200C0B2014602901C2007F0B3FA03
:10448000CA4800680A2190FBF1F000E035E0C0B2B4
:10449000014602901E2007F06AFA2EE0C24800682A
:1044A000401CC149086008460068502801DD5020C2
:1044B000086007F0A5FC00211A2007F058FA012235
:1044C00011461C2007F0E2F9B84800680A2190FB69
:1044D000F1F201FB1200C0B2014602901C2007F06D
:1044E00082FAB24800680A2190FBF1F0C0B201469E
:1044F00002901E2007F03BFA00BF00BFC0E407F0A7
:10450000BEFC0421002007F01CFA01220821022031
:1045100007F0BCF90321022007F013FA052104205B
:1045200007F0F7F90121172007F075FA07F068FC8A
:104530009C48006800280ADA01220821072007F0B9
:10454000A5F99848006840429949086008E09548F4
:1045500000689749086000220821072007F096F9B3
:1045600000211A2007F003FA012211461C2007F04F
:104570008DF98F4800680A2190FBF1F201FB1200CF
:10458000C0B2014602901C2007F02DFA884800684E
:104590000A2190FBF1F0C0B2014602901E2007F004
:1045A000E6F9049810B1012848D148E07D48006838
:1045B000401E7C4908600846006810F1280F02DAA6
:1045C0006FF02700086007F01BFC764800680028A1
:1045D0000ADA01220821072007F058F9714800681B
:1045E00040427349086008E06E48006870490860FE
:1045F00000220821072007F049F900211A2007F0BE
:10460000B6F9012211461C2007F040F968480068FD
:104610000A2190FBF1F201FB1200C0B201460290A8
:104620001C2007F0E0F9624800680A2190FBF1F0D5
:10463000C0B2014602901E2007F099F95BE059488C
:1046400000685949096888420EDD07F0D9FB082146
:104650001A2007F0A2F908211C2007F09EF9062174
:104660001E2007F09AF945E04E480068401C4D496D
:10467000086008460068502801DD5020086007F0F7
:10468000BFFB4848006800280ADA012208210720F9
:1046900007F0FCF84348006840424549086008E0DC
:1046A000404800684249086000220821072007F0BE
:1046B000EDF800211A2007F05AF9012211461C20BA
:1046C00007F0E4F83A4800680A2190FBF1F201FB98
:1046D0001200C0B2014602901C2007F084F9344851
:1046E00000680A2190FBF1F0C0B2014602901E2042
:1046F00007F03DF900BF00BF91E400220821072028
:1047000007F0C4F807F0BBFB0B21002007F019F9F4
:1047100001220821022007F0B9F80B21022007F03E
:1047200010F90621042007F0F4F807F069FB0021D6
:104730001A2007F058F9012211461C2007F0A6F8AC
:104740001C4800680A2190FBF1F201FB1200C0B284
:10475000014602901C2007F046F9164800680A211D
:1047600090FBF1F0C0B2014602901E2007F0FFF866
:10477000049810B101287FD14FE00E4800680E491F
:10478000096888421ADA07F03BFB08211A2007F073
:1047900004F908211C2007F000F906211E2007F06B
:1047A000FCF839E09C02002098020020A4020020BE
:1047B000A0020020A8020020AC020020FE480068F1
:1047C000401EFD49086008460068002801DA012003
:1047D000086007F015FB00211A2007F004F90122F8
:1047E00011461C2007F052F8F34800680A2190FB9C
:1047F000F1F201FB1200C0B2014602901C2007F04A
:10480000F2F8ED4800680A2190FBF1F0C0B20146D1
:1048100002901E2007F0ABF82EE0E7480068401C2D
:10482000E549086008460068632801DD63200860E8
:1048300007F0E6FA00211A2007F0D5F80122114608
:104840001C2007F023F8DC4800680A2190FBF1F2F5
:1048500001FB1200C0B2014602901C2007F0C3F811
:10486000D54800680A2190FBF1F0C0B201460290E1
:104870001E2007F07CF800BF00BFB4E407F0FFFA89
:104880000421002007F05DF801220821022006F033
:10489000FDFF0B21022007F054F80721042007F048
:1048A00038F807F0ADFA00211A2007F09CF8012231
:1048B00011461C2006F0EAFFC04800680A2190FB60
:1048C000F1F201FB1200C0B2014602901C2007F079
:1048D0008AF8BA4800680A2190FBF1F0C0B201469C
:1048E00002901E2007F043F8049810B1012873D1FC
:1048F0002EE0B2480068401EB049086008460068D3
:10490000002801DA0020086007F07AFA00211A2056
:1049100007F069F8012211461C2006F0B7FFA748EE
:1049200000680A2190FBF1F201FB1200C0B20146BF
:1049300002901C2007F057F8A04800680A2190FB5D
:10494000F1F0C0B2014602901E2007F010F843E0DB
:10495000994800689949096888420EDA07F050FAC8
:1049600008211A2007F019F808211C2007F015F873
:1049700006211E2007F011F82DE090480068401C29
:104980008E49086008460068632801DD63200860DE
:1049900007F036FA00211A2007F025F80122114607
:1049A0001C2006F073FF854800680A2190FBF1F295
:1049B00001FB1200C0B2014602901C2007F013F860
:1049C0007E4800680A2190FBF1F0C0B201460290D7
:1049D0001E2006F0CCFF00BF00BF04E407F04FFA32
:1049E0000521002006F0ADFF01220821022006F07B
:1049F0004DFF0321022006F0A4FF0821042006F049
:104A000088FF0121172007F006F807F0F9F96C4834
:104A10000068012804D105211C2006F0BEFF03E038
:104A200003211C2006F0B9FF049810B101282ED1F3
:104A300016E06348006848B901206149086007F042
:104A4000DFF905211C2006F0A8FF08E000205C49E2
:104A5000086007F0D5F903211C2006F09EFF16E040
:104A60005748006848B901205549086007F0C8F95F
:104A700005211C2006F091FF08E000205049086045
:104A800007F0BEF903211C2006F087FF00BF00BF1E
:104A900026E407F0F4F90821002006F052FF012275
:104AA0000821022006F0F2FE0521022006F049FF4F
:104AB0000921042006F02DFF07F0A2F94148006803
:104AC000012808D10A211A2006F067FF00211C20C6
:104AD00006F04DFF0BE005211A2006F05EFF0521D0
:104AE0001C2006F05AFF00211E2006F040FF04980B
:104AF00010B1012846D122E03248006868B901208F
:104B00003049086007F07CF90A211A2006F045FFB9
:104B100000211C2006F02BFF10E00020294908602E
:104B200007F06EF905211A2006F037FF05211C2039
:104B300006F033FF00211E2006F019FF22E0214875
:104B4000006868B901201F49086007F059F90A2177
:104B50001A2006F022FF00211C2006F008FF10E0BA
:104B600000201849086007F04BF905211A2006F0CB
:104B700014FF05211C2006F010FF00211E2006F066
:104B8000F6FE00BF00BFB9E407F079F9012100206B
:104B900006F0BFFE01220821022006F077FE002168
:104BA000022006F0B6FE0321042006F0CAFE07F03C
:104BB00027F90548006809E0A8020020AC0200209F
:104BC000B0020020B4020020B802002038B90A2147
:104BD0001A2006F0E2FE00211C2006F0C8FEFE4866
:104BE000006801280BD105211A2006F0D6FE052108
:104BF0001C2006F0D2FE00211E2006F0B8FE04980C
:104C000010B1012856D12AE0F3480068401EF2494D
:104C1000086008460068002801DA01200860EE48B4
:104C2000006848B907F0ECF80A211A2006F0B5FE32
:104C300000211C2006F09BFEE748006801280DD1EA
:104C400007F0DEF805211A2006F0A7FE05211C203A
:104C500006F0A3FE00211E2006F089FE2AE0DE48B1
:104C60000068401CDC49086008460068012801DD36
:104C700000200860D848006848B907F0C1F80A2148
:104C80001A2006F08AFE00211C2006F070FED24891
:104C9000006801280DD107F0B3F805211A2006F0AD
:104CA0007CFE05211C2006F078FE00211E2006F067
:104CB0005EFE00BF00BF21E407F0E1F80221002002
:104CC00006F027FE01220821022006F0DFFD002168
:104CD000022006F01EFE0321042006F032FE07F03B
:104CE0008FF8BE48006801280CD103211A2006F075
:104CF00054FE09211C2006F050FE03211E2006F060
:104D00004CFE0BE000211A2006F047FE08211C2073
:104D100006F043FE00211E2006F029FE049810B183
:104D200001284ED126E0AD48006888B90120AB4982
:104D3000086007F065F803211A2006F02EFE09210D
:104D40001C2006F02AFE03211E2006F026FE10E09D
:104D50000020A249086007F053F800211A2006F04D
:104D60001CFE08211C2006F018FE00211E2006F063
:104D7000FEFD26E09948006888B90120974908603F
:104D800007F03EF803211A2006F007FE09211C2037
:104D900006F003FE03211E2006F0FFFD10E00020B8
:104DA0008E49086007F02CF800211A2006F0F5FD66
:104DB00008211C2006F0F1FD00211E2006F0D7FD81
:104DC00000BF00BF98E407F05AF80321002006F066
:104DD000A0FD01220821022006F058FD002102203A
:104DE00006F097FD0321042006F0ABFD07F008F85C
:104DF0007B4800680A2190FBF1F201FB1200C0B26F
:104E0000014602901A2006F0B2FD754800680A219A
:104E100090FBF1F090FBF1F201FB1200C0B20146F1
:104E200002901C2006F0A3FD6D480068642190FBF1
:104E3000F1F0C0B2014602901E2006F098FD0498E1
:104E400010B101286CD135E065480068401E644906
:104E5000086008460068012802DA4FF416700860FE
:104E600006F0CEFF5E4800680A2190FBF1F201FBDC
:104E70001200C0B2014602901A2006F078FD584890
:104E800000680A2190FBF1F090FBF1F201FB1200A7
:104E9000C0B2014602901C2006F069FD504800682F
:104EA000642190FBF1F0C0B2014602901E2006F092
:104EB0005EFD35E04A480068401C494908600846E4
:104EC0000068B0F5167F01DD0120086006F098FF4C
:104ED000434800680A2190FBF1F201FB1200C0B2C6
:104EE000014602901A2006F042FD3D4800680A2162
:104EF00090FBF1F090FBF1F201FB1200C0B2014611
:104F000002901C2006F033FD35480068642190FBB8
:104F1000F1F0C0B2014602901E2006F028FD00BF4D
:104F200000BFAAE406F0ABFF0421002006F0F1FC6C
:104F300001220821022006F0A9FC0021022006F02F
:104F4000E8FC0321042006F0FCFC06F059FF25488C
:104F500000680A2190FBF1F201FB1200C0B2014689
:104F600002901A2006F003FD1E4800680A2190FBFB
:104F7000F1F090FBF1F201FB1200C0B20146029089
:104F80001C2006F0F4FC17480068642190FBF1F047
:104F9000C0B2014602901E2006F0E9FC049810B150
:104FA000012875D13EE00F480068401E0D49086099
:104FB00008460068012802DA4FF41670086006F00F
:104FC0001FFF084800680A2190FBF1F201FB120064
:104FD000C0B20146029007E0B8020020BC020020E7
:104FE000C0020020C40200201A2006F0C0FCF948CC
:104FF00000680A2190FBF1F090FBF1F201FB120036
:10500000C0B2014602901C2006F0B1FCF1480068D5
:10501000642190FBF1F0C0B2014602901E2006F020
:10502000A6FC35E0EB480068401CEA4908600846E9
:105030000068B0F5167F01DD0120086006F0E0FE93
:10504000E44800680A2190FBF1F201FB1200C0B2B3
:10505000014602901A2006F08AFCDE4800680A2108
:1050600090FBF1F090FBF1F201FB1200C0B201469F
:1050700002901C2006F07BFCD6480068642190FB5F
:10508000F1F0C0B2014602901E2006F070FC00BF95
:1050900000BFA2E406F0F3FE0521002006F039FC73
:1050A00001220821022006F0F1FB0021022006F077
:1050B00030FC0321042006F044FC06F0A1FEC648A3
:1050C00000680A2190FBF1F201FB1200C0B2014618
:1050D00002901A2006F04BFC049810B1012836D13A
:1050E0001AE0BD480068401EBB49086008460068D9
:1050F000002801DA0120086006F082FEB648006848
:105100000A2190FBF1F201FB1200C0B201460290AD
:105110001A2006F02CFC1AE0AF480068401CAE498B
:10512000086008460068012801DD0020086006F0DC
:1051300067FEA94800680A2190FBF1F201FB12000A
:10514000C0B2014602901A2006F011FC00BF00BF59
:1051500043E406F094FE0621002006F0DAFB01226B
:105160000821022006F092FB0021022006F0D1FB6C
:105170000321042006F0E5FB0121172006F04BFC7B
:1051800006F03EFE954800680A2190FBF1F201FB13
:105190001200C0B2014602901A2006F0E8FB01227C
:1051A00011461C2006F072FB8C4800680A2190FB17
:1051B000F1F090FBF1F201FB1200C0B20146029047
:1051C0001C2006F010FC85480068642190FBF1F07B
:1051D000C0B2014602901E2006F0C9FB049810B12F
:1051E000012874D139E07D480068401E7B49086081
:1051F00008460068002801DA0020086006F000FE7A
:10520000764800680A2190FBF1F201FB1200C0B25F
:10521000014602901A2006F0AAFB012211461C202A
:1052200006F034FB6D4800680A2190FBF1F090FB1A
:10523000F1F201FB1200C0B2014602901C2006F000
:10524000D2FB66480068642190FBF1F0C0B20146D1
:1052500002901E2006F08BFB39E060480068401C7D
:105260005E49086008460068782801DD78200860FB
:1052700006F0C6FD594800680A2190FBF1F201FBD7
:105280001200C0B2014602901A2006F070FB012203
:1052900011461C2006F0FAFA504800680A2190FBDB
:1052A000F1F090FBF1F201FB1200C0B20146029056
:1052B0001C2006F098FB49480068642190FBF1F03F
:1052C000C0B2014602901E2006F051FB00BF00BF95
:1052D00059E406F0D4FD0721002006F01AFB012254
:1052E0000821022006F0D2FA0021022006F011FB6C
:1052F0000321042006F025FB394800680A2190FBB1
:10530000F1F201FB1200C0B20246012102901C2002
:1053100006F0BCFA06F074FD00211A2006F063FBCB
:105320002F4800680A2190FBF1F090FBF1F201FB9D
:105330001200C0B2014602901C2006F054FB28481F
:105340000068642190FBF1F0C0B2014602901E207B
:1053500006F00DFB049810B101287DD142E02048F1
:105360000068401E1E49086008460068002801DAEF
:105370000020086006F044FD194800680A2190FBEF
:10538000F1F201FB1200C0B2014602901A2006F0B1
:105390002AFB012211461C2006F078FA104800680A
:1053A0000A2190FBF1F090FBF1F201FB1200C0B278
:1053B000014602901C2006F016FB09480068642193
:1053C00090FBF1F0C0B2014602901E2006F0CFFA29
:1053D00042E00000C4020020D4020020D8020020D5
:1053E000E0020020FE480068401CFD4908600846B5
:1053F0000068642801DD6420086006F001FDF848BB
:1054000000680A2190FBF1F201FB1200C0B20146D4
:1054100002901A2006F0E7FA012211461C2006F03D
:1054200035FAEF4800680A2190FBF1F090FBF1F2A9
:1054300001FB1200C0B2014602901C2006F0D3FA14
:10544000E7480068642190FBF1F0C0B20146029089
:105450001E2006F08CFA00BF00BF2CE406F00FFD02
:105460000821002006F055FA01220821022006F04A
:105470000DFA0021022006F04CFA0321042006F068
:1054800060FA0121172006F0C6FA06F0B9FCD548EB
:10549000006800280ADA01220821072006F0F6F940
:1054A000D04800684042D049086008E0CD48006814
:1054B000CD49086000220821072006F0E7F9002105
:1054C0001A2006F054FA012211461C2006F0DEF9DB
:1054D000C54800680A2190FBF1F201FB1200C0B23E
:1054E000014602901C2006F07EFABF4800680A219F
:1054F00090FBF1F0C0B2014602901E2006F037FA90
:10550000049810B1012875D175E0B6480068B74914
:105510000968884226DD06F073FCB248006800285E
:105520000ADA01220821072006F0B0F9AD48006828
:105530004042AD49086008E0AA480068AA490860EE
:1055400000220821072006F0A1F908211A2006F000
:1055500024FA08211C2006F020FA06211E2006F05D
:105560001CFA47E09F480068401E9E4908600846B4
:10557000006810F1280F02DA6FF02700086006F0CB
:105580003FFC9848006800280ADA01220821072019
:1055900006F07CF99348006840429349086008E0AF
:1055A000904800689049086000220821072006F012
:1055B0006DF900211A2006F0DAF9012211461C20AB
:1055C00006F064F9884800680A2190FBF1F201FBBB
:1055D0001200C0B2014602901C2006F004FA824874
:1055E00000680A2190FBF1F0C0B2014602901E2033
:1055F00006F0BDF92EE07B480068401C7949086040
:1056000008460068502801DD5020086006F0F8FBCD
:1056100000211A2006F0ABF9012211461C2006F0E9
:1056200035F9714800680A2190FBF1F201FB120084
:10563000C0B2014602901C2006F0D5F96A48006805
:105640000A2190FBF1F0C0B2014602901E2006F044
:105650008EF900BF00BF64E406F011FC09210020B0
:1056600006F057F901220821022006F00FF9002167
:10567000022006F04EF90321042006F062F9012110
:10568000172006F0C8F906F0BBFB58480068002850
:105690000ADA01220821072006F0F8F853480068CA
:1056A00040425349086008E050480068504908608B
:1056B00000220821072006F0E9F800211A2006F050
:1056C00056F9012211461C2006F0E0F8484800680F
:1056D0000A2190FBF1F201FB1200C0B201460290D8
:1056E0001C2006F080F9424800680A2190FBF1F086
:1056F000C0B2014602901E2006F039F9049810B19C
:10570000012877D181E03748006838490968884224
:1057100026DD06F075FB3548006800280ADA01220C
:105720000821072006F0B2F83048006840423049AE
:10573000086008E02D4800682D4908600022082113
:10574000072006F0A3F808211A2006F026F9082100
:105750001C2006F022F906211E2006F01EF953E057
:1057600022480068401E214908600846006810F180
:10577000280F02DA6FF02700086006F041FB1B4893
:10578000006800280ADA01220821072006F07EF8C6
:105790001648006840421649086008E0134800684F
:1057A0001349086000220821072006F06FF8002145
:1057B0001A2006F0DCF8012211461C2006F066F8DB
:1057C0000B4800680A2190FBF1F201FB1200C0B205
:1057D000014602901C2006F006F9054800680AE020
:1057E000E0020020E8020020EC020020F00200208D
:1057F000F402002038E00A2190FBF1F0C0B201462B
:1058000002901E2006F0B3F82EE0F8480068401C15
:10581000F649086008460068502801DD50200860FD
:1058200006F0EEFA00211A2006F0A1F80122114636
:105830001C2006F02BF8EE4800680A2190FBF1F2DC
:1058400001FB1200C0B2014602901C2006F0CBF80A
:10585000E74800680A2190FBF1F0C0B201460290CF
:105860001E2006F084F800BF00BF12E406F007FB1C
:105870000021084606F04DF801220821022006F01A
:1058800005F80121022006F044F80321042006F067
:1058900058F806F0B5FAD748006800280ADA01225D
:1058A0000821072005F0F2FFD24800684042D249A3
:1058B000086008E0CF480068CF490860002208214E
:1058C000072005F0E3FF00211A2006F08CF80122E2
:1058D00011461C2005F0DAFFC74800680A2190FB3A
:1058E000F1F201FB1200C0B2014602901C2006F04A
:1058F0007AF8C14800680A2190FBF1F0C0B2014675
:1059000002901E2006F033F8049810B1012873D1DC
:1059100073E0B8480068B9490968884226DD06F096
:105920006FFAB448006800280ADA0122082107202B
:1059300005F0ACFFAF4800684042AF49086008E09E
:10594000AC480068AC49086000220821072005F037
:105950009DFF08211A2006F020F808211C2006F0DF
:105960001CF806211E2006F018F845E0A148006842
:10597000401EA049086008460068002801DA00209F
:10598000086006F03DFA9B48006800280ADA012208
:105990000821072005F07AFF9648006840429649A2
:1059A000086008E0934800689349086000220821D5
:1059B000072005F06BFF00211A2006F014F80122E1
:1059C00011461C2005F062FF8B4800680A2190FBFD
:1059D000F1F201FB1200C0B2014602901C2006F059
:1059E00002F8854800680A2190FBF1F0C0B2014638
:1059F00002901E2005F0BBFF2EE07E480068401C90
:105A00007C49086008460068632801DD09200860B9
:105A100006F0F6F900211A2005F0E5FF01221146F3
:105A20001C2005F033FF744800680A2190FBF1F256
:105A300001FB1200C0B2014602901C2005F0D3FF0A
:105A40006D4800680A2190FBF1F0C0B20146029057
:105A50001E2005F08CFF00BF00BF39E406F00FFAEE
:105A60000121002005F055FF01220821022005F048
:105A70000DFF0121022005F04CFF0321042005F059
:105A800060FF06F0BDF95D48006800280ADA0122CF
:105A90000821072005F0FAFE58480068404258499E
:105AA000086008E055480068554908600022082150
:105AB000072005F0EBFE00211A2005F094FF0122DB
:105AC00011461C2005F0E2FE4D4800680A2190FBBB
:105AD000F1F201FB1200C0B2014602901C2005F059
