:020000040800F2
:10000000200F0020A5B700080F0D0008110D0008F3
:10001000150D0008190D00081D0D00080000000056
:10002000000000000000000000000000210D00089A
:10003000230D000800000000250D0008270D000812
:10004000BFB70008BFB70008BFB70008D9A30008B2
:10005000BFB70008BFB70008BFB70008BFB70008A8
:10006000BFB70008BFB70008BFB70008BFB7000898
:10007000BFB70008BFB70008BFB70008BFB7000888
:10008000B5AF000815B00008BFB70008BFB700083B
:10009000BFB70008BFB70008BFB70008BFB7000868
:1000A000BFB70008BFB70008BFB70008BFB7000858
:1000B0000D7F0008917E00082B0C0008BFB70008D8
:1000C000BFB70008BFB70008BFB70008BFB7000838
:1000D000BFB70008990B0008FF0A0008BFB7000867
:1000E00013B50008BFB70008BFB70008BFB70008C6
:1000F000BFB70008BFB70008BFB70008BFB7000808
:10010000BFB70008BFB700083D7F0008BFB70008B1
:10011000BFB70008BFB70008BFB70008BFB70008E7
:10012000BFB70008BFB70008BFB70008BFB70008D7
:1001300000F002F800F05AF80AA090E8000C82449F
:100140008344AAF10107DA4501D100F04FF8AFF27C
:10015000090EBAE80F0013F0010F18BFFB1A43F0A5
:10016000010318476CF200008CF200000A444FF0C3
:10017000000C10F8013B13F0070408BF10F8014B06
:100180001D1108BF10F8015B641E05D010F8016B4B
:10019000641E01F8016BF9D113F0080F1EBF10F8AF
:1001A000014BAD1C0C1B09D16D1E58BF01F801CBD2
:1001B000FAD505E014F8016B01F8016B6D1EF9D555
:1001C0009142D6D37047000000230024002500266A
:1001D000103A28BF78C1FBD8520728BF30C148BFAA
:1001E0000B6070471FB51FBD10B510BD0EF018F89D
:1001F0001146FFF7F7FF06F035FC0EF036F803B4B2
:10020000FFF7F2FF03BC0BF00DFA00000CB5002065
:10021000019000906C48006840F480306A490860A2
:1002200000BF6948006800F4003000900198401C4D
:100230000190009818B90198B0F5A06FF1D162480B
:10024000006800F4003010B10120009001E00020AF
:1002500000900098012843D15C48006840F01000ED
:100260005A4908600846006820F003000860084604
:10027000006840F0020008605348406852494860F6
:100280000846406848600846406840F4806048601E
:100290000846406820F47C1048600846406840F4F6
:1002A000E81048600846006840F08070086000BFB1
:1002B0004548006800F000700028F9D042484068C6
:1002C00020F00300404948600846406840F00200C2
:1002D000486000BF3C48406800F00C000828F9D195
:1002E0000CBD10B5FFF792FF10BD10B53648006881
:1002F00040F001003449086008464068344908402D
:100300003149486008460068324908402E49086073
:100310000846006820F4802008600846406820F401
:10032000FE0048604FF41F008860FFF7DAFF4FF0CF
:1003300000602949086010BD10B50021002000228E
:10034000214B5B6803F00C0121B1042906D0082978
:1003500028D107E0214B224C236027E01F4B204C83
:10036000236023E0184B5B6803F47010164B5B6846
:1003700003F48032022303EB904022B9194B43432C
:10038000174C23600DE0104B5B6803F4003323B17E
:10039000144B4343124C236003E0104B4343104C77
:1003A000236003E00D4B0E4C236000BF00BF064BE3
:1003B0005B68C3F303130C4CE15C094B1B68CB4037
:1003C000074C236010BD00000010024000200240D6
:1003D0000000FFF8FFFFF6FE08ED00E000127A00D3
:1003E0000000002000093D000400002070B5024616
:1003F0000C46FF25FF2309E012F8010B80EA0501F6
:10040000FA48405C80EA0305F948435C201EA4F1E9
:100410000106F4B2F0D143EA052070BD10B5012009
:10042000F4490870F4480BF09DFEF4490870F44854
:100430000078012856D00021F2480CF0F5FB00218D
:10044000F0480CF085FEF0480078A0B1EB48007849
:10045000EE49097888420ED10020ED490870ED4937
:10046000087008460078401C0870E4480078EA49A3
:10047000E84A12788854E448007860BBE448007881
:1004800048BBE4480078642813DADC480178E24A83
:10049000E0480078401C1154DE480078401CDD49DB
:1004A000087008460078082815DB084600780870B0
:1004B00011E00120D6490870D1490870D54800786C
:1004C000D5490870D54800688078D5490968887092
:1004D0000020D04908700020CB4908700121C9488C
:1004E0000CF0A2FB10BD10B50120C2490870CD4927
:1004F0000870CD480BF036FEC0490870C04800783F
:10050000012856D00021BF480CF08EFB0021BD48C9
:100510000CF01EFEBC480078A0B1B8480078BB497A
:10052000097888420ED10020B9490870B94908708D
:1005300008460078401C0870B0480078B649B54AB3
:1005400012788854B048007860BBB148007848BB46
:10055000B0480078642813DAA8480178AE4AAD485C
:100560000078401C1154AB480078401CA949087021
:1005700008460078082815DB08460078087011E066
:100580000120A34908709E490870A2480078A2493A
:100590000870A24800688078A14909688870002026
:1005A0009C490870002098490870012195480CF07A
:1005B0003BFB10BD10B59A4800689C490978405C27
:1005C0009B490870084601788B480BF0C7FD974897
:1005D0000078401C954908709148006800780978B7
:1005E000884210DA0020864908708D490968087031
:1005F0008849087001208D490870002240F2266168
:100600007D480BF04AFD10BD70B500257F4800788D
:1006100088490870032048708748007888708749A7
:10062000874800680EF018FD06460EF079FC000AB7
:100630008049C8708149824800680EF00DFD064669
:100640000EF06EFC7B4908717E4800680EF068FC75
:100650000121B1EBE03F07D17A4801684FF08F40AC
:100660000EF002FE774908607449764800680EF083
:10067000F3FC06460EF054FC000A6E4948716F49BF
:10068000704800680EF0E8FC06460EF049FC694927
:10069000887169480088051F04E00021A81D654A8B
:1006A00011546D1E002DF8DC63480078C01CC1B2E7
:1006B0006048FFF79BFE044621125E4A5E480088B0
:1006C000C01C11545C480088001D14545A4800781E
:1006D000401D5D49087010465C490860012240F2E7
:1006E000277145480BF0D9FC70BD70B5002547480F
:1006F000007850490870032048704F48007888708F
:10070000504800680EF00CFC0121B1EBE03F07D12E
:100710004C4801684FF08F400EF0A6FD4949086033
:100720004649484800680EF097FC06460EF0F8FB74
:10073000000A4049C8704149424800680EF08CFCEC
:1007400006460EF0EDFB3B4908713B480088851ECC
:1007500004E00021281D374A11546D1E002DF8DCDD
:1007600035480078C01CC1B23248FFF73FFE04464E
:100770002112304A30480088C01C11542E4800888D
:10078000001D14542C480078401D2F490870104655
:100790002E490860012240F2277117480BF07DFCBA
:1007A00070BD70B5002519480078224908700320F3
:1007B00048702148007888702049214800680EF070
:1007C0004BFC06460EF0ACFB000A1A49C8701B49E8
:1007D0001B4800680EF040FC06460EF0A1FB1549D0
:1007E000087115480088851E37E00000360000209B
:1007F000360100202D000020004400401C00002095
:100800002C00002000080040180000207402002086
:10081000190000201F0000202804002024000020D0
:10082000280000202F000020003801402000002078
:100830001D000020120600201400002000002041AE
:10084000600300205C0300204C02002048020020CE
:100850000021281DFE4A11546D1E002DF8DCFD48B4
:100860000078C01CC1B2FA48FFF7C0FD044621124F
:10087000F74AF8480088C01C1154F6480088001D4B
:100880001454F4480078401DF34908701046F349A9
:100890000860012240F22771F1480BF0FEFB70BDA9
:1008A00010B50220EF490870EF4800884FF6FA7142
:1008B000884205DAED48007810B900200AF09FFC64
:1008C000E94800884FF6FA71884203DAE748007871
:1008D00001280ED101200AF092FC0120E3490870A2
:1008E000E14800884FF6FA71884202DB3220DE4987
:1008F00008800A20DE49088008460288DD49DA4877
:1009000000880AF059FCDC480078D1490870D948C1
:1009100000784870D74840788870D6488078C8708A
:10092000D448C0780871D34800794871D1484079DB
:100930008871D0488079C871CE48C0790872CD4896
:10094000007A4872CB48407A88720B20C2490870FE
:10095000C54800880A30C4490880084600880A2132
:1009600090FBF1F0C549098888420BDD3220BE4971
:1009700008800020C24908703220C2490880002047
:10098000C1490870B248B5490860012240F2277198
:10099000B3480BF082FB10BD70B50025BB48008842
:1009A000B6490880B4480078A94908700320487007
:1009B00002208870B1480088000AC870AF480078EB
:1009C00008710521A248FFF711FD04462012A04935
:1009D00048718C710720A04908709D489F490860A4
:1009E000012240F227719E480BF057FB70BD2DE9A4
:1009F000F04104460F460020A5490870A54800783C
:100A000000283BD12078401E255C4FF6FF7000EA9D
:100A100005252078205C05432078C01E205C8D4988
:100A20000880084600884FF6FF7101EA00208949D6
:100A300008802078801E205C098808434FF6FF71EB
:100A400001EA40008349088008460088202801DD2B
:100A5000202008802078801EC1B2601CFFF7C6FCF1
:100A6000064606218C48FFF7C1FC06462078801E0A
:100A7000C1B2601CFFF7BAFC064600E02E46AE424B
:100A800038D18448007808BBA07801281BD00328FF
:100A90001AD1022181480AF0B2FF6E48008804286A
:100AA00002D1FFF7B1FD0DE06A480088022809D1A4
:100AB000207910B9FFF775FE04E02079012801D1F3
:100AC000FFF713FE01E000E000BF16E0E07840B160
:100AD00010280DD1022171480AF091FFFFF7E0FEC6
:100AE00007E002216D480AF08AFFFFF755FF00E09A
:100AF00000BF02E000206A490870BDE8F08110B52F
:100B000040F2255156480BF0ADFB20B1032065495A
:100B10000870FFF783FC40F2277151480BF0A2FBED
:100B2000002838D04C48007800280BDD4B4800687E
:100B300001784A480068401C484B186048480BF050
:100B40000DFB1FE000BF402145480BF075FB00285E
:100B5000F9D0002240F2277141480BF09EFA0221A1
:100B60004E480AF04EFF00204D4908704E4908706B
:100B7000322404E0002036490855601E44B2002C9F
:100B8000F8DA00BF34480078002804DD32480078E5
:100B9000401E3149087010BD10B540F22551434840
:100BA0000BF060FB20B103203E490870FFF79BFC6F
:100BB00040F227713D480BF055FB002834D0264801
:100BC000007800280BDD254800680178234800687C
:100BD000401C224B186035480BF0C0FA1BE000BFE8
:100BE000402132480BF028FB0028F9D0002240F2C7
:100BF00027712E480BF051FA0020294908702A4924
:100C00000870322404E0002011490855601E44B2E7
:100C1000002CF8DA00BF10480078002804DD0E48E8
:100C20000078401E0C49087010BD10B50121204805
:100C30000CF0C3FA002869D001201E490870002179
:100C40001B480BF0F1FF002119480CF081FA33E04A
:100C500012060020140000204C0200204802002050
:100C6000004400401D03002016000020300000203A
:100C700034000020CC050020740200203200002047
:100C80001C030020480300201B0300203C0200201E
:100C90002D0000202F000020290400200008014022
:100CA0002C0000202E0000201F00002000380140F2
:100CB000000800401800002001201B4908701B4854
:100CC00000781B4908701B480078D8B11748007895
:100CD000042817DD012018490870154800792228DA
:100CE00003D01348C078102803D10120134908709D
:100CF00002E000201149087011480168114800689D
:100D0000FFF775FE012110480CF068FA10BD70471E
:100D100000BFFEE700BFFEE700BFFEE700BFFEE743
:100D20007047704770477047190000201F0000206F
:100D3000280400202D0000202C0000202F0000207F
:100D4000280000202400002000080040002100E0CE
:100D5000491C8142FCD3704710B50524FE4804802D
:100D600000200AF04CFA2246FC4900200AF024FA3E
:100D700064200AF02AFCF9480078F9490870F7481D
:100D80004078F8490860F848096850F82100F749A8
:100D9000086010BD10B53224EF48048000200AF02E
:100DA0002EFA2246ED4900200AF006FA64200AF0E5
:100DB0000CFCEA480078EA490870E8484078E949BC
:100DC0000860E948096850F82100E8490860E348EC
:100DD0008078E7490860E148C078E649086008463D
:100DE0000068502804DD08460068A0F5807008609F
:100DF000DA480079E049086008460068502804DDB8
:100E000008460068A0F580700860D4484079DB4946
:100E10000860D2488079DA490860D048C079D94959
:100E20000860CE48007AD8490860CC48407AD74953
:100E30000860CA48807AD6490860C848C07AD5494F
:100E40000860C648007BD4490860C448407BD34949
:100E50000860C248807BD2490860C048C07BD14945
:100E60000880BE48007C097800EB0120CD4908804D
:100E7000BA48407CCC490870B848807CCB490860AF
:100E8000B648C07CCA490860B448007DC9490860BA
:100E900008460068502804DD08460068A0F5807008
:100EA0000860AE48407DC449086008460068502884
:100EB00004DD08460068A0F580700860A748807DC2
:100EC000BE490860A548C07DBD490860A348007EB2
:100ED000BC49086008460068642804DD08460068CC
:100EE000A0F5807008609D48407EB74908600846BC
:100EF0000068642804DD08460068A0F5807008607A
:100F00009648807E18B19548807EFF2812D193487C
:100F1000C07E18B19148C07EFF280BD18F48007F5A
:100F200018B18E48007FFF2804D14FF4C870A7493C
:100F3000086011E08948807E8849C97E01EB810103
:100F400000EB41008549097F01EBC10202EB011171
:100F500000EB81009D4908608048407F18B17F48C0
:100F6000407FFF281BD17D48807F18B17B48807F60
:100F7000FF2814D17948C07F18B17848C07FFF2876
:100F80000DD1764890F8200020B1744890F82000E8
:100F9000FF2804D14FF4FA608D49086014E06F48CF
:100FA000407F6E49897F0A2202FB01006B49C97F9D
:100FB000642202FB0100694991F820104FF47A7213
:100FC00002FB010082490860644890F8210020B1CA
:100FD000624890F82100FF2816D1604890F822005E
:100FE00020B15E4890F82200FF280DD15B4890F8B0
:100FF000230020B1594890F82300FF2804D14FF472
:10100000C8707449086010E0544890F821005349B2
:1010100091F822100A2202FB0100504991F8231096
:10102000642202FB01006B4908604C4890F82400E0
:1010300020B14A4890F82400FF281FD1474890F873
:10104000250020B1454890F82500FF2816D14348D7
:1010500090F8260020B1414890F82600FF280DD1D5
:101060003E4890F8270020B13C4890F82700FF2820
:1010700004D14FF4FA605849086017E0374890F8F7
:101080002400364991F825100A2202FB0100334959
:1010900091F82610642202FB0100304991F82710D4
:1010A0004FF47A7202FB01004B4908602B4890F81C
:1010B000280020B1294890F82800FF281FD1274890
:1010C00090F8290020B1254890F82900FF2816D172
:1010D000224890F82A0020B1204890F82A00FF28E2
:1010E0000DD11E4890F82B0020B11C4890F82B0021
:1010F000FF2804D14FF4FA603849086017E0174818
:1011000090F82800154991F829100A2202FB0100E5
:10111000124991F82A10642202FB01000F4991F84C
:101120002B104FF47A7202FB01002C4908600B4827
:1011300090F82C0020B1094890F82C00FF2865D1C8
:10114000064890F82D0020B1044890F82D00FF28A3
:101150005CD1024844E0000018030020760600201D
:10116000740200207C02002080020020780200200F
:1011700094020020980200209C020020A802002077
:10118000AC020020B0020020B4020020B80200200F
:10119000BC020020C0020020C4020020C8020020BF
:1011A000CC020020480300201B030020D8020020AE
:1011B000E0020020E8020020F0020020F8020020F7
:1011C0000003002008030020100300206C0300200F
:1011D0007003002074030020780300207C030020AB
:1011E00090F82E0020B1F94890F82E00FF280DD17C
:1011F000F64890F82F0020B1F44890F82F00FF280F
:1012000004D14FF4FA60F249086017E0EF4890F813
:101210002C00EE4991F82D100A2202FB0100EB4947
:1012200091F82E10642202FB0100E84991F82F107A
:101230004FF47A7202FB0100E549086010BD10B559
:10124000E4480480E4480078E4490870E448007801
:101250004870E44800788870E3480078C870E34834
:1012600000780871E24800784871E2480078887197
:10127000E1480078C871E14800780872E0480078D9
:101280004872E04800788872DF480078C872DF480A
:1012900000780873DE4800784873DE480078887369
:1012A000DD480088000AC873DB4800780874DB4812
:1012B00000784874DA4800788874DA480078C8748E
:1012C000D94800780875D94800784875D84800781A
:1012D0008875D8480078C875D74800780876D74808
:1012E00000784876D6480068642190FBF1F201FB53
:1012F00012000A2190FBF1F201FB1200B749887637
:10130000CF480068642190FBF1F201FB12000A2132
:1013100090FBF1F0B149C876C9480068642190FBA0
:10132000F1F0AE490877C74800684FF47A7190FB36
:10133000F1F201FB1200642190FBF1F201FB1200BB
:101340000A2190FBF1F201FB1200A4494877BD4845
:1013500000684FF47A7190FBF1F201FB12006421F6
:1013600090FBF1F201FB12000A2190FBF1F09B4986
:101370008877B44800684FF47A7190FBF1F201FB72
:101380001200642190FBF1F09449C877AD480068E1
:101390004FF47A7190FBF1F0904981F82000AA484F
:1013A0000068642190FBF1F201FB12000A2190FB1E
:1013B000F1F201FB1200894981F82100A24800687E
:1013C000642190FBF1F201FB12000A2190FBF1F085
:1013D000824981F822009C480068642190FBF1F06A
:1013E0007E4981F82300994800684FF47A7190FB98
:1013F000F1F201FB1200642190FBF1F201FB1200FB
:101400000A2190FBF1F201FB1200744981F82400DB
:101410008E4800684FF47A7190FBF1F201FB1200E4
:10142000642190FBF1F201FB12000A2190FBF1F024
:101430006A4981F82500854800684FF47A7190FB6D
:10144000F1F201FB1200642190FBF1F0634981F895
:1014500026007E4800684FF47A7190FBF1F05F49F6
:1014600081F827007A4800684FF47A7190FBF1F216
:1014700001FB1200642190FBF1F201FB12000A2132
:1014800090FBF1F201FB1200544981F828007048EA
:1014900000684FF47A7190FBF1F201FB12006421B5
:1014A00090FBF1F201FB12000A2190FBF1F04B4995
:1014B00081F82900664800684FF47A7190FBF1F2D8
:1014C00001FB1200642190FBF1F0444981F82A00ED
:1014D0005F4800684FF47A7190FBF1F03F4981F862
:1014E0002B003B4800684FF47A7190FBF1F201FB4E
:1014F0001200642190FBF1F201FB12000A2190FB23
:10150000F1F201FB1200354981F82C0030480068E7
:101510004FF47A7190FBF1F201FB1200642190FB11
:10152000F1F201FB12000A2190FBF1F02B4981F846
:101530002D00274800684FF47A7190FBF1F201FB0F
:101540001200642190FBF1F0244981F82E0020481C
:1015500000684FF47A7190FBF1F0204981F82F0078
:101560003224002009F04BFE22461C49002009F0DD
:1015700034FE64200AF029F810BD08B501210420CA
:101580000AF04CFC4020ADF8000010208DF803005C
:1015900003208DF8020069462E480AF083F908BD41
:1015A00010B5044640212B480AF029FAA0B20AF0EF
:1015B0000CF8402127480AF024FA10BD03B583B087
:1015C00003981A2882F0688346E00000760600201F
:1015D000800300201803002074020020440600202D
:1015E0007C02002094020020980200209C0200202F
:1015F000A8020020AC020020B0020020B4020020AB
:10160000B8020020BC020020C0020020C40200205A
:10161000C8020020CC020020480300201B03002049
:10162000D8020020E0020020E8020020F0020020A2
:10163000F80200200003002008030020100300200F
:101640006C03002070030020740300207803002046
:101650007C03002000080140DFE810F01A001C00A5
:10166000DB00BF01460244034D040205B2050D062E
:1016700093062007A70760080F096E092E0AF50ACE
:10168000F30BFE0CF60DFC0E06101811C012081319
:1016900002F002BB07F0B3FF0021084607F011FD7E
:1016A00001220821022007F0B1FC0121022007F0ED
:1016B000F0FC0121042007F0ECFC07F061FFFB487F
:1016C0000078642190FBF1F201FB12000A2190FBEB
:1016D000F1F201FB1200C0B2014602901A2007F09D
:1016E00006FDF2480078642190FBF1F201FB120044
:1016F0000A2190FBF1F0C0B2014602901C2007F0D5
:10170000F6FCEA480078642190FBF1F0C0B2014693
:1017100002901E2007F0EBFC049810B1012876D14E
:101720003AE0E2480078401EE04908700846007838
:10173000012801DAFE20087007F022FFDB4800785C
:10174000642190FBF1F201FB12000A2190FBF1F2FF
:1017500001FB1200C0B2014602901A2007F0C7FC3C
:10176000D2480078642190FBF1F201FB12000A21BB
:1017700090FBF1F0C0B2014602901C2007F0B7FCCC
:10178000CA480078642190FBF1F0C0B20146029093
:101790001E2007F0ACFC3AE0C4480078401CC34966
:1017A000087008460078FE2801DD0120087007F067
:1017B000E7FEBE480078642190FBF1F201FB1200C5
:1017C0000A2190FBF1F201FB1200C0B20146029027
:1017D0001A2007F08CFCB5480078642190FBF1F2E8
:1017E00001FB12000A2190FBF1F0C0B20146029009
:1017F0001C2007F07CFCAD480078642190FBF1F0E0
:10180000C0B2014602901E2007F071FC00BF00BF6D
:101810003EE707F0F4FE0221002007F052FC01220F
:101820000821022007F0F2FB01220821022007F024
:101830002BFB0121022007F044FC0221042007F0C9
:1018400028FC07F09DFE9A489A49096850F8210043
:101850009949086008460068642190FBF1F00A216C
:1018600090FBF1F201FB1200C0B2014602901A2077
:1018700007F03DFC90480068642190FBF1F00A21DC
:1018800090FBF1F090FBF1F201FB1200C0B20146B7
:1018900002901C2007F02BFC8748006842F2107170
:1018A00090FBF1F0C0B2014602901E2007F01FFC31
:1018B000049810B1012846D146E07E480068401ED9
:1018C0007C49086008460068002801DA04200860A6
:1018D00077487849096850F8210077490860084638
:1018E000006809F0AEFE07F04BFE73480068642103
:1018F00090FBF1F00A2190FBF1F201FB1200C0B263
:10190000014602901A2007F0F2FB6B480068642140
:1019100090FBF1F00A2190FBF1F090FBF1F201FB5A
:101920001200C0B2014602901C2007F0E0FB6248A2
:10193000006842F2107190FBF1F0C0B201460290D3
:101940001E2007F0D4FB46E05A480068401C594965
:10195000086008460068042801DD0020086054483B
:101960005449096850F82100534908600846006846
:1019700009F067FE07F004FE4F480068642190FB01
:10198000F1F00A2190FBF1F201FB1200C0B2014616
:1019900002901A2007F0ABFB47480068642190FBD7
:1019A000F1F00A2190FBF1F090FBF1F201FB120043
:1019B000C0B2014602901C2007F099FB3E48006827
:1019C00042F2107190FBF1F0C0B2014602901E206D
:1019D00007F08DFB00BF00BF5AE607F010FE08219C
:1019E000002007F06EFB01220821022007F00EFB09
:1019F0000721022007F065FB0321042007F049FBC3
:101A00002E48006801280AD107F0BAFD0A211A20E1
:101A100007F083FB00211C2007F069FB0DE007F0B5
:101A2000AFFD05211A2007F078FB05211C2007F0E7
:101A300074FB00211E2007F05AFB049810B1012806
:101A400050D122E01D48006868B901201B49086098
:101A500007F096FD0A211A2007F05FFB00211C20E9
:101A600007F045FB10E000201449086007F088FDEE
:101A700005211A2007F051FB05211C2007F04DFB22
:101A800000211E2007F033FB2CE00C480068B8B999
:101A900001200A49086007F073FD0A211A2007F0A7
:101AA0003CFB00211C2007F022FB1AE074020020FE
:101AB000800200207C020020780200209402002096
:101AC0000020FE49086007F05BFD05211A2007F0A1
:101AD00024FB05211C2007F020FB00211E2007F01D
:101AE00006FB00BF00BFD3E507F089FD0B210020F6
:101AF00007F0E7FA01220821022007F087FA032104
:101B0000022007F0DEFA0421084607F0C2FA01219C
:101B1000172007F040FB07F033FDE9480068002874
:101B20000ADA01220821072007F070FAE448006869
:101B30004042E449086008E0E1480068E149086083
:101B400000220821072007F061FA00211A2007F07F
:101B5000CEFA012211461C2007F058FAD948006835
:101B60000A2190FBF1F201FB1200C0B20146029083
:101B70001C2007F0F8FAD34800680A2190FBF1F026
:101B8000C0B2014602901E2007F0B1FA049810B1CD
:101B9000012875D175E0CC480068C94909688842B8
:101BA00026DD07F0EDFCC648006800280ADA0122AD
:101BB0000821072007F02AFAC14800684042C149BD
:101BC000086008E0BE480068BE490860002208219D
:101BD000072007F01BFA08211A2007F09EFA0821B7
:101BE0001C2007F09AFA06211E2007F096FA47E01B
:101BF000B3480068401EB24908600846006810F10A
:101C0000280F02DA6FF02700086007F0B9FCAC4833
:101C1000006800280ADA01220821072007F0F6F9F7
:101C2000A74800684042A749086008E0A448006847
:101C3000A449086000220821072007F0E7F90021E5
:101C40001A2007F054FA012211461C2007F0DEF991
:101C50009C4800680A2190FBF1F201FB1200C0B21F
:101C6000014602901C2007F07EFA964800680A217F
:101C700090FBF1F0C0B2014602901E2007F037FA47
:101C80002EE08F480068401C8D49086008460068B7
:101C9000502801DD5020086007F072FC00211A2056
:101CA00007F025FA012211461C2007F0AFF98548FC
:101CB00000680A2190FBF1F201FB1200C0B201465C
:101CC00002901C2007F04FFA7E4800680A2190FB22
:101CD000F1F0C0B2014602901E2007F008FA00BFE2
:101CE00000BFD5E407F08BFC0421002007F0E9F9E0
:101CF00001220821022007F089F90321022007F0C0
:101D0000E0F90521042007F0C4F90121172007F0AC
:101D100042FA07F035FC6C48006800280ADA012214
:101D20000821072007F072F96748006840426749B8
:101D3000086008E0644800686449086000220821DF
:101D4000072007F063F900211A2007F0D0F90122DB
:101D500011461C2007F05AF95C4800680A2190FBE4
:101D6000F1F201FB1200C0B2014602901C2007F004
:101D7000FAF9564800680A2190FBF1F0C0B201461A
:101D800002901E2007F0B3F9049810B1012848D141
:101D900048E04D480068401E4B490860084600680E
:101DA00010F1280F02DA6FF02700086007F0E8FB57
:101DB0004548006800280ADA01220821072007F0B8
:101DC00025F94148006840424049086008E03E4823
:101DD00000683E49086000220821072007F016F934
:101DE00000211A2007F083F9012211461C2007F078
:101DF0000DF9364800680A2190FBF1F201FB120050
:101E0000C0B2014602901C2007F0ADF92F480068CF
:101E10000A2190FBF1F0C0B2014602901E2007F0AB
:101E200066F966E0284800682549096888420EDDA1
:101E300007F0A6FB08211A2007F06FF908211C20E3
:101E400007F06BF906211E2007F067F950E01E48E5
:101E50000068401C1C49086008460068502801DDE5
:101E60005020086007F08CFB1748006800280ADA49
:101E700001220821072007F0C9F8134800684042F2
:101E80001249086008E01048006810490860002204
:101E90000821072007F0BAF800211A2007F027F9D7
:101EA000012211461C2007F0B1F8084800680A21F9
:101EB00090FBF1F201FB1200C0B209E09402002095
:101EC00098020020A40200209C020020A002002012
:101ED000014602901C2007F046F9F84800680A21E4
:101EE00090FBF1F0C0B2014602901E2007F0FFF80F
:101EF00000BF00BF8CE400220821072007F086F80D
:101F000007F07DFB0B21002007F0DBF80122082100
:101F1000022007F07BF80B21022007F0D2F80621FF
:101F2000042007F0B6F807F02BFB00211A2007F079
:101F30001AF9012211461C2007F068F8E0480068F1
:101F40000A2190FBF1F201FB1200C0B2014602909F
:101F50001C2007F008F9DA4800680A2190FBF1F02C
:101F6000C0B2014602901E2007F0C1F8049810B1DB
:101F7000012873D143E0D2480068D24909688842F9
:101F80000EDA07F0FDFA08211A2007F0C6F808213A
:101F90001C2007F0C2F806211E2007F0BEF82DE035
:101FA000C7480068401EC649086008460068002807
:101FB00001DA0120086007F0E3FA00211A2007F097
:101FC000D2F8012211461C2007F020F8BC48006816
:101FD0000A2190FBF1F201FB1200C0B2014602900F
:101FE0001C2007F0C0F8B64800680A2190FBF1F009
:101FF000C0B2014602901E2007F079F82EE0B048EA
:102000000068401CAE49086008460068632801DD8E
:102010006320086007F0B4FA00211A2007F0A3F843
:10202000012211461C2006F0F1FFA54800680A2194
:1020300090FBF1F201FB1200C0B2014602901C209D
:1020400007F091F89E4800680A2190FBF1F0C0B2B9
:10205000014602901E2007F04AF800BF00BFBBE413
:1020600007F0CDFA0421002007F02BF80122082107
:10207000022006F0CBFF0B21022007F022F80721F7
:10208000042007F006F807F07BFA00211A2007F079
:102090006AF8012211461C2006F0B8FF8948006842
:1020A0000A2190FBF1F201FB1200C0B2014602903E
:1020B0001C2007F058F8834800680A2190FBF1F0D3
:1020C000C0B2014602901E2007F011F8049810B12A
:1020D000012873D12EE07B480068401E79490860D2
:1020E00008460068002801DA0020086007F048FA76
:1020F00000211A2007F037F8012211461C2006F0B3
:1021000085FF704800680A2190FBF1F201FB120084
:10211000C0B2014602901C2007F025F8694800680B
:102120000A2190FBF1F0C0B2014602901E2006F099
:10213000DEFF43E0624800686249096888420EDABF
:1021400007F01EFA08211A2006F0E7FF08211C20DC
:1021500006F0E3FF06211E2006F0DFFF2DE05948C0
:102160000068401C5749086008460068632801DD84
:102170006320086007F004FA00211A2006F0F3FF3C
:10218000012211461C2006F041FF4E4800680A213A
:1021900090FBF1F201FB1200C0B2014602901C203C
:1021A00006F0E1FF474800680A2190FBF1F0C0B259
:1021B000014602901E2006F09AFF00BF00BF0BE40C
:1021C00007F01DFA0521002006F07BFF01220821FF
:1021D000022006F01BFF0321022006F072FF0821F7
:1021E000042006F056FF0121172006F0D4FF07F067
:1021F000C7F935480068012804D105211C2006F0E4
:102200008CFF03E003211C2006F087FF049810B127
:1022100001282ED116E02C48006848B901202A492F
:10222000086007F0ADF905211C2006F076FF08E0F4
:1022300000202549086007F0A3F903211C2006F0BF
:102240006CFF16E02048006848B901201E4908606C
:1022500007F096F905211C2006F05FFF08E000203A
:102260001949086007F08CF903211C2006F055FF7E
:1022700000BF00BF37E407F0C2F90821002006F0D4
:1022800020FF01220821022006F0C0FE05210220C5
:1022900006F017FF0921042006F0FBFE07F070F995
:1022A0000A480068012813D10A211A2006F035FFD8
:1022B00000211C2006F01BFF16E00000A0020020F9
:1022C000A8020020AC020020B0020020B4020020CE
:1022D00005211A2006F021FF05211C2006F01DFF14
:1022E00000211E2006F003FF049810B1012846D1FA
:1022F00022E0FE48006868B90120FC49086007F048
:102300003FF90A211A2006F008FF00211C2006F0E0
:10231000EEFE10E00020F549086007F031F90521D4
:102320001A2006F0FAFE05211C2006F0F6FE002118
:102330001E2006F0DCFE22E0EC48006868B90120AF
:10234000EA49086007F01CF90A211A2006F0E5FEA8
:1023500000211C2006F0CBFE10E00020E3490860BD
:1023600007F00EF905211A2006F0D7FE05211C20E2
:1023700006F0D3FE00211E2006F0B9FE00BF00BF0C
:10238000AFE407F03CF90121002006F082FE0122B3
:102390000821022006F03AFE0021022006F079FE14
:1023A0000321042006F08DFE07F0EAF8D04800680B
:1023B00038B90A211A2006F0B0FE00211C2006F0D0
:1023C00096FECB48006801280BD105211A2006F0A3
:1023D000A4FE05211C2006F0A0FE00211E2006F010
:1023E00086FE049810B1012856D12AE0C048006842
:1023F000401EBF49086008460068002801DA012035
:102400000860BB48006848B907F0BAF80A211A20EA
:1024100006F083FE00211C2006F069FEB448006827
:1024200001280DD107F0ACF805211A2006F075FE41
:1024300005211C2006F071FE00211E2006F057FE2B
:102440002AE0AB480068401CA949086008460068BB
:10245000012801DD00200860A548006848B907F0A0
:102460008FF80A211A2006F058FE00211C2006F0E1
:102470003EFE9F48006801280DD107F081F8052134
:102480001A2006F04AFE05211C2006F046FE002117
:102490001E2006F02CFE00BF00BF22E407F0AFF8BC
:1024A0000221002006F0F5FD01220821022006F09D
:1024B000ADFD0021022006F0ECFD0321042006F012
:1024C00000FE07F05DF88B48006801280CD103215D
:1024D0001A2006F022FE09211C2006F01EFE032110
:1024E0001E2006F01AFE0BE000211A2006F015FE51
:1024F00008211C2006F011FE00211E2006F0F7FD29
:10250000049810B101284ED126E07A48006888B9B5
:1025100001207849086007F033F803211A2006F0FB
:10252000FCFD09211C2006F0F8FD03211E2006F009
:10253000F4FD10E000206F49086007F021F8002149
:102540001A2006F0EAFD08211C2006F0E6FD002115
:102550001E2006F0CCFD26E06648006888B9012000
:102560006449086007F00CF803211A2006F0D5FD35
:1025700009211C2006F0D1FD03211E2006F0CDFD0F
:1025800010E000205B49086006F0FAFF00211A20E5
:1025900006F0C3FD08211C2006F0BFFD00211E200F
:1025A00006F0A5FD00BF00BFA4E407F028F8032152
:1025B000002006F06EFD01220821022006F026FD13
:1025C0000021022006F065FD0321042006F079FDBC
:1025D00006F0D6FF484800680A2190FBF1F201FBA3
:1025E0001200C0B2014602901A2006F080FD424857
:1025F00000680A2190FBF1F090FBF1F201FB120060
:10260000C0B2014602901C2006F071FD3A480068F5
:10261000642190FBF1F0C0B2014602901E2006F04A
:1026200066FD049810B1012876D135E03248006883
:10263000401E3149086008460068012802DA4FF45C
:102640001670086006F09CFF2B4800680A2190FB7A
:10265000F1F201FB1200C0B2014602901A2006F00E
:1026600046FD254800680A2190FBF1F090FBF1F24D
:1026700001FB1200C0B2014602901C2006F037FD9B
:102680001D480068642190FBF1F0C0B20146029041
:102690001E2006F02CFD3FE017480068401C16493C
:1026A000086008460068B0F5167F01DD012008606B
:1026B00006F066FF104800680A2190FBF1F201FB6A
:1026C0001200C0B2014602901A2006F010FD0A481E
:1026D00000680A2190FBF1F090FBF1F201FB12007F
:1026E000C0B2014602901C2008E00000B4020020A5
:1026F000B8020020BC020020C002002006F0F7FC57
:10270000FE480068642190FBF1F0C0B201460290DF
:102710001E2006F0ECFC00BF00BFA0E406F06FFF37
:102720000421002006F0B5FC01220821022006F059
:102730006DFC0021022006F0ACFC0321042006F011
:10274000C0FC06F01DFFEE4800680A2190FBF1F284
:1027500001FB1200C0B2014602901A2006F0C7FC2D
:10276000E74800680A2190FBF1F090FBF1F201FBD1
:102770001200C0B2014602901C2006F0B8FCE048EE
:102780000068642190FBF1F0C0B2014602901E2067
:1027900006F0ADFC049810B101286CD135E0D848A2
:1027A0000068401ED649086008460068012802DA21
:1027B0004FF41670086006F0E3FED14800680A2165
:1027C00090FBF1F201FB1200C0B2014602901A2008
:1027D00006F08DFCCA4800680A2190FBF1F090FBDE
:1027E000F1F201FB1200C0B2014602901C2006F07B
:1027F0007EFCC3480068642190FBF1F0C0B2014642
:1028000002901E2006F073FC35E0BD480068401CB5
:10281000BB49086008460068B0F5167F01DD01205D
:10282000086006F0ADFEB64800680A2190FBF1F2A0
:1028300001FB1200C0B2014602901A2006F057FCBC
:10284000AF4800680A2190FBF1F090FBF1F201FB28
:102850001200C0B2014602901C2006F048FCA848B5
:102860000068642190FBF1F0C0B2014602901E2086
:1028700006F03DFC00BF00BFA1E406F0C0FE05214C
:10288000002006F006FC01220821022006F0BEFB13
:102890000021022006F0FDFB0321042006F011FCBC
:1028A00006F06EFE974800680A2190FBF1F201FBEA
:1028B0001200C0B2014602901A2006F018FC0498DB
:1028C00010B1012836D11AE08E480068401E8D49AB
:1028D000086008460068002801DA0120086006F058
:1028E0004FFE884800680A2190FBF1F201FB1200BC
:1028F000C0B2014602901A2006F0F9FB1AE08148A6
:102900000068401C7F49086008460068012801DD16
:102910000020086006F034FE7A4800680A2190FB27
:10292000F1F201FB1200C0B2014602901A2006F03B
:10293000DEFB00BF00BF42E406F061FE062100207E
:1029400006F0A7FB01220821022006F05FFB002110
:10295000022006F09EFB0321042006F0B2FB0121B9
:10296000172006F018FC06F00BFE674800680A21E5
:1029700090FBF1F201FB1200C0B2014602901A2056
:1029800006F0B5FB012211461C2006F03FFB5E4815
:1029900000680A2190FBF1F090FBF1F201FB1200BC
:1029A000C0B2014602901C2006F0DDFB56480068CC
:1029B000642190FBF1F0C0B2014602901E2006F0A7
:1029C00096FB049810B1012874D139E04E48006894
:1029D000401E4D49086008460068002801DA0020C2
:1029E000086006F0CDFD484800680A2190FBF1F22E
:1029F00001FB1200C0B2014602901A2006F077FBDC
:102A0000012211461C2006F001FB3F4800680A2104
:102A100090FBF1F090FBF1F201FB1200C0B2014615
:102A200002901C2006F09FFB37480068642190FB51
:102A3000F1F0C0B2014602901E2006F058FB39E0CA
:102A400031480068401C3049086008460068782812
:102A500001DD7820086006F093FD2B4800680A210C
:102A600090FBF1F201FB1200C0B2014602901A2065
:102A700006F03DFB012211461C2006F0C7FA224851
:102A800000680A2190FBF1F090FBF1F201FB1200CB
:102A9000C0B2014602901C2006F065FB1A4800688F
:102AA000642190FBF1F0C0B2014602901E2006F0B6
:102AB0001EFB00BF00BF63E406F0A1FD072100205C
:102AC00006F0E7FA01220821022006F09FFA002111
:102AD000022006F0DEFA0321042006F0F2FA0B4889
:102AE00000680A2190FBF1F201FB1200C0B202461D
:102AF000012102901C2006F089FA09E0C0020020A2
:102B0000C4020020D4020020D8020020E0020020ED
:102B100006F036FD00211A2006F025FBFE4800686D
:102B20000A2190FBF1F090FBF1F201FB1200C0B220
:102B3000014602901C2006F016FBF748006864214D
:102B400090FBF1F0C0B2014602901E2006F0CFFAD1
:102B5000049810B1012874D139E0EF480068401E94
:102B6000ED49086008460068002801DA0020086086
:102B700006F006FDE84800680A2190FBF1F201FB2F
:102B80001200C0B2014602901A2006F0ECFA0122AF
:102B900011461C2006F03AFADF4800680A2190FB33
:102BA000F1F090FBF1F201FB1200C0B2014602907D
:102BB0001C2006F0D8FAD8480068642190FBF1F098
:102BC000C0B2014602901E2006F091FA39E0D248C8
:102BD0000068401CD049086008460068642801DD90
:102BE0006420086006F0CCFCCB4800680A2190FB0A
:102BF000F1F201FB1200C0B2014602901A2006F069
:102C0000B2FA012211461C2006F000FAC248006800
:102C10000A2190FBF1F090FBF1F201FB1200C0B22F
:102C2000014602901C2006F09EFABB480068642111
:102C300090FBF1F0C0B2014602901E2006F057FA58
:102C400000BF00BF29E406F0DAFC0821002006F0EE
:102C500020FA01220821022006F0D8F900210220E2
:102C600006F017FA0321042006F02BFA01211720A1
:102C700006F091FA06F084FCA848006800280ADAF9
:102C800001220821072006F0C1F9A448006840424B
:102C9000A349086008E0A1480068A1490860002233
:102CA0000821072006F0B2F900211A2006F01FFAC9
:102CB000012211461C2006F0A9F9994800680A2152
:102CC00090FBF1F201FB1200C0B2014602901C2001
:102CD00006F049FA924800680A2190FBF1F0C0B270
:102CE000014602901E2006F002FA049810B1012855
:102CF00075D175E0894800688A490968884226DDEF
:102D000006F03EFC8548006800280ADA0122082106
:102D1000072006F07BF9814800684042804908603E
:102D200008E07E4800687E490860002208210720EC
:102D300006F06CF908211A2006F0EFF908211C2092
:102D400006F0EBF906211E2006F0E7F947E073488C
:102D50000068401E714908600846006810F1280F9D
:102D600002DA6FF02700086006F00AFC6B48006882
:102D700000280ADA01220821072006F047F96748EF
:102D8000006840426649086008E064480068644999
:102D9000086000220821072006F038F900211A20D7
:102DA00006F0A5F9012211461C2006F02FF95C4817
:102DB00000680A2190FBF1F201FB1200C0B201464B
:102DC00002901C2006F0CFF9554800680A2190FBBC
:102DD000F1F0C0B2014602901E2006F088F92EE004
:102DE0004E480068401C4D4908600846006850285D
:102DF00001DD5020086006F0C3FB00211A2006F018
:102E000076F9012211461C2006F000F944480068BA
:102E10000A2190FBF1F201FB1200C0B201460290C0
:102E20001C2006F0A0F93E4800680A2190FBF1F052
:102E3000C0B2014602901E2006F059F900BF00BF43
:102E40006BE406F0DCFB0921002006F022F90122E8
:102E50000821022006F0DAF80021022006F019F914
:102E60000321042006F02DF90121172006F093F923
:102E700006F086FB2B48006800280ADA01220821A8
:102E8000072006F0C3F8274800684042264908603A
:102E900008E024480068244908600022082107202F
:102EA00006F0B4F800211A2006F021F9012211469B
:102EB0001C2006F0ABF81C4800680A2190FBF1F2D8
:102EC00001FB1200C0B2014602901C2006F04BF933
:102ED000154800680A2190FBF1F0C0B2014602904B
:102EE0001E2006F004F9049810B101287ED182E07A
:102EF0000A4800680B490968884231DD06F040FB4A
:102F000008480068002815DA01220821072006F089
:102F10007DF80448006809E0E0020020E802002093
:102F2000EC020020F0020020F40200204042FB49A5
:102F3000086008E0FA480068F849086000220821A3
:102F4000072006F063F808211A2006F0E6F80821A9
:102F50001C2006F0E2F806211E2006F0DEF849E00B
:102F6000EF480068401EEE4908600846006810F10E
:102F7000280F02DA6FF02700086006F001FBE8482E
:102F8000006800280ADA01220821072006F03EF82E
:102F9000E34800684042E149086008E0E048006812
:102FA000DE49086000220821072006F02FF80021E2
:102FB0001A2006F09CF8012211461C2006F026F883
:102FC000D64800680A2190FBF1F201FB1200C0B262
:102FD000014602901C2006F0C6F8D04800680A217D
:102FE00090FBF1F0C0B20146029000E032E01E20FA
:102FF00006F07DF82EE0CA480068401CC849086009
:1030000008460068502801DD5020086006F0B8FA34
:1030100000211A2006F06BF8012211461C2005F051
:10302000F5FFBE4800680A2190FBF1F201FB120097
:10303000C0B2014602901C2006F095F8B74800681F
:103040000A2190FBF1F0C0B2014602901E2006F06A
:103050004EF800BF00BF0FE406F0D1FA0021084689
:1030600006F017F801220821022005F0CFFF012108
:10307000022006F00EF80321042006F022F806F0E4
:103080007FFAA848006800280ADA012208210720F0
:1030900005F0BCFFA34800684042A349086008E06F
:1030A000A0480068A049086000220821072005F018
:1030B000ADFF00211A2006F056F8012211461C200F
:1030C00005F0A4FF984800680A2190FBF1F201FB8B
:1030D0001200C0B2014602901C2006F044F892484B
:1030E00000680A2190FBF1F0C0B2014602901E2058
:1030F00005F0FDFF049810B1012873D173E08948F1
:1031000000688A490968884226DD06F039FA854850
:10311000006800280ADA01220821072005F076FF5E
:103120008048006840428049086008E07D480068A7
:103130007D49086000220821072005F067FF08216B
:103140001A2005F0EAFF08211C2005F0E6FF062101
:103150001E2005F0E2FF45E072480068401E7149FC
:10316000086008460068002801DA0020086006F0C0
:1031700007FA6C48006800280ADA012208210720B3
:1031800005F044FF6748006840426749086008E06E
:10319000644800686449086000220821072005F09F
:1031A00035FF00211A2005F0DEFF012211461C2008
:1031B00005F02CFF5C4800680A2190FBF1F201FB4E
:1031C0001200C0B2014602901C2005F0CCFF564808
:1031D00000680A2190FBF1F0C0B2014602901E2067
:1031E00005F085FF2EE04F480068401C4D490860FF
:1031F00008460068632801DD0920086006F0C0F970
:1032000000211A2005F0AFFF012211461C2005F015
:10321000FDFE454800680A2190FBF1F201FB120017
:10322000C0B2014602901C2005F09DFF3E48006898
:103230000A2190FBF1F0C0B2014602901E2005F079
:1032400056FF00BF00BF36E406F0D9F90121002087
:1032500005F01FFF01220821022005F0D7FE012101
:10326000022005F016FF0321042005F02AFF06F0D6
:1032700087F92E48006800280ADA01220821072071
:1032800005F0C4FE2948006840422949086008E06A
:10329000264800682649086000220821072005F01A
:1032A000B5FE00211A2005F05EFF012211461C2008
:1032B00005F0ACFE1E4800680A2190FBF1F201FB0C
:1032C0001200C0B2014602901C2005F04CFF1848C5
:1032D00000680A2190FBF1F0C0B2014602901E2066
:1032E00005F005FF049810B101287DD181E00D485B
:1032F00000680E490968884232DD06F041F90B4842
:103300000068002816DA01220821072005F07EFE59
:103310000648006840420649086014E0F4020020B4
:10332000F0020020F8020020FC0200200003002030
:1033300004030020FB480068FB49086000220821C4
:10334000072005F063FE08211A2005F0E6FE08219B
:103350001C2005F0E2FE06211E2005F0DEFE47E0FF
:10336000F0480068401EEF490860084600680028E1
:1033700001DA0020086006F003F9EA480068002836
:103380000ADA01220821072005F040FEE54800681E
:103390004042E549086008E0E2480068E249086008
:1033A00000220821072005F031FE00211A2005F037
:1033B000DAFE012211461C2005F028FEDA480068DA
:1033C0000A2190FBF1F201FB1200C0B2014602900B
:1033D0001C2005F0C8FED44800680A2190FBF1F0DB
:1033E000C0B20146029000E032E01E2005F07FFEF0
:1033F0002EE0CC480068401CCA49086008460068B6
:10340000632801DD6320086006F0BAF800211A2065
:1034100005F0A9FE012211461C2005F0F7FDC24867
:1034200000680A2190FBF1F201FB1200C0B20146D4
:1034300002901C2005F097FEBB4800680A2190FB13
:10344000F1F0C0B2014602901E2005F050FE00BF10
:1034500000BF1AE206F0D3F80221002005F019FEA1
:1034600001220821022005F0D1FD0121022005F0F2
:1034700010FE0321042005F024FE0121172005F091
:103480008AFE06F07DF8A948006800280ADA0122C1
:103490000821072005F0BAFDA44800684042A4496D
:1034A000086008E0A1480068A149086000220821DE
:1034B000072005F0ABFD9E4800680A2190FBF1F261
:1034C00001FB1200C0B2014602901A2005F00FFE67
:1034D000012211461C2005F099FD954800680A213B
:1034E00090FBF1F090FBF1F201FB1200C0B201463B
:1034F00002901C2005F037FE8D480068642190FB87
:10350000F1F0C0B2014602901E2005F0F0FD0498D3
:1035100010B1012853D153E084480068401E83490C
:1035200008600846006810F1640F02DA6FF063006B
:1035300008607E48006800280ADA01220821072076
:1035400005F064FD7948006840427949086008E068
:10355000764800687649086000220821072005F0B7
:1035600055FD06F00DF8724800680A2190FBF1F253
:1035700001FB1200C0B2014602901A2005F0B7FD0F
:10358000012211461C2005F041FD694800680A210E
:1035900090FBF1F090FBF1F201FB1200C0B201468A
:1035A00002901C2005F0DFFD61480068642190FB5B
:1035B000F1F0C0B2014602901E2005F098FD51E0E6
:1035C0005A480068401C5949086008460068642849
:1035D00001DD642008605548006800280ADA0122ED
:1035E0000821072005F012FD50480068404250496C
:1035F000086008E04D4800684D4908600022082135
:10360000072005F003FD05F0BBFF494800680A21CB
:1036100090FBF1F201FB1200C0B2014602901A20A9
:1036200005F065FD012211461C2005F0EFFC404825
:1036300000680A2190FBF1F090FBF1F201FB12000F
:10364000C0B2014602901C2005F08DFD384800688C
:10365000642190FBF1F0C0B2014602901E2005F0FB
:1036600046FD00BF00BF17E305F0C9FF032100209E
:1036700005F00FFD01220821022005F0C7FC012101
:10368000022005F006FD0321042005F01AFD05F0D7
:1036900077FF2848006800280ADA0122082107205D
:1036A00005F0B4FC2348006840422349086008E064
:1036B000204800682049086000220821072005F002
:1036C000A5FC1D4800680A2190FBF1F201FB1200E5
:1036D000C0B2014602901A2005F045FD01221146B4
:1036E0001C2005F093FC144800680A2190FBF1F0BF
:1036F00090FBF1F201FB1200C0B2014602901C20C7
:1037000005F031FD0C480068642190FBF1F0C0B277
:10371000014602901E2005F0EAFC049870B10128D1
:103720005FD15FE0000300200403002008030020B5
:103730000C0300201003002014030020FE48006842
:10374000401EFD4908600846006810F1640F02DA67
:103750006FF063000860F848006800280ADA012268
:103760000821072005F052FCF34800684042F34965
:10377000086008E0F0480068F0490860002208216D
:10378000072005F043FC05F0FBFEEC4800680A2129
:1037900090FBF1F201FB1200C0B2014602901A2028
:1037A00005F0E1FC012211461C2005F02FFCE34846
:1037B00000680A2190FBF1F090FBF1F201FB12008E
:1037C000C0B2014602901C2005F0CDFCDB48006829
:1037D000642190FBF1F0C0B2014602901E2005F07A
:1037E00086FC51E0D4480068401CD3490860084674
:1037F0000068642801DD64200860CF480068002864
:103800000ADA01220821072005F000FCCA480068F6
:103810004042CA49086008E0C7480068C7490860D4
:1038200000220821072005F0F1FB05F0A9FEC3489E
:1038300000680A2190FBF1F201FB1200C0B20146C0
:1038400002901A2005F08FFC012211461C2005F081
:10385000DDFBBA4800680A2190FBF1F090FBF1F221
:1038600001FB1200C0B2014602901C2005F07BFC57
:10387000B2480068642190FBF1F0C0B201460290AA
:103880001E2005F034FC00BF00BF05E205F0B7FEC6
:103890000821002005F015FC0721022005F011FC8D
:1038A0000121042005F00DFC00220821072005F06D
:1038B000ADFB05F065FE4FF08041A14800680BF0BC
:1038C000CBFB02909F4800680146019002980BF0E4
:1038D0008FFB08D201211C2005F009FC00211A20D1
:1038E00005F005FC79E14FF08041954800680BF048
:1038F000B3FB0290934840680146019002980BF098
:1039000077FB17D24FF080418D4800680BF0A4FB85
:1039100002908C4800680146019002980BF068FC08
:1039200008D802211C2005F0E2FB00211A2005F036
:10393000DEFB52E14FF08041814800680BF08CFBC8
:103940000290804880680146019002980BF050FB7D
:1039500017D24FF080417A4800680BF07DFB02904F
:10396000784840680146019002980BF041FC08D865
:1039700003211C2005F0BBFB00211A2005F0B7FB3A
:103980002BE14FF080416E4800680BF065FB029020
:103990006C48C0680146019002980BF029FB17D2D1
:1039A0004FF08041664800680BF056FB0290654876
:1039B00080680146019002980BF01AFC08D8042197
:1039C0001C2005F094FB00211A2005F090FB04E177
:1039D0004FF080415A4800680BF03EFB0290594876
:1039E00000690146019002980BF002FB17D24FF0DC
:1039F0008041534800680BF02FFB02905148C0688B
:103A00000146019002980BF0F3FB08D805211C2019
:103A100005F06DFB00211A2005F069FBDDE04FF099
:103A20008041474800680BF017FB02904548406909
:103A30000146019002980BF0DBFA17D24FF080415B
:103A40003F4800680BF008FB02903E4800690146C1
:103A5000019002980BF0CCFB08D806211C2005F041
:103A600046FB00211A2005F042FBB6E04FF08041F2
:103A7000334800680BF0F0FA029032488069014642
:103A8000019002980BF0B4FA17D24FF080412C4805
:103A900000680BF0E1FA02902A4840690146019063
:103AA00002980BF0A5FB08D807211C2005F01FFB8E
:103AB00000211A2005F01BFB8FE04FF080412048C9
:103AC00000680BF0C9FA02901E48C06901460190D7
:103AD00002980BF08DFA17D24FF080411848006819
:103AE0000BF0BAFA029017488069014601900298DB
:103AF0000BF07EFB08D808211C2005F0F8FA002105
:103B00001A2005F0F4FA68E04FF080410C48006894
:103B10000BF0A2FA02900B48006A0146019002984D
:103B20000BF066FA20D24FF08041054800680BF098
:103B300093FA0290034807E01003002014030020CA
:103B4000900300209C030020C06901460190029868
:103B50000BF04EFB08D809211C2005F0C8FA002103
:103B60001A2005F0C4FA38E04FF08041FE480068A2
:103B70000BF072FA0290FD48406A014601900298EB
:103B80000BF036FA0ED24FF08041F74800680BF088
:103B900063FA0290F548006A0146019002980BF022
:103BA00027FB0ED94FF08041EF4800680BF054FA24
:103BB0000290EE48406A0146019002980BF018FB13
:103BC0000BD801211E2005F092FA00211C2005F0DF
:103BD0008EFA00211A2005F08AFA5DE005F00FFD4B
:103BE0000421002005F06DFA0621022005F069FA93
:103BF0000521042005F04DFA05F0C2FCDC480078F0
:103C0000014602901A2005F072FA049810B10128BA
:103C10002AD114E0D6480068401ED54908600846FD
:103C20000068012801DA0420086005F0A9FCD048EA
:103C30000078014602901A2005F059FA14E0CC48A9
:103C40000068401CCA49086008460068042801DD75
:103C50000120086005F094FCC548007801460290F8
:103C60001A2005F044FA00BF00BF15E005F0C7FCBC
:103C70000621022005F00DFA0121042005F009FAC1
:103C800005F07EFC0120BB4908600020BA490860AD
:103C90000120BA49086000BF00BF05B000BD03B5F0
:103CA00083B003981A2882F04283DFE810F01A00EC
:103CB0001C00DB00D40151024F0389095D04120589
:103CC000530A190F3010CD052806A3063007C40784
:103CD000730822090F0B1A0C180D210E3611E2126F
:103CE0002A1302F024BB05F08AFC0021084605F0E7
:103CF000E8F901220821022005F088F901210220BB
:103D000005F0C7F90121042005F0C3F905F038FCDE
:103D10009B480078642190FBF1F201FB12000A211C
:103D200090FBF1F201FB1200C0B2014602901A2092
:103D300005F0DDF992480078642190FBF1F201FB77
:103D400012000A2190FBF1F0C0B2014602901C2043
:103D500005F0CDF98A480078642190FBF1F0C0B2FB
:103D6000014602901E2005F0C2F9049810B1012806
:103D700076D13AE082480078401E814908700846B2
:103D80000078012801DAFE20087005F0F9FB7C4874
:103D90000078642190FBF1F201FB12000A2190FBF4
:103DA000F1F201FB1200C0B2014602901A2005F0A8
:103DB0009EF973480078642190FBF1F201FB120038
:103DC0000A2190FBF1F0C0B2014602901C2005F0E0
:103DD0008EF96B480078642190FBF1F0C0B2014687
:103DE00002901E2005F083F93AE065480078401CF7
:103DF0006349087008460078FE2801DD012008703C
:103E000005F0BEFB5E480078642190FBF1F201FBF7
:103E100012000A2190FBF1F201FB1200C0B2014630
:103E200002901A2005F063F955480078642190FB50
:103E3000F1F201FB12000A2190FBF1F0C0B2014641
:103E400002901C2005F053F94D480078642190FB46
:103E5000F1F0C0B2014602901E2005F048F900BF03
:103E600000BF3EE705F0CBFB0221002005F029F959
:103E700001220821022005F0C9F8012208210220B0
:103E800005F002F80121022005F01BF902210420AF
:103E900005F0FFF805F074FB3A483B49096850F813
:103EA00021003A49086008460068642190FBF1F05F
:103EB0000A2190FBF1F201FB1200C0B20146029010
:103EC0001A2005F014F931480068642190FBF1F0E4
:103ED0000A2190FBF1F090FBF1F201FB1200C0B25D
:103EE000014602901C2005F002F92848006842F2C1
:103EF000107190FBF1F0C0B2014602901E2005F057
:103F0000F6F8049810B101285BD15BE01E48006808
:103F1000401E1D49086008460068002801DA042098
:103F2000086018481849096850F8210017490860C6
:103F30000846006807F085FB05F022FB134800687F
:103F4000642190FBF1F00A2190FBF1F201FB1200D9
:103F5000C0B2014602901A2005F0C9F80B4800686B
:103F6000642190FBF1F013E0900300209C030020FB
:103F7000CC0200203803002024030020400300204E
:103F800074020020800200207C02002078020020C1
:103F90000A2190FBF1F090FBF1F201FB1200C0B29C
:103FA000014602901C2005F0A2F8FC48006842F28D
:103FB000107190FBF1F0C0B2014602901E2005F096
:103FC00096F846E0F6480068401CF5490860084647
:103FD0000068042801DD00200860F248F049096803
:103FE00050F82100ED4908600846006807F029FBF9
:103FF00005F0C6FAE9480068642190FBF1F00A2157
:1040000090FBF1F201FB1200C0B2014602901A20AF
:1040100005F06DF8E1480068642190FBF1F00A2199
:1040200090FBF1F090FBF1F201FB1200C0B20146EF
:1040300002901C2005F05BF8D848006842F210712D
:1040400090FBF1F0C0B2014602901E2005F04FF83F
:1040500000BF00BF45E605F0D2FA0821002005F0B8
:1040600030F801220821022004F0D0FF07210220AD
:1040700005F027F80321042005F00BF8CA48006872
:1040800001280AD105F07CFA0A211A2005F045F82A
:1040900000211C2005F02BF80DE005F071FA052138
:1040A0001A2005F03AF805211C2005F036F8002109
:1040B0001E2005F01CF8049810B1012846D122E01A
:1040C000B948006868B90120B749086005F058FA96
:1040D0000A211A2005F021F800211C2005F007F81C
:1040E00010E00020B049086005F04AFA05211A20C6
:1040F00005F013F805211C2005F00FF800211E2003
:1041000004F0F5FF22E0A848006868B90120A6493C
:10411000086005F035FA0A211A2004F0FEFF00219C
:104120001C2004F0E4FF10E000209F49086005F027
:1041300027FA05211A2004F0F0FF05211C2004F0C5
:10414000ECFF00211E2004F0D2FF00BF00BFC8E535
:1041500005F055FA0B21002004F0B3FF01220821DD
:10416000022004F053FF0321022004F0AAFF0421DF
:10417000084604F08EFF0121172005F00CF805F029
:10418000FFF98A48006800280ADA0122082107207E
:1041900004F03CFF8548006840428549086008E01B
:1041A000824800688249086000220821072004F044
:1041B0002DFF00211A2004F09AFF012211461C2035
:1041C00004F024FF7A4800680A2190FBF1F201FB19
:1041D0001200C0B2014602901C2004F0C4FF7448D3
:1041E00000680A2190FBF1F0C0B2014602901E2047
:1041F00004F07DFF049810B1012875D175E06D4879
:1042000000686A490968884226DD05F0B9F96748FF
:10421000006800280ADA01220821072004F0F6FECF
:104220006248006840426249086008E05F480068F0
:104230005F49086000220821072004F0E7FE0821FA
:104240001A2004F06AFF08211C2004F066FF0621F2
:104250001E2004F062FF47E054480068401E5349A6
:1042600008600846006810F1280F02DA6FF0270096
:10427000086005F085F94D48006800280ADA012237
:104280000821072004F0C2FE48480068404248491F
:10429000086008E045480068454908600022082198
:1042A000072004F0B3FE00211A2004F020FF0122B1
:1042B00011461C2004F0AAFE3D4800680A2190FB2C
:1042C000F1F201FB1200C0B2014602901C2004F082
:1042D0004AFF374800680A2190FBF1F0C0B201465E
:1042E00002901E2004F003FF2EE030480068401CBE
:1042F0002E49086008460068502801DD50200860FB
:1043000005F03EF900211A2004F0F1FE01221146C9
:104310001C2004F07BFE264800680A2190FBF1F285
:1043200001FB1200C0B2014602901C2004F01BFFEA
:104330001F4800680A2190FBF1F0C0B201460290CC
:104340001E2004F0D4FE00BF00BFCAE405F057F9F8
:104350000421002004F0B5FE01220821022004F00F
:1043600055FE0321022004F0ACFE0421084604F0AF
:1043700090FE0121172004F00EFF05F001F90D4811
:10438000006800281ADA01220821072004F03EFE06
:104390000848006840420849086018E07802002098
:1043A0007C0200208002002094020020980200205D
:1043B000A40200209C020020A0020020FA4800680D
:1043C000FA49086000220821072004F01FFE00219E
:1043D0001A2004F08CFE012211461C2004F016FE67
:1043E000F24800680A2190FBF1F201FB1200C0B212
:1043F000014602901C2004F0B6FEEC4800680A2139
:1044000090FBF1F0C0B2014602901E2004F06FFE56
:10441000049810B1012848D148E0E3480068401EE4
:10442000E14908600846006810F1280F02DA6FF0D1
:104430002700086005F0A4F8DB48006800280ADAC5
:1044400001220821072004F0E1FDD748006840421E
:10445000D649086008E0D4480068D44908600022C2
:104460000821072004F0D2FD00211A2004F03FFEAD
:10447000012211461C2004F0C9FDCC4800680A2125
:1044800090FBF1F201FB1200C0B2014602901C2029
:1044900004F069FEC54800680A2190FBF1F0C0B243
:1044A000014602901E2004F022FE5BE0BE48006838
:1044B000BF49096888420EDD05F062F808211A201C
:1044C00004F02BFE08211C2004F027FE06211E20EC
:1044D00004F023FE45E0B4480068401CB24908607F
:1044E00008460068502801DD5020086005F048F8B3
:1044F000AD48006800280ADA01220821072004F0EC
:1045000085FDA94800684042A849086008E0A6481F
:104510000068A649086000220821072004F076FD03
:1045200000211A2004F0E3FD012211461C2004F0B2
:104530006DFD9E4800680A2190FBF1F201FB12001C
:10454000C0B2014602901C2004F00DFE974800689E
:104550000A2190FBF1F0C0B2014602901E2004F047
:10456000C6FD00BF00BF7CE400220821072004F044
:104570004DFD05F044F80B21002004F0A2FD0122BE
:104580000821022004F042FD0B21022004F099FDD5
:104590000421084604F07DFD04F0F2FF00211A20FA
:1045A00004F0E1FD012211461C2004F02FFD81489A
:1045B00000680A2190FBF1F201FB1200C0B2014633
:1045C00002901C2004F0CFFD7A4800680A2190FB7D
:1045D000F1F0C0B2014602901E2004F088FD04985C
:1045E00010B1012873D143E072480068724909682C
:1045F00088420EDA04F0C4FF08211A2004F08DFD71
:1046000008211C2004F089FD06211E2004F085FDF0
:104610002DE068480068401E66490860084600684A
:10462000002801DA0120086004F0AAFF00211A2006
:1046300004F099FD012211461C2004F0E7FC5D48BE
:1046400000680A2190FBF1F201FB1200C0B20146A2
:1046500002901C2004F087FD564800680A2190FB58
:10466000F1F0C0B2014602901E2004F040FD2EE0A1
:1046700050480068401C4F4908600846006863289D
:1046800001DD6320086004F07BFF00211A2004F0A4
:104690006AFD012211461C2004F0B8FC4548006860
:1046A0000A2190FBF1F201FB1200C0B20146029018
:1046B0001C2004F058FD3F4800680A2190FBF1F0EF
:1046C000C0B2014602901E2004F011FD00BF00BFE1
:1046D000C0E404F094FF0421002004F0F2FC012265
:1046E0000821022004F092FC0B21022004F0E9FCD6
:1046F0000421084604F0CDFC04F042FF00211A20FA
:1047000004F031FD012211461C2004F07FFC2A48F0
:1047100000680A2190FBF1F201FB1200C0B20146D1
:1047200002901C2004F01FFD234800680A2190FB22
:10473000F1F0C0B2014602901E2004F0D8FC0498AB
:1047400010B101287ED139E01B480068401E1A498B
:10475000086008460068002801DA0020086004F0BC
:104760000FFF00211A2004F0FEFC012211461C203C
:1047700004F04CFC104800680A2190FBF1F201FBA8
:104780001200C0B2014602901C2004F0ECFC0A4862
:1047900000680A2190FBF1F0C0B2014602901E2091
:1047A00004F0A5FC4EE000009C020020A0020020C6
:1047B00098020020A8020020AC020020FA480068FD
:1047C000FA49096888420EDA04F0DAFE08211A2054
:1047D00004F0A3FC08211C2004F09FFC06211E20ED
:1047E00004F09BFC2DE0F1480068401CEF49086094
:1047F00008460068632801DD6320086004F0C0FEFD
:1048000000211A2004F0AFFC012211461C2004F004
:10481000FDFBE64800680A2190FBF1F201FB120063
:10482000C0B2014602901C2004F09DFCDF480068E5
:104830000A2190FBF1F0C0B2014602901E2004F064
:1048400056FC00BF00BF05E404F0D9FE052100209E
:1048500004F037FC01220821022004F0D7FB0321D9
:10486000022004F02EFC0621042004F012FC012199
:10487000172004F090FC04F083FECD480068012866
:1048800004D105211C2004F048FC03E003211C2076
:1048900004F043FC049810B101282ED116E0C4485E
:1048A000006848B90120C249086004F069FE05218A
:1048B0001C2004F032FC08E00020BD49086004F030
:1048C0005FFE03211C2004F028FC16E0B8480068B5
:1048D00048B90120B649086004F052FE05211C20A9
:1048E00004F01BFC08E00020B149086004F048FE19
:1048F00003211C2004F011FC00BF00BF27E404F0DA
:104900007EFE0821002004F0DCFB012208210220A9
:1049100004F07CFB0521022004F0D3FB07210420D6
:1049200004F0B7FB04F02CFEA2480068012808D16F
:104930000A211A2004F0F1FB00211C2004F0D7FB0F
:104940000BE005211A2004F0E8FB05211C2004F0EF
:10495000E4FB00211E2004F0CAFB049810B10128DA
:1049600046D122E09348006868B901209149086067
:1049700004F006FE0A211A2004F0CFFB00211C20BF
:1049800004F0B5FB10E000208A49086004F0F8FD4F
:1049900005211A2004F0C1FB05211C2004F0BDFBF9
:1049A00000211E2004F0A3FB22E08248006868B9C1
:1049B00001208049086004F0E3FD0A211A2004F078
:1049C000ACFB00211C2004F092FB10E00020794990
:1049D000086004F0D5FD05211A2004F09EFB052196
:1049E0001C2004F09AFB00211E2004F080FB00BF75
:1049F00000BFAAE404F003FE0121002004F049FBFB
:104A000001220821022004F001FB0321022004F00E
:104A100058FB0821042004F03CFB04F0B1FD66487B
:104A2000006838B90A211A2004F077FB00211C2005
:104A300004F05DFB6048006801280BD105211A20B5
:104A400004F06BFB05211C2004F067FB00211E20F5
:104A500004F04DFB049810B1012856D12AE05648C5
:104A60000068401E5449086008460068002801DAC2
:104A7000012008605048006848B904F081FD0A210F
:104A80001A2004F04AFB00211C2004F030FB4A48A5
:104A9000006801280DD104F073FD05211A2004F0EF
:104AA0003CFB05211C2004F038FB00211E2004F0F3
:104AB0001EFB2AE040480068401C3F490860084649
:104AC0000068012801DD002008603B48006848B903
:104AD00004F056FD0A211A2004F01FFB00211C20BF
:104AE00004F005FB3448006801280DD104F048FDAE
:104AF00005211A2004F011FB05211C2004F00DFBF8
:104B000000211E2004F0F3FA00BF00BF1DE404F0F2
:104B100076FD0221002004F0BCFA012208210220C7
:104B200004F074FA0321022004F0CBFA08210420D7
:104B300004F0AFFA04F024FD2048006801280CD1ED
:104B400003211A2004F0E9FA09211C2004F0E5FAF7
:104B500003211E2004F0E1FA0BE000211A2004F0EA
:104B6000DCFA08211C2004F0D8FA00211E2004F0F1
:104B7000BEFA049810B101285BD133E00F480068F9
:104B8000F0B901200D49086004F0FAFC03211A2055
:104B900004F0C3FA09211C2004F0BFFA03211E20EF
:104BA00004F0BBFA1DE00000A8020020AC020020C7
:104BB000B0020020B4020020B8020020BC02002095
:104BC0000020FB49086004F0DBFC00211A2004F0FF
:104BD000A4FA08211C2004F0A0FA00211E2004F0F1
:104BE00086FA26E0F248006888B90120F04908609A
:104BF00004F0C6FC03211A2004F08FFA09211C20BE
:104C000004F08BFA03211E2004F087FA10E0002044
:104C1000E749086004F0B4FC00211A2004F07DFA92
:104C200008211C2004F079FA00211E2004F05FFA0C
:104C300000BF00BF97E404F0E2FC0321002004F071
:104C400028FA01220821022004F0E0F903210220C1
:104C500004F037FA0821042004F01BFA04F090FC59
:104C6000D44800680A2190FBF1F201FB1200C0B2A7
:104C7000014602901A2004F03AFACE4800680A2150
:104C800090FBF1F090FBF1F201FB1200C0B2014683
:104C900002901C2004F02BFAC6480068642190FBA7
:104CA000F1F0C0B2014602901E2004F020FA0498F0
:104CB00010B101286CD135E0BE480068401EBD49E6
:104CC000086008460068012802DA4FF41670086090
:104CD00004F056FCB74800680A2190FBF1F201FB92
:104CE0001200C0B2014602901A2004F000FAB14846
:104CF00000680A2190FBF1F090FBF1F201FB120039
:104D0000C0B2014602901C2004F0F1F9A9480068E5
:104D1000642190FBF1F0C0B2014602901E2004F025
:104D2000E6F935E0A3480068401CA249086008463F
:104D30000068B0F5167F01DD0120086004F020FC5A
:104D40009C4800680A2190FBF1F201FB1200C0B2FE
:104D5000014602901A2004F0CAF9964800680A2118
:104D600090FBF1F090FBF1F201FB1200C0B20146A2
:104D700002901C2004F0BBF98E480068642190FB6F
:104D8000F1F0C0B2014602901E2004F0B0F900BF5D
:104D900000BF9DE404F033FC0421002004F079F905
:104DA00001220821022004F031F90321022004F03D
:104DB00088F90821042004F06CF904F0E1FB7E4836
:104DC00000680A2190FBF1F201FB1200C0B201461B
:104DD00002901A2004F08BF9774800680A2190FBB2
:104DE000F1F090FBF1F201FB1200C0B2014602901B
:104DF0001C2004F07CF970480068642190FBF1F0FD
:104E0000C0B2014602901E2004F071F9049810B15E
:104E100001286CD135E068480068401E664908608A
:104E200008460068012802DA4FF41670086004F0A2
:104E3000A7FB614800680A2190FBF1F201FB120018
:104E4000C0B2014602901A2004F051F95A48006895
:104E50000A2190FBF1F090FBF1F201FB1200C0B2CD
:104E6000014602901C2004F042F953480068642176
:104E700090FBF1F0C0B2014602901E2004F037F919
:104E800035E04D480068401C4B4908600846006802
:104E9000B0F5167F01DD0120086004F071FB464883
:104EA00000680A2190FBF1F201FB1200C0B201463A
:104EB00002901A2004F01BF93F4800680A2190FB79
:104EC000F1F090FBF1F201FB1200C0B2014602903A
:104ED0001C2004F00CF938480068642190FBF1F0C4
:104EE000C0B2014602901E2004F001F900BF00BFCD
:104EF000A9E404F084FB0521002004F0CAF8012293
:104F00000821022004F082F80321022004F0D9F8DD
:104F10000821042004F0BDF804F032FB27480068A3
:104F20000A2190FBF1F201FB1200C0B2014602908F
:104F30001A2004F0DCF8049810B1012836D11AE0E8
:104F40001E480068401E1D49086008460068002889
:104F500001DA0120086004F013FB184800680A21F8
:104F600090FBF1F201FB1200C0B2014602901A2040
:104F700004F0BDF81AE011480068401C0F490860B1
:104F800008460068012801DD0020086004F0F8FAF6
:104F90000A4800680A2190FBF1F201FB1200C0B23E
:104FA000014602901A2004F0A2F800BF00BF4AE4B4
:104FB000BC020020C0020020C4020020D402002055
:104FC00004F01DFB00220821072004F01FF8002236
:104FD00008210A2004F01AF80021084604F071F8AC
:104FE00001220821022004F011F80321022004F01C
:104FF00068F80421084604F04CF80121172004F059
:10500000CAF804F0BDFAFE4800680A2190FBF1F2EC
:1050100001FB1200C0B2014602901A2004F067F8AA
:10502000012211461C2003F0F1FFF54800680A2117
:1050300090FBF1F090FBF1F201FB1200C0B20146CF
:1050400002901C2004F08FF8ED480068642190FB6A
:10505000F1F0C0B2014602901E2004F048F8049816
:1050600010B1012874D139E0E5480068401EE449D8
:10507000086008460068002801DA0020086004F093
:105080007FFADF4800680A2190FBF1F201FB120071
:10509000C0B2014602901A2004F029F801221146FC
:1050A0001C2003F0B3FFD64800680A2190FBF1F002
:1050B00090FBF1F201FB1200C0B2014602901C20ED
:1050C00004F051F8CE480068642190FBF1F0C0B2C2
:1050D000014602901E2004F00AF839E0C848006832
:1050E000401CC749086008460068782801DD782020
:1050F000086004F045FAC24800680A2190FBF1F20A
:1051000001FB1200C0B2014602901A2003F0EFFF2B
:10511000012211461C2003F079FFB94800680A21DA
:1051200090FBF1F090FBF1F201FB1200C0B20146DE
:1051300002901C2004F017F8B1480068642190FB2D
:10514000F1F0C0B2014602901E2003F0D0FF00BF74
:1051500000BF4EE404F053FA0021084603F0B1FF0B
:1051600001220821022003F051FF0B21022003F04D
:10517000A8FF0421084603F08CFFA24800680A211A
:1051800090FBF1F201FB1200C0B202460121029035
:105190001C2003F03BFF04F0F3F900211A2003F078
:1051A000E2FF984800680A2190FBF1F090FBF1F2D1
:1051B00001FB1200C0B2014602901C2003F0D3FF95
:1051C00090480068642190FBF1F0C0B20146029063
:1051D0001E2003F08CFF049810B1012874D139E02F
:1051E00088480068401E8749086008460068002813
:1051F00001DA0020086004F0C3F9824800680A213F
:1052000090FBF1F201FB1200C0B2014602901A209D
:1052100003F0A9FF012211461C2003F0F7FE794894
:1052200000680A2190FBF1F090FBF1F201FB120003
:10523000C0B2014602901C2003F095FF714800683F
:10524000642190FBF1F0C0B2014602901E2003F0F1
:105250004EFF39E06B480068401C6A490860084608
:105260000068642801DD6420086004F089F965485D
:1052700000680A2190FBF1F201FB1200C0B2014666
:1052800002901A2003F06FFF012211461C2003F048
:10529000BDFE5C4800680A2190FBF1F090FBF1F242
:1052A00001FB1200C0B2014602901C2003F05BFF1C
:1052B00054480068642190FBF1F0C0B201460290AE
:1052C0001E2003F014FF00BF00BF1FE404F097F995
:1052D0000021084603F0DDFE01220821022003F030
:1052E00095FE0321022003F0ECFE0921042003F0C7
:1052F000D0FE0121172003F04EFF04F041F942488F
:10530000006800280ADA01220821072003F07EFE47
:105310003D48006840423D49086008E03A4800685E
:105320003A49086000220821072003F06FFE00219F
:105330001A2003F0DCFE012211461C2003F066FE59
:10534000324800680A2190FBF1F201FB1200C0B262
:10535000014602901C2003F006FF2C4800680A2139
:1053600090FBF1F0C0B2014602901E2003F0BFFE98
:10537000049810B101287DD182E0234800682449B7
:105380000968884226DD04F0FBF81F480068002801
:105390000ADA01220821072003F038FE1A480068C3
:1053A00040421A49086008E0174800681749086039
:1053B00000220821072003F029FE08211A2003F00B
:1053C000ACFE08211C2003F0A8FE06211E2003F0DD
:1053D000A4FE54E00C480068401E0B4908600846D3
:1053E000006810F1280F02DA6FF02700086004F05F
:1053F000C7F805480068002815DA0122082109E0ED
:10540000D8020020E0020020E8020020EC02002088
:10541000F0020020072003F0F9FDFE48006840423A
:10542000FD49086008E0FB480068FB49086000226D
:105430000821072003F0EAFD00211A2003F057FE9F
:10544000012211461C2003F0E1FDF34800680A2107
:1054500090FBF1F201FB1200C0B2014602901C2049
:1054600003F081FEEC4800680A2190FBF1F0C0B225
:10547000014600E033E002901E2003F038FE2EE0EB
:10548000E4480068401CE34908600846006850286A
:1054900001DD5020086004F073F800211A2003F0A9
:1054A00026FE012211461C2003F0B0FDDA480068F8
:1054B0000A2190FBF1F201FB1200C0B201460290FA
:1054C0001C2003F050FED44800680A2190FBF1F044
:1054D000C0B2014602901E2003F009FE00BF00BFCB
:1054E00057E404F08CF80121002003F0D2FD0122E2
:1054F0000821022003F08AFD0321022003F0E1FDD0
:105500000921042003F0C5FD0121172003F043FE0B
:1055100004F036F8C148006800280ADA01220821A0
:10552000072003F073FDBD4800684042BC49086095
:1055300008E0BA480068BA4908600022082107203C
:1055400003F064FD00211A2003F0D1FD0122114671
:105550001C2003F05BFDB24800680A2190FBF1F2C9
:1055600001FB1200C0B2014602901C2003F0FBFDBB
:10557000AB4800680A2190FBF1F0C0B201460290EE
:105580001E2003F0B4FD049810B1012875D175E018
:10559000A0480068A1490968884226DD03F0F0FFB1
:1055A0009E48006800280ADA01220821072003F03B
:1055B0002DFD9A48006840429949086008E09748E4
:1055C00000689749086000220821072003F01EFDAB
:1055D00008211A2003F0A1FD08211C2003F09DFDE5
:1055E00006211E2003F099FD47E08C480068401E0C
:1055F0008A4908600846006810F1280F02DA6FF047
:105600002700086003F0BCFF8448006800280ADA1D
:1056100001220821072003F0F9FC8048006840427D
:105620007F49086008E07D4800687D4908600022E5
:105630000821072003F0EAFC00211A2003F057FD9F
:10564000012211461C2003F0E1FC754800680A2184
:1056500090FBF1F201FB1200C0B2014602901C2047
:1056600003F081FD6E4800680A2190FBF1F0C0B2A2
:10567000014602901E2003F03AFD2EE067480068C4
:10568000401C6649086008460068502801DD50202B
:10569000086003F075FF00211A2003F028FD0122A5
:1056A00011461C2003F0B2FC5D4800680A2190FB03
:1056B000F1F201FB1200C0B2014602901C2003F07F
:1056C00052FD574800680A2190FBF1F0C0B2014634
:1056D00002901E2003F00BFD00BF00BF08E403F0A2
:1056E0008EFF0021084603F0D4FC0122082102208D
:1056F00003F08CFC0B21022003F0E3FC09210420C1
:1057000003F0C7FC03F03CFF4648006800280ADAB3
:1057100001220821072003F079FC4248006840423A
:105720004149086008E03F4800683F49086000229E
:105730000821072003F06AFC00211A2003F013FD62
:10574000012211461C2003F061FC374800680A2141
:1057500090FBF1F201FB1200C0B2014602901C2046
:1057600003F001FD304800680A2190FBF1F0C0B25F
:10577000014602901E2003F0BAFC049810B10128E3
:105780007ED184E02748006828490968884226DDE0
:1057900003F0F6FE2348006800280ADA01220821F7
:1057A000072003F033FC1F48006840421E49086090
:1057B00008E01C4800681C490860002208210720F6
:1057C00003F024FC08211A2003F0A7FC08211C2068
:1057D00003F0A3FC06211E2003F09FFC56E01148B5
:1057E0000068401E0F49086008460068002801DA7A
:1057F0000020086003F0C4FE0A480068002819DA97
:1058000001220821072003F001FC064800684042FD
:1058100005490DE0E8020020EC020020F002002023
:10582000F4020020F8020020FC0200200003002007
:10583000086008E0FE480068FE4908600022082170
:10584000072003F0E3FB00211A2003F08CFC012267
:1058500011461C2003F0DAFBF64800680A2190FB91
:10586000F1F201FB1200C0B2014602901C2003F0CD
:105870007AFCF04800680A2190FBF1F0C0B200E029
:1058800034E0014602901E2003F031FC2EE0E8488F
:105890000068401CE649086008460068632801DD8E
:1058A0000920086003F06CFE00211A2003F05BFC65
:1058B000012211461C2003F0A9FBDE4800680A21E2
:1058C00090FBF1F201FB1200C0B2014602901C20D5
:1058D00003F049FCD74800680A2190FBF1F0C0B200
:1058E000014602901E2003F002FC00BF00BF30E41E
:1058F00003F085FE0121002003F0CBFB01220821EB
:10590000022003F083FB0B21022003F0DAFB0921C4
:10591000042003F0BEFB03F033FEC74800680028F4
:105920000ADA01220821072003F070FBC248006850
:105930004042C249086008E0BF480068BF490860AB
:1059400000220821072003F061FB00211A2003F048
:105950000AFC012211461C2003F058FBB7480068DE
:105960000A2190FBF1F201FB1200C0B20146029045
:105970001C2003F0F8FBB14800680A2190FBF1F00D
:10598000C0B2014602901E2003F0B1FB049810B192
:10599000012873D173E0A6480068A74909688842C6
:1059A00026DD03F0EDFDA448006800280ADA012294
:1059B0000821072003F02AFB9F48006840429F49C6
:1059C000086008E09C4800689C49086000220821A3
:1059D000072003F01BFB08211A2003F09EFB08217F
:1059E0001C2003F09AFB06211E2003F096FB45E0E5
:1059F00091480068401E90490860084600680028E9
:105A000001DA0020086003F0BBFD8B480068002825
:105A10000ADA01220821072003F0F8FA8648006814
:105A200040428649086008E083480068834908606E
:105A300000220821072003F0E9FA00211A2003F0D0
:105A400092FB012211461C2003F0E0FA7B4800681B
:105A50000A2190FBF1F201FB1200C0B20146029054
:105A60001C2003F080FB754800680A2190FBF1F0D0
:105A7000C0B2014602901E2003F039FB2EE06E48B2
:105A80000068401C6C49086008460068632801DD16
:105A90006320086003F074FD00211A2003F063FB0B
:105AA000012211461C2003F0B1FA644800680A2163
:105AB00090FBF1F201FB1200C0B2014602901C20E3
:105AC00003F051FB5D4800680A2190FBF1F0C0B281
:105AD000014602901E2003F00AFB00BF00BF1BE23C
