:020000040800F2
:100000000011002019ED00086B0F00086D0F0008AB
:10001000710F0008750F0008790F0008000000003C
:100020000000000000000000000000007D0F00083C
:100030007F0F000800000000810F0008830F0008F8
:1000400033ED000833ED000833ED000881CE0008E1
:1000500033ED000833ED000833ED000833ED000800
:1000600033ED000833ED000833ED000833ED0008F0
:1000700033ED000833ED000833ED000833ED0008E0
:10008000C1DB000821DC000833ED000833ED000877
:1000900033ED000833ED000833ED000833ED0008C0
:1000A00033ED000833ED000833ED000833ED0008B0
:1000B000CDAC000851AC0008F10E000833ED00088B
:1000C00033ED000833ED000833ED000833ED000890
:1000D00033ED0008750B00080F0B000833ED000826
:1000E00003E1000833ED000833ED000833ED0008AC
:1000F00033ED000833ED000833ED000833ED000860
:1001000033ED000833ED000849AD000833ED000879
:1001100033ED000833ED000833ED000833ED00083F
:1001200033ED000833ED000833ED000833ED00082F
:1001300000F002F800F062F80AA090E8000C824497
:100140008344AAF10107DA4501D100F057F8AFF274
:10015000090EBAE80F0013F0010F18BFFB1A43F0A5
:10016000010318473C2701005C2701000A444FF0B7
:10017000000C10F8013B13F0070408BF10F8014B06
:100180001D1108BF10F8015B641E05D010F8016B4B
:10019000641E01F8016BF9D113F0080F1EBF10F8AF
:1001A000014BAD1C0C1B09D16D1E58BF01F801CBD2
:1001B000FAD505E014F8016B01F8016B6D1EF9D555
:1001C0009142D6D37047000000230024002500266A
:1001D000103A28BF78C1FBD8520728BF30C148BFAA
:1001E0000B607047642911F0B181732911F0778297
:1001F000002070471FB51FBD10B510BD11F078FA73
:100200001146FFF7F7FF09F0ECFA11F096FA03B484
:10021000FFF7F2FF03BC0EF0CDFC00000CB5002090
:10022000019000906C48006840F480306A49086092
:1002300000BF6948006800F4003000900198401C3D
:100240000190009818B90198B0F5A06FF1D16248FB
:10025000006800F4003010B10120009001E000209F
:1002600000900098012843D15C48006840F01000DD
:100270005A4908600846006820F0030008600846F4
:10028000006840F0020008605348406852494860E6
:100290000846406848600846406840F4806048600E
:1002A0000846406820F47C1048600846406840F4E6
:1002B000E81048600846006840F08070086000BFA1
:1002C0004548006800F000700028F9D042484068B6
:1002D00020F00300404948600846406840F00200B2
:1002E000486000BF3C48406800F00C000828F9D185
:1002F0000CBD10B5FFF792FF10BD10B53648006871
:1003000040F001003449086008464068344908401C
:100310003149486008460068324908402E49086063
:100320000846006820F4802008600846406820F4F1
:10033000FE0048604FF41F008860FFF7DAFF4FF0BF
:1003400000602949086010BD10B50021002000227E
:10035000214B5B6803F00C0121B1042906D0082968
:1003600028D107E0214B224C236027E01F4B204C73
:10037000236023E0184B5B6803F47010164B5B6836
:1003800003F48032022303EB904022B9194B43431C
:10039000174C23600DE0104B5B6803F4003323B16E
:1003A000144B4343124C236003E0104B4343104C67
:1003B000236003E00D4B0E4C236000BF00BF064BD3
:1003C0005B68C3F303130C4CE15C094B1B68CB4027
:1003D000074C236010BD00000010024000200240C6
:1003E0000000FFF8FFFFF6FE08ED00E000127A00C3
:1003F0000000002000093D000400002070B5024606
:100400000C46FF25FF2309E012F8010B80EA0501E5
:10041000FA48405C80EA0305F948435C201EA4F1D9
:100420000106F4B2F0D143EA052070BD10B50120F9
:10043000F4490870F4480FF04FF9F4490870F44893
:100440000078012856D00021F2480FF0A7FE0021C5
:10045000F04810F037F9F0480078A0B1EB48007888
:10046000EE49097888420ED10020ED490870ED4927
:10047000087008460078401C0870E4480078EA4993
:10048000E84A12788854E448007860BBE448007871
:1004900048BBE4480078642813DADC480178E24A73
:1004A000E0480078401C1154DE480078401CDD49CB
:1004B000087008460078082815DB084600780870A0
:1004C00011E00120D6490870D1490870D54800785C
:1004D000D5490870D54800688078D5490968887082
:1004E0000020D04908700020CB4908700121C9487C
:1004F0000FF054FE10BD10B50120C2490870CD495F
:100500000870CD480FF0E8F8C0490870C04800787E
:10051000012856D00021BF480FF040FE0021BD4801
:1005200010F0D0F8BC480078A0B1B8480078BB49BA
:10053000097888420ED10020B9490870B94908707D
:1005400008460078401C0870B0480078B649B54AA3
:1005500012788854B048007860BBB148007848BB36
:10056000B0480078642813DAA8480178AE4AAD484C
:100570000078401C1154AB480078401CA949087011
:1005800008460078082815DB08460078087011E056
:100590000120A34908709E490870A2480078A2492A
:1005A0000870A24800688078A14909688870002016
:1005B0009C490870002098490870012195480FF067
:1005C000EDFD10BD10B59A4800689C490978405C63
:1005D0009B490870084601788B480FF079F89748D6
:1005E0000078401C954908709148006800780978A7
:1005F000884210DA0020864908708D490968087021
:100600008849087001208D490870002240F2266157
:100610007D480EF0FCFF10BD70B500257F480078C6
:100620008849087003204870874800788870874997
:100630008748006811F078FF064611F0D9FE000ADD
:100640008049C87081498248006811F06DFF0646F4
:1006500011F0CEFE7B4908717E48006811F0C8FE9B
:100660000121B1EBE03F07D17A4801684FF08F409C
:1006700012F062F87749086074497648006811F012
:1006800053FF064611F0B4FE000A6E4948716F49E7
:100690007048006811F048FF064611F0A9FE69494C
:1006A000887169480088051F04E00021A81D654A7B
:1006B00011546D1E002DF8DC63480078C01CC1B2D7
:1006C0006048FFF79BFE044621125E4A5E480088A0
:1006D000C01C11545C480088001D14545A4800780E
:1006E000401D5D49087010465C490860012240F2D7
:1006F000277145480EF08BFF70BD70B50025474847
:10070000007850490870032048704F48007888707E
:100710005048006811F06CFE0121B1EBE03F07D1B9
:100720004C4801684FF08F4012F006F849490860C4
:1007300046494848006811F0F7FE064611F058FE99
:10074000000A4049C87041494248006811F0ECFE77
:10075000064611F04DFE3B4908713B480088851E56
:1007600004E00021281D374A11546D1E002DF8DCCD
:1007700035480078C01CC1B23248FFF73FFE04463E
:100780002112304A30480088C01C11542E4800887D
:10079000001D14542C480078401D2F490870104645
:1007A0002E490860012240F2277117480EF02FFFF2
:1007B00070BD70B5002519480078224908700320E3
:1007C000487021480078887020492148006811F05D
:1007D000ABFE064611F00CFE000A1A49C8701B4910
:1007E0001B48006811F0A0FE064611F001FE1549F5
:1007F000087115480088851E37E00000660000205B
:10080000660100205D000020004400404C000020F4
:100810005C0000200008004048000020C0020020CA
:10082000490000204F000020A004002054000020B8
:10083000580000205F0000200038014050000020D8
:100840004D0000209D0700204400002000002041B2
:10085000AC030020A803002098020020940200208E
:100860000021281DFD4A11546D1E002DF8DCFC48A6
:100870000078C01CC1B2F948FFF7C0FD0446211240
:10088000F64AF7480088C01C1154F5480088001D3E
:100890001454F3480078401DF24908701046F2499C
:1008A0000860012240F22771F0480EF0B0FE70BDE2
:1008B00010B50220EE490870EE4800884FF6FA7134
:1008C000884205DAEC48007810B900200DF09DFA56
:1008D000E84800884FF6FA71884203DAE648007863
:1008E00001280ED101200DF090FA0120E249087094
:1008F000E04800884FF6FA71884202DB3220DD4979
:1009000008800A20DD49088008460288DC49D94869
:1009100000880DF057FADB480078D0490870D848B5
:1009200000784870D64840788870D5488078C8707C
:10093000D348C0780871D24800794871D0484079CE
:100940008871CF488079C871CD48C0790872CC4889
:10095000007A4872CA48407A88720B20C1490870F0
:10096000C44800880A30C3490880084600880A2124
:1009700090FBF1F0C449098888420BDD3220BD4963
:1009800008800020C14908703220C1490880002039
:10099000C0490870B148B4490860012240F227718B
:1009A000B2480EF034FE10BD70B50025BA4800887C
:1009B000B5490880B3480078A849087003204870FA
:1009C00002208870B0480088000AC870AE480078DD
:1009D00008710521A148FFF711FD044620129F4927
:1009E00048718C7107209F4908709C489E49086097
:1009F000012240F227719D480EF009FE70BD2DE9DD
:100A0000F04104460F460020A4490870A44800782D
:100A100000283BD12078401E255C4FF6FF7000EA8D
:100A200005252078205C05432078C01E205C8C4979
:100A30000880084600884FF6FF7101EA00208849C7
:100A400008802078801E205C098808434FF6FF71DB
:100A500001EA40008249088008460088202801DD1C
:100A6000202008802078801EC1B2601CFFF7C6FCE1
:100A7000064606218B48FFF7C1FC06462078801EFB
:100A8000C1B2601CFFF7BAFC064600E02E46AE423B
:100A900038D18348007808BBA07801281BD00328F0
:100AA0001AD1022180480EF064FA6D4800880428AB
:100AB00002D1FFF7B1FD0DE069480088022809D195
:100AC000207910B9FFF775FE04E02079012801D1E3
:100AD000FFF713FE01E000E000BF16E0E07840B150
:100AE00010280DD1022170480EF043FAFFF7E0FE06
:100AF00007E002216C480EF03CFAFFF755FF00E0DA
:100B000000BF02E0002069490870BDE8F08110B51F
:100B100040F2244155480EF05FFE01280DD15348A4
:100B20000EF0DAFD40F2244150480EF07FFE012025
:100B30005F49087000205F49087040F225514B481A
:100B40000EF04AFE012814D148480EF0C5FD5A495E
:100B5000087040F2255145480EF068FE564800786E
:100B60005649544A1278885452480078401C5149DA
:100B7000087010BD70B586B000240226002500BFA5
:100B800004E0002003A90855601CC4B20A2CF8DB5D
:100B900040F225514A480EF01FFE30B348480EF08F
:100BA0009BFD4849087048480078F0B9084600782D
:100BB000232802D100204549087042480178434863
:100BC00002780078401C414B1870414881543D48E0
:100BD00000780A2809D118460078801E3C49085C34
:100BE0000D2802D1012038490870374800780128C3
:100BF0007CD100203449087035484078012876D1EE
:100C000034480088022805DB0DF030FE022126481A
:100C10000EF0B1F92E4880782F4908702C48C07822
:100C20002E4908702A4800792D49087028484079D3
:100C30002C4908702648C179807901EB00202A49A7
:100C400008802348C179807901EB00202049497947
:100C50001F4A1279CDE90021029049E09D0700204A
:100C6000440000209802002094020020004400402C
:100C7000690300204600002060000020640000207E
:100C800044060020C002002062000020680300200B
:100C90009403002067030020880200205D000020EC
:100CA0005F000020A1040020000801405C0000203B
:100CB0006C0200206D020020140000206C06002051
:100CC0000038014066020020670200206802002010
:100CD00058060020800200207802002079020020BF
:100CE0007A0200207B0200207C020020FEE00FE060
:100CF000A448C3788278A4A1AC4810F0B5FB0020CA
:100D0000AB490880AB490880AB490880AB49087003
:100D10009C48407802285AD123208DF80C000220EC
:100D20008DF80D000D208DF814000A208DF81500A7
:100D3000102427E09D48005D0D2800D124E09B4849
:100D4000005D2E281AD09948005D2C2816D0052E5B
:100D50000BDC9648005D03A9895D01EB810100EB86
:100D60004100303803A988550AE09048005D05EB42
:100D7000850100EB4100303885B201E0701CC6B23D
:100D8000601CC4B2292CD5DB00BF2846E91705EB4F
:100D90001161090A8DF81210E91705EB11610912AA
:100DA000A5EB0121C9B28DF8131000240DE003A8B2
:100DB000015D83480EF08CFC00BF802180480EF05E
:100DC000F5FC0028F9D0601CC4B20A2CEFDB6D489A
:100DD0004078032819D176480088022805DB0DF0F9
:100DE00045FD022177480EF0C6F86648C178807844
:100DF00001EB00207449086000206D4908806D49AE
:100E000008806D4908806D4908705E484078042864
:100E100026D123208DF80C0004208DF80D006A489F
:100E20000088000A8DF80E00674800788DF80F00E2
:100E30000D208DF810000A208DF8110000240DE01F
:100E400003A8015D5E480EF043FC00BF80215C48B2
:100E50000EF0ACFC0028F9D0601CC4B2062CEFDB0D
:100E60004848407805281ED151480088022801DBF7
:100E70000DF08FFD002406E04249A01C085C534998
:100E80000855601CC4B252480078001FA042F3DC31
:100E900000204E4908554F4B0A464FA1544810F0C8
:100EA000E3FA0DF052FD3748407806281ED140483D
:100EB0000088022801DB0DF06CFD002406E03149BA
:100EC000A01C085C43490855601CC4B24048007827
:100ED000001FA042F3DC00203E4908550B463B4A68
:100EE0003DA1434810F0C0FA0DF02FFD06B070BDD3
:100EF00010B501213F480FF01AFC002834D0012022
:100F00003D49087000213B480FF048F9002139485D
:100F10000FF0D8FB01203949087039480078394969
:100F2000087039480078D8B135480078042817DDB2
:100F300001203649087033480079222803D031480F
:100F4000C078102803D101203149087002E0002048
:100F50002F4908702F4801682F480068FFF74FFDA0
:100F6000012124480FF0F4FB10BD704700BFFEE7DD
:100F700000BFFEE700BFFEE700BFFEE77047704717
:100F8000704770475806002041542B534B54434F31
:100F90004E4E4543543D312C25642E25642E256448
:100FA0002E25642C25640D0A00000000730A002021
:100FB00080020020180400201A0400208202002071
:100FC0000038014000080140180000201C000020EB
:100FD000680200203000002041542B43574A415002
:100FE0003D222573222C222573220D0A00000000C9
:100FF0005D04002000080040480000204900002057
:101000004F000020A00400205D0000205C000020B4
:101010005F0000205800002054000020002100E064
:10102000491C8142FCD3704710B5642910D230228C
:1010300002700A22B1FBF2F2303242702E2242706C
:101040000A22B1FBF2F302FB13123032827021E06C
:1010500064291FD3B1F57A7F1CD26422B1FBF2F26E
:10106000303202706422B1FBF2F302FB13120A2346
:10107000B2FBF3F2303242702E2282706422B1FB56
:10108000F2F302FB13120A23B2FBF3F403FB142264
:101090003032C27010BD3EB50C24FB4804800120E4
:1010A0000CF0B3FE2246F94900200CF08BFE6420C0
:1010B0000DF053FDF54880790104F448C07901EB47
:1010C0000031F248007A01EB0020F049497A0844E7
:1010D000EF490860ED484179007901EB0020EB49C8
:1010E000C978EA4A9278CDE900210290E74843782E
:1010F0000278E8A1F04810F0B7F9E548006842F23C
:101100001071B0FBF1F03030EC490870E048006835
:1011100042F21071B0FBF1F201FB12004FF47A7150
:10112000B0FBF1F03030E5494870D94800684FF421
:101130007A71B0FBF1F201FB12006421B0FBF1F017
:101140003030DE498870D24800686421B0FBF1F28B
:1011500001FB12000A21B0FBF1F03030D749C87012
:10116000CB4800680A21B0FBF1F201FB12003030DD
:10117000D2490871C548C17A807A01EB0020D04974
:1011800008603EBD10B5C0480480CE480078CE4906
:101190000870CE4800784870CD4800788870CD48F7
:1011A0000078C870CC490888C11700EB1161090AA2
:1011B000C54A1171C8490888C11700EB11610912AD
:1011C000A0EB01215171B2480068000C11468871F2
:1011D000AF480088C0F30330C871AD480088C0F341
:1011E00003200872AA4800784872B5480088000AAF
:1011F0008872B3480078C8720C2401200CF005FEF8
:101200002246B14900200CF0EEFD64200DF0A5FC53
:1012100010BD10B532249C48048000200CF0F5FD70
:1012200022469A4900200CF0CDFD64200DF095FC7B
:1012300096480078A949087094484078A849086001
:10124000A848096850F82100A74908608F488078AD
:10125000A64908608D48C078A5490860084600681E
:10126000502804DD08460068A0F5807008608748B3
:101270000079A049086008460068502804DD084647
:101280000068A0F580700860804840799A4908603D
:101290007E488079994908607C48C07998490860FF
:1012A0007A48007A974908607848407A96490860F9
:1012B0007648807A954908607448C07A94490860F5
:1012C0007248007B934908607048407B92490860EF
:1012D0006E48807B914908606C48C07B90490880CB
:1012E0006A48007C097800EB01208D490880674836
:1012F000407C8C4908706548807C8B490860634855
:10130000C07C8A4908606148007D894908600846B8
:101310000068502804DD08460068A0F58070086069
:101320005A48407D8349086008460068502804DD1B
:1013300008460068A0F5807008605448807D7E49AA
:1013400008605248C07D7D4908605048007E7C4955
:10135000086008460068642804DD08460068A0F5B7
:10136000807008604948407E7649086008460068F9
:10137000642804DD08460068A0F5807008604348D2
:10138000807E18B14148807EFF2812D13F48C07E40
:1013900018B13E48C07EFF280BD13C48007F18B1F1
:1013A0003A48007FFF2804D14FF4C87066490860AE
:1013B00011E03648807E3549C97E01EB810100EBA2
:1013C00041003249097F01EBC10202EB011100EB40
:1013D00081005D4908602D48407F18B12B48407F4F
:1013E000FF281BD12948807F18B12848807FFF281B
:1013F00014D12648C07F18B12448C07FFF280DD1E2
:10140000224890F8200020B1204890F82000FF28C2
:1014100004D14FF4FA604D49086014E01B48407F46
:101420001A49897F0A2202FB01001849C97F6422F8
:1014300002FB0100154991F820104FF47A7202FB6B
:10144000010042490860114890F8210020B10F487E
:1014500090F82100FF287DD10C4890F8220020B19F
:101460000A4890F82200FF2874D1084890F8230019
:1014700020B1064890F82300FF286BD14FF4C870C4
:101480003349086077E065E064030020010800202C
:101490007402002041542B534B54434F4E4E45434E
:1014A000543D312C25642E25642E25642E25642C74
:1014B00025640D0A00000000730A00206E0200205F
:1014C0001800002078020020CF07002079020020B9
:1014D0007A0200207B0200207C020020C002002053
:1014E000C8020020CC020020C4020020E00200203C
:1014F000E4020020E8020020F4020020F8020020AC
:10150000FC02002000030020040300200803002048
:101510000C030020100300201403002018030020F7
:101520009403002067030020240300202C030020E4
:10153000340300203C030020440300204C0300201F
:10154000540300205C030020B8030020BC030020EB
:10155000C0030020FE4890F82100FD4991F82210B8
:101560000A2202FB0100FA4991F82310642202FBCF
:101570000100F8490860F64890F8240020B1F448CA
:1015800090F82400FF281FD1F14890F8250020B1E1
:10159000EF4890F82500FF2816D1ED4890F8260076
:1015A00020B1EB4890F82600FF280DD1E84890F8CC
:1015B000270020B1E64890F82700FF2804D14FF417
:1015C000FA60E549086017E0E14890F82400E04936
:1015D00091F825100A2202FB0100DD4991F826103E
:1015E000642202FB0100DA4991F827104FF47A7265
:1015F00002FB0100D8490860D54890F8280020B1C6
:10160000D34890F82800FF281FD1D14890F829002E
:1016100020B1CF4890F82900FF2816D1CC4890F887
:101620002A0020B1CA4890F82A00FF280DD1C848E6
:1016300090F82B0020B1C64890F82B00FF2804D169
:101640004FF4FA60C549086017E0C14890F82800D7
:10165000BF4991F829100A2202FB0100BC4991F808
:101660002A10642202FB0100B94991F82B104FF4B3
:101670007A7202FB0100B9490860B54890F82C0065
:1016800020B1B34890F82C00FF281FD1B04890F843
:101690002D0020B1AE4890F82D00FF2816D1AC489F
:1016A00090F82E0020B1AA4890F82E00FF280DD106
:1016B000A74890F82F0020B1A54890F82F00FF28E8
:1016C00004D14FF4FA60A649086017E0A04890F8EA
:1016D0002C009F4991F82D100A2202FB01009C4921
:1016E00091F82E10642202FB0100994991F82F1005
:1016F0004FF47A7202FB01009949086010BD10B5E1
:10170000984804809848007898490870984800786C
:10171000487098480078887097480078C870974853
:10172000007808719648007848719648007888716A
:1017300095480078C87195480078087294480078F8
:10174000487294480078887293480078C872934829
:10175000007808739248007848739248007888733C
:1017600091480088000AC8738F48007808748F4831
:10177000007848748E48007888748E480078C87461
:101780008D48007808758D48007848758C48007839
:1017900088758C480078C8758B48007808768B4827
:1017A000007848768A480068642190FBF1F201FBDA
:1017B00012000A2190FBF1F201FB12006B498876BE
:1017C00083480068642190FBF1F201FB12000A21BA
:1017D00090FBF1F06549C8767D480068642190FB74
:1017E000F1F0624908777B4800684FF47A7190FB0A
:1017F000F1F201FB1200642190FBF1F201FB1200F7
:101800000A2190FBF1F201FB120058494877714818
:1018100000684FF47A7190FBF1F201FB1200642131
:1018200090FBF1F201FB12000A2190FBF1F04F490D
:101830008877684800684FF47A7190FBF1F201FBF9
:101840001200642190FBF1F04849C87761480068B4
:101850004FF47A7190FBF1F0444981F820003D4843
:101860000068642190FBF1F201FB12000A2190FB59
:10187000F1F201FB12003D4981F821003548006872
:10188000642190FBF1F201FB12000A2190FBF1F0C0
:10189000364981F822002F480068642190FBF1F05E
:1018A000324981F823002C4800684FF47A7190FB8C
:1018B000F1F201FB1200642190FBF1F201FB120036
:1018C0000A2190FBF1F201FB1200284981F8240063
:1018D000214800684FF47A7190FBF1F201FB12008D
:1018E000642190FBF1F201FB12000A2190FBF1F060
:1018F0001E4981F82500184800684FF47A7190FB62
:10190000F1F201FB1200642190FBF1F0174981F81C
:101910002600114800684FF47A7190FBF1F01349EA
:1019200081F827000D4800684FF47A7190FBF1F2BE
:1019300001FB1200642190FBF1F201FB12000A216D
:1019400090FBF1F201FB1200084981F8280043E006
:1019500001080020C0030020C4030020C8030020A9
:10196000CC03002064030020C0020020CF07002029
:10197000C8020020E0020020E4020020E80200206B
:10198000F4020020F8020020FC02002000030020E6
:1019900004030020080300200C0300201003002093
:1019A0001403002018030020940300206703002084
:1019B000240300202C030020340300203C030020DB
:1019C000440300204C030020540300205C0300204B
:1019D000B8030020BC030020FE4800684FF47A7171
:1019E00090FBF1F201FB1200642190FBF1F201FB8C
:1019F00012000A2190FBF1F0F74981F82900F5481F
:101A000000684FF47A7190FBF1F201FB120064213F
:101A100090FBF1F0F04981F82A00EE4800684FF49D
:101A20007A7190FBF1F0EC4981F82B00EB480068EB
:101A30004FF47A7190FBF1F201FB1200642190FBEC
:101A4000F1F201FB12000A2190FBF1F201FB1200FE
:101A5000E14981F82C00E14800684FF47A7190FB6D
:101A6000F1F201FB1200642190FBF1F201FB120084
:101A70000A2190FBF1F0D84981F82D00D748006881
:101A80004FF47A7190FBF1F201FB1200642190FB9C
:101A9000F1F0D14981F82E00D04800684FF47A71F6
:101AA00090FBF1F0CC4981F82F00322400200CF09B
:101AB000ACF92246C84900200CF095F964200DF0DD
:101AC0004CF810BD08B5012114200DF061FC4FF455
:101AD0008060ADF8000010208DF8030003208DF821
:101AE00002006946BE480DF097F94FF48061BC488A
:101AF0000DF03FFA0220ADF8000010208DF8030031
:101B000003208DF802006946B6480DF085F90221E0
:101B1000B4480DF02EFA2020ADF800006946B14817
:101B20000DF07AF92021AF480DF025FA1020ADF81C
:101B300000006946AB480DF06FF91021A9480DF07F
:101B400018FA08BD08B5012104200DF021FC402041
:101B5000ADF8000010208DF8030003208DF802007E
:101B60006946A0480DF058F908BD10B5044640215B
:101B70009C480DF0FEF9A0B20CF0EFFF402199480F
:101B80000DF0F9F910BD03B583B003981A2882F05F
:101B90000184DFE810F01A001C00DB00D2014F02C4
:101BA0007803D0097B045105B00ADC0FE610150656
:101BB0007006EB0683070A08B9087109930BAE0C8F
:101BC000D50DD20EFA11A113E91302F0E3BB0AF00E
:101BD0004AFB002108460AF0A8F801220821022049
:101BE0000AF048F8012102200AF087F801210420B8
:101BF0000AF083F80AF0F8FA7B480078642190FB39
:101C0000F1F201FB12000A2190FBF1F201FB12003C
:101C1000C0B2014602901A200AF09DF8724800787E
:101C2000642190FBF1F201FB12000A2190FBF1F01C
:101C3000C0B2014602901C200AF08DF86A48007874
:101C4000642190FBF1F0C0B2014602901E200AF020
:101C500082F8049810B1012876D13AE06248007801
:101C6000401E6149087008460078012801DAFE200C
:101C700008700AF0B9FA5C480078642190FBF1F230
:101C800001FB12000A2190FBF1F201FB1200C0B22D
:101C9000014602901A200AF05EF853480078642149
:101CA00090FBF1F201FB12000A2190FBF1F0C0B2AF
:101CB000014602901C200AF04EF84B48007864213F
:101CC00090FBF1F0C0B2014602901E200AF043F8EA
:101CD0003AE045480078401C4349087008460078BF
:101CE000FE2801DD012008700AF07EFA3E480078E7
:101CF000642190FBF1F201FB12000A2190FBF1F24A
:101D000001FB1200C0B2014602901A200AF023F82B
:101D100035480078642190FBF1F201FB12000A21A2
:101D200090FBF1F0C0B2014602901C200AF013F8BB
:101D30002D480078642190FBF1F0C0B2014602907A
:101D40001E200AF008F800BF00BF3EE70AF08BFA39
:101D50000221002009F0E9FF01220821022009F0F8
:101D600089FF01220821022009F0C2FE0121022080
:101D700009F0DBFF0221042009F0BFFF0AF034FA6A
:101D80001A481B49096850F821001A49086008469A
:101D90000068642190FBF1F00A2190FBF1F201FB55
:101DA0001200C0B2014602901A2009F0D4FF114877
:101DB0000068642190FBF1F00A2190FBF1F090FBA8
:101DC000F1F201FB1200C0B2014602901C2009F0A2
:101DD000C2FF11E0C8030020CF070020CC03002081
:101DE0000010014000080140C0020020CC02002089
:101DF000C8020020C4020020F748006842F21071B7
:101E000090FBF1F0C0B2014602901E2009F0A3FF42
:101E1000049810B1012846D146E0F0480068401E01
:101E2000EE49086008460068002801DA04200860CE
:101E3000EB48EA49096850F82100E749086008467C
:101E400000680CF0C6FE0AF0CFF9E3480068642190
:101E500090FBF1F00A2190FBF1F201FB1200C0B2FD
:101E6000014602901A2009F076FFDB4800686421E1
:101E700090FBF1F00A2190FBF1F090FBF1F201FBF5
:101E80001200C0B2014602901C2009F064FFD24843
:101E9000006842F2107190FBF1F0C0B2014602906E
:101EA0001E2009F058FF46E0CC480068401CCB4992
:101EB000086008460068042801DD00200860C84862
:101EC000C649096850F82100C349086008460068FF
:101ED0000CF07FFE0AF088F9BF480068642190FB8F
:101EE000F1F00A2190FBF1F201FB1200C0B20146B1
:101EF00002901A2009F02FFFB7480068642190FB78
:101F0000F1F00A2190FBF1F090FBF1F201FB1200DD
:101F1000C0B2014602901C2009F01DFFAE480068C7
:101F200042F2107190FBF1F0C0B2014602901E2007
:101F300009F011FF00BF00BF47E60AF094F908213D
:101F4000002009F0F2FE01220821022009F092FE91
:101F50000721022009F0E9FE0321042009F0CDFE4B
:101F6000A048006801280AD10AF03EF90A211A2087
:101F700009F007FF00211C2009F0EDFE0DE00AF03A
:101F800033F905211A2009F0FCFE05211C2009F077
:101F9000F8FE00211E2009F0DEFE049810B1012891
:101FA00046D122E08F48006868B901208D49086059
:101FB0000AF01AF90A211A2009F0E3FE00211C2078
:101FC00009F0C9FE10E00020864908600AF00CF90B
:101FD00005211A2009F0D5FE05211C2009F0D1FEAB
:101FE00000211E2009F0B7FE22E07E48006868B993
:101FF00001207C4908600AF0F7F80A211A2009F04C
:10200000C0FE00211C2009F0A6FE10E0002075494A
:1020100008600AF0E9F805211A2009F0B2FE05214E
:102020001C2009F0AEFE00211E2009F094FE00BF26
:1020300000BFCAE50AF017F90B21002009F075FE70
:1020400001220821022009F015FE0321022009F0D7
:102050006CFE0421084609F050FE0121172009F00A
:10206000CEFE0AF0C1F86048006800280ADA0122B2
:102070000821072009F0FEFD5B48006840425B49EB
:10208000086008E0584800685849086000220821A4
:10209000072009F0EFFD00211A2009F05CFE012263
:1020A00011461C2009F0E6FD504800680A2190FB0B
:1020B000F1F201FB1200C0B2014602901C2009F0AF
:1020C00086FE4A4800680A2190FBF1F0C0B2014642
:1020D00002901E2009F03FFE049810B101287AD129
:1020E00088E0434800684049096888422BDB0AF0D1
:1020F0007BF83D48006800280ADA01220821072001
:1021000009F0B8FD3848006840423849086008E0E6
:10211000354800683549086000220821072009F089
:10212000A9FD00220821072009F0A4FD08211A209A
:1021300009F027FE08211C2009F023FE06211E209D
:1021400009F01FFE47E028480068401E2649086045
:102150000846006810F1280F02DA6FF027000860C7
:102160000AF042F82048006800280ADA0122082113
:10217000072009F07FFD1C48006840421B490860A9
:1021800008E0194800681949086000220821072062
:1021900009F070FD00211A2009F0DDFD0122114631
:1021A0001C2009F067FD114800680A2190FBF1F23C
:1021B00001FB1200C0B2014602901C2009F007FE8C
:1021C0000A4800680A2190FBF1F0C0B20146029073
:1021D0001E2009F0C0FD54E0C4020020C802002007
:1021E000CC020020E0020020E4020020F0020020E7
:1021F000E8020020FE480068401CFD4908600846CF
:102200000068502801DD5020086009F0EDFFF84813
:10221000006800280ADA01220821072009F02AFDB7
:10222000F34800684042F349086008E0F04800685D
:10223000F049086000220821072009F01BFD002159
:102240001A2009F088FD012211461C2009F012FD18
:10225000E84800680A2190FBF1F201FB1200C0B2CD
:10226000014602901C2009F0B2FDE24800680A21F4
:1022700090FBF1F0C0B2014602901E2009F06BFD08
:1022800000BF00BFA1E409F0EEFF0421002009F027
:102290004CFD01220821022009F0ECFC0321022060
:1022A00009F043FD0421084609F027FD012117200C
:1022B00009F0A5FD09F098FFCF48006800280ADA68
:1022C00001220821072009F0D5FCCB4800684042D4
:1022D000CA49086008E0C8480068C8490860002288
:1022E0000821072009F0C6FC00211A2009F033FD5F
:1022F000012211461C2009F0BDFCC04800680A21DB
:1023000090FBF1F201FB1200C0B2014602901C20CA
:1023100009F05DFDB94800680A2190FBF1F0C0B2F8
:10232000014602901E2009F016FD049810B1012804
:1023300048D148E0B0480068401EAF4908600846F0
:10234000006810F1280F02DA6FF02700086009F02A
:102350004BFFA948006800280ADA0122082107205B
:1023600009F088FCA44800684042A449086008E0DD
:10237000A1480068A149086000220821072009F04F
:1023800079FC00211A2009F0E6FC012211461C20EC
:1023900009F070FC994800680A2190FBF1F201FBFA
:1023A0001200C0B2014602901C2009F010FD9348B3
:1023B00000680A2190FBF1F0C0B2014602901E2095
:1023C00009F0C9FC60E08C480068894909688842C6
:1023D00013DB09F009FF00220821072009F04AFC5D
:1023E00008211A2009F0CDFC08211C2009F0C9FCA5
:1023F00006211E2009F0C5FC45E07F480068401C0E
:102400007D49086008460068502801DD50200860BA
:1024100009F0EAFE7848006800280ADA012208215B
:10242000072009F027FC744800684042734908609F
:1024300008E07148006871490860002208210720FF
:1024400009F018FC00211A2009F085FC0122114630
:102450001C2009F00FFC694800680A2190FBF1F28A
:1024600001FB1200C0B2014602901C2009F0AFFC33
:10247000624800680A2190FBF1F0C0B20146029068
:102480001E2009F068FC00BF00BF5EE400220821A6
:10249000072009F0EFFB09F0E6FE0B21002009F010
:1024A00044FC01220821022009F0E4FB0B21022058
:1024B00009F03BFC0421084609F01FFC09F094FEDA
:1024C00000220821072009F0D5FB00211A2009F07D
:1024D0007EFC012211461C2009F0CCFB4848006814
:1024E0000A2190FBF1F201FB1200C0B201460290FA
:1024F0001C2009F06CFC424800680A2190FBF1F0B6
:10250000C0B2014602901E2009F025FC049810B1CB
:1025100001284DD14DE03A4800683A49096888429F
:1025200013DC09F061FE00220821072009F0A2FB5C
:1025300008211A2009F025FC08211C2009F021FCA3
:1025400006211E2009F01DFC32E02D480068401EC7
:102550002B49086008460068002801DA012008605D
:1025600009F042FE00220821072009F083FB002128
:102570001A2009F02CFC012211461C2009F07AFBDC
:102580001F4800680A2190FBF1F201FB1200C0B263
:10259000014602901C2009F01AFC194800680A2123
:1025A00090FBF1F0C0B2014602901E2009F0D3FB6F
:1025B00040E013480068401C114908600846006864
:1025C000632801DD6320086009F00EFE0022082167
:1025D000072009F04FFB00211A2009F0F8FB012227
:1025E00011461C2009F046FB054800680A210BE053
:1025F000E4020020F0020020E8020020EC020020AB
:10260000F4020020F802002090FBF1F201FB12001E
:10261000C0B2014602901C2009F0D9FBFE480068B8
:102620000A2190FBF1F0C0B2014602901E2009F091
:1026300092FB00BF00BF7FE409F015FE04210020DB
:1026400009F073FB01220821022009F013FB0B2182
:10265000022009F06AFB0421084609F04EFB09F04C
:10266000C3FD00220821072009F004FB00211A20E5
:1026700009F0ADFB012211461C2009F0FBFAE748E6
:1026800000680A2190FBF1F201FB1200C0B2014682
:1026900002901C2009F09BFBE04800680A2190FB97
:1026A000F1F0C0B2014602901E2009F054FB0498DC
:1026B00010B1012833D133E0D8480068401ED74913
:1026C000086008460068002801DA0020086009F068
:1026D0008BFD00220821072009F0CCFA00211A20E6
:1026E00009F075FB012211461C2009F0C3FACB4802
:1026F00000680A2190FBF1F201FB1200C0B2014612
:1027000002901C2009F063FBC44800680A2190FB7A
:10271000F1F0C0B2014602901E2009F01CFB4DE012
:10272000BD480068BD490968884213DC09F05CFDBA
:1027300000220821072009F09DFA08211A2009F03B
:1027400020FB08211C2009F01CFB06211E2009F09B
:1027500018FB32E0B1480068401CB04908600846E8
:102760000068632801DD6320086009F03DFD002258
:102770000821072009F07EFA00211A2009F027FB22
:10278000012211461C2009F075FAA44800680A21AC
:1027900090FBF1F201FB1200C0B2014602901C2036
:1027A00009F015FB9D4800680A2190FBF1F0C0B2CA
:1027B000014602901E2009F0CEFA00BF00BF38E4A7
:1027C00009F051FD0521002009F0AFFA012208218E
:1027D000022009F04FFA0321022009F0A6FA06218F
:1027E000042009F08AFA0121172009F008FB09F0FA
:1027F000FBFC8B480068012804D105211C2009F04E
:10280000C0FA03E003211C2009F0BBFA049810B1C0
:1028100001282ED116E08248006848B9012080497D
:10282000086009F0E1FC05211C2009F0AAFA08E083
:1028300000207B49086009F0D7FC03211C2009F027
:10284000A0FA16E07648006848B90120744908608B
:1028500009F0CAFC05211C2009F093FA08E00020C9
:102860006F49086009F0C0FC03211C2009F089FAB7
:1028700000BF00BF06E509F0F6FC0821002009F0C2
:1028800054FA01220821022009F0F4F9052102205E
:1028900009F04BFA0721042009F02FFA09F0A4FCF3
:1028A00060480068012808D10A211A2009F069FA55
:1028B00000211C2009F04FFA0BE005211A2009F035
:1028C00060FA05211C2009F05CFA00211E2009F0A5
:1028D00042FA049810B1012846D122E0514800681C
:1028E00068B901204F49086009F07EFC0A211A20CE
:1028F00009F047FA00211C2009F02DFA10E0002011
:102900004849086009F070FC05211A2009F039FADD
:1029100005211C2009F035FA00211E2009F01BFAC0
:1029200022E04048006868B901203E49086009F08B
:102930005BFC0A211A2009F024FA00211C2009F06E
:102940000AFA10E000203749086009F04DFC052123
:102950001A2009F016FA05211C2009F012FA0021AC
:102960001E2009F0F8F900BF00BF8BE409F07BFCE2
:102970000121002009F0C1F901220821022009F0FB
:1029800079F90321022009F0D0F90821042009F087
:10299000B4F909F029FC2448006838B90A211A2042
:1029A00009F0EFF900211C2009F0D5F91E48006854
:1029B00001280BD105211A2009F0E3F905211C207B
:1029C00009F0DFF900211E2009F0C5F9049810B1C3
:1029D000012861D135E014480068401E12490860A2
:1029E00008460068002801DA012008600E480068E7
:1029F00048B909F0F9FB0A211A2009F0C2F90021AF
:102A00001C2009F0A8F908480068012818D109F02D
:102A1000EBFB05211A2009E0F4020020F802002057
:102A2000FC020020000300200403002009F0A9F9A3
:102A300005211C2009F0A5F900211E2009F08BF9C1
:102A40002AE0FE480068401CFC490860084600680F
:102A5000012801DD00200860F848006848B909F045
:102A6000C3FB0A211A2009F08CF900211C2009F06F
:102A700072F9F248006801280DD109F0B5FB052173
:102A80001A2009F07EF905211C2009F07AF90021AD
:102A90001E2009F060F900BF00BFF6E409F0E3FB77
:102AA0000221002009F029F901220821022009F061
:102AB000E1F80321022009F038F90821042009F087
:102AC0001CF909F091FBDE48006801280CD10321B4
:102AD0001A2009F056F909211C2009F052F90321A6
:102AE0001E2009F04EF90BE000211A2009F049F9E7
:102AF00008211C2009F045F900211E2009F02BF9BE
:102B0000049810B101284ED126E0CD48006888B95C
:102B10000120CB49086009F067FB03211A2009F066
:102B200030F909211C2009F02CF903211E2009F09D
:102B300028F910E00020C249086009F055FB002187
:102B40001A2009F01EF908211C2009F01AF90021A9
:102B50001E2009F000F926E0B948006888B9012074
:102B6000B749086009F040FB03211A2009F009F970
:102B700009211C2009F005F903211E2009F001F9A3
:102B800010E00020AE49086009F02EFB00211A2059
:102B900009F0F7F808211C2009F0F3F800211E20A5
:102BA00009F0D9F800BF00BF6FE409F05CFB032116
:102BB000002009F0A2F801220821022009F05AF8A9
:102BC0000321022009F0B1F80821042009F095F84A
:102BD00009F00AFB9B4800680A2190FBF1F201FB17
:102BE0001200C0B2014602901A2009F0B4F89548CC
:102BF00000680A2190FBF1F090FBF1F201FB12005A
:102C0000C0B2014602901C2009F0A5F88D4800686A
:102C1000642190FBF1F0C0B2014602901E2009F041
:102C20009AF8049810B101286CD135E08548006805
:102C3000401E8449086008460068012802DA4FF403
:102C40001670086009F0D0FA7E4800680A2190FBEF
:102C5000F1F201FB1200C0B2014602901A2009F005
:102C60007AF8784800680A2190FBF1F090FBF1F2C5
:102C700001FB1200C0B2014602901C2009F06BF863
:102C800070480068642190FBF1F0C0B201460290E8
:102C90001E2009F060F835E06A480068401C694968
:102CA000086008460068B0F5167F01DD0120086065
:102CB00009F09AFA634800680A2190FBF1F201FBDF
:102CC0001200C0B2014602901A2009F044F85D4893
:102CD00000680A2190FBF1F090FBF1F201FB120079
:102CE000C0B2014602901C2009F035F85548006832
:102CF000642190FBF1F0C0B2014602901E2009F061
:102D00002AF800BF00BF96E409F0ADFA04210020C4
:102D100008F0F3FF01220821022008F0ABFF032195
:102D2000022009F002F80821042008F0E6FF09F06B
:102D30005BFA454800680A2190FBF1F201FB1200A2
:102D4000C0B2014602901A2009F005F83E4800681A
:102D50000A2190FBF1F090FBF1F201FB1200C0B2EE
:102D6000014602901C2008F0F6FF374800686421F5
:102D700090FBF1F0C0B2014602901E2008F0EBFF7C
:102D8000049810B1012875D135E02F480068401E25
:102D90002D49086008460068012802DA4FF41670D1
:102DA000086009F021FA284800680A2190FBF1F236
:102DB00001FB1200C0B2014602901A2008F0CBFFBE
:102DC000214800680A2190FBF1F090FBF1F201FB31
:102DD0001200C0B2014602901C2008F0BCFF1A4845
:102DE0000068642190FBF1F0C0B2014602901E2001
:102DF00008F0B1FF3EE014480068401C124908602A
:102E000008460068B0F5167F01DD0120086009F072
:102E1000EBF90D4800680A2190FBF1F201FB12006A
:102E2000C0B2014602901A2008F095FF06480068DB
:102E30000A2190FBF1F090FBF1F207E0040300207F
:102E4000080300200C0300201003002001FB1200E7
:102E5000C0B2014602901C2008F07DFFFE480068C9
:102E6000642190FBF1F0C0B2014602901E2008F0F0
:102E700072FF00BF00BFA2E409F0F5F905210020B0
:102E800008F03BFF01220821022008F0F3FE032195
:102E9000022008F04AFF0821042008F02EFF09F064
:102EA000A3F9EE4800680A2190FBF1F201FB120041
:102EB000C0B2014602901A2008F04DFF049810B1EC
:102EC000012836D11AE0E5480068401EE349086051
:102ED00008460068002801DA0120086009F084F93A
:102EE000DE4800680A2190FBF1F201FB1200C0B23B
:102EF000014602901A2008F02EFF1AE0D748006819
:102F0000401CD649086008460068012801DD002001
:102F1000086009F069F9D14800680A2190FBF1F2D4
:102F200001FB1200C0B2014602901A2008F013FF04
:102F300000BF00BF43E409F096F9002208210720F2
:102F400008F098FE002208210A2008F093FE0021D4
:102F5000084608F0EAFE01220821022008F08AFE55
:102F60000321022008F0E1FE0421084608F0C5FE16
:102F70000121172008F043FF09F036F9B84800682E
:102F80000A2190FBF1F201FB1200C0B2014602904F
:102F90001A2008F0E0FE012211461C2008F06AFE0B
:102FA000AF4800680A2190FBF1F090FBF1F201FBC1
:102FB0001200C0B2014602901C2008F008FFA84889
:102FC0000068642190FBF1F0C0B2014602901E201F
:102FD00008F0C1FE049810B1012839D139E0A048A9
:102FE0000068401E9E49086008460068002801DA13
:102FF0000020086009F0F8F8994800680A2190FB61
:10300000F1F201FB1200C0B2014602901A2008F052
:10301000A2FE012211461C2008F02CFE90480068F8
:103020000A2190FBF1F090FBF1F201FB1200C0B21B
:10303000014602901C2008F0CAFE894800686421FD
:1030400090FBF1F0C0B2014602901E2008F083FE12
:103050004FE083480068401C81490860814800684F
:1030600081490968401A032190FBF1F000EB8000D0
:103070007B490968B1EB400F0CDD7A4800687A495A
:103080000968401A032190FBF1F000EB800040003A
:103090007349086009F0A8F8714800680A2190FB9C
:1030A000F1F201FB1200C0B2014602901A2008F0B2
:1030B00052FE012211461C2008F0DCFD6848006821
:1030C0000A2190FBF1F090FBF1F201FB1200C0B27B
:1030D000014602901C2008F07AFE614800686421D5
:1030E00090FBF1F0C0B2014602901E2008F033FEC2
:1030F00000BF00BF39E409F0B6F80021084608F027
:1031000014FE01220821022008F0B4FD0B21022048
:1031100008F00BFE0421084608F0EFFD5348006854
:103120000A2190FBF1F201FB1200C0B2024601211C
:1031300002901C2008F09EFD09F056F800211A208C
:1031400008F045FE494800680A2190FBF1F090FB29
:10315000F1F201FB1200C0B2014602901C2008F0FF
:1031600036FE42480068642190FBF1F0C0B201468F
:1031700002901E2008F0EFFD049810B1012839D10B
:1031800039E03A480068401E38490860084600683F
:10319000002801DA0020086009F026F833480068AA
:1031A0000A2190FBF1F201FB1200C0B2014602902D
:1031B0001A2008F00CFE012211461C2008F05AFDCE
:1031C0002A4800680A2190FBF1F090FBF1F201FB24
:1031D0001200C0B2014602901C2008F0F8FD2348FE
:1031E0000068642190FBF1F0C0B2014602901E20FD
:1031F00008F0B1FD60E01D480068401C1B490860F4
:103200001B4800681B490968401A032190FBF1F034
:1032100000EB800015490968B1EB400F0CDD144844
:10322000006814490968401A032190FBF1F000EB93
:10323000800040000D49086008F0D6FF0B48006888
:103240000A2190FBF1F201FB1200C0B2014602908C
:103250001A2008F0BCFD0FE010030020200300201E
:1032600024030020E4020020E80200202C030020B8
:10327000F4020020F8020020012211461C2008F070
:10328000F9FCFE4800680A2190FBF1F090FBF1F296
:1032900001FB1200C0B2014602901C2008F097FD0D
:1032A000F6480068642190FBF1F0C0B2014602903C
:1032B0001E2008F050FD00BF00BF75E408F0D3FFEA
:1032C0000021084608F019FD01220821022008F01B
:1032D000D1FC0321022008F028FD0721042008F07A
:1032E00024FD0121172008F08AFD08F07DFFE44845
:1032F000006800280ADA01220821072008F0BAFC39
:10330000DF4800684042DF49086008E0DC480068A8
:10331000DC49086000220821072008F0ABFC0021EE
:103320001A2008F018FD012211461C2008F0A2FC0A
:10333000D44800680A2190FBF1F201FB1200C0B2F0
:10334000014602901C2008F042FDCE4800680A2188
:1033500090FBF1F0C0B2014602901E2008F0FBFC89
:10336000049810B1012848D148E0C5480068401EC3
:10337000C34908600846006810F1280F02DA6FF0B0
:103380002700086008F030FFBD48006800280ADA0E
:1033900001220821072008F06DFCB948006840426E
:1033A000B849086008E0B6480068B64908600022DD
:1033B0000821072008F05EFC00211A2008F0CBFC51
:1033C000012211461C2008F055FCAE4800680A2175
:1033D00090FBF1F201FB1200C0B2014602901C20EA
:1033E00008F0F5FCA74800680A2190FBF1F0C0B294
:1033F000014602901E2008F0AEFC78E0A04800686C
:10340000A149096888422BDB08F0EEFE9C48006861
:1034100000280ADA01220821072008F02BFC98482E
:10342000006840429749086008E09548006895495F
:10343000086000220821072008F01CFC0022082157
:10344000072008F017FC08211A2008F09AFC082130
:103450001C2008F096FC06211E2008F092FC45E096
:1034600087480068401C8649086008460068502864
:1034700001DD5020086008F0B7FE81480068002890
:103480000ADA01220821072008F0F4FB7C480068D2
:1034900040427C49086008E0794800687949086042
:1034A00000220821072008F0E5FB00211A2008F07F
:1034B00052FC012211461C2008F0DCFB7148006818
:1034C0000A2190FBF1F201FB1200C0B2014602900A
:1034D0001C2008F07CFC6B4800680A2190FBF1F08E
:1034E000C0B2014602901E2008F035FC00BF00BFAC
:1034F00009E408F0B8FE0121002008F0FEFB0122DB
:103500000821022008F0B6FB0321022008F00DFC80
:103510000721042008F009FC0121172008F06FFCA6
:1035200008F062FE5848006800280ADA01220821E3
:10353000072008F09FFB5448006840425349086048
:1035400008E051480068514908600022082107201E
:1035500008F090FB00211A2008F0FDFB0122114623
:103560001C2008F087FB494800680A2190FBF1F213
:1035700001FB1200C0B2014602901C2008F027FC9B
:10358000424800680A2190FBF1F0C0B20146029067
:103590001E2008F0E0FB049810B1012878D186E0E5
:1035A000374800683849096888422BDB08F01CFE60
:1035B0003548006800280ADA01220821072008F0AF
:1035C00059FB3148006840423049086008E02E4805
:1035D00000682E49086000220821072008F04AFBF5
:1035E00000220821072008F045FB08211A2008F0D6
:1035F000C8FB08211C2008F0C4FB06211E2008F08F
:10360000C0FB53E020480068401E1F490860084680
:10361000006810F1280F02DA6FF02700086008F048
:10362000E3FD1948006800280ADA01220821072072
:1036300008F020FB1448006840421449086008E084
:10364000114800681149086000220821072008F08D
:1036500011FB00211A2008F07EFB012211461C20DC
:1036600008F008FB094800680A2190FBF1F201FB11
:103670001200C0B2014602901C200AE02C03002078
:1036800034030020380300203C03002040030020C6
:1036900054E008F09CFBFE4800680A2190FBF1F022
:1036A000C0B2014602901E2008F055FB46E0F948E2
:1036B0000068401CF749086008460068502801DD92
:1036C0005020086008F090FDF248006800280ADAEF
:1036D00001220821072008F0CDFAEE480068404298
:1036E000EB49086008E0EB480068E94908600022FF
:1036F0000821072008F0BEFA00211A2008F02BFB51
:10370000012211461C2008F0B5FAE14800680A21A0
:1037100090FBF1F201FB1200C0B2014602901C20A6
:1037200008F055FBDA4800680A2190FBF1F0C0B2BE
:10373000014602901E2008F00EFB00BF00BFD9E436
:1037400008F091FD0021084608F0D7FA012208216F
:10375000022008F08FFA0B21022008F0E6FA072178
:10376000042008F0E2FA08F03FFDCB48006800288A
:103770000ADA01220821072008F07CFAC64800680E
:103780004042C649086008E0C3480068C349086071
:1037900000220821072008F06DFA00211A2008F005
:1037A00016FB012211461C2008F064FABB48006891
:1037B0000A2190FBF1F201FB1200C0B20146029017
:1037C0001C2008F004FBB54800680A2190FBF1F0CA
:1037D000C0B2014602901E2008F0BDFA049810B154
:1037E000012846D146E0AC480068401EAA4908605E
:1037F00008460068002801DA0020086008F0F4FCA0
:10380000A548006800280ADA01220821072008F0EC
:1038100031FAA14800684042A049086008E09E488B
:1038200000689E49086000220821072008F022FA5B
:1038300000211A2008F0CBFA012211461C2008F0C2
:1038400019FA964800680A2190FBF1F201FB120078
:10385000C0B2014602901C2008F0B9FA8F480068F7
:103860000A2190FBF1F0C0B2014602901E2008F040
:1038700072FA60E08848006889490968884226DB56
:1038800008F0B2FC8448006800280ADA0122082106
:10389000072008F0EFF98048006840427F4908603F
:1038A00008E07D4800687D49086000220821072063
:1038B00008F0E0F908211A2008F063FA08211C201A
:1038C00008F05FFA06211E2008F05BFA33E0724828
:1038D0000068401C7049086008460068632801DDE4
:1038E0000920086008F080FC00220821072008F069
:1038F000C1F900211A2008F06AFA012211461C20A1
:1039000008F0B8F9654800680A2190FBF1F201FB64
:103910001200C0B2014602901C2008F058FA5F481D
:1039200000680A2190FBF1F0C0B2014602901E200F
:1039300008F011FA00BF00BFBFE408F094FC0121B9
:10394000002008F0DAF901220821022008F092F99B
:103950000B21022008F0E9F90721042008F0E5F91D
:1039600008F042FC4E48006800280ADA01220821CB
:10397000072008F07FF94A4800684042494908603A
:1039800008E04748006847490860002208210720EE
:1039900008F070F900211A2008F019FA01221146E6
:1039A0001C2008F067F93F4800680A2190FBF1F2FB
:1039B00001FB1200C0B2014602901C2008F007FA79
:1039C000384800680A2190FBF1F0C0B2014602902D
:1039D0001E2008F0C0F9049810B101286DD16DE0E7
:1039E0002D4800682E490968884213DB08F0FCFB6B
:1039F00000220821072008F03DF908211A2008F0CC
:103A0000C0F908211C2008F0BCF906211E2008F08E
:103A1000B8F952E022480068401E21490860084673
:103A20000068002801DA0020086008F0DDFB1C486F
:103A3000006800280ADA01220821072008F01AF994
:103A40001748006840421749086008E014480068B9
:103A50001449086000220821072008F00BF9002112
:103A60001A2008F0B4F9012211461C2008F002F9CE
:103A70000C4800680A2190FBF1F201FB1200C0B271
:103A8000014602901C2008F0A2F9064800680BE0ED
:103A9000400300203C030020440300204803002092
:103AA0004C030020500300200A2190FBF1F0C0B22B
:103AB000014602901E2008F04EF946E0FE480068DC
:103AC000401CFD49086008460068632801DD63204A
:103AD000086008F089FBF848006800280ADA01222B
:103AE0000821072008F0C6F8F34800684042F3496F
:103AF000086008E0F0480068F049086000220821EA
:103B0000072008F0B7F800211A2008F060F9012218
:103B100011461C2008F0AEF8E84800680A2190FB26
:103B2000F1F201FB1200C0B2014602901C2008F025
:103B30004EF9E24800680A2190FBF1F0C0B201465C
:103B400002901E2008F007F900BF00BF1CE208F039
:103B50008AFB0021084608F0D0F801220821022043
:103B600008F088F80321022008F0DFF8052104207E
:103B700008F0C3F80121172008F041F908F034FBE0
:103B8000CF48006800280ADA01220821072008F03F
:103B900071F8CB4800684042CA49086008E0C8484C
:103BA0000068C849086000220821072008F062F870
:103BB000C44800680A2190FBF1F201FB1200C0B278
:103BC000014602901A2008F0C6F8012211461C2076
:103BD00008F050F8BB4800680A2190FBF1F090FB18
:103BE000F1F201FB1200C0B2014602901C2008F065
:103BF000EEF8B4480068642190FBF1F0C0B20146D1
:103C000002901E2008F0A7F8049810B1012853D1A3
:103C100053E0AB480068401EA949086008460068A8
:103C200010F1640F02DA6FF063000860A4480068C6
:103C300000280ADA01220821072008F01BF8A04812
:103C4000006840429F49086008E09D4800689D491F
:103C5000086000220821072008F00CF808F0C4FAD8
:103C6000984800680A2190FBF1F201FB1200C0B2F3
:103C7000014602901A2008F06EF8012211461C201D
:103C800007F0F8FF8F4800680A2190FBF1F090FBE5
:103C9000F1F201FB1200C0B2014602901C2008F0B4
:103CA00096F888480068642190FBF1F0C0B20146A4
:103CB00002901E2008F04FF851E081480068401C37
:103CC0007F49086008460068642801DD64200860B8
:103CD0007B48006800280ADA01220821072007F043
:103CE000C9FF7748006840427649086008E0744898
:103CF00000687449086000220821072007F0BAFF15
:103D000008F072FA6F4800680A2190FBF1F201FB9B
:103D10001200C0B2014602901A2008F01CF80122DD
:103D200011461C2007F0A6FF664800680A2190FB98
:103D3000F1F090FBF1F201FB1200C0B201460290DB
:103D40001C2008F044F85F480068642190FBF1F003
:103D5000C0B2014602901E2007F0FDFF00BF00BF69
:103D600018E308F080FA0021084607F0C6FF012298
:103D70000821022007F07EFF0B21022007F0D5FF6B
:103D80000521042007F0B9FF08F02EFA4E4800681C
:103D900000280ADA01220821072007F06BFF4A48B1
:103DA000006840424949086008E0474800684749C0
:103DB000086000220821072007F05CFF43480068E4
:103DC0000A2190FBF1F201FB1200C0B20146029001
:103DD0001A2007F0FCFF012211461C2007F04AFFC1
:103DE0003A4800680A2190FBF1F090FBF1F201FBE8
:103DF0001200C0B2014602901C2007F0E8FF3348D1
:103E00000068642190FBF1F0C0B2014602901E20D0
:103E100007F0A1FF049810B1012861D161E02A48A0
:103E20000068401E284908600846006810F1640FC9
:103E300002DA6FF0630008602348006800280ADA9D
:103E400001220821072007F015FF1F4800684042A3
:103E50001E49086008E01C4800681C4908600022F0
:103E60000821072007F006FF08F0BEF91748006890
:103E70000A2190FBF1F201FB1200C0B20146029050
:103E80001A2007F0A4FF012211461C2007F0F2FEC1
:103E90000E4800680A2190FBF1F090FBF1F201FB63
:103EA0001200C0B2014602901C2007F090FF0748A4
:103EB000006864210CE000004C0300205003002047
:103EC00054030020580300205C03002060030020FE
:103ED00090FBF1F0C0B2014602901E2007F03BFFBC
:103EE00051E0F9480068401CF7490860084600683E
:103EF000642801DD64200860F348006800280ADABD
:103F000001220821072007F0B5FEEF480068404273
:103F1000EE49086008E0EC480068EC4908600022BF
:103F20000821072007F0A6FE08F05EF9E7480068C0
:103F30000A2190FBF1F201FB1200C0B2014602908F
:103F40001A2007F044FF012211461C2007F092FEC0
:103F5000DE4800680A2190FBF1F090FBF1F201FBD2
:103F60001200C0B2014602901C2007F030FFD74873
:103F70000068642190FBF1F0C0B2014602901E205F
:103F800007F0E9FE00BF00BF04E208F06CF9082169
:103F9000002007F0CAFE0721022007F0C6FE01211B
:103FA000042007F0C2FE00220821072007F062FE6D
:103FB00008F01AF94FF08041C54800680EF0B4FAD5
:103FC0000290C44800680146019002980EF078FA09
:103FD00008D201211C2007F0BEFE00211A2007F0A4
:103FE000BAFE70E14FF08041B94800680EF09CFACB
:103FF0000290B84840680146019002980EF060FABD
:1040000017D24FF08041B24800680EF08DFA02904E
:10401000B04800680146019002980EF051FB08D8A4
:1040200002211C2007F097FE00211A2007F093FEC2
:1040300049E14FF08041A64800680EF075FA029001
:10404000A44880680146019002980EF039FA17D210
:104050004FF080419E4800680EF066FA02909D483D
:1040600040680146019002980EF02AFB08D803210F
:104070001C2007F070FE00211A2007F06CFE22E1E0
:104080004FF08041924800680EF04EFA029091483D
:10409000C0680146019002980EF012FA17D24FF054
:1040A00080418B4800680EF03FFA02908948806892
:1040B0000146019002980EF003FB08D804211C2051
:1040C00007F049FE00211A2007F045FEFBE04FF003
:1040D00080417F4800680EF027FA02907D48006911
:1040E0000146019002980EF0EBF917D24FF0804193
:1040F000774800680EF018FA02907648C0680146CA
:10410000019002980EF0DCFA08D805211C2007F077
:1041100022FE00211A2007F01EFED4E04FF080415D
:104120006B4800680EF000FA02906A484069014648
:10413000019002980EF0C4F917D24FF08041644804
:1041400000680EF0F1F902906248006901460190A2
:1041500002980EF0B5FA08D806211C2007F0FBFDE6
:1041600000211A2007F0F7FDADE04FF080415848DC
:1041700000680EF0D9F90290564880690146019016
:1041800002980EF09DF917D24FF080415048006818
:104190000EF0CAF902904F4840690146019002981A
:1041A0000EF08EFA08D807211C2007F0D4FD00215C
:1041B0001A2007F0D0FD86E04FF0804144480068A7
:1041C0000EF0B2F902904348C0690146019002988E
:1041D0000EF076F917D24FF080413D4800680EF09E
:1041E000A3F902903B4880690146019002980EF0C5
:1041F00067FA08D808211C2007F0ADFD00211A201D
:1042000007F0A9FD5FE04FF08041314800680EF0F3
:104210008BF902902F48006A0146019002980EF037
:104220004FF917D24FF08041294800680EF07CF911
:1042300002902848C0690146019002980EF040FAA9
:1042400008D809211C2007F086FD00211A2007F05C
:1042500082FD38E04FF080411D4800680EF064F99F
:1042600002901C48406A0146019002980EF028F91D
:104270000ED24FF08041164800680EF055F90290BA
:104280001448006A0146019002980EF019FA0ED9FE
:104290004FF080410E4800680EF046F902900D483C
:1042A000406A0146019002980EF00AFA0BD80121EB
:1042B0001E2007F050FD00211C2007F04CFD0021BE
:1042C0001A2007F048FD65E05C0300206003002031
:1042D000DC030020E803002007F0C5FF04210020D4
:1042E00007F023FD0621022007F01FFD0521042011
:1042F00007F003FD07F078FFFE48007801460290C2
:104300001A2007F028FD049810B101282AD114E0E2
:10431000F8480068401EF749086008460068012810
:1043200001DA0420086007F05FFFF24800780146D8
:1043300002901A2007F00FFD14E0EE480068401CC0
:10434000EC49086008460068042801DD0120086087
:1043500007F04AFFE7480078014602901A2007F06C
:10436000FAFC00BF00BF15E007F07DFF0621022028
:1043700007F0C3FC0121042007F0BFFC07F034FF65
:104380000120DD4908600020DC4908600120DC498B
:10439000086000BF00BF05B000BD03B583B003983F
:1043A0001A2882F02683DFE810F01A001C00DB00D8
:1043B000D0014D024B0356040B05BB0521069C069C
:1043C0002907B0076A0819097809410AFD0A060C8D
:1043D000040DFC0D010F0B101E11C6120E1302F07E
:1043E00008BB07F040FF0021084607F09EFC0122B1
:1043F0000821022007F03EFC0121022007F07DFC8D
:104400000121042007F079FC07F0EEFEBD4800789A
:10441000642190FBF1F201FB12000A2190FBF1F202
:1044200001FB1200C0B2014602901A2007F093FC73
:10443000B4480078642190FBF1F201FB12000A21DC
:1044400090FBF1F0C0B2014602901C2007F083FC03
:10445000AC480078642190FBF1F0C0B201460290B4
:104460001E2007F078FC049810B1012876D13AE0BC
:10447000A4480078401EA349087008460078012827
:1044800001DAFE20087007F0AFFE9E480078642134
:1044900090FBF1F201FB12000A2190FBF1F201FB0B
:1044A0001200C0B2014602901A2007F054FC954851
:1044B0000078642190FBF1F201FB12000A2190FBCD
:1044C000F1F0C0B2014602901C2007F044FC8D4878
:1044D0000078642190FBF1F0C0B2014602901E20EA
:1044E00007F039FC3AE087480078401C854908709D
:1044F00008460078FE2801DD0120087007F074FEF0
:1045000080480078642190FBF1F201FB12000A213F
:1045100090FBF1F201FB1200C0B2014602901A209A
:1045200007F019FC77480078642190FBF1F201FB59
:1045300012000A2190FBF1F0C0B2014602901C204B
:1045400007F009FC6F480078642190FBF1F0C0B2DD
:10455000014602901E2007F0FEFB00BF00BF3EE7B1
:1045600007F081FE0221002007F0DFFB0122082175
:10457000022007F07FFB01220821022007F0B8FA91
:104580000121022007F0D1FB0221042007F0B5FB36
:1045900007F02AFE5C485D49096850F821005C4933
:1045A000086008460068642190FBF1F00A2190FB46
:1045B000F1F201FB1200C0B2014602901A2007F08E
:1045C000CAFB53480068642190FBF1F00A2190FB7C
:1045D000F1F090FBF1F201FB1200C0B20146029033
:1045E0001C2007F0B8FB4A48006842F2107190FBAB
:1045F000F1F0C0B2014602901E2007F0ACFB049817
:1046000010B1012846D146E040480068401E3F49AD
:10461000086008460068002801DA042008603A486B
:104620003A49096850F8210039490860084600688D
:104630000AF0CFFA07F0D8FD35480068642190FBF6
:10464000F1F00A2190FBF1F201FB1200C0B2014629
:1046500002901A2007F07FFB2D480068642190FB30
:10466000F1F00A2190FBF1F090FBF1F201FB120056
:10467000C0B2014602901C2007F06DFB2448006880
:1046800042F2107190FBF1F0C0B2014602901E2080
:1046900007F061FB57E01D480068401C1B4908609B
:1046A00008460068042801DD002008601648174904
:1046B000096850F8210016490860084600680AF0A9
:1046C00088FA07F091FD12480068642190FBF1F030
:1046D0000A2190FBF1F201FB1200C0B201460290E8
:1046E0001A2007F038FB0A480068642190FBF1F0BB
:1046F0000A210FE01803002084030020700300202B
:104700008C030020C0020020CC020020C802002040
:10471000C402002090FBF1F090FBF1F201FB1200CB
:10472000C0B2014602901C2007F015FBFE4800684D
:1047300042F2107190FBF1F0C0B2014602901E20CF
:1047400007F009FB00BF00BF49E607F08CFD082118
:10475000002007F0EAFA01220821022007F08AFA75
:104760000721022007F0E1FA0321042007F0C5FA2F
:10477000EE48006801280AD107F036FD0A211A2008
:1047800007F0FFFA00211C2007F0E5FA0DE007F022
:104790002BFD05211A2007F0F4FA05211C2007F053
:1047A000F0FA00211E2007F0D6FA049810B1012873
:1047B00046D122E0DD48006868B90120DB49086085
:1047C00007F012FD0A211A2007F0DBFA00211C2055
:1047D00007F0C1FA10E00020D449086007F004FD9A
:1047E00005211A2007F0CDFA05211C2007F0C9FA8F
:1047F00000211E2007F0AFFA22E0CC48006868B91B
:104800000120CA49086007F0EFFC0A211A2007F0CE
:10481000B8FA00211C2007F09EFA10E00020C349DE
:10482000086007F0E1FC05211A2007F0AAFA05212B
:104830001C2007F0A6FA00211E2007F08CFA00BF0A
:1048400000BFCCE507F00FFD0B21002007F06DFA4B
:1048500001220821022007F00DFA0321022007F0AF
:1048600064FA0421084607F048FA0121172007F0EE
:10487000C6FA07F0B9FCAE48006800280ADA01223F
:104880000821072007F0F6F9A94800684042A94925
:10489000086008E0A6480068A649086000220821D0
:1048A000072007F0E7F900211A2007F054FA012247
:1048B00011461C2007F0DEF99E4800680A2190FB93
:1048C000F1F201FB1200C0B2014602901C2007F079
:1048D0007EFA984800680A2190FBF1F0C0B20146C8
:1048E00002901E2007F037FA049810B1012875D104
:1048F00075E0914800688E490968884226DD07F016
:1049000073FC8B48006800280ADA0122082107207E
:1049100007F0B0F98648006840428649086008E020
:10492000834800688349086000220821072007F0B7
:10493000A1F908211A2007F024FA08211C2007F009
:1049400020FA06211E2007F01CFA47E0784800688C
:10495000401E774908600846006810F1280F02DA07
:104960006FF02700086007F03FFC714800680028DE
:104970000ADA01220821072007F07CF96C48006858
:1049800040426C49086008E069480068694908606D
:1049900000220821072007F06DF900211A2007F0F6
:1049A000DAF9012211461C2007F064F96148006819
:1049B0000A2190FBF1F201FB1200C0B20146029005
:1049C0001C2007F004FA5B4800680A2190FBF1F014
:1049D000C0B2014602901E2007F0BDF92EE05448F7
:1049E0000068401C5249086008460068502801DDF4
:1049F0005020086007F0F8FB00211A2007F0ABF9FF
:104A0000012211461C2007F035F94A4800680A21A6
:104A100090FBF1F201FB1200C0B2014602901C2093
:104A200007F0D5F9434800680A2190FBF1F0C0B2C5
:104A3000014602901E2007F08EF900BF00BFCEE4B1
:104A400007F011FC0421002007F06FF90122082172
:104A5000022007F00FF90321022007F066F9052173
:104A6000042007F04AF90121172007F0C8F907F0E0
:104A7000BBFB3148006800280ADA01220821072020
:104A800007F0F8F82C48006840422C49086008E01C
:104A9000294800682949086000220821072007F0FA
:104AA000E9F800211A2007F056F9012211461C20CE
:104AB00007F0E0F8214800680A2190FBF1F201FBC1
:104AC0001200C0B2014602901C2007F080F91B487A
:104AD00000680A2190FBF1F0C0B2014602901E204E
:104AE00007F039F9049810B1012855D155E0124862
:104AF0000068401E104908600846006810F1280F41
:104B000002DA6FF02700086007F06EFB0A480068C1
:104B1000002817DA01220821072007F0ABF8064821
:104B20000068404205490BE0C4020020E00200207A
:104B3000E4020020F0020020E8020020EC02002045
:104B4000086008E0FE480068FE490860002208216D
:104B5000072007F08FF800211A2007F0FCF8012247
:104B600011461C2007F086F8F64800680A2190FBE1
:104B7000F1F201FB1200C0B2014602901C2007F0C6
:104B800026F9F04800680A2190FBF1F0C0B2014616
:104B900002901E2007F0DFF85BE0E9480068EA4970
:104BA000096888420EDD07F01FFB08211A2007F074
:104BB000E8F808211C2007F0E4F806211E2007F081
:104BC000E0F845E0DE480068401CDD490860084622
:104BD0000068502801DD5020086007F005FBD84828
:104BE000006800280ADA01220821072007F042F8AD
:104BF000D34800684042D349086008E0D0480068C4
:104C0000D049086000220821072007F033F800216E
:104C10001A2007F0A0F8012211461C2007F02AF8FC
:104C2000C84800680A2190FBF1F201FB1200C0B2F3
:104C3000014602901C2007F0CAF8C24800680A2109
:104C400090FBF1F0C0B2014602901E2007F083F8FD
:104C500000BF00BF83E400220821072007F00AF804
:104C600007F001FB0B21002007F05FF8012208216B
:104C7000022006F0FFFF0B21022007F056F8062164
:104C8000042007F03AF807F0AFFA00211A2007F0E5
:104C90009EF8012211461C2006F0ECFFAB4800688C
:104CA0000A2190FBF1F201FB1200C0B20146029012
:104CB0001C2007F08CF8A54800680A2190FBF1F051
:104CC000C0B2014602901E2007F045F8049810B1CA
:104CD000012873D143E09D4800689D4909688842D6
:104CE0000EDA07F081FA08211A2007F04AF80821A5
:104CF0001C2007F046F806211E2007F042F82DE0A0
:104D000092480068401E91490860084600680028E3
:104D100001DA0120086007F067FA00211A2007F085
:104D200056F8012211461C2006F0A4FF87480068AF
:104D30000A2190FBF1F201FB1200C0B20146029081
:104D40001C2007F044F8814800680A2190FBF1F02C
:104D5000C0B2014602901E2006F0FDFF2EE07B4807
:104D60000068401C7949086008460068632801DD36
:104D70006320086007F038FA00211A2007F027F8AE
:104D8000012211461C2006F075FF704800680A21B8
:104D900090FBF1F201FB1200C0B2014602901C2010
:104DA00007F015F8694800680A2190FBF1F0C0B2DD
:104DB000014602901E2006F0CEFF00BF00BFC3E4F4
:104DC00007F051FA0421002006F0AFFF012208216C
:104DD000022006F04FFF0B21022006F0A6FF07215C
:104DE000042006F08AFF07F0FFF900211A2006F0E0
:104DF000EEFF012211461C2006F03CFF54480068DB
:104E00000A2190FBF1F201FB1200C0B201460290B0
:104E10001C2006F0DCFF4E4800680A2190FBF1F0F0
:104E2000C0B2014602901E2006F095FF049810B112
:104E3000012873D12EE046480068401E44490860AE
:104E400008460068002801DA0020086007F0CCF965
:104E500000211A2006F0BBFF012211461C2006F09B
:104E600009FF3B4800680A2190FBF1F201FB1200A8
:104E7000C0B2014602901C2006F0A9FF3448006829
:104E80000A2190FBF1F0C0B2014602901E2006F00C
:104E900062FF43E02D4800682D49096888420EDA18
:104EA00007F0A2F908211A2006F06BFF08211C2048
:104EB00006F067FF06211E2006F063FF2DE0244860
:104EC0000068401C2249086008460068632801DD2C
:104ED0006320086007F088F900211A2006F077FFA8
:104EE000012211461C2006F0C5FE194800680A215F
:104EF00090FBF1F201FB1200C0B2014602901C20AF
:104F000006F065FF124800680A2190FBF1F0C0B27C
:104F1000014602901E2006F01EFF00BF00BF13E4F2
:104F200007F0A1F90521002006F0FFFE012208216B
:104F3000022006F09FFE0321022006F0F6FE09E0A3
:104F4000E8020020EC020020E4020020F40200202D
:104F5000F80200200821042006F0CFFE01211720CE
:104F600006F04DFF07F040F9FE480068012804D123
:104F700005211C2006F005FF03E003211C2006F09C
:104F800000FF049810B101282ED116E0F548006802
:104F900048B90120F349086007F026F905211C20D3
:104FA00006F0EFFE08E00020EE49086007F01CF96B
:104FB00003211C2006F0E5FE16E0EA48006848B927
:104FC0000120E849086007F00FF905211C2006F0D0
:104FD000D8FE08E00020E349086007F005F9032146
:104FE0001C2006F0CEFE00BF00BF2AE407F03BF90C
:104FF0000821002006F099FE01220821022006F077
:1050000039FE0521022006F090FE0921042006F059
:1050100074FE07F0E9F8D4480068012808D10A2195
:105020001A2006F0AEFE00211C2006F094FE0BE0D4
:1050300005211A2006F0A5FE05211C2006F0A1FE80
:1050400000211E2006F087FE049810B1012846D1E9
:1050500022E0C548006868B90120C349086007F02C
:10506000C3F80A211A2006F08CFE00211C2006F04D
:1050700072FE10E00020BC49086007F0B5F8052179
:105080001A2006F07EFE05211C2006F07AFE002183
:105090001E2006F060FE22E0B348006868B90120D7
:1050A000B149086007F0A0F80A211A2006F069FE4D
:1050B00000211C2006F04FFE10E00020AA490860E5
:1050C00007F092F805211A2006F05BFE05211C204E
:1050D00006F057FE00211E2006F03DFE00BF00BF77
:1050E000ADE407F0C0F80121002006F006FE012221
:1050F0000821022006F0BEFD0021022006F0FDFD81
:105100000321042006F011FE07F06EF897480068AE
:1051100038B90A211A2006F034FE00211C2006F0BE
:105120001AFE9248006801280BD105211A2006F0CA
:1051300028FE05211C2006F024FE00211E2006F07A
:105140000AFE049810B1012856D12AE08748006869
:10515000401E8649086008460068002801DA0120E0
:1051600008608248006848B907F03EF80A211A2012
:1051700006F007FE00211C2006F0EDFD7B480068CC
:1051800001280DD107F030F805211A2006F0F9FDAD
:1051900005211C2006F0F5FD00211E2006F0DBFD98
:1051A0002AE072480068401C7049086008460068A0
:1051B000012801DD002008606C48006848B907F04C
:1051C00013F80A211A2006F0DCFD00211C2006F04D
:1051D000C2FD6648006801280DD107F005F80521D9
:1051E0001A2006F0CEFD05211C2006F0CAFD002184
:1051F0001E2006F0B0FD00BF00BF20E407F033F82A
:105200000221002006F079FD01220821022006F08B
:1052100031FD0021022006F070FD0321042006F07C
:1052200084FD06F0E1FF5248006801280CD10321FB
:105230001A2006F0A6FD09211C2006F0A2FD03217C
:105240001E2006F09EFD0BE000211A2006F099FDBD
:1052500008211C2006F095FD00211E2006F07BFD94
:10526000049810B101284ED126E04148006888B961
:1052700001203F49086006F0B7FF03211A2006F01D
:1052800080FD09211C2006F07CFD03211E2006F074
:1052900078FD10E000203649086006F0A5FF0021E7
:1052A0001A2006F06EFD08211C2006F06AFD002180
:1052B0001E2006F050FD26E02D48006888B9012028
:1052C0002B49086006F090FF03211A2006F059FDD3
:1052D00009211C2006F055FD03211E2006F051FD7A
:1052E00010E000202249086006F07EFF00211A200D
:1052F00006F047FD08211C2006F043FD00211E207A
:1053000006F029FD00BF00BFA4E406F0ACFF0321B6
:10531000002006F0F2FC01220821022006F0AAFC7F
:105320000021022006F0E9FC0321042006F0FDFC28
:1053300006F05AFF0F4800680A2190FBF1F201FBCA
:105340001200C0B2014602901A2006F004FD09487E
:1053500000680A2190FBF1F090FBF1F201FB1200D2
:10536000C0B209E0FC02002000030020040300207A
:10537000080300200C030020014602901C2006F0C8
:10538000EAFCFE480068642190FBF1F0C0B20146DF
:1053900002901E2006F0DFFC049810B101286CD1A9
:1053A00035E0F6480068401EF44908600846006889
:1053B000012802DA4FF41670086006F015FFEF4876
:1053C00000680A2190FBF1F201FB1200C0B2014615
:1053D00002901A2006F0BFFCE84800680A2190FB02
:1053E000F1F090FBF1F201FB1200C0B20146029015
:1053F0001C2006F0B0FCE1480068642190FBF1F04D
:10540000C0B2014602901E2006F0A5FC35E0DB4844
:105410000068401CD949086008460068B0F5167F4E
:1054200001DD0120086006F0DFFED44800680A2193
:1054300090FBF1F201FB1200C0B2014602901A206B
:1054400006F089FCCD4800680A2190FBF1F090FB42
:10545000F1F201FB1200C0B2014602901C2006F0DE
:105460007AFCC6480068642190FBF1F0C0B20146A6
:1054700002901E2006F06FFC00BF00BF9FE406F004
:10548000F2FE0421002006F038FC0122082102204F
:1054900006F0F0FB0021022006F02FFC032104207F
:1054A00006F043FC06F0A0FEB54800680A2190FB18
:1054B000F1F201FB1200C0B2014602901A2006F080
:1054C0004AFCAF4800680A2190FBF1F090FBF1F232
:1054D00001FB1200C0B2014602901C2006F03BFC0A
:1054E000A7480068642190FBF1F0C0B20146029029
:1054F0001E2006F030FC049810B101286CD135E074
:105500009F480068401E9E490860084600680128C0
:1055100002DA4FF41670086006F066FE98480068DC
:105520000A2190FBF1F201FB1200C0B20146029089
:105530001A2006F010FC924800680A2190FBF1F056
:1055400090FBF1F201FB1200C0B2014602901C2058
:1055500006F001FC8A480068642190FBF1F0C0B2BB
:10556000014602901E2006F0F6FB35E084480068F4
:10557000401C8349086008460068B0F5167F01DDCD
:105580000120086006F030FE7D4800680A2190FB8B
:10559000F1F201FB1200C0B2014602901A2006F09F
:1055A000DAFB774800680A2190FBF1F090FBF1F2FA
:1055B00001FB1200C0B2014602901C2006F0CBFB9A
:1055C0006F480068642190FBF1F0C0B20146029080
:1055D0001E2006F0C0FB00BF00BFA0E406F043FEA3
:1055E0000521002006F089FB01220821022006F097
:1055F00041FB0021022006F080FB0321042006F07D
:1056000094FB06F0F1FD5F4800680A2190FBF1F27F
:1056100001FB1200C0B2014602901A2006F09BFB6B
:10562000049810B1012836D11AE056480068401E8F
:105630005449086008460068002801DA0120086023
:1056400006F0D2FD4F4800680A2190FBF1F201FB01
:105650001200C0B2014602901A2006F07CFB1AE04C
:1056600048480068401C474908600846006801280F
:1056700001DD0020086006F0B7FD424800680A21FD
:1056800090FBF1F201FB1200C0B2014602901A2019
:1056900006F061FB00BF00BF41E406F0E4FD062117
:1056A000002006F02AFB01220821022006F0E2FA7F
:1056B0000021022006F021FB0321042006F035FB27
:1056C0000121172006F09BFB06F08EFD2E48006896
:1056D0000A2190FBF1F201FB1200C0B201460290D8
:1056E0001A2006F038FB012211461C2006F0C2FAEF
:1056F000254800680A2190FBF1F090FBF1F201FBD4
:105700001200C0B2014602901C2006F060FB1E4849
:105710000068642190FBF1F0C0B2014602901E20A7
:1057200006F019FB049810B101287DD142E016481B
:105730000068401E1449086008460068002801DA25
:105740000020086006F050FD0F4800680A2190FB19
:10575000F1F201FB1200C0B2014602901A2006F0DD
:10576000FAFA012211461C2006F084FA0648006865
:105770000A2190FBF1F090FBF1F207E00C0300200E
:1057800010030020200300202403002001FB12004E
:10579000C0B2014602901C2006F019FBFE480068CA
:1057A000642190FBF1F0C0B2014602901E2006F089
:1057B000D2FA39E0F8480068401CF749086008460A
:1057C0000068782801DD7820086006F00DFDF248B9
:1057D00000680A2190FBF1F201FB1200C0B2014601
:1057E00002901A2006F0B7FA012211461C2006F09A
:1057F00041FAE94800680A2190FBF1F090FBF1F2D0
:1058000001FB1200C0B2014602901C2006F0DFFA34
:10581000E1480068642190FBF1F0C0B201460290BB
:105820001E2006F098FA00BF00BF59E406F01BFDE9
:105830000721002006F061FA01220821022006F06B
:1058400019FA0021022006F058FA0321042006F07C
:105850006CFAD24800680A2190FBF1F201FB1200B9
:10586000C0B20246012102901C2006F003FA06F0A5
:10587000BBFC00211A2006F0AAFAC84800680A21D9
:1058800090FBF1F090FBF1F201FB1200C0B2014677
:1058900002901C2006F09BFAC0480068642190FB2F
:1058A000F1F0C0B2014602901E2006F054FA0498AE
:1058B00010B1012874D139E0B8480068401EB749DA
:1058C000086008460068002801DA0020086006F039
:1058D0008BFCB24800680A2190FBF1F201FB120038
:1058E000C0B2014602901A2006F071FA0122114658
:1058F0001C2006F0BFF9A94800680A2190FBF1F0CE
:1059000090FBF1F201FB1200C0B2014602901C2094
:1059100006F05DFAA1480068642190FBF1F0C0B286
:10592000014602901E2006F016FA39E09B480068F6
:10593000401C9A49086008460068642801DD64201C
:10594000086006F051FC954800680A2190FBF1F2CE
:1059500001FB1200C0B2014602901A2006F037FA8D
:10596000012211461C2006F085F98C4800680A21A6
:1059700090FBF1F090FBF1F201FB1200C0B2014686
:1059800002901C2006F023FA84480068642190FBF2
:10599000F1F0C0B2014602901E2006F0DCF900BF13
:1059A00000BF2AE406F05FFC0821002006F0A5F9FC
:1059B00001220821022006F05DF90021022006F0F4
:1059C0009CF90321042006F0B0F90121172006F00C
:1059D00016FA06F009FC7248006800280ADA01226B
:1059E0000821072006F046F96D48006840426D49DD
:1059F000086008E06A4800686A49086000220821D7
:105A0000072006F037F900211A2006F0A4F9012238
:105A100011461C2006F02EF9624800680A2190FB0E
:105A2000F1F201FB1200C0B2014602901C2006F008
:105A3000CEF95C4800680A2190FBF1F0C0B2014643
:105A400002901E2006F087F9049810B1012875D144
:105A500075E05348006854490968884226DD06F01D
:105A6000C3FB4F48006800280ADA012208210720FA
:105A700006F000F94A48006840424A49086008E0D8
:105A8000474800684749086000220821072006F0BF
:105A9000F1F808211A2006F074F908211C2006F0FC
:105AA00070F906211E2006F06CF947E03C480068BA
:105AB000401E3B4908600846006810F1280F02DAD2
:105AC0006FF02700086006F08FFB3548006800285B
:105AD0000ADA01220821072006F0CCF830480068D5
