:020000040800F2
:100000000011002061EC00086B0F00086D0F000864
:10001000710F0008750F0008790F0008000000003C
:100020000000000000000000000000007D0F00083C
:100030007F0F000800000000810F0008830F0008F8
:100040007BEC00087BEC00087BEC0008C9CD0008C5
:100050007BEC00087BEC00087BEC00087BEC0008E4
:100060007BEC00087BEC00087BEC00087BEC0008D4
:100070007BEC00087BEC00087BEC00087BEC0008C4
:1000800009DB000869DB00087BEC00087BEC00085A
:100090007BEC00087BEC00087BEC00087BEC0008A4
:1000A0007BEC00087BEC00087BEC00087BEC000894
:1000B00015AC000899AB0008F10E00087BEC0008B5
:1000C0007BEC00087BEC00087BEC00087BEC000874
:1000D0007BEC0008750B00080F0B00087BEC000898
:1000E0004BE000087BEC00087BEC00087BEC000890
:1000F0007BEC00087BEC00087BEC00087BEC000844
:100100007BEC00087BEC000891AC00087BEC00085D
:100110007BEC00087BEC00087BEC00087BEC000823
:100120007BEC00087BEC00087BEC00087BEC000813
:1001300000F002F800F062F80AA090E8000C824497
:100140008344AAF10107DA4501D100F057F8AFF274
:10015000090EBAE80F0013F0010F18BFFB1A43F0A5
:100160000103184784260100A42601000A444FF029
:10017000000C10F8013B13F0070408BF10F8014B06
:100180001D1108BF10F8015B641E05D010F8016B4B
:10019000641E01F8016BF9D113F0080F1EBF10F8AF
:1001A000014BAD1C0C1B09D16D1E58BF01F801CBD2
:1001B000FAD505E014F8016B01F8016B6D1EF9D555
:1001C0009142D6D37047000000230024002500266A
:1001D000103A28BF78C1FBD8520728BF30C148BFAA
:1001E0000B607047642911F05581732911F01B824F
:1001F000002070471FB51FBD10B510BD11F01CFACF
:100200001146FFF7F7FF09F0ECFA11F03AFA03B4E0
:10021000FFF7F2FF03BC0EF071FC00000CB50020EC
:10022000019000906C48006840F480306A49086092
:1002300000BF6948006800F4003000900198401C3D
:100240000190009818B90198B0F5A06FF1D16248FB
:10025000006800F4003010B10120009001E000209F
:1002600000900098012843D15C48006840F01000DD
:100270005A4908600846006820F0030008600846F4
:10028000006840F0020008605348406852494860E6
:100290000846406848600846406840F4806048600E
:1002A0000846406820F47C1048600846406840F4E6
:1002B000E81048600846006840F08070086000BFA1
:1002C0004548006800F000700028F9D042484068B6
:1002D00020F00300404948600846406840F00200B2
:1002E000486000BF3C48406800F00C000828F9D185
:1002F0000CBD10B5FFF792FF10BD10B53648006871
:1003000040F001003449086008464068344908401C
:100310003149486008460068324908402E49086063
:100320000846006820F4802008600846406820F4F1
:10033000FE0048604FF41F008860FFF7DAFF4FF0BF
:1003400000602949086010BD10B50021002000227E
:10035000214B5B6803F00C0121B1042906D0082968
:1003600028D107E0214B224C236027E01F4B204C73
:10037000236023E0184B5B6803F47010164B5B6836
:1003800003F48032022303EB904022B9194B43431C
:10039000174C23600DE0104B5B6803F4003323B16E
:1003A000144B4343124C236003E0104B4343104C67
:1003B000236003E00D4B0E4C236000BF00BF064BD3
:1003C0005B68C3F303130C4CE15C094B1B68CB4027
:1003D000074C236010BD00000010024000200240C6
:1003E0000000FFF8FFFFF6FE08ED00E000127A00C3
:1003F0000000002000093D000400002070B5024606
:100400000C46FF25FF2309E012F8010B80EA0501E5
:10041000FA48405C80EA0305F948435C201EA4F1D9
:100420000106F4B2F0D143EA052070BD10B50120F9
:10043000F4490870F4480FF0F3F8F4490870F448F0
:100440000078012856D00021F2480FF04BFE002121
:10045000F04810F0DBF8F0480078A0B1EB480078E5
:10046000EE49097888420ED10020ED490870ED4927
:10047000087008460078401C0870E4480078EA4993
:10048000E84A12788854E448007860BBE448007871
:1004900048BBE4480078642813DADC480178E24A73
:1004A000E0480078401C1154DE480078401CDD49CB
:1004B000087008460078082815DB084600780870A0
:1004C00011E00120D6490870D1490870D54800785C
:1004D000D5490870D54800688078D5490968887082
:1004E0000020D04908700020CB4908700121C9487C
:1004F0000FF0F8FD10BD10B50120C2490870CD49BC
:100500000870CD480FF08CF8C0490870C0480078DA
:10051000012856D00021BF480FF0E4FD0021BD485E
:1005200010F074F8BC480078A0B1B8480078BB4916
:10053000097888420ED10020B9490870B94908707D
:1005400008460078401C0870B0480078B649B54AA3
:1005500012788854B048007860BBB148007848BB36
:10056000B0480078642813DAA8480178AE4AAD484C
:100570000078401C1154AB480078401CA949087011
:1005800008460078082815DB08460078087011E056
:100590000120A34908709E490870A2480078A2492A
:1005A0000870A24800688078A14909688870002016
:1005B0009C490870002098490870012195480FF067
:1005C00091FD10BD10B59A4800689C490978405CBF
:1005D0009B490870084601788B480FF01DF8974832
:1005E0000078401C954908709148006800780978A7
:1005F000884210DA0020864908708D490968087021
:100600008849087001208D490870002240F2266157
:100610007D480EF0A0FF10BD70B500257F48007822
:100620008849087003204870874800788870874997
:100630008748006811F01CFF064611F07DFE000A95
:100640008049C87081498248006811F011FF064650
:1006500011F072FE7B4908717E48006811F06CFE53
:100660000121B1EBE03F07D17A4801684FF08F409C
:1006700012F006F87749086074497648006811F06E
:10068000F7FE064611F058FE000A6E4948716F49A0
:100690007048006811F0ECFE064611F04DFE694905
:1006A000887169480088051F04E00021A81D654A7B
:1006B00011546D1E002DF8DC63480078C01CC1B2D7
:1006C0006048FFF79BFE044621125E4A5E480088A0
:1006D000C01C11545C480088001D14545A4800780E
:1006E000401D5D49087010465C490860012240F2D7
:1006F000277145480EF02FFF70BD70B500254748A3
:10070000007850490870032048704F48007888707E
:100710005048006811F010FE0121B1EBE03F07D115
:100720004C4801684FF08F4011F0AAFF494908601A
:1007300046494848006811F09BFE064611F0FCFD52
:10074000000A4049C87041494248006811F090FED3
:10075000064611F0F1FD3B4908713B480088851EB3
:1007600004E00021281D374A11546D1E002DF8DCCD
:1007700035480078C01CC1B23248FFF73FFE04463E
:100780002112304A30480088C01C11542E4800887D
:10079000001D14542C480078401D2F490870104645
:1007A0002E490860012240F2277117480EF0D3FE4F
:1007B00070BD70B5002519480078224908700320E3
:1007C000487021480078887020492148006811F05D
:1007D0004FFE064611F0B0FD000A1A49C8701B49C9
:1007E0001B48006811F044FE064611F0A5FD1549AE
:1007F000087115480088851E37E00000660000205B
:10080000660100205D000020004400404C000020F4
:100810005C0000200008004048000020C0020020CA
:10082000490000204F000020A004002054000020B8
:10083000580000205F0000200038014050000020D8
:100840004D0000209D0700204400002000002041B2
:10085000AC030020A803002098020020940200208E
:100860000021281DFD4A11546D1E002DF8DCFC48A6
:100870000078C01CC1B2F948FFF7C0FD0446211240
:10088000F64AF7480088C01C1154F5480088001D3E
:100890001454F3480078401DF24908701046F2499C
:1008A0000860012240F22771F0480EF054FE70BD3E
:1008B00010B50220EE490870EE4800884FF6FA7134
:1008C000884205DAEC48007810B900200DF041FAB2
:1008D000E84800884FF6FA71884203DAE648007863
:1008E00001280ED101200DF034FA0120E2490870F0
:1008F000E04800884FF6FA71884202DB3220DD4979
:1009000008800A20DD49088008460288DC49D94869
:1009100000880DF0FBF9DB480078D0490870D84812
:1009200000784870D64840788870D5488078C8707C
:10093000D348C0780871D24800794871D0484079CE
:100940008871CF488079C871CD48C0790872CC4889
:10095000007A4872CA48407A88720B20C1490870F0
:10096000C44800880A30C3490880084600880A2124
:1009700090FBF1F0C449098888420BDD3220BD4963
:1009800008800020C14908703220C1490880002039
:10099000C0490870B148B4490860012240F227718B
:1009A000B2480EF0D8FD10BD70B50025BA480088D9
:1009B000B5490880B3480078A849087003204870FA
:1009C00002208870B0480088000AC870AE480078DD
:1009D00008710521A148FFF711FD044620129F4927
:1009E00048718C7107209F4908709C489E49086097
:1009F000012240F227719D480EF0ADFD70BD2DE93A
:100A0000F04104460F460020A4490870A44800782D
:100A100000283BD12078401E255C4FF6FF7000EA8D
:100A200005252078205C05432078C01E205C8C4979
:100A30000880084600884FF6FF7101EA00208849C7
:100A400008802078801E205C098808434FF6FF71DB
:100A500001EA40008249088008460088202801DD1C
:100A6000202008802078801EC1B2601CFFF7C6FCE1
:100A7000064606218B48FFF7C1FC06462078801EFB
:100A8000C1B2601CFFF7BAFC064600E02E46AE423B
:100A900038D18348007808BBA07801281BD00328F0
:100AA0001AD1022180480EF008FA6D480088042807
:100AB00002D1FFF7B1FD0DE069480088022809D195
:100AC000207910B9FFF775FE04E02079012801D1E3
:100AD000FFF713FE01E000E000BF16E0E07840B150
:100AE00010280DD1022170480EF0E7F9FFF7E0FE63
:100AF00007E002216C480EF0E0F9FFF755FF00E037
:100B000000BF02E0002069490870BDE8F08110B51F
:100B100040F2244155480EF003FE01280DD1534800
:100B20000EF07EFD40F2244150480EF023FE0120DD
:100B30005F49087000205F49087040F225514B481A
:100B40000EF0EEFD012814D148480EF069FD5A4917
:100B5000087040F2255145480EF00CFE56480078CA
:100B60005649544A1278885452480078401C5149DA
:100B7000087010BD70B586B000240226002500BFA5
:100B800004E0002003A90855601CC4B20A2CF8DB5D
:100B900040F225514A480EF0C3FD30B348480EF0EC
:100BA0003FFD4849087048480078F0B90846007889
:100BB000232802D100204549087042480178434863
:100BC00002780078401C414B1870414881543D48E0
:100BD00000780A2809D118460078801E3C49085C34
:100BE0000D2802D1012038490870374800780128C3
:100BF0007CD100203449087035484078012876D1EE
:100C000034480088022805DB0DF0D4FD0221264877
:100C10000EF055F92E4880782F4908702C48C0787E
:100C20002E4908702A4800792D49087028484079D3
:100C30002C4908702648C179807901EB00202A49A7
:100C400008802348C179807901EB00202049497947
:100C50001F4A1279CDE90021029049E09D0700204A
:100C6000440000209802002094020020004400402C
:100C7000690300204600002060000020640000207E
:100C800044060020C002002062000020680300200B
:100C90009403002067030020880200205D000020EC
:100CA0005F000020A1040020000801405C0000203B
:100CB0006C0200206D020020140000206C06002051
:100CC0000038014066020020670200206802002010
:100CD00058060020800200207802002079020020BF
:100CE0007A0200207B0200207C020020FEE00FE060
:100CF000A448C3788278A4A1AC4810F059FB002026
:100D0000AB490880AB490880AB490880AB49087003
:100D10009C48407802285AD123208DF80C000220EC
:100D20008DF80D000D208DF814000A208DF81500A7
:100D3000102427E09D48005D0D2800D124E09B4849
:100D4000005D2E281AD09948005D2C2816D0052E5B
:100D50000BDC9648005D03A9895D01EB810100EB86
:100D60004100303803A988550AE09048005D05EB42
:100D7000850100EB4100303885B201E0701CC6B23D
:100D8000601CC4B2292CD5DB00BF2846E91705EB4F
:100D90001161090A8DF81210E91705EB11610912AA
:100DA000A5EB0121C9B28DF8131000240DE003A8B2
:100DB000015D83480EF030FC00BF802180480EF0BA
:100DC00099FC0028F9D0601CC4B20A2CEFDB6D48F6
:100DD0004078032819D176480088022805DB0DF0F9
:100DE000E9FC022177480EF06AF86648C1788078FD
:100DF00001EB00207449086000206D4908806D49AE
:100E000008806D4908806D4908705E484078042864
:100E100026D123208DF80C0004208DF80D006A489F
:100E20000088000A8DF80E00674800788DF80F00E2
:100E30000D208DF810000A208DF8110000240DE01F
:100E400003A8015D5E480EF0E7FB00BF80215C480F
:100E50000EF050FC0028F9D0601CC4B2062CEFDB69
:100E60004848407805281ED151480088022801DBF7
:100E70000DF033FD002406E04249A01C085C5349F4
:100E80000855601CC4B252480078001FA042F3DC31
:100E900000204E4908554F4B0A464FA1544810F0C8
:100EA00087FA0DF0F6FC3748407806281ED14048F6
:100EB0000088022801DB0DF010FD002406E0314916
:100EC000A01C085C43490855601CC4B24048007827
:100ED000001FA042F3DC00203E4908550B463B4A68
:100EE0003DA1434810F064FA0DF0D3FC06B070BD8C
:100EF00010B501213F480FF0BEFB002834D001207F
:100F00003D49087000213B480FF0ECF800213948BA
:100F10000FF07CFB012039490870394800783949C5
:100F2000087039480078D8B135480078042817DDB2
:100F300001203649087033480079222803D031480F
:100F4000C078102803D101203149087002E0002048
:100F50002F4908702F4801682F480068FFF74FFDA0
:100F6000012124480FF098FB10BD704700BFFEE739
:100F700000BFFEE700BFFEE700BFFEE77047704717
:100F8000704770475806002041542B534B54434F31
:100F90004E4E4543543D312C25642E25642E256448
:100FA0002E25642C25640D0A00000000730A002021
:100FB00080020020180400201A0400208202002071
:100FC0000038014000080140180000201C000020EB
:100FD000680200203000002041542B43574A415002
:100FE0003D222573222C222573220D0A00000000C9
:100FF0005D04002000080040480000204900002057
:101000004F000020A00400205D0000205C000020B4
:101010005F0000205800002054000020002100E064
:10102000491C8142FCD3704710B5642910D230228C
:1010300002700A22B1FBF2F2303242702E2242706C
:101040000A22B1FBF2F302FB13123032827021E06C
:1010500064291FD3B1F57A7F1CD26422B1FBF2F26E
:10106000303202706422B1FBF2F302FB13120A2346
:10107000B2FBF3F2303242702E2282706422B1FB56
:10108000F2F302FB13120A23B2FBF3F403FB142264
:101090003032C27010BD3EB50C24FB4804800120E4
:1010A0000CF057FE2246F94900200CF02FFE642078
:1010B0000DF0F7FCF54880790104F448C07901EBA4
:1010C0000031F248007A01EB0020F049497A0844E7
:1010D000EF490860ED484179007901EB0020EB49C8
:1010E000C978EA4A9278CDE900210290E74843782E
:1010F0000278E8A1F04810F05BF9E548006842F298
:101100001071B0FBF1F03030EC490870E048006835
:1011100042F21071B0FBF1F201FB12004FF47A7150
:10112000B0FBF1F03030E5494870D94800684FF421
:101130007A71B0FBF1F201FB12006421B0FBF1F017
:101140003030DE498870D24800686421B0FBF1F28B
:1011500001FB12000A21B0FBF1F03030D749C87012
:10116000CB4800680A21B0FBF1F201FB12003030DD
:10117000D2490871C548C17A807A01EB0020D04974
:1011800008603EBD10B5C0480480CE480078CE4906
:101190000870CE4800784870CD4800788870CD48F7
:1011A0000078C870CC490888C11700EB1161090AA2
:1011B000C54A1171C8490888C11700EB11610912AD
:1011C000A0EB01215171B2480068000C11468871F2
:1011D000AF480088C0F30330C871AD480088C0F341
:1011E00003200872AA4800784872B5480088000AAF
:1011F0008872B3480078C8720C2401200CF0A9FD55
:101200002246B14900200CF092FD64200DF049FC0B
:1012100010BD10B532249C48048000200CF099FDCC
:1012200022469A4900200CF071FD64200DF039FC33
:1012300096480078A949087094484078A849086001
:10124000A848096850F82100A74908608F488078AD
:10125000A64908608D48C078A5490860084600681E
:10126000502804DD08460068A0F5807008608748B3
:101270000079A049086008460068502804DD084647
:101280000068A0F580700860804840799A4908603D
:101290007E488079994908607C48C07998490860FF
:1012A0007A48007A974908607848407A96490860F9
:1012B0007648807A954908607448C07A94490860F5
:1012C0007248007B934908607048407B92490860EF
:1012D0006E48807B914908606C48C07B90490880CB
:1012E0006A48007C097800EB01208D490880674836
:1012F000407C8C4908706548807C8B490860634855
:10130000C07C8A4908606148007D894908600846B8
:101310000068502804DD08460068A0F58070086069
:101320005A48407D8349086008460068502804DD1B
:1013300008460068A0F5807008605448807D7E49AA
:1013400008605248C07D7D4908605048007E7C4955
:10135000086008460068642804DD08460068A0F5B7
:10136000807008604948407E7649086008460068F9
:10137000642804DD08460068A0F5807008604348D2
:10138000807E18B14148807EFF2812D13F48C07E40
:1013900018B13E48C07EFF280BD13C48007F18B1F1
:1013A0003A48007FFF2804D14FF4C87066490860AE
:1013B00011E03648807E3549C97E01EB810100EBA2
:1013C00041003249097F01EBC10202EB011100EB40
:1013D00081005D4908602D48407F18B12B48407F4F
:1013E000FF281BD12948807F18B12848807FFF281B
:1013F00014D12648C07F18B12448C07FFF280DD1E2
:10140000224890F8200020B1204890F82000FF28C2
:1014100004D14FF4FA604D49086014E01B48407F46
:101420001A49897F0A2202FB01001849C97F6422F8
:1014300002FB0100154991F820104FF47A7202FB6B
:10144000010042490860114890F8210020B10F487E
:1014500090F82100FF287DD10C4890F8220020B19F
:101460000A4890F82200FF2874D1084890F8230019
:1014700020B1064890F82300FF286BD14FF4C870C4
:101480003349086077E065E064030020010800202C
:101490007402002041542B534B54434F4E4E45434E
:1014A000543D312C25642E25642E25642E25642C74
:1014B00025640D0A00000000730A00206E0200205F
:1014C0001800002078020020CF07002079020020B9
:1014D0007A0200207B0200207C020020C002002053
:1014E000C8020020CC020020C4020020E00200203C
:1014F000E4020020E8020020F4020020F8020020AC
:10150000FC02002000030020040300200803002048
:101510000C030020100300201403002018030020F7
:101520009403002067030020240300202C030020E4
:10153000340300203C030020440300204C0300201F
:10154000540300205C030020B8030020BC030020EB
:10155000C0030020FE4890F82100FD4991F82210B8
:101560000A2202FB0100FA4991F82310642202FBCF
:101570000100F8490860F64890F8240020B1F448CA
:1015800090F82400FF281FD1F14890F8250020B1E1
:10159000EF4890F82500FF2816D1ED4890F8260076
:1015A00020B1EB4890F82600FF280DD1E84890F8CC
:1015B000270020B1E64890F82700FF2804D14FF417
:1015C000FA60E549086017E0E14890F82400E04936
:1015D00091F825100A2202FB0100DD4991F826103E
:1015E000642202FB0100DA4991F827104FF47A7265
:1015F00002FB0100D8490860D54890F8280020B1C6
:10160000D34890F82800FF281FD1D14890F829002E
:1016100020B1CF4890F82900FF2816D1CC4890F887
:101620002A0020B1CA4890F82A00FF280DD1C848E6
:1016300090F82B0020B1C64890F82B00FF2804D169
:101640004FF4FA60C549086017E0C14890F82800D7
:10165000BF4991F829100A2202FB0100BC4991F808
:101660002A10642202FB0100B94991F82B104FF4B3
:101670007A7202FB0100B9490860B54890F82C0065
:1016800020B1B34890F82C00FF281FD1B04890F843
:101690002D0020B1AE4890F82D00FF2816D1AC489F
:1016A00090F82E0020B1AA4890F82E00FF280DD106
:1016B000A74890F82F0020B1A54890F82F00FF28E8
:1016C00004D14FF4FA60A649086017E0A04890F8EA
:1016D0002C009F4991F82D100A2202FB01009C4921
:1016E00091F82E10642202FB0100994991F82F1005
:1016F0004FF47A7202FB01009949086010BD10B5E1
:10170000984804809848007898490870984800786C
:10171000487098480078887097480078C870974853
:10172000007808719648007848719648007888716A
:1017300095480078C87195480078087294480078F8
:10174000487294480078887293480078C872934829
:10175000007808739248007848739248007888733C
:1017600091480088000AC8738F48007808748F4831
:10177000007848748E48007888748E480078C87461
:101780008D48007808758D48007848758C48007839
:1017900088758C480078C8758B48007808768B4827
:1017A000007848768A480068642190FBF1F201FBDA
:1017B00012000A2190FBF1F201FB12006B498876BE
:1017C00083480068642190FBF1F201FB12000A21BA
:1017D00090FBF1F06549C8767D480068642190FB74
:1017E000F1F0624908777B4800684FF47A7190FB0A
:1017F000F1F201FB1200642190FBF1F201FB1200F7
:101800000A2190FBF1F201FB120058494877714818
:1018100000684FF47A7190FBF1F201FB1200642131
:1018200090FBF1F201FB12000A2190FBF1F04F490D
:101830008877684800684FF47A7190FBF1F201FBF9
:101840001200642190FBF1F04849C87761480068B4
:101850004FF47A7190FBF1F0444981F820003D4843
:101860000068642190FBF1F201FB12000A2190FB59
:10187000F1F201FB12003D4981F821003548006872
:10188000642190FBF1F201FB12000A2190FBF1F0C0
:10189000364981F822002F480068642190FBF1F05E
:1018A000324981F823002C4800684FF47A7190FB8C
:1018B000F1F201FB1200642190FBF1F201FB120036
:1018C0000A2190FBF1F201FB1200284981F8240063
:1018D000214800684FF47A7190FBF1F201FB12008D
:1018E000642190FBF1F201FB12000A2190FBF1F060
:1018F0001E4981F82500184800684FF47A7190FB62
:10190000F1F201FB1200642190FBF1F0174981F81C
:101910002600114800684FF47A7190FBF1F01349EA
:1019200081F827000D4800684FF47A7190FBF1F2BE
:1019300001FB1200642190FBF1F201FB12000A216D
:1019400090FBF1F201FB1200084981F8280043E006
:1019500001080020C0030020C4030020C8030020A9
:10196000CC03002064030020C0020020CF07002029
:10197000C8020020E0020020E4020020E80200206B
:10198000F4020020F8020020FC02002000030020E6
:1019900004030020080300200C0300201003002093
:1019A0001403002018030020940300206703002084
:1019B000240300202C030020340300203C030020DB
:1019C000440300204C030020540300205C0300204B
:1019D000B8030020BC030020FE4800684FF47A7171
:1019E00090FBF1F201FB1200642190FBF1F201FB8C
:1019F00012000A2190FBF1F0F74981F82900F5481F
:101A000000684FF47A7190FBF1F201FB120064213F
:101A100090FBF1F0F04981F82A00EE4800684FF49D
:101A20007A7190FBF1F0EC4981F82B00EB480068EB
:101A30004FF47A7190FBF1F201FB1200642190FBEC
:101A4000F1F201FB12000A2190FBF1F201FB1200FE
:101A5000E14981F82C00E14800684FF47A7190FB6D
:101A6000F1F201FB1200642190FBF1F201FB120084
:101A70000A2190FBF1F0D84981F82D00D748006881
:101A80004FF47A7190FBF1F201FB1200642190FB9C
:101A9000F1F0D14981F82E00D04800684FF47A71F6
:101AA00090FBF1F0CC4981F82F00322400200CF09B
:101AB00050F92246C84900200CF039F964200CF096
:101AC000F0FF10BD08B5012114200DF005FC4FF406
:101AD0008060ADF8000010208DF8030003208DF821
:101AE00002006946BE480DF03BF94FF48061BC48E6
:101AF0000DF0E3F90220ADF8000010208DF803008E
:101B000003208DF802006946B6480DF029F902213C
:101B1000B4480DF0D2F92020ADF800006946B14874
:101B20000DF01EF92021AF480DF0C9F91020ADF8D5
:101B300000006946AB480DF013F91021A9480DF0DB
:101B4000BCF908BD08B5012104200DF0C5FB4020FB
:101B5000ADF8000010208DF8030003208DF802007E
:101B60006946A0480DF0FCF808BD10B504464021B8
:101B70009C480DF0A2F9A0B20CF093FF40219948C7
:101B80000DF09DF910BD03B583B003981A2882F0BB
:101B90000184DFE810F01A001C00DB00D2014F02C4
:101BA0007803D0097B045105B00ADC0FE610150656
:101BB0007006EB0683070A08B9087109930BAE0C8F
:101BC000D50DD20EFA11A113E91302F0E3BB0AF00E
:101BD000EEFA002108460AF04CF801220821022002
:101BE00009F0ECFF012102200AF02BF8012104206A
:101BF0000AF027F80AF09CFA7B480078642190FBF1
:101C0000F1F201FB12000A2190FBF1F201FB12003C
:101C1000C0B2014602901A200AF041F872480078DA
:101C2000642190FBF1F201FB12000A2190FBF1F01C
:101C3000C0B2014602901C200AF031F86A480078D0
:101C4000642190FBF1F0C0B2014602901E200AF020
:101C500026F8049810B1012876D13AE0624800785D
:101C6000401E6149087008460078012801DAFE200C
:101C700008700AF05DFA5C480078642190FBF1F28C
:101C800001FB12000A2190FBF1F201FB1200C0B22D
:101C9000014602901A200AF002F8534800786421A5
:101CA00090FBF1F201FB12000A2190FBF1F0C0B2AF
:101CB000014602901C2009F0F2FF4B480078642195
:101CC00090FBF1F0C0B2014602901E2009F0E7FF40
:101CD0003AE045480078401C4349087008460078BF
:101CE000FE2801DD012008700AF022FA3E48007843
:101CF000642190FBF1F201FB12000A2190FBF1F24A
:101D000001FB1200C0B2014602901A2009F0C7FF81
:101D100035480078642190FBF1F201FB12000A21A2
:101D200090FBF1F0C0B2014602901C2009F0B7FF11
:101D30002D480078642190FBF1F0C0B2014602907A
:101D40001E2009F0ACFF00BF00BF3EE70AF02FFAEB
:101D50000221002009F08DFF01220821022009F054
:101D60002DFF01220821022009F066FE0121022038
:101D700009F07FFF0221042009F063FF0AF0D8F97F
:101D80001A481B49096850F821001A49086008469A
:101D90000068642190FBF1F00A2190FBF1F201FB55
:101DA0001200C0B2014602901A2009F078FF1148D3
:101DB0000068642190FBF1F00A2190FBF1F090FBA8
:101DC000F1F201FB1200C0B2014602901C2009F0A2
:101DD00066FF11E0C8030020CF070020CC030020DD
:101DE0000010014000080140C0020020CC02002089
:101DF000C8020020C4020020F748006842F21071B7
:101E000090FBF1F0C0B2014602901E2009F047FF9E
:101E1000049810B1012846D146E0F0480068401E01
:101E2000EE49086008460068002801DA04200860CE
:101E3000EB48EA49096850F82100E749086008467C
:101E400000680CF06AFE0AF073F9E3480068642148
:101E500090FBF1F00A2190FBF1F201FB1200C0B2FD
:101E6000014602901A2009F01AFFDB48006864213D
:101E700090FBF1F00A2190FBF1F090FBF1F201FBF5
:101E80001200C0B2014602901C2009F008FFD2489F
:101E9000006842F2107190FBF1F0C0B2014602906E
:101EA0001E2009F0FCFE46E0CC480068401CCB49EF
:101EB000086008460068042801DD00200860C84862
:101EC000C649096850F82100C349086008460068FF
:101ED0000CF023FE0AF02CF9BF480068642190FB47
:101EE000F1F00A2190FBF1F201FB1200C0B20146B1
:101EF00002901A2009F0D3FEB7480068642190FBD5
:101F0000F1F00A2190FBF1F090FBF1F201FB1200DD
:101F1000C0B2014602901C2009F0C1FEAE48006824
:101F200042F2107190FBF1F0C0B2014602901E2007
:101F300009F0B5FE00BF00BF47E60AF038F90821F6
:101F4000002009F096FE01220821022009F036FE49
:101F50000721022009F08DFE0321042009F071FE03
:101F6000A048006801280AD10AF0E2F80A211A20E4
:101F700009F0ABFE00211C2009F091FE0DE00AF0F3
:101F8000D7F805211A2009F0A0FE05211C2009F030
:101F90009CFE00211E2009F082FE049810B1012849
:101FA00046D122E08F48006868B901208D49086059
:101FB0000AF0BEF80A211A2009F087FE00211C2031
:101FC00009F06DFE10E00020864908600AF0B0F8C4
:101FD00005211A2009F079FE05211C2009F075FE63
:101FE00000211E2009F05BFE22E07E48006868B9EF
:101FF00001207C4908600AF09BF80A211A2009F0A8
:1020000064FE00211C2009F04AFE10E00020754902
:1020100008600AF08DF805211A2009F056FE052106
:102020001C2009F052FE00211E2009F038FE00BFDE
:1020300000BFCAE50AF0BBF80B21002009F019FE29
:1020400001220821022009F0B9FD0321022009F034
:1020500010FE0421084609F0F4FD0121172009F0C3
:1020600072FE0AF065F86048006800280ADA01226A
:102070000821072009F0A2FD5B48006840425B4947
:10208000086008E0584800685849086000220821A4
:10209000072009F093FD00211A2009F000FE01221B
:1020A00011461C2009F08AFD504800680A2190FB67
:1020B000F1F201FB1200C0B2014602901C2009F0AF
:1020C0002AFE4A4800680A2190FBF1F0C0B201469E
:1020D00002901E2009F0E3FD049810B101287AD186
:1020E00088E0434800684049096888422BDB0AF0D1
:1020F0001FF83D48006800280ADA0122082107205D
:1021000009F05CFD3848006840423849086008E042
:10211000354800683549086000220821072009F089
:102120004DFD00220821072009F048FD08211A2052
:1021300009F0CBFD08211C2009F0C7FD06211E2057
:1021400009F0C3FD47E028480068401E26490860A2
:102150000846006810F1280F02DA6FF027000860C7
:1021600009F0E6FF2048006800280ADA0122082169
:10217000072009F023FD1C48006840421B49086005
:1021800008E0194800681949086000220821072062
:1021900009F014FD00211A2009F081FD01221146E9
:1021A0001C2009F00BFD114800680A2190FBF1F298
:1021B00001FB1200C0B2014602901C2009F0ABFDE9
:1021C0000A4800680A2190FBF1F0C0B20146029073
:1021D0001E2009F064FD54E0C4020020C802002063
:1021E000CC020020E0020020E4020020F0020020E7
:1021F000E8020020FE480068401CFD4908600846CF
:102200000068502801DD5020086009F091FFF8486F
:10221000006800280ADA01220821072009F0CEFC14
:10222000F34800684042F349086008E0F04800685D
:10223000F049086000220821072009F0BFFC0021B6
:102240001A2009F02CFD012211461C2009F0B6FCD1
:10225000E84800680A2190FBF1F201FB1200C0B2CD
:10226000014602901C2009F056FDE24800680A2150
:1022700090FBF1F0C0B2014602901E2009F00FFD64
:1022800000BF00BFA1E409F092FF0421002009F083
:10229000F0FC01220821022009F090FC0321022019
:1022A00009F0E7FC0421084609F0CBFC01211720C6
:1022B00009F049FD09F03CFFCF48006800280ADA20
:1022C00001220821072009F079FCCB480068404230
:1022D000CA49086008E0C8480068C8490860002288
:1022E0000821072009F06AFC00211A2009F0D7FC18
:1022F000012211461C2009F061FCC04800680A2137
:1023000090FBF1F201FB1200C0B2014602901C20CA
:1023100009F001FDB94800680A2190FBF1F0C0B254
:10232000014602901E2009F0BAFC049810B1012861
:1023300048D148E0B0480068401EAF4908600846F0
:10234000006810F1280F02DA6FF02700086009F02A
:10235000EFFEA948006800280ADA012208210720B8
:1023600009F02CFCA44800684042A449086008E039
:10237000A1480068A149086000220821072009F04F
:102380001DFC00211A2009F08AFC012211461C20A4
:1023900009F014FC994800680A2190FBF1F201FB56
:1023A0001200C0B2014602901C2009F0B4FC934810
:1023B00000680A2190FBF1F0C0B2014602901E2095
:1023C00009F06DFC60E08C48006889490968884222
:1023D00013DB09F0ADFE00220821072009F0EEFB17
:1023E00008211A2009F071FC08211C2009F06DFC5D
:1023F00006211E2009F069FC45E07F480068401C6A
:102400007D49086008460068502801DD50200860BA
:1024100009F08EFE7848006800280ADA01220821B7
:10242000072009F0CBFB74480068404273490860FC
:1024300008E07148006871490860002208210720FF
:1024400009F0BCFB00211A2009F029FC01221146E9
:102450001C2009F0B3FB694800680A2190FBF1F2E7
:1024600001FB1200C0B2014602901C2009F053FC8F
:10247000624800680A2190FBF1F0C0B20146029068
:102480001E2009F00CFC00BF00BF5EE40022082102
:10249000072009F093FB09F08AFE0B21002009F0C8
:1024A000E8FB01220821022009F088FB0B21022011
:1024B00009F0DFFB0421084609F0C3FB09F038FEF0
:1024C00000220821072009F079FB00211A2009F0D9
:1024D00022FC012211461C2009F070FB48480068CC
:1024E0000A2190FBF1F201FB1200C0B201460290FA
:1024F0001C2009F010FC424800680A2190FBF1F012
:10250000C0B2014602901E2009F0C9FB049810B128
:1025100001284DD14DE03A4800683A49096888429F
:1025200013DC09F005FE00220821072009F046FB14
:1025300008211A2009F0C9FB08211C2009F0C5FB5D
:1025400006211E2009F0C1FB32E02D480068401E24
:102550002B49086008460068002801DA012008605D
:1025600009F0E6FD00220821072009F027FB0021E1
:102570001A2009F0D0FB012211461C2009F01EFB95
:102580001F4800680A2190FBF1F201FB1200C0B263
:10259000014602901C2009F0BEFB194800680A2180
:1025A00090FBF1F0C0B2014602901E2009F077FBCB
:1025B00040E013480068401C114908600846006864
:1025C000632801DD6320086009F0B2FD00220821C4
:1025D000072009F0F3FA00211A2009F09CFB0122E0
:1025E00011461C2009F0EAFA054800680A210BE0B0
:1025F000E4020020F0020020E8020020EC020020AB
:10260000F4020020F802002090FBF1F201FB12001E
:10261000C0B2014602901C2009F07DFBFE48006814
:102620000A2190FBF1F0C0B2014602901E2009F091
:1026300036FB00BF00BF7FE409F0B9FD0421002094
:1026400009F017FB01220821022009F0B7FA0B213B
:10265000022009F00EFB0421084609F0F2FA09F005
:1026600067FD00220821072009F0A8FA00211A209E
:1026700009F051FB012211461C2009F09FFAE7489E
:1026800000680A2190FBF1F201FB1200C0B2014682
:1026900002901C2009F03FFBE04800680A2190FBF3
:1026A000F1F0C0B2014602901E2009F0F8FA049839
:1026B00010B1012833D133E0D8480068401ED74913
:1026C000086008460068002801DA0020086009F068
:1026D0002FFD00220821072009F070FA00211A209E
:1026E00009F019FB012211461C2009F067FACB48BA
:1026F00000680A2190FBF1F201FB1200C0B2014612
:1027000002901C2009F007FBC44800680A2190FBD6
:10271000F1F0C0B2014602901E2009F0C0FA4DE06F
:10272000BD480068BD490968884213DC09F000FD16
:1027300000220821072009F041FA08211A2009F097
:10274000C4FA08211C2009F0C0FA06211E2009F055
:10275000BCFA32E0B1480068401CB0490860084645
:102760000068632801DD6320086009F0E1FC0022B5
:102770000821072009F022FA00211A2009F0CBFADB
:10278000012211461C2009F019FAA44800680A2108
:1027900090FBF1F201FB1200C0B2014602901C2036
:1027A00009F0B9FA9D4800680A2190FBF1F0C0B227
:1027B000014602901E2009F072FA00BF00BF38E403
:1027C00009F0F5FC0521002009F053FA0122082147
:1027D000022009F0F3F90321022009F04AFA062148
:1027E000042009F02EFA0121172009F0ACFA09F0B3
:1027F0009FFC8B480068012804D105211C2009F0AA
:1028000064FA03E003211C2009F05FFA049810B178
:1028100001282ED116E08248006848B9012080497D
:10282000086009F085FC05211C2009F04EFA08E03B
:1028300000207B49086009F07BFC03211C2009F083
:1028400044FA16E07648006848B9012074490860E7
:1028500009F06EFC05211C2009F037FA08E0002081
:102860006F49086009F064FC03211C2009F02DFA6F
:1028700000BF00BF06E509F09AFC0821002009F01E
:10288000F8F901220821022009F098F90521022017
:1028900009F0EFF90721042009F0D3F909F048FC09
:1028A00060480068012808D10A211A2009F00DFAB1
:1028B00000211C2009F0F3F90BE005211A2009F092
:1028C00004FA05211C2009F000FA00211E2009F05D
:1028D000E6F9049810B1012846D122E05148006879
:1028E00068B901204F49086009F022FC0A211A202A
:1028F00009F0EBF900211C2009F0D1F910E00020CB
:102900004849086009F014FC05211A2009F0DDF996
:1029100005211C2009F0D9F900211E2009F0BFF97A
:1029200022E04048006868B901203E49086009F08B
:10293000FFFB0A211A2009F0C8F900211C2009F028
:10294000AEF910E000203749086009F0F1FB0521DD
:102950001A2009F0BAF905211C2009F0B6F9002166
:102960001E2009F09CF900BF00BF8BE409F01FFC9A
:102970000121002009F065F901220821022009F057
:102980001DF90321022009F074F90821042009F03F
:1029900058F909F0CDFB2448006838B90A211A20FB
:1029A00009F093F900211C2009F079F91E4800680C
:1029B00001280BD105211A2009F087F905211C20D7
:1029C00009F083F900211E2009F069F9049810B17B
:1029D000012861D135E014480068401E12490860A2
:1029E00008460068002801DA012008600E480068E7
:1029F00048B909F09DFB0A211A2009F066F9002167
:102A00001C2009F04CF908480068012818D109F089
:102A10008FFB05211A2009E0F4020020F8020020B3
:102A2000FC020020000300200403002009F04DF9FF
:102A300005211C2009F049F900211E2009F02FF979
:102A40002AE0FE480068401CFC490860084600680F
:102A5000012801DD00200860F848006848B909F045
:102A600067FB0A211A2009F030F900211C2009F027
:102A700016F9F248006801280DD109F059FB05212B
:102A80001A2009F022F905211C2009F01EF9002165
:102A90001E2009F004F900BF00BFF6E409F087FB2F
:102AA0000221002009F0CDF801220821022009F0BE
:102AB00085F80321022009F0DCF80821042009F040
:102AC000C0F809F035FBDE48006801280CD103216D
:102AD0001A2009F0FAF809211C2009F0F6F8032160
:102AE0001E2009F0F2F80BE000211A2009F0EDF8A1
:102AF00008211C2009F0E9F800211E2009F0CFF878
:102B0000049810B101284ED126E0CD48006888B95C
:102B10000120CB49086009F00BFB03211A2009F0C2
:102B2000D4F809211C2009F0D0F803211E2009F057
:102B3000CCF810E00020C249086009F0F9FA002141
:102B40001A2009F0C2F808211C2009F0BEF8002163
:102B50001E2009F0A4F826E0B948006888B90120D1
:102B6000B749086009F0E4FA03211A2009F0ADF82A
:102B700009211C2009F0A9F803211E2009F0A5F85D
:102B800010E00020AE49086009F0D2FA00211A20B6
:102B900009F09BF808211C2009F097F800211E205D
:102BA00009F07DF800BF00BF6FE409F000FB0321CE
:102BB000002009F046F801220821022008F0FEFF5B
:102BC0000321022009F055F80821042009F039F802
:102BD00009F0AEFA9B4800680A2190FBF1F201FB74
:102BE0001200C0B2014602901A2009F058F8954828
:102BF00000680A2190FBF1F090FBF1F201FB12005A
:102C0000C0B2014602901C2009F049F88D480068C6
:102C1000642190FBF1F0C0B2014602901E2009F041
:102C20003EF8049810B101286CD135E08548006861
:102C3000401E8449086008460068012802DA4FF403
:102C40001670086009F074FA7E4800680A2190FB4B
:102C5000F1F201FB1200C0B2014602901A2009F005
:102C60001EF8784800680A2190FBF1F090FBF1F221
:102C700001FB1200C0B2014602901C2009F00FF8BF
:102C800070480068642190FBF1F0C0B201460290E8
:102C90001E2009F004F835E06A480068401C6949C4
:102CA000086008460068B0F5167F01DD0120086065
:102CB00009F03EFA634800680A2190FBF1F201FB3B
:102CC0001200C0B2014602901A2008F0E8FF5D48E9
:102CD00000680A2190FBF1F090FBF1F201FB120079
:102CE000C0B2014602901C2008F0D9FF5548006888
:102CF000642190FBF1F0C0B2014602901E2008F062
:102D0000CEFF00BF00BF96E409F051FA0421002075
:102D100008F097FF01220821022008F04FFF03214D
:102D2000022008F0A6FF0821042008F08AFF09F01D
:102D3000FFF9454800680A2190FBF1F201FB1200FF
:102D4000C0B2014602901A2008F0A9FF3E48006870
:102D50000A2190FBF1F090FBF1F201FB1200C0B2EE
:102D6000014602901C2008F09AFF37480068642151
:102D700090FBF1F0C0B2014602901E2008F08FFFD8
:102D8000049810B1012875D135E02F480068401E25
:102D90002D49086008460068012802DA4FF41670D1
:102DA000086009F0C5F9284800680A2190FBF1F293
:102DB00001FB1200C0B2014602901A2008F06FFF1A
:102DC000214800680A2190FBF1F090FBF1F201FB31
:102DD0001200C0B2014602901C2008F060FF1A48A1
:102DE0000068642190FBF1F0C0B2014602901E2001
:102DF00008F055FF3EE014480068401C1249086086
:102E000008460068B0F5167F01DD0120086009F072
:102E10008FF90D4800680A2190FBF1F201FB1200C6
:102E2000C0B2014602901A2008F039FF0648006837
:102E30000A2190FBF1F090FBF1F207E0040300207F
:102E4000080300200C0300201003002001FB1200E7
:102E5000C0B2014602901C2008F021FFFE48006825
:102E6000642190FBF1F0C0B2014602901E2008F0F0
:102E700016FF00BF00BFA2E409F099F90521002068
:102E800008F0DFFE01220821022008F097FE03214E
:102E9000022008F0EEFE0821042008F0D2FE09F01E
:102EA00047F9EE4800680A2190FBF1F201FB12009D
:102EB000C0B2014602901A2008F0F1FE049810B149
:102EC000012836D11AE0E5480068401EE349086051
:102ED00008460068002801DA0120086009F028F996
:102EE000DE4800680A2190FBF1F201FB1200C0B23B
:102EF000014602901A2008F0D2FE1AE0D748006876
:102F0000401CD649086008460068012801DD002001
:102F1000086009F00DF9D14800680A2190FBF1F230
:102F200001FB1200C0B2014602901A2008F0B7FE61
:102F300000BF00BF43E409F03AF90022082107204E
:102F400008F03CFE002208210A2008F037FE00218C
:102F5000084608F08EFE01220821022008F02EFE0D
:102F60000321022008F085FE0421084608F069FECE
:102F70000121172008F0E7FE09F0DAF8B8480068E8
:102F80000A2190FBF1F201FB1200C0B2014602904F
:102F90001A2008F084FE012211461C2008F00EFEC3
:102FA000AF4800680A2190FBF1F090FBF1F201FBC1
:102FB0001200C0B2014602901C2008F0ACFEA848E6
:102FC0000068642190FBF1F0C0B2014602901E201F
:102FD00008F065FE049810B1012839D139E0A04805
:102FE0000068401E9E49086008460068002801DA13
:102FF0000020086009F09CF8994800680A2190FBBD
:10300000F1F201FB1200C0B2014602901A2008F052
:1030100046FE012211461C2008F0D0FD90480068B1
:103020000A2190FBF1F090FBF1F201FB1200C0B21B
:10303000014602901C2008F06EFE89480068642159
:1030400090FBF1F0C0B2014602901E2008F027FE6E
:103050004FE083480068401C81490860814800684F
:1030600081490968401A032190FBF1F000EB8000D0
:103070007B490968B1EB400F0CDD7A4800687A495A
:103080000968401A032190FBF1F000EB800040003A
:103090007349086009F04CF8714800680A2190FBF8
:1030A000F1F201FB1200C0B2014602901A2008F0B2
:1030B000F6FD012211461C2008F080FD68480068DA
:1030C0000A2190FBF1F090FBF1F201FB1200C0B27B
:1030D000014602901C2008F01EFE61480068642131
:1030E00090FBF1F0C0B2014602901E2008F0D7FD1F
:1030F00000BF00BF39E409F05AF80021084608F083
:10310000B8FD01220821022008F058FD0B21022001
:1031100008F0AFFD0421084608F093FD534800680D
:103120000A2190FBF1F201FB1200C0B2024601211C
:1031300002901C2008F042FD08F0FAFF00211A203E
:1031400008F0E9FD494800680A2190FBF1F090FB86
:10315000F1F201FB1200C0B2014602901C2008F0FF
:10316000DAFD42480068642190FBF1F0C0B20146EC
:1031700002901E2008F093FD049810B1012839D167
:1031800039E03A480068401E38490860084600683F
:10319000002801DA0020086008F0CAFF3348006800
:1031A0000A2190FBF1F201FB1200C0B2014602902D
:1031B0001A2008F0B0FD012211461C2008F0FEFC88
:1031C0002A4800680A2190FBF1F090FBF1F201FB24
:1031D0001200C0B2014602901C2008F09CFD23485A
:1031E0000068642190FBF1F0C0B2014602901E20FD
:1031F00008F055FD60E01D480068401C1B49086050
:103200001B4800681B490968401A032190FBF1F034
:1032100000EB800015490968B1EB400F0CDD144844
:10322000006814490968401A032190FBF1F000EB93
:10323000800040000D49086008F07AFF0B480068E4
:103240000A2190FBF1F201FB1200C0B2014602908C
:103250001A2008F060FD0FE010030020200300207A
:1032600024030020E4020020E80200202C030020B8
:10327000F4020020F8020020012211461C2008F070
:103280009DFCFE4800680A2190FBF1F090FBF1F2F2
:1032900001FB1200C0B2014602901C2008F03BFD69
:1032A000F6480068642190FBF1F0C0B2014602903C
:1032B0001E2008F0F4FC00BF00BF75E408F077FFA3
:1032C0000021084608F0BDFC01220821022008F078
:1032D00075FC0321022008F0CCFC0721042008F033
:1032E000C8FC0121172008F02EFD08F021FFE4485A
:1032F000006800280ADA01220821072008F05EFC95
:10330000DF4800684042DF49086008E0DC480068A8
:10331000DC49086000220821072008F04FFC00214A
:103320001A2008F0BCFC012211461C2008F046FCC3
:10333000D44800680A2190FBF1F201FB1200C0B2F0
:10334000014602901C2008F0E6FCCE4800680A21E5
:1033500090FBF1F0C0B2014602901E2008F09FFCE5
:10336000049810B1012848D148E0C5480068401EC3
:10337000C34908600846006810F1280F02DA6FF0B0
:103380002700086008F0D4FEBD48006800280ADA6B
:1033900001220821072008F011FCB94800684042CA
:1033A000B849086008E0B6480068B64908600022DD
:1033B0000821072008F002FC00211A2008F06FFC09
:1033C000012211461C2008F0F9FBAE4800680A21D2
:1033D00090FBF1F201FB1200C0B2014602901C20EA
:1033E00008F099FCA74800680A2190FBF1F0C0B2F0
:1033F000014602901E2008F052FC78E0A0480068C8
:10340000A149096888422BDB08F092FE9C480068BD
:1034100000280ADA01220821072008F0CFFB98488B
:10342000006840429749086008E09548006895495F
:10343000086000220821072008F0C0FB00220821B4
:10344000072008F0BBFB08211A2008F03EFC0821E9
:103450001C2008F03AFC06211E2008F036FC45E04E
:1034600087480068401C8649086008460068502864
:1034700001DD5020086008F05BFE814800680028EC
:103480000ADA01220821072008F098FB7C4800682E
:1034900040427C49086008E0794800687949086042
:1034A00000220821072008F089FB00211A2008F0DB
:1034B000F6FB012211461C2008F080FB71480068D1
:1034C0000A2190FBF1F201FB1200C0B2014602900A
:1034D0001C2008F020FC6B4800680A2190FBF1F0EA
:1034E000C0B2014602901E2008F0D9FB00BF00BF09
:1034F00009E408F05CFE0121002008F0A2FB012293
:103500000821022008F05AFB0321022008F0B1FB39
:103510000721042008F0ADFB0121172008F013FC5F
:1035200008F006FE5848006800280ADA012208213F
:10353000072008F043FB54480068404253490860A4
:1035400008E051480068514908600022082107201E
:1035500008F034FB00211A2008F0A1FB01221146DB
:103560001C2008F02BFB494800680A2190FBF1F26F
:1035700001FB1200C0B2014602901C2008F0CBFBF8
:10358000424800680A2190FBF1F0C0B20146029067
:103590001E2008F084FB049810B1012878D186E041
:1035A000374800683849096888422BDB08F0C0FDBD
:1035B0003548006800280ADA01220821072008F0AF
:1035C000FDFA3148006840423049086008E02E4862
:1035D00000682E49086000220821072008F0EEFA52
:1035E00000220821072008F0E9FA08211A2008F033
:1035F0006CFB08211C2008F068FB06211E2008F047
:1036000064FB53E020480068401E1F4908600846DC
:10361000006810F1280F02DA6FF02700086008F048
:1036200087FD1948006800280ADA012208210720CE
:1036300008F0C4FA1448006840421449086008E0E1
:10364000114800681149086000220821072008F08D
:10365000B5FA00211A2008F022FB012211461C2095
:1036600008F0ACFA094800680A2190FBF1F201FB6E
:103670001200C0B2014602901C200AE02C03002078
:1036800034030020380300203C03002040030020C6
:1036900054E008F040FBFE4800680A2190FBF1F07E
:1036A000C0B2014602901E2008F0F9FA46E0F9483F
:1036B0000068401CF749086008460068502801DD92
:1036C0005020086008F034FDF248006800280ADA4B
:1036D00001220821072008F071FAEE4800684042F4
:1036E000EB49086008E0EB480068E94908600022FF
:1036F0000821072008F062FA00211A2008F0CFFA0A
:10370000012211461C2008F059FAE14800680A21FC
:1037100090FBF1F201FB1200C0B2014602901C20A6
:1037200008F0F9FADA4800680A2190FBF1F0C0B21B
:10373000014602901E2008F0B2FA00BF00BFD9E493
:1037400008F035FD0021084608F07BFA0122082127
:10375000022008F033FA0B21022008F08AFA072130
:10376000042008F086FA08F0E3FCCB480068002843
:103770000ADA01220821072008F020FAC64800686A
:103780004042C649086008E0C3480068C349086071
:1037900000220821072008F011FA00211A2008F061
:1037A000BAFA012211461C2008F008FABB4800684A
:1037B0000A2190FBF1F201FB1200C0B20146029017
:1037C0001C2008F0A8FAB54800680A2190FBF1F027
:1037D000C0B2014602901E2008F061FA049810B1B0
:1037E000012846D146E0AC480068401EAA4908605E
:1037F00008460068002801DA0020086008F098FCFC
:10380000A548006800280ADA01220821072008F0EC
:10381000D5F9A14800684042A049086008E09E48E8
:1038200000689E49086000220821072008F0C6F9B8
:1038300000211A2008F06FFA012211461C2008F01E
:10384000BDF9964800680A2190FBF1F201FB1200D5
:10385000C0B2014602901C2008F05DFA8F48006853
:103860000A2190FBF1F0C0B2014602901E2008F040
:1038700016FA60E08848006889490968884226DBB2
:1038800008F056FC8448006800280ADA0122082162
:10389000072008F093F98048006840427F4908609B
:1038A00008E07D4800687D49086000220821072063
:1038B00008F084F908211A2008F007FA08211C20D2
:1038C00008F003FA06211E2008F0FFF933E07248E1
:1038D0000068401C7049086008460068632801DDE4
:1038E0000920086008F024FC00220821072008F0C5
:1038F00065F900211A2008F00EFA012211461C2059
:1039000008F05CF9654800680A2190FBF1F201FBC0
:103910001200C0B2014602901C2008F0FCF95F487A
:1039200000680A2190FBF1F0C0B2014602901E200F
:1039300008F0B5F900BF00BFBFE408F038FC012172
:10394000002008F07EF901220821022008F036F953
:103950000B21022008F08DF90721042008F089F9D5
:1039600008F0E6FB4E48006800280ADA0122082128
:10397000072008F023F94A48006840424949086096
:1039800008E04748006847490860002208210720EE
:1039900008F014F900211A2008F0BDF9012211469F
:1039A0001C2008F00BF93F4800680A2190FBF1F257
:1039B00001FB1200C0B2014602901C2008F0ABF9D6
:1039C000384800680A2190FBF1F0C0B2014602902D
:1039D0001E2008F064F9049810B101286DD16DE043
:1039E0002D4800682E490968884213DB08F0A0FBC7
:1039F00000220821072008F0E1F808211A2008F029
:103A000064F908211C2008F060F906211E2008F046
:103A10005CF952E022480068401E214908600846CF
:103A20000068002801DA0020086008F081FB1C48CB
:103A3000006800280ADA01220821072008F0BEF8F1
:103A40001748006840421749086008E014480068B9
:103A50001449086000220821072008F0AFF800216F
:103A60001A2008F058F9012211461C2008F0A6F887
:103A70000C4800680A2190FBF1F201FB1200C0B271
:103A8000014602901C2008F046F9064800680BE049
:103A9000400300203C030020440300204803002092
:103AA0004C030020500300200A2190FBF1F0C0B22B
:103AB000014602901E2008F0F2F846E0FE48006839
:103AC000401CFD49086008460068632801DD63204A
:103AD000086008F02DFBF848006800280ADA012287
:103AE0000821072008F06AF8F34800684042F349CB
:103AF000086008E0F0480068F049086000220821EA
:103B0000072008F05BF800211A2008F004F90122D0
:103B100011461C2008F052F8E84800680A2190FB82
:103B2000F1F201FB1200C0B2014602901C2008F025
:103B3000F2F8E24800680A2190FBF1F0C0B20146B9
:103B400002901E2008F0ABF800BF00BF1CE208F096
:103B50002EFB0021084608F074F8012208210220FB
:103B600008F02CF80321022008F083F80521042036
:103B700008F067F80121172008F0E5F808F0D8FAF6
:103B8000CF48006800280ADA01220821072008F03F
:103B900015F8CB4800684042CA49086008E0C848A8
:103BA0000068C849086000220821072008F006F8CC
:103BB000C44800680A2190FBF1F201FB1200C0B278
:103BC000014602901A2008F06AF8012211461C20D2
:103BD00007F0F4FFBB4800680A2190FBF1F090FB6E
:103BE000F1F201FB1200C0B2014602901C2008F065
:103BF00092F8B4480068642190FBF1F0C0B201462D
:103C000002901E2008F04BF8049810B1012853D1FF
:103C100053E0AB480068401EA949086008460068A8
:103C200010F1640F02DA6FF063000860A4480068C6
:103C300000280ADA01220821072007F0BFFFA04868
:103C4000006840429F49086008E09D4800689D491F
:103C5000086000220821072007F0B0FF08F068FA8A
:103C6000984800680A2190FBF1F201FB1200C0B2F3
:103C7000014602901A2008F012F8012211461C2079
:103C800007F09CFF8F4800680A2190FBF1F090FB41
:103C9000F1F201FB1200C0B2014602901C2008F0B4
:103CA0003AF888480068642190FBF1F0C0B2014600
:103CB00002901E2007F0F3FF51E081480068401C8D
:103CC0007F49086008460068642801DD64200860B8
:103CD0007B48006800280ADA01220821072007F043
:103CE0006DFF7748006840427649086008E07448F4
:103CF00000687449086000220821072007F05EFF71
:103D000008F016FA6F4800680A2190FBF1F201FBF7
:103D10001200C0B2014602901A2007F0C0FF012233
:103D200011461C2007F04AFF664800680A2190FBF4
:103D3000F1F090FBF1F201FB1200C0B201460290DB
:103D40001C2007F0E8FF5F480068642190FBF1F059
:103D5000C0B2014602901E2007F0A1FF00BF00BFC5
:103D600018E308F024FA0021084607F06AFF012250
:103D70000821022007F022FF0B21022007F079FF23
:103D80000521042007F05DFF08F0D2F94E480068D5
:103D900000280ADA01220821072007F00FFF4A480D
:103DA000006840424949086008E0474800684749C0
:103DB000086000220821072007F000FF4348006840
:103DC0000A2190FBF1F201FB1200C0B20146029001
:103DD0001A2007F0A0FF012211461C2007F0EEFE7A
:103DE0003A4800680A2190FBF1F090FBF1F201FBE8
:103DF0001200C0B2014602901C2007F08CFF33482D
:103E00000068642190FBF1F0C0B2014602901E20D0
:103E100007F045FF049810B1012861D161E02A48FC
:103E20000068401E284908600846006810F1640FC9
:103E300002DA6FF0630008602348006800280ADA9D
:103E400001220821072007F0B9FE1F480068404200
:103E50001E49086008E01C4800681C4908600022F0
:103E60000821072007F0AAFE08F062F91748006849
:103E70000A2190FBF1F201FB1200C0B20146029050
:103E80001A2007F048FF012211461C2007F096FE79
:103E90000E4800680A2190FBF1F090FBF1F201FB63
:103EA0001200C0B2014602901C2007F034FF074800
:103EB000006864210CE000004C0300205003002047
:103EC00054030020580300205C03002060030020FE
:103ED00090FBF1F0C0B2014602901E2007F0DFFE19
:103EE00051E0F9480068401CF7490860084600683E
:103EF000642801DD64200860F348006800280ADABD
:103F000001220821072007F059FEEF4800684042CF
:103F1000EE49086008E0EC480068EC4908600022BF
:103F20000821072007F04AFE08F002F9E748006878
:103F30000A2190FBF1F201FB1200C0B2014602908F
:103F40001A2007F0E8FE012211461C2007F036FE79
:103F5000DE4800680A2190FBF1F090FBF1F201FBD2
:103F60001200C0B2014602901C2007F0D4FED748D0
:103F70000068642190FBF1F0C0B2014602901E205F
:103F800007F08DFE00BF00BF04E208F010F9082121
:103F9000002007F06EFE0721022007F06AFE0121D3
:103FA000042007F066FE00220821072007F006FE25
:103FB00008F0BEF84FF08041C54800680EF058FA8E
:103FC0000290C44800680146019002980EF01CFA65
:103FD00008D201211C2007F062FE00211A2007F000
:103FE0005EFE70E14FF08041B94800680EF040FA83
:103FF0000290B84840680146019002980EF004FA19
:1040000017D24FF08041B24800680EF031FA0290AA
:10401000B04800680146019002980EF0F5FA08D801
:1040200002211C2007F03BFE00211A2007F037FE7A
:1040300049E14FF08041A64800680EF019FA02905D
:10404000A44880680146019002980EF0DDF917D26D
:104050004FF080419E4800680EF00AFA02909D4899
:1040600040680146019002980EF0CEFA08D803216C
:104070001C2007F014FE00211A2007F010FE22E198
:104080004FF08041924800680EF0F2F9029091489A
:10409000C0680146019002980EF0B6F917D24FF0B1
:1040A00080418B4800680EF0E3F9029089488068EF
:1040B0000146019002980EF0A7FA08D804211C20AE
:1040C00007F0EDFD00211A2007F0E9FDFBE04FF0BD
:1040D00080417F4800680EF0CBF902907D4800696E
:1040E0000146019002980EF08FF917D24FF08041EF
:1040F000774800680EF0BCF902907648C068014627
:10410000019002980EF080FA08D805211C2007F0D3
:10411000C6FD00211A2007F0C2FDD4E04FF0804117
:104120006B4800680EF0A4F902906A4840690146A5
:10413000019002980EF068F917D24FF08041644860
:1041400000680EF095F902906248006901460190FE
:1041500002980EF059FA08D806211C2007F09FFD9E
:1041600000211A2007F09BFDADE04FF08041584838
:1041700000680EF07DF90290564880690146019072
:1041800002980EF041F917D24FF080415048006874
:104190000EF06EF902904F48406901460190029876
:1041A0000EF032FA08D807211C2007F078FD002114
:1041B0001A2007F074FD86E04FF080414448006803
:1041C0000EF056F902904348C069014601900298EA
:1041D0000EF01AF917D24FF080413D4800680EF0FA
:1041E00047F902903B4880690146019002980EF021
:1041F0000BFA08D808211C2007F051FD00211A20D5
:1042000007F04DFD5FE04FF08041314800680EF04F
:104210002FF902902F48006A0146019002980EF093
:10422000F3F817D24FF08041294800680EF020F9CA
:1042300002902848C0690146019002980EF0E4F906
:1042400008D809211C2007F02AFD00211A2007F0B8
:1042500026FD38E04FF080411D4800680EF008F957
:1042600002901C48406A0146019002980EF0CCF87A
:104270000ED24FF08041164800680EF0F9F8029017
:104280001448006A0146019002980EF0BDF90ED95B
:104290004FF080410E4800680EF0EAF802900D4899
:1042A000406A0146019002980EF0AEF90BD8012148
:1042B0001E2007F0F4FC00211C2007F0F0FC002178
:1042C0001A2007F0ECFC65E05C030020600300208E
:1042D000DC030020E803002007F069FF0421002030
:1042E00007F0C7FC0621022007F0C3FC05210420CB
:1042F00007F0A7FC07F01CFFFE480078014602907B
:104300001A2007F0CCFC049810B101282AD114E03F
:10431000F8480068401EF749086008460068012810
:1043200001DA0420086007F003FFF2480078014634
:1043300002901A2007F0B3FC14E0EE480068401C1D
:10434000EC49086008460068042801DD0120086087
:1043500007F0EEFEE7480078014602901A2007F0C9
:104360009EFC00BF00BF15E007F021FF06210220E0
:1043700007F067FC0121042007F063FC07F0D8FE7A
:104380000120DD4908600020DC4908600120DC498B
:10439000086000BF00BF05B000BD03B583B003983F
:1043A0001A2882F02683DFE810F01A001C00DB00D8
:1043B000D0014D024B0356040B05BB0521069C069C
:1043C0002907B0076A0819097809410AFD0A060C8D
:1043D000040DFC0D010F0B101E11C6120E1302F07E
:1043E00008BB07F0E4FE0021084607F042FC01226A
:1043F0000821022007F0E2FB0121022007F021FC46
:104400000121042007F01DFC07F092FEBD48007852
:10441000642190FBF1F201FB12000A2190FBF1F202
:1044200001FB1200C0B2014602901A2007F037FCCF
:10443000B4480078642190FBF1F201FB12000A21DC
:1044400090FBF1F0C0B2014602901C2007F027FC5F
:10445000AC480078642190FBF1F0C0B201460290B4
:104460001E2007F01CFC049810B1012876D13AE018
:10447000A4480078401EA349087008460078012827
:1044800001DAFE20087007F053FE9E480078642190
:1044900090FBF1F201FB12000A2190FBF1F201FB0B
:1044A0001200C0B2014602901A2007F0F8FB9548AE
:1044B0000078642190FBF1F201FB12000A2190FBCD
:1044C000F1F0C0B2014602901C2007F0E8FB8D48D5
:1044D0000078642190FBF1F0C0B2014602901E20EA
:1044E00007F0DDFB3AE087480078401C85490870FA
:1044F00008460078FE2801DD0120087007F018FE4C
:1045000080480078642190FBF1F201FB12000A213F
:1045100090FBF1F201FB1200C0B2014602901A209A
:1045200007F0BDFB77480078642190FBF1F201FBB6
:1045300012000A2190FBF1F0C0B2014602901C204B
:1045400007F0ADFB6F480078642190FBF1F0C0B23A
:10455000014602901E2007F0A2FB00BF00BF3EE70D
:1045600007F025FE0221002007F083FB012208212D
:10457000022007F023FB01220821022007F05CFA49
:104580000121022007F075FB0221042007F059FBEE
:1045900007F0CEFD5C485D49096850F821005C4990
:1045A000086008460068642190FBF1F00A2190FB46
:1045B000F1F201FB1200C0B2014602901A2007F08E
:1045C0006EFB53480068642190FBF1F00A2190FBD8
:1045D000F1F090FBF1F201FB1200C0B20146029033
:1045E0001C2007F05CFB4A48006842F2107190FB07
:1045F000F1F0C0B2014602901E2007F050FB049873
:1046000010B1012846D146E040480068401E3F49AD
:10461000086008460068002801DA042008603A486B
:104620003A49096850F8210039490860084600688D
:104630000AF073FA07F07CFD35480068642190FBAE
:10464000F1F00A2190FBF1F201FB1200C0B2014629
:1046500002901A2007F023FB2D480068642190FB8C
:10466000F1F00A2190FBF1F090FBF1F201FB120056
:10467000C0B2014602901C2007F011FB24480068DC
:1046800042F2107190FBF1F0C0B2014602901E2080
:1046900007F005FB57E01D480068401C1B490860F7
:1046A00008460068042801DD002008601648174904
:1046B000096850F8210016490860084600680AF0A9
:1046C0002CFA07F035FD12480068642190FBF1F0E8
:1046D0000A2190FBF1F201FB1200C0B201460290E8
:1046E0001A2007F0DCFA0A480068642190FBF1F018
:1046F0000A210FE01803002084030020700300202B
:104700008C030020C0020020CC020020C802002040
:10471000C402002090FBF1F090FBF1F201FB1200CB
:10472000C0B2014602901C2007F0B9FAFE480068AA
:1047300042F2107190FBF1F0C0B2014602901E20CF
:1047400007F0ADFA00BF00BF49E607F030FD0821D1
:10475000002007F08EFA01220821022007F02EFA2D
:104760000721022007F085FA0321042007F069FAE7
:10477000EE48006801280AD107F0DAFC0A211A2065
:1047800007F0A3FA00211C2007F089FA0DE007F0DA
:10479000CFFC05211A2007F098FA05211C2007F00C
:1047A00094FA00211E2007F07AFA049810B101282B
:1047B00046D122E0DD48006868B90120DB49086085
:1047C00007F0B6FC0A211A2007F07FFA00211C200E
:1047D00007F065FA10E00020D449086007F0A8FC53
:1047E00005211A2007F071FA05211C2007F06DFA47
:1047F00000211E2007F053FA22E0CC48006868B977
:104800000120CA49086007F093FC0A211A2007F02A
:104810005CFA00211C2007F042FA10E00020C34996
:10482000086007F085FC05211A2007F04EFA0521E3
:104830001C2007F04AFA00211E2007F030FA00BFC2
:1048400000BFCCE507F0B3FC0B21002007F011FA04
:1048500001220821022007F0B1F90321022007F00C
:1048600008FA0421084607F0ECF90121172007F0A7
:104870006AFA07F05DFCAE48006800280ADA0122F7
:104880000821072007F09AF9A94800684042A94981
:10489000086008E0A6480068A649086000220821D0
:1048A000072007F08BF900211A2007F0F8F9012200
:1048B00011461C2007F082F99E4800680A2190FBEF
:1048C000F1F201FB1200C0B2014602901C2007F079
:1048D00022FA984800680A2190FBF1F0C0B2014624
:1048E00002901E2007F0DBF9049810B1012875D161
:1048F00075E0914800688E490968884226DD07F016
:1049000017FC8B48006800280ADA012208210720DA
:1049100007F054F98648006840428649086008E07C
:10492000834800688349086000220821072007F0B7
:1049300045F908211A2007F0C8F908211C2007F0C2
:10494000C4F906211E2007F0C0F947E07848006846
:10495000401E774908600846006810F1280F02DA07
:104960006FF02700086007F0E3FB7148006800283B
:104970000ADA01220821072007F020F96C480068B4
:1049800040426C49086008E069480068694908606D
:1049900000220821072007F011F900211A2007F052
:1049A0007EF9012211461C2007F008F961480068D1
:1049B0000A2190FBF1F201FB1200C0B20146029005
:1049C0001C2007F0A8F95B4800680A2190FBF1F071
:1049D000C0B2014602901E2007F061F92EE0544853
:1049E0000068401C5249086008460068502801DDF4
:1049F0005020086007F09CFB00211A2007F04FF9B7
:104A0000012211461C2007F0D9F84A4800680A2103
:104A100090FBF1F201FB1200C0B2014602901C2093
:104A200007F079F9434800680A2190FBF1F0C0B221
:104A3000014602901E2007F032F900BF00BFCEE40D
:104A400007F0B5FB0421002007F013F9012208212B
:104A5000022007F0B3F80321022007F00AF905212C
:104A6000042007F0EEF80121172007F06CF907F099
:104A70005FFB3148006800280ADA0122082107207C
:104A800007F09CF82C48006840422C49086008E078
:104A9000294800682949086000220821072007F0FA
:104AA0008DF800211A2007F0FAF8012211461C2087
:104AB00007F084F8214800680A2190FBF1F201FB1D
:104AC0001200C0B2014602901C2007F024F91B48D6
:104AD00000680A2190FBF1F0C0B2014602901E204E
:104AE00007F0DDF8049810B1012855D155E01248BF
:104AF0000068401E104908600846006810F1280F41
:104B000002DA6FF02700086007F012FB0A4800681D
:104B1000002817DA01220821072007F04FF806487D
:104B20000068404205490BE0C4020020E00200207A
:104B3000E4020020F0020020E8020020EC02002045
:104B4000086008E0FE480068FE490860002208216D
:104B5000072007F033F800211A2007F0A0F80122FF
:104B600011461C2007F02AF8F64800680A2190FB3D
:104B7000F1F201FB1200C0B2014602901C2007F0C6
:104B8000CAF8F04800680A2190FBF1F0C0B2014673
:104B900002901E2007F083F85BE0E9480068EA49CC
:104BA000096888420EDD07F0C3FA08211A2007F0D1
:104BB0008CF808211C2007F088F806211E2007F039
:104BC00084F845E0DE480068401CDD49086008467E
:104BD0000068502801DD5020086007F0A9FAD84885
:104BE000006800280ADA01220821072006F0E6FF03
:104BF000D34800684042D349086008E0D0480068C4
:104C0000D049086000220821072006F0D7FF0021C4
:104C10001A2007F044F8012211461C2006F0CEFFAE
:104C2000C84800680A2190FBF1F201FB1200C0B2F3
:104C3000014602901C2007F06EF8C24800680A2165
:104C400090FBF1F0C0B2014602901E2007F027F859
:104C500000BF00BF83E400220821072006F0AEFF5A
:104C600007F0A5FA0B21002007F003F80122082124
:104C7000022006F0A3FF0B21022006F0FAFF062116
:104C8000042006F0DEFF07F053FA00211A2007F097
:104C900042F8012211461C2006F090FFAB48006844
:104CA0000A2190FBF1F201FB1200C0B20146029012
:104CB0001C2007F030F8A54800680A2190FBF1F0AD
:104CC000C0B2014602901E2006F0E9FF049810B120
:104CD000012873D143E09D4800689D4909688842D6
:104CE0000EDA07F025FA08211A2006F0EEFF082157
:104CF0001C2006F0EAFF06211E2006F0E6FF2DE04C
:104D000092480068401E91490860084600680028E3
:104D100001DA0120086007F00BFA00211A2006F0E2
:104D2000FAFF012211461C2006F048FF8748006860
:104D30000A2190FBF1F201FB1200C0B20146029081
:104D40001C2006F0E8FF814800680A2190FBF1F082
:104D5000C0B2014602901E2006F0A1FF2EE07B4863
:104D60000068401C7949086008460068632801DD36
:104D70006320086007F0DCF900211A2006F0CBFF61
:104D8000012211461C2006F019FF704800680A2114
:104D900090FBF1F201FB1200C0B2014602901C2010
:104DA00006F0B9FF694800680A2190FBF1F0C0B233
:104DB000014602901E2006F072FF00BF00BFC3E450
:104DC00007F0F5F90421002006F053FF0122082125
:104DD000022006F0F3FE0B21022006F04AFF072115
:104DE000042006F02EFF07F0A3F900211A2006F098
:104DF00092FF012211461C2006F0E0FE5448006894
:104E00000A2190FBF1F201FB1200C0B201460290B0
:104E10001C2006F080FF4E4800680A2190FBF1F04C
:104E2000C0B2014602901E2006F039FF049810B16E
:104E3000012873D12EE046480068401E44490860AE
:104E400008460068002801DA0020086007F070F9C1
:104E500000211A2006F05FFF012211461C2006F0F7
:104E6000ADFE3B4800680A2190FBF1F201FB120005
:104E7000C0B2014602901C2006F04DFF3448006885
:104E80000A2190FBF1F0C0B2014602901E2006F00C
:104E900006FF43E02D4800682D49096888420EDA74
:104EA00007F046F908211A2006F00FFF08211C2000
:104EB00006F00BFF06211E2006F007FF2DE0244818
:104EC0000068401C2249086008460068632801DD2C
:104ED0006320086007F02CF900211A2006F01BFF60
:104EE000012211461C2006F069FE194800680A21BB
:104EF00090FBF1F201FB1200C0B2014602901C20AF
:104F000006F009FF124800680A2190FBF1F0C0B2D8
:104F1000014602901E2006F0C2FE00BF00BF13E44F
:104F200007F045F90521002006F0A3FE0122082123
:104F3000022006F043FE0321022006F09AFE09E05B
:104F4000E8020020EC020020E4020020F40200202D
:104F5000F80200200821042006F073FE012117202A
:104F600006F0F1FE07F0E4F8FE480068012804D1DD
:104F700005211C2006F0A9FE03E003211C2006F0F9
:104F8000A4FE049810B101282ED116E0F54800685F
:104F900048B90120F349086007F0CAF805211C2030
:104FA00006F093FE08E00020EE49086007F0C0F824
:104FB00003211C2006F089FE16E0EA48006848B983
:104FC0000120E849086007F0B3F805211C2006F02D
:104FD0007CFE08E00020E349086007F0A9F80321FF
:104FE0001C2006F072FE00BF00BF2AE407F0DFF8C5
:104FF0000821002006F03DFE01220821022006F0D3
:10500000DDFD0521022006F034FE0921042006F012
:1050100018FE07F08DF8D4480068012808D10A214D
:105020001A2006F052FE00211C2006F038FE0BE08C
:1050300005211A2006F049FE05211C2006F045FE38
:1050400000211E2006F02BFE049810B1012846D145
:1050500022E0C548006868B90120C349086007F02C
:1050600067F80A211A2006F030FE00211C2006F005
:1050700016FE10E00020BC49086007F059F8052131
:105080001A2006F022FE05211C2006F01EFE00213B
:105090001E2006F004FE22E0B348006868B9012033
:1050A000B149086007F044F80A211A2006F00DFE05
:1050B00000211C2006F0F3FD10E00020AA49086042
:1050C00007F036F805211A2006F0FFFD05211C2007
:1050D00006F0FBFD00211E2006F0E1FD00BF00BF31
:1050E000ADE407F064F80121002006F0AAFD0122DA
:1050F0000821022006F062FD0021022006F0A1FD39
:105100000321042006F0B5FD07F012F89748006867
:1051100038B90A211A2006F0D8FD00211C2006F01B
:10512000BEFD9248006801280BD105211A2006F027
:10513000CCFD05211C2006F0C8FD00211E2006F034
:10514000AEFD049810B1012856D12AE087480068C6
:10515000401E8649086008460068002801DA0120E0
:1051600008608248006848B906F0E2FF0A211A2068
:1051700006F0ABFD00211C2006F091FD7B48006885
:1051800001280DD106F0D4FF05211A2006F09DFD5F
:1051900005211C2006F099FD00211E2006F07FFD50
:1051A0002AE072480068401C7049086008460068A0
:1051B000012801DD002008606C48006848B906F04D
:1051C000B7FF0A211A2006F080FD00211C2006F0FE
:1051D00066FD6648006801280DD106F0A9FF05218B
:1051E0001A2006F072FD05211C2006F06EFD00213C
:1051F0001E2006F054FD00BF00BF20E406F0D7FFDC
:105200000221002006F01DFD01220821022006F0E7
:10521000D5FC0021022006F014FD0321042006F035
:1052200028FD06F085FF5248006801280CD10321B3
:105230001A2006F04AFD09211C2006F046FD032134
:105240001E2006F042FD0BE000211A2006F03DFD75
:1052500008211C2006F039FD00211E2006F01FFD4C
:10526000049810B101284ED126E04148006888B961
:1052700001203F49086006F05BFF03211A2006F079
:1052800024FD09211C2006F020FD03211E2006F02C
:105290001CFD10E000203649086006F049FF00219F
:1052A0001A2006F012FD08211C2006F00EFD002138
:1052B0001E2006F0F4FC26E02D48006888B9012085
:1052C0002B49086006F034FF03211A2006F0FDFC8C
:1052D00009211C2006F0F9FC03211E2006F0F5FC34
:1052E00010E000202249086006F022FF00211A2069
:1052F00006F0EBFC08211C2006F0E7FC00211E2034
:1053000006F0CDFC00BF00BFA4E406F050FF03216F
:10531000002006F096FC01220821022006F04EFC37
:105320000021022006F08DFC0321042006F0A1FCE0
:1053300006F0FEFE0F4800680A2190FBF1F201FB27
:105340001200C0B2014602901A2006F0A8FC0948DB
:1053500000680A2190FBF1F090FBF1F201FB1200D2
:10536000C0B209E0FC02002000030020040300207A
:10537000080300200C030020014602901C2006F0C8
:105380008EFCFE480068642190FBF1F0C0B201463B
:1053900002901E2006F083FC049810B101286CD105
:1053A00035E0F6480068401EF44908600846006889
:1053B000012802DA4FF41670086006F0B9FEEF48D3
:1053C00000680A2190FBF1F201FB1200C0B2014615
:1053D00002901A2006F063FCE84800680A2190FB5E
:1053E000F1F090FBF1F201FB1200C0B20146029015
:1053F0001C2006F054FCE1480068642190FBF1F0A9
:10540000C0B2014602901E2006F049FC35E0DB48A0
:105410000068401CD949086008460068B0F5167F4E
:1054200001DD0120086006F083FED44800680A21EF
:1054300090FBF1F201FB1200C0B2014602901A206B
:1054400006F02DFCCD4800680A2190FBF1F090FB9E
:10545000F1F201FB1200C0B2014602901C2006F0DE
:105460001EFCC6480068642190FBF1F0C0B2014602
:1054700002901E2006F013FC00BF00BF9FE406F060
:1054800096FE0421002006F0DCFB01220821022008
:1054900006F094FB0021022006F0D3FB0321042038
:1054A00006F0E7FB06F044FEB54800680A2190FBD1
:1054B000F1F201FB1200C0B2014602901A2006F080
:1054C000EEFBAF4800680A2190FBF1F090FBF1F28F
:1054D00001FB1200C0B2014602901C2006F0DFFB67
:1054E000A7480068642190FBF1F0C0B20146029029
:1054F0001E2006F0D4FB049810B101286CD135E0D1
:105500009F480068401E9E490860084600680128C0
:1055100002DA4FF41670086006F00AFE9848006838
:105520000A2190FBF1F201FB1200C0B20146029089
:105530001A2006F0B4FB924800680A2190FBF1F0B3
:1055400090FBF1F201FB1200C0B2014602901C2058
:1055500006F0A5FB8A480068642190FBF1F0C0B218
:10556000014602901E2006F09AFB35E08448006850
:10557000401C8349086008460068B0F5167F01DDCD
:105580000120086006F0D4FD7D4800680A2190FBE8
:10559000F1F201FB1200C0B2014602901A2006F09F
:1055A0007EFB774800680A2190FBF1F090FBF1F256
:1055B00001FB1200C0B2014602901C2006F06FFBF6
:1055C0006F480068642190FBF1F0C0B20146029080
:1055D0001E2006F064FB00BF00BFA0E406F0E7FD5C
:1055E0000521002006F02DFB01220821022006F0F3
:1055F000E5FA0021022006F024FB0321042006F036
:1056000038FB06F095FD5F4800680A2190FBF1F237
:1056100001FB1200C0B2014602901A2006F03FFBC7
:10562000049810B1012836D11AE056480068401E8F
:105630005449086008460068002801DA0120086023
:1056400006F076FD4F4800680A2190FBF1F201FB5D
:105650001200C0B2014602901A2006F020FB1AE0A8
:1056600048480068401C474908600846006801280F
:1056700001DD0020086006F05BFD424800680A2159
:1056800090FBF1F201FB1200C0B2014602901A2019
:1056900006F005FB00BF00BF41E406F088FD0621CF
:1056A000002006F0CEFA01220821022006F086FA38
:1056B0000021022006F0C5FA0321042006F0D9FAE1
:1056C0000121172006F03FFB06F032FD2E4800684E
:1056D0000A2190FBF1F201FB1200C0B201460290D8
:1056E0001A2006F0DCFA012211461C2006F066FAA8
:1056F000254800680A2190FBF1F090FBF1F201FBD4
:105700001200C0B2014602901C2006F004FB1E48A5
:105710000068642190FBF1F0C0B2014602901E20A7
:1057200006F0BDFA049810B101287DD142E0164878
:105730000068401E1449086008460068002801DA25
:105740000020086006F0F4FC0F4800680A2190FB76
:10575000F1F201FB1200C0B2014602901A2006F0DD
:105760009EFA012211461C2006F028FA064800681D
:105770000A2190FBF1F090FBF1F207E00C0300200E
:1057800010030020200300202403002001FB12004E
:10579000C0B2014602901C2006F0BDFAFE48006827
:1057A000642190FBF1F0C0B2014602901E2006F089
:1057B00076FA39E0F8480068401CF7490860084666
:1057C0000068782801DD7820086006F0B1FCF24816
:1057D00000680A2190FBF1F201FB1200C0B2014601
:1057E00002901A2006F05BFA012211461C2006F0F6
:1057F000E5F9E94800680A2190FBF1F090FBF1F22D
:1058000001FB1200C0B2014602901C2006F083FA90
:10581000E1480068642190FBF1F0C0B201460290BB
:105820001E2006F03CFA00BF00BF59E406F0BFFCA2
:105830000721002006F005FA01220821022006F0C7
:10584000BDF90021022006F0FCF90321042006F036
:1058500010FAD24800680A2190FBF1F201FB120015
:10586000C0B20246012102901C2006F0A7F906F002
:105870005FFC00211A2006F04EFAC84800680A2191
:1058800090FBF1F090FBF1F201FB1200C0B2014677
:1058900002901C2006F03FFAC0480068642190FB8B
:1058A000F1F0C0B2014602901E2006F0F8F904980B
:1058B00010B1012874D139E0B8480068401EB749DA
:1058C000086008460068002801DA0020086006F039
:1058D0002FFCB24800680A2190FBF1F201FB120094
:1058E000C0B2014602901A2006F015FA01221146B4
:1058F0001C2006F063F9A94800680A2190FBF1F02A
:1059000090FBF1F201FB1200C0B2014602901C2094
:1059100006F001FAA1480068642190FBF1F0C0B2E2
:10592000014602901E2006F0BAF939E09B48006853
:10593000401C9A49086008460068642801DD64201C
:10594000086006F0F5FB954800680A2190FBF1F22B
:1059500001FB1200C0B2014602901A2006F0DBF9EA
:10596000012211461C2006F029F98C4800680A2102
:1059700090FBF1F090FBF1F201FB1200C0B2014686
:1059800002901C2006F0C7F984480068642190FB4F
:10599000F1F0C0B2014602901E2006F080F900BF6F
:1059A00000BF2AE406F003FC0821002006F049F9B4
:1059B00001220821022006F001F90021022006F050
:1059C00040F90321042006F054F90121172006F0C4
:1059D000BAF906F0ADFB7248006800280ADA012225
:1059E0000821072006F0EAF86D48006840426D493A
:1059F000086008E06A4800686A49086000220821D7
:105A0000072006F0DBF800211A2006F048F90122F1
:105A100011461C2006F0D2F8624800680A2190FB6B
:105A2000F1F201FB1200C0B2014602901C2006F008
:105A300072F95C4800680A2190FBF1F0C0B201469F
:105A400002901E2006F02BF9049810B1012875D1A0
:105A500075E05348006854490968884226DD06F01D
:105A600067FB4F48006800280ADA01220821072056
:105A700006F0A4F84A48006840424A49086008E035
:105A8000474800684749086000220821072006F0BF
:105A900095F808211A2006F018F908211C2006F0B4
:105AA00014F906211E2006F010F947E03C48006872
:105AB000401E3B4908600846006810F1280F02DAD2
:105AC0006FF02700086006F033FB354800680028B7
:105AD0000ADA01220821072006F070F83048006831
