:020000040800F2
:10000000F810002051E80008350F0008370F0008ED
:100010003B0F00083F0F0008430F000800000000DE
:10002000000000000000000000000000470F000872
:10003000490F0008000000004B0F00084D0F00089A
:100040006BE800086BE800086BE80008B9C9000815
:100050006BE800086BE800086BE800086BE8000834
:100060006BE800086BE800086BE800086BE8000824
:100070006BE800086BE800086BE800086BE8000814
:10008000F9D6000859D700086BE800086BE80008AB
:100090006BE800086BE800086BE800086BE80008F4
:1000A0006BE800086BE800086BE800086BE80008E4
:1000B0004DAA0008D1A90008BB0E00086BE8000893
:1000C0006BE800086BE800086BE800086BE80008C4
:1000D0006BE800083D0B0008D70A00086BE8000831
:1000E0003BDC00086BE800086BE800086BE80008E0
:1000F0006BE800086BE800086BE800086BE8000894
:100100006BE800086BE80008CDAA00086BE800085F
:100110006BE800086BE800086BE800086BE8000873
:100120006BE800086BE800086BE800086BE8000863
:1001300000F002F800F062F80AA090E8000C824497
:100140008344AAF10107DA4501D100F057F8AFF274
:10015000090EBAE80F0013F0010F18BFFB1A43F0A5
:100160000103184774220100942201000A444FF051
:10017000000C10F8013B13F0070408BF10F8014B06
:100180001D1108BF10F8015B641E05D010F8016B4B
:10019000641E01F8016BF9D113F0080F1EBF10F8AF
:1001A000014BAD1C0C1B09D16D1E58BF01F801CBD2
:1001B000FAD505E014F8016B01F8016B6D1EF9D555
:1001C0009142D6D37047000000230024002500266A
:1001D000103A28BF78C1FBD8520728BF30C148BFAA
:1001E0000B607047642910F04D87732911F013805C
:1001F000002070471FB51FBD10B510BD11F014F8D9
:100200001146FFF7F7FF09F0B0F811F032F803B428
:10021000FFF7F2FF03BC0EF069FA00000CB50020F6
:10022000019000905E48006840F480305C490860AE
:1002300000BF5B48006800F4003000900198401C4B
:100240000190009818B90198B0F5A06FF1D1544809
:10025000006800F4003010B10120009001E000209F
:1002600000900098012828D14E48006840F0100006
:100270004C4908600846006820F003000860084602
:10028000006808604648406845494860084640683C
:1002900048600846406848600846406820F003000F
:1002A00048600846406840F00100486000BF3C4894
:1002B000406800F00C000428F9D10CBD10B5FFF720
:1002C000ADFF10BD10B53648006840F0010034495C
:1002D000086008464068344908403149486008468B
:1002E0000068324908402E4908600846006820F43A
:1002F000802008600846406820F4FE0048604FF403
:100300001F008860FFF7DAFF4FF00060284908609F
:1003100010BD10B5002100200022214B5B6803F0C6
:100320000C0121B1042906D0082928D107E0214B6E
:10033000214C236027E01F4B1F4C236023E0184B08
:100340005B6803F47010164B5B6803F48032022381
:1003500003EB904022B9194B4343174C23600DE047
:100360000F4B5B6803F4003323B1144B4343124C2F
:10037000236003E00F4B43430F4C236003E00D4B1E
:100380000D4C236000BF00BF054B5B68C3F3031334
:100390000B4CE15C084B1B68CB40074C236010BD45
:1003A00000100240002002400000FFF8FFFFF6FEB0
:1003B00008ED00E000127A000000002000093D0076
:1003C0000400002070B502460C46FF25FF2309E01B
:1003D00012F8010B80EA0501FA48405C80EA030547
:1003E000F948435C201EA4F10106F4B2F0D143EABF
:1003F000052070BD10B50120F4490870F4480EF0D6
:1004000007FFF4490870F4480078012856D000210D
:10041000F2480FF05FFC0021F0480FF0EFFEF048CB
:100420000078A0B1EB480078EE49097888420ED1F7
:100430000020ED490870ED49087008460078401C1E
:100440000870E4480078EA49E84A12788854E44899
:10045000007860BBE448007848BBE4480078642832
:1004600013DADC480178E24AE0480078401C115475
:10047000DE480078401CDD490870084600780828EE
:1004800015DB08460078087011E00120D649087095
:10049000D1490870D5480078D5490870D54800681A
:1004A0008078D549096888700020D04908700020FC
:1004B000CB4908700121C9480FF00CFC10BD10B5E4
:1004C0000120C2490870CD490870CD480EF0A0FE49
:1004D000C0490870C0480078012856D00021BF48A4
:1004E0000FF0F8FB0021BD480FF088FEBC480078F3
:1004F000A0B1B8480078BB49097888420ED10020E5
:10050000B9490870B949087008460078401C08705D
:10051000B0480078B649B54A12788854B048007897
:1005200060BBB148007848BBB0480078642813DA53
:10053000A8480178AE4AAD480078401C1154AB4839
:100540000078401CA949087008460078082815DB87
:1005500008460078087011E00120A34908709E4900
:100560000870A2480078A2490870A2480068807804
:10057000A1490968887000209C49087000209849AA
:100580000870012195480FF0A5FB10BD10B59A48E1
:1005900000689C490978405C9B49087008460178CE
:1005A0008B480EF031FE97480078401C9549087042
:1005B0009148006800780978884210DA002086495E
:1005C00008708D49096808708849087001208D49B4
:1005D0000870002240F226617D480EF0B4FD10BD87
:1005E00070B500257F48007888490870032048705E
:1005F00087480078887087498748006811F030FD87
:10060000064611F091FC000A8049C8708149824871
:10061000006811F025FD064611F086FC7B49087143
:100620007E48006811F080FC0121B1EBE03F07D16A
:100630007A4801684FF08F4011F01AFE7749086040
:1006400074497648006811F00BFD064611F06CFC09
:10065000000A6E4948716F497048006811F000FD4A
:10066000064611F061FC6949887169480088051FD8
:1006700004E00021A81D654A11546D1E002DF8DC10
:1006800063480078C01CC1B26048FFF79BFE044677
:1006900021125E4A5E480088C01C11545C480088E4
:1006A000001D14545A480078401D5D4908701046DA
:1006B0005C490860012240F2277145480EF043FD75
:1006C00070BD70B500254748007850490870032078
:1006D00048704F48007888705048006811F024FC3A
:1006E0000121B1EBE03F07D14C4801684FF08F404A
:1006F00011F0BEFD4949086046494848006811F0BC
:10070000AFFC064611F010FC000A4049C870414990
:100710004248006811F0A4FC064611F005FC3B4974
:1007200008713B480088851E04E00021281D374AD7
:1007300011546D1E002DF8DC35480078C01CC1B284
:100740003248FFF73FFE04462112304A3048008805
:10075000C01C11542E480088001D14542C480078E9
:10076000401D2F49087010462E490860012240F2B2
:10077000277117480EF0E7FC70BD70B500251948C9
:10078000007822490870032048702148007888705A
:1007900020492148006811F063FC064611F0C4FBB3
:1007A000000A1A49C8701B491B48006811F058FC20
:1007B000064611F0B9FB1549087115480088851ED9
:1007C00037E000003E0000203E0100203500002000
:1007D00000440040240000203400002000080040B5
:1007E000200000209402002021000020270000208B
:1007F0009C0400202C000020300000203700002046
:100800000038014028000020250000209907002022
:100810001C00002000002041800300207C030020F9
:100820006C020020680200200021281DFD4A11549E
:100830006D1E002DF8DCFC480078C01CC1B2F948E0
:10084000FFF7C0FD04462112F64AF7480088C01C95
:100850001154F5480088001D1454F3480078401DD9
:10086000F24908701046F2490860012240F22771EF
:10087000F0480EF068FC70BD10B50220EE4908701B
:10088000EE4800884FF6FA71884205DAEC480078A5
:1008900010B900200DF055F8E84800884FF6FA71BD
:1008A000884203DAE648007801280ED101200DF0D5
:1008B00048F80120E2490870E04800884FF6FA71D4
:1008C000884202DB3220DD4908800A20DD490880A9
:1008D00008460288DC49D94800880DF00FF8DB484B
:1008E0000078D0490870D84800784870D6484078D9
:1008F0008870D5488078C870D348C0780871D248CD
:1009000000794871D04840798871CF488079C871A2
:10091000CD48C0790872CC48007A4872CA48407AFB
:1009200088720B20C1490870C44800880A30C34946
:100930000880084600880A2190FBF1F0C449098824
:1009400088420BDD3220BD4908800020C149087073
:100950003220C14908800020C0490870B148B4491C
:100960000860012240F22771B2480EF0ECFB10BD86
:1009700070B50025BA480088B5490880B3480078AA
:10098000A84908700320487002208870B048008889
:10099000000AC870AE48007808710521A148FFF729
:1009A00011FD044620129F4948718C7107209F4910
:1009B00008709C489E490860012240F227719D48BA
:1009C0000EF0C1FB70BD2DE9F04104460F4600203A
:1009D000A4490870A448007800283BD12078401E24
:1009E000255C4FF6FF7000EA05252078205C054362
:1009F0002078C01E205C8C490880084600884FF68D
:100A0000FF7101EA0020884908802078801E205C60
:100A1000098808434FF6FF7101EA400082490880C7
:100A200008460088202801DD202008802078801ECC
:100A3000C1B2601CFFF7C6FC064606218B48FFF7D3
:100A4000C1FC06462078801EC1B2601CFFF7BAFCCC
:100A5000064600E02E46AE4238D18348007808BBF7
:100A6000A07801281BD003281AD1022180480EF05B
:100A70001CF86D480088042802D1FFF7B1FD0DE095
:100A800069480088022809D1207910B9FFF775FE5E
:100A900004E02079012801D1FFF713FE01E000E016
:100AA00000BF16E0E07840B110280DD10221704857
:100AB0000DF0FBFFFFF7E0FE07E002216C480DF0B0
:100AC000F4FFFFF755FF00E000BF02E00020694996
:100AD0000870BDE8F08110B540F2244155480EF091
:100AE00017FC01280DD153480EF092FB40F224412F
:100AF00050480EF037FC01205F49087000205F4924
:100B0000087040F225514B480EF002FC012814D128
:100B100048480EF07DFB5A49087040F2255145487F
:100B20000EF020FC564800785649544A12788854F2
:100B300052480078401C5149087010BD70B586B00D
:100B400000240226002500BF04E0002003A9085568
:100B5000601CC4B20A2CF8DB40F225514A480EF062
:100B6000D7FB30B348480EF053FB4849087048485B
:100B70000078F0B908460078232802D100204549C2
:100B8000087042480178434802780078401C414B85
:100B90001870414881543D4800780A2809D1184608
:100BA0000078801E3C49085C0D2802D1012038499C
:100BB00008703748007801287CD10020344908703B
:100BC00035484078012876D134480088022805DB72
:100BD0000DF0E8FB022126480DF069FF2E488078D1
:100BE0002F4908702C48C0782E4908702A4800798F
:100BF0002D490870284840792C4908702648C17949
:100C0000807901EB00202A4908802348C179807946
:100C100001EB0020204949791F4A1279CDE90021D2
:100C2000029049E0990700201C0000206C0200207F
:100C300068020020004400403D0300201E00002008
:100C4000380000203C0000204006002094020020D4
:100C50003A0000203C030020680300203B030020F2
:100C60005C02002035000020370000209D04002099
:100C7000000801403400002044020020450200200A
:100C80001500002068060020003801403E020020C8
:100C90003F020020400200205406002050020020A5
:100CA0004702002048020020490200204A0200209A
:100CB0004C020020FFE009E0A548C3788278A5A196
:100CC000AD4810F06DF90120AC490870A04840789B
:100CD00002285AD123208DF80C0002208DF80D0037
:100CE0000D208DF814000A208DF81500102427E03F
:100CF000A148005D0D2800D124E09F48005D2E280A
:100D00001AD09D48005D2C2816D0052E0BDC9A4881
:100D1000005D03A9895D01EB810100EB41003038E2
:100D200003A988550AE09448005D05EB850100EBB6
:100D30004100303885B201E0701CC6B2601CC4B2FC
:100D4000292CD5DB00BF2846E91705EB1161090AFC
:100D50008DF81210E91705EB11610912A5EB0121BD
:100D6000C9B28DF8131000240DE003A8015D84487A
:100D70000EF04AFA00BF802181480EF0B3FA002835
:100D8000F9D0601CC4B20A2CEFDB7148407803280C
:100D900020D17C480088022805DB0DF003FB0221EE
:100DA00079480DF084FE6A48C178807801EB002014
:100DB0007649086008460088754908800020714916
:100DC00008807449088074490880744908700120BB
:100DD0006A4908705E484078042826D123208DF89F
:100DE0000C0004208DF80D0068480088000A8DF87A
:100DF0000E00664800788DF80F000D208DF8100069
:100E00000A208DF8110000240DE003A8015D5C4864
:100E10000EF0FAF900BF802159480EF063FA00285D
:100E2000F9D0601CC4B2062CEFDB49484078052895
:100E30001ED154480088022801DB0DF046FB002437
:100E400006E04349A01C085C55490855601CC4B223
:100E500054480078001FA042F3DC00205049085598
:100E6000514B0A4651A1574810F09AF80DF009FB72
:100E70003748407806281ED142480088022801DB06
:100E80000DF023FB002406E03149A01C085C464914
:100E90000855601CC4B243480078001FA042F3DC30
:100EA0000020414908550B463D4A40A1454810F0F5
:100EB00077F80DF0E6FA06B070BD10B50121424892
:100EC0000FF0D1F9002834D00120404908700021EA
:100ED0003D480EF0FFFE00213B480FF08FF9012046
:100EE0003B4908703B4800783B4908703B48007814
:100EF000D8B138480078042817DD01203849087037
:100F000035480079222803D03348C078102803D10F
:100F100001203449087002E000203249087032484C
:100F2000016832480068FFF74EFD012126480FF0A6
:100F3000ABF910BD704700BFFEE700BFFEE700BF82
:100F4000FEE700BFFEE7704770477047704700003C
:100F50005406002041542B534B54434F4E4E4543AF
:100F6000543D312C25642E25642E25642E25642CB9
:100F700025640D0A000000006F0A00201400002004
:100F800000380140500200200008014018000020F5
:100F900054020020EC030020EE0300205202002047
:100FA00074040020400200208804002041542B4398
:100FB000574A41503D222573222C222573220D0AC7
:100FC0000000000031040020000800402000002044
:100FD00021000020270000209C0400203500002074
:100FE0003400002037000020300000202C000020BA
:100FF000002100E0491C8142FCD3704710B56429F0
:1010000010D2302202700A22B1FBF2F2303242706A
:101010002E2242700A22B1FBF2F302FB131230328D
:10102000827021E064291FD3B1F57A7F1CD264223B
:10103000B1FBF2F2303202706422B1FBF2F302FB38
:1010400013120A23B2FBF3F2303242702E22827066
:101050006422B1FBF2F302FB13120A23B2FBF3F496
:1010600003FB14223032C27010BD3EB50924FA4889
:10107000048001200CF065FC2246F84900200CF0A9
:101080003DFC64200DF005FBF4480078F44908703D
:10109000F2484078F3490870F0488078F2490870C7
:1010A000EE48C078F1490870EC484179007901EBCD
:1010B0000020EF49088008460088EC490978EA4A90
:1010C0001278CDE900210290E6480378E4480278DE
:1010D000E8A1F1480FF064FFE0488079EF4908701B
:1010E000DE48017AC07901EB0020ED49086008462E
:1010F0000068EC4908603EBD10B5D7480480D84868
:101100000078E9490870D74800784870D6480078D8
:101110008870D6480078C870D5490888C11700EB98
:101120001161090AE04A1171D1490888C11700EB21
:1011300011610912A0EB01215171D84800781146C4
:101140008871D7480088000AC871D54800780872AD
:10115000092401200CF0F5FB2246D34900200CF0B5
:10116000DEFB64200DF095FA10BD10B5FFF77DFF92
:101170003224B948048000200CF0E3FB2246B74932
:1011800000200CF0BBFB64200DF083FAB34800781C
:10119000C6490870B1484078C5490860C548096823
:1011A00050F82100C4490860AC488078C349086001
:1011B000AA48C078C249086008460068502804DD83
:1011C00008460068A0F580700860A4480079BD4911
:1011D000086008460068502804DD08460068A0F54D
:1011E000807008609D484079B74908609B488079C5
:1011F000B64908609948C079B54908609748007AAF
:10120000B44908609548407AB34908609348807AA9
:10121000B24908609148C07AB14908608F48007BA4
:10122000B04908608D48407BAF4908608B48807B9F
:10123000AE4908608948C07BAD4908808748007C7A
:10124000097800EB0120AA4908808448407CA9491C
:1012500008708248807CA84908608048C07CA74903
:1012600008607E48007DA64908600846006850284E
:1012700004DD08460068A0F5807008607748407D6E
:10128000A049086008460068502804DD0846006848
:10129000A0F5807008607148807D9B4908606F48A8
:1012A000C07D9A4908606D48007E994908600846EB
:1012B0000068642804DD08460068A0F580700860B6
:1012C0006648407E9349086008460068642804DD4B
:1012D00008460068A0F5807008606048807E18B1FC
:1012E0005E48807EFF2812D15C48C07E18B15B4802
:1012F000C07EFF280BD15948007F18B15748007FA6
:10130000FF2804D14FF4C8708349086011E05348A6
:10131000807E5249C97E01EB810100EB41004F49BB
:10132000097F01EBC10202EB011100EB81007A4958
:1013300008604A48407F18B14848407FFF281BD1C9
:101340004648807F18B14548807FFF2814D1434824
:10135000C07F18B14148C07FFF280DD13F4890F8A9
:10136000200020B13D4890F82000FF2804D14FF420
:10137000FA606A49086014E03848407F3749897F3D
:101380000A2202FB01003549C97F642202FB0100E9
:10139000324991F820104FF47A7202FB01005F4944
:1013A00008602E4890F8210020B12C4890F82100C8
:1013B000FF2816D1294890F8220020B1274890F83C
:1013C0002200FF280DD1254890F8230020B12348A2
:1013D00090F82300FF2804D14FF4C87050490860EA
:1013E00010E01E4890F821001C4991F822100A22B2
:1013F00002FB0100194991F82310642202FB01004D
:1014000047490860154890F8240020B1134890F827
:101410002400FF281FD1114890F8250020B10F4863
:1014200090F82500FF287FD10C4890F8260020B1C5
:101430000A4890F82600FF2876D1084890F827003F
:1014400020B1064890F82700FF286DD14FF4FA60CC
:101450003449086080E067E038030020FD07002081
:101460004702002048020020490200204A020020D2
:101470004C02002041542B534B54434F4E4E454396
:10148000543D312C25642E25642E25642E25642C94
:1014900025640D0A000000006F0A002046020020AB
:1014A0001800002054020020CB07002094020020E6
:1014B0009C020020A002002098020020B40200201C
:1014C000B8020020BC020020C8020020CC0200208C
:1014D000D0020020D4020020D8020020DC0200202C
:1014E000E0020020E4020020E8020020EC020020DC
:1014F000680300203B030020F802002000030020C6
:1015000008030020100300201803002020030020FF
:1015100028030020300300208C03002090030020CB
:101520009403002098030020FE4890F82400FD4911
:1015300091F825100A2202FB0100FA4991F82610C1
:10154000642202FB0100F74991F827104FF47A72E8
:1015500002FB0100F4490860F24890F8280020B12D
:10156000F04890F82800FF281FD1EE4890F8290095
:1015700020B1EC4890F82900FF2816D1E94890F8EE
:101580002A0020B1E74890F82A00FF280DD1E5484D
:1015900090F82B0020B1E34890F82B00FF2804D1ED
:1015A0004FF4FA60E149086017E0DE4890F828003F
:1015B000DC4991F829100A2202FB0100D94991F86F
:1015C0002A10642202FB0100D64991F82B104FF437
:1015D0007A7202FB0100D5490860D24890F82C00CD
:1015E00020B1D04890F82C00FF281FD1CD4890F8AA
:1015F0002D0020B1CB4890F82D00FF2816D1C94806
:1016000090F82E0020B1C74890F82E00FF280DD189
:10161000C44890F82F0020B1C24890F82F00FF284E
:1016200004D14FF4FA60C249086017E0BD4890F851
:101630002C00BC4991F82D100A2202FB0100B94987
:1016400091F82E10642202FB0100B64991F82F1088
:101650004FF47A7202FB0100B549086010BD10B565
:10166000B4480480B4480078B4490870B44800789D
:101670004870B44800788870B3480078C870B348A0
:1016800000780871B24800784871B24800788871D3
:10169000B1480078C871B14800780872B048007845
:1016A0004872B04800788872AF480078C872AF4876
:1016B00000780873AE4800784873AE4800788873A5
:1016C000AD480088000AC873AB4800780874AB487E
:1016D00000784874AA4800788874AA480078C874CA
:1016E000A94800780875A94800784875A848007886
:1016F0008875A8480078C875A74800780876A74874
:1017000000784876A6480068642190FBF1F201FB5E
:1017100012000A2190FBF1F201FB12008749887642
:101720009F480068642190FBF1F201FB12000A213E
:1017300090FBF1F08149C87699480068642190FBDC
:10174000F1F07E490877974800684FF47A7190FB72
:10175000F1F201FB1200642190FBF1F201FB120097
:101760000A2190FBF1F201FB1200744948778D4881
:1017700000684FF47A7190FBF1F201FB12006421D2
:1017800090FBF1F201FB12000A2190FBF1F06B4992
:101790008877844800684FF47A7190FBF1F201FB7E
:1017A0001200642190FBF1F06449C8777D4800681D
:1017B0004FF47A7190FBF1F0604981F820007A488B
:1017C0000068642190FBF1F201FB12000A2190FBFA
:1017D000F1F201FB1200594981F8210072480068BA
:1017E000642190FBF1F201FB12000A2190FBF1F061
:1017F000524981F822006C480068642190FBF1F0A6
:101800004E4981F82300484800684FF47A7190FBF4
:10181000F1F201FB1200642190FBF1F201FB1200D6
:101820000A2190FBF1F201FB1200444981F82400E7
:101830003D4800684FF47A7190FBF1F201FB120011
:10184000642190FBF1F201FB12000A2190FBF1F000
:101850003A4981F82500344800684FF47A7190FBCA
:10186000F1F201FB1200642190FBF1F0334981F8A1
:1018700026002D4800684FF47A7190FBF1F02F4953
:1018800081F82700294800684FF47A7190FBF1F243
:1018900001FB1200642190FBF1F201FB12000A210E
:1018A00090FBF1F201FB1200244981F828001F4847
:1018B00000684FF47A7190FBF1F201FB1200642191
:1018C00090FBF1F201FB12000A2190FBF1F01B49A1
:1018D00081F82900154800684FF47A7190FBF1F205
:1018E00001FB1200642190FBF1F0144981F82A00F9
:1018F0000E4800684FF47A7190FBF1F00F4981F8BF
:101900002B000B4800684FF47A7190FBF1F201FB59
:101910001200642190FBF1F201FB12000A2190FBFE
:10192000F1F243E0FD070020980300209C03002013
:10193000A00300203803002094020020CB070020E1
:101940009C020020B4020020B8020020BC0200204B
:10195000C8020020CC020020D0020020D4020020C7
:10196000D8020020DC020020E0020020E402002077
:10197000E8020020EC020020680300203B03002066
:10198000F8020020000300200803002010030020BC
:10199000180300202003002028030020300300202B
:1019A0008C030020900300209403002001FB120010
:1019B000FE4981F82C00FE4800684FF47A7190FBD4
:1019C000F1F201FB1200642190FBF1F201FB120025
:1019D0000A2190FBF1F0F54981F82D00F4480068E8
:1019E0004FF47A7190FBF1F201FB1200642190FB3D
:1019F000F1F0EE4981F82E00ED4800684FF47A715D
:101A000090FBF1F0E94981F82F00322400200BF01F
:101A100098FF2246E54900200BF081FF64200CF07E
:101A200038FEFFF769FB10BD08B5012114200DF049
:101A30004BFA4FF48060ADF8000010208DF80300E1
:101A400003208DF802006946DA480CF081FF4FF45C
:101A50008061D8480DF029F80220ADF80000102070
:101A60008DF8030003208DF802006946D2480CF07F
:101A70006FFF0221D0480DF01AF82020ADF80000C9
:101A80006946CD480CF064FF2021CB480DF00FF8DB
:101A90001020ADF800006946C7480CF059FF10212E
:101AA000C5480DF002F808BD08B5012104200DF06D
:101AB0000BFA4020ADF8000010208DF80300032041
:101AC0008DF802006946BC480CF042FF08BD10B515
:101AD00004464021B8480CF0E8FFA0B20CF0D9FD54
:101AE0004021B5480CF0E3FF10BD03B581B00021E3
:101AF0004FF080400EF0EEF801981A2882F00E8226
:101B0000DFE810F01A001C00D900A50122023D03F5
:101B1000A1094D041605810A680E720FE5054006FD
:101B2000BB064807DB078A083909530B230CE20C74
:101B3000A90D8310A311F61102F0F0B90AF05FFAB3
:101B40000021084609F0B3FF01220821022009F014
:101B500053FF0121022009F092FF0121042009F026
:101B60008EFF0AF003FA95480078642190FBF1F2A9
:101B700001FB12000A2190FBF1F201FB1200C0B23E
:101B8000014600901A2009F0A8FF8C4800786421D3
:101B900090FBF1F201FB12000A2190FBF1F0C0B2C0
:101BA000014600901C2009F098FF844800786421C9
:101BB00090FBF1F0C0B2014600901E2009F08DFFAD
:101BC000029810B1012874D13AE07C480078401E98
:101BD0007A49087008460078012801DAFF20087069
:101BE0000AF0C4F975480078642190FBF1F201FB1A
:101BF00012000A2190FBF1F201FB1200C0B2014673
:101C000000901A2009F069FF6C480078642190FB6D
:101C1000F1F201FB12000A2190FBF1F0C0B2014683
:101C200000901C2009F059FF64480078642190FB63
:101C3000F1F0C0B2014600901E2009F04EFF38E0DE
:101C40005E480078401C5D49087008460078FF280F
:101C500001DD0120087059480078642190FBF1F201
:101C600001FB12000A2190FBF1F201FB1200C0B24D
:101C7000014600901A2009F030FF50480078642196
:101C800090FBF1F201FB12000A2190FBF1F0C0B2CF
:101C9000014600901C2009F020FF4848007864218C
:101CA00090FBF1F0C0B2014600901E2009F015FF34
:101CB00000BF00BF40E70AF0A2F90221002009F0AE
:101CC000F6FE01220821022009F096FE01220821D9
:101CD000022009F0CFFD0121022009F0E8FE0221D7
:101CE000042009F0CCFE0AF041F93548006864216F
:101CF000B0FBF1F201FB12000A21B0FBF1F201FB93
:101D00001200014600901A2009F0E7FE2C480068F6
:101D10006421B0FBF1F201FB12000A21B0FBF1F0EB
:101D2000014600901C2009F0D8FE25480068642177
:101D3000B0FBF1F0C0B2014600901E2009F0CDFECC
:101D4000029810B1012845D145E01D480068401EA9
:101D50001B4908600846006810B940F2E730086087
:101D60000AF004F9164800686421B0FBF1F201FBA7
:101D700012000A21B0FBF1F201FB120001460090B3
:101D80001A2009F0AAFE0E4800686421B0FBF1F2A7
:101D900001FB12000A21B0FBF1F0014600901C206B
:101DA00009F09BFE0648006864210BE0CB07002089
:101DB000A00300200010014000080140460200205E
:101DC00018000020B0FBF1F0C0B2014600901E20C8
:101DD00009F083FE39E0FE480068401CFC490860B9
:101DE00008460068B0F57A7F01D3012008600AF048
:101DF000BDF8F74800686421B0FBF1F201FB120066
:101E00000A21B0FBF1F201FB1200014600901A20FA
:101E100009F063FEEE4800686421B0FBF1F201FBBB
:101E200012000A21B0FBF1F0014600901C2009F0DD
:101E300054FEE74800686421B0FBF1F0C0B20146EF
:101E400000901E2009F049FE00BF00BF74E60AF0B2
:101E5000D6F80821002009F02AFE012208210220DC
:101E600009F0CAFD0721022009F021FE0321042008
:101E700009F005FED748006801280AD10AF076F873
:101E80000A211A2009F03FFE00211C2009F025FE3E
:101E90000DE00AF06BF805211A2009F034FE052147
:101EA0001C2009F030FE00211E2009F016FE0298C9
:101EB00010B1012846D122E0C648006868B9012067
:101EC000C44908600AF052F80A211A2009F01BFEE2
:101ED00000211C2009F001FE10E00020BD4908602F
:101EE0000AF044F805211A2009F00DFE05211C20F6
:101EF00009F009FE00211E2009F0EFFD22E0B5489F
:101F0000006868B90120B34908600AF02FF80A2177
:101F10001A2009F0F8FD00211C2009F0DEFD10E078
:101F20000020AC4908600AF021F805211A2009F0C8
:101F3000EAFD05211C2009F0E6FD00211E2009F024
:101F4000CCFD00BF00BFF7E50AF059F80B210020D7
:101F500009F0ADFD01220821022009F04DFD032109
:101F6000022009F0A4FD0421084609F088FD0121A2
:101F7000172009F006FE09F0F9FF974800680028CD
:101F80000ADA01220821072009F036FD924800688C
:101F900040429249086008E08F4800688F49086015
:101FA00000220821072009F027FD00211A2009F04E
:101FB00094FD012211461C2009F01EFD874800688F
:101FC0000A2190FBF1F201FB1200C0B20146009021
:101FD0001C2009F0BEFD814800680A2190FBF1F049
:101FE000C0B2014600901E2009F077FD029810B1A2
:101FF00001287AD17AE07A480068774909688842EE
:102000002BDB09F0B3FF7448006800280ADA0122CC
:102010000821072009F0F0FC6F48006840426F4932
:10202000086008E06C4800686C49086000220821DC
:10203000072009F0E1FC00220821072009F0DCFC60
:1020400008211A2009F05FFD08211C2009F05BFD22
:1020500006211E2009F057FD47E05F480068401E3A
:102060005D4908600846006810F1280F02DA6FF039
:102070002700086009F07AFF5748006800280ADA4C
:1020800001220821072009F0B7FC534800684042AC
:102090005249086008E05048006850490860002232
:1020A0000821072009F0A8FC00211A2009F015FDDD
:1020B000012211461C2009F09FFC484800680A21B3
:1020C00090FBF1F201FB1200C0B2014600901C200F
:1020D00009F03FFD414800680A2190FBF1F0C0B2D1
:1020E000014600901E2009F0F8FC46E03A480068DE
:1020F000401C3949086008460068502801DD50201E
:10210000086009F033FF3448006800280ADA012229
:102110000821072009F070FC2F48006840422F4931
:10212000086008E02C4800682C490860002208215B
:10213000072009F061FC00211A2009F0CEFC0122E1
:1021400011461C2009F058FC244800680A2190FB25
:10215000F1F201FB1200C0B2014600901C2009F010
:10216000F8FC1E4800680A2190FBF1F0C0B201465D
:1021700000901E2009F0B1FC00BF00BFDCE409F0B4
:102180003EFF0421002009F092FC012208210220D8
:1021900009F032FC0321022009F089FC04210846E1
:1021A00009F06DFC0121172009F0EBFC09F0DEFEBF
:1021B0000B480068002817DA01220821072009F0DF
:1021C0001BFC0748006840420649086015E0000013
:1021D00018000020B4020020B8020020C402002031
:1021E000BC020020C0020020FE480068FE490860D2
:1021F00000220821072009F0FFFB00211A2009F026
:102200006CFC012211461C2009F0F6FBF648006820
:102210000A2190FBF1F201FB1200C0B201460090CE
:102220001C2009F096FCF04800680A2190FBF1F0B0
:10223000C0B2014600901E2009F04FFC029810B178
:10224000012848D148E0E7480068401EE549086099
:102250000846006810F1280F02DA6FF027000860C6
:1022600009F084FEDF48006800280ADA012208210C
:10227000072009F0C1FBDB4800684042DA490860EA
:1022800008E0D8480068D8490860002208210720E3
:1022900009F0B2FB00211A2009F01FFC01221146AF
:1022A0001C2009F0A9FBD04800680A2190FBF1F23C
:1022B00001FB1200C0B2014600901C2009F049FC4D
:1022C000C94800680A2190FBF1F0C0B201460090B5
:1022D0001E2009F002FC60E0C2480068C34909689A
:1022E000884213DB09F042FE00220821072009F092
:1022F00083FB08211A2009F006FC08211C2009F0A4
:1023000002FC06211E2009F0FEFB45E0B5480068EE
:10231000401CB449086008460068502801DD502080
:10232000086009F023FEAF48006800280ADA01229D
:102330000821072009F060FBAA4800684042AA492A
:10234000086008E0A7480068A74908600022082143
:10235000072009F051FB00211A2009F0BEFB0122E1
:1023600011461C2009F048FB9F4800680A2190FB99
:10237000F1F201FB1200C0B2014600901C2009F0EE
:10238000E8FB994800680A2190FBF1F0C0B20146D1
:1023900000901E2009F0A1FB00BF00BF8AE40022CC
:1023A0000821072009F028FB09F029FE0B21002055
:1023B00009F07DFB01220821022009F01DFB0B2101
:1023C000022009F074FB0421084609F058FB09F0CB
:1023D000CDFD00220821072009F00EFB00211A2064
:1023E00009F0B7FB012211461C2009F005FB8048CB
:1023F00000680A2190FBF1F201FB1200C0B2014615
:1024000000901C2009F0A5FB794800680A2190FB88
:10241000F1F0C0B2014600901E2009F05EFB029868
:1024200010B101284DD14DE071480068714909682B
:10243000884213DC09F09AFD00220821072009F0E8
:10244000DBFA08211A2009F05EFB08211C2009F0A4
:102450005AFB06211E2009F056FB32E06448006852
:10246000401E6349086008460068002801DA012020
:10247000086009F07BFD00220821072009F0BCFA62
:1024800000211A2009F065FB012211461C2009F0E9
:10249000B3FA574800680A2190FBF1F201FB1200E1
:1024A000C0B2014600901C2009F053FB5048006860
:1024B0000A2190FBF1F0C0B2014600901E2009F005
:1024C0000CFB33E04A480068401C49490860084654
:1024D0000068632801DD6320086009F047FD0022E1
:1024E0000821072009F088FA00211A2009F031FBA1
:1024F000012211461C2009F07FFA3D4800680A219C
:1025000090FBF1F201FB1200C0B2014600901C20CA
:1025100009F01FFB364800680A2190FBF1F0C0B2B9
:10252000014600901E2009F0D8FA00BF00BF8DE4DC
:1025300009F065FD0421002009F0B9FA0122082103
:10254000022009F059FA0B21022009F0B0FA042107
:10255000084609F094FA09F009FD00220821072035
:1025600009F04AFA00211A2009F0F3FA0122114673
:102570001C2009F041FA1F4800680A2190FBF1F283
:1025800001FB1200C0B2014600901C2009F0E1FAE4
:10259000184800680A2190FBF1F0C0B20146009093
:1025A0001E2009F09AFA029810B101283ED13EE0AF
:1025B00010480068401E0F4908600846006800285F
:1025C00001DA0020086009F0D1FC00220821072070
:1025D00009F012FA00211A2009F0BBFA0122114673
:1025E0001C2009E0BC020020C0020020B80200202C
:1025F000C8020020CC02002009F0FEF9F84800686B
:102600000A2190FBF1F201FB1200C0B201460090DA
:102610001C2009F09EFAF24800680A2190FBF1F0B4
:10262000C0B2014600901E2009F057FA4DE0ED4877
:102630000068EB490968884213DC09F097FC002226
:102640000821072009F0D8F908211A2009F05BFABF
:1026500008211C2009F057FA06211E2009F053FA20
:1026600032E0DF480068401CDD4908600846006829
:10267000632801DD6320086009F078FC002208214E
:10268000072009F0B9F900211A2009F062FA0122A5
:1026900011461C2009F0B0F9D14800680A2190FBCE
:1026A000F1F201FB1200C0B2014600901C2009F0BB
:1026B00050FACB4800680A2190FBF1F0C0B2014605
:1026C00000901E2009F009FA00BF00BF3BE409F0AA
:1026D00096FC0521002009F0EAF9012208210220D8
:1026E00009F08AF90321022009F0E1F9062104200A
:1026F00009F0C5F90121172009F043FA09F036FC69
:10270000B9480068012804D105211C2009F0FBF913
:1027100003E003211C2009F0F6F9029810B101280A
:102720002ED116E0B048006848B90120AE490860D3
:1027300009F01CFC05211C2009F0E5F908E0002047
:10274000A949086009F012FC03211C2009F0DBF9FB
:1027500016E0A548006848B90120A349086009F0BF
:1027600005FC05211C2009F0CEF908E000209E4957
:10277000086009F0FBFB03211C2009F0C4F900BF2D
:1027800000BFFBE409F03BFC0821002009F08FF9B1
:1027900001220821022009F02FF90521022009F069
:1027A00086F90721042009F06AF909F0DFFB8F4858
:1027B0000068012808D10A211A2009F0A4F9002193
:1027C0001C2009F08AF90BE005211A2009F09BF979
:1027D00005211C2009F097F900211E2009F07DF940
:1027E000029810B1012846D122E08048006868B9FB
:1027F00001207E49086009F0B9FB0A211A2009F07E
:1028000082F900211C2009F068F910E000207749C6
:10281000086009F0ABFB05211A2009F074F90521C5
:102820001C2009F070F900211E2009F056F922E061
:102830006E48006868B901206C49086009F096FB91
:102840000A211A2009F05FF900211C2009F045F93E
:1028500010E000206549086009F088FB05211A2076
:1028600009F051F905211C2009F04DF900211E2025
:1028700009F033F900BF00BF80E409F0C0FB01217B
:10288000002009F0FCF801220821022009F0B4F828
:102890000321022009F00BF90821042009F0EFF8C8
:1028A00009F064FB5248006838B90A211A2009F07F
:1028B0002AF900211C2009F010F94D480068012870
:1028C0000BD105211A2009F01EF905211C2009F061
:1028D0001AF900211E2009F000F9029810B1012810
:1028E00056D12AE042480068401E41490860084627
:1028F0000068002801DA012008603D48006848B9F6
:1029000009F034FB0A211A2009F0FDF800211C20EF
:1029100009F0E3F83648006801280DD109F026FBDC
:1029200005211A2009F0EFF805211C2009F0EBF829
:1029300000211E2009F0D1F82AE02D480068401C33
:102940002B49086008460068012801DD0020086066
:102950002748006848B909F009FB0A211A2009F044
:10296000D2F800211C2009F0B8F82148006801289D
:102970000DD109F0FBFA05211A2009F0C4F8052150
:102980001C2009F0C0F800211E2009F0A6F800BFA5
:1029900000BF03E509F033FB0221002009F06FF8C6
:1029A00001220821022009F027F80321022009F062
:1029B0007EF80821042009F062F809F0D7FA0D48E2
:1029C0000068012818D103211A2009F09CF8092178
:1029D0001C2009F098F803211E2009F094F817E054
:1029E000CC020020C8020020D0020020D402002027
:1029F000D8020020DC02002000211A2009F083F810
:102A000008211C2009F07FF800211E2009F065F83C
:102A1000029810B101284ED126E0F848006888B924
:102A20000120F649086009F0A1FA03211A2009F0F3
:102A30006AF809211C2009F066F803211E2009F01C
:102A400062F810E00020ED49086009F08FFA0021DB
:102A50001A2009F058F808211C2009F054F8002128
:102A60001E2009F03AF826E0E448006888B9012001
:102A7000E249086009F07AFA03211A2009F043F8C4
:102A800009211C2009F03FF803211E2009F03BF822
:102A900010E00020D949086009F068FA00211A20E6
:102AA00009F031F808211C2009F02DF800211E2022
:102AB00009F013F800BF00BF70E409F0A0FA032189
:102AC000002008F0DCFF01220821022008F094FF1A
:102AD0000321022008F0EBFF0821042008F0CFFFBB
:102AE00009F044FAC64800680A2190FBF1F201FBA4
:102AF0001200C0B2014600901A2008F0EEFFC04854
:102B000000680A2190FBF1F090FBF1F201FB12004A
:102B1000C0B2014600901C2008F0DFFFB8480068F2
:102B2000642190FBF1F0C0B2014600901E2008F035
:102B3000D4FF029810B101286CD135E0B04800688C
:102B4000401EAF49086008460068012802DA4FF4C9
:102B50001670086009F00AFAA94800680A2190FB7B
:102B6000F1F201FB1200C0B2014600901A2008F0F9
:102B7000B4FFA34800680A2190FBF1F090FBF1F24A
:102B800001FB1200C0B2014600901C2008F0A5FF16
:102B90009B480068642190FBF1F0C0B201460090B0
:102BA0001E2008F09AFF35E095480068401C9449C3
:102BB000086008460068B0F5167F01DD0120086056
:102BC00009F0D4F98E4800680A2190FBF1F201FB6C
:102BD0001200C0B2014600901A2008F07EFF88481B
:102BE00000680A2190FBF1F090FBF1F201FB12006A
:102BF000C0B2014600901C2008F06FFF80480068BA
:102C0000642190FBF1F0C0B2014600901E2008F054
:102C100064FF00BF00BF8AE409F0F1F9042100203D
:102C200008F02DFF01220821022008F0E5FE032113
:102C3000022008F03CFF0821042008F020FF09F0E2
:102C400095F9704800680A2190FBF1F201FB12002F
:102C5000C0B2014600901A2008F03FFF69480068A2
:102C60000A2190FBF1F090FBF1F201FB1200C0B2DF
:102C7000014600901C2008F030FF62480068642183
:102C800090FBF1F0C0B2014600901E2008F025FF35
:102C9000029810B101286CD135E05A480068401EF6
:102CA0005849086008460068012802DA4FF4167097
:102CB000086009F05BF9534800680A2190FBF1F2C3
:102CC00001FB1200C0B2014600901A2008F005FF77
:102CD0004C4800680A2190FBF1F090FBF1F201FBF7
:102CE0001200C0B2014600901C2008F0F6FE4548D4
:102CF0000068642190FBF1F0C0B2014600901E20F4
:102D000008F0EBFE35E03F480068401C3D49086094
:102D100008460068B0F5167F01DD0120086009F063
:102D200025F9384800680A2190FBF1F201FB1200F6
:102D3000C0B2014600901A2008F0CFFE314800686A
:102D40000A2190FBF1F090FBF1F201FB1200C0B2FE
:102D5000014600901C2008F0C0FE2A48006864214B
:102D600090FBF1F0C0B2014600901E2008F0B5FEC5
:102D700000BF00BFAAE409F042F90521002008F0D5
:102D80007EFE01220821022008F036FE03210220E7
:102D900008F08DFE0821042008F071FE09F0E6F825
:102DA000194800680A2190FBF1F201FB1200C0B241
:102DB000014600901A2008F090FE029810B10128F8
:102DC0003FD123E010480068401E0F4908600846C4
:102DD0000068002801DA0120086009F0C7F80A48F5
:102DE00000680A2190FBF1F201FB1200C0B201461B
:102DF00000901A2008F071FE23E00000DC020020A1
:102E0000E0020020E4020020F4020020FE480068F6
:102E1000401CFD49086008460068012801DD0020CB
:102E2000086009F0A3F8F84800680A2190FBF1F265
:102E300001FB1200C0B2014600901A2008F04DFEBE
:102E400000BF00BF42E409F0DAF8002208210720A1
:102E500008F0D2FD002208210A2008F0CDFD002153
:102E6000084608F024FE01220821022008F0C4FDD3
:102E70000321022008F01BFE0421084608F0FFFD94
:102E80000121172008F07DFE09F070F8DF48006886
:102E90000A2190FBF1F201FB1200C0B20146009042
:102EA0001A2008F01AFE012211461C2008F0A4FD89
:102EB000D64800680A2190FBF1F090FBF1F201FB8B
:102EC0001200C0B2014600901C2008F042FECF481C
:102ED0000068642190FBF1F0C0B2014600901E2012
:102EE00008F0FBFD029810B1012839D139E0C7483C
:102EF0000068401EC549086008460068002801DADD
:102F00000020086009F032F8C04800680A2190FBF0
:102F1000F1F201FB1200C0B2014600901A2008F045
:102F2000DCFD012211461C2008F066FDB748006850
:102F30000A2190FBF1F090FBF1F201FB1200C0B20C
:102F4000014600901C2008F004FEB048006864218F
:102F500090FBF1F0C0B2014600901E2008F0BDFDCC
:102F60004FE0AA480068401CA8490860A8480068CB
:102F7000A8490968401A032190FBF1F000EB80009A
:102F8000A2490968B1EB400F0CDDA1480068A149D6
:102F90000968401A032190FBF1F000EB800040002B
:102FA0009A49086008F0E2FF984800680A2190FBFF
:102FB000F1F201FB1200C0B2014600901A2008F0A5
:102FC0008CFD012211461C2008F016FD8F48006878
:102FD0000A2190FBF1F090FBF1F201FB1200C0B26C
:102FE000014600901C2008F0B4FD88480068642168
:102FF00090FBF1F0C0B2014600901E2008F06DFD7C
:1030000000BF00BF38E408F0FAFF0021084608F0CE
:103010004EFD01220821022008F0EEFC0B210220C7
:1030200008F045FD0421084608F029FD7A480068AB
:103030000A2190FBF1F201FB1200C0B2024601210D
:1030400000901C2008F0D8FC08F090FF00211A2006
:1030500008F07FFD704800680A2190FBF1F090FBBA
:10306000F1F201FB1200C0B2014600901C2008F0F2
:1030700070FD69480068642190FBF1F0C0B2014620
:1030800000901E2008F029FD029810B1012839D1C6
:1030900039E061480068401E5F49086008460068E2
:1030A000002801DA0020086008F060FF5A48006834
:1030B0000A2190FBF1F201FB1200C0B20146009020
:1030C0001A2008F046FD012211461C2008F094FC4D
:1030D000514800680A2190FBF1F090FBF1F201FBEE
:1030E0001200C0B2014600901C2008F032FD4A4890
:1030F0000068642190FBF1F0C0B2014600901E20F0
:1031000008F0EBFC4FE044480068401C424908606E
:103110004248006842490968401A032190FBF1F0D7
:1031200000EB80003C490968B1EB400F0CDD3B48E7
:1031300000683B490968401A032190FBF1F000EB5D
:10314000800040003449086008F010FF32480068F1
:103150000A2190FBF1F201FB1200C0B2014600907F
:103160001A2008F0F6FC012211461C2008F044FC4D
:10317000294800680A2190FBF1F090FBF1F201FB75
:103180001200C0B2014600901C2008F0E2FC224868
:103190000068642190FBF1F0C0B2014600901E204F
:1031A00008F09BFC00BF00BF86E408F028FF002168
:1031B000084608F064FC01220821022008F01CFCEB
:1031C0000321022008F073FC0921042008F057FCB9
:1031D00008F0CCFE13480078642190FBF1F201FB6B
:1031E00012000A2190FBF1F201FB1200C0B201466D
:1031F00000901A2008F071FC0A480078642190FBC6
:10320000F1F201FB12000FE0F4020020F8020020AE
:10321000B8020020BC02002000030020C8020020E9
:10322000CC020020470200200A2190FBF1F0C0B23E
:10323000014600901C2008F050FCFE4800786421F4
:1032400090FBF1F0C0B2014600901E2008F045FC52
:10325000029810B1012876D13AE0F6480078401E75
:10326000F449087008460078012801DAFF20087048
:1032700008F07CFEEF480078642190FBF1F201FB3E
:1032800012000A2190FBF1F201FB1200C0B20146CC
:1032900000901A2008F021FCE6480078642190FB99
:1032A000F1F201FB12000A2190FBF1F0C0B20146DD
:1032B00000901C2008F011FCDE480078642190FB8F
:1032C000F1F0C0B2014600901E2008F006FC3AE082
:1032D000D8480078401CD749087008460078FF2875
:1032E00001DD0120087008F041FED2480078642119
:1032F00090FBF1F201FB12000A2190FBF1F201FBBD
:103300001200C0B2014600901A2008F0E6FBC9483E
:103310000078642190FBF1F201FB12000A2190FB7E
:10332000F1F0C0B2014600901C2008F0D6FBC14865
:103330000078642190FBF1F0C0B2014600901E209D
:1033400008F0CBFB00BF00BF65E408F058FE012188
:10335000002008F094FB01220821022008F04CFB19
:103360000321022008F0A3FB0921042008F087FBB9
:1033700008F0FCFDB0480078642190FBF1F201FBFD
:1033800012000A2190FBF1F201FB1200C0B20146CB
:1033900000901A2008F0A1FBA7480078642190FB58
:1033A000F1F201FB12000A2190FBF1F0C0B20146DC
:1033B00000901C2008F091FB9F480078642190FB4E
:1033C000F1F0C0B2014600901E2008F086FB029882
:1033D00010B1012876D13AE097480078401E96490E
:1033E000087008460078012801DAFF20087008F00C
:1033F000BDFD91480078642190FBF1F201FB1200C1
:103400000A2190FBF1F201FB1200C0B201460090CC
:103410001A2008F062FB88480078642190FBF1F2E2
:1034200001FB12000A2190FBF1F0C0B201460090AE
:103430001C2008F052FB80480078642190FBF1F0DA
:10344000C0B2014600901E2008F047FB3AE07A48DF
:103450000078401C7849087008460078FF2801DD94
:103460000120087008F082FD73480078642190FB09
:10347000F1F201FB12000A2190FBF1F201FB1200B4
:10348000C0B2014600901A2008F027FB6A48007875
:10349000642190FBF1F201FB12000A2190FBF1F094
:1034A000C0B2014600901C2008F017FB624800786B
:1034B000642190FBF1F0C0B2014600901E2008F09C
:1034C0000CFB00BF00BF55E408F099FD022100206D
:1034D00008F0D5FA01220821022008F08DFA032114
:1034E000022008F0E4FA0921042008F0C8FA08F0E4
:1034F0003DFD52480078642190FBF1F201FB12007F
:103500000A2190FBF1F201FB1200C0B201460090CB
:103510001A2008F0E2FA49480078642190FBF1F2A1
:1035200001FB12000A2190FBF1F0C0B201460090AD
:103530001C2008F0D2FA41480078642190FBF1F099
:10354000C0B2014600901E2008F0C7FA029810B1E0
:1035500001287ED13AE039480078401E374908708A
:1035600008460078012801DAFF20087008F0FEFC08
:1035700032480078642190FBF1F201FB12000A212D
:1035800090FBF1F201FB1200C0B2014600901A203C
:1035900008F0A3FA29480078642190FBF1F201FBBE
:1035A00012000A2190FBF1F0C0B2014600901C20ED
:1035B00008F093FA21480078642190FBF1F0C0B242
:1035C000014600901E2008F088FA42E01B4800786F
:1035D000401C1A49087008460078FF2801DD0120C8
:1035E000087008F0C3FC15480078642190FBF1F2E4
:1035F00001FB12000A2190FBF1F201FB1200C0B2A4
:10360000014600901A2008F068FA0C4800786421FE
:1036100090FBF1F201FB12000A2190FBF1F0C0B225
:10362000014600901C2008F058FA044800786421F4
:1036300006E0000047020020480200204902002066
:1036400090FBF1F0C0B2014600901E2008F045FA50
:1036500000BF00BFD8E208F0D2FC0321002008F030
:103660000EFA01220821022008F0C6F903210220E7
:1036700008F01DFA0921042008F001FA08F076FC90
:10368000FE480078642190FBF1F201FB12000A2150
:1036900090FBF1F201FB1200C0B2014600901A202B
:1036A00008F01BFAF5480078642190FBF1F201FB69
:1036B00012000A2190FBF1F0C0B2014600901C20DC
:1036C00008F00BFAED480078642190FBF1F0C0B2ED
:1036D000014600901E2008F000FA029810B101285F
:1036E00076D13AE0E5480078401EE4490870084683
:1036F0000078012801DAFF20087008F037FCDF4865
:103700000078642190FBF1F201FB12000A2190FB8A
:10371000F1F201FB1200C0B2014600901A2008F03D
:10372000DCF9D6480078642190FBF1F201FB12002D
:103730000A2190FBF1F0C0B2014600901C2008F075
:10374000CCF9CE480078642190FBF1F0C0B201467C
:1037500000901E2008F0C1F93AE0C8480078401CEB
:10376000C649087008460078FF2801DD012008706E
:1037700008F0FCFBC1480078642190FBF1F201FBEA
:1037800012000A2190FBF1F201FB1200C0B20146C7
:1037900000901A2008F0A1F9B8480078642190FB45
:1037A000F1F201FB12000A2190FBF1F0C0B20146D8
:1037B00000901C2008F091F9B0480078642190FB3B
:1037C000F1F0C0B2014600901E2008F086F900BF5B
:1037D00000BFA3E308F013FC0021084608F04FF9EE
:1037E00001220821022008F007F90321022008F035
:1037F0005EF90521042008F042F90121172008F0A4
:10380000C0F908F0B3FB9E48006800280ADA0122DC
:103810000821072008F0F0F89948006840429949CB
:10382000086008E096480068964908600022082170
:10383000072008F0E1F8934800680A2190FBF1F2B4
:1038400001FB1200C0B2014600901A2008F045F9B1
:10385000012211461C2008F0CFF88A4800680A218E
:1038600090FBF1F090FBF1F201FB1200C0B20146B7
:1038700000901C2008F06DF982480068642190FBDC
:10388000F1F0C0B2014600901E2008F026F902981F
:1038900010B1012853D153E079480068401E78499F
:1038A00008600846006810F1640F02DA6FF06300E8
:1038B00008607348006800280ADA012208210720FE
:1038C00008F09AF86E48006840426E49086008E0C7
:1038D0006B4800686B49086000220821072008F047
:1038E0008BF808F043FB674800680A2190FBF1F26F
:1038F00001FB1200C0B2014600901A2008F0EDF85A
:10390000012211461C2008F077F85E4800680A2161
:1039100090FBF1F090FBF1F201FB1200C0B2014606
:1039200000901C2008F015F956480068642190FBAF
:10393000F1F0C0B2014600901E2008F0CEF851E030
:103940004F480068401C4E490860084600686428DB
:1039500001DD642008604A48006800280ADA012274
:103960000821072008F048F84548006840424549CA
:10397000086008E0424800684249086000220821C7
:10398000072008F039F808F0F1FA3E4800680A21EB
:1039900090FBF1F201FB1200C0B2014600901A2028
:1039A00008F09BF8012211461C2008F025F8354844
:1039B00000680A2190FBF1F090FBF1F201FB12008C
:1039C000C0B2014600901C2008F0C3F82D480068E2
:1039D000642190FBF1F0C0B2014600901E2008F077
:1039E0007CF800BF00BF99E208F009FB00210846FF
:1039F00008F045F801220821022007F0FDFF0B2105
:103A0000022008F054F80521042008F038F808F0E6
:103A1000ADFA1D48006800280ADA012208210720B3
:103A200007F0EAFF1848006840421849086008E0BB
:103A3000154800681549086000220821072007F092
:103A4000DBFF124800680A2190FBF1F201FB120033
:103A5000C0B2014600901A2008F07BF801221146FE
:103A60001C2007F0C9FF094800680A2190FBF1F00B
:103A700090FBF1F201FB1200C0B209E04A02002003
:103A8000280300202C0300203003002034030020F2
:103A9000014600901C2008F05CF8FB480068642197
:103AA00090FBF1F0C0B2014600901E2008F015F81E
:103AB000029810B1012853D153E0F4480068401E29
:103AC000F24908600846006810F1640F02DA6FF0EE
:103AD00063000860ED48006800280ADA0122082126
:103AE000072007F089FFE94800684042E64908607E
:103AF00008E0E6480068E449086000220821072041
:103B000007F07AFF08F032FADF4800680A2190FBDC
:103B1000F1F201FB1200C0B2014600901A2008F039
:103B200018F8012211461C2007F066FFD6480068ED
:103B30000A2190FBF1F090FBF1F201FB1200C0B200
:103B4000014600901C2008F004F8CF48006864216A
:103B500090FBF1F0C0B2014600901E2007F0BDFFBF
:103B600051E0CA480068401CC8490860084600681F
:103B7000642801DD64200860C448006800280ADA6F
:103B800001220821072007F037FFC04800684042A3
:103B9000BD49086008E0BD480068BB4908600022D4
:103BA0000821072007F028FF08F0E0F9B648006870
:103BB0000A2190FBF1F201FB1200C0B20146009015
:103BC0001A2007F0C6FF012211461C2007F014FF3F
:103BD000AD4800680A2190FBF1F090FBF1F201FB87
:103BE0001200C0B2014600901C2007F0B2FFA648A8
:103BF0000068642190FBF1F0C0B2014600901E20E5
:103C000007F06BFF00BF00BF88E108F0F8F904215E
:103C1000002007F034FF01220821022007F0ECFE0B
:103C20000321022007F043FF0921042007F027FFAA
:103C300008F09CF908F0EFF99548008842F21071FD
:103C400090FBF1F0C0B2014600900B2007F0DCFDC4
:103C50008F48008842F2107190FBF1F201FB1200D4
:103C60004FF47A7190FBF1F0C0B2014600900D2044
:103C700007F0CAFD864800884FF47A7190FBF1F294
:103C800001FB1200642190FBF1F0C0B201460090EC
:103C90000F2007F0B9FD7E480088642190FBF1F207
:103CA00001FB12000A2190FBF1F0C0B20146009026
:103CB000112007F0A9FD764800880A2190FBF1F257
:103CC00001FB1200C0B201460090132007F09CFDDA
:103CD000029810B101285AD15AE06D480088401E60
:103CE0006B49088008460088012802DA4FF6FF7009
:103CF000088008F090F96648008842F2107190FB45
:103D0000F1F0C0B2014600900B2007F07DFD604845
:103D1000008842F2107190FBF1F201FB12004FF4A7
:103D20007A7190FBF1F0C0B2014600900D2007F0CF
:103D30006BFD574800884FF47A7190FBF1F201FB5C
:103D40001200642190FBF1F0C0B2014600900F20F8
:103D500007F05AFD4E480088642190FBF1F201FB08
:103D600012000A2190FBF1F0C0B201460090112030
:103D700007F04AFD464800880A2190FBF1F201FB5A
:103D80001200C0B201460090132007F03DFD5AE03A
:103D90003F480088401C3E49088008460088B0F52E
:103DA000803F01DB0120088008F035F938480088A1
:103DB00042F2107190FBF1F0C0B2014600900B206E
:103DC00007F022FD3248008842F2107190FBF1F2B8
:103DD00001FB12004FF47A7190FBF1F0C0B2014682
:103DE00000900D2007F010FD294800884FF47A71EB
:103DF00090FBF1F201FB1200642190FBF1F0C0B2E4
:103E0000014600900F2007F0FFFC21480088642144
:103E100090FBF1F201FB12000A2190FBF1F0C0B21D
:103E200001460090112007F0EFFC194800880A2194
:103E300090FBF1F201FB1200C0B20146009013208A
:103E400007F0E2FC00BF00BF68E008F0D8F80421EA
:103E5000002007F02CFE0621022007F028FE052195
:103E6000042007F00CFE08F0D6F808F07FF80948A7
:103E70000078014600901A2007F02FFE029858B1F2
:103E8000012833D11DE0000034030020300300205E
:103E90004C020020EC020020FE480068401EFD4954
:103EA000086008460068012801DA0420086008F06C
:103EB0005DF8F8480078014600901A2007F00DFEE2
:103EC00014E0F4480068401CF249086008460068A5
:103ED000042801DD0120086008F048F8ED4800786A
:103EE000014600901A2007F0F8FD00BF00BF15E062
:103EF00008F085F80621022007F0C1FD0121042009
:103F000007F0BDFD08F032F80120E3490860002009
:103F1000E24908600120E249086000BF00BF0EBD11
:103F200003B583B003981A2882F02783DFE810F0E6
:103F30001A001C00DB00D0014D024B03540409059C
:103F4000B90521069C062907B0076A0819097809EE
:103F5000410AFD0A060C040DFC0D010F0B101E1189
:103F6000C7120F1302F009BB08F049F800210846F8
:103F700007F09DFD01220821022007F03DFD0121EF
:103F8000022007F07CFD0121042007F078FD07F0F6
:103F9000EDFFC4480078642190FBF1F201FB1200B0
:103FA0000A2190FBF1F201FB1200C0B2014602901F
:103FB0001A2007F092FDBB480078642190FBF1F2D3
:103FC00001FB12000A2190FBF1F0C0B20146029001
:103FD0001C2007F082FDB3480078642190FBF1F0CB
:103FE000C0B2014602901E2007F077FD049810B180
:103FF000012876D13AE0AB480078401EA949087004
:1040000008460078012801DAFE20087007F0AEFFAC
:10401000A4480078642190FBF1F201FB12000A2110
:1040200090FBF1F201FB1200C0B2014602901A208F
:1040300007F053FD9B480078642190FBF1F201FBEF
:1040400012000A2190FBF1F0C0B2014602901C2040
:1040500007F043FD93480078642190FBF1F0C0B273
:10406000014602901E2007F038FD3AE08D480078A6
:10407000401C8C49087008460078FE2801DD0120AC
:10408000087007F073FF87480078642190FBF1F215
:1040900001FB12000A2190FBF1F201FB1200C0B2F9
:1040A000014602901A2007F018FD7E48007864212E
:1040B00090FBF1F201FB12000A2190FBF1F0C0B27B
:1040C000014602901C2007F008FD76480078642124
:1040D00090FBF1F0C0B2014602901E2007F0FDFCFB
:1040E00000BF00BF3EE707F08AFF0221002007F073
:1040F000DEFC01220821022007F07EFC01220821BB
:10410000022007F0B7FB0121022007F0D0FC0221BA
:10411000042007F0B4FC07F029FF634863490968ED
:1041200050F821006249086008460068642190FB4D
:10413000F1F00A2190FBF1F201FB1200C0B201463E
:1041400002901A2007F0C9FC59480068642190FBCE
:10415000F1F00A2190FBF1F090FBF1F201FB12006B
:10416000C0B2014602901C2007F0B7FC504800681E
:1041700042F2107190FBF1F0C0B2014602901E2095
:1041800007F0ABFC049810B1012846D146E047483F
:104190000068401E4549086008460068002801DAAA
:1041A0000420086040484149096850F8210040490E
:1041B0000860084600680AF0A8FA07F0D7FE3C48F5
:1041C0000068642190FBF1F00A2190FBF1F201FB01
:1041D0001200C0B2014602901A2007F07EFC34485B
:1041E0000068642190FBF1F00A2190FBF1F090FB54
:1041F000F1F201FB1200C0B2014602901C2007F050
:104200006CFC2B48006842F2107190FBF1F0C0B2D8
:10421000014602901E2007F060FC57E0234800682A
:10422000401C2249086008460068042801DD00207F
:1042300008601D481D49096850F821001C490860A4
:10424000084600680AF061FA07F090FE1848006816
:10425000642190FBF1F00A2190FBF1F201FB1200C6
:10426000C0B2014602901A2007F037FC10480068DF
:10427000642190FBF1F00A2190FBF1F090FBF1F248
:1042800001FB1200C0B2014602901C2007F025FC81
:1042900007480FE0EC0200205803002044030020F0
:1042A0006003002094020020A00200209C02002055
:1042B00098020020006842F2107190FBF1F0C0B249
:1042C000014602901E2007F008FC00BF00BF49E62F
:1042D00007F095FE0821002007F0E9FB01220821E4
:1042E000022007F089FB0721022007F0E0FB0321F1
:1042F000042007F0C4FBFE48006801280AD107F03B
:1043000035FE0A211A2007F0FEFB00211C2007F0D1
:10431000E4FB0DE007F02AFE05211A2007F0F3FB6D
:1043200005211C2007F0EFFB00211E2007F0D5FB24
:10433000049810B1012846D122E0ED48006868B920
:104340000120EB49086007F011FE0A211A2007F04E
:10435000DAFB00211C2007F0C0FB10E00020E4493C
:10436000086007F003FE05211A2007F0CCFB0521A9
:104370001C2007F0C8FB00211E2007F0AEFB22E046
:10438000DB48006868B90120D949086007F0EEFDF4
:104390000A211A2007F0B7FB00211C2007F09DFB23
:1043A00010E00020D249086007F0E0FD05211A2046
:1043B00007F0A9FB05211C2007F0A5FB00211E200A
:1043C00007F08BFB00BF00BFCCE507F018FE0B2108
:1043D000002007F06CFB01220821022007F00CFBF3
:1043E0000321022007F063FB0421084607F047FB86
:1043F0000121172007F0C5FB07F0B8FDBD48006894
:1044000000280ADA01220821072007F0F5FAB94846
:1044100000684042B849086008E0B6480068B649FC
:10442000086000220821072007F0E6FA00211A2080
:1044300007F053FB012211461C2007F0DDFAAE48BD
:1044400000680A2190FBF1F201FB1200C0B20146A4
:1044500002901C2007F07DFBA74800680A2190FB12
:10446000F1F0C0B2014602901E2007F036FB04981E
:1044700010B1012875D175E0A04800689D49096810
:10448000884226DD07F072FD9A48006800280ADAA3
:1044900001220821072007F0AFFA96480068404241
:1044A0009549086008E09348006893490860002235
:1044B0000821072007F0A0FA08211A2007F023FBA3
:1044C00008211C2007F01FFB06211E2007F01BFB04
:1044D00047E088480068401E864908600846006832
:1044E00010F1280F02DA6FF02700086007F03EFD98
:1044F0008048006800280ADA01220821072007F016
:104500007BFA7C48006840427B49086008E07948B3
:1045100000687949086000220821072007F06CFA3A
:1045200000211A2007F0D9FA012211461C2007F0B9
:1045300063FA714800680A2190FBF1F201FB120056
:10454000C0B2014602901C2007F003FB6A480068D5
:104550000A2190FBF1F0C0B2014602901E2007F044
:10456000BCFA2EE063480068401C624908600846B7
:104570000068502801DD5020086007F0F7FC00219A
:104580001A2007F0AAFA012211461C2007F034FA7B
:10459000594800680A2190FBF1F201FB1200C0B2F9
:1045A000014602901C2007F0D4FA534800680A2103
:1045B00090FBF1F0C0B2014602901E2007F08DFA88
:1045C00000BF00BFCEE407F01AFD0421002007F071
:1045D0006EFA01220821022007F00EFA03210220C0
:1045E00007F065FA0521042007F049FA0121172098
:1045F00007F0C7FA07F0BAFC4048006800280ADA5A
:1046000001220821072007F0F7F93C4800684042E2
:104610003B49086008E039480068394908600022D1
:104620000821072007F0E8F900211A2007F055FAC1
:10463000012211461C2007F0DFF9314800680A21E9
:1046400090FBF1F201FB1200C0B2014602901C2067
:1046500007F07FFA2A4800680A2190FBF1F0C0B207
:10466000014602901E2007F038FA049810B1012884
:1046700053D153E021480068401E20490860084695
:10468000006810F1280F02DA6FF02700086007F0C9
:104690006DFC1A48006800280ADA01220821072068
:1046A00007F0AAF91548006840421549086008E07B
:1046B000124800681249086000220821072007F00C
:1046C0009BF900211A2007F008FA012211461C204C
:1046D00007F092F90A4800680A2190FBF1F201FB09
:1046E0001200C0B2014602901C2007F032FA09E025
:1046F000B4020020B8020020C4020020BC02002046
:10470000C0020020F84800680A2190FBF1F0C0B216
:10471000014602901E2007F0E0F95BE0F3480068D4
:10472000F349096888420EDD07F020FC08211A20B1
:1047300007F0E9F908211C2007F0E5F906211E2001
:1047400007F0E1F945E0E9480068401CE7490860E6
:1047500008460068502801DD5020086007F006FC7C
:10476000E248006800280ADA01220821072007F041
:1047700043F9DE4800684042DB49086008E0DB4856
:104780000068D949086000220821072007F034F9A1
:1047900000211A2007F0A1F9012211461C2007F080
:1047A0002BF9D14800680A2190FBF1F201FB1200BD
:1047B000C0B2014602901C2007F0CBF9CA4800683D
:1047C0000A2190FBF1F0C0B2014602901E2007F0D2
:1047D00084F900BF00BF85E400220821072007F00C
:1047E0000BF907F00CFC0B21002007F060F9012207
:1047F0000821022007F000F90B21022007F057F9E9
:104800000621042007F03BF907F0B0FB00211A2035
:1048100007F09FF9012211461C2007F0EDF8B5487A
:1048200000680A2190FBF1F201FB1200C0B20146C0
:1048300002901C2007F08DF9AE4800680A2190FB19
:10484000F1F0C0B2014602901E2007F046F904982C
:1048500010B1012873D143E0A6480068A649096851
:1048600088420EDA07F082FB08211A2007F04BF984
:1048700008211C2007F047F906211E2007F043F904
:104880002DE09C480068401E9A4908600846006870
:10489000002801DA0120086007F068FB00211A20D7
:1048A00007F057F9012211461C2007F0A5F891489E
:1048B00000680A2190FBF1F201FB1200C0B2014630
:1048C00002901C2007F045F98A4800680A2190FBF5
:1048D000F1F0C0B2014602901E2007F0FEF82EE073
:1048E00084480068401C83490860084600686328C3
:1048F00001DD6320086007F039FB00211A2007F072
:1049000028F9012211461C2007F076F87948006842
:104910000A2190FBF1F201FB1200C0B201460290A5
:104920001C2007F016F9734800680A2190FBF1F08B
:10493000C0B2014602901E2007F0CFF800BF00BFB2
:10494000C5E407F05CFB0421002007F0B0F8012269
:104950000821022007F050F80B21022007F0A7F8E9
:104960000721042007F08BF807F000FB00211A2034
:1049700007F0EFF8012211461C2007F03DF85E48D1
:1049800000680A2190FBF1F201FB1200C0B201465F
:1049900002901C2007F0DDF8574800680A2190FBC0
:1049A000F1F0C0B2014602901E2007F096F804987C
:1049B00010B1012873D12EE04F480068401E4E49C7
:1049C000086008460068002801DA0020086007F047
:1049D000CDFA00211A2007F0BCF8012211461C2054
:1049E00007F00AF8444800680A2190FBF1F201FB45
:1049F0001200C0B2014602901C2007F0AAF83E48FF
:104A000000680A2190FBF1F0C0B2014602901E201E
:104A100007F063F843E0374800683749096888427F
:104A20000EDA07F0A3FA08211A2007F06CF8082123
:104A30001C2007F068F806211E2007F064F82DE01E
:104A40002D480068401C2C4908600846006863280F
:104A500001DD6320086007F089FA00211A2007F0C1
:104A600078F8012211461C2006F0C6FF2248006893
:104A70000A2190FBF1F201FB1200C0B20146029044
:104A80001C2007F066F81C4800680A2190FBF1F032
:104A9000C0B2014602901E2007F01FF800BF00BF01
:104AA00015E407F0ACFA0521002007F000F8012218
:104AB0000821022006F0A0FF0321022006F0F7FFE4
:104AC0000821042006F0DBFF0121172007F059F828
:104AD00007F04CFA09480068012811D105211C2073
:104AE00007F011F810E00000C0020020BC02002016
:104AF000B8020020C8020020CC020020D002002012
:104B000003211C2006F0FFFF049810B101282ED1CC
:104B100016E0FE48006848B90120FC49086007F02B
:104B200025FA05211C2006F0EEFF08E00020F749D9
:104B3000086007F01BFA03211C2006F0E4FF16E0D2
:104B4000F248006848B90120F049086007F00EFA01
:104B500005211C2006F0D7FF08E00020EB49086083
:104B600007F004FA03211C2006F0CDFF00BF00BFB0
:104B70002AE407F044FA0821002006F098FF0122F9
:104B80000821022006F038FF0521022006F08FFFE1
:104B90000921042006F073FF07F0E8F9DC480068FB
:104BA000012808D10A211A2006F0ADFF00211C209F
:104BB00006F093FF0BE005211A2006F0A4FF052163
:104BC0001C2006F0A0FF00211E2006F086FF04989E
:104BD00010B1012846D122E0CD48006868B9012013
:104BE000CB49086007F0C2F90A211A2006F08BFFB2
:104BF00000211C2006F071FF10E00020C44908606D
:104C000007F0B4F905211A2006F07DFF05211C20CC
:104C100006F079FF00211E2006F05FFF22E0BC486D
:104C2000006868B90120BA49086007F09FF90A21B5
:104C30001A2006F068FF00211C2006F04EFF10E04D
:104C40000020B349086007F091F905211A2006F009
:104C50005AFF05211C2006F056FF00211E2006F0F9
:104C60003CFF00BF00BFADE407F0C9F901210020FF
:104C700006F005FF01220821022006F0BDFE0021FA
:104C8000022006F0FCFE0321042006F010FF07F0CE
:104C90006DF9A048006838B90A211A2006F033FFE0
:104CA00000211C2006F019FF9A48006801280BD14A
:104CB00005211A2006F027FF05211C2006F023FFFE
:104CC00000211E2006F009FF049810B1012856D1DA
:104CD0002AE090480068401E8E4908600846006837
:104CE000002801DA012008608A48006848B907F006
:104CF0003DF90A211A2006F006FF00211C2006F0CB
:104D0000ECFE8448006801280DD107F02FF9052139
:104D10001A2006F0F8FE05211C2006F0F4FE002102
:104D20001E2006F0DAFE2AE07A480068401C794925
:104D3000086008460068012801DD00200860754809
:104D4000006848B907F012F90A211A2006F0DBFEC4
:104D500000211C2006F0C1FE6E48006801280DD11C
:104D600007F004F905211A2006F0CDFE05211C20CC
:104D700006F0C9FE00211E2006F0AFFE00BF00BFF6
:104D800020E407F03CF90221002006F078FE012221
:104D90000821022006F030FE0021022006F06FFEFE
:104DA0000321042006F083FE07F0E0F85A4800686B
:104DB00001280CD103211A2006F0A5FE09211C2090
:104DC00006F0A1FE03211E2006F09DFE0BE000214F
:104DD0001A2006F098FE08211C2006F094FE0021FF
:104DE0001E2006F07AFE049810B101284ED126E06C
:104DF0004948006888B901204749086007F0B6F8BB
:104E000003211A2006F07FFE09211C2006F07BFEFC
:104E100003211E2006F077FE10E000203E490860C6
:104E200007F0A4F800211A2006F06DFE08211C20CE
:104E300006F069FE00211E2006F04FFE26E03648EF
:104E4000006888B901203449086007F08FF8032111
:104E50001A2006F058FE09211C2006F054FE0321FA
:104E60001E2006F050FE10E000202B49086007F0DD
:104E70007DF800211A2006F046FE08211C2006F0CD
:104E800042FE00211E2006F028FE00BF00BFA2E463
:104E900007F0B5F80321002006F0F1FD01220821FA
:104EA000022006F0A9FD0021022006F0E8FD032102
:104EB000042006F0FCFD07F059F8184800680A21A4
:104EC00090FBF1F201FB1200C0B2014602901A20E1
:104ED00006F003FE114800680A2190FBF1F090FBF8
:104EE000F1F201FB1200C0B2014602901C2006F054
:104EF000F4FD0A480068642190FBF1F0C0B201465D
:104F000002901E2006F0E9FD049809E0D00200207E
:104F1000D4020020D8020020DC020020E0020020A1
:104F200010B101286CD135E0FE480068401EFD49F3
:104F3000086008460068012802DA4FF4167008601D
:104F400007F014F8F74800680A2190FBF1F201FB22
:104F50001200C0B2014602901A2006F0BEFDF148D0
:104F600000680A2190FBF1F090FBF1F201FB1200C6
:104F7000C0B2014602901C2006F0AFFDE94800686F
:104F8000642190FBF1F0C0B2014602901E2006F0B1
:104F9000A4FD35E0E3480068401CE249086008468B
:104FA0000068B0F5167F01DD0120086006F0DEFF25
:104FB000DC4800680A2190FBF1F201FB1200C0B24C
:104FC000014602901A2006F088FDD64800680A21A2
:104FD00090FBF1F090FBF1F201FB1200C0B2014630
:104FE00002901C2006F079FDCE480068642190FBF9
:104FF000F1F0C0B2014602901E2006F06EFD00BF27
:1050000000BF9DE406F0FBFF0421002006F037FD01
:1050100001220821022006F0EFFC0021022006F008
:105020002EFD0321042006F042FD06F09FFFBE483E
:1050300000680A2190FBF1F201FB1200C0B20146A8
:1050400002901A2006F049FDB74800680A2190FB3B
:10505000F1F090FBF1F201FB1200C0B201460290A8
:105060001C2006F03AFDB0480068642190FBF1F086
:10507000C0B2014602901E2006F02FFD049810B128
:1050800001286CD135E0A8480068401EA649086098
:1050900008460068012802DA4FF41670086006F02E
:1050A00065FFA14800680A2190FBF1F201FB1200A4
:1050B000C0B2014602901A2006F00FFD9A4800681F
:1050C0000A2190FBF1F090FBF1F201FB1200C0B25B
:1050D000014602901C2006F000FD93480068642100
:1050E00090FBF1F0C0B2014602901E2006F0F5FCE4
:1050F00035E08D480068401C8B4908600846006810
:10510000B0F5167F01DD0120086006F02FFF86480C
:1051100000680A2190FBF1F201FB1200C0B20146C7
:1051200002901A2006F0D9FC7F4800680A2190FB03
:10513000F1F090FBF1F201FB1200C0B201460290C7
:105140001C2006F0CAFC78480068642190FBF1F04E
:10515000C0B2014602901E2006F0BFFC00BF00BF97
:105160009EE406F04CFF0521002006F088FC012299
:105170000821022006F040FC0021022006F07FFCFE
:105180000321042006F093FC06F0F0FE6748006857
:105190000A2190FBF1F201FB1200C0B2014602901D
:1051A0001A2006F09AFC049810B1012836D11AE0B2
:1051B0005E480068401E5D49086008460068002897
:1051C00001DA0120086006F0D1FE584800680A2183
:1051D00090FBF1F201FB1200C0B2014602901A20CE
:1051E00006F07BFC1AE051480068401C4F490860FB
:1051F00008460068012801DD0020086006F0B6FEC0
:105200004A4800680A2190FBF1F201FB1200C0B28B
:10521000014602901A2006F060FC00BF00BF3FE488
:1052200006F0EDFE0621002006F029FC01220821EF
:10523000022006F0E1FB0021022006F020FC032101
:10524000042006F034FC0121172006F09AFC06F039
:105250008DFE374800680A2190FBF1F201FB120035
:10526000C0B2014602901A2006F037FC0122114616
:105270001C2006F0C1FB2E4800680A2190FBF1F0CB
:1052800090FBF1F201FB1200C0B2014602901C201B
:1052900006F05FFC26480068642190FBF1F0C0B284
:1052A000014602901E2006F018FC049810B1012857
:1052B0007DD142E01E480068401E1D490860084636
:1052C0000068002801DA0020086006F04FFE184848
:1052D00000680A2190FBF1F201FB1200C0B2014606
:1052E00002901A2006F0F9FB012211461C2006F05C
:1052F00083FB0F4800680A2190FBF1F090FBF1F26C
:1053000001FB1200C0B2014602901C2006F021FCF5
:1053100007480068642190FBF1F0C0B2014602909A
:105320001E2007E0E0020020E4020020F40200203A
:10533000F802002006F0D1FB39E0FB480068401C71
:10534000F949086008460068782801DD782008607F
:1053500006F00CFEF44800680A2190FBF1F201FB14
:105360001200C0B2014602901A2006F0B6FB0122DC
:1053700011461C2006F040FBEB4800680A2190FB18
:10538000F1F090FBF1F201FB1200C0B20146029075
:105390001C2006F0DEFBE4480068642190FBF1F07D
:1053A000C0B2014602901E2006F097FB00BF00BF6E
:1053B00059E406F024FE0721002006F060FB0122DC
:1053C0000821022006F018FB0021022006F057FBFE
:1053D0000321042006F06BFBD44800680A2190FBEF
:1053E000F1F201FB1200C0B20246012102901C2022
:1053F00006F002FB06F0BAFD00211A2006F0A9FB18
:10540000CA4800680A2190FBF1F090FBF1F201FB21
:105410001200C0B2014602901C2006F09AFBC3485D
:105420000068642190FBF1F0C0B2014602901E209A
:1054300006F053FB049810B1012874D139E0BB4841
:105440000068401EB949086008460068002801DA73
:105450000020086006F08AFDB44800680A2190FB2D
:10546000F1F201FB1200C0B2014602901A2006F0D0
:1054700070FB012211461C2006F0BEFAAB48006802
:105480000A2190FBF1F090FBF1F201FB1200C0B297
:10549000014602901C2006F05CFBA44800686421D1
:1054A00090FBF1F0C0B2014602901E2006F015FB01
:1054B00039E09E480068401C9C4908600846006826
:1054C000642801DD6420086006F050FD97480068FC
:1054D0000A2190FBF1F201FB1200C0B201460290DA
:1054E0001A2006F036FB012211461C2006F084FA31
:1054F0008E4800680A2190FBF1F090FBF1F201FB6D
:105500001200C0B2014602901C2006F022FB874820
:105510000068642190FBF1F0C0B2014602901E20A9
:1055200006F0DBFA00BF00BF2AE406F068FD0821A0
:10553000002006F0A4FA01220821022006F05CFAFD
:105540000021022006F09BFA0321042006F0AFFAA6
:105550000121172006F015FB06F008FD74480068CD
:1055600000280ADA01220821072006F045FA7048CF
:10557000006840426F49086008E06D4800686D4966
:10558000086000220821072006F036FA00211A20C0
:1055900006F0A3FA012211461C2006F02DFA6548F8
:1055A00000680A2190FBF1F201FB1200C0B2014633
:1055B00002901C2006F0CDFA5E4800680A2190FB9C
:1055C000F1F0C0B2014602901E2006F086FA04985F
:1055D00010B1012875D175E0554800685649096831
:1055E000884226DD06F0C2FC5148006800280ADA2D
:1055F00001220821072006F0FFF94D4800684042CB
:105600004C49086008E04A4800684A49086000229E
:105610000821072006F0F0F908211A2006F073FA95
:1056200008211C2006F06FFA06211E2006F06BFAF6
:1056300047E03F480068401E3D4908600846006852
:1056400010F1280F02DA6FF02700086006F08EFCD8
:105650003748006800280ADA01220821072006F0EE
:10566000CBF93348006840423249086008E03048CE
:1056700000683049086000220821072006F0BCF9C4
:1056800000211A2006F029FA012211461C2006F0FA
:10569000B3F9284800680A2190FBF1F201FB1200DF
:1056A000C0B2014602901C2006F053FA214800685F
:1056B0000A2190FBF1F0C0B2014602901E2006F0D4
:1056C0000CFA2EE01A480068401C19490860084688
:1056D0000068502801DD5020086006F047FC0021DA
:1056E0001A2006F0FAF9012211461C2006F084F96E
:1056F000104800680A2190FBF1F201FB1200C0B2D1
:10570000014602901C2006F024FA0A4800680A218B
:1057100090FBF1F0C0B2014602901E2006F0DDF9C8
:1057200000BF00BF6DE40000F8020020000300206D
:10573000080300200C0300201003002006F05FFC8B
:105740000921002006F09BF901220821022006F021
:1057500053F90021022006F092F90321042006F0FB
:10576000A6F90121172006F00CFA06F0FFFBFE480F
:10577000006800280ADA01220821072006F03CF917
:10578000F94800684042F949086008E0F6480068B6
:10579000F649086000220821072006F02DF90021B3
:1057A0001A2006F09AF9012211461C2006F024F96D
:1057B000EE4800680A2190FBF1F201FB1200C0B232
:1057C000014602901C2006F0C4F9E84800680A214E
:1057D00090FBF1F0C0B2014602901E2006F07DF968
:1057E000049810B1012875D175E0E1480068DE49E0
:1057F0000968884226DD06F0B9FBDB48006800280E
:105800000ADA01220821072006F0F6F8D6480068D7
:105810004042D649086008E0D3480068D349086090
:1058200000220821072006F0E7F808211A2006F0D8
:105830006AF908211C2006F066F906211E2006F0F0
:1058400062F947E0C8480068401EC749086008463A
:10585000006810F1280F02DA6FF02700086006F0E8
:1058600085FBC148006800280ADA012208210720C8
:1058700006F0C2F8BC4800684042BC49086008E035
:10588000B9480068B949086000220821072006F0DD
:10589000B3F800211A2006F020F9012211461C203D
:1058A00006F0AAF8B14800680A2190FBF1F201FB6A
:1058B0001200C0B2014602901C2006F04AF9AB4823
:1058C00000680A2190FBF1F0C0B2014602901E2050
:1058D00006F003F92EE0A4480068401CA2490860C5
:1058E00008460068502801DD5020086006F03EFBA5
:1058F00000211A2006F0F1F8012211461C2006F0C2
:105900007BF89A4800680A2190FBF1F201FB120033
:10591000C0B2014602901C2006F01BF993480068B3
:105920000A2190FBF1F0C0B2014602901E2006F061
:10593000D4F800BF00BF13E406F061FB0021084665
:1059400006F09DF801220821022006F055F80121F9
:10595000022006F094F80321042006F0A8F806F0CF
:1059600005FB8448006800280ADA01220821072084
:1059700006F042F87F48006840427F49086008E02E
:105980007C4800687C49086000220821072006F056
:1059900033F800211A2006F0DCF8012211461C2001
:1059A00006F02AF8744800680A2190FBF1F201FB26
:1059B0001200C0B2014602901C2006F0CAF86E48E0
:1059C00000680A2190FBF1F0C0B2014602901E204F
:1059D00006F083F8049810B1012873D173E065488C
:1059E000006866490968884226DD06F0BFFA61480A
:1059F000006800280ADA01220821072005F0FCFFD0
:105A00005C48006840425C49086008E0594800680A
:105A10005949086000220821072005F0EDFF082100
:105A20001A2006F070F808211C2006F06CF80621F8
:105A30001E2006F068F845E04E480068401E4D49BB
:105A4000086008460068002801DA0020086006F0B7
:105A50008DFA4848006800280ADA01220821072048
:105A600005F0CAFF4348006840424349086008E027
:105A7000404800684049086000220821072005F0DE
:105A8000BBFF00211A2006F064F8012211461C20F9
:105A900005F0B2FF384800680A2190FBF1F201FBE3
:105AA0001200C0B2014602901C2006F052F83248A3
:105AB00000680A2190FBF1F0C0B2014602901E205E
:105AC00006F00BF82EE02B480068401C29490860BE
:105AD00008460068632801DD0920086006F046FAE0
