:020000040800F2
:10000000F810002041E800086D0F00086F0F00088D
:10001000730F0008770F00087B0F00080000000036
:100020000000000000000000000000007F0F00083A
:10003000810F000800000000830F0008850F0008F2
:100040005BE800085BE800085BE80008A9C9000855
:100050005BE800085BE800085BE800085BE8000874
:100060005BE800085BE800085BE800085BE8000864
:100070005BE800085BE800085BE800085BE8000854
:10008000E9D6000849D700085BE800085BE80008EB
:100090005BE800085BE800085BE800085BE8000834
:1000A0005BE800085BE800085BE800085BE8000824
:1000B00045AA0008C9A90008F30E00085BE800087B
:1000C0005BE800085BE800085BE800085BE8000804
:1000D0005BE80008750B00080F0B00085BE80008E0
:1000E0002BDC00085BE800085BE800085BE8000820
:1000F0005BE800085BE800085BE800085BE80008D4
:100100005BE800085BE80008C5AA00085BE8000897
:100110005BE800085BE800085BE800085BE80008B3
:100120005BE800085BE800085BE800085BE80008A3
:1001300000F002F800F062F80AA090E8000C824497
:100140008344AAF10107DA4501D100F057F8AFF274
:10015000090EBAE80F0013F0010F18BFFB1A43F0A5
:100160000103184764220100842201000A444FF071
:10017000000C10F8013B13F0070408BF10F8014B06
:100180001D1108BF10F8015B641E05D010F8016B4B
:10019000641E01F8016BF9D113F0080F1EBF10F8AF
:1001A000014BAD1C0C1B09D16D1E58BF01F801CBD2
:1001B000FAD505E014F8016B01F8016B6D1EF9D555
:1001C0009142D6D37047000000230024002500266A
:1001D000103A28BF78C1FBD8520728BF30C148BFAA
:1001E0000B607047642910F04587732911F00B806C
:1001F000002070471FB51FBD10B510BD11F00CF8E1
:100200001146FFF7F7FF09F0CCF811F02AF803B414
:10021000FFF7F2FF03BC0EF061FA00000CB50020FE
:10022000019000906C48006840F480306A49086092
:1002300000BF6948006800F4003000900198401C3D
:100240000190009818B90198B0F5A06FF1D16248FB
:10025000006800F4003010B10120009001E000209F
:1002600000900098012843D15C48006840F01000DD
:100270005A4908600846006820F0030008600846F4
:10028000006840F0020008605348406852494860E6
:100290000846406848600846406840F4806048600E
:1002A0000846406820F47C1048600846406840F4E6
:1002B000E81048600846006840F08070086000BFA1
:1002C0004548006800F000700028F9D042484068B6
:1002D00020F00300404948600846406840F00200B2
:1002E000486000BF3C48406800F00C000828F9D185
:1002F0000CBD10B5FFF792FF10BD10B53648006871
:1003000040F001003449086008464068344908401C
:100310003149486008460068324908402E49086063
:100320000846006820F4802008600846406820F4F1
:10033000FE0048604FF41F008860FFF7DAFF4FF0BF
:1003400000602949086010BD10B50021002000227E
:10035000214B5B6803F00C0121B1042906D0082968
:1003600028D107E0214B224C236027E01F4B204C73
:10037000236023E0184B5B6803F47010164B5B6836
:1003800003F48032022303EB904022B9194B43431C
:10039000174C23600DE0104B5B6803F4003323B16E
:1003A000144B4343124C236003E0104B4343104C67
:1003B000236003E00D4B0E4C236000BF00BF064BD3
:1003C0005B68C3F303130C4CE15C094B1B68CB4027
:1003D000074C236010BD00000010024000200240C6
:1003E0000000FFF8FFFFF6FE08ED00E000127A00C3
:1003F0000000002000093D000400002070B5024606
:100400000C46FF25FF2309E012F8010B80EA0501E5
:10041000FA48405C80EA0305F948435C201EA4F1D9
:100420000106F4B2F0D143EA052070BD10B50120F9
:10043000F4490870F4480EF0E3FEF4490870F448FB
:100440000078012856D00021F2480FF03BFC002133
:10045000F0480FF0CBFEF0480078A0B1EB480078F0
:10046000EE49097888420ED10020ED490870ED4927
:10047000087008460078401C0870E4480078EA4993
:10048000E84A12788854E448007860BBE448007871
:1004900048BBE4480078642813DADC480178E24A73
:1004A000E0480078401C1154DE480078401CDD49CB
:1004B000087008460078082815DB084600780870A0
:1004C00011E00120D6490870D1490870D54800785C
:1004D000D5490870D54800688078D5490968887082
:1004E0000020D04908700020CB4908700121C9487C
:1004F0000FF0E8FB10BD10B50120C2490870CD49CE
:100500000870CD480EF07CFEC0490870C0480078E5
:10051000012856D00021BF480FF0D4FB0021BD4870
:100520000FF064FEBC480078A0B1B8480078BB4921
:10053000097888420ED10020B9490870B94908707D
:1005400008460078401C0870B0480078B649B54AA3
:1005500012788854B048007860BBB148007848BB36
:10056000B0480078642813DAA8480178AE4AAD484C
:100570000078401C1154AB480078401CA949087011
:1005800008460078082815DB08460078087011E056
:100590000120A34908709E490870A2480078A2492A
:1005A0000870A24800688078A14909688870002016
:1005B0009C490870002098490870012195480FF067
:1005C00081FB10BD10B59A4800689C490978405CD1
:1005D0009B490870084601788B480EF00DFE97483D
:1005E0000078401C954908709148006800780978A7
:1005F000884210DA0020864908708D490968087021
:100600008849087001208D490870002240F2266157
:100610007D480EF090FD10BD70B500257F48007834
:100620008849087003204870874800788870874997
:100630008748006811F00CFD064611F06DFC000AB9
:100640008049C87081498248006811F001FD064662
:1006500011F062FC7B4908717E48006811F05CFC77
:100660000121B1EBE03F07D17A4801684FF08F409C
:1006700011F0F6FD7749086074497648006811F07A
:10068000E7FC064611F048FC000A6E4948716F49C4
:100690007048006811F0DCFC064611F03DFC694929
:1006A000887169480088051F04E00021A81D654A7B
:1006B00011546D1E002DF8DC63480078C01CC1B2D7
:1006C0006048FFF79BFE044621125E4A5E480088A0
:1006D000C01C11545C480088001D14545A4800780E
:1006E000401D5D49087010465C490860012240F2D7
:1006F000277145480EF01FFD70BD70B500254748B5
:10070000007850490870032048704F48007888707E
:100710005048006811F000FC0121B1EBE03F07D127
:100720004C4801684FF08F4011F09AFD494908602C
:1007300046494848006811F08BFC064611F0ECFB76
:10074000000A4049C87041494248006811F080FCE5
:10075000064611F0E1FB3B4908713B480088851EC5
:1007600004E00021281D374A11546D1E002DF8DCCD
:1007700035480078C01CC1B23248FFF73FFE04463E
:100780002112304A30480088C01C11542E4800887D
:10079000001D14542C480078401D2F490870104645
:1007A0002E490860012240F2277117480EF0C3FC61
:1007B00070BD70B5002519480078224908700320E3
:1007C000487021480078887020492148006811F05D
:1007D0003FFC064611F0A0FB000A1A49C8701B49ED
:1007E0001B48006811F034FC064611F095FB1549D2
:1007F000087115480088851E37E000003E00002083
:100800003E0100203500002000440040240000206C
:100810003400002000080040200000209402002046
:1008200021000020270000209C0400202C00002034
:100830003000002037000020003801402800002050
:1008400025000020990700201C0000200000204106
:10085000800300207C0300206C020020680200203E
:100860000021281DFD4A11546D1E002DF8DCFC48A6
:100870000078C01CC1B2F948FFF7C0FD0446211240
:10088000F64AF7480088C01C1154F5480088001D3E
:100890001454F3480078401DF24908701046F2499C
:1008A0000860012240F22771F0480EF044FC70BD50
:1008B00010B50220EE490870EE4800884FF6FA7134
:1008C000884205DAEC48007810B900200DF031F8C4
:1008D000E84800884FF6FA71884203DAE648007863
:1008E00001280ED101200DF024F80120E249087002
:1008F000E04800884FF6FA71884202DB3220DD4979
:1009000008800A20DD49088008460288DC49D94869
:1009100000880CF0EBFFDB480078D0490870D8481D
:1009200000784870D64840788870D5488078C8707C
:10093000D348C0780871D24800794871D0484079CE
:100940008871CF488079C871CD48C0790872CC4889
:10095000007A4872CA48407A88720B20C1490870F0
:10096000C44800880A30C3490880084600880A2124
:1009700090FBF1F0C449098888420BDD3220BD4963
:1009800008800020C14908703220C1490880002039
:10099000C0490870B148B4490860012240F227718B
:1009A000B2480EF0C8FB10BD70B50025BA480088EB
:1009B000B5490880B3480078A849087003204870FA
:1009C00002208870B0480088000AC870AE480078DD
:1009D00008710521A148FFF711FD044620129F4927
:1009E00048718C7107209F4908709C489E49086097
:1009F000012240F227719D480EF09DFB70BD2DE94C
:100A0000F04104460F460020A4490870A44800782D
:100A100000283BD12078401E255C4FF6FF7000EA8D
:100A200005252078205C05432078C01E205C8C4979
:100A30000880084600884FF6FF7101EA00208849C7
:100A400008802078801E205C098808434FF6FF71DB
:100A500001EA40008249088008460088202801DD1C
:100A6000202008802078801EC1B2601CFFF7C6FCE1
:100A7000064606218B48FFF7C1FC06462078801EFB
:100A8000C1B2601CFFF7BAFC064600E02E46AE423B
:100A900038D18348007808BBA07801281BD00328F0
:100AA0001AD1022180480DF0F8FF6D480088042813
:100AB00002D1FFF7B1FD0DE069480088022809D195
:100AC000207910B9FFF775FE04E02079012801D1E3
:100AD000FFF713FE01E000E000BF16E0E07840B150
:100AE00010280DD1022170480DF0D7FFFFF7E0FE6E
:100AF00007E002216C480DF0D0FFFFF755FF00E042
:100B000000BF02E0002069490870BDE8F08110B51F
:100B100040F2244155480EF0F3FB01280DD1534813
:100B20000EF06EFB40F2244150480EF013FC012001
:100B30005F49087000205F49087040F225514B481A
:100B40000EF0DEFB012814D148480EF059FB5A493B
:100B5000087040F2255145480EF0FCFB56480078DD
:100B60005649544A1278885452480078401C5149DA
:100B7000087010BD70B586B000240226002500BFA5
:100B800004E0002003A90855601CC4B20A2CF8DB5D
:100B900040F225514A480EF0B3FB30B348480EF0FE
:100BA0002FFB4849087048480078F0B9084600789B
:100BB000232802D100204549087042480178434863
:100BC00002780078401C414B1870414881543D48E0
:100BD00000780A2809D118460078801E3C49085C34
:100BE0000D2802D1012038490870374800780128C3
:100BF0007CD100203449087035484078012876D1EE
:100C000034480088022805DB0DF0C4FB0221264889
:100C10000DF045FF2E4880782F4908702C48C07889
:100C20002E4908702A4800792D49087028484079D3
:100C30002C4908702648C179807901EB00202A49A7
:100C400008802348C179807901EB00202049497947
:100C50001F4A1279CDE90021029049E0990700204E
:100C60001C0000206C0200206802002000440040AC
:100C70003D0300201E000020380000203C00002022
:100C800040060020940200203A0000203C0300208F
:100C9000680300203B0300205C0200203500002098
:100CA000370000209D04002000080140340000208F
:100CB00044020020450200201500002068060020A4
:100CC000003801403E0200203F0200204002002088
:100CD0005406002050020020470200204802002055
:100CE000490200204A0200204C020020FFE009E0F7
:100CF000A548C3788278A5A1AD4810F049F9012034
:100D0000AC490870A048407802285AD123208DF8B9
:100D10000C0002208DF80D000D208DF814000A2023
:100D20008DF81500102427E0A148005D0D2800D1A2
:100D300024E09F48005D2E281AD09D48005D2C2895
:100D400016D0052E0BDC9A48005D03A9895D01EBE6
:100D5000810100EB4100303803A988550AE094482E
:100D6000005D05EB850100EB4100303885B201E004
:100D7000701CC6B2601CC4B2292CD5DB00BF28464B
:100D8000E91705EB1161090A8DF81210E91705EB57
:100D900011610912A5EB0121C9B28DF813100024CD
:100DA0000DE003A8015D84480EF026FA00BF802103
:100DB00081480EF08FFA0028F9D0601CC4B20A2CCA
:100DC000EFDB71484078032820D17C480088022856
:100DD00005DB0DF0DFFA022179480DF060FE6A486C
:100DE000C178807801EB00207649086008460088C9
:100DF0007549088000207149088074490880744949
:100E000008807449087001206A4908705E4840787B
:100E1000042826D123208DF80C0004208DF80D0025
:100E200068480088000A8DF80E00664800788DF842
:100E30000F000D208DF810000A208DF811000024FD
:100E40000DE003A8015D5C480EF0D6F900BF8021DB
:100E500059480EF03FFA0028F9D0601CC4B2062CA5
:100E6000EFDB4948407805281ED154480088022805
:100E700001DB0DF022FB002406E04349A01C085CC6
:100E800055490855601CC4B254480078001FA04260
:100E9000F3DC002050490855514B0A4651A15748F0
:100EA00010F076F80DF0E5FA3748407806281ED1A4
:100EB00042480088022801DB0DF0FFFA002406E01A
:100EC0003149A01C085C46490855601CC4B243481F
:100ED0000078001FA042F3DC0020414908550B4672
:100EE0003D4A40A1454810F053F80DF0C2FA06B053
:100EF00070BD10B5012142480FF0ADF9002834D083
:100F000001204049087000213D480EF0DBFE002121
:100F10003B480FF06BF901203B4908703B480078D3
:100F20003B4908703B480078D8B13848007804281D
:100F300017DD01203849087035480079222803D090
:100F40003348C078102803D101203449087002E0EA
:100F50000020324908703248016832480068FFF7C3
:100F60004EFD012126480FF087F910BD704700BFE4
:100F7000FEE700BFFEE700BFFEE700BFFEE77047E9
:100F800070477047704700005406002041542B53AF
:100F90004B54434F4E4E4543543D312C25642E2532
:100FA000642E25642E25642C25640D0A00000000A3
:100FB0006F0A002014000020003801405002002079
:100FC000000801401800002054020020EC0300201B
:100FD000EE03002052020020740400204002002092
:100FE0008804002041542B43574A41503D22257329
:100FF000222C222573220D0A00000000310400205B
:1010000000080040200000202100002027000020D0
:101010009C04002035000020340000203700002010
:10102000300000202C000020002100E0491C8142FB
:10103000FCD3704710B5642910D2302202700A2206
:10104000B1FBF2F2303242702E2242700A22B1FB22
:10105000F2F302FB13123032827021E064291FD3B5
:10106000B1F57A7F1CD26422B1FBF2F23032027009
:101070006422B1FBF2F302FB13120A23B2FBF3F278
:10108000303242702E2282706422B1FBF2F302FBF6
:1010900013120A23B2FBF3F403FB14223032C270A2
:1010A00010BD3EB50924F948048001200CF041FC34
:1010B0002246F74900200CF019FC64200DF0E1FAFB
:1010C000F3480078F3490870F1484078F249087015
:1010D000EF488078F1490870ED48C078F049087011
:1010E000EB484179007901EB0020EE490880084681
:1010F0000088EB490978E94A1278CDE9002102908D
:10110000E5480378E3480278E7A1F0480FF040FF94
:10111000DF488079EE490870DD48017AC07901EB3B
:101120000020EC49086008460068EB4908603EBDB5
:1011300010B5D6480480D7480078E8490870D648EA
:1011400000784870D54800788870D5480078C87015
:10115000D4490888C11700EB1161090ADF4A1171EF
:10116000D0490888C11700EB11610912A0EB0121D9
:101170005171D748007811468871D6480088000A16
:10118000C871D44800780872092401200CF0D1FB02
:101190002246D24900200CF0BAFB64200DF071FA0F
:1011A00010BD10B53224B948048000200CF0C1FBFA
:1011B0002246B74900200CF099FB64200DF061FA3B
:1011C000B3480078C6490870B1484078C5490860FE
:1011D000C548096850F82100C4490860AC488078C7
:1011E000C3490860AA48C078C24908600846006838
:1011F000502804DD08460068A0F580700860A44807
:101200000079BD49086008460068502804DD08469A
:101210000068A0F5807008609D484079B749086073
:101220009B488079B64908609948C079B5490860FB
:101230009748007AB44908609548407AB3490860F5
:101240009348807AB24908609148C07AB1490860F1
:101250008F48007BB04908608D48407BAF490860EB
:101260008B48807BAE4908608948C07BAD490880C7
:101270008748007C097800EB0120AA49088084484F
:10128000407CA94908708248807CA8490860804851
:10129000C07CA74908607E48007DA64908600846D2
:1012A0000068502804DD08460068A0F580700860DA
:1012B0007748407DA049086008460068502804DD52
:1012C00008460068A0F5807008607148807D9B49E1
:1012D00008606F48C07D9A4908606D48007E994952
:1012E000086008460068642804DD08460068A0F528
:1012F000807008606648407E934908600846006830
:10130000642804DD08460068A0F580700860604825
:10131000807E18B15E48807EFF2812D15C48C07E76
:1013200018B15B48C07EFF280BD15948007F18B127
:101330005748007FFF2804D14FF4C87083490860E4
:1013400011E05348807E5249C97E01EB810100EBD8
:1013500041004F49097F01EBC10202EB011100EB93
:1013600081007A4908604A48407F18B14848407F68
:10137000FF281BD14648807F18B14548807FFF2851
:1013800014D14348C07F18B14148C07FFF280DD118
:101390003F4890F8200020B13D4890F82000FF28F9
:1013A00004D14FF4FA606A49086014E03848407F7D
:1013B0003749897F0A2202FB01003549C97F64222F
:1013C00002FB0100324991F820104FF47A7202FBBF
:1013D00001005F4908602E4890F8210020B12C4898
:1013E00090F82100FF2816D1294890F8220020B15A
:1013F000274890F82200FF280DD1254890F82300B7
:1014000020B1234890F82300FF2804D14FF4C8707E
:101410005049086010E01E4890F821001C4991F8DE
:1014200022100A2202FB0100194991F823106422BC
:1014300002FB010047490860154890F8240020B1DC
:10144000134890F82400FF281FD1114890F8250078
:1014500020B10F4890F82500FF287FD10C4890F864
:10146000260020B10A4890F82600FF2876D10848C7
:1014700090F8270020B1064890F82700FF286DD18A
:101480004FF4FA603449086080E067E038030020D8
:10149000FD070020470200204802002049020020EA
:1014A0004A0200204C02002041542B534B54434F1E
:1014B0004E4E4543543D312C25642E25642E256423
:1014C0002E25642C25640D0A000000006F0A002000
:1014D000460200201800002054020020CB07002004
:1014E000940200209C020020A0020020980200200C
:1014F000B4020020B8020020BC020020C802002074
:10150000CC020020D0020020D4020020D80200200B
:10151000DC020020E0020020E4020020E8020020BB
:10152000EC020020680300203B030020F8020020AA
:1015300000030020080300201003002018030020EF
:101540002003002028030020300300208C0300200B
:10155000900300209403002098030020FE4890F898
:101560002400FD4991F825100A2202FB0100FA49E6
:1015700091F82610642202FB0100F74991F8271028
:101580004FF47A7202FB0100F4490860F24890F8C7
:10159000280020B1F04890F82800FF281FD1EE481D
:1015A00090F8290020B1EC4890F82900FF2816D1C6
:1015B000E94890F82A0020B1E74890F82A00FF286F
:1015C0000DD1E54890F82B0020B1E34890F82B00AE
:1015D000FF2804D14FF4FA60E149086017E0DE48C3
:1015E00090F82800DC4991F829100A2202FB01003A
:1015F000D94991F82A10642202FB0100D64991F8DA
:101600002B104FF47A7202FB0100D5490860D248D2
:1016100090F82C0020B1D04890F82C00FF281FD162
:10162000CD4890F82D0020B1CB4890F82D00FF2830
:1016300016D1C94890F82E0020B1C74890F82E0066
:10164000FF280DD1C44890F82F0020B1C24890F86F
:101650002F00FF2804D14FF4FA60C249086017E058
:10166000BD4890F82C00BC4991F82D100A2202FBCD
:101670000100B94991F82E10642202FB0100B6491D
:1016800091F82F104FF47A7202FB0100B5490860FF
:10169000FFF707FD10BD10B5B3480480B3480078CC
:1016A000B3490870B34800784870B3480078887030
:1016B000B2480078C870B24800780871B148007824
:1016C0004871B14800788871B0480078C871B04856
:1016D00000780872AF4800784872AF480078887286
:1016E000AE480078C872AE4800780873AD480078FC
:1016F0004873AD4800788873AC480088000AC87306
:10170000AA4800780874AA4800784874A948007864
:101710008874A9480078C874A84800780875A84853
:1017200000784875A74800788875A7480078C8757C
:10173000A64800780876A64800784876A54800684C
:10174000642190FBF1F201FB12000A2190FBF1F2FF
:1017500001FB1200864988769E480068642190FB50
:10176000F1F201FB12000A2190FBF1F08049C876EA
:1017700098480068642190FBF1F07D49087796480D
:1017800000684FF47A7190FBF1F201FB12006421C2
:1017900090FBF1F201FB12000A2190FBF1F201FB38
:1017A0001200734948778C4800684FF47A7190FBB7
:1017B000F1F201FB1200642190FBF1F201FB120037
:1017C0000A2190FBF1F06A498877834800684FF45A
:1017D0007A7190FBF1F201FB1200642190FBF1F0B1
:1017E0006349C8777C4800684FF47A7190FBF1F048
:1017F0005F4981F8200079480068642190FBF1F28C
:1018000001FB12000A2190FBF1F201FB1200584982
:1018100081F8210071480068642190FBF1F201FB1E
:1018200012000A2190FBF1F0514981F822006B4827
:101830000068642190FBF1F04D4981F8230047488E
:1018400000684FF47A7190FBF1F201FB1200642101
:1018500090FBF1F201FB12000A2190FBF1F201FB77
:101860001200434981F824003C4800684FF47A7123
:1018700090FBF1F201FB1200642190FBF1F201FBFD
:1018800012000A2190FBF1F0394981F82500334814
:1018900000684FF47A7190FBF1F201FB12006421B1
:1018A00090FBF1F0324981F826002C4800684FF493
:1018B0007A7190FBF1F02E4981F8270028480068E2
:1018C0004FF47A7190FBF1F201FB1200642190FB5E
:1018D000F1F201FB12000A2190FBF1F201FB120070
:1018E000234981F828001E4800684FF47A7190FB64
:1018F000F1F201FB1200642190FBF1F201FB1200F6
:101900000A2190FBF1F01A4981F829001448006877
:101910004FF47A7190FBF1F201FB1200642190FB0D
:10192000F1F0134981F82A000D4800684FF47A71EC
:1019300090FBF1F00E4981F82B000A4800684FF443
:101940007A7190FBF1F201FB1200642190FBF1F23D
:1019500001FB12000A2143E0FD070020980300204C
:101960009C030020A00300203803002094020020E4
:10197000CB0700209C020020B4020020B802002007
:10198000BC020020C8020020CC020020D0020020AF
:10199000D4020020D8020020DC020020E002002057
:1019A000E4020020E8020020EC020020680300208E
:1019B0003B030020F8020020000300200803002061
:1019C000100300201803002020030020280300201B
:1019D000300300208C03002090030020940300209B
:1019E00090FBF1F201FB1200FE4981F82C00FE4849
:1019F00000684FF47A7190FBF1F201FB1200642150
:101A000090FBF1F201FB12000A2190FBF1F0F54985
:101A100081F82D00F44800684FF47A7190FBF1F2E0
:101A200001FB1200642190FBF1F0EE4981F82E00D9
:101A3000ED4800684FF47A7190FBF1F0E94981F8C4
:101A40002F00322400200BF074FF2246E5490020CD
:101A50000BF05DFF64200CF014FEFFF769FB10BD76
:101A600008B5012114200DF027FA4FF48060ADF87D
:101A7000000010208DF8030003208DF80200694655
:101A8000DA480CF05DFF4FF48061D8480DF005F89E
:101A90000220ADF8000010208DF8030003208DF81F
:101AA00002006946D2480CF04BFF0221D0480CF0EE
:101AB000F4FF2020ADF800006946CD480CF040FF4F
:101AC0002021CB480CF0EBFF1020ADF80000694658
:101AD000C7480CF035FF1021C5480CF0DEFF08BDEB
:101AE00008B5012104200DF0E7F94020ADF8000011
:101AF00010208DF8030003208DF802006946BC48D1
:101B00000CF01EFF08BD10B504464021B8480CF08B
:101B1000C4FFA0B20CF0B5FD4021B5480CF0BFFFEA
:101B200010BD03B581B000214FF080400EF0CAF81F
:101B300001981A2882F00E82DFE810F01A001C00CB
:101B4000D900A50122023D03A1094D041605810A11
:101B5000680E720FE5054006BB064807DB078A08DA
:101B60003909530B230CE20CA90D8310A311F611B4
:101B700002F0F0B90AF03FFA0021084609F093FF9D
:101B800001220821022009F033FF0121022009F07F
:101B900072FF0121042009F06EFF0AF0E3F9954875
:101BA0000078642190FBF1F201FB12000A2190FB06
:101BB000F1F201FB1200C0B2014600901A2009F0B8
:101BC00088FF8C480078642190FBF1F201FB120041
:101BD0000A2190FBF1F0C0B2014600901C2009F0F0
:101BE00078FF84480078642190FBF1F0C0B2014690
:101BF00000901E2009F06DFF029810B1012874D1E9
:101C00003AE07C480078401E7A490870084600781F
:101C1000012801DAFF2008700AF0A4F9754800785D
:101C2000642190FBF1F201FB12000A2190FBF1F21A
:101C300001FB1200C0B2014600901A2009F049FFD2
:101C40006C480078642190FBF1F201FB12000A213C
:101C500090FBF1F0C0B2014600901C2009F039FF62
:101C600064480078642190FBF1F0C0B20146009016
:101C70001E2009F02EFF38E05E480078401C5D49C8
:101C8000087008460078FF2801DD012008705948D7
:101C90000078642190FBF1F201FB12000A2190FB15
:101CA000F1F201FB1200C0B2014600901A2009F0C7
:101CB00010FF50480078642190FBF1F201FB120004
:101CC0000A2190FBF1F0C0B2014600901C2009F0FF
:101CD00000FF48480078642190FBF1F0C0B2014653
:101CE00000901E2009F0F5FE00BF00BF40E70AF09B
:101CF00082F90221002009F0D6FE012208210220EB
:101D000009F076FE01220821022009F0AFFD012131
:101D1000022009F0C8FE0221042009F0ACFE0AF0FE
:101D200021F9354800686421B0FBF1F201FB120093
:101D30000A21B0FBF1F201FB1200014600901A20CB
:101D400009F0C7FE2C4800686421B0FBF1F201FBEA
:101D500012000A21B0FBF1F0014600901C2009F0AE
:101D6000B8FE254800686421B0FBF1F0C0B201461E
:101D700000901E2009F0ADFE029810B1012845D157
:101D800045E01D480068401E1B4908600846006881
:101D900010B940F2E73008600AF0E4F8164800682D
:101DA0006421B0FBF1F201FB12000A21B0FBF1F259
:101DB00001FB1200014600901A2009F08AFE0E482D
:101DC00000686421B0FBF1F201FB12000A21B0FBB4
:101DD000F1F0014600901C2009F07BFE06480068E7
:101DE00064210BE0CB070020A0030020001001407D
:101DF000000801404602002018000020B0FBF1F06E
:101E0000C0B2014600901E2009F063FE39E0FE4892
:101E10000068401CFC49086008460068B0F57A7FFD
:101E200001D3012008600AF09DF8F748006864219A
:101E3000B0FBF1F201FB12000A21B0FBF1F201FB51
:101E40001200014600901A2009F043FEEE48006897
:101E50006421B0FBF1F201FB12000A21B0FBF1F0AA
:101E6000014600901C2009F034FEE7480068642118
:101E7000B0FBF1F0C0B2014600901E2009F029FE2F
:101E800000BF00BF74E60AF0B6F80821002009F090
:101E90000AFE01220821022009F0AAFD07210220E2
:101EA00009F001FE0321042009F0E5FDD748006890
:101EB00001280AD10AF056F80A211A2009F01FFE5B
:101EC00000211C2009F005FE0DE00AF04BF8052169
:101ED0001A2009F014FE05211C2009F010FE002133
:101EE0001E2009F0F6FD029810B1012846D122E02B
:101EF000C648006868B90120C44908600AF032F891
:101F00000A211A2009F0FBFD00211C2009F0E1FD47
:101F100010E00020BD4908600AF024F805211A20CD
:101F200009F0EDFD05211C2009F0E9FD00211E202E
:101F300009F0CFFD22E0B548006868B90120B34937
:101F400008600AF00FF80A211A2009F0D8FD0021D4
:101F50001C2009F0BEFD10E00020AC4908600AF02A
:101F600001F805211A2009F0CAFD05211C2009F0FD
:101F7000C6FD00211E2009F0ACFD00BF00BFF7E543
:101F80000AF039F80B21002009F08DFD012208210B
:101F9000022009F02DFD0321022009F084FD042117
:101FA000084609F068FD0121172009F0E6FD09F057
:101FB000D9FF9748006800280ADA01220821072083
:101FC00009F016FD9248006840429249086008E016
:101FD0008F4800688F49086000220821072009F017
:101FE00007FD00211A2009F074FD012211461C2072
:101FF00009F0FEFC874800680A2190FBF1F201FB22
:102000001200C0B2014600901C2009F09EFD8148DC
:1020100000680A2190FBF1F0C0B2014600901E203A
:1020200009F057FD029810B101287AD17AE07A4878
:1020300000687749096888422BDB09F093FF7448F0
:10204000006800280ADA01220821072009F0D0FCE4
:102050006F48006840426F49086008E06C480068BB
:102060006C49086000220821072009F0C1FC002209
:102070000821072009F0BCFC08211A2009F03FFDC7
:1020800008211C2009F03BFD06211E2009F037FD28
:1020900047E05F480068401E5D49086008460068E8
:1020A00010F1280F02DA6FF02700086009F05AFFDC
:1020B0005748006800280ADA01220821072009F0A1
:1020C00097FC5348006840425249086008E0504875
:1020D00000685049086000220821072009F088FCA8
:1020E00000211A2009F0F5FC012211461C2009F0FC
:1020F0007FFC484800680A2190FBF1F201FB1200C6
:10210000C0B2014600901C2009F01FFD4148006844
:102110000A2190FBF1F0C0B2014600901E2009F0A8
:10212000D8FC46E03A480068401C39490860084637
:102130000068502801DD5020086009F013FF344882
:10214000006800280ADA01220821072009F050FC63
:102150002F48006840422F49086008E02C4800687A
:102160002C49086000220821072009F041FC0021C9
:102170001A2009F0AEFC012211461C2009F038FC9F
:10218000244800680A2190FBF1F201FB1200C0B262
:10219000014600901C2009F0D8FC1E4800680A2166
:1021A00090FBF1F0C0B2014600901E2009F091FCB6
:1021B00000BF00BFDCE409F01EFF0421002009F08D
:1021C00072FC01220821022009F012FC03210220E6
:1021D00009F069FC0421084609F04DFC0121172093
:1021E00009F0CBFC09F0BEFE0B480068002817DAA6
:1021F00001220821072009F0FBFB07480068404244
:102200000649086015E0000018000020B402002014
:10221000B8020020C4020020BC020020C00200203E
:10222000FE480068FE49086000220821072009F0E6
:10223000DFFB00211A2009F04CFC012211461C2072
:1022400009F0D6FBF64800680A2190FBF1F201FB89
:102250001200C0B2014600901C2009F076FCF04844
:1022600000680A2190FBF1F0C0B2014600901E20E8
:1022700009F02FFC029810B1012848D148E0E74846
:102280000068401EE54908600846006810F1280F04
:1022900002DA6FF02700086009F064FEDF4800688A
:1022A00000280ADA01220821072009F0A1FBDB48F7
:1022B00000684042DA49086008E0D8480068D84918
:1022C000086000220821072009F092FB00211A2053
:1022D00009F0FFFB012211461C2009F089FBD048C0
:1022E00000680A2190FBF1F201FB1200C0B2014626
:1022F00000901C2009F029FCC94800680A2190FBC5
:10230000F1F0C0B2014600901E2009F0E2FB60E04F
:10231000C2480068C3490968884213DB09F022FEFD
:1023200000220821072009F063FB08211A2009F088
:10233000E6FB08211C2009F0E2FB06211E2009F023
:10234000DEFB45E0B5480068401CB449086008461B
:102350000068502801DD5020086009F003FEAF48F6
:10236000006800280ADA01220821072009F040FB52
:10237000AA4800684042AA49086008E0A7480068E7
:10238000A749086000220821072009F031FB00213D
:102390001A2009F09EFB012211461C2009F028FB9F
:1023A0009F4800680A2190FBF1F201FB1200C0B2C5
:1023B000014600901C2009F0C8FB994800680A21DA
:1023C00090FBF1F0C0B2014600901E2009F081FBA5
:1023D00000BF00BF8AE400220821072009F008FBA3
:1023E00009F009FE0B21002009F05DFB0122082104
:1023F000022009F0FDFA0B21022009F054FB042110
:10240000084609F038FB09F0ADFD0022082107203D
:1024100009F0EEFA00211A2009F097FB012211467B
:102420001C2009F0E5FA804800680A2190FBF1F2CF
:1024300001FB1200C0B2014600901C2009F085FB90
:10244000794800680A2190FBF1F0C0B20146009083
:102450001E2009F03EFB029810B101284DD14DE03D
:102460007148006871490968884213DC09F07AFDF7
:1024700000220821072009F0BBFA08211A2009F0E0
:102480003EFB08211C2009F03AFB06211E2009F022
:1024900036FB32E064480068401E63490860084625
:1024A0000068002801DA0120086009F05BFD0022C5
:1024B0000821072009F09CFA00211A2009F045FBA9
:1024C000012211461C2009F093FA574800680A219E
:1024D00090FBF1F201FB1200C0B2014600901C20FB
:1024E00009F033FB504800680A2190FBF1F0C0B2BC
:1024F000014600901E2009F0ECFA33E04A480068DB
:10250000401C4949086008460068632801DD6320D3
:10251000086009F027FD00220821072009F068FA69
:1025200000211A2009F011FB012211461C2009F09C
:102530005FFA3D4800680A2190FBF1F201FB1200AE
:10254000C0B2014600901C2009F0FFFA364800682E
:102550000A2190FBF1F0C0B2014600901E2009F064
:10256000B8FA00BF00BF8DE409F045FD042100204A
:1025700009F099FA01220821022009F039FA0B2109
:10258000022009F090FA0421084609F074FA09F0D3
:10259000E9FC00220821072009F02AFA00211A206C
:1025A00009F0D3FA012211461C2009F021FA1F4834
:1025B00000680A2190FBF1F201FB1200C0B2014653
:1025C00000901C2009F0C1FA184800680A2190FB0D
:1025D000F1F0C0B2014600901E2009F07AFA02988C
:1025E00010B101283ED13EE010480068401E0F495E
:1025F000086008460068002801DA0020086009F039
:10260000B1FC00220821072009F0F2F900211A206C
:1026100009F09BFA012211461C2009E0BC020020AF
:10262000C0020020B8020020C8020020CC02002016
:1026300009F0DEF9F84800680A2190FBF1F201FB8D
:102640001200C0B2014600901C2009F07EFAF24848
:1026500000680A2190FBF1F0C0B2014600901E20F4
:1026600009F037FA4DE0ED480068EB490968884207
:1026700013DC09F077FC00220821072009F0B8F9E3
:1026800008211A2009F03BFA08211C2009F037FA2A
:1026900006211E2009F033FA32E0DF480068401CB2
:1026A000DD49086008460068632801DD6320086092
:1026B00009F058FC00220821072009F099F90021AF
:1026C0001A2009F042FA012211461C2009F090F963
:1026D000D14800680A2190FBF1F201FB1200C0B260
:1026E000014600901C2009F030FACB4800680A210E
:1026F00090FBF1F0C0B2014600901E2009F0E9F90C
:1027000000BF00BF3BE409F076FC0521002009F082
:10271000CAF901220821022009F06AF903210220E6
:1027200009F0C1F90621042009F0A5F901211720BB
:1027300009F023FA09F016FCB9480068012804D111
:1027400005211C2009F0DBF903E003211C2009F01E
:10275000D6F9029810B101282ED116E0B0480068D1
:1027600048B90120AE49086009F0FCFB05211C2096
:1027700009F0C5F908E00020A949086009F0F2FB5A
:1027800003211C2009F0BBF916E0A548006848B9F0
:102790000120A349086009F0E5FB05211C2009F090
:1027A000AEF908E000209E49086009F0DBFB032138
:1027B0001C2009F0A4F900BF00BFFBE409F01BFCDA
:1027C0000821002009F06FF901220821022009F0F8
:1027D0000FF90521022009F066F90721042009F00C
:1027E0004AF909F0BFFB8F480068012808D10A2187
:1027F0001A2009F084F900211C2009F06AF90BE085
:1028000005211A2009F07BF905211C2009F077F930
:1028100000211E2009F05DF9029810B1012846D16F
:1028200022E08048006868B901207E49086009F00C
:1028300099FB0A211A2009F062F900211C2009F0F5
:1028400048F910E000207749086009F08BFB05216A
:102850001A2009F054F905211C2009F050F9002133
:102860001E2009F036F922E06E48006868B90120A0
:102870006C49086009F076FB0A211A2009F03FF93B
:1028800000211C2009F025F910E0002065490860AE
:1028900009F068FB05211A2009F031F905211C20F7
:1028A00009F02DF900211E2009F013F900BF00BF27
:1028B00080E409F0A0FB0121002009F0DCF80122EE
:1028C0000821022009F094F80321022009F0EBF816
:1028D0000821042009F0CFF809F044FB52480068B1
:1028E00038B90A211A2009F00AF900211C2009F040
:1028F000F0F84D48006801280BD105211A2009F095
:10290000FEF805211C2009F0FAF800211E2009F02C
:10291000E0F8029810B1012856D12AE04248006838
:10292000401E4149086008460068002801DA01207D
:1029300008603D48006848B909F014FB0A211A20D4
:1029400009F0DDF800211C2009F0C3F836480068C2
:1029500001280DD109F006FB05211A2009F0CFF856
:1029600005211C2009F0CBF800211E2009F0B1F848
:102970002AE02D480068401C2B4908600846006882
:10298000012801DD002008602748006848B909F0E7
:10299000E9FA0A211A2009F0B2F800211C2009F0F6
:1029A00098F82148006801280DD109F0DBFA0521CB
:1029B0001A2009F0A4F805211C2009F0A0F8002134
:1029C0001E2009F086F800BF00BF03E509F013FBE5
:1029D0000221002009F04FF801220821022009F00D
:1029E00007F80321022009F05EF80821042009F00D
:1029F00042F809F0B7FA0D480068012818D1032100
:102A00001A2009F07CF809211C2009F078F803212C
:102A10001E2009F074F817E0CC020020C802002044
:102A2000D0020020D4020020D8020020DC020020C6
:102A300000211A2009F063F808211C2009F05FF832
:102A400000211E2009F045F8029810B101284ED14E
:102A500026E0F848006888B90120F649086009F0C6
:102A600081FA03211A2009F04AF809211C2009F0F3
:102A700046F803211E2009F042F810E00020ED493D
:102A8000086009F06FFA00211A2009F038F80821CF
:102A90001C2009F034F800211E2009F01AF826E065
:102AA000E448006888B90120E249086009F05AFA50
:102AB00003211A2009F023F809211C2009F01FF82E
:102AC00003211E2009F01BF810E00020D9490860FE
:102AD00009F048FA00211A2009F011F808211C20F9
:102AE00009F00DF800211E2008F0F3FF00BF00BF21
:102AF00070E409F080FA0321002008F0BCFF0122F5
:102B00000821022008F074FF0321022008F0CBFF07
:102B10000821042008F0AFFF09F024FAC648006835
:102B20000A2190FBF1F201FB1200C0B201460090B5
:102B30001A2008F0CEFFC04800680A2190FBF1F08F
:102B400090FBF1F201FB1200C0B2014600901C2084
:102B500008F0BFFFB8480068642190FBF1F0C0B2F4
:102B6000014600901E2008F0B4FF029810B1012821
:102B70006CD135E0B0480068401EAF490860084697
:102B80000068012802DA4FF41670086009F0EAF9CB
:102B9000A94800680A2190FBF1F201FB1200C0B2C3
:102BA000014600901A2008F094FFA34800680A210B
:102BB00090FBF1F090FBF1F201FB1200C0B2014674
:102BC00000901C2008F085FF9B480068642190FB62
:102BD000F1F0C0B2014600901E2008F07AFF35E007
:102BE00095480068401C9449086008460068B0F5A4
:102BF000167F01DD0120086009F0B4F98E480068F5
:102C00000A2190FBF1F201FB1200C0B201460090D4
:102C10001A2008F05EFF884800680A2190FBF1F056
:102C200090FBF1F201FB1200C0B2014600901C20A3
:102C300008F04FFF80480068642190FBF1F0C0B2BB
:102C4000014600901E2008F044FF00BF00BF8AE448
:102C500009F0D1F90421002008F00DFF012208211C
:102C6000022008F0C5FE0321022008F01CFF082105
:102C7000042008F000FF09F075F9704800680A2187
:102C800090FBF1F201FB1200C0B2014600901A2045
:102C900008F01FFF694800680A2190FBF1F090FBE3
:102CA000F1F201FB1200C0B2014600901C2008F0B6
:102CB00010FF62480068642190FBF1F0C0B2014649
:102CC00000901E2008F005FF029810B101286CD179
:102CD00035E05A480068401E5849086008460068B8
:102CE000012802DA4FF41670086009F03BF95348E6
:102CF00000680A2190FBF1F201FB1200C0B201460C
:102D000000901A2008F0E5FE4C4800680A2190FB6C
:102D1000F1F090FBF1F201FB1200C0B2014600900D
:102D20001C2008F0D6FE45480068642190FBF1F0B5
:102D3000C0B2014600901E2008F0CBFE35E03F48AF
:102D40000068401C3D49086008460068B0F5167FE1
:102D500001DD0120086009F005F9384800680A2102
:102D600090FBF1F201FB1200C0B2014600901A2064
:102D700008F0AFFE314800680A2190FBF1F090FBAB
:102D8000F1F201FB1200C0B2014600901C2008F0D5
:102D9000A0FE2A480068642190FBF1F0C0B2014611
:102DA00000901E2008F095FE00BF00BFAAE409F0C5
:102DB00022F90521002008F05EFE012208210220F0
:102DC00008F016FE0321022008F06DFE0821042001
:102DD00008F051FE09F0C6F8194800680A2190FB76
:102DE000F1F201FB1200C0B2014600901A2008F077
:102DF00070FE029810B101283FD123E0104800680E
:102E0000401E0F49086008460068002801DA0120CA
:102E1000086009F0A7F80A4800680A2190FBF1F25F
:102E200001FB1200C0B2014600901A2008F051FECA
:102E300023E00000DC020020E0020020E402002089
:102E4000F4020020FE480068401CFD490860084666
:102E50000068012801DD0020086009F083F8F848C7
:102E600000680A2190FBF1F201FB1200C0B201469A
:102E700000901A2008F02DFE00BF00BF42E409F0C8
:102E8000BAF800220821072008F0B2FD002208212C
:102E90000A2008F0ADFD0021084608F004FE0122DA
:102EA0000821022008F0A4FD0321022008F0FBFD08
:102EB0000421084608F0DFFD0121172008F05DFE1F
:102EC00009F050F8DF4800680A2190FBF1F201FB9D
:102ED0001200C0B2014600901A2008F0FAFD01224B
:102EE00011461C2008F084FDD64800680A2190FB9A
:102EF000F1F090FBF1F201FB1200C0B2014600902C
:102F00001C2008F022FECF480068642190FBF1F0FD
:102F1000C0B2014600901E2008F0DBFD029810B1FF
:102F2000012839D139E0C7480068401EC54908600A
:102F300008460068002801DA0020086009F012F84D
:102F4000C04800680A2190FBF1F201FB1200C0B2F8
:102F5000014600901A2008F0BCFD012211461C20F9
:102F600008F046FDB74800680A2190FBF1F090FB9D
:102F7000F1F201FB1200C0B2014600901C2008F0E3
:102F8000E4FDB0480068642190FBF1F0C0B2014656
:102F900000901E2008F09DFD4FE0AA480068401CEC
:102FA000A8490860A8480068A8490968401A032190
:102FB00090FBF1F000EB8000A2490968B1EB400FF3
:102FC0000CDDA1480068A1490968401A032190FB63
:102FD000F1F000EB800040009A49086008F0C2FF61
:102FE000984800680A2190FBF1F201FB1200C0B280
:102FF000014600901A2008F06CFD012211461C20A9
:1030000008F0F6FC8F4800680A2190FBF1F090FB75
:10301000F1F201FB1200C0B2014600901C2008F042
:1030200094FD88480068642190FBF1F0C0B201462D
:1030300000901E2008F04DFD00BF00BF38E408F0EE
:10304000DAFF0021084608F02EFD012208210220A7
:1030500008F0CEFC0B21022008F025FD04210846D3
:1030600008F009FD7A4800680A2190FBF1F201FBA3
:103070001200C0B20246012100901C2008F0B8FCEA
:1030800008F070FF00211A2008F05FFD704800680A
:103090000A2190FBF1F090FBF1F201FB1200C0B2AB
:1030A000014600901C2008F050FD6948006864212A
:1030B00090FBF1F0C0B2014600901E2008F009FD1F
:1030C000029810B1012839D139E061480068401EEA
:1030D0005F49086008460068002801DA002008609F
:1030E00008F040FF5A4800680A2190FBF1F201FB0A
:1030F0001200C0B2014600901A2008F026FD0122FD
:1031000011461C2008F074FC514800680A2190FB0D
:10311000F1F090FBF1F201FB1200C0B20146009009
:103120001C2008F012FD4A480068642190FBF1F071
:10313000C0B2014600901E2008F0CBFC4FE044488E
:103140000068401C424908604248006842490968DA
:10315000401A032190FBF1F000EB80003C49096824
:10316000B1EB400F0CDD3B4800683B490968401A51
:10317000032190FBF1F000EB80004000344908602F
:1031800008F0F0FE324800680A2190FBF1F201FBE2
:103190001200C0B2014600901A2008F0D6FC0122AD
:1031A00011461C2008F024FC294800680A2190FBE5
:1031B000F1F090FBF1F201FB1200C0B20146009069
:1031C0001C2008F0C2FC22480068642190FBF1F04A
:1031D000C0B2014600901E2008F07BFC00BF00BF7B
:1031E00086E408F008FF0021084608F044FC0122AC
:1031F0000821022008F0FCFB0321022008F053FC08
:103200000921042008F037FC08F0ACFE13480078D0
:10321000642190FBF1F201FB12000A2190FBF1F214
:1032200001FB1200C0B2014600901A2008F051FCC8
:103230000A480078642190FBF1F201FB12000FE0D4
:10324000F4020020F8020020B8020020BC02002096
:1032500000030020C8020020CC020020470200200A
:103260000A2190FBF1F0C0B2014600901C2008F04A
:1032700030FCFE480078642190FBF1F0C0B20146BA
:1032800000901E2008F025FC029810B1012876D18C
:103290003AE0F6480078401EF44908700846007885
:1032A000012801DAFF20087008F05CFEEF48007882
:1032B000642190FBF1F201FB12000A2190FBF1F274
:1032C00001FB1200C0B2014600901A2008F001FC78
:1032D000E6480078642190FBF1F201FB12000A211C
:1032E00090FBF1F0C0B2014600901C2008F0F1FB09
:1032F000DE480078642190FBF1F0C0B201460090F6
:103300001E2008F0E6FB3AE0D8480078401CD74978
:10331000087008460078FF2801DD0120087008F0D9
:1033200021FED2480078642190FBF1F201FB1200EB
:103330000A2190FBF1F201FB1200C0B2014600909D
:103340001A2008F0C6FBC9480078642190FBF1F20E
:1033500001FB12000A2190FBF1F0C0B2014600907F
:103360001C2008F0B6FBC1480078642190FBF1F006
:10337000C0B2014600901E2008F0ABFB00BF00BFAA
:1033800065E408F038FE0121002008F074FB0122FA
:103390000821022008F02CFB0321022008F083FB07
:1033A0000921042008F067FB08F0DCFDB048007834
:1033B000642190FBF1F201FB12000A2190FBF1F273
:1033C00001FB1200C0B2014600901A2008F081FBF8
:1033D000A7480078642190FBF1F201FB12000A215A
:1033E00090FBF1F0C0B2014600901C2008F071FB88
:1033F0009F480078642190FBF1F0C0B20146009034
:103400001E2008F066FB029810B1012876D13AE040
:1034100097480078401E96490870084600780128B1
:1034200001DAFF20087008F09DFD914800786421C2
:1034300090FBF1F201FB12000A2190FBF1F201FB7B
:103440001200C0B2014600901A2008F042FB8848E2
:103450000078642190FBF1F201FB12000A2190FB3D
:10346000F1F0C0B2014600901C2008F032FB804809
:103470000078642190FBF1F0C0B2014600901E205C
:1034800008F027FB3AE07A480078401C7849087039
:1034900008460078FF2801DD0120087008F062FD71
:1034A00073480078642190FBF1F201FB12000A21BD
:1034B00090FBF1F201FB1200C0B2014600901A200D
:1034C00008F007FB6A480078642190FBF1F201FBE9
:1034D00012000A2190FBF1F0C0B2014600901C20BE
:1034E00008F0F7FA62480078642190FBF1F0C0B26E
:1034F000014600901E2008F0ECFA00BF00BF55E422
:1035000008F079FD0221002008F0B5FA0122082117
:10351000022008F06DFA0321022008F0C4FA092104
:10352000042008F0A8FA08F01DFD52480078642134
:1035300090FBF1F201FB12000A2190FBF1F201FB7A
:103540001200C0B2014600901A2008F0C2FA4948A1
:103550000078642190FBF1F201FB12000A2190FB3C
:10356000F1F0C0B2014600901C2008F0B2FA4148C8
:103570000078642190FBF1F0C0B2014600901E205B
:1035800008F0A7FA029810B101287ED13AE0394834
:103590000078401E3749087008460078012801DA93
:1035A000FF20087008F0DEFC32480078642190FBB0
:1035B000F1F201FB12000A2190FBF1F201FB120073
:1035C000C0B2014600901A2008F083FA294800781A
:1035D000642190FBF1F201FB12000A2190FBF1F053
:1035E000C0B2014600901C2008F073FA2148007810
:1035F000642190FBF1F0C0B2014600901E2008F05B
:1036000068FA42E01B480078401C1A4908700846D6
:103610000078FF2801DD0120087008F0A3FC1548A0
:103620000078642190FBF1F201FB12000A2190FB6B
:10363000F1F201FB1200C0B2014600901A2008F01E
:1036400048FA0C480078642190FBF1F201FB12006B
:103650000A2190FBF1F0C0B2014600901C2008F056
:1036600038FA04480078642106E000004702002090
:10367000480200204902002090FBF1F0C0B2014650
:1036800000901E2008F025FA00BF00BFD8E208F025
:10369000B2FC0321002008F0EEF9012208210220EB
:1036A00008F0A6F90321022008F0FDF90921042001
:1036B00008F0E1F908F056FCFE480078642190FB20
:1036C000F1F201FB12000A2190FBF1F201FB120062
:1036D000C0B2014600901A2008F0FBF9F5480078C6
:1036E000642190FBF1F201FB12000A2190FBF1F042
:1036F000C0B2014600901C2008F0EBF9ED480078BC
:10370000642190FBF1F0C0B2014600901E2008F049
:10371000E0F9029810B1012876D13AE0E548007846
:10372000401EE449087008460078012801DAFF20AD
:10373000087008F017FCDF480078642190FBF1F274
:1037400001FB12000A2190FBF1F201FB1200C0B252
:10375000014600901A2008F0BCF9D6480078642190
:1037600090FBF1F201FB12000A2190FBF1F0C0B2D4
:10377000014600901C2008F0ACF9CE480078642186
:1037800090FBF1F0C0B2014600901E2008F0A1F9B4
:103790003AE0C8480078401CC649087008460078DE
:1037A000FF2801DD0120087008F0DCFBC14800782B
:1037B000642190FBF1F201FB12000A2190FBF1F26F
:1037C00001FB1200C0B2014600901A2008F081F9F6
:1037D000B8480078642190FBF1F201FB12000A2145
:1037E00090FBF1F0C0B2014600901C2008F071F986
:1037F000B0480078642190FBF1F0C0B2014600901F
:103800001E2008F066F900BF00BFA3E308F0F3FB39
:103810000021084608F02FF901220821022008F0B3
:10382000E7F80321022008F03EF90521042008F002
:1038300022F90121172008F0A0F908F093FB9E4817
:10384000006800280ADA01220821072008F0D0F8D1
:103850009948006840429949086008E09648006825
:103860009649086000220821072008F0C1F8934813
:1038700000680A2190FBF1F201FB1200C0B2014680
:1038800000901A2008F025F9012211461C2008F0AA
:10389000AFF88A4800680A2190FBF1F090FBF1F242
:1038A00001FB1200C0B2014600901C2008F04DF947
:1038B00082480068642190FBF1F0C0B2014600909C
:1038C0001E2008F006F9029810B1012853D153E0E8
:1038D00079480068401E784908600846006810F181
:1038E000640F02DA6FF06300086073480068002814
:1038F0000ADA01220821072008F07AF86E480068E9
:1039000040426E49086008E06B4800686B490860F7
:1039100000220821072008F06BF808F023FB674815
:1039200000680A2190FBF1F201FB1200C0B20146CF
:1039300000901A2008F0CDF8012211461C2008F052
:1039400057F85E4800680A2190FBF1F090FBF1F215
:1039500001FB1200C0B2014600901C2008F0F5F8EF
:1039600056480068642190FBF1F0C0B20146009017
:103970001E2008F0AEF851E04F480068401C4E4948
:10398000086008460068642801DD642008604A4831
:10399000006800280ADA01220821072008F028F828
:1039A0004548006840424549086008E042480068D0
:1039B0004249086000220821072008F019F808F0A1
:1039C000D1FA3E4800680A2190FBF1F201FB120097
:1039D000C0B2014600901A2008F07BF8012211467F
:1039E0001C2008F005F8354800680A2190FBF1F02A
:1039F00090FBF1F201FB1200C0B2014600901C20C6
:103A000008F0A3F82D480068642190FBF1F0C0B2E3
:103A1000014600901E2008F05CF800BF00BF99E24C
:103A200008F0E9FA0021084608F025F801220821EB
:103A3000022007F0DDFF0B21022008F034F80521F9
:103A4000042008F018F808F08DFA1D4800680028D6
:103A50000ADA01220821072007F0CAFF1848006887
:103A600040421849086008E0154800681549086098
:103A700000220821072007F0BBFF124800680A2136
:103A800090FBF1F201FB1200C0B2014600901A2037
:103A900008F05BF8012211461C2007F0A9FF094835
:103AA00000680A2190FBF1F090FBF1F201FB12009B
:103AB000C0B209E04A020020280300202C030020A5
:103AC0003003002034030020014600901C2008F041
:103AD0003CF8FB480068642190FBF1F0C0B201465D
:103AE00000901E2007F0F5FF029810B1012853D175
:103AF00053E0F4480068401EF24908600846006838
:103B000010F1640F02DA6FF063000860ED4800689E
:103B100000280ADA01220821072007F069FFE94896
:103B200000684042E649086008E0E6480068E44969
:103B3000086000220821072007F05AFF08F012FA57
:103B4000DF4800680A2190FBF1F201FB1200C0B2CD
:103B5000014600901A2007F0F8FF012211461C20B0
:103B600007F046FFD64800680A2190FBF1F090FB71
:103B7000F1F201FB1200C0B2014600901C2007F0D8
:103B8000E4FFCF480068642190FBF1F0C0B2014629
:103B900000901E2007F09DFF51E0CA480068401CBD
:103BA000C849086008460068642801DD6420086090
:103BB000C448006800280ADA01220821072007F01B
:103BC00017FFC04800684042BD49086008E0BD4892
:103BD0000068BB49086000220821072007F008FFA1
:103BE00008F0C0F9B64800680A2190FBF1F201FB29
:103BF0001200C0B2014600901A2007F0A6FF012271
:103C000011461C2007F0F4FEAD4800680A2190FB25
:103C1000F1F090FBF1F201FB1200C0B201460090FE
:103C20001C2007F092FFA6480068642190FBF1F089
:103C3000C0B2014600901E2007F04BFF00BF00BF3E
:103C400088E108F0D8F90421002007F014FF0122D0
:103C50000821022007F0CCFE0321022007F023FFF9
:103C60000921042007F007FF08F07CF908F0CFF9DC
:103C70009548008842F2107190FBF1F0C0B2014605
:103C800000900B2007F0BCFD8F48008842F21071B5
:103C900090FBF1F201FB12004FF47A7190FBF1F00E
:103CA000C0B2014600900D2007F0AAFD86480088AA
:103CB0004FF47A7190FBF1F201FB1200642190FB4A
:103CC000F1F0C0B2014600900F2007F099FD7E4848
:103CD0000088642190FBF1F201FB12000A2190FBA5
:103CE000F1F0C0B201460090112007F089FD76483E
:103CF00000880A2190FBF1F201FB1200C0B20146DC
:103D00000090132007F07CFD029810B101285AD1D1
:103D10005AE06D480088401E6B49088008460088BC
:103D2000012802DA4FF6FF70088008F070F9664843
:103D3000008842F2107190FBF1F0C0B20146009091
:103D40000B2007F05DFD6048008842F2107190FB87
:103D5000F1F201FB12004FF47A7190FBF1F0C0B266
:103D6000014600900D2007F04BFD574800884FF4A6
:103D70007A7190FBF1F201FB1200642190FBF1F0EB
:103D8000C0B2014600900F2007F03AFD4E4800886F
:103D9000642190FBF1F201FB12000A2190FBF1F08B
:103DA000C0B201460090112007F02AFD4648008865
:103DB0000A2190FBF1F201FB1200C0B20146009013
:103DC000132007F01DFD5AE03F480088401C3E4983
:103DD000088008460088B0F5803F01DB012008809C
:103DE00008F015F93848008842F2107190FBF1F0A4
:103DF000C0B2014600900B2007F002FD3248008857
:103E000042F2107190FBF1F201FB12004FF47A7153
:103E100090FBF1F0C0B2014600900D2007F0F0FCDD
:103E2000294800884FF47A7190FBF1F201FB1200EF
:103E3000642190FBF1F0C0B2014600900F2007F022
:103E4000DFFC21480088642190FBF1F201FB1200A5
:103E50000A2190FBF1F0C0B201460090112007F05A
:103E6000CFFC194800880A2190FBF1F201FB1200F7
:103E7000C0B201460090132007F0C2FC00BF00BF93
:103E800068E008F0B8F80421002007F00CFE0621D5
:103E9000022007F008FE0521042007F0ECFD08F0E1
:103EA000B6F808F05FF809480078014600901A203B
:103EB00007F00FFE029858B1012833D11DE0000031
:103EC00034030020300300204C020020EC020020CC
:103ED000FE480068401EFD49086008460068012849
:103EE00001DA0420086008F03DF8F848007801463F
:103EF00000901A2007F0EDFD14E0F4480068401C23
:103F0000F249086008460068042801DD01200860C5
:103F100008F028F8ED480078014600901A2007F0D4
:103F2000D8FD00BF00BF15E008F065F806210220AB
:103F300007F0A1FD0121042007F09DFD08F012F813
:103F40000120E34908600020E24908600120E249BD
:103F5000086000BF00BF0EBD03B583B003981A28E8
:103F600082F02783DFE810F01A001C00DB00D0018C
:103F70004D024B0354040905B90521069C06290787
:103F8000B0076A0819097809410AFD0A060C040DF0
:103F9000FC0D010F0B101E11C7120F1302F009BB0D
:103FA00008F029F80021084607F07DFD01220821CC
:103FB000022007F01DFD0121022007F05CFD012118
:103FC000042007F058FD07F0CDFFC44800786421B5
:103FD00090FBF1F201FB12000A2190FBF1F201FBD0
:103FE0001200C0B2014602901A2007F072FDBB48D1
:103FF0000078642190FBF1F201FB12000A2190FB92
:10400000F1F0C0B2014602901C2007F062FDB348F7
:104010000078642190FBF1F0C0B2014602901E20AE
:1040200007F057FD049810B1012876D13AE0AB486B
:104030000078401EA949087008460078012801DA76
:10404000FE20087007F08EFFA4480078642190FBE2
:10405000F1F201FB12000A2190FBF1F201FB1200C8
:10406000C0B2014602901A2007F033FD9B48007849
:10407000642190FBF1F201FB12000A2190FBF1F0A8
:10408000C0B2014602901C2007F023FD934800783F
:10409000642190FBF1F0C0B2014602901E2007F0AF
:1040A00018FD3AE08D480078401C8C49087008469D
:1040B0000078FE2801DD0120087007F053FF8748D3
:1040C0000078642190FBF1F201FB12000A2190FBC1
:1040D000F1F201FB1200C0B2014602901A2007F073
:1040E000F8FC7E480078642190FBF1F201FB12009D
:1040F0000A2190FBF1F0C0B2014602901C2007F0AB
:10410000E8FC76480078642190FBF1F0C0B20146EB
:1041100002901E2007F0DDFC00BF00BF3EE707F065
:104120006AFF0221002007F0BEFC012208210220C4
:1041300007F05EFC01220821022007F097FB012115
:10414000022007F0B0FC0221042007F094FC07F0E5
:1041500009FF63486349096850F821006249086013
:1041600008460068642190FBF1F00A2190FBF1F20F
:1041700001FB1200C0B2014602901A2007F0A9FC10
:1041800059480068642190FBF1F00A2190FBF1F09E
:1041900090FBF1F201FB1200C0B2014602901C201C
:1041A00007F097FC5048006842F2107190FBF1F064
:1041B000C0B2014602901E2007F08BFC049810B19B
:1041C000012846D146E047480068401E454908603E
:1041D00008460068002801DA042008604048414988
:1041E000096850F8210040490860084600680AF054
:1041F00084FA07F0B7FE3C480068642190FBF1F0B8
:104200000A2190FBF1F201FB1200C0B201460290BC
:104210001A2007F05EFC34480068642190FBF1F03E
:104220000A2190FBF1F090FBF1F201FB1200C0B209
:10423000014602901C2007F04CFC2B48006842F21B
:10424000107190FBF1F0C0B2014602901E2007F001
:1042500040FC57E023480068401C2249086008469B
:104260000068042801DD002008601D481D49096818
:1042700050F821001C490860084600680AF03DFA21
:1042800007F070FE18480068642190FBF1F00A21E5
:1042900090FBF1F201FB1200C0B2014602901A201D
:1042A00007F017FC10480068642190FBF1F00A2128
:1042B00090FBF1F090FBF1F201FB1200C0B201465D
:1042C00002901C2007F005FC07480FE0EC020020DC
:1042D00058030020440300206003002094020020C3
:1042E000A00200209C02002098020020006842F2F8
:1042F000107190FBF1F0C0B2014602901E2007F051
:10430000E8FB00BF00BF49E607F075FE082100206A
:1043100007F0C9FB01220821022007F069FB0721F1
:10432000022007F0C0FB0321042007F0A4FBFE4895
:10433000006801280AD107F015FE0A211A2007F0AB
:10434000DEFB00211C2007F0C4FB0DE007F00AFE95
:1043500005211A2007F0D3FB05211C2007F0CFFB15
:1043600000211E2007F0B5FB049810B1012846D1AA
:1043700022E0ED48006868B90120EB49086007F0C9
:10438000F1FD0A211A2007F0BAFB00211C2007F0DA
:10439000A0FB10E00020E449086007F0E3FD0521E0
:1043A0001A2007F0ACFB05211C2007F0A8FB002118
:1043B0001E2007F08EFB22E0DB48006868B9012070
:1043C000D949086007F0CEFD0A211A2007F097FBB3
:1043D00000211C2007F07DFB10E00020D24908607E
:1043E00007F0C0FD05211A2007F089FB05211C20DC
:1043F00007F085FB00211E2007F06BFB00BF00BF0C
:10440000CCE507F0F8FD0B21002007F04CFB012262
:104410000821022007F0ECFA0321022007F043FBF9
:104420000421084607F027FB0121172007F0A5FB10
:1044300007F098FDBD48006800280ADA012208212B
:10444000072007F0D5FAB94800684042B84908602B
:1044500008E0B6480068B649086000220821072035
:1044600007F0C6FA00211A2007F033FB012211469B
:104470001C2007F0BDFAAE4800680A2190FBF1F25B
:1044800001FB1200C0B2014602901C2007F05DFB48
:10449000A74800680A2190FBF1F0C0B201460290E3
:1044A0001E2007F016FB049810B1012875D175E0A5
:1044B000A04800689D490968884226DD07F052FD42
:1044C0009A48006800280ADA01220821072007F02C
:1044D0008FFA9648006840429549086008E0934882
:1044E00000689349086000220821072007F080FA3D
:1044F00008211A2007F003FB08211C2007F0FFFA0F
:1045000006211E2007F0FBFA47E088480068401E9D
:10451000864908600846006810F1280F02DA6FF03B
:104520002700086007F01EFD8048006800280ADAAE
:1045300001220821072007F05BFA7C48006840420E
:104540007B49086008E079480068794908600022E2
:104550000821072007F04CFA00211A2007F0B9FAC9
:10456000012211461C2007F043FA714800680A2115
:1045700090FBF1F201FB1200C0B2014602901C2038
:1045800007F0E3FA6A4800680A2190FBF1F0C0B234
:10459000014602901E2007F09CFA2EE06348006856
:1045A000401C6249086008460068502801DD502020
:1045B000086007F0D7FC00211A2007F08AFA0122D0
:1045C00011461C2007F014FA594800680A2190FB94
:1045D000F1F201FB1200C0B2014602901C2007F06C
:1045E000B4FA534800680A2190FBF1F0C0B20146CA
:1045F00002901E2007F06DFA00BF00BFCEE407F066
:10460000FAFC0421002007F04EFA012208210220C2
:1046100007F0EEF90321022007F045FA05210420F6
:1046200007F029FA0121172007F0A7FA07F09AFCF2
:104630004048006800280ADA01220821072007F014
:10464000D7F93C48006840423B49086008E03948D7
:1046500000683949086000220821072007F0C8F9DE
:1046600000211A2007F035FA012211461C2007F01C
:10467000BFF9314800680A2190FBF1F201FB1200FA
:10468000C0B2014602901C2007F05FFA2A48006879
:104690000A2190FBF1F0C0B2014602901E2007F003
:1046A00018FA049810B1012853D153E0214800684A
:1046B000401E204908600846006810F1280F02DA01
:1046C0006FF02700086007F04DFC1A4800680028CA
:1046D0000ADA01220821072007F08AF91548006844
:1046E00040421549086008E0124800681249086015
:1046F00000220821072007F07BF900211A2007F08B
:10470000E8F9012211461C2007F072F90A480068F6
:104710000A2190FBF1F201FB1200C0B201460290A7
:104720001C2007F012FA09E0B4020020B8020020B1
:10473000C4020020BC020020C0020020F84800682B
:104740000A2190FBF1F0C0B2014602901E2007F052
:10475000C0F95BE0F3480068F349096888420EDD60
:1047600007F000FC08211A2007F0C9F908211C20D5
:1047700007F0C5F906211E2007F0C1F945E0E94818
:104780000068401CE749086008460068502801DDC1
:104790005020086007F0E6FBE248006800280ADACB
:1047A00001220821072007F023F9DE480068404273
:1047B000DB49086008E0DB480068D949086000224E
:1047C0000821072007F014F900211A2007F081F9C9
:1047D000012211461C2007F00BF9D14800680A217C
:1047E00090FBF1F201FB1200C0B2014602901C20C6
:1047F00007F0ABF9CA4800680A2190FBF1F0C0B29B
:10480000014602901E2007F064F900BF00BF85E456
:1048100000220821072007F0EBF807F0ECFB0B2142
:10482000002007F040F901220821022007F0E0F8FB
:104830000B21022007F037F90621042007F01BF9AD
:1048400007F090FB00211A2007F07FF901221146A2
:104850001C2007F0CDF8B54800680A2190FBF1F262
:1048600001FB1200C0B2014602901C2007F06DF956
:10487000AE4800680A2190FBF1F0C0B201460290F8
:104880001E2007F026F9049810B1012873D143E0E7
:10489000A6480068A649096888420EDA07F062FB5C
:1048A00008211A2007F02BF908211C2007F027F90E
:1048B00006211E2007F023F92DE09C480068401EC9
:1048C0009A49086008460068002801DA012008605B
:1048D00007F048FB00211A2007F037F901221146A2
:1048E0001C2007F085F8914800680A2190FBF1F23E
:1048F00001FB1200C0B2014602901C2007F025F90E
:104900008A4800680A2190FBF1F0C0B2014602908B
:104910001E2007F0DEF82EE084480068401C834922
:10492000086008460068632801DD6320086007F01E
:1049300019FB00211A2007F008F9012211461C205A
:1049400007F056F8794800680A2190FBF1F201FB64
:104950001200C0B2014602901C2007F0F6F873481E
:1049600000680A2190FBF1F0C0B2014602901E20BF
:1049700007F0AFF800BF00BFC5E407F03CFB04211F
:10498000002007F090F801220821022007F030F8FB
:104990000B21022007F087F80721042007F06BF8AD
:1049A00007F0E0FA00211A2007F0CFF801221146A3
:1049B0001C2007F01DF85E4800680A2190FBF1F208
:1049C00001FB1200C0B2014602901C2007F0BDF8A6
:1049D000574800680A2190FBF1F0C0B201460290EE
:1049E0001E2007F076F8049810B1012873D12EE04C
:1049F0004F480068401E4E4908600846006800287D
:104A000001DA0020086007F0ADFA00211A2007F053
:104A10009CF8012211461C2006F0EAFF4448006879
:104A20000A2190FBF1F201FB1200C0B20146029094
:104A30001C2007F08AF83E4800680A2190FBF1F03C
:104A4000C0B2014602901E2007F043F843E0374809
:104A500000683749096888420EDA07F083FA0821AE
:104A60001A2007F04CF808211C2007F048F806210E
:104A70001E2007F044F82DE02D480068401C2C490A
:104A8000086008460068632801DD6320086007F0BD
:104A900069FA00211A2007F058F8012211461C205B
:104AA00006F0A6FF224800680A2190FBF1F201FB04
:104AB0001200C0B2014602901C2007F046F81C48C4
:104AC00000680A2190FBF1F0C0B2014602901E205E
:104AD00006F0FFFF00BF00BF15E407F08CFA0521C8
:104AE000002006F0E0FF01220821022006F080FFEE
:104AF0000321022006F0D7FF0821042006F0BBFFA7
:104B00000121172007F039F807F02CFA094800684E
:104B1000012811D105211C2006F0F1FF10E0000052
:104B2000C0020020BC020020B8020020C802002001
:104B3000CC020020D002002003211C2006F0DFFF61
:104B4000049810B101282ED116E0FE48006848B93B
:104B50000120FC49086007F005FA05211C2006F039
:104B6000CEFF08E00020F749086007F0FBF90321B9
:104B70001C2006F0C4FF16E0F248006848B9012086
:104B8000F049086007F0EEF905211C2006F0B7FF98
:104B900008E00020EB49086007F0E4F903211C203D
:104BA00006F0ADFF00BF00BF2AE407F024FA082199
:104BB000002006F078FF01220821022006F018FFED
:104BC0000521022006F06FFF0921042006F053FFA3
:104BD00007F0C8F9DC480068012808D10A211A202A
:104BE00006F08DFF00211C2006F073FF0BE005216D
:104BF0001A2006F084FF05211C2006F080FF00210A
:104C00001E2006F066FF049810B1012846D122E06C
:104C1000CD48006868B90120CB49086007F0A2F9C7
:104C20000A211A2006F06BFF00211C2006F051FF1C
:104C300010E00020C449086007F094F905211A200B
:104C400006F05DFF05211C2006F059FF00211E2003
:104C500006F03FFF22E0BC48006868B90120BA496D
:104C6000086007F07FF90A211A2006F048FF0021AA
:104C70001C2006F02EFF10E00020B349086007F06A
:104C800071F905211A2006F03AFF05211C2006F0D3
:104C900036FF00211E2006F01CFF00BF00BFADE460
:104CA00007F0A9F90121002006F0E5FE0122082104
:104CB000022006F09DFE0021022006F0DCFE03210A
:104CC000042006F0F0FE07F04DF9A048006838B95E
:104CD0000A211A2006F013FF00211C2006F0F9FE1D
:104CE0009A48006801280BD105211A2006F007FF19
:104CF00005211C2006F003FF00211E2006F0E9FE1E
:104D0000049810B1012856D12AE090480068401E4E
:104D10008E49086008460068002801DA0120086012
:104D20008A48006848B907F01DF90A211A2006F0E0
:104D3000E6FE00211C2006F0CCFE84480068012815
:104D40000DD107F00FF905211A2006F0D8FE052134
:104D50001C2006F0D4FE00211E2006F0BAFE2AE038
:104D60007A480068401C79490860084600680128B4
:104D700001DD002008607548006848B907F0F2F8C6
:104D80000A211A2006F0BBFE00211C2006F0A1FE1D
:104D90006E48006801280DD107F0E4F805211A20BB
:104DA00006F0ADFE05211C2006F0A9FE00211E2004
:104DB00006F08FFE00BF00BF20E407F01CF90221BF
:104DC000002006F058FE01220821022006F010FE05
:104DD0000021022006F04FFE0321042006F063FEAE
:104DE00007F0C0F85A48006801280CD103211A20A6
:104DF00006F085FE09211C2006F081FE03211E20FD
:104E000006F07DFE0BE000211A2006F078FE082156
:104E10001C2006F074FE00211E2006F05AFE0498A5
:104E200010B101284ED126E04948006888B9012018
:104E30004749086007F096F803211A2006F05FFE44
:104E400009211C2006F05BFE03211E2006F057FE00
:104E500010E000203E49086007F084F800211A2085
:104E600006F04DFE08211C2006F049FE00211E2000
:104E700006F02FFE26E03648006888B90120344944
:104E8000086007F06FF803211A2006F038FE0921A8
:104E90001C2006F034FE03211E2006F030FE10E038
:104EA00000202B49086007F05DF800211A2006F069
:104EB00026FE08211C2006F022FE00211E2006F0FE
:104EC00008FE00BF00BFA2E407F095F80321002010
:104ED00006F0D1FD01220821022006F089FD002103
:104EE000022006F0C8FD0321042006F0DCFD07F0D7
:104EF00039F8184800680A2190FBF1F201FB120012
:104F0000C0B2014602901A2006F0E3FD1148006885
:104F10000A2190FBF1F090FBF1F201FB1200C0B20C
:104F2000014602901C2006F0D4FD0A480068642166
:104F300090FBF1F0C0B2014602901E2006F0C9FDC0
:104F4000049809E0D0020020D4020020D8020020FA
:104F5000DC020020E002002010B101286CD135E015
:104F6000FE480068401EFD490860084600680128A8
:104F700002DA4FF41670086006F0F4FFF748006894
:104F80000A2190FBF1F201FB1200C0B2014602902F
:104F90001A2006F09EFDF14800680A2190FBF1F00E
:104FA00090FBF1F201FB1200C0B2014602901C20FE
:104FB00006F08FFDE9480068642190FBF1F0C0B273
:104FC000014602901E2006F084FD35E0E3480068AB
:104FD000401CE249086008460068B0F5167F01DD14
:104FE0000120086006F0BEFFDC4800680A2190FB43
:104FF000F1F201FB1200C0B2014602901A2006F045
:1050000068FDD64800680A2190FBF1F090FBF1F2B0
:1050100001FB1200C0B2014602901C2006F059FDAF
:10502000CE480068642190FBF1F0C0B201460290C6
:105030001E2006F04EFD00BF00BF9DE406F0DBFF22
:105040000421002006F017FD01220821022006F0AD
:10505000CFFC0021022006F00EFD0321042006F003
:1050600022FD06F07FFFBE4800680A2190FBF1F2A6
:1050700001FB1200C0B2014602901A2006F029FD81
:10508000B74800680A2190FBF1F090FBF1F201FBB8
:105090001200C0B2014602901C2006F01AFDB04872
:1050A0000068642190FBF1F0C0B2014602901E201E
:1050B00006F00FFD049810B101286CD135E0A84826
:1050C0000068401EA649086008460068012802DA08
:1050D0004FF41670086006F045FFA14800680A21E9
:1050E00090FBF1F201FB1200C0B2014602901A20BF
:1050F00006F0EFFC9A4800680A2190FBF1F090FB63
:10510000F1F201FB1200C0B2014602901C2006F031
:10511000E0FC93480068642190FBF1F0C0B20146C6
:1051200002901E2006F0D5FC35E08D480068401C3A
:105130008B49086008460068B0F5167F01DD012044
:10514000086006F00FFF864800680A2190FBF1F224
:1051500001FB1200C0B2014602901A2006F0B9FC11
:105160007F4800680A2190FBF1F090FBF1F201FB0F
:105170001200C0B2014602901C2006F0AAFC78483A
:105180000068642190FBF1F0C0B2014602901E203D
:1051900006F09FFC00BF00BF9EE406F02CFF052137
:1051A000002006F068FC01220821022006F020FC05
:1051B0000021022006F05FFC0321042006F073FCAE
:1051C00006F0D0FE674800680A2190FBF1F201FB6F
:1051D0001200C0B2014602901A2006F07AFC049830
:1051E00010B1012836D11AE05E480068401E5D49C2
:1051F000086008460068002801DA0120086006F00F
:10520000B1FE584800680A2190FBF1F201FB120040
:10521000C0B2014602901A2006F05BFC1AE0514829
:105220000068401C4F49086008460068012801DDFD
:105230000020086006F096FE4A4800680A2190FBAC
:10524000F1F201FB1200C0B2014602901A2006F0F2
:1052500040FC00BF00BF3FE406F0CDFE0621002069
:1052600006F009FC01220821022006F0C1FB002102
:10527000022006F000FC0321042006F014FC0121AA
:10528000172006F07AFC06F06DFE374800680A2108
:1052900090FBF1F201FB1200C0B2014602901A200D
:1052A00006F017FC012211461C2006F0A1FB2E4837
:1052B00000680A2190FBF1F090FBF1F201FB120073
:1052C000C0B2014602901C2006F03FFC2648006850
:1052D000642190FBF1F0C0B2014602901E2006F05E
:1052E000F8FB049810B101287DD142E01E48006807
:1052F000401E1D49086008460068002801DA0020A9
:10530000086006F02FFE184800680A2190FBF1F2B1
:1053100001FB1200C0B2014602901A2006F0D9FB30
:10532000012211461C2006F063FB0F4800680A2189
:1053300090FBF1F090FBF1F201FB1200C0B20146CC
:1053400002901C2006F001FC07480068642190FBD5
:10535000F1F0C0B2014602901E2007E0E0020020FA
:10536000E4020020F4020020F802002006F0B1FB65
:1053700039E0FB480068401CF949086008460068AD
:10538000782801DD7820086006F0ECFDF44800681C
:105390000A2190FBF1F201FB1200C0B2014602901B
:1053A0001A2006F096FB012211461C2006F020FB75
:1053B000EB4800680A2190FBF1F090FBF1F201FB51
:1053C0001200C0B2014602901C2006F0BEFBE44869
:1053D0000068642190FBF1F0C0B2014602901E20EB
:1053E00006F077FB00BF00BF59E406F004FE07217A
:1053F000002006F040FB01220821022006F0F8FA06
:105400000021022006F037FB0321042006F04BFBAD
:10541000D44800680A2190FBF1F201FB1200C0B2EF
:105420000246012102901C2006F0E2FA06F09AFDE5
:1054300000211A2006F089FBCA4800680A2190FB67
:10544000F1F090FBF1F201FB1200C0B201460290B4
:105450001C2006F07AFBC3480068642190FBF1F041
:10546000C0B2014602901E2006F033FB049810B132
:10547000012874D139E0BB480068401EB949086072
:1054800008460068002801DA0020086006F06AFD7E
:10549000B44800680A2190FBF1F201FB1200C0B28F
:1054A000014602901A2006F050FB012211461C20F2
:1054B00006F09EFAAB4800680A2190FBF1F090FBE1
:1054C000F1F201FB1200C0B2014602901C2006F06E
:1054D0003CFBA4480068642190FBF1F0C0B2014697
:1054E00002901E2006F0F5FA39E09E480068401C44
:1054F0009C49086008460068642801DD6420086053
:1055000006F030FD974800680A2190FBF1F201FB9C
:105510001200C0B2014602901A2006F016FB0122CA
:1055200011461C2006F064FA8E4800680A2190FBA0
:10553000F1F090FBF1F201FB1200C0B201460290C3
:105540001C2006F002FB87480068642190FBF1F004
:10555000C0B2014602901E2006F0BBFA00BF00BF99
:105560002AE406F048FD0821002006F084FA012212
:105570000821022006F03CFA0021022006F07BFA06
:105580000321042006F08FFA0121172006F0F5FA16
:1055900006F0E8FC7448006800280ADA01220821B5
:1055A000072006F025FA7048006840426F490860FD
:1055B00008E06D4800686D49086000220821072056
:1055C00006F016FA00211A2006F083FA012211468D
:1055D0001C2006F00DFA654800680A2190FBF1F2E4
:1055E00001FB1200C0B2014602901C2006F0ADFA89
:1055F0005E4800680A2190FBF1F0C0B201460290BB
:105600001E2006F066FA049810B1012875D175E0E5
:105610005548006856490968884226DD06F0A2FC14
:105620005148006800280ADA01220821072006F004
:10563000DFF94D48006840424C49086008E04A489C
:1056400000684A49086000220821072006F0D0F9C6
:1056500008211A2006F053FA08211C2006F04FFA00
:1056600006211E2006F04BFA47E03F480068401E26
:105670003D4908600846006810F1280F02DA6FF013
:105680002700086006F06EFC3748006800280ADA38
:1056900001220821072006F0ABF933480068404298
:1056A0003249086008E0304800683049086000224C
:1056B0000821072006F09CF900211A2006F009FABB
:1056C000012211461C2006F093F9284800680A219F
:1056D00090FBF1F201FB1200C0B2014602901C20C7
:1056E00006F033FA214800680A2190FBF1F0C0B2BD
:1056F000014602901E2006F0ECF92EE01A480068E0
:10570000401C1949086008460068502801DD5020F7
:10571000086006F027FC00211A2006F0DAF90122C1
:1057200011461C2006F064F9104800680A2190FB1D
:10573000F1F201FB1200C0B2014602901C2006F0FB
:1057400004FA0A4800680A2190FBF1F0C0B2014651
:1057500002901E2006F0BDF900BF00BF6DE40000FE
:10576000F802002000030020080300200C030020A2
:105770001003002006F03FFC0921002006F07BF911
:1057800001220821022006F033F90021022006F050
:1057900072F90321042006F086F90121172006F092
:1057A000ECF906F0DFFBFE48006800280ADA012267
:1057B0000821072006F01CF9F94800684042F94921
:1057C000086008E0F6480068F649086000220821F1
:1057D000072006F00DF900211A2006F07AF90122BF
:1057E00011461C2006F004F9EE4800680A2190FBDF
:1057F000F1F201FB1200C0B2014602901C2006F03B
:10580000A4F9E84800680A2190FBF1F0C0B2014613
:1058100002901E2006F05DF9049810B1012875D1A0
:1058200075E0E1480068DE490968884226DD06F037
:1058300099FBDB48006800280ADA012208210720CA
:1058400006F0D6F8D64800684042D649086008E01D
:10585000D3480068D349086000220821072006F0D9
:10586000C7F808211A2006F04AF908211C2006F082
:1058700046F906211E2006F042F947E0C8480068B4
:10588000401EC74908600846006810F1280F02DA78
:105890006FF02700086006F065FBC148006800282B
:1058A0000ADA01220821072006F0A2F8BC480068A5
:1058B0004042BC49086008E0B9480068B94908603E
:1058C00000220821072006F093F800211A2006F094
:1058D00000F9012211461C2006F08AF8B148006840
:1058E0000A2190FBF1F201FB1200C0B201460290C6
:1058F0001C2006F02AF9AB4800680A2190FBF1F061
:10590000C0B2014602901E2006F0E3F82EE0A44843
:105910000068401CA249086008460068502801DD64
:105920005020086006F01EFB00211A2006F0D1F876
:10593000012211461C2006F05BF89A4800680A21F3
:1059400090FBF1F201FB1200C0B2014602901C2054
:1059500006F0FBF8934800680A2190FBF1F0C0B212
:10596000014602901E2006F0B4F800BF00BF13E409
:1059700006F041FB0021084606F07DF801220821CF
:10598000022006F035F80121022006F074F8032108
:10599000042006F088F806F0E5FA8448006800283C
:1059A0000ADA01220821072006F022F87F48006861
:1059B00040427F49086008E07C4800687C490860F4
:1059C00000220821072006F013F800211A2006F013
:1059D000BCF8012211461C2006F00AF87448006841
:1059E0000A2190FBF1F201FB1200C0B201460290C5
:1059F0001C2006F0AAF86E4800680A2190FBF1F01E
:105A0000C0B2014602901E2006F063F8049810B15F
:105A1000012873D173E065480068664909688842C7
:105A200026DD06F09FFA6148006800280ADA0122A4
:105A30000821072005F0DCFF5C48006840425C4913
:105A4000086008E0594800685949086000220821A8
:105A5000072005F0CDFF08211A2006F050F8082194
:105A60001C2006F04CF806211E2006F048F845E000
:105A70004E480068401E4D490860084600680028EE
:105A800001DA0020086006F06DFA48480068002836
:105A90000ADA01220821072005F0AAFF434800681E
:105AA00040424349086008E04048006840490860B7
:105AB00000220821072005F09BFF00211A2006F094
:105AC00044F8012211461C2005F092FF3848006876
:105AD0000A2190FBF1F201FB1200C0B201460290D4
