:020000040800F2
:10000000F810002071E800086D0F00086F0F00085D
:10001000730F0008770F00087B0F00080000000036
:100020000000000000000000000000007F0F00083A
:10003000810F000800000000830F0008850F0008F2
:100040008BE800088BE800088BE80008D9C9000895
:100050008BE800088BE800088BE800088BE80008B4
:100060008BE800088BE800088BE800088BE80008A4
:100070008BE800088BE800088BE800088BE8000894
:1000800019D7000879D700088BE800088BE800082A
:100090008BE800088BE800088BE800088BE8000874
:1000A0008BE800088BE800088BE800088BE8000864
:1000B00069AA0008EDA90008F30E00088BE8000803
:1000C0008BE800088BE800088BE800088BE8000844
:1000D0008BE80008750B00080F0B00088BE8000880
:1000E0005BDC00088BE800088BE800088BE8000860
:1000F0008BE800088BE800088BE800088BE8000814
:100100008BE800088BE80008E9AA00088BE80008E3
:100110008BE800088BE800088BE800088BE80008F3
:100120008BE800088BE800088BE800088BE80008E3
:1001300000F002F800F062F80AA090E8000C824497
:100140008344AAF10107DA4501D100F057F8AFF274
:10015000090EBAE80F0013F0010F18BFFB1A43F0A5
:100160000103184794220100B42201000A444FF011
:10017000000C10F8013B13F0070408BF10F8014B06
:100180001D1108BF10F8015B641E05D010F8016B4B
:10019000641E01F8016BF9D113F0080F1EBF10F8AF
:1001A000014BAD1C0C1B09D16D1E58BF01F801CBD2
:1001B000FAD505E014F8016B01F8016B6D1EF9D555
:1001C0009142D6D37047000000230024002500266A
:1001D000103A28BF78C1FBD8520728BF30C148BFAA
:1001E0000B607047642910F05D87732911F023803C
:1001F000002070471FB51FBD10B510BD11F024F8C9
:100200001146FFF7F7FF09F0CCF811F042F803B4FC
:10021000FFF7F2FF03BC0EF079FA00000CB50020E6
:10022000019000906C48006840F480306A49086092
:1002300000BF6948006800F4003000900198401C3D
:100240000190009818B90198B0F5A06FF1D16248FB
:10025000006800F4003010B10120009001E000209F
:1002600000900098012843D15C48006840F01000DD
:100270005A4908600846006820F0030008600846F4
:10028000006840F0020008605348406852494860E6
:100290000846406848600846406840F4806048600E
:1002A0000846406820F47C1048600846406840F4E6
:1002B000E81048600846006840F08070086000BFA1
:1002C0004548006800F000700028F9D042484068B6
:1002D00020F00300404948600846406840F00200B2
:1002E000486000BF3C48406800F00C000828F9D185
:1002F0000CBD10B5FFF792FF10BD10B53648006871
:1003000040F001003449086008464068344908401C
:100310003149486008460068324908402E49086063
:100320000846006820F4802008600846406820F4F1
:10033000FE0048604FF41F008860FFF7DAFF4FF0BF
:1003400000602949086010BD10B50021002000227E
:10035000214B5B6803F00C0121B1042906D0082968
:1003600028D107E0214B224C236027E01F4B204C73
:10037000236023E0184B5B6803F47010164B5B6836
:1003800003F48032022303EB904022B9194B43431C
:10039000174C23600DE0104B5B6803F4003323B16E
:1003A000144B4343124C236003E0104B4343104C67
:1003B000236003E00D4B0E4C236000BF00BF064BD3
:1003C0005B68C3F303130C4CE15C094B1B68CB4027
:1003D000074C236010BD00000010024000200240C6
:1003E0000000FFF8FFFFF6FE08ED00E000127A00C3
:1003F0000000002000093D000400002070B5024606
:100400000C46FF25FF2309E012F8010B80EA0501E5
:10041000FA48405C80EA0305F948435C201EA4F1D9
:100420000106F4B2F0D143EA052070BD10B50120F9
:10043000F4490870F4480EF0FBFEF4490870F448E3
:100440000078012856D00021F2480FF053FC00211B
:10045000F0480FF0E3FEF0480078A0B1EB480078D8
:10046000EE49097888420ED10020ED490870ED4927
:10047000087008460078401C0870E4480078EA4993
:10048000E84A12788854E448007860BBE448007871
:1004900048BBE4480078642813DADC480178E24A73
:1004A000E0480078401C1154DE480078401CDD49CB
:1004B000087008460078082815DB084600780870A0
:1004C00011E00120D6490870D1490870D54800785C
:1004D000D5490870D54800688078D5490968887082
:1004E0000020D04908700020CB4908700121C9487C
:1004F0000FF000FC10BD10B50120C2490870CD49B5
:100500000870CD480EF094FEC0490870C0480078CD
:10051000012856D00021BF480FF0ECFB0021BD4858
:100520000FF07CFEBC480078A0B1B8480078BB4909
:10053000097888420ED10020B9490870B94908707D
:1005400008460078401C0870B0480078B649B54AA3
:1005500012788854B048007860BBB148007848BB36
:10056000B0480078642813DAA8480178AE4AAD484C
:100570000078401C1154AB480078401CA949087011
:1005800008460078082815DB08460078087011E056
:100590000120A34908709E490870A2480078A2492A
:1005A0000870A24800688078A14909688870002016
:1005B0009C490870002098490870012195480FF067
:1005C00099FB10BD10B59A4800689C490978405CB9
:1005D0009B490870084601788B480EF025FE974825
:1005E0000078401C954908709148006800780978A7
:1005F000884210DA0020864908708D490968087021
:100600008849087001208D490870002240F2266157
:100610007D480EF0A8FD10BD70B500257F4800781C
:100620008849087003204870874800788870874997
:100630008748006811F024FD064611F085FC000A89
:100640008049C87081498248006811F019FD06464A
:1006500011F07AFC7B4908717E48006811F074FC47
:100660000121B1EBE03F07D17A4801684FF08F409C
:1006700011F00EFE7749086074497648006811F061
:10068000FFFC064611F060FC000A6E4948716F4994
:100690007048006811F0F4FC064611F055FC6949F9
:1006A000887169480088051F04E00021A81D654A7B
:1006B00011546D1E002DF8DC63480078C01CC1B2D7
:1006C0006048FFF79BFE044621125E4A5E480088A0
:1006D000C01C11545C480088001D14545A4800780E
:1006E000401D5D49087010465C490860012240F2D7
:1006F000277145480EF037FD70BD70B5002547489D
:10070000007850490870032048704F48007888707E
:100710005048006811F018FC0121B1EBE03F07D10F
:100720004C4801684FF08F4011F0B2FD4949086014
:1007300046494848006811F0A3FC064611F004FC45
:10074000000A4049C87041494248006811F098FCCD
:10075000064611F0F9FB3B4908713B480088851EAD
:1007600004E00021281D374A11546D1E002DF8DCCD
:1007700035480078C01CC1B23248FFF73FFE04463E
:100780002112304A30480088C01C11542E4800887D
:10079000001D14542C480078401D2F490870104645
:1007A0002E490860012240F2277117480EF0DBFC49
:1007B00070BD70B5002519480078224908700320E3
:1007C000487021480078887020492148006811F05D
:1007D00057FC064611F0B8FB000A1A49C8701B49BD
:1007E0001B48006811F04CFC064611F0ADFB1549A2
:1007F000087115480088851E37E000003E00002083
:100800003E0100203500002000440040240000206C
:100810003400002000080040200000209402002046
:1008200021000020270000209C0400202C00002034
:100830003000002037000020003801402800002050
:1008400025000020990700201C0000200000204106
:10085000800300207C0300206C020020680200203E
:100860000021281DFD4A11546D1E002DF8DCFC48A6
:100870000078C01CC1B2F948FFF7C0FD0446211240
:10088000F64AF7480088C01C1154F5480088001D3E
:100890001454F3480078401DF24908701046F2499C
:1008A0000860012240F22771F0480EF05CFC70BD38
:1008B00010B50220EE490870EE4800884FF6FA7134
:1008C000884205DAEC48007810B900200DF049F8AC
:1008D000E84800884FF6FA71884203DAE648007863
:1008E00001280ED101200DF03CF80120E2490870EA
:1008F000E04800884FF6FA71884202DB3220DD4979
:1009000008800A20DD49088008460288DC49D94869
:1009100000880DF003F8DB480078D0490870D8480B
:1009200000784870D64840788870D5488078C8707C
:10093000D348C0780871D24800794871D0484079CE
:100940008871CF488079C871CD48C0790872CC4889
:10095000007A4872CA48407A88720B20C1490870F0
:10096000C44800880A30C3490880084600880A2124
:1009700090FBF1F0C449098888420BDD3220BD4963
:1009800008800020C14908703220C1490880002039
:10099000C0490870B148B4490860012240F227718B
:1009A000B2480EF0E0FB10BD70B50025BA480088D3
:1009B000B5490880B3480078A849087003204870FA
:1009C00002208870B0480088000AC870AE480078DD
:1009D00008710521A148FFF711FD044620129F4927
:1009E00048718C7107209F4908709C489E49086097
:1009F000012240F227719D480EF0B5FB70BD2DE934
:100A0000F04104460F460020A4490870A44800782D
:100A100000283BD12078401E255C4FF6FF7000EA8D
:100A200005252078205C05432078C01E205C8C4979
:100A30000880084600884FF6FF7101EA00208849C7
:100A400008802078801E205C098808434FF6FF71DB
:100A500001EA40008249088008460088202801DD1C
:100A6000202008802078801EC1B2601CFFF7C6FCE1
:100A7000064606218B48FFF7C1FC06462078801EFB
:100A8000C1B2601CFFF7BAFC064600E02E46AE423B
:100A900038D18348007808BBA07801281BD00328F0
:100AA0001AD1022180480EF010F86D480088042801
:100AB00002D1FFF7B1FD0DE069480088022809D195
:100AC000207910B9FFF775FE04E02079012801D1E3
:100AD000FFF713FE01E000E000BF16E0E07840B150
:100AE00010280DD1022170480DF0EFFFFFF7E0FE56
:100AF00007E002216C480DF0E8FFFFF755FF00E02A
:100B000000BF02E0002069490870BDE8F08110B51F
:100B100040F2244155480EF00BFC01280DD15348FA
:100B20000EF086FB40F2244150480EF02BFC0120D1
:100B30005F49087000205F49087040F225514B481A
:100B40000EF0F6FB012814D148480EF071FB5A490B
:100B5000087040F2255145480EF014FC56480078C4
:100B60005649544A1278885452480078401C5149DA
:100B7000087010BD70B586B000240226002500BFA5
:100B800004E0002003A90855601CC4B20A2CF8DB5D
:100B900040F225514A480EF0CBFB30B348480EF0E6
:100BA00047FB4849087048480078F0B90846007883
:100BB000232802D100204549087042480178434863
:100BC00002780078401C414B1870414881543D48E0
:100BD00000780A2809D118460078801E3C49085C34
:100BE0000D2802D1012038490870374800780128C3
:100BF0007CD100203449087035484078012876D1EE
:100C000034480088022805DB0DF0DCFB0221264871
:100C10000DF05DFF2E4880782F4908702C48C07871
:100C20002E4908702A4800792D49087028484079D3
:100C30002C4908702648C179807901EB00202A49A7
:100C400008802348C179807901EB00202049497947
:100C50001F4A1279CDE90021029049E0990700204E
:100C60001C0000206C0200206802002000440040AC
:100C70003D0300201E000020380000203C00002022
:100C800040060020940200203A0000203C0300208F
:100C9000680300203B0300205C0200203500002098
:100CA000370000209D04002000080140340000208F
:100CB00044020020450200201500002068060020A4
:100CC000003801403E0200203F0200204002002088
:100CD0005406002050020020470200204802002055
:100CE000490200204A0200204C020020FFE009E0F7
:100CF000A548C3788278A5A1AD4810F061F901201C
:100D0000AC490870A048407802285AD123208DF8B9
:100D10000C0002208DF80D000D208DF814000A2023
:100D20008DF81500102427E0A148005D0D2800D1A2
:100D300024E09F48005D2E281AD09D48005D2C2895
:100D400016D0052E0BDC9A48005D03A9895D01EBE6
:100D5000810100EB4100303803A988550AE094482E
:100D6000005D05EB850100EB4100303885B201E004
:100D7000701CC6B2601CC4B2292CD5DB00BF28464B
:100D8000E91705EB1161090A8DF81210E91705EB57
:100D900011610912A5EB0121C9B28DF813100024CD
:100DA0000DE003A8015D84480EF03EFA00BF8021EB
:100DB00081480EF0A7FA0028F9D0601CC4B20A2CB2
:100DC000EFDB71484078032820D17C480088022856
:100DD00005DB0DF0F7FA022179480DF078FE6A483C
:100DE000C178807801EB00207649086008460088C9
:100DF0007549088000207149088074490880744949
:100E000008807449087001206A4908705E4840787B
:100E1000042826D123208DF80C0004208DF80D0025
:100E200068480088000A8DF80E00664800788DF842
:100E30000F000D208DF810000A208DF811000024FD
:100E40000DE003A8015D5C480EF0EEF900BF8021C3
:100E500059480EF057FA0028F9D0601CC4B2062C8D
:100E6000EFDB4948407805281ED154480088022805
:100E700001DB0DF03AFB002406E04349A01C085CAE
:100E800055490855601CC4B254480078001FA04260
:100E9000F3DC002050490855514B0A4651A15748F0
:100EA00010F08EF80DF0FDFA3748407806281ED174
:100EB00042480088022801DB0DF017FB002406E001
:100EC0003149A01C085C46490855601CC4B243481F
:100ED0000078001FA042F3DC0020414908550B4672
:100EE0003D4A40A1454810F06BF80DF0DAFA06B023
:100EF00070BD10B5012142480FF0C5F9002834D06B
:100F000001204049087000213D480EF0F3FE002109
:100F10003B480FF083F901203B4908703B480078BB
:100F20003B4908703B480078D8B13848007804281D
:100F300017DD01203849087035480079222803D090
:100F40003348C078102803D101203449087002E0EA
:100F50000020324908703248016832480068FFF7C3
:100F60004EFD012126480FF09FF910BD704700BFCC
:100F7000FEE700BFFEE700BFFEE700BFFEE77047E9
:100F800070477047704700005406002041542B53AF
:100F90004B54434F4E4E4543543D312C25642E2532
:100FA000642E25642E25642C25640D0A00000000A3
:100FB0006F0A002014000020003801405002002079
:100FC000000801401800002054020020EC0300201B
:100FD000EE03002052020020740400204002002092
:100FE0008804002041542B43574A41503D22257329
:100FF000222C222573220D0A00000000310400205B
:1010000000080040200000202100002027000020D0
:101010009C04002035000020340000203700002010
:10102000300000202C000020002100E0491C8142FB
:10103000FCD3704710B5642910D2302202700A2206
:10104000B1FBF2F2303242702E2242700A22B1FB22
:10105000F2F302FB13123032827021E064291FD3B5
:10106000B1F57A7F1CD26422B1FBF2F23032027009
:101070006422B1FBF2F302FB13120A23B2FBF3F278
:10108000303242702E2282706422B1FBF2F302FBF6
:1010900013120A23B2FBF3F403FB14223032C270A2
:1010A00010BD3EB50924F948048001200CF059FC1C
:1010B0002246F74900200CF031FC64200DF0F9FACB
:1010C000F3480078F3490870F1484078F249087015
:1010D000EF488078F1490870ED48C078F049087011
:1010E000EB484179007901EB0020EE490880084681
:1010F0000088EB490978E94A1278CDE9002102908D
:10110000E5480378E3480278E7A1F0480FF058FF7C
:10111000DF488079EE490870DD48017AC07901EB3B
:101120000020EC49086008460068EB4908603EBDB5
:1011300010B5D6480480D7480078E8490870D648EA
:1011400000784870D54800788870D5480078C87015
:10115000D4490888C11700EB1161090ADF4A1171EF
:10116000D0490888C11700EB11610912A0EB0121D9
:101170005171D748007811468871D6480088000A16
:10118000C871D44800780872092401200CF0E9FBEA
:101190002246D24900200CF0D2FB64200DF089FADF
:1011A00010BD10B53224B948048000200CF0D9FBE2
:1011B0002246B74900200CF0B1FB64200DF079FA0B
:1011C000B3480078C6490870B1484078C5490860FE
:1011D000C548096850F82100C4490860AC488078C7
:1011E000C3490860AA48C078C24908600846006838
:1011F000502804DD08460068A0F580700860A44807
:101200000079BD49086008460068502804DD08469A
:101210000068A0F5807008609D484079B749086073
:101220009B488079B64908609948C079B5490860FB
:101230009748007AB44908609548407AB3490860F5
:101240009348807AB24908609148C07AB1490860F1
:101250008F48007BB04908608D48407BAF490860EB
:101260008B48807BAE4908608948C07BAD490880C7
:101270008748007C097800EB0120AA49088084484F
:10128000407CA94908708248807CA8490860804851
:10129000C07CA74908607E48007DA64908600846D2
:1012A0000068502804DD08460068A0F580700860DA
:1012B0007748407DA049086008460068502804DD52
:1012C00008460068A0F5807008607148807D9B49E1
:1012D00008606F48C07D9A4908606D48007E994952
:1012E000086008460068642804DD08460068A0F528
:1012F000807008606648407E934908600846006830
:10130000642804DD08460068A0F580700860604825
:10131000807E18B15E48807EFF2812D15C48C07E76
:1013200018B15B48C07EFF280BD15948007F18B127
:101330005748007FFF2804D14FF4C87083490860E4
:1013400011E05348807E5249C97E01EB810100EBD8
:1013500041004F49097F01EBC10202EB011100EB93
:1013600081007A4908604A48407F18B14848407F68
:10137000FF281BD14648807F18B14548807FFF2851
:1013800014D14348C07F18B14148C07FFF280DD118
:101390003F4890F8200020B13D4890F82000FF28F9
:1013A00004D14FF4FA606A49086014E03848407F7D
:1013B0003749897F0A2202FB01003549C97F64222F
:1013C00002FB0100324991F820104FF47A7202FBBF
:1013D00001005F4908602E4890F8210020B12C4898
:1013E00090F82100FF2816D1294890F8220020B15A
:1013F000274890F82200FF280DD1254890F82300B7
:1014000020B1234890F82300FF2804D14FF4C8707E
:101410005049086010E01E4890F821001C4991F8DE
:1014200022100A2202FB0100194991F823106422BC
:1014300002FB010047490860154890F8240020B1DC
:10144000134890F82400FF281FD1114890F8250078
:1014500020B10F4890F82500FF287FD10C4890F864
:10146000260020B10A4890F82600FF2876D10848C7
:1014700090F8270020B1064890F82700FF286DD18A
:101480004FF4FA603449086080E067E038030020D8
:10149000FD070020470200204802002049020020EA
:1014A0004A0200204C02002041542B534B54434F1E
:1014B0004E4E4543543D312C25642E25642E256423
:1014C0002E25642C25640D0A000000006F0A002000
:1014D000460200201800002054020020CB07002004
:1014E000940200209C020020A0020020980200200C
:1014F000B4020020B8020020BC020020C802002074
:10150000CC020020D0020020D4020020D80200200B
:10151000DC020020E0020020E4020020E8020020BB
:10152000EC020020680300203B030020F8020020AA
:1015300000030020080300201003002018030020EF
:101540002003002028030020300300208C0300200B
:10155000900300209403002098030020FE4890F898
:101560002400FD4991F825100A2202FB0100FA49E6
:1015700091F82610642202FB0100F74991F8271028
:101580004FF47A7202FB0100F4490860F24890F8C7
:10159000280020B1F04890F82800FF281FD1EE481D
:1015A00090F8290020B1EC4890F82900FF2816D1C6
:1015B000E94890F82A0020B1E74890F82A00FF286F
:1015C0000DD1E54890F82B0020B1E34890F82B00AE
:1015D000FF2804D14FF4FA60E149086017E0DE48C3
:1015E00090F82800DC4991F829100A2202FB01003A
:1015F000D94991F82A10642202FB0100D64991F8DA
:101600002B104FF47A7202FB0100D5490860D248D2
:1016100090F82C0020B1D04890F82C00FF281FD162
:10162000CD4890F82D0020B1CB4890F82D00FF2830
:1016300016D1C94890F82E0020B1C74890F82E0066
:10164000FF280DD1C44890F82F0020B1C24890F86F
:101650002F00FF2804D14FF4FA60C249086017E058
:10166000BD4890F82C00BC4991F82D100A2202FBCD
:101670000100B94991F82E10642202FB0100B6491D
:1016800091F82F104FF47A7202FB0100B5490860FF
:10169000FFF707FD10BD10B5B3480480B3480078CC
:1016A000B3490870B34800784870B3480078887030
:1016B000B2480078C870B24800780871B148007824
:1016C0004871B14800788871B0480078C871B04856
:1016D00000780872AF4800784872AF480078887286
:1016E000AE480078C872AE4800780873AD480078FC
:1016F0004873AD4800788873AC480088000AC87306
:10170000AA4800780874AA4800784874A948007864
:101710008874A9480078C874A84800780875A84853
:1017200000784875A74800788875A7480078C8757C
:10173000A64800780876A64800784876A54800684C
:10174000642190FBF1F201FB12000A2190FBF1F2FF
:1017500001FB1200864988769E480068642190FB50
:10176000F1F201FB12000A2190FBF1F08049C876EA
:1017700098480068642190FBF1F07D49087796480D
:1017800000684FF47A7190FBF1F201FB12006421C2
:1017900090FBF1F201FB12000A2190FBF1F201FB38
:1017A0001200734948778C4800684FF47A7190FBB7
:1017B000F1F201FB1200642190FBF1F201FB120037
:1017C0000A2190FBF1F06A498877834800684FF45A
:1017D0007A7190FBF1F201FB1200642190FBF1F0B1
:1017E0006349C8777C4800684FF47A7190FBF1F048
:1017F0005F4981F8200079480068642190FBF1F28C
:1018000001FB12000A2190FBF1F201FB1200584982
:1018100081F8210071480068642190FBF1F201FB1E
:1018200012000A2190FBF1F0514981F822006B4827
:101830000068642190FBF1F04D4981F8230047488E
:1018400000684FF47A7190FBF1F201FB1200642101
:1018500090FBF1F201FB12000A2190FBF1F201FB77
:101860001200434981F824003C4800684FF47A7123
:1018700090FBF1F201FB1200642190FBF1F201FBFD
:1018800012000A2190FBF1F0394981F82500334814
:1018900000684FF47A7190FBF1F201FB12006421B1
:1018A00090FBF1F0324981F826002C4800684FF493
:1018B0007A7190FBF1F02E4981F8270028480068E2
:1018C0004FF47A7190FBF1F201FB1200642190FB5E
:1018D000F1F201FB12000A2190FBF1F201FB120070
:1018E000234981F828001E4800684FF47A7190FB64
:1018F000F1F201FB1200642190FBF1F201FB1200F6
:101900000A2190FBF1F01A4981F829001448006877
:101910004FF47A7190FBF1F201FB1200642190FB0D
:10192000F1F0134981F82A000D4800684FF47A71EC
:1019300090FBF1F00E4981F82B000A4800684FF443
:101940007A7190FBF1F201FB1200642190FBF1F23D
:1019500001FB12000A2143E0FD070020980300204C
:101960009C030020A00300203803002094020020E4
:10197000CB0700209C020020B4020020B802002007
:10198000BC020020C8020020CC020020D0020020AF
:10199000D4020020D8020020DC020020E002002057
:1019A000E4020020E8020020EC020020680300208E
:1019B0003B030020F8020020000300200803002061
:1019C000100300201803002020030020280300201B
:1019D000300300208C03002090030020940300209B
:1019E00090FBF1F201FB1200FE4981F82C00FE4849
:1019F00000684FF47A7190FBF1F201FB1200642150
:101A000090FBF1F201FB12000A2190FBF1F0F54985
:101A100081F82D00F44800684FF47A7190FBF1F2E0
:101A200001FB1200642190FBF1F0EE4981F82E00D9
:101A3000ED4800684FF47A7190FBF1F0E94981F8C4
:101A40002F00322400200BF08CFF2246E5490020B5
:101A50000BF075FF64200CF02CFEFFF769FB10BD46
:101A600008B5012114200DF03FFA4FF48060ADF865
:101A7000000010208DF8030003208DF80200694655
:101A8000DA480CF075FF4FF48061D8480DF01DF86E
:101A90000220ADF8000010208DF8030003208DF81F
:101AA00002006946D2480CF063FF0221D0480DF0D5
:101AB0000CF82020ADF800006946CD480CF058FF26
:101AC0002021CB480DF003F81020ADF80000694646
:101AD000C7480CF04DFF1021C5480CF0F6FF08BDBB
:101AE00008B5012104200DF0FFF94020ADF80000F9
:101AF00010208DF8030003208DF802006946BC48D1
:101B00000CF036FF08BD10B504464021B8480CF073
:101B1000DCFFA0B20CF0CDFD4021B5480CF0D7FFA2
:101B200010BD03B581B000214FF080400EF0E2F807
:101B300001981A2882F00E82DFE810F01A001C00CB
:101B4000D900A50122023D03A1094D041605810A11
:101B5000680E720FE5054006BB064807DB078A08DA
:101B60003909530B230CE20CA90D8310A311F611B4
:101B700002F0F0B90AF051FA0021084609F0A5FF79
:101B800001220821022009F045FF0121022009F06D
:101B900084FF0121042009F080FF0AF0F5F995483F
:101BA0000078642190FBF1F201FB12000A2190FB06
:101BB000F1F201FB1200C0B2014600901A2009F0B8
:101BC0009AFF8C480078642190FBF1F201FB12002F
:101BD0000A2190FBF1F0C0B2014600901C2009F0F0
:101BE0008AFF84480078642190FBF1F0C0B201467E
:101BF00000901E2009F07FFF029810B1012874D1D7
:101C00003AE07C480078401E7A490870084600781F
:101C1000012801DAFF2008700AF0B6F9754800784B
:101C2000642190FBF1F201FB12000A2190FBF1F21A
:101C300001FB1200C0B2014600901A2009F05BFFC0
:101C40006C480078642190FBF1F201FB12000A213C
:101C500090FBF1F0C0B2014600901C2009F04BFF50
:101C600064480078642190FBF1F0C0B20146009016
:101C70001E2009F040FF38E05E480078401C5D49B6
:101C8000087008460078FF2801DD012008705948D7
:101C90000078642190FBF1F201FB12000A2190FB15
:101CA000F1F201FB1200C0B2014600901A2009F0C7
:101CB00022FF50480078642190FBF1F201FB1200F2
:101CC0000A2190FBF1F0C0B2014600901C2009F0FF
:101CD00012FF48480078642190FBF1F0C0B2014641
:101CE00000901E2009F007FF00BF00BF40E70AF088
:101CF00094F90221002009F0E8FE012208210220C7
:101D000009F088FE01220821022009F0C1FD01210D
:101D1000022009F0DAFE0221042009F0BEFE0AF0DA
:101D200033F9354800686421B0FBF1F201FB120081
:101D30000A21B0FBF1F201FB1200014600901A20CB
:101D400009F0D9FE2C4800686421B0FBF1F201FBD8
:101D500012000A21B0FBF1F0014600901C2009F0AE
:101D6000CAFE254800686421B0FBF1F0C0B201460C
:101D700000901E2009F0BFFE029810B1012845D145
:101D800045E01D480068401E1B4908600846006881
:101D900010B940F2E73008600AF0F6F8164800681B
:101DA0006421B0FBF1F201FB12000A21B0FBF1F259
:101DB00001FB1200014600901A2009F09CFE0E481B
:101DC00000686421B0FBF1F201FB12000A21B0FBB4
:101DD000F1F0014600901C2009F08DFE06480068D5
:101DE00064210BE0CB070020A0030020001001407D
:101DF000000801404602002018000020B0FBF1F06E
:101E0000C0B2014600901E2009F075FE39E0FE4880
:101E10000068401CFC49086008460068B0F57A7FFD
:101E200001D3012008600AF0AFF8F7480068642188
:101E3000B0FBF1F201FB12000A21B0FBF1F201FB51
:101E40001200014600901A2009F055FEEE48006885
:101E50006421B0FBF1F201FB12000A21B0FBF1F0AA
:101E6000014600901C2009F046FEE7480068642106
:101E7000B0FBF1F0C0B2014600901E2009F03BFE1D
:101E800000BF00BF74E60AF0C8F80821002009F07E
:101E90001CFE01220821022009F0BCFD07210220BE
:101EA00009F013FE0321042009F0F7FDD74800686C
:101EB00001280AD10AF068F80A211A2009F031FE37
:101EC00000211C2009F017FE0DE00AF05DF8052145
:101ED0001A2009F026FE05211C2009F022FE00210F
:101EE0001E2009F008FE029810B1012846D122E018
:101EF000C648006868B90120C44908600AF044F87F
:101F00000A211A2009F00DFE00211C2009F0F3FD22
:101F100010E00020BD4908600AF036F805211A20BB
:101F200009F0FFFD05211C2009F0FBFD00211E200A
:101F300009F0E1FD22E0B548006868B90120B34925
:101F400008600AF021F80A211A2009F0EAFD0021B0
:101F50001C2009F0D0FD10E00020AC4908600AF018
:101F600013F805211A2009F0DCFD05211C2009F0D9
:101F7000D8FD00211E2009F0BEFD00BF00BFF7E51F
:101F80000AF04BF80B21002009F09FFD01220821E7
:101F9000022009F03FFD0321022009F096FD0421F3
:101FA000084609F07AFD0121172009F0F8FD09F033
:101FB000EBFF9748006800280ADA01220821072071
:101FC00009F028FD9248006840429249086008E004
:101FD0008F4800688F49086000220821072009F017
:101FE00019FD00211A2009F086FD012211461C204E
:101FF00009F010FD874800680A2190FBF1F201FB0F
:102000001200C0B2014600901C2009F0B0FD8148CA
:1020100000680A2190FBF1F0C0B2014600901E203A
:1020200009F069FD029810B101287AD17AE07A4866
:1020300000687749096888422BDB09F0A5FF7448DE
:10204000006800280ADA01220821072009F0E2FCD2
:102050006F48006840426F49086008E06C480068BB
:102060006C49086000220821072009F0D3FC0022F7
:102070000821072009F0CEFC08211A2009F051FDA3
:1020800008211C2009F04DFD06211E2009F049FD04
:1020900047E05F480068401E5D49086008460068E8
:1020A00010F1280F02DA6FF02700086009F06CFFCA
:1020B0005748006800280ADA01220821072009F0A1
:1020C000A9FC5348006840425249086008E0504863
:1020D00000685049086000220821072009F09AFC96
:1020E00000211A2009F007FD012211461C2009F0E9
:1020F00091FC484800680A2190FBF1F201FB1200B4
:10210000C0B2014600901C2009F031FD4148006832
:102110000A2190FBF1F0C0B2014600901E2009F0A8
:10212000EAFC46E03A480068401C39490860084625
:102130000068502801DD5020086009F025FF344870
:10214000006800280ADA01220821072009F062FC51
:102150002F48006840422F49086008E02C4800687A
:102160002C49086000220821072009F053FC0021B7
:102170001A2009F0C0FC012211461C2009F04AFC7B
:10218000244800680A2190FBF1F201FB1200C0B262
:10219000014600901C2009F0EAFC1E4800680A2154
:1021A00090FBF1F0C0B2014600901E2009F0A3FCA4
:1021B00000BF00BFDCE409F030FF0421002009F07B
:1021C00084FC01220821022009F024FC03210220C2
:1021D00009F07BFC0421084609F05FFC012117206F
:1021E00009F0DDFC09F0D0FE0B480068002817DA82
:1021F00001220821072009F00DFC07480068404231
:102200000649086015E0000018000020B402002014
:10221000B8020020C4020020BC020020C00200203E
:10222000FE480068FE49086000220821072009F0E6
:10223000F1FB00211A2009F05EFC012211461C204E
:1022400009F0E8FBF64800680A2190FBF1F201FB77
:102250001200C0B2014600901C2009F088FCF04832
:1022600000680A2190FBF1F0C0B2014600901E20E8
:1022700009F041FC029810B1012848D148E0E74834
:102280000068401EE54908600846006810F1280F04
:1022900002DA6FF02700086009F076FEDF48006878
:1022A00000280ADA01220821072009F0B3FBDB48E5
:1022B00000684042DA49086008E0D8480068D84918
:1022C000086000220821072009F0A4FB00211A2041
:1022D00009F011FC012211461C2009F09BFBD0489B
:1022E00000680A2190FBF1F201FB1200C0B2014626
:1022F00000901C2009F03BFCC94800680A2190FBB3
:10230000F1F0C0B2014600901E2009F0F4FB60E03D
:10231000C2480068C3490968884213DB09F034FEEB
:1023200000220821072009F075FB08211A2009F076
:10233000F8FB08211C2009F0F4FB06211E2009F0FF
:10234000F0FB45E0B5480068401CB4490860084609
:102350000068502801DD5020086009F015FEAF48E4
:10236000006800280ADA01220821072009F052FB40
:10237000AA4800684042AA49086008E0A7480068E7
:10238000A749086000220821072009F043FB00212B
:102390001A2009F0B0FB012211461C2009F03AFB7B
:1023A0009F4800680A2190FBF1F201FB1200C0B2C5
:1023B000014600901C2009F0DAFB994800680A21C8
:1023C00090FBF1F0C0B2014600901E2009F093FB93
:1023D00000BF00BF8AE400220821072009F01AFB91
:1023E00009F01BFE0B21002009F06FFB01220821E0
:1023F000022009F00FFB0B21022009F066FB0421EB
:10240000084609F04AFB09F0BFFD00220821072019
:1024100009F000FB00211A2009F0A9FB0122114656
:102420001C2009F0F7FA804800680A2190FBF1F2BD
:1024300001FB1200C0B2014600901C2009F097FB7E
:10244000794800680A2190FBF1F0C0B20146009083
:102450001E2009F050FB029810B101284DD14DE02B
:102460007148006871490968884213DC09F08CFDE5
:1024700000220821072009F0CDFA08211A2009F0CE
:1024800050FB08211C2009F04CFB06211E2009F0FE
:1024900048FB32E064480068401E63490860084613
:1024A0000068002801DA0120086009F06DFD0022B3
:1024B0000821072009F0AEFA00211A2009F057FB85
:1024C000012211461C2009F0A5FA574800680A218C
:1024D00090FBF1F201FB1200C0B2014600901C20FB
:1024E00009F045FB504800680A2190FBF1F0C0B2AA
:1024F000014600901E2009F0FEFA33E04A480068C9
:10250000401C4949086008460068632801DD6320D3
:10251000086009F039FD00220821072009F07AFA45
:1025200000211A2009F023FB012211461C2009F08A
:1025300071FA3D4800680A2190FBF1F201FB12009C
:10254000C0B2014600901C2009F011FB364800681B
:102550000A2190FBF1F0C0B2014600901E2009F064
:10256000CAFA00BF00BF8DE409F057FD0421002026
:1025700009F0ABFA01220821022009F04BFA0B21E5
:10258000022009F0A2FA0421084609F086FA09F0AF
:10259000FBFC00220821072009F03CFA00211A2048
:1025A00009F0E5FA012211461C2009F033FA1F4810
:1025B00000680A2190FBF1F201FB1200C0B2014653
:1025C00000901C2009F0D3FA184800680A2190FBFB
:1025D000F1F0C0B2014600901E2009F08CFA02987A
:1025E00010B101283ED13EE010480068401E0F495E
:1025F000086008460068002801DA0020086009F039
:10260000C3FC00220821072009F004FA00211A2047
:1026100009F0ADFA012211461C2009E0BC0200209D
:10262000C0020020B8020020C8020020CC02002016
:1026300009F0F0F9F84800680A2190FBF1F201FB7B
:102640001200C0B2014600901C2009F090FAF24836
:1026500000680A2190FBF1F0C0B2014600901E20F4
:1026600009F049FA4DE0ED480068EB4909688842F5
:1026700013DC09F089FC00220821072009F0CAF9BF
:1026800008211A2009F04DFA08211C2009F049FA06
:1026900006211E2009F045FA32E0DF480068401CA0
:1026A000DD49086008460068632801DD6320086092
:1026B00009F06AFC00220821072009F0ABF900218B
:1026C0001A2009F054FA012211461C2009F0A2F93F
:1026D000D14800680A2190FBF1F201FB1200C0B260
:1026E000014600901C2009F042FACB4800680A21FC
:1026F00090FBF1F0C0B2014600901E2009F0FBF9FA
:1027000000BF00BF3BE409F088FC0521002009F070
:10271000DCF901220821022009F07CF903210220C2
:1027200009F0D3F90621042009F0B7F90121172097
:1027300009F035FA09F028FCB9480068012804D1ED
:1027400005211C2009F0EDF903E003211C2009F00C
:10275000E8F9029810B101282ED116E0B0480068BF
:1027600048B90120AE49086009F00EFC05211C2083
:1027700009F0D7F908E00020A949086009F004FC35
:1027800003211C2009F0CDF916E0A548006848B9DE
:102790000120A349086009F0F7FB05211C2009F07E
:1027A000C0F908E000209E49086009F0EDFB032114
:1027B0001C2009F0B6F900BF00BFFBE409F02DFCB6
:1027C0000821002009F081F901220821022009F0E6
:1027D00021F90521022009F078F90721042009F0E8
:1027E0005CF909F0D1FB8F480068012808D10A2163
:1027F0001A2009F096F900211C2009F07CF90BE061
:1028000005211A2009F08DF905211C2009F089F90C
:1028100000211E2009F06FF9029810B1012846D15D
:1028200022E08048006868B901207E49086009F00C
:10283000ABFB0A211A2009F074F900211C2009F0D1
:102840005AF910E000207749086009F09DFB052146
:102850001A2009F066F905211C2009F062F900210F
:102860001E2009F048F922E06E48006868B901208E
:102870006C49086009F088FB0A211A2009F051F917
:1028800000211C2009F037F910E00020654908609C
:1028900009F07AFB05211A2009F043F905211C20D3
:1028A00009F03FF900211E2009F025F900BF00BF03
:1028B00080E409F0B2FB0121002009F0EEF80122CA
:1028C0000821022009F0A6F80321022009F0FDF8F2
:1028D0000821042009F0E1F809F056FB524800688D
:1028E00038B90A211A2009F01CF900211C2009F02E
:1028F00002F94D48006801280BD105211A2009F082
:1029000010F905211C2009F00CF900211E2009F006
:10291000F2F8029810B1012856D12AE04248006826
:10292000401E4149086008460068002801DA01207D
:1029300008603D48006848B909F026FB0A211A20C2
:1029400009F0EFF800211C2009F0D5F8364800689E
:1029500001280DD109F018FB05211A2009F0E1F832
:1029600005211C2009F0DDF800211E2009F0C3F824
:102970002AE02D480068401C2B4908600846006882
:10298000012801DD002008602748006848B909F0E7
:10299000FBFA0A211A2009F0C4F800211C2009F0D2
:1029A000AAF82148006801280DD109F0EDFA0521A7
:1029B0001A2009F0B6F805211C2009F0B2F8002110
:1029C0001E2009F098F800BF00BF03E509F025FBC1
:1029D0000221002009F061F801220821022009F0FB
:1029E00019F80321022009F070F80821042009F0E9
:1029F00054F809F0C9FA0D480068012818D10321DC
:102A00001A2009F08EF809211C2009F08AF8032108
:102A10001E2009F086F817E0CC020020C802002032
:102A2000D0020020D4020020D8020020DC020020C6
:102A300000211A2009F075F808211C2009F071F80E
:102A400000211E2009F057F8029810B101284ED13C
:102A500026E0F848006888B90120F649086009F0C6
:102A600093FA03211A2009F05CF809211C2009F0CF
:102A700058F803211E2009F054F810E00020ED4919
:102A8000086009F081FA00211A2009F04AF80821AB
:102A90001C2009F046F800211E2009F02CF826E041
:102AA000E448006888B90120E249086009F06CFA3E
:102AB00003211A2009F035F809211C2009F031F80A
:102AC00003211E2009F02DF810E00020D9490860EC
:102AD00009F05AFA00211A2009F023F808211C20D5
:102AE00009F01FF800211E2009F005F800BF00BF03
:102AF00070E409F092FA0321002008F0CEFF0122D1
:102B00000821022008F086FF0321022008F0DDFFE3
:102B10000821042008F0C1FF09F036FAC648006811
:102B20000A2190FBF1F201FB1200C0B201460090B5
:102B30001A2008F0E0FFC04800680A2190FBF1F07D
:102B400090FBF1F201FB1200C0B2014600901C2084
:102B500008F0D1FFB8480068642190FBF1F0C0B2E2
:102B6000014600901E2008F0C6FF029810B101280F
:102B70006CD135E0B0480068401EAF490860084697
:102B80000068012802DA4FF41670086009F0FCF9B9
:102B9000A94800680A2190FBF1F201FB1200C0B2C3
:102BA000014600901A2008F0A6FFA34800680A21F9
:102BB00090FBF1F090FBF1F201FB1200C0B2014674
:102BC00000901C2008F097FF9B480068642190FB50
:102BD000F1F0C0B2014600901E2008F08CFF35E0F5
:102BE00095480068401C9449086008460068B0F5A4
:102BF000167F01DD0120086009F0C6F98E480068E3
:102C00000A2190FBF1F201FB1200C0B201460090D4
:102C10001A2008F070FF884800680A2190FBF1F044
:102C200090FBF1F201FB1200C0B2014600901C20A3
:102C300008F061FF80480068642190FBF1F0C0B2A9
:102C4000014600901E2008F056FF00BF00BF8AE436
:102C500009F0E3F90421002008F01FFF01220821F8
:102C6000022008F0D7FE0321022008F02EFF0821E1
:102C7000042008F012FF09F087F9704800680A2163
:102C800090FBF1F201FB1200C0B2014600901A2045
:102C900008F031FF694800680A2190FBF1F090FBD1
:102CA000F1F201FB1200C0B2014600901C2008F0B6
:102CB00022FF62480068642190FBF1F0C0B2014637
:102CC00000901E2008F017FF029810B101286CD167
:102CD00035E05A480068401E5849086008460068B8
:102CE000012802DA4FF41670086009F04DF95348D4
:102CF00000680A2190FBF1F201FB1200C0B201460C
:102D000000901A2008F0F7FE4C4800680A2190FB5A
:102D1000F1F090FBF1F201FB1200C0B2014600900D
:102D20001C2008F0E8FE45480068642190FBF1F0A3
:102D3000C0B2014600901E2008F0DDFE35E03F489D
:102D40000068401C3D49086008460068B0F5167FE1
:102D500001DD0120086009F017F9384800680A21F0
:102D600090FBF1F201FB1200C0B2014600901A2064
:102D700008F0C1FE314800680A2190FBF1F090FB99
:102D8000F1F201FB1200C0B2014600901C2008F0D5
:102D9000B2FE2A480068642190FBF1F0C0B20146FF
:102DA00000901E2008F0A7FE00BF00BFAAE409F0B3
:102DB00034F90521002008F070FE012208210220CC
:102DC00008F028FE0321022008F07FFE08210420DD
:102DD00008F063FE09F0D8F8194800680A2190FB52
:102DE000F1F201FB1200C0B2014600901A2008F077
:102DF00082FE029810B101283FD123E010480068FC
:102E0000401E0F49086008460068002801DA0120CA
:102E1000086009F0B9F80A4800680A2190FBF1F24D
:102E200001FB1200C0B2014600901A2008F063FEB8
:102E300023E00000DC020020E0020020E402002089
:102E4000F4020020FE480068401CFD490860084666
:102E50000068012801DD0020086009F095F8F848B5
:102E600000680A2190FBF1F201FB1200C0B201469A
:102E700000901A2008F03FFE00BF00BF42E409F0B6
:102E8000CCF800220821072008F0C4FD0022082108
:102E90000A2008F0BFFD0021084608F016FE0122B6
:102EA0000821022008F0B6FD0321022008F00DFEE3
:102EB0000421084608F0F1FD0121172008F06FFEFB
:102EC00009F062F8DF4800680A2190FBF1F201FB8B
:102ED0001200C0B2014600901A2008F00CFE012238
:102EE00011461C2008F096FDD64800680A2190FB88
:102EF000F1F090FBF1F201FB1200C0B2014600902C
:102F00001C2008F034FECF480068642190FBF1F0EB
:102F1000C0B2014600901E2008F0EDFD029810B1ED
:102F2000012839D139E0C7480068401EC54908600A
:102F300008460068002801DA0020086009F024F83B
:102F4000C04800680A2190FBF1F201FB1200C0B2F8
:102F5000014600901A2008F0CEFD012211461C20E7
:102F600008F058FDB74800680A2190FBF1F090FB8B
:102F7000F1F201FB1200C0B2014600901C2008F0E3
:102F8000F6FDB0480068642190FBF1F0C0B2014644
:102F900000901E2008F0AFFD4FE0AA480068401CDA
:102FA000A8490860A8480068A8490968401A032190
:102FB00090FBF1F000EB8000A2490968B1EB400FF3
:102FC0000CDDA1480068A1490968401A032190FB63
:102FD000F1F000EB800040009A49086008F0D4FF4F
:102FE000984800680A2190FBF1F201FB1200C0B280
:102FF000014600901A2008F07EFD012211461C2097
:1030000008F008FD8F4800680A2190FBF1F090FB62
:10301000F1F201FB1200C0B2014600901C2008F042
:10302000A6FD88480068642190FBF1F0C0B201461B
:1030300000901E2008F05FFD00BF00BF38E408F0DC
:10304000ECFF0021084608F040FD01220821022083
:1030500008F0E0FC0B21022008F037FD04210846AF
:1030600008F01BFD7A4800680A2190FBF1F201FB91
:103070001200C0B20246012100901C2008F0CAFCD8
:1030800008F082FF00211A2008F071FD70480068E6
:103090000A2190FBF1F090FBF1F201FB1200C0B2AB
:1030A000014600901C2008F062FD69480068642118
:1030B00090FBF1F0C0B2014600901E2008F01BFD0D
:1030C000029810B1012839D139E061480068401EEA
:1030D0005F49086008460068002801DA002008609F
:1030E00008F052FF5A4800680A2190FBF1F201FBF8
:1030F0001200C0B2014600901A2008F038FD0122EB
:1031000011461C2008F086FC514800680A2190FBFB
:10311000F1F090FBF1F201FB1200C0B20146009009
:103120001C2008F024FD4A480068642190FBF1F05F
:10313000C0B2014600901E2008F0DDFC4FE044487C
:103140000068401C424908604248006842490968DA
:10315000401A032190FBF1F000EB80003C49096824
:10316000B1EB400F0CDD3B4800683B490968401A51
:10317000032190FBF1F000EB80004000344908602F
:1031800008F002FF324800680A2190FBF1F201FBCF
:103190001200C0B2014600901A2008F0E8FC01229B
:1031A00011461C2008F036FC294800680A2190FBD3
:1031B000F1F090FBF1F201FB1200C0B20146009069
:1031C0001C2008F0D4FC22480068642190FBF1F038
:1031D000C0B2014600901E2008F08DFC00BF00BF69
:1031E00086E408F01AFF0021084608F056FC012288
:1031F0000821022008F00EFC0321022008F065FCE3
:103200000921042008F049FC08F0BEFE13480078AC
:10321000642190FBF1F201FB12000A2190FBF1F214
:1032200001FB1200C0B2014600901A2008F063FCB6
:103230000A480078642190FBF1F201FB12000FE0D4
:10324000F4020020F8020020B8020020BC02002096
:1032500000030020C8020020CC020020470200200A
:103260000A2190FBF1F0C0B2014600901C2008F04A
:1032700042FCFE480078642190FBF1F0C0B20146A8
:1032800000901E2008F037FC029810B1012876D17A
:103290003AE0F6480078401EF44908700846007885
:1032A000012801DAFF20087008F06EFEEF48007870
:1032B000642190FBF1F201FB12000A2190FBF1F274
:1032C00001FB1200C0B2014600901A2008F013FC66
:1032D000E6480078642190FBF1F201FB12000A211C
:1032E00090FBF1F0C0B2014600901C2008F003FCF6
:1032F000DE480078642190FBF1F0C0B201460090F6
:103300001E2008F0F8FB3AE0D8480078401CD74966
:10331000087008460078FF2801DD0120087008F0D9
:1033200033FED2480078642190FBF1F201FB1200D9
:103330000A2190FBF1F201FB1200C0B2014600909D
:103340001A2008F0D8FBC9480078642190FBF1F2FC
:1033500001FB12000A2190FBF1F0C0B2014600907F
:103360001C2008F0C8FBC1480078642190FBF1F0F4
:10337000C0B2014600901E2008F0BDFB00BF00BF98
:1033800065E408F04AFE0121002008F086FB0122D6
:103390000821022008F03EFB0321022008F095FBE3
:1033A0000921042008F079FB08F0EEFDB048007810
:1033B000642190FBF1F201FB12000A2190FBF1F273
:1033C00001FB1200C0B2014600901A2008F093FBE6
:1033D000A7480078642190FBF1F201FB12000A215A
:1033E00090FBF1F0C0B2014600901C2008F083FB76
:1033F0009F480078642190FBF1F0C0B20146009034
:103400001E2008F078FB029810B1012876D13AE02E
:1034100097480078401E96490870084600780128B1
:1034200001DAFF20087008F0AFFD914800786421B0
:1034300090FBF1F201FB12000A2190FBF1F201FB7B
:103440001200C0B2014600901A2008F054FB8848D0
:103450000078642190FBF1F201FB12000A2190FB3D
:10346000F1F0C0B2014600901C2008F044FB8048F7
:103470000078642190FBF1F0C0B2014600901E205C
:1034800008F039FB3AE07A480078401C7849087027
:1034900008460078FF2801DD0120087008F074FD5F
:1034A00073480078642190FBF1F201FB12000A21BD
:1034B00090FBF1F201FB1200C0B2014600901A200D
:1034C00008F019FB6A480078642190FBF1F201FBD7
:1034D00012000A2190FBF1F0C0B2014600901C20BE
:1034E00008F009FB62480078642190FBF1F0C0B25B
:1034F000014600901E2008F0FEFA00BF00BF55E410
:1035000008F08BFD0221002008F0C7FA01220821F3
:10351000022008F07FFA0321022008F0D6FA0921E0
:10352000042008F0BAFA08F02FFD52480078642110
:1035300090FBF1F201FB12000A2190FBF1F201FB7A
:103540001200C0B2014600901A2008F0D4FA49488F
:103550000078642190FBF1F201FB12000A2190FB3C
:10356000F1F0C0B2014600901C2008F0C4FA4148B6
:103570000078642190FBF1F0C0B2014600901E205B
:1035800008F0B9FA029810B101287ED13AE0394822
:103590000078401E3749087008460078012801DA93
:1035A000FF20087008F0F0FC32480078642190FB9E
:1035B000F1F201FB12000A2190FBF1F201FB120073
:1035C000C0B2014600901A2008F095FA2948007808
:1035D000642190FBF1F201FB12000A2190FBF1F053
:1035E000C0B2014600901C2008F085FA21480078FE
:1035F000642190FBF1F0C0B2014600901E2008F05B
:103600007AFA42E01B480078401C1A4908700846C4
:103610000078FF2801DD0120087008F0B5FC15488E
:103620000078642190FBF1F201FB12000A2190FB6B
:10363000F1F201FB1200C0B2014600901A2008F01E
:103640005AFA0C480078642190FBF1F201FB120059
:103650000A2190FBF1F0C0B2014600901C2008F056
:103660004AFA04480078642106E00000470200207E
:10367000480200204902002090FBF1F0C0B2014650
:1036800000901E2008F037FA00BF00BFD8E208F013
:10369000C4FC0321002008F000FA012208210220C6
:1036A00008F0B8F90321022008F00FFA09210420DC
:1036B00008F0F3F908F068FCFE480078642190FBFC
:1036C000F1F201FB12000A2190FBF1F201FB120062
:1036D000C0B2014600901A2008F00DFAF5480078B3
:1036E000642190FBF1F201FB12000A2190FBF1F042
:1036F000C0B2014600901C2008F0FDF9ED480078AA
:10370000642190FBF1F0C0B2014600901E2008F049
:10371000F2F9029810B1012876D13AE0E548007834
:10372000401EE449087008460078012801DAFF20AD
:10373000087008F029FCDF480078642190FBF1F262
:1037400001FB12000A2190FBF1F201FB1200C0B252
:10375000014600901A2008F0CEF9D648007864217E
:1037600090FBF1F201FB12000A2190FBF1F0C0B2D4
:10377000014600901C2008F0BEF9CE480078642174
:1037800090FBF1F0C0B2014600901E2008F0B3F9A2
:103790003AE0C8480078401CC649087008460078DE
:1037A000FF2801DD0120087008F0EEFBC148007819
:1037B000642190FBF1F201FB12000A2190FBF1F26F
:1037C00001FB1200C0B2014600901A2008F093F9E4
:1037D000B8480078642190FBF1F201FB12000A2145
:1037E00090FBF1F0C0B2014600901C2008F083F974
:1037F000B0480078642190FBF1F0C0B2014600901F
:103800001E2008F078F900BF00BFA3E308F005FC14
:103810000021084608F041F901220821022008F0A1
:10382000F9F80321022008F050F90521042008F0DE
:1038300034F90121172008F0B2F908F0A5FB9E48E1
:10384000006800280ADA01220821072008F0E2F8BF
:103850009948006840429949086008E09648006825
:103860009649086000220821072008F0D3F8934801
:1038700000680A2190FBF1F201FB1200C0B2014680
:1038800000901A2008F037F9012211461C2008F098
:10389000C1F88A4800680A2190FBF1F090FBF1F230
:1038A00001FB1200C0B2014600901C2008F05FF935
:1038B00082480068642190FBF1F0C0B2014600909C
:1038C0001E2008F018F9029810B1012853D153E0D6
:1038D00079480068401E784908600846006810F181
:1038E000640F02DA6FF06300086073480068002814
:1038F0000ADA01220821072008F08CF86E480068D7
:1039000040426E49086008E06B4800686B490860F7
:1039100000220821072008F07DF808F035FB6748F1
:1039200000680A2190FBF1F201FB1200C0B20146CF
:1039300000901A2008F0DFF8012211461C2008F040
:1039400069F85E4800680A2190FBF1F090FBF1F203
:1039500001FB1200C0B2014600901C2008F007F9DC
:1039600056480068642190FBF1F0C0B20146009017
:103970001E2008F0C0F851E04F480068401C4E4936
:10398000086008460068642801DD642008604A4831
:10399000006800280ADA01220821072008F03AF816
:1039A0004548006840424549086008E042480068D0
:1039B0004249086000220821072008F02BF808F08F
:1039C000E3FA3E4800680A2190FBF1F201FB120085
:1039D000C0B2014600901A2008F08DF8012211466D
:1039E0001C2008F017F8354800680A2190FBF1F018
:1039F00090FBF1F201FB1200C0B2014600901C20C6
:103A000008F0B5F82D480068642190FBF1F0C0B2D1
:103A1000014600901E2008F06EF800BF00BF99E23A
:103A200008F0FBFA0021084608F037F801220821C7
:103A3000022007F0EFFF0B21022008F046F80521D5
:103A4000042008F02AF808F09FFA1D4800680028B2
:103A50000ADA01220821072007F0DCFF1848006875
:103A600040421849086008E0154800681549086098
:103A700000220821072007F0CDFF124800680A2124
:103A800090FBF1F201FB1200C0B2014600901A2037
:103A900008F06DF8012211461C2007F0BBFF094811
:103AA00000680A2190FBF1F090FBF1F201FB12009B
:103AB000C0B209E04A020020280300202C030020A5
:103AC0003003002034030020014600901C2008F041
:103AD0004EF8FB480068642190FBF1F0C0B201464B
:103AE00000901E2008F007F8029810B1012853D169
:103AF00053E0F4480068401EF24908600846006838
:103B000010F1640F02DA6FF063000860ED4800689E
:103B100000280ADA01220821072007F07BFFE94884
:103B200000684042E649086008E0E6480068E44969
:103B3000086000220821072007F06CFF08F024FA33
:103B4000DF4800680A2190FBF1F201FB1200C0B2CD
:103B5000014600901A2008F00AF8012211461C20A4
:103B600007F058FFD64800680A2190FBF1F090FB5F
:103B7000F1F201FB1200C0B2014600901C2007F0D8
:103B8000F6FFCF480068642190FBF1F0C0B2014617
:103B900000901E2007F0AFFF51E0CA480068401CAB
:103BA000C849086008460068642801DD6420086090
:103BB000C448006800280ADA01220821072007F01B
:103BC00029FFC04800684042BD49086008E0BD4880
:103BD0000068BB49086000220821072007F01AFF8F
:103BE00008F0D2F9B64800680A2190FBF1F201FB17
:103BF0001200C0B2014600901A2007F0B8FF01225F
:103C000011461C2007F006FFAD4800680A2190FB12
:103C1000F1F090FBF1F201FB1200C0B201460090FE
:103C20001C2007F0A4FFA6480068642190FBF1F077
:103C3000C0B2014600901E2007F05DFF00BF00BF2C
:103C400088E108F0EAF90421002007F026FF0122AC
:103C50000821022007F0DEFE0321022007F035FFD5
:103C60000921042007F019FF08F08EF908F0E1F9A6
:103C70009548008842F2107190FBF1F0C0B2014605
:103C800000900B2007F0CEFD8F48008842F21071A3
:103C900090FBF1F201FB12004FF47A7190FBF1F00E
:103CA000C0B2014600900D2007F0BCFD8648008898
:103CB0004FF47A7190FBF1F201FB1200642190FB4A
:103CC000F1F0C0B2014600900F2007F0ABFD7E4836
:103CD0000088642190FBF1F201FB12000A2190FBA5
:103CE000F1F0C0B201460090112007F09BFD76482C
:103CF00000880A2190FBF1F201FB1200C0B20146DC
:103D00000090132007F08EFD029810B101285AD1BF
:103D10005AE06D480088401E6B49088008460088BC
:103D2000012802DA4FF6FF70088008F082F9664831
:103D3000008842F2107190FBF1F0C0B20146009091
:103D40000B2007F06FFD6048008842F2107190FB75
:103D5000F1F201FB12004FF47A7190FBF1F0C0B266
:103D6000014600900D2007F05DFD574800884FF494
:103D70007A7190FBF1F201FB1200642190FBF1F0EB
:103D8000C0B2014600900F2007F04CFD4E4800885D
:103D9000642190FBF1F201FB12000A2190FBF1F08B
:103DA000C0B201460090112007F03CFD4648008853
:103DB0000A2190FBF1F201FB1200C0B20146009013
:103DC000132007F02FFD5AE03F480088401C3E4971
:103DD000088008460088B0F5803F01DB012008809C
:103DE00008F027F93848008842F2107190FBF1F092
:103DF000C0B2014600900B2007F014FD3248008845
:103E000042F2107190FBF1F201FB12004FF47A7153
:103E100090FBF1F0C0B2014600900D2007F002FDCA
:103E2000294800884FF47A7190FBF1F201FB1200EF
:103E3000642190FBF1F0C0B2014600900F2007F022
:103E4000F1FC21480088642190FBF1F201FB120093
:103E50000A2190FBF1F0C0B201460090112007F05A
:103E6000E1FC194800880A2190FBF1F201FB1200E5
:103E7000C0B201460090132007F0D4FC00BF00BF81
:103E800068E008F0CAF80421002007F01EFE0621B1
:103E9000022007F01AFE0521042007F0FEFD08F0BD
:103EA000C8F808F071F809480078014600901A2017
:103EB00007F021FE029858B1012833D11DE000001F
:103EC00034030020300300204C020020EC020020CC
:103ED000FE480068401EFD49086008460068012849
:103EE00001DA0420086008F04FF8F848007801462D
:103EF00000901A2007F0FFFD14E0F4480068401C11
:103F0000F249086008460068042801DD01200860C5
:103F100008F03AF8ED480078014600901A2007F0C2
:103F2000EAFD00BF00BF15E008F077F80621022087
:103F300007F0B3FD0121042007F0AFFD08F024F8DD
:103F40000120E34908600020E24908600120E249BD
:103F5000086000BF00BF0EBD03B583B003981A28E8
:103F600082F02783DFE810F01A001C00DB00D0018C
:103F70004D024B0354040905B90521069C06290787
:103F8000B0076A0819097809410AFD0A060C040DF0
:103F9000FC0D010F0B101E11C7120F1302F009BB0D
:103FA00008F03BF80021084607F08FFD01220821A8
:103FB000022007F02FFD0121022007F06EFD0121F4
:103FC000042007F06AFD07F0DFFFC4480078642191
:103FD00090FBF1F201FB12000A2190FBF1F201FBD0
:103FE0001200C0B2014602901A2007F084FDBB48BF
:103FF0000078642190FBF1F201FB12000A2190FB92
:10400000F1F0C0B2014602901C2007F074FDB348E5
:104010000078642190FBF1F0C0B2014602901E20AE
:1040200007F069FD049810B1012876D13AE0AB4859
:104030000078401EA949087008460078012801DA76
:10404000FE20087007F0A0FFA4480078642190FBD0
:10405000F1F201FB12000A2190FBF1F201FB1200C8
:10406000C0B2014602901A2007F045FD9B48007837
:10407000642190FBF1F201FB12000A2190FBF1F0A8
:10408000C0B2014602901C2007F035FD934800782D
:10409000642190FBF1F0C0B2014602901E2007F0AF
:1040A0002AFD3AE08D480078401C8C49087008468B
:1040B0000078FE2801DD0120087007F065FF8748C1
:1040C0000078642190FBF1F201FB12000A2190FBC1
:1040D000F1F201FB1200C0B2014602901A2007F073
:1040E0000AFD7E480078642190FBF1F201FB12008A
:1040F0000A2190FBF1F0C0B2014602901C2007F0AB
:10410000FAFC76480078642190FBF1F0C0B20146D9
:1041100002901E2007F0EFFC00BF00BF3EE707F053
:104120007CFF0221002007F0D0FC012208210220A0
:1041300007F070FC01220821022007F0A9FB0121F1
:10414000022007F0C2FC0221042007F0A6FC07F0C1
:104150001BFF63486349096850F821006249086001
:1041600008460068642190FBF1F00A2190FBF1F20F
:1041700001FB1200C0B2014602901A2007F0BBFCFE
:1041800059480068642190FBF1F00A2190FBF1F09E
:1041900090FBF1F201FB1200C0B2014602901C201C
:1041A00007F0A9FC5048006842F2107190FBF1F052
:1041B000C0B2014602901E2007F09DFC049810B189
:1041C000012846D146E047480068401E454908603E
:1041D00008460068002801DA042008604048414988
:1041E000096850F8210040490860084600680AF054
:1041F0009CFA07F0C9FE3C480068642190FBF1F08E
:104200000A2190FBF1F201FB1200C0B201460290BC
:104210001A2007F070FC34480068642190FBF1F02C
:104220000A2190FBF1F090FBF1F201FB1200C0B209
:10423000014602901C2007F05EFC2B48006842F209
:10424000107190FBF1F0C0B2014602901E2007F001
:1042500052FC57E023480068401C22490860084689
:104260000068042801DD002008601D481D49096818
:1042700050F821001C490860084600680AF055FA09
:1042800007F082FE18480068642190FBF1F00A21D3
:1042900090FBF1F201FB1200C0B2014602901A201D
:1042A00007F029FC10480068642190FBF1F00A2116
:1042B00090FBF1F090FBF1F201FB1200C0B201465D
:1042C00002901C2007F017FC07480FE0EC020020CA
:1042D00058030020440300206003002094020020C3
:1042E000A00200209C02002098020020006842F2F8
:1042F000107190FBF1F0C0B2014602901E2007F051
:10430000FAFB00BF00BF49E607F087FE0821002046
:1043100007F0DBFB01220821022007F07BFB0721CD
:10432000022007F0D2FB0321042007F0B6FBFE4871
:10433000006801280AD107F027FE0A211A2007F099
:10434000F0FB00211C2007F0D6FB0DE007F01CFE5F
:1043500005211A2007F0E5FB05211C2007F0E1FBF1
:1043600000211E2007F0C7FB049810B1012846D198
:1043700022E0ED48006868B90120EB49086007F0C9
:1043800003FE0A211A2007F0CCFB00211C2007F0B5
:10439000B2FB10E00020E449086007F0F5FD0521BC
:1043A0001A2007F0BEFB05211C2007F0BAFB0021F4
:1043B0001E2007F0A0FB22E0DB48006868B901205E
:1043C000D949086007F0E0FD0A211A2007F0A9FB8F
:1043D00000211C2007F08FFB10E00020D24908606C
:1043E00007F0D2FD05211A2007F09BFB05211C20B8
:1043F00007F097FB00211E2007F07DFB00BF00BFE8
:10440000CCE507F00AFE0B21002007F05EFB01223D
:104410000821022007F0FEFA0321022007F055FBD5
:104420000421084607F039FB0121172007F0B7FBEC
:1044300007F0AAFDBD48006800280ADA0122082119
:10444000072007F0E7FAB94800684042B849086019
:1044500008E0B6480068B649086000220821072035
:1044600007F0D8FA00211A2007F045FB0122114677
:104470001C2007F0CFFAAE4800680A2190FBF1F249
:1044800001FB1200C0B2014602901C2007F06FFB36
:10449000A74800680A2190FBF1F0C0B201460290E3
:1044A0001E2007F028FB049810B1012875D175E093
:1044B000A04800689D490968884226DD07F064FD30
:1044C0009A48006800280ADA01220821072007F02C
:1044D000A1FA9648006840429549086008E0934870
:1044E00000689349086000220821072007F092FA2B
:1044F00008211A2007F015FB08211C2007F011FBEA
:1045000006211E2007F00DFB47E088480068401E8A
:10451000864908600846006810F1280F02DA6FF03B
:104520002700086007F030FD8048006800280ADA9C
:1045300001220821072007F06DFA7C4800684042FC
:104540007B49086008E079480068794908600022E2
:104550000821072007F05EFA00211A2007F0CBFAA5
:10456000012211461C2007F055FA714800680A2103
:1045700090FBF1F201FB1200C0B2014602901C2038
:1045800007F0F5FA6A4800680A2190FBF1F0C0B222
:10459000014602901E2007F0AEFA2EE06348006844
:1045A000401C6249086008460068502801DD502020
:1045B000086007F0E9FC00211A2007F09CFA0122AC
:1045C00011461C2007F026FA594800680A2190FB82
:1045D000F1F201FB1200C0B2014602901C2007F06C
:1045E000C6FA534800680A2190FBF1F0C0B20146B8
:1045F00002901E2007F07FFA00BF00BFCEE407F054
:104600000CFD0421002007F060FA0122082102209D
:1046100007F000FA0321022007F057FA05210420D1
:1046200007F03BFA0121172007F0B9FA07F0ACFCBC
:104630004048006800280ADA01220821072007F014
:10464000E9F93C48006840423B49086008E03948C5
:1046500000683949086000220821072007F0DAF9CC
:1046600000211A2007F047FA012211461C2007F00A
:10467000D1F9314800680A2190FBF1F201FB1200E8
:10468000C0B2014602901C2007F071FA2A48006867
:104690000A2190FBF1F0C0B2014602901E2007F003
:1046A0002AFA049810B1012853D153E02148006838
:1046B000401E204908600846006810F1280F02DA01
:1046C0006FF02700086007F05FFC1A4800680028B8
:1046D0000ADA01220821072007F09CF91548006832
:1046E00040421549086008E0124800681249086015
:1046F00000220821072007F08DF900211A2007F079
:10470000FAF9012211461C2007F084F90A480068D2
:104710000A2190FBF1F201FB1200C0B201460290A7
:104720001C2007F024FA09E0B4020020B80200209F
:10473000C4020020BC020020C0020020F84800682B
:104740000A2190FBF1F0C0B2014602901E2007F052
:10475000D2F95BE0F3480068F349096888420EDD4E
:1047600007F012FC08211A2007F0DBF908211C20B1
:1047700007F0D7F906211E2007F0D3F945E0E948F4
:104780000068401CE749086008460068502801DDC1
:104790005020086007F0F8FBE248006800280ADAB9
:1047A00001220821072007F035F9DE480068404261
:1047B000DB49086008E0DB480068D949086000224E
:1047C0000821072007F026F900211A2007F093F9A5
:1047D000012211461C2007F01DF9D14800680A216A
:1047E00090FBF1F201FB1200C0B2014602901C20C6
:1047F00007F0BDF9CA4800680A2190FBF1F0C0B289
:10480000014602901E2007F076F900BF00BF85E444
:1048100000220821072007F0FDF807F0FEFB0B211E
:10482000002007F052F901220821022007F0F2F8D7
:104830000B21022007F049F90621042007F02DF989
:1048400007F0A2FB00211A2007F091F9012211467E
:104850001C2007F0DFF8B54800680A2190FBF1F250
:1048600001FB1200C0B2014602901C2007F07FF944
:10487000AE4800680A2190FBF1F0C0B201460290F8
:104880001E2007F038F9049810B1012873D143E0D5
:10489000A6480068A649096888420EDA07F074FB4A
:1048A00008211A2007F03DF908211C2007F039F9EA
:1048B00006211E2007F035F92DE09C480068401EB7
:1048C0009A49086008460068002801DA012008605B
:1048D00007F05AFB00211A2007F049F9012211467E
:1048E0001C2007F097F8914800680A2190FBF1F22C
:1048F00001FB1200C0B2014602901C2007F037F9FC
:104900008A4800680A2190FBF1F0C0B2014602908B
:104910001E2007F0F0F82EE084480068401C834910
:10492000086008460068632801DD6320086007F01E
:104930002BFB00211A2007F01AF9012211461C2036
:1049400007F068F8794800680A2190FBF1F201FB52
:104950001200C0B2014602901C2007F008F973480B
:1049600000680A2190FBF1F0C0B2014602901E20BF
:1049700007F0C1F800BF00BFC5E407F04EFB0421FB
:10498000002007F0A2F801220821022007F042F8D7
:104990000B21022007F099F80721042007F07DF889
:1049A00007F0F2FA00211A2007F0E1F8012211467F
:1049B0001C2007F02FF85E4800680A2190FBF1F2F6
:1049C00001FB1200C0B2014602901C2007F0CFF894
:1049D000574800680A2190FBF1F0C0B201460290EE
:1049E0001E2007F088F8049810B1012873D12EE03A
:1049F0004F480068401E4E4908600846006800287D
:104A000001DA0020086007F0BFFA00211A2007F041
:104A1000AEF8012211461C2006F0FCFF4448006855
:104A20000A2190FBF1F201FB1200C0B20146029094
:104A30001C2007F09CF83E4800680A2190FBF1F02A
:104A4000C0B2014602901E2007F055F843E03748F7
:104A500000683749096888420EDA07F095FA08219C
:104A60001A2007F05EF808211C2007F05AF80621EA
:104A70001E2007F056F82DE02D480068401C2C49F8
:104A8000086008460068632801DD6320086007F0BD
:104A90007BFA00211A2007F06AF8012211461C2037
:104AA00006F0B8FF224800680A2190FBF1F201FBF2
:104AB0001200C0B2014602901C2007F058F81C48B2
:104AC00000680A2190FBF1F0C0B2014602901E205E
:104AD00007F011F800BF00BF15E407F09EFA0521AA
:104AE000002006F0F2FF01220821022006F092FFCA
:104AF0000321022006F0E9FF0821042006F0CDFF83
:104B00000121172007F04BF807F03EFA094800682A
:104B1000012811D105211C2007F003F810E0000046
:104B2000C0020020BC020020B8020020C802002001
:104B3000CC020020D002002003211C2006F0F1FF4F
:104B4000049810B101282ED116E0FE48006848B93B
:104B50000120FC49086007F017FA05211C2006F027
:104B6000E0FF08E00020F749086007F00DFA032194
:104B70001C2006F0D6FF16E0F248006848B9012074
:104B8000F049086007F000FA05211C2006F0C9FF73
:104B900008E00020EB49086007F0F6F903211C202B
:104BA00006F0BFFF00BF00BF2AE407F036FA082175
:104BB000002006F08AFF01220821022006F02AFFC9
:104BC0000521022006F081FF0921042006F065FF7F
:104BD00007F0DAF9DC480068012808D10A211A2018
:104BE00006F09FFF00211C2006F085FF0BE0052149
:104BF0001A2006F096FF05211C2006F092FF0021E6
:104C00001E2006F078FF049810B1012846D122E05A
:104C1000CD48006868B90120CB49086007F0B4F9B5
:104C20000A211A2006F07DFF00211C2006F063FFF8
:104C300010E00020C449086007F0A6F905211A20F9
:104C400006F06FFF05211C2006F06BFF00211E20DF
:104C500006F051FF22E0BC48006868B90120BA495B
:104C6000086007F091F90A211A2006F05AFF002186
:104C70001C2006F040FF10E00020B349086007F058
:104C800083F905211A2006F04CFF05211C2006F0AF
:104C900048FF00211E2006F02EFF00BF00BFADE43C
:104CA00007F0BBF90121002006F0F7FE01220821E0
:104CB000022006F0AFFE0021022006F0EEFE0321E6
:104CC000042006F002FF07F05FF9A048006838B939
:104CD0000A211A2006F025FF00211C2006F00BFFF8
:104CE0009A48006801280BD105211A2006F019FF07
:104CF00005211C2006F015FF00211E2006F0FBFEFA
:104D0000049810B1012856D12AE090480068401E4E
:104D10008E49086008460068002801DA0120086012
:104D20008A48006848B907F02FF90A211A2006F0CE
:104D3000F8FE00211C2006F0DEFE844800680128F1
:104D40000DD107F021F905211A2006F0EAFE052110
:104D50001C2006F0E6FE00211E2006F0CCFE2AE014
:104D60007A480068401C79490860084600680128B4
:104D700001DD002008607548006848B907F004F9B3
:104D80000A211A2006F0CDFE00211C2006F0B3FEF9
:104D90006E48006801280DD107F0F6F805211A20A9
:104DA00006F0BFFE05211C2006F0BBFE00211E20E0
:104DB00006F0A1FE00BF00BF20E407F02EF902219B
:104DC000002006F06AFE01220821022006F022FEE1
:104DD0000021022006F061FE0321042006F075FE8A
:104DE00007F0D2F85A48006801280CD103211A2094
:104DF00006F097FE09211C2006F093FE03211E20D9
:104E000006F08FFE0BE000211A2006F08AFE082132
:104E10001C2006F086FE00211E2006F06CFE049881
:104E200010B101284ED126E04948006888B9012018
:104E30004749086007F0A8F803211A2006F071FE20
:104E400009211C2006F06DFE03211E2006F069FEDC
:104E500010E000203E49086007F096F800211A2073
:104E600006F05FFE08211C2006F05BFE00211E20DC
:104E700006F041FE26E03648006888B90120344932
:104E8000086007F081F803211A2006F04AFE092184
:104E90001C2006F046FE03211E2006F042FE10E014
:104EA00000202B49086007F06FF800211A2006F057
:104EB00038FE08211C2006F034FE00211E2006F0DA
:104EC0001AFE00BF00BFA2E407F0A7F803210020EC
:104ED00006F0E3FD01220821022006F09BFD0021DF
:104EE000022006F0DAFD0321042006F0EEFD07F0B3
:104EF0004BF8184800680A2190FBF1F201FB120000
:104F0000C0B2014602901A2006F0F5FD1148006873
:104F10000A2190FBF1F090FBF1F201FB1200C0B20C
:104F2000014602901C2006F0E6FD0A480068642154
:104F300090FBF1F0C0B2014602901E2006F0DBFDAE
:104F4000049809E0D0020020D4020020D8020020FA
:104F5000DC020020E002002010B101286CD135E015
:104F6000FE480068401EFD490860084600680128A8
:104F700002DA4FF41670086007F006F8F748006888
:104F80000A2190FBF1F201FB1200C0B2014602902F
:104F90001A2006F0B0FDF14800680A2190FBF1F0FC
:104FA00090FBF1F201FB1200C0B2014602901C20FE
:104FB00006F0A1FDE9480068642190FBF1F0C0B261
:104FC000014602901E2006F096FD35E0E348006899
:104FD000401CE249086008460068B0F5167F01DD14
:104FE0000120086006F0D0FFDC4800680A2190FB31
:104FF000F1F201FB1200C0B2014602901A2006F045
:105000007AFDD64800680A2190FBF1F090FBF1F29E
:1050100001FB1200C0B2014602901C2006F06BFD9D
:10502000CE480068642190FBF1F0C0B201460290C6
:105030001E2006F060FD00BF00BF9DE406F0EDFFFE
:105040000421002006F029FD01220821022006F09B
:10505000E1FC0021022006F020FD0321042006F0DF
:1050600034FD06F091FFBE4800680A2190FBF1F282
:1050700001FB1200C0B2014602901A2006F03BFD6F
:10508000B74800680A2190FBF1F090FBF1F201FBB8
:105090001200C0B2014602901C2006F02CFDB04860
:1050A0000068642190FBF1F0C0B2014602901E201E
:1050B00006F021FD049810B101286CD135E0A84814
:1050C0000068401EA649086008460068012802DA08
:1050D0004FF41670086006F057FFA14800680A21D7
:1050E00090FBF1F201FB1200C0B2014602901A20BF
:1050F00006F001FD9A4800680A2190FBF1F090FB50
:10510000F1F201FB1200C0B2014602901C2006F031
:10511000F2FC93480068642190FBF1F0C0B20146B4
:1051200002901E2006F0E7FC35E08D480068401C28
:105130008B49086008460068B0F5167F01DD012044
:10514000086006F021FF864800680A2190FBF1F212
:1051500001FB1200C0B2014602901A2006F0CBFCFF
:105160007F4800680A2190FBF1F090FBF1F201FB0F
:105170001200C0B2014602901C2006F0BCFC784828
:105180000068642190FBF1F0C0B2014602901E203D
:1051900006F0B1FC00BF00BF9EE406F03EFF052113
:1051A000002006F07AFC01220821022006F032FCE1
:1051B0000021022006F071FC0321042006F085FC8A
:1051C00006F0E2FE674800680A2190FBF1F201FB5D
:1051D0001200C0B2014602901A2006F08CFC04981E
:1051E00010B1012836D11AE05E480068401E5D49C2
:1051F000086008460068002801DA0120086006F00F
:10520000C3FE584800680A2190FBF1F201FB12002E
:10521000C0B2014602901A2006F06DFC1AE0514817
:105220000068401C4F49086008460068012801DDFD
:105230000020086006F0A8FE4A4800680A2190FB9A
:10524000F1F201FB1200C0B2014602901A2006F0F2
:1052500052FC00BF00BF3FE406F0DFFE0621002045
:1052600006F01BFC01220821022006F0D3FB0021DE
:10527000022006F012FC0321042006F026FC012186
:10528000172006F08CFC06F07FFE374800680A21E4
:1052900090FBF1F201FB1200C0B2014602901A200D
:1052A00006F029FC012211461C2006F0B3FB2E4813
:1052B00000680A2190FBF1F090FBF1F201FB120073
:1052C000C0B2014602901C2006F051FC264800683E
:1052D000642190FBF1F0C0B2014602901E2006F05E
:1052E0000AFC049810B101287DD142E01E480068F4
:1052F000401E1D49086008460068002801DA0020A9
:10530000086006F041FE184800680A2190FBF1F29F
:1053100001FB1200C0B2014602901A2006F0EBFB1E
:10532000012211461C2006F075FB0F4800680A2177
:1053300090FBF1F090FBF1F201FB1200C0B20146CC
:1053400002901C2006F013FC07480068642190FBC3
:10535000F1F0C0B2014602901E2007E0E0020020FA
:10536000E4020020F4020020F802002006F0C3FB53
:1053700039E0FB480068401CF949086008460068AD
:10538000782801DD7820086006F0FEFDF44800680A
:105390000A2190FBF1F201FB1200C0B2014602901B
:1053A0001A2006F0A8FB012211461C2006F032FB51
:1053B000EB4800680A2190FBF1F090FBF1F201FB51
:1053C0001200C0B2014602901C2006F0D0FBE44857
:1053D0000068642190FBF1F0C0B2014602901E20EB
:1053E00006F089FB00BF00BF59E406F016FE072156
:1053F000002006F052FB01220821022006F00AFBE1
:105400000021022006F049FB0321042006F05DFB89
:10541000D44800680A2190FBF1F201FB1200C0B2EF
:105420000246012102901C2006F0F4FA06F0ACFDC1
:1054300000211A2006F09BFBCA4800680A2190FB55
:10544000F1F090FBF1F201FB1200C0B201460290B4
:105450001C2006F08CFBC3480068642190FBF1F02F
:10546000C0B2014602901E2006F045FB049810B120
:10547000012874D139E0BB480068401EB949086072
:1054800008460068002801DA0020086006F07CFD6C
:10549000B44800680A2190FBF1F201FB1200C0B28F
:1054A000014602901A2006F062FB012211461C20E0
:1054B00006F0B0FAAB4800680A2190FBF1F090FBCF
:1054C000F1F201FB1200C0B2014602901C2006F06E
:1054D0004EFBA4480068642190FBF1F0C0B2014685
:1054E00002901E2006F007FB39E09E480068401C31
:1054F0009C49086008460068642801DD6420086053
:1055000006F042FD974800680A2190FBF1F201FB8A
:105510001200C0B2014602901A2006F028FB0122B8
:1055200011461C2006F076FA8E4800680A2190FB8E
:10553000F1F090FBF1F201FB1200C0B201460290C3
:105540001C2006F014FB87480068642190FBF1F0F2
:10555000C0B2014602901E2006F0CDFA00BF00BF87
:105560002AE406F05AFD0821002006F096FA0122EE
:105570000821022006F04EFA0021022006F08DFAE2
:105580000321042006F0A1FA0121172006F007FBF1
:1055900006F0FAFC7448006800280ADA01220821A3
:1055A000072006F037FA7048006840426F490860EB
:1055B00008E06D4800686D49086000220821072056
:1055C00006F028FA00211A2006F095FA0122114669
:1055D0001C2006F01FFA654800680A2190FBF1F2D2
:1055E00001FB1200C0B2014602901C2006F0BFFA77
:1055F0005E4800680A2190FBF1F0C0B201460290BB
:105600001E2006F078FA049810B1012875D175E0D3
:105610005548006856490968884226DD06F0B4FC02
:105620005148006800280ADA01220821072006F004
:10563000F1F94D48006840424C49086008E04A488A
:1056400000684A49086000220821072006F0E2F9B4
:1056500008211A2006F065FA08211C2006F061FADC
:1056600006211E2006F05DFA47E03F480068401E14
:105670003D4908600846006810F1280F02DA6FF013
:105680002700086006F080FC3748006800280ADA26
:1056900001220821072006F0BDF933480068404286
:1056A0003249086008E0304800683049086000224C
:1056B0000821072006F0AEF900211A2006F01BFA97
:1056C000012211461C2006F0A5F9284800680A218D
:1056D00090FBF1F201FB1200C0B2014602901C20C7
:1056E00006F045FA214800680A2190FBF1F0C0B2AB
:1056F000014602901E2006F0FEF92EE01A480068CE
:10570000401C1949086008460068502801DD5020F7
:10571000086006F039FC00211A2006F0ECF901229D
:1057200011461C2006F076F9104800680A2190FB0B
:10573000F1F201FB1200C0B2014602901C2006F0FB
:1057400016FA0A4800680A2190FBF1F0C0B201463F
:1057500002901E2006F0CFF900BF00BF6DE40000EC
:10576000F802002000030020080300200C030020A2
:105770001003002006F051FC0921002006F08DF9ED
:1057800001220821022006F045F90021022006F03E
:1057900084F90321042006F098F90121172006F06E
:1057A000FEF906F0F1FBFE48006800280ADA012243
:1057B0000821072006F02EF9F94800684042F9490F
:1057C000086008E0F6480068F649086000220821F1
:1057D000072006F01FF900211A2006F08CF901229B
:1057E00011461C2006F016F9EE4800680A2190FBCD
:1057F000F1F201FB1200C0B2014602901C2006F03B
:10580000B6F9E84800680A2190FBF1F0C0B2014601
:1058100002901E2006F06FF9049810B1012875D18E
:1058200075E0E1480068DE490968884226DD06F037
:10583000ABFBDB48006800280ADA012208210720B8
:1058400006F0E8F8D64800684042D649086008E00B
:10585000D3480068D349086000220821072006F0D9
:10586000D9F808211A2006F05CF908211C2006F05E
:1058700058F906211E2006F054F947E0C848006890
:10588000401EC74908600846006810F1280F02DA78
:105890006FF02700086006F077FBC1480068002819
:1058A0000ADA01220821072006F0B4F8BC48006893
:1058B0004042BC49086008E0B9480068B94908603E
:1058C00000220821072006F0A5F800211A2006F082
:1058D00012F9012211461C2006F09CF8B14800681C
:1058E0000A2190FBF1F201FB1200C0B201460290C6
:1058F0001C2006F03CF9AB4800680A2190FBF1F04F
:10590000C0B2014602901E2006F0F5F82EE0A44831
:105910000068401CA249086008460068502801DD64
:105920005020086006F030FB00211A2006F0E3F852
:10593000012211461C2006F06DF89A4800680A21E1
:1059400090FBF1F201FB1200C0B2014602901C2054
:1059500006F00DF9934800680A2190FBF1F0C0B2FF
:10596000014602901E2006F0C6F800BF00BF13E4F7
:1059700006F053FB0021084606F08FF801220821AB
:10598000022006F047F80121022006F086F80321E4
:10599000042006F09AF806F0F7FA84480068002818
:1059A0000ADA01220821072006F034F87F4800684F
:1059B00040427F49086008E07C4800687C490860F4
:1059C00000220821072006F025F800211A2006F001
:1059D000CEF8012211461C2006F01CF8744800681D
:1059E0000A2190FBF1F201FB1200C0B201460290C5
:1059F0001C2006F0BCF86E4800680A2190FBF1F00C
:105A0000C0B2014602901E2006F075F8049810B14D
:105A1000012873D173E065480068664909688842C7
:105A200026DD06F0B1FA6148006800280ADA012292
:105A30000821072005F0EEFF5C48006840425C4901
:105A4000086008E0594800685949086000220821A8
:105A5000072005F0DFFF08211A2006F062F8082170
:105A60001C2006F05EF806211E2006F05AF845E0DC
:105A70004E480068401E4D490860084600680028EE
:105A800001DA0020086006F07FFA48480068002824
:105A90000ADA01220821072005F0BCFF434800680C
:105AA00040424349086008E04048006840490860B7
:105AB00000220821072005F0ADFF00211A2006F082
:105AC00056F8012211461C2005F0A4FF3848006852
:105AD0000A2190FBF1F201FB1200C0B201460290D4
