:020000040800F2
:1000000000110020E1EC0008830F0008850F0008B4
:10001000890F00088D0F0008910F000800000000F4
:10002000000000000000000000000000950F000824
:10003000970F000800000000990F00089B0F0008B0
:10004000FBEC0008FBEC0008FBEC000849CE0008C4
:10005000FBEC0008FBEC0008FBEC0008FBEC0008E4
:10006000FBEC0008FBEC0008FBEC0008FBEC0008D4
:10007000FBEC0008FBEC0008FBEC0008FBEC0008C4
:1000800089DB0008E9DB0008FBEC0008FBEC00085A
:10009000FBEC0008FBEC0008FBEC0008FBEC0008A4
:1000A000FBEC0008FBEC0008FBEC0008FBEC000894
:1000B000D9AC00085DAC0008090F0008FBEC000893
:1000C000FBEC0008FBEC0008FBEC0008FBEC000874
:1000D000FBEC0008750B00080F0B0008FBEC000898
:1000E000CBE00008FBEC0008FBEC0008FBEC000890
:1000F000FBEC0008FBEC0008FBEC0008FBEC000844
:10010000FBEC0008FBEC000851AD0008FBEC00081C
:10011000FBEC0008FBEC0008FBEC0008FBEC000823
:10012000FBEC0008FBEC0008FBEC0008FBEC000813
:1001300000F002F800F062F80AA090E8000C824497
:100140008344AAF10107DA4501D100F057F8AFF274
:10015000090EBAE80F0013F0010F18BFFB1A43F0A5
:100160000103184704270100242701000A444FF027
:10017000000C10F8013B13F0070408BF10F8014B06
:100180001D1108BF10F8015B641E05D010F8016B4B
:10019000641E01F8016BF9D113F0080F1EBF10F8AF
:1001A000014BAD1C0C1B09D16D1E58BF01F801CBD2
:1001B000FAD505E014F8016B01F8016B6D1EF9D555
:1001C0009142D6D37047000000230024002500266A
:1001D000103A28BF78C1FBD8520728BF30C148BFAA
:1001E0000B607047642911F09581732911F05B82CF
:1001F000002070471FB51FBD10B510BD11F05CFA8F
:100200001146FFF7F7FF09F0F4FA11F07AFA03B498
:10021000FFF7F2FF03BC0EF0B1FC00000CB50020AC
:10022000019000906C48006840F480306A49086092
:1002300000BF6948006800F4003000900198401C3D
:100240000190009818B90198B0F5A06FF1D16248FB
:10025000006800F4003010B10120009001E000209F
:1002600000900098012843D15C48006840F01000DD
:100270005A4908600846006820F0030008600846F4
:10028000006840F0020008605348406852494860E6
:100290000846406848600846406840F4806048600E
:1002A0000846406820F47C1048600846406840F4E6
:1002B000E81048600846006840F08070086000BFA1
:1002C0004548006800F000700028F9D042484068B6
:1002D00020F00300404948600846406840F00200B2
:1002E000486000BF3C48406800F00C000828F9D185
:1002F0000CBD10B5FFF792FF10BD10B53648006871
:1003000040F001003449086008464068344908401C
:100310003149486008460068324908402E49086063
:100320000846006820F4802008600846406820F4F1
:10033000FE0048604FF41F008860FFF7DAFF4FF0BF
:1003400000602949086010BD10B50021002000227E
:10035000214B5B6803F00C0121B1042906D0082968
:1003600028D107E0214B224C236027E01F4B204C73
:10037000236023E0184B5B6803F47010164B5B6836
:1003800003F48032022303EB904022B9194B43431C
:10039000174C23600DE0104B5B6803F4003323B16E
:1003A000144B4343124C236003E0104B4343104C67
:1003B000236003E00D4B0E4C236000BF00BF064BD3
:1003C0005B68C3F303130C4CE15C094B1B68CB4027
:1003D000074C236010BD00000010024000200240C6
:1003E0000000FFF8FFFFF6FE08ED00E000127A00C3
:1003F0000000002000093D000400002070B5024606
:100400000C46FF25FF2309E012F8010B80EA0501E5
:10041000FA48405C80EA0305F948435C201EA4F1D9
:100420000106F4B2F0D143EA052070BD10B50120F9
:10043000F4490870F4480FF033F9F4490870F448AF
:100440000078012856D00021F2480FF08BFE0021E1
:10045000F04810F01BF9F0480078A0B1EB480078A4
:10046000EE49097888420ED10020ED490870ED4927
:10047000087008460078401C0870E4480078EA4993
:10048000E84A12788854E448007860BBE448007871
:1004900048BBE4480078642813DADC480178E24A73
:1004A000E0480078401C1154DE480078401CDD49CB
:1004B000087008460078082815DB084600780870A0
:1004C00011E00120D6490870D1490870D54800785C
:1004D000D5490870D54800688078D5490968887082
:1004E0000020D04908700020CB4908700121C9487C
:1004F0000FF038FE10BD10B50120C2490870CD497B
:100500000870CD480FF0CCF8C0490870C04800789A
:10051000012856D00021BF480FF024FE0021BD481D
:1005200010F0B4F8BC480078A0B1B8480078BB49D6
:10053000097888420ED10020B9490870B94908707D
:1005400008460078401C0870B0480078B649B54AA3
:1005500012788854B048007860BBB148007848BB36
:10056000B0480078642813DAA8480178AE4AAD484C
:100570000078401C1154AB480078401CA949087011
:1005800008460078082815DB08460078087011E056
:100590000120A34908709E490870A2480078A2492A
:1005A0000870A24800688078A14909688870002016
:1005B0009C490870002098490870012195480FF067
:1005C000D1FD10BD10B59A4800689C490978405C7F
:1005D0009B490870084601788B480FF05DF89748F2
:1005E0000078401C954908709148006800780978A7
:1005F000884210DA0020864908708D490968087021
:100600008849087001208D490870002240F2266157
:100610007D480EF0E0FF10BD70B500257F480078E2
:100620008849087003204870874800788870874997
:100630008748006811F05CFF064611F0BDFE000A15
:100640008049C87081498248006811F051FF064610
:1006500011F0B2FE7B4908717E48006811F0ACFED3
:100660000121B1EBE03F07D17A4801684FF08F409C
:1006700012F046F87749086074497648006811F02E
:1006800037FF064611F098FE000A6E4948716F491F
:100690007048006811F02CFF064611F08DFE694984
:1006A000887169480088051F04E00021A81D654A7B
:1006B00011546D1E002DF8DC63480078C01CC1B2D7
:1006C0006048FFF79BFE044621125E4A5E480088A0
:1006D000C01C11545C480088001D14545A4800780E
:1006E000401D5D49087010465C490860012240F2D7
:1006F000277145480EF06FFF70BD70B50025474863
:10070000007850490870032048704F48007888707E
:100710005048006811F050FE0121B1EBE03F07D1D5
:100720004C4801684FF08F4011F0EAFF49490860DA
:1007300046494848006811F0DBFE064611F03CFED1
:10074000000A4049C87041494248006811F0D0FE93
:10075000064611F031FE3B4908713B480088851E72
:1007600004E00021281D374A11546D1E002DF8DCCD
:1007700035480078C01CC1B23248FFF73FFE04463E
:100780002112304A30480088C01C11542E4800887D
:10079000001D14542C480078401D2F490870104645
:1007A0002E490860012240F2277117480EF013FF0E
:1007B00070BD70B5002519480078224908700320E3
:1007C000487021480078887020492148006811F05D
:1007D0008FFE064611F0F0FD000A1A49C8701B4949
:1007E0001B48006811F084FE064611F0E5FD15492E
:1007F000087115480088851E37E00000660000205B
:10080000660100205D000020004400404C000020F4
:100810005C0000200008004048000020C0020020CA
:10082000490000204F000020C80400205400002090
:10083000580000205F0000200038014050000020D8
:100840004D000020C507002044000020000020418A
:10085000AC030020A803002098020020940200208E
:100860000021281DFD4A11546D1E002DF8DCFC48A6
:100870000078C01CC1B2F948FFF7C0FD0446211240
:10088000F64AF7480088C01C1154F5480088001D3E
:100890001454F3480078401DF24908701046F2499C
:1008A0000860012240F22771F0480EF094FE70BDFE
:1008B00010B50220EE490870EE4800884FF6FA7134
:1008C000884205DAEC48007810B900200DF081FA72
:1008D000E84800884FF6FA71884203DAE648007863
:1008E00001280ED101200DF074FA0120E2490870B0
:1008F000E04800884FF6FA71884202DB3220DD4979
:1009000008800A20DD49088008460288DC49D94869
:1009100000880DF03BFADB480078D0490870D848D1
:1009200000784870D64840788870D5488078C8707C
:10093000D348C0780871D24800794871D0484079CE
:100940008871CF488079C871CD48C0790872CC4889
:10095000007A4872CA48407A88720B20C1490870F0
:10096000C44800880A30C3490880084600880A2124
:1009700090FBF1F0C449098888420BDD3220BD4963
:1009800008800020C14908703220C1490880002039
:10099000C0490870B148B4490860012240F227718B
:1009A000B2480EF018FE10BD70B50025BA48008898
:1009B000B5490880B3480078A849087003204870FA
:1009C00002208870B0480088000AC870AE480078DD
:1009D00008710521A148FFF711FD044620129F4927
:1009E00048718C7107209F4908709C489E49086097
:1009F000012240F227719D480EF0EDFD70BD2DE9FA
:100A0000F04104460F460020A4490870A44800782D
:100A100000283BD12078401E255C4FF6FF7000EA8D
:100A200005252078205C05432078C01E205C8C4979
:100A30000880084600884FF6FF7101EA00208849C7
:100A400008802078801E205C098808434FF6FF71DB
:100A500001EA40008249088008460088202801DD1C
:100A6000202008802078801EC1B2601CFFF7C6FCE1
:100A7000064606218B48FFF7C1FC06462078801EFB
:100A8000C1B2601CFFF7BAFC064600E02E46AE423B
:100A900038D18348007808BBA07801281BD00328F0
:100AA0001AD1022180480EF048FA6D4800880428C7
:100AB00002D1FFF7B1FD0DE069480088022809D195
:100AC000207910B9FFF775FE04E02079012801D1E3
:100AD000FFF713FE01E000E000BF16E0E07840B150
:100AE00010280DD1022170480EF027FAFFF7E0FE22
:100AF00007E002216C480EF020FAFFF755FF00E0F6
:100B000000BF02E0002069490870BDE8F08110B51F
:100B100040F2244155480EF043FE01280DD15348C0
:100B20000EF0BEFD40F2244150480EF063FE01205D
:100B30005F49087000205F49087040F225514B481A
:100B40000EF02EFE012814D148480EF0A9FD5A4996
:100B5000087040F2255145480EF04CFE564800788A
:100B60005649544A1278885452480078401C5149DA
:100B7000087010BD70B586B000240226002500BFA5
:100B800004E0002003A90855601CC4B20A2CF8DB5D
:100B900040F225514A480EF003FE30B348480EF0AB
:100BA0007FFD4849087048480078F0B90846007849
:100BB000232802D100204549087042480178434863
:100BC00002780078401C414B1870414881543D48E0
:100BD00000780A2809D118460078801E3C49085C34
:100BE0000D2802D1012038490870374800780128C3
:100BF0007CD100203449087035484078012876D1EE
:100C000034480088022805DB0DF07AFD02212648D1
:100C10000EF095F92E4880782F4908702C48C0783E
:100C20002E4908702A4800792D49087028484079D3
:100C30002C4908702648C179807901EB00202A49A7
:100C400008802348C179807901EB00202049497947
:100C50001F4A1279CDE90021029049E0C507002022
:100C6000440000209802002094020020004400402C
:100C7000690300204600002060000020640000207E
:100C80006C060020C00200206200002068030020E3
:100C90009403002067030020880200205D000020EC
:100CA0005F000020C9040020000801405C00002013
:100CB0006C0200206D020020140000209406002029
:100CC0000038014066020020670200206802002010
:100CD0008006002080020020780200207902002097
:100CE0007A0200207B0200207C0200200AE10FE053
:100CF000AA48C3788278AAA1B24810F099FB0020D4
:100D0000B1490880B1490880B1490880B1490870EB
:100D1000A2484078022866D123208DF80C000220DA
:100D20008DF80D000D208DF814000A208DF81500A7
:100D300013241DE0A348005D2E280FD0A148005DBC
:100D400022280BD09F48005D03A9895D01EB81013A
:100D500000EB4100303803A9885501E0701CC6B291
:100D60009848005D2C2801D1264603E0601CC4B2DF
:100D70002A2CDFDD00BF701CC4B20FE09148005D7B
:100D80000D2808D08F48005D05EB850100EB410080
:100D9000303885B200E003E0601CC4B22A2CEDDDDF
:100DA00000BF2846E91705EB1161090A8DF81210FA
:100DB000E91705EB11610912A5EB0121C9B28DF804
:100DC000131000240DE003A8015D83480EF064FCBD
:100DD00000BF802180480EF0CDFC0028F9D0601CB7
:100DE000C4B20A2CEFDB6D484078032819D176484D
:100DF0000088022805DB0DF083FC022177480EF005
:100E00009EF86648C178807801EB0020744908603C
:100E100000206D4908806D4908806D4908806D4942
:100E200008705E484078042826D123208DF80C00F5
:100E300004208DF80D006A480088000A8DF80E0025
:100E4000674800788DF80F000D208DF810000A20FB
:100E50008DF8110000240DE003A8015D5E480EF03E
:100E60001BFC00BF80215C480EF084FC0028F9D0F8
:100E7000601CC4B2062CEFDB4848407805281ED120
:100E800051480088022801DB0DF067FD002406E0D0
:100E90004249A01C085C53490855601CC4B2524822
:100EA0000078001FA042F3DC00204E4908554F4B4C
:100EB0000A464FA1544810F0BBFA0DF02AFD3748FE
:100EC000407806281ED140480088022801DB0DF03A
:100ED00044FD002406E03149A01C085C4349085544
:100EE000601CC4B240480078001FA042F3DC002020
:100EF0003E4908550B463B4A3DA1434810F098FA3D
:100F00000DF007FD06B070BD10B501213F480FF090
:100F1000F2FB002834D001203D49087000213B48F5
:100F20000FF020F9002139480FF0B0FB01203949BA
:100F30000870394800783949087039480078D8B1C4
:100F400035480078042817DD0120364908703348F9
:100F50000079222803D03148C078102803D101201D
:100F60003149087002E000202F4908702F480168BD
:100F70002F480068FFF743FD012124480FF0CCFB08
:100F800010BD704700BFFEE700BFFEE700BFFEE7F1
:100F900000BFFEE77047704770477047800600202B
:100FA00041542B43495053544152543D22544350D1
:100FB000222C2225642E25642E25642E2564222CC5
:100FC00025640D00700A0020800200201804002013
:100FD0001A0400208202002000380140000801406D
:100FE000180000201C0000206802002030000020B3
:100FF00041542B43574A41503D222573222C222530
:1010000073220D0A00000000860400200008004042
:1010100048000020490000204F000020C8040020A4
:101020005D0000205C0000205F00002058000020D0
:1010300054000020002100E0491C8142FCD370478D
:1010400010B5642910D2302202700A22B1FBF2F2EC
:10105000303242702E2242700A22B1FBF2F302FBC0
:1010600013123032827021E064291FD3B1F57A7FE8
:101070001CD26422B1FBF2F2303202706422B1FB66
:10108000F2F302FB13120A23B2FBF3F23032427086
:101090002E2282706422B1FBF2F302FB13120A23A8
:1010A000B2FBF3F403FB14223032C27010BD3EB524
:1010B0000C24F848048001200CF08BFE2246F649EF
:1010C00000200CF063FE64200DF02BFDF2488079C7
:1010D0000104F148C07901EB0031EF48007A01EBDF
:1010E0000020ED49497A0844EC490860EA48417912
:1010F000007901EB0020E849C978E74A9278CDE908
:1011000000210290E44843780278E5A1ED4810F010
:101110008FF9E248006842F21071B0FBF1F0EA4941
:101120000870DE48006842F21071B0FBF1F201FB7A
:1011300012004FF47A71B0FBF1F0E3494870D748E0
:1011400000684FF47A71B0FBF1F201FB12006421E8
:10115000B0FBF1F0DC498870D04800686421B0FB36
:10116000F1F201FB12000A21B0FBF1F0D649C87080
:10117000CA4800680A21B0FBF1F201FB1200D24913
:101180000871C548C17A807A01EB0020CF49086018
:101190003EBD10B5BF480480CD480078CD490870E9
:1011A000CD4800784870CD4800788870CC480078E9
:1011B000C870CC490888C11700EB1161090AC54AFB
:1011C0001171C8490888C11700EB11610912A0EB21
:1011D00001215171B1480068000C11468871AF4877
:1011E0000088C0F30330C871AC480088C0F3032006
:1011F0000872AA4800784872B4480088000A8872C9
:10120000B2480078C8720C2401200CF0E2FD22469E
:10121000B04900200CF0CBFD64200DF082FC10BD25
:1012200010B532249B48048000200CF0D2FD2246E9
:10123000994900200CF0AAFD64200DF072FC96483C
:101240000078A949087094484078A8490860A848DF
:10125000096850F82100A74908608F488078A6499E
:1012600008608D48C078A549086008460068502885
:1012700004DD08460068A0F58070086086480079A3
:101280009F49086008460068502804DD0846006849
:10129000A0F580700860804840799A4908607E48CF
:1012A0008079994908607C48C079984908607A48F3
:1012B000007A974908607848407A964908607648ED
:1012C000807A954908607448C07A944908607248E9
:1012D000007B934908607048407B924908606E48E3
:1012E000807B914908606C48C07B904908806A48BF
:1012F000007C097800EB01208C4908806648407C1E
:101300008B4908706448807C8A4908606248C07CC8
:10131000894908606048007D88490860084600687F
:10132000502804DD08460068A0F5807008605A481F
:10133000407D8349086008460068502804DD08465F
:101340000068A0F5807008605348807D7D49086082
:101350005148C07D7C4908604F48007E7B49086049
:1013600008460068642804DD08460068A0F580701F
:1013700008604948407E764908600846006864284D
:1013800004DD08460068A0F5807008604248807E51
:1013900018B14148807EFF2812D13F48C07E18B165
:1013A0003D48C07EFF280BD13B48007F18B13A482A
:1013B000007FFF2804D14FF4C8706649086011E02F
:1013C0003548807E3449C97E01EB810100EB410044
:1013D0003149097F01EBC10202EB011100EB8100F1
:1013E0005C4908602C48407F18B12B48407FFF289B
:1013F0001BD12948807F18B12748807FFF2814D14E
:101400002548C07F18B12448C07FFF280DD122484D
:1014100090F8200020B1204890F82000FF2804D147
:101420004FF4FA604C49086014E01B48407F1A49A9
:10143000897F0A2202FB01001749C97F642202FB4F
:101440000100154991F820104FF47A7202FB010057
:1014500041490860104890F8210020B10E4890F8EA
:101460002100FF287DD10C4890F8220020B10A48C5
:1014700090F82200FF2874D1074890F8230020B18B
:10148000054890F82300FF286BD14FF4C87033490A
:10149000086077E06403002029080020740200201F
:1014A00041542B43495053544152543D22544350CC
:1014B000222C2225642E25642E25642E2564222CC0
:1014C00025640D00700A00206E0200201800002024
:1014D00078020020F7070020790200207A0200201D
:1014E0007B0200207C020020C0020020C8020020F5
:1014F000CC020020C4020020E0020020E402002010
:10150000E8020020F4020020F8020020FC02002083
:101510000003002004030020080300200C03002027
:10152000100300201403002018030020940300205F
:1015300067030020240300202C0300203403002034
:101540003C030020440300204C03002054030020EF
:101550005C030020B8030020BC030020C00300206F
:10156000FFE7FE4890F82100FC4991F822100A227A
:1015700002FB0100F94991F82310642202FB0100EB
:10158000F7490860F54890F8240020B1F34890F836
:101590002400FF281FD1F14890F8250020B1EF4822
:1015A00090F82500FF2816D1EC4890F8260020B1CD
:1015B000EA4890F82600FF280DD1E84890F8270067
:1015C00020B1E64890F82700FF2804D14FF4FA60D4
:1015D000E449086017E0E14890F82400DF4991F8F9
:1015E00025100A2202FB0100DC4991F82610642232
:1015F00002FB0100D94991F827104FF47A7202FBDF
:101600000100D8490860D54890F8280020B1D34897
:1016100090F82800FF281FD1D04890F8290020B169
:10162000CE4890F82900FF2816D1CC4890F82A001F
:1016300020B1CA4890F82A00FF280DD1C74890F879
:101640002B0020B1C54890F82B00FF2804D14FF49F
:10165000FA60C549086017E0C04890F82800BF4903
:1016600091F829100A2202FB0100BC4991F82A10C6
:10167000642202FB0100B94991F82B104FF47A72F1
:1016800002FB0100B8490860B44890F82C0020B172
:10169000B24890F82C00FF281FD1B04890F82D00D8
:1016A00020B1AE4890F82D00FF2816D1AB4890F835
:1016B0002E0020B1A94890F82E00FF280DD1A74890
:1016C00090F82F0020B1A54890F82F00FF2804D1F2
:1016D0004FF4FA60A549086017E0A04890F82C0084
:1016E0009E4991F82D100A2202FB01009B4991F8B6
:1016F0002E10642202FB0100984991F82F104FF43C
:101700007A7202FB01009949086010BD10B5984833
:101710000480984800789849087098480078487084
:1017200097480078887097480078C8709648007885
:1017300008719648007848719548007888719548F6
:101740000078C8719448007808729448007848720C
:1017500093480078887293480078C872924800785D
:1017600008739248007848739148007888739148CC
:101770000088000AC8738F48007808748E48007883
:1017800048748E48007888748D480078C8748D48F5
:10179000007808758C48007848758C480078887502
:1017A0008B480078C8758B48007808768A4800789E
:1017B00048768A480068642190FBF1F201FB120030
:1017C0000A2190FBF1F201FB12006B4988768348F5
:1017D0000068642190FBF1F201FB12000A2190FBEA
:1017E000F1F06549C8767D480068642190FBF1F00E
:1017F000614908777A4800684FF47A7190FBF1F2FA
:1018000001FB1200642190FBF1F201FB12000A219E
:1018100090FBF1F201FB12005749487770480068CD
:101820004FF47A7190FBF1F201FB1200642190FBFE
:10183000F1F201FB12000A2190FBF1F04E4988778A
:10184000674800684FF47A7190FBF1F201FB1200D7
:10185000642190FBF1F04849C877614800684FF473
:101860007A7190FBF1F0444981F820003C4800680F
:10187000642190FBF1F201FB12000A2190FBF1F2CE
:1018800001FB12003C4981F82100354800686421C1
:1018900090FBF1F201FB12000A2190FBF1F03649B6
:1018A00081F822002E480068642190FBF1F0324953
:1018B00081F823002B4800684FF47A7190FBF1F215
:1018C00001FB1200642190FBF1F201FB12000A21DE
:1018D00090FBF1F201FB1200274981F82400214816
:1018E00000684FF47A7190FBF1F201FB1200642161
:1018F00090FBF1F201FB12000A2190FBF1F01E496E
:1019000081F82500174800684FF47A7190FBF1F2D6
:1019100001FB1200642190FBF1F0174981F82600C9
:10192000104800684FF47A7190FBF1F0124981F889
:1019300027000D4800684FF47A7190FBF1F201FB2B
:101940001200642190FBF1F201FB12000A2190FBCE
:10195000F1F201FB1200084944E0000029080020D0
:10196000C0030020C4030020C8030020CC030020D3
:1019700064030020C0020020F7070020C8020020F6
:10198000E0020020E4020020E8020020F40200202F
:10199000F8020020FC0200200003002004030020C5
:1019A000080300200C030020100300201403002073
:1019B0001803002094030020670300202403002064
:1019C0002C030020340300203C03002044030020AB
:1019D0004C030020540300205C030020B8030020C7
:1019E000BC03002081F82800FE4800684FF47A719B
:1019F00090FBF1F201FB1200642190FBF1F201FB7C
:101A000012000A2190FBF1F0F74981F82900F5480E
:101A100000684FF47A7190FBF1F201FB120064212F
:101A200090FBF1F0F04981F82A00EE4800684FF48D
:101A30007A7190FBF1F0EC4981F82B00EB480068DB
:101A40004FF47A7190FBF1F201FB1200642190FBDC
:101A5000F1F201FB12000A2190FBF1F201FB1200EE
:101A6000E14981F82C00E14800684FF47A7190FB5D
:101A7000F1F201FB1200642190FBF1F201FB120074
:101A80000A2190FBF1F0D84981F82D00D748006871
:101A90004FF47A7190FBF1F201FB1200642190FB8C
:101AA000F1F0D14981F82E00D04800684FF47A71E6
:101AB00090FBF1F0CC4981F82F00322400200CF08B
:101AC00088F92246C84900200CF071F964200DF015
:101AD00028F810BD08B5012114200DF03DFC4FF48D
:101AE0008060ADF8000010208DF8030003208DF811
:101AF00002006946BE480DF073F94FF48061BC489E
:101B00000DF01BFA0220ADF8000010208DF8030044
:101B100003208DF802006946B6480DF061F90221F4
:101B2000B4480DF00AFA2020ADF800006946B1482B
:101B30000DF056F92021AF480DF001FA1020ADF854
:101B400000006946AB480DF04BF91021A9480DF093
:101B5000F4F908BD08B5012104200DF0FDFB40207B
:101B6000ADF8000010208DF8030003208DF802006E
:101B70006946A0480DF034F908BD10B5044640216F
:101B80009C480DF0DAF9A0B20CF0CBFF4021994847
:101B90000DF0D5F910BD03B583B003981A2882F073
:101BA0000184DFE810F01A001C00DB00D2014F02B4
:101BB0007803D0097B045105B00ADC0FE610150646
:101BC0007006EB0683070A08B9087109930BAE0C7F
:101BD000D50DD20EFA11A113E91302F0E3BB0AF0FE
:101BE00046FB002108460AF0A4F801220821022041
:101BF0000AF044F8012102200AF083F801210420B0
:101C00000AF07FF80AF0F4FA7B480078642190FB30
:101C1000F1F201FB12000A2190FBF1F201FB12002C
:101C2000C0B2014602901A200AF099F87248007872
:101C3000642190FBF1F201FB12000A2190FBF1F00C
:101C4000C0B2014602901C200AF089F86A48007868
:101C5000642190FBF1F0C0B2014602901E200AF010
:101C60007EF8049810B1012876D13AE062480078F5
:101C7000401E6149087008460078012801DAFE20FC
:101C800008700AF0B5FA5C480078642190FBF1F224
:101C900001FB12000A2190FBF1F201FB1200C0B21D
:101CA000014602901A200AF05AF85348007864213D
:101CB00090FBF1F201FB12000A2190FBF1F0C0B29F
:101CC000014602901C200AF04AF84B480078642133
:101CD00090FBF1F0C0B2014602901E200AF03FF8DE
:101CE0003AE045480078401C4349087008460078AF
:101CF000FE2801DD012008700AF07AFA3E480078DB
:101D0000642190FBF1F201FB12000A2190FBF1F239
:101D100001FB1200C0B2014602901A200AF01FF81F
:101D200035480078642190FBF1F201FB12000A2192
:101D300090FBF1F0C0B2014602901C200AF00FF8AF
:101D40002D480078642190FBF1F0C0B2014602906A
:101D50001E200AF004F800BF00BF3EE70AF087FA31
:101D60000221002009F0E5FF01220821022009F0EC
:101D700085FF01220821022009F0BEFE0121022078
:101D800009F0D7FF0221042009F0BBFF0AF030FA66
:101D90001A481B49096850F821001A49086008468A
:101DA0000068642190FBF1F00A2190FBF1F201FB45
:101DB0001200C0B2014602901A2009F0D0FF11486B
:101DC0000068642190FBF1F00A2190FBF1F090FB98
:101DD000F1F201FB1200C0B2014602901C2009F092
:101DE000BEFF11E0C8030020F7070020CC0300204D
:101DF0000010014000080140C0020020CC02002079
:101E0000C8020020C4020020F748006842F21071A6
:101E100090FBF1F0C0B2014602901E2009F09FFF36
:101E2000049810B1012846D146E0F0480068401EF1
:101E3000EE49086008460068002801DA04200860BE
:101E4000EB48EA49096850F82100E749086008466C
:101E500000680CF0A2FE0AF0CBF9E34800686421A8
:101E600090FBF1F00A2190FBF1F201FB1200C0B2ED
:101E7000014602901A2009F072FFDB4800686421D5
:101E800090FBF1F00A2190FBF1F090FBF1F201FBE5
:101E90001200C0B2014602901C2009F060FFD24837
:101EA000006842F2107190FBF1F0C0B2014602905E
:101EB0001E2009F054FF46E0CC480068401CCB4986
:101EC000086008460068042801DD00200860C84852
:101ED000C649096850F82100C349086008460068EF
:101EE0000CF05BFE0AF084F9BF480068642190FBA7
:101EF000F1F00A2190FBF1F201FB1200C0B20146A1
:101F000002901A2009F02BFFB7480068642190FB6B
:101F1000F1F00A2190FBF1F090FBF1F201FB1200CD
:101F2000C0B2014602901C2009F019FFAE480068BB
:101F300042F2107190FBF1F0C0B2014602901E20F7
:101F400009F00DFF00BF00BF47E60AF090F9082135
:101F5000002009F0EEFE01220821022009F08EFE89
:101F60000721022009F0E5FE0321042009F0C9FE43
:101F7000A048006801280AD10AF03AF90A211A207B
:101F800009F003FF00211C2009F0E9FE0DE00AF032
:101F90002FF905211A2009F0F8FE05211C2009F06F
:101FA000F4FE00211E2009F0DAFE049810B1012889
:101FB00046D122E08F48006868B901208D49086049
:101FC0000AF016F90A211A2009F0DFFE00211C2070
:101FD00009F0C5FE10E00020864908600AF008F903
:101FE00005211A2009F0D1FE05211C2009F0CDFEA3
:101FF00000211E2009F0B3FE22E07E48006868B987
:1020000001207C4908600AF0F3F80A211A2009F03F
:10201000BCFE00211C2009F0A2FE10E00020754942
:1020200008600AF0E5F805211A2009F0AEFE052146
:102030001C2009F0AAFE00211E2009F090FE00BF1E
:1020400000BFCAE50AF013F90B21002009F071FE68
:1020500001220821022009F011FE0321022009F0CB
:1020600068FE0421084609F04CFE0121172009F002
:10207000CAFE0AF0BDF86048006800280ADA0122AA
:102080000821072009F0FAFD5B48006840425B49DF
:10209000086008E058480068584908600022082194
:1020A000072009F0EBFD00211A2009F058FE01225B
:1020B00011461C2009F0E2FD504800680A2190FBFF
:1020C000F1F201FB1200C0B2014602901C2009F09F
:1020D00082FE4A4800680A2190FBF1F0C0B2014636
:1020E00002901E2009F03BFE049810B101287AD11D
:1020F00088E0434800684049096888422BDB0AF0C1
:1021000077F83D48006800280ADA012208210720F4
:1021100009F0B4FD3848006840423849086008E0DA
:10212000354800683549086000220821072009F079
:10213000A5FD00220821072009F0A0FD08211A2092
:1021400009F023FE08211C2009F01FFE06211E2095
:1021500009F01BFE47E028480068401E2649086039
:102160000846006810F1280F02DA6FF027000860B7
:102170000AF03EF82048006800280ADA0122082107
:10218000072009F07BFD1C48006840421B4908609D
:1021900008E0194800681949086000220821072052
:1021A00009F06CFD00211A2009F0D9FD0122114629
:1021B0001C2009F063FD114800680A2190FBF1F230
:1021C00001FB1200C0B2014602901C2009F003FE80
:1021D0000A4800680A2190FBF1F0C0B20146029063
:1021E0001E2009F0BCFD54E0C4020020C8020020FB
:1021F000CC020020E0020020E4020020F0020020D7
:10220000E8020020FE480068401CFD4908600846BE
:102210000068502801DD5020086009F0E9FFF84807
:10222000006800280ADA01220821072009F026FDAB
:10223000F34800684042F349086008E0F04800684D
:10224000F049086000220821072009F017FD00214D
:102250001A2009F084FD012211461C2009F00EFD10
:10226000E84800680A2190FBF1F201FB1200C0B2BD
:10227000014602901C2009F0AEFDE24800680A21E8
:1022800090FBF1F0C0B2014602901E2009F067FDFC
:1022900000BF00BFA1E409F0EAFF0421002009F01B
:1022A00048FD01220821022009F0E8FC0321022058
:1022B00009F03FFD0421084609F023FD0121172004
:1022C00009F0A1FD09F094FFCF48006800280ADA60
:1022D00001220821072009F0D1FCCB4800684042C8
:1022E000CA49086008E0C8480068C8490860002278
:1022F0000821072009F0C2FC00211A2009F02FFD57
:10230000012211461C2009F0B9FCC04800680A21CE
:1023100090FBF1F201FB1200C0B2014602901C20BA
:1023200009F059FDB94800680A2190FBF1F0C0B2EC
:10233000014602901E2009F012FD049810B10128F8
:1023400048D148E0B0480068401EAF4908600846E0
:10235000006810F1280F02DA6FF02700086009F01A
:1023600047FFA948006800280ADA0122082107204F
:1023700009F084FCA44800684042A449086008E0D1
:10238000A1480068A149086000220821072009F03F
:1023900075FC00211A2009F0E2FC012211461C20E4
:1023A00009F06CFC994800680A2190FBF1F201FBEE
:1023B0001200C0B2014602901C2009F00CFD9348A7
:1023C00000680A2190FBF1F0C0B2014602901E2085
:1023D00009F0C5FC60E08C480068894909688842BA
:1023E00013DB09F005FF00220821072009F046FC55
:1023F00008211A2009F0C9FC08211C2009F0C5FC9D
:1024000006211E2009F0C1FC45E07F480068401C01
:102410007D49086008460068502801DD50200860AA
:1024200009F0E6FE7848006800280ADA012208214F
:10243000072009F023FC7448006840427349086093
:1024400008E07148006871490860002208210720EF
:1024500009F014FC00211A2009F081FC0122114628
:102460001C2009F00BFC694800680A2190FBF1F27E
:1024700001FB1200C0B2014602901C2009F0ABFC27
:10248000624800680A2190FBF1F0C0B20146029058
:102490001E2009F064FC00BF00BF5EE4002208219A
:1024A000072009F0EBFB09F0E2FE0B21002009F008
:1024B00040FC01220821022009F0E0FB0B21022050
:1024C00009F037FC0421084609F01BFC09F090FED6
:1024D00000220821072009F0D1FB00211A2009F071
:1024E0007AFC012211461C2009F0C8FB484800680C
:1024F0000A2190FBF1F201FB1200C0B201460290EA
:102500001C2009F068FC424800680A2190FBF1F0A9
:10251000C0B2014602901E2009F021FC049810B1BF
:1025200001284DD14DE03A4800683A49096888428F
:1025300013DC09F05DFE00220821072009F09EFB54
:1025400008211A2009F021FC08211C2009F01DFC9B
:1025500006211E2009F019FC32E02D480068401EBB
:102560002B49086008460068002801DA012008604D
:1025700009F03EFE00220821072009F07FFB002120
:102580001A2009F028FC012211461C2009F076FBD4
:102590001F4800680A2190FBF1F201FB1200C0B253
:1025A000014602901C2009F016FC194800680A2117
:1025B00090FBF1F0C0B2014602901E2009F0CFFB63
:1025C00040E013480068401C114908600846006854
:1025D000632801DD6320086009F00AFE002208215B
:1025E000072009F04BFB00211A2009F0F4FB01221F
:1025F00011461C2009F042FB054800680A210BE047
:10260000E4020020F0020020E8020020EC0200209A
:10261000F4020020F802002090FBF1F201FB12000E
:10262000C0B2014602901C2009F0D5FBFE480068AC
:102630000A2190FBF1F0C0B2014602901E2009F081
:102640008EFB00BF00BF7FE409F011FE04210020D3
:1026500009F06FFB01220821022009F00FFB0B217A
:10266000022009F066FB0421084609F04AFB09F044
:10267000BFFD00220821072009F000FB00211A20DD
:1026800009F0A9FB012211461C2009F0F7FAE748DE
:1026900000680A2190FBF1F201FB1200C0B2014672
:1026A00002901C2009F097FBE04800680A2190FB8B
:1026B000F1F0C0B2014602901E2009F050FB0498D0
:1026C00010B1012833D133E0D8480068401ED74903
:1026D000086008460068002801DA0020086009F058
:1026E00087FD00220821072009F0C8FA00211A20DE
:1026F00009F071FB012211461C2009F0BFFACB48FA
:1027000000680A2190FBF1F201FB1200C0B2014601
:1027100002901C2009F05FFBC44800680A2190FB6E
:10272000F1F0C0B2014602901E2009F018FB4DE006
:10273000BD480068BD490968884213DC09F058FDAE
:1027400000220821072009F099FA08211A2009F02F
:102750001CFB08211C2009F018FB06211E2009F093
:1027600014FB32E0B1480068401CB04908600846DC
:102770000068632801DD6320086009F039FD00224C
:102780000821072009F07AFA00211A2009F023FB1A
:10279000012211461C2009F071FAA44800680A21A0
:1027A00090FBF1F201FB1200C0B2014602901C2026
:1027B00009F011FB9D4800680A2190FBF1F0C0B2BE
:1027C000014602901E2009F0CAFA00BF00BF38E49B
:1027D00009F04DFD0521002009F0ABFA0122082186
:1027E000022009F04BFA0321022009F0A2FA062187
:1027F000042009F086FA0121172009F004FB09F0F2
:10280000F7FC8B480068012804D105211C2009F041
:10281000BCFA03E003211C2009F0B7FA049810B1B8
:1028200001282ED116E08248006848B9012080496D
:10283000086009F0DDFC05211C2009F0A6FA08E07B
:1028400000207B49086009F0D3FC03211C2009F01B
:102850009CFA16E07648006848B90120744908607F
:1028600009F0C6FC05211C2009F08FFA08E00020C1
:102870006F49086009F0BCFC03211C2009F085FAAF
:1028800000BF00BF06E509F0F2FC0821002009F0B6
:1028900050FA01220821022009F0F0F90521022056
:1028A00009F047FA0721042009F02BFA09F0A0FCEF
:1028B00060480068012808D10A211A2009F065FA49
:1028C00000211C2009F04BFA0BE005211A2009F029
:1028D0005CFA05211C2009F058FA00211E2009F09D
:1028E0003EFA049810B1012846D122E05148006810
:1028F00068B901204F49086009F07AFC0A211A20C2
:1029000009F043FA00211C2009F029FA10E0002008
:102910004849086009F06CFC05211A2009F035FAD5
:1029200005211C2009F031FA00211E2009F017FAB8
:1029300022E04048006868B901203E49086009F07B
:1029400057FC0A211A2009F020FA00211C2009F066
:1029500006FA10E000203749086009F049FC05211B
:102960001A2009F012FA05211C2009F00EFA0021A4
:102970001E2009F0F4F900BF00BF8BE409F077FCDA
:102980000121002009F0BDF901220821022009F0EF
:1029900075F90321022009F0CCF90821042009F07F
:1029A000B0F909F025FC2448006838B90A211A203A
:1029B00009F0EBF900211C2009F0D1F91E4800684C
:1029C00001280BD105211A2009F0DFF905211C206F
:1029D00009F0DBF900211E2009F0C1F9049810B1BB
:1029E000012861D135E014480068401E1249086092
:1029F00008460068002801DA012008600E480068D7
:102A000048B909F0F5FB0A211A2009F0BEF90021A6
:102A10001C2009F0A4F908480068012818D109F021
:102A2000E7FB05211A2009E0F4020020F80200204B
:102A3000FC020020000300200403002009F0A5F997
:102A400005211C2009F0A1F900211E2009F087F9B9
:102A50002AE0FE480068401CFC49086008460068FF
:102A6000012801DD00200860F848006848B909F035
:102A7000BFFB0A211A2009F088F900211C2009F067
:102A80006EF9F248006801280DD109F0B1FB05216B
:102A90001A2009F07AF905211C2009F076F90021A5
:102AA0001E2009F05CF900BF00BFF6E409F0DFFB6F
:102AB0000221002009F025F901220821022009F055
:102AC000DDF80321022009F034F90821042009F07F
:102AD00018F909F08DFBDE48006801280CD10321AC
:102AE0001A2009F052F909211C2009F04EF903219E
:102AF0001E2009F04AF90BE000211A2009F045F9DF
:102B000008211C2009F041F900211E2009F027F9B5
:102B1000049810B101284ED126E0CD48006888B94C
:102B20000120CB49086009F063FB03211A2009F05A
:102B30002CF909211C2009F028F903211E2009F095
:102B400024F910E00020C249086009F051FB00217F
:102B50001A2009F01AF908211C2009F016F90021A1
:102B60001E2009F0FCF826E0B948006888B9012069
:102B7000B749086009F03CFB03211A2009F005F968
:102B800009211C2009F001F903211E2009F0FDF89C
:102B900010E00020AE49086009F02AFB00211A204D
:102BA00009F0F3F808211C2009F0EFF800211E209D
:102BB00009F0D5F800BF00BF6FE409F058FB03210E
:102BC000002009F09EF801220821022009F056F8A1
:102BD0000321022009F0ADF80821042009F091F842
:102BE00009F006FB9B4800680A2190FBF1F201FB0B
:102BF0001200C0B2014602901A2009F0B0F89548C0
:102C000000680A2190FBF1F090FBF1F201FB120049
:102C1000C0B2014602901C2009F0A1F88D4800685E
:102C2000642190FBF1F0C0B2014602901E2009F031
:102C300096F8049810B101286CD135E085480068F9
:102C4000401E8449086008460068012802DA4FF4F3
:102C50001670086009F0CCFA7E4800680A2190FBE3
:102C6000F1F201FB1200C0B2014602901A2009F0F5
:102C700076F8784800680A2190FBF1F090FBF1F2B9
:102C800001FB1200C0B2014602901C2009F067F857
:102C900070480068642190FBF1F0C0B201460290D8
:102CA0001E2009F05CF835E06A480068401C69495C
:102CB000086008460068B0F5167F01DD0120086055
:102CC00009F096FA634800680A2190FBF1F201FBD3
:102CD0001200C0B2014602901A2009F040F85D4887
:102CE00000680A2190FBF1F090FBF1F201FB120069
:102CF000C0B2014602901C2009F031F85548006826
:102D0000642190FBF1F0C0B2014602901E2009F050
:102D100026F800BF00BF96E409F0A9FA04210020BC
:102D200008F0EFFF01220821022008F0A7FF03218D
:102D3000022008F0FEFF0821042008F0E2FF09F05D
:102D400057FA454800680A2190FBF1F201FB120096
:102D5000C0B2014602901A2009F001F83E4800680E
:102D60000A2190FBF1F090FBF1F201FB1200C0B2DE
:102D7000014602901C2008F0F2FF374800686421E9
:102D800090FBF1F0C0B2014602901E2008F0E7FF70
:102D9000049810B1012875D135E02F480068401E15
:102DA0002D49086008460068012802DA4FF41670C1
:102DB000086009F01DFA284800680A2190FBF1F22A
:102DC00001FB1200C0B2014602901A2008F0C7FFB2
:102DD000214800680A2190FBF1F090FBF1F201FB21
:102DE0001200C0B2014602901C2008F0B8FF1A4839
:102DF0000068642190FBF1F0C0B2014602901E20F1
:102E000008F0ADFF3EE014480068401C124908601D
:102E100008460068B0F5167F01DD0120086009F062
:102E2000E7F90D4800680A2190FBF1F201FB12005E
:102E3000C0B2014602901A2008F091FF06480068CF
:102E40000A2190FBF1F090FBF1F207E0040300206F
:102E5000080300200C0300201003002001FB1200D7
:102E6000C0B2014602901C2008F079FFFE480068BD
:102E7000642190FBF1F0C0B2014602901E2008F0E0
:102E80006EFF00BF00BFA2E409F0F1F905210020A8
:102E900008F037FF01220821022008F0EFFE03218D
:102EA000022008F046FF0821042008F02AFF09F05C
:102EB0009FF9EE4800680A2190FBF1F201FB120035
:102EC000C0B2014602901A2008F049FF049810B1E0
:102ED000012836D11AE0E5480068401EE349086041
:102EE00008460068002801DA0120086009F080F92E
:102EF000DE4800680A2190FBF1F201FB1200C0B22B
:102F0000014602901A2008F02AFF1AE0D74800680C
:102F1000401CD649086008460068012801DD0020F1
:102F2000086009F065F9D14800680A2190FBF1F2C8
:102F300001FB1200C0B2014602901A2008F00FFFF8
:102F400000BF00BF43E409F092F9002208210720E6
:102F500008F094FE002208210A2008F08FFE0021CC
:102F6000084608F0E6FE01220821022008F086FE4D
:102F70000321022008F0DDFE0421084608F0C1FE0E
:102F80000121172008F03FFF09F032F9B848006826
:102F90000A2190FBF1F201FB1200C0B2014602903F
:102FA0001A2008F0DCFE012211461C2008F066FE03
:102FB000AF4800680A2190FBF1F090FBF1F201FBB1
:102FC0001200C0B2014602901C2008F004FFA8487D
:102FD0000068642190FBF1F0C0B2014602901E200F
:102FE00008F0BDFE049810B1012839D139E0A0489D
:102FF0000068401E9E49086008460068002801DA03
:103000000020086009F0F4F8994800680A2190FB54
:10301000F1F201FB1200C0B2014602901A2008F042
:103020009EFE012211461C2008F028FE90480068F0
:103030000A2190FBF1F090FBF1F201FB1200C0B20B
:10304000014602901C2008F0C6FE894800686421F1
:1030500090FBF1F0C0B2014602901E2008F07FFE06
:103060004FE083480068401C81490860814800683F
:1030700081490968401A032190FBF1F000EB8000C0
:103080007B490968B1EB400F0CDD7A4800687A494A
:103090000968401A032190FBF1F000EB800040002A
:1030A0007349086009F0A4F8714800680A2190FB90
:1030B000F1F201FB1200C0B2014602901A2008F0A2
:1030C0004EFE012211461C2008F0D8FD6848006819
:1030D0000A2190FBF1F090FBF1F201FB1200C0B26B
:1030E000014602901C2008F076FE614800686421C9
:1030F00090FBF1F0C0B2014602901E2008F02FFEB6
:1031000000BF00BF39E409F0B2F80021084608F01A
:1031100010FE01220821022008F0B0FD0B21022040
:1031200008F007FE0421084608F0EBFD534800684C
:103130000A2190FBF1F201FB1200C0B2024601210C
:1031400002901C2008F09AFD09F052F800211A2084
:1031500008F041FE494800680A2190FBF1F090FB1D
:10316000F1F201FB1200C0B2014602901C2008F0EF
:1031700032FE42480068642190FBF1F0C0B2014683
:1031800002901E2008F0EBFD049810B1012839D1FF
:1031900039E03A480068401E38490860084600682F
:1031A000002801DA0020086009F022F8334800689E
:1031B0000A2190FBF1F201FB1200C0B2014602901D
:1031C0001A2008F008FE012211461C2008F056FDC6
:1031D0002A4800680A2190FBF1F090FBF1F201FB14
:1031E0001200C0B2014602901C2008F0F4FD2348F2
:1031F0000068642190FBF1F0C0B2014602901E20ED
:1032000008F0ADFD60E01D480068401C1B490860E7
:103210001B4800681B490968401A032190FBF1F024
:1032200000EB800015490968B1EB400F0CDD144834
:10323000006814490968401A032190FBF1F000EB83
:10324000800040000D49086008F0D2FF0B4800687C
:103250000A2190FBF1F201FB1200C0B2014602907C
:103260001A2008F0B8FD0FE0100300202003002012
:1032700024030020E4020020E80200202C030020A8
:10328000F4020020F8020020012211461C2008F060
:10329000F5FCFE4800680A2190FBF1F090FBF1F28A
:1032A00001FB1200C0B2014602901C2008F093FD01
:1032B000F6480068642190FBF1F0C0B2014602902C
:1032C0001E2008F04CFD00BF00BF75E408F0CFFFE2
:1032D0000021084608F015FD01220821022008F00F
:1032E000CDFC0321022008F024FD0721042008F072
:1032F00020FD0121172008F086FD08F079FFE44841
:10330000006800280ADA01220821072008F0B6FC2C
:10331000DF4800684042DF49086008E0DC48006898
:10332000DC49086000220821072008F0A7FC0021E2
:103330001A2008F014FD012211461C2008F09EFC02
:10334000D44800680A2190FBF1F201FB1200C0B2E0
:10335000014602901C2008F03EFDCE4800680A217C
:1033600090FBF1F0C0B2014602901E2008F0F7FC7D
:10337000049810B1012848D148E0C5480068401EB3
:10338000C34908600846006810F1280F02DA6FF0A0
:103390002700086008F02CFFBD48006800280ADA02
:1033A00001220821072008F069FCB9480068404262
:1033B000B849086008E0B6480068B64908600022CD
:1033C0000821072008F05AFC00211A2008F0C7FC49
:1033D000012211461C2008F051FCAE4800680A2169
:1033E00090FBF1F201FB1200C0B2014602901C20DA
:1033F00008F0F1FCA74800680A2190FBF1F0C0B288
:10340000014602901E2008F0AAFC78E0A04800685F
:10341000A149096888422BDB08F0EAFE9C48006855
:1034200000280ADA01220821072008F027FC984822
:10343000006840429749086008E09548006895494F
:10344000086000220821072008F018FC002208214B
:10345000072008F013FC08211A2008F096FC082128
:103460001C2008F092FC06211E2008F08EFC45E08E
:1034700087480068401C8649086008460068502854
:1034800001DD5020086008F0B3FE81480068002884
:103490000ADA01220821072008F0F0FB7C480068C6
:1034A00040427C49086008E0794800687949086032
:1034B00000220821072008F0E1FB00211A2008F073
:1034C0004EFC012211461C2008F0D8FB7148006810
:1034D0000A2190FBF1F201FB1200C0B201460290FA
:1034E0001C2008F078FC6B4800680A2190FBF1F082
:1034F000C0B2014602901E2008F031FC00BF00BFA0
:1035000009E408F0B4FE0121002008F0FAFB0122D2
:103510000821022008F0B2FB0321022008F009FC78
:103520000721042008F005FC0121172008F06BFC9E
:1035300008F05EFE5848006800280ADA01220821D7
:10354000072008F09BFB544800684042534908603C
:1035500008E051480068514908600022082107200E
:1035600008F08CFB00211A2008F0F9FB012211461B
:103570001C2008F083FB494800680A2190FBF1F207
:1035800001FB1200C0B2014602901C2008F023FC8F
:10359000424800680A2190FBF1F0C0B20146029057
:1035A0001E2008F0DCFB049810B1012878D186E0D9
:1035B000374800683849096888422BDB08F018FE54
:1035C0003548006800280ADA01220821072008F09F
:1035D00055FB3148006840423049086008E02E48F9
:1035E00000682E49086000220821072008F046FBE9
:1035F00000220821072008F041FB08211A2008F0CA
:10360000C4FB08211C2008F0C0FB06211E2008F086
:10361000BCFB53E020480068401E1F490860084674
:10362000006810F1280F02DA6FF02700086008F038
:10363000DFFD1948006800280ADA01220821072066
:1036400008F01CFB1448006840421449086008E078
:10365000114800681149086000220821072008F07D
:103660000DFB00211A2008F07AFB012211461C20D4
:1036700008F004FB094800680A2190FBF1F201FB05
:103680001200C0B2014602901C200AE02C03002068
:1036900034030020380300203C03002040030020B6
:1036A00054E008F098FBFE4800680A2190FBF1F016
:1036B000C0B2014602901E2008F051FB46E0F948D6
:1036C0000068401CF749086008460068502801DD82
:1036D0005020086008F08CFDF248006800280ADAE3
:1036E00001220821072008F0C9FAEE48006840428C
:1036F000EB49086008E0EB480068E94908600022EF
:103700000821072008F0BAFA00211A2008F027FB48
:10371000012211461C2008F0B1FAE14800680A2194
:1037200090FBF1F201FB1200C0B2014602901C2096
:1037300008F051FBDA4800680A2190FBF1F0C0B2B2
:10374000014602901E2008F00AFB00BF00BFD9E42A
:1037500008F08DFD0021084608F0D3FA0122082167
:10376000022008F08BFA0B21022008F0E2FA072170
:10377000042008F0DEFA08F03BFDCB480068002882
:103780000ADA01220821072008F078FAC648006802
:103790004042C649086008E0C3480068C349086061
:1037A00000220821072008F069FA00211A2008F0F9
:1037B00012FB012211461C2008F060FABB48006889
:1037C0000A2190FBF1F201FB1200C0B20146029007
:1037D0001C2008F000FBB54800680A2190FBF1F0BE
:1037E000C0B2014602901E2008F0B9FA049810B148
:1037F000012846D146E0AC480068401EAA4908604E
:1038000008460068002801DA0020086008F0F0FC93
:10381000A548006800280ADA01220821072008F0DC
:103820002DFAA14800684042A049086008E09E487F
:1038300000689E49086000220821072008F01EFA4F
:1038400000211A2008F0C7FA012211461C2008F0B6
:1038500015FA964800680A2190FBF1F201FB12006C
:10386000C0B2014602901C2008F0B5FA8F480068EB
:103870000A2190FBF1F0C0B2014602901E2008F030
:103880006EFA60E08848006889490968884226DB4A
:1038900008F0AEFC8448006800280ADA01220821FA
:1038A000072008F0EBF98048006840427F49086033
:1038B00008E07D4800687D49086000220821072053
:1038C00008F0DCF908211A2008F05FFA08211C2012
:1038D00008F05BFA06211E2008F057FA33E0724820
:1038E0000068401C7049086008460068632801DDD4
:1038F0000920086008F07CFC00220821072008F05D
:10390000BDF900211A2008F066FA012211461C2098
:1039100008F0B4F9654800680A2190FBF1F201FB58
:103920001200C0B2014602901C2008F054FA5F4811
:1039300000680A2190FBF1F0C0B2014602901E20FF
:1039400008F00DFA00BF00BFBFE408F090FC0121B1
:10395000002008F0D6F901220821022008F08EF993
:103960000B21022008F0E5F90721042008F0E1F915
:1039700008F03EFC4E48006800280ADA01220821BF
:10398000072008F07BF94A4800684042494908602E
:1039900008E04748006847490860002208210720DE
:1039A00008F06CF900211A2008F015FA01221146DE
:1039B0001C2008F063F93F4800680A2190FBF1F2EF
:1039C00001FB1200C0B2014602901C2008F003FA6D
:1039D000384800680A2190FBF1F0C0B2014602901D
:1039E0001E2008F0BCF9049810B101286DD16DE0DB
:1039F0002D4800682E490968884213DB08F0F8FB5F
:103A000000220821072008F039F908211A2008F0BF
:103A1000BCF908211C2008F0B8F906211E2008F086
:103A2000B4F952E022480068401E21490860084667
:103A30000068002801DA0020086008F0D9FB1C4863
:103A4000006800280ADA01220821072008F016F988
:103A50001748006840421749086008E014480068A9
:103A60001449086000220821072008F007F9002106
:103A70001A2008F0B0F9012211461C2008F0FEF8C7
:103A80000C4800680A2190FBF1F201FB1200C0B261
:103A9000014602901C2008F09EF9064800680BE0E1
:103AA000400300203C030020440300204803002082
:103AB0004C030020500300200A2190FBF1F0C0B21B
:103AC000014602901E2008F04AF946E0FE480068D0
:103AD000401CFD49086008460068632801DD63203A
:103AE000086008F085FBF848006800280ADA01221F
:103AF0000821072008F0C2F8F34800684042F34963
:103B0000086008E0F0480068F049086000220821D9
:103B1000072008F0B3F800211A2008F05CF9012210
:103B200011461C2008F0AAF8E84800680A2190FB1A
:103B3000F1F201FB1200C0B2014602901C2008F015
:103B40004AF9E24800680A2190FBF1F0C0B2014650
:103B500002901E2008F003F900BF00BF1CE208F02D
:103B600086FB0021084608F0CCF80122082102203B
:103B700008F084F80321022008F0DBF80521042076
:103B800008F0BFF80121172008F03DF908F030FBDC
:103B9000CF48006800280ADA01220821072008F02F
:103BA0006DF8CB4800684042CA49086008E0C84840
:103BB0000068C849086000220821072008F05EF864
:103BC000C44800680A2190FBF1F201FB1200C0B268
:103BD000014602901A2008F0C2F8012211461C206A
:103BE00008F04CF8BB4800680A2190FBF1F090FB0C
:103BF000F1F201FB1200C0B2014602901C2008F055
:103C0000EAF8B4480068642190FBF1F0C0B20146C4
:103C100002901E2008F0A3F8049810B1012853D197
:103C200053E0AB480068401EA94908600846006898
:103C300010F1640F02DA6FF063000860A4480068B6
:103C400000280ADA01220821072008F017F8A04806
:103C5000006840429F49086008E09D4800689D490F
:103C6000086000220821072008F008F808F0C0FAD0
:103C7000984800680A2190FBF1F201FB1200C0B2E3
:103C8000014602901A2008F06AF8012211461C2011
:103C900007F0F4FF8F4800680A2190FBF1F090FBD9
:103CA000F1F201FB1200C0B2014602901C2008F0A4
:103CB00092F888480068642190FBF1F0C0B2014698
:103CC00002901E2008F04BF851E081480068401C2B
:103CD0007F49086008460068642801DD64200860A8
:103CE0007B48006800280ADA01220821072007F033
:103CF000C5FF7748006840427649086008E074488C
:103D000000687449086000220821072007F0B6FF08
:103D100008F06EFA6F4800680A2190FBF1F201FB8F
:103D20001200C0B2014602901A2008F018F80122D1
:103D300011461C2007F0A2FF664800680A2190FB8C
:103D4000F1F090FBF1F201FB1200C0B201460290CB
:103D50001C2008F040F85F480068642190FBF1F0F7
:103D6000C0B2014602901E2007F0F9FF00BF00BF5D
:103D700018E308F07CFA0021084607F0C2FF012290
:103D80000821022007F07AFF0B21022007F0D1FF63
:103D90000521042007F0B5FF08F02AFA4E48006814
:103DA00000280ADA01220821072007F067FF4A48A5
:103DB000006840424949086008E0474800684749B0
:103DC000086000220821072007F058FF43480068D8
:103DD0000A2190FBF1F201FB1200C0B201460290F1
:103DE0001A2007F0F8FF012211461C2007F046FFB9
:103DF0003A4800680A2190FBF1F090FBF1F201FBD8
:103E00001200C0B2014602901C2007F0E4FF3348C4
:103E10000068642190FBF1F0C0B2014602901E20C0
:103E200007F09DFF049810B1012861D161E02A4894
:103E30000068401E284908600846006810F1640FB9
:103E400002DA6FF0630008602348006800280ADA8D
:103E500001220821072007F011FF1F480068404297
:103E60001E49086008E01C4800681C4908600022E0
:103E70000821072007F002FF08F0BAF91748006888
:103E80000A2190FBF1F201FB1200C0B20146029040
:103E90001A2007F0A0FF012211461C2007F0EEFEB9
:103EA0000E4800680A2190FBF1F090FBF1F201FB53
:103EB0001200C0B2014602901C2007F08CFF074898
:103EC000006864210CE000004C0300205003002037
:103ED00054030020580300205C03002060030020EE
:103EE00090FBF1F0C0B2014602901E2007F037FFB0
:103EF00051E0F9480068401CF7490860084600682E
:103F0000642801DD64200860F348006800280ADAAC
:103F100001220821072007F0B1FEEF480068404267
:103F2000EE49086008E0EC480068EC4908600022AF
:103F30000821072007F0A2FE08F05AF9E7480068B8
:103F40000A2190FBF1F201FB1200C0B2014602907F
:103F50001A2007F040FF012211461C2007F08EFEB8
:103F6000DE4800680A2190FBF1F090FBF1F201FBC2
:103F70001200C0B2014602901C2007F02CFFD74867
:103F80000068642190FBF1F0C0B2014602901E204F
:103F900007F0E5FE00BF00BF04E208F068F9082161
:103FA000002007F0C6FE0721022007F0C2FE012113
:103FB000042007F0BEFE00220821072007F05EFE65
:103FC00008F016F94FF08041C54800680EF090FAED
:103FD0000290C44800680146019002980EF054FA1D
:103FE00008D201211C2007F0BAFE00211A2007F098
:103FF000B6FE70E14FF08041B94800680EF078FAE3
:104000000290B84840680146019002980EF03CFAD0
:1040100017D24FF08041B24800680EF069FA029062
:10402000B04800680146019002980EF02DFB08D8B8
:1040300002211C2007F093FE00211A2007F08FFEBA
:1040400049E14FF08041A64800680EF051FA029015
:10405000A44880680146019002980EF015FA17D224
:104060004FF080419E4800680EF042FA02909D4851
:1040700040680146019002980EF006FB08D8032123
:104080001C2007F06CFE00211A2007F068FE22E1D8
:104090004FF08041924800680EF02AFA0290914851
:1040A000C0680146019002980EF0EEF917D24FF069
:1040B00080418B4800680EF01BFA029089488068A6
:1040C0000146019002980EF0DFFA08D804211C2066
:1040D00007F045FE00211A2007F041FEFBE04FF0FB
:1040E00080417F4800680EF003FA02907D48006925
:1040F0000146019002980EF0C7F917D24FF08041A7
:10410000774800680EF0F4F902907648C0680146DE
:10411000019002980EF0B8FA08D805211C2007F08B
:104120001EFE00211A2007F01AFED4E04FF0804155
:104130006B4800680EF0DCF902906A48406901465D
:10414000019002980EF0A0F917D24FF08041644818
:1041500000680EF0CDF902906248006901460190B6
:1041600002980EF091FA08D806211C2007F0F7FDFE
:1041700000211A2007F0F3FDADE04FF080415848D0
:1041800000680EF0B5F9029056488069014601902A
:1041900002980EF079F917D24FF08041504800682C
:1041A0000EF0A6F902904F4840690146019002982E
:1041B0000EF06AFA08D807211C2007F0D0FD002174
:1041C0001A2007F0CCFD86E04FF08041444800689B
:1041D0000EF08EF902904348C069014601900298A2
:1041E0000EF052F917D24FF080413D4800680EF0B2
:1041F0007FF902903B4880690146019002980EF0D9
:1042000043FA08D808211C2007F0A9FD00211A2034
:1042100007F0A5FD5FE04FF08041314800680EF0E7
:1042200067F902902F48006A0146019002980EF04B
:104230002BF917D24FF08041294800680EF058F949
:1042400002902848C0690146019002980EF01CFABD
:1042500008D809211C2007F082FD00211A2007F050
:104260007EFD38E04FF080411D4800680EF040F9B7
:1042700002901C48406A0146019002980EF004F931
:104280000ED24FF08041164800680EF031F90290CE
:104290001448006A0146019002980EF0F5F90ED913
:1042A0004FF080410E4800680EF022F902900D4850
:1042B000406A0146019002980EF0E6F90BD8012100
:1042C0001E2007F04CFD00211C2007F048FD0021B6
:1042D0001A2007F044FD65E05C0300206003002025
:1042E000DC030020E803002007F0C1FF04210020C8
:1042F00007F01FFD0621022007F01BFD0521042009
:1043000007F0FFFC07F074FFFE48007801460290BA
:104310001A2007F024FD049810B101282AD114E0D6
:10432000F8480068401EF749086008460068012800
:1043300001DA0420086007F05BFFF24800780146CC
:1043400002901A2007F00BFD14E0EE480068401CB4
:10435000EC49086008460068042801DD0120086077
:1043600007F046FFE7480078014602901A2007F060
:10437000F6FC00BF00BF15E007F079FF0621022020
:1043800007F0BFFC0121042007F0BBFC07F030FF61
:104390000120DD4908600020DC4908600120DC497B
:1043A000086000BF00BF05B000BD03B583B003982F
:1043B0001A2882F02683DFE810F01A001C00DB00C8
:1043C000D0014D024B0356040B05BB0521069C068C
:1043D0002907B0076A0819097809410AFD0A060C7D
:1043E000040DFC0D010F0B101E11C6120E1302F06E
:1043F00008BB07F03CFF0021084607F09AFC0122A9
:104400000821022007F03AFC0121022007F079FC84
:104410000121042007F075FC07F0EAFEBD48007892
:10442000642190FBF1F201FB12000A2190FBF1F2F2
:1044300001FB1200C0B2014602901A2007F08FFC67
:10444000B4480078642190FBF1F201FB12000A21CC
:1044500090FBF1F0C0B2014602901C2007F07FFCF7
:10446000AC480078642190FBF1F0C0B201460290A4
:104470001E2007F074FC049810B1012876D13AE0B0
:10448000A4480078401EA349087008460078012817
:1044900001DAFE20087007F0ABFE9E480078642128
:1044A00090FBF1F201FB12000A2190FBF1F201FBFB
:1044B0001200C0B2014602901A2007F050FC954845
:1044C0000078642190FBF1F201FB12000A2190FBBD
:1044D000F1F0C0B2014602901C2007F040FC8D486C
:1044E0000078642190FBF1F0C0B2014602901E20DA
:1044F00007F035FC3AE087480078401C8549087091
:1045000008460078FE2801DD0120087007F070FEE3
:1045100080480078642190FBF1F201FB12000A212F
:1045200090FBF1F201FB1200C0B2014602901A208A
:1045300007F015FC77480078642190FBF1F201FB4D
:1045400012000A2190FBF1F0C0B2014602901C203B
:1045500007F005FC6F480078642190FBF1F0C0B2D1
:10456000014602901E2007F0FAFB00BF00BF3EE7A5
:1045700007F07DFE0221002007F0DBFB012208216D
:10458000022007F07BFB01220821022007F0B4FA89
:104590000121022007F0CDFB0221042007F0B1FB2E
:1045A00007F026FE5C485D49096850F821005C4927
:1045B000086008460068642190FBF1F00A2190FB36
:1045C000F1F201FB1200C0B2014602901A2007F07E
:1045D000C6FB53480068642190FBF1F00A2190FB70
:1045E000F1F090FBF1F201FB1200C0B20146029023
:1045F0001C2007F0B4FB4A48006842F2107190FB9F
:10460000F1F0C0B2014602901E2007F0A8FB04980A
:1046100010B1012846D146E040480068401E3F499D
:10462000086008460068002801DA042008603A485B
:104630003A49096850F8210039490860084600687D
:104640000AF0ABFA07F0D4FD35480068642190FB0E
:10465000F1F00A2190FBF1F201FB1200C0B2014619
:1046600002901A2007F07BFB2D480068642190FB24
:10467000F1F00A2190FBF1F090FBF1F201FB120046
:10468000C0B2014602901C2007F069FB2448006874
:1046900042F2107190FBF1F0C0B2014602901E2070
:1046A00007F05DFB57E01D480068401C1B4908608F
:1046B00008460068042801DD0020086016481749F4
:1046C000096850F8210016490860084600680AF099
:1046D00064FA07F08DFD12480068642190FBF1F048
:1046E0000A2190FBF1F201FB1200C0B201460290D8
:1046F0001A2007F034FB0A480068642190FBF1F0AF
:104700000A210FE01803002084030020700300201A
:104710008C030020C0020020CC020020C802002030
:10472000C402002090FBF1F090FBF1F201FB1200BB
:10473000C0B2014602901C2007F011FBFE48006841
:1047400042F2107190FBF1F0C0B2014602901E20BF
:1047500007F005FB00BF00BF49E607F088FD082110
:10476000002007F0E6FA01220821022007F086FA6D
:104770000721022007F0DDFA0321042007F0C1FA27
:10478000EE48006801280AD107F032FD0A211A20FC
:1047900007F0FBFA00211C2007F0E1FA0DE007F01A
:1047A00027FD05211A2007F0F0FA05211C2007F04B
:1047B000ECFA00211E2007F0D2FA049810B101286B
:1047C00046D122E0DD48006868B90120DB49086075
:1047D00007F00EFD0A211A2007F0D7FA00211C204D
:1047E00007F0BDFA10E00020D449086007F000FD92
:1047F00005211A2007F0C9FA05211C2007F0C5FA87
:1048000000211E2007F0ABFA22E0CC48006868B90E
:104810000120CA49086007F0EBFC0A211A2007F0C2
:10482000B4FA00211C2007F09AFA10E00020C349D6
:10483000086007F0DDFC05211A2007F0A6FA052123
:104840001C2007F0A2FA00211E2007F088FA00BF02
:1048500000BFCCE507F00BFD0B21002007F069FA43
:1048600001220821022007F009FA0321022007F0A3
:1048700060FA0421084607F044FA0121172007F0E6
:10488000C2FA07F0B5FCAE48006800280ADA012237
:104890000821072007F0F2F9A94800684042A94919
:1048A000086008E0A6480068A649086000220821C0
:1048B000072007F0E3F900211A2007F050FA01223F
:1048C00011461C2007F0DAF99E4800680A2190FB87
:1048D000F1F201FB1200C0B2014602901C2007F069
:1048E0007AFA984800680A2190FBF1F0C0B20146BC
:1048F00002901E2007F033FA049810B1012875D1F8
:1049000075E0914800688E490968884226DD07F005
:104910006FFC8B48006800280ADA01220821072072
:1049200007F0ACF98648006840428649086008E014
:10493000834800688349086000220821072007F0A7
:104940009DF908211A2007F020FA08211C2007F001
:104950001CFA06211E2007F018FA47E07848006884
:10496000401E774908600846006810F1280F02DAF7
:104970006FF02700086007F03BFC714800680028D2
:104980000ADA01220821072007F078F96C4800684C
:1049900040426C49086008E069480068694908605D
:1049A00000220821072007F069F900211A2007F0EA
:1049B000D6F9012211461C2007F060F96148006811
:1049C0000A2190FBF1F201FB1200C0B201460290F5
:1049D0001C2007F000FA5B4800680A2190FBF1F008
:1049E000C0B2014602901E2007F0B9F92EE05448EB
:1049F0000068401C5249086008460068502801DDE4
:104A00005020086007F0F4FB00211A2007F0A7F9F6
:104A1000012211461C2007F031F94A4800680A219A
:104A200090FBF1F201FB1200C0B2014602901C2083
:104A300007F0D1F9434800680A2190FBF1F0C0B2B9
:104A4000014602901E2007F08AF900BF00BFCEE4A5
:104A500007F00DFC0421002007F06BF9012208216A
:104A6000022007F00BF90321022007F062F905216B
:104A7000042007F046F90121172007F0C4F907F0D8
:104A8000B7FB3148006800280ADA01220821072014
:104A900007F0F4F82C48006840422C49086008E010
:104AA000294800682949086000220821072007F0EA
:104AB000E5F800211A2007F052F9012211461C20C6
:104AC00007F0DCF8214800680A2190FBF1F201FBB5
:104AD0001200C0B2014602901C2007F07CF91B486E
:104AE00000680A2190FBF1F0C0B2014602901E203E
:104AF00007F035F9049810B1012855D155E0124856
:104B00000068401E104908600846006810F1280F30
:104B100002DA6FF02700086007F06AFB0A480068B5
:104B2000002817DA01220821072007F0A7F8064815
:104B30000068404205490BE0C4020020E00200206A
:104B4000E4020020F0020020E8020020EC02002035
:104B5000086008E0FE480068FE490860002208215D
:104B6000072007F08BF800211A2007F0F8F801223F
:104B700011461C2007F082F8F64800680A2190FBD5
:104B8000F1F201FB1200C0B2014602901C2007F0B6
:104B900022F9F04800680A2190FBF1F0C0B201460A
:104BA00002901E2007F0DBF85BE0E9480068EA4964
:104BB000096888420EDD07F01BFB08211A2007F068
:104BC000E4F808211C2007F0E0F806211E2007F079
:104BD000DCF845E0DE480068401CDD490860084616
:104BE0000068502801DD5020086007F001FBD8481C
:104BF000006800280ADA01220821072007F03EF8A1
:104C0000D34800684042D349086008E0D0480068B3
:104C1000D049086000220821072007F02FF8002162
:104C20001A2007F09CF8012211461C2007F026F8F4
:104C3000C84800680A2190FBF1F201FB1200C0B2E3
:104C4000014602901C2007F0C6F8C24800680A21FD
:104C500090FBF1F0C0B2014602901E2007F07FF8F1
:104C600000BF00BF83E400220821072007F006F8F8
:104C700007F0FDFA0B21002007F05BF80122082164
:104C8000022006F0FBFF0B21022007F052F806215C
:104C9000042007F036F807F0ABFA00211A2007F0DD
:104CA0009AF8012211461C2006F0E8FFAB48006884
:104CB0000A2190FBF1F201FB1200C0B20146029002
:104CC0001C2007F088F8A54800680A2190FBF1F045
:104CD000C0B2014602901E2007F041F8049810B1BE
:104CE000012873D143E09D4800689D4909688842C6
:104CF0000EDA07F07DFA08211A2007F046F808219D
:104D00001C2007F042F806211E2007F03EF82DE097
:104D100092480068401E91490860084600680028D3
:104D200001DA0120086007F063FA00211A2007F079
:104D300052F8012211461C2006F0A0FF87480068A7
:104D40000A2190FBF1F201FB1200C0B20146029071
:104D50001C2007F040F8814800680A2190FBF1F020
:104D6000C0B2014602901E2006F0F9FF2EE07B48FB
:104D70000068401C7949086008460068632801DD26
:104D80006320086007F034FA00211A2007F023F8A6
:104D9000012211461C2006F071FF704800680A21AC
:104DA00090FBF1F201FB1200C0B2014602901C2000
:104DB00007F011F8694800680A2190FBF1F0C0B2D1
:104DC000014602901E2006F0CAFF00BF00BFC3E4E8
:104DD00007F04DFA0421002006F0ABFF0122082164
:104DE000022006F04BFF0B21022006F0A2FF072154
:104DF000042006F086FF07F0FBF900211A2006F0D8
:104E0000EAFF012211461C2006F038FF54480068D2
:104E10000A2190FBF1F201FB1200C0B201460290A0
:104E20001C2006F0D8FF4E4800680A2190FBF1F0E4
:104E3000C0B2014602901E2006F091FF049810B106
:104E4000012873D12EE046480068401E444908609E
:104E500008460068002801DA0020086007F0C8F959
:104E600000211A2006F0B7FF012211461C2006F08F
:104E700005FF3B4800680A2190FBF1F201FB12009C
:104E8000C0B2014602901C2006F0A5FF344800681D
:104E90000A2190FBF1F0C0B2014602901E2006F0FC
:104EA0005EFF43E02D4800682D49096888420EDA0C
:104EB00007F09EF908211A2006F067FF08211C2040
:104EC00006F063FF06211E2006F05FFF2DE0244858
:104ED0000068401C2249086008460068632801DD1C
:104EE0006320086007F084F900211A2006F073FFA0
:104EF000012211461C2006F0C1FE194800680A2153
:104F000090FBF1F201FB1200C0B2014602901C209E
:104F100006F061FF124800680A2190FBF1F0C0B270
:104F2000014602901E2006F01AFF00BF00BF13E4E6
:104F300007F09DF90521002006F0FBFE0122082163
:104F4000022006F09BFE0321022006F0F2FE09E09B
:104F5000E8020020EC020020E4020020F40200201D
:104F6000F80200200821042006F0CBFE01211720C2
:104F700006F049FF07F03CF9FE480068012804D11B
:104F800005211C2006F001FF03E003211C2006F090
:104F9000FCFE049810B101282ED116E0F5480068F7
:104FA00048B90120F349086007F022F905211C20C7
:104FB00006F0EBFE08E00020EE49086007F018F963
:104FC00003211C2006F0E1FE16E0EA48006848B91B
:104FD0000120E849086007F00BF905211C2006F0C4
:104FE000D4FE08E00020E349086007F001F903213E
:104FF0001C2006F0CAFE00BF00BF2AE407F037F904
:105000000821002006F095FE01220821022006F06A
:1050100035FE0521022006F08CFE0921042006F051
:1050200070FE07F0E5F8D4480068012808D10A218D
:105030001A2006F0AAFE00211C2006F090FE0BE0CC
:1050400005211A2006F0A1FE05211C2006F09DFE78
:1050500000211E2006F083FE049810B1012846D1DD
:1050600022E0C548006868B90120C349086007F01C
:10507000BFF80A211A2006F088FE00211C2006F045
:105080006EFE10E00020BC49086007F0B1F8052171
:105090001A2006F07AFE05211C2006F076FE00217B
:1050A0001E2006F05CFE22E0B348006868B90120CB
:1050B000B149086007F09CF80A211A2006F065FE45
:1050C00000211C2006F04BFE10E00020AA490860D9
:1050D00007F08EF805211A2006F057FE05211C2046
:1050E00006F053FE00211E2006F039FE00BF00BF6F
:1050F000ADE407F0BCF80121002006F002FE012219
:105100000821022006F0BAFD0021022006F0F9FD78
:105110000321042006F00DFE07F06AF897480068A6
:1051200038B90A211A2006F030FE00211C2006F0B2
:1051300016FE9248006801280BD105211A2006F0BE
:1051400024FE05211C2006F020FE00211E2006F072
:1051500006FE049810B1012856D12AE0874800685D
:10516000401E8649086008460068002801DA0120D0
:1051700008608248006848B907F03AF80A211A2006
:1051800006F003FE00211C2006F0E9FD7B480068C4
:1051900001280DD107F02CF805211A2006F0F5FDA5
:1051A00005211C2006F0F1FD00211E2006F0D7FD90
:1051B0002AE072480068401C704908600846006890
:1051C000012801DD002008606C48006848B907F03C
:1051D0000FF80A211A2006F0D8FD00211C2006F045
:1051E000BEFD6648006801280DD107F001F80521D1
:1051F0001A2006F0CAFD05211C2006F0C6FD00217C
:105200001E2006F0ACFD00BF00BF20E407F02FF821
:105210000221002006F075FD01220821022006F07F
:105220002DFD0021022006F06CFD0321042006F074
:1052300080FD06F0DDFF5248006801280CD10321F3
:105240001A2006F0A2FD09211C2006F09EFD032174
:105250001E2006F09AFD0BE000211A2006F095FDB5
:1052600008211C2006F091FD00211E2006F077FD8C
:10527000049810B101284ED126E04148006888B951
:1052800001203F49086006F0B3FF03211A2006F011
:105290007CFD09211C2006F078FD03211E2006F06C
:1052A00074FD10E000203649086006F0A1FF0021DF
:1052B0001A2006F06AFD08211C2006F066FD002178
:1052C0001E2006F04CFD26E02D48006888B901201C
:1052D0002B49086006F08CFF03211A2006F055FDCB
:1052E00009211C2006F051FD03211E2006F04DFD72
:1052F00010E000202249086006F07AFF00211A2001
:1053000006F043FD08211C2006F03FFD00211E2071
:1053100006F025FD00BF00BFA4E406F0A8FF0321AE
:10532000002006F0EEFC01220821022006F0A6FC77
:105330000021022006F0E5FC0321042006F0F9FC20
:1053400006F056FF0F4800680A2190FBF1F201FBBE
:105350001200C0B2014602901A2006F000FD094872
:1053600000680A2190FBF1F090FBF1F201FB1200C2
:10537000C0B209E0FC02002000030020040300206A
:10538000080300200C030020014602901C2006F0B8
:10539000E6FCFE480068642190FBF1F0C0B20146D3
:1053A00002901E2006F0DBFC049810B101286CD19D
:1053B00035E0F6480068401EF44908600846006879
:1053C000012802DA4FF41670086006F011FFEF486A
:1053D00000680A2190FBF1F201FB1200C0B2014605
:1053E00002901A2006F0BBFCE84800680A2190FBF6
:1053F000F1F090FBF1F201FB1200C0B20146029005
:105400001C2006F0ACFCE1480068642190FBF1F040
:10541000C0B2014602901E2006F0A1FC35E0DB4838
:105420000068401CD949086008460068B0F5167F3E
:1054300001DD0120086006F0DBFED44800680A2187
:1054400090FBF1F201FB1200C0B2014602901A205B
:1054500006F085FCCD4800680A2190FBF1F090FB36
:10546000F1F201FB1200C0B2014602901C2006F0CE
:1054700076FCC6480068642190FBF1F0C0B201469A
:1054800002901E2006F06BFC00BF00BF9FE406F0F8
:10549000EEFE0421002006F034FC01220821022047
:1054A00006F0ECFB0021022006F02BFC0321042077
:1054B00006F03FFC06F09CFEB54800680A2190FB10
:1054C000F1F201FB1200C0B2014602901A2006F070
:1054D00046FCAF4800680A2190FBF1F090FBF1F226
:1054E00001FB1200C0B2014602901C2006F037FCFE
:1054F000A7480068642190FBF1F0C0B20146029019
:105500001E2006F02CFC049810B101286CD135E067
:105510009F480068401E9E490860084600680128B0
:1055200002DA4FF41670086006F062FE98480068D0
:105530000A2190FBF1F201FB1200C0B20146029079
:105540001A2006F00CFC924800680A2190FBF1F04A
:1055500090FBF1F201FB1200C0B2014602901C2048
:1055600006F0FDFB8A480068642190FBF1F0C0B2B0
:10557000014602901E2006F0F2FB35E084480068E8
:10558000401C8349086008460068B0F5167F01DDBD
:105590000120086006F02CFE7D4800680A2190FB7F
:1055A000F1F201FB1200C0B2014602901A2006F08F
:1055B000D6FB774800680A2190FBF1F090FBF1F2EE
:1055C00001FB1200C0B2014602901C2006F0C7FB8E
:1055D0006F480068642190FBF1F0C0B20146029070
:1055E0001E2006F0BCFB00BF00BFA0E406F03FFE9B
:1055F0000521002006F085FB01220821022006F08B
:105600003DFB0021022006F07CFB0321042006F074
:1056100090FB06F0EDFD5F4800680A2190FBF1F277
:1056200001FB1200C0B2014602901A2006F097FB5F
:10563000049810B1012836D11AE056480068401E7F
:105640005449086008460068002801DA0120086013
:1056500006F0CEFD4F4800680A2190FBF1F201FBF5
:105660001200C0B2014602901A2006F078FB1AE040
:1056700048480068401C47490860084600680128FF
:1056800001DD0020086006F0B3FD424800680A21F1
:1056900090FBF1F201FB1200C0B2014602901A2009
:1056A00006F05DFB00BF00BF41E406F0E0FD06210F
:1056B000002006F026FB01220821022006F0DEFA77
:1056C0000021022006F01DFB0321042006F031FB1F
:1056D0000121172006F097FB06F08AFD2E4800688E
:1056E0000A2190FBF1F201FB1200C0B201460290C8
:1056F0001A2006F034FB012211461C2006F0BEFAE7
:10570000254800680A2190FBF1F090FBF1F201FBC3
:105710001200C0B2014602901C2006F05CFB1E483D
:105720000068642190FBF1F0C0B2014602901E2097
:1057300006F015FB049810B101287DD142E016480F
:105740000068401E1449086008460068002801DA15
:105750000020086006F04CFD0F4800680A2190FB0D
:10576000F1F201FB1200C0B2014602901A2006F0CD
:10577000F6FA012211461C2006F080FA064800685D
:105780000A2190FBF1F090FBF1F207E00C030020FE
:1057900010030020200300202403002001FB12003E
:1057A000C0B2014602901C2006F015FBFE480068BE
:1057B000642190FBF1F0C0B2014602901E2006F079
:1057C000CEFA39E0F8480068401CF74908600846FE
:1057D0000068782801DD7820086006F009FDF248AD
:1057E00000680A2190FBF1F201FB1200C0B20146F1
:1057F00002901A2006F0B3FA012211461C2006F08E
:105800003DFAE94800680A2190FBF1F090FBF1F2C3
:1058100001FB1200C0B2014602901C2006F0DBFA28
:10582000E1480068642190FBF1F0C0B201460290AB
:105830001E2006F094FA00BF00BF59E406F017FDE1
:105840000721002006F05DFA01220821022006F05F
:1058500015FA0021022006F054FA0321042006F074
:1058600068FAD24800680A2190FBF1F201FB1200AD
:10587000C0B20246012102901C2006F0FFF906F09A
:10588000B7FC00211A2006F0A6FAC84800680A21D1
:1058900090FBF1F090FBF1F201FB1200C0B2014667
:1058A00002901C2006F097FAC0480068642190FB23
:1058B000F1F0C0B2014602901E2006F050FA0498A2
:1058C00010B1012874D139E0B8480068401EB749CA
:1058D000086008460068002801DA0020086006F029
:1058E00087FCB24800680A2190FBF1F201FB12002C
:1058F000C0B2014602901A2006F06DFA012211464C
:105900001C2006F0BBF9A94800680A2190FBF1F0C1
:1059100090FBF1F201FB1200C0B2014602901C2084
:1059200006F059FAA1480068642190FBF1F0C0B27A
:10593000014602901E2006F012FA39E09B480068EA
:10594000401C9A49086008460068642801DD64200C
:10595000086006F04DFC954800680A2190FBF1F2C2
:1059600001FB1200C0B2014602901A2006F033FA81
:10597000012211461C2006F081F98C4800680A219A
:1059800090FBF1F090FBF1F201FB1200C0B2014676
:1059900002901C2006F01FFA84480068642190FBE6
:1059A000F1F0C0B2014602901E2006F0D8F900BF07
:1059B00000BF2AE406F05BFC0821002006F0A1F9F4
:1059C00001220821022006F059F90021022006F0E8
:1059D00098F90321042006F0ACF90121172006F004
:1059E00012FA06F005FC7248006800280ADA012263
:1059F0000821072006F042F96D48006840426D49D1
:105A0000086008E06A4800686A49086000220821C6
:105A1000072006F033F900211A2006F0A0F9012230
:105A200011461C2006F02AF9624800680A2190FB02
:105A3000F1F201FB1200C0B2014602901C2006F0F8
:105A4000CAF95C4800680A2190FBF1F0C0B2014637
:105A500002901E2006F083F9049810B1012875D138
:105A600075E05348006854490968884226DD06F00D
:105A7000BFFB4F48006800280ADA012208210720EE
:105A800006F0FCF84A48006840424A49086008E0CD
:105A9000474800684749086000220821072006F0AF
:105AA000EDF808211A2006F070F908211C2006F0F4
:105AB0006CF906211E2006F068F947E03C480068B2
:105AC000401E3B4908600846006810F1280F02DAC2
:105AD0006FF02700086006F08BFB3548006800284F
