:020000040800F2
:10000000F810002099E800089D0F00089F0F0008D5
:10001000A30F0008A70F0008AB0F000800000000A6
:10002000000000000000000000000000AF0F00080A
:10003000B10F000800000000B30F0008B50F000862
:10004000B3E80008B3E80008B3E8000875C9000881
:10005000B3E80008B3E80008B3E80008B3E8000814
:10006000B3E80008B3E80008B3E80008B3E8000804
:10007000B3E80008B3E80008B3E80008B3E80008F4
:10008000B5D6000815D70008B3E80008B3E80008A3
:10009000B3E80008B3E80008B3E80008B3E80008D4
:1000A000B3E80008B3E80008B3E80008B3E80008C4
:1000B0004DAA0008D1A90008230F0008B3E80008E2
:1000C000B3E80008B3E80008B3E80008B3E80008A4
:1000D000B3E80008750B00080F0B0008B3E8000830
:1000E000F7DB0008B3E80008B3E80008B3E800084D
:1000F000B3E80008B3E80008B3E80008B3E8000874
:10010000B3E80008B3E80008CDAA0008B3E8000887
:10011000B3E80008B3E80008B3E80008B3E8000853
:10012000B3E80008B3E80008B3E80008B3E8000843
:1001300000F002F800F062F80AA090E8000C824497
:100140008344AAF10107DA4501D100F057F8AFF274
:10015000090EBAE80F0013F0010F18BFFB1A43F0A5
:1001600001031847BC220100DC2201000A444FF0C1
:10017000000C10F8013B13F0070408BF10F8014B06
:100180001D1108BF10F8015B641E05D010F8016B4B
:10019000641E01F8016BF9D113F0080F1EBF10F8AF
:1001A000014BAD1C0C1B09D16D1E58BF01F801CBD2
:1001B000FAD505E014F8016B01F8016B6D1EF9D555
:1001C0009142D6D37047000000230024002500266A
:1001D000103A28BF78C1FBD8520728BF30C148BFAA
:1001E0000B607047642910F07187732911F0378014
:1001F000002070471FB51FBD10B510BD11F038F8B5
:100200001146FFF7F7FF09F0E8F811F056F803B4CC
:10021000FFF7F2FF03BC0EF08DFA00000CB50020D2
:10022000019000906C48006840F480306A49086092
:1002300000BF6948006800F4003000900198401C3D
:100240000190009818B90198B0F5A06FF1D16248FB
:10025000006800F4003010B10120009001E000209F
:1002600000900098012843D15C48006840F01000DD
:100270005A4908600846006820F0030008600846F4
:10028000006840F0020008605348406852494860E6
:100290000846406848600846406840F4806048600E
:1002A0000846406820F47C1048600846406840F4E6
:1002B000E81048600846006840F08070086000BFA1
:1002C0004548006800F000700028F9D042484068B6
:1002D00020F00300404948600846406840F00200B2
:1002E000486000BF3C48406800F00C000828F9D185
:1002F0000CBD10B5FFF792FF10BD10B53648006871
:1003000040F001003449086008464068344908401C
:100310003149486008460068324908402E49086063
:100320000846006820F4802008600846406820F4F1
:10033000FE0048604FF41F008860FFF7DAFF4FF0BF
:1003400000602949086010BD10B50021002000227E
:10035000214B5B6803F00C0121B1042906D0082968
:1003600028D107E0214B224C236027E01F4B204C73
:10037000236023E0184B5B6803F47010164B5B6836
:1003800003F48032022303EB904022B9194B43431C
:10039000174C23600DE0104B5B6803F4003323B16E
:1003A000144B4343124C236003E0104B4343104C67
:1003B000236003E00D4B0E4C236000BF00BF064BD3
:1003C0005B68C3F303130C4CE15C094B1B68CB4027
:1003D000074C236010BD00000010024000200240C6
:1003E0000000FFF8FFFFF6FE08ED00E000127A00C3
:1003F0000000002000093D000400002070B5024606
:100400000C46FF25FF2309E012F8010B80EA0501E5
:10041000FA48405C80EA0305F948435C201EA4F1D9
:100420000106F4B2F0D143EA052070BD10B50120F9
:10043000F4490870F4480EF00FFFF4490870F448CE
:100440000078012856D00021F2480FF067FC002107
:10045000F0480FF0F7FEF0480078A0B1EB480078C4
:10046000EE49097888420ED10020ED490870ED4927
:10047000087008460078401C0870E4480078EA4993
:10048000E84A12788854E448007860BBE448007871
:1004900048BBE4480078642813DADC480178E24A73
:1004A000E0480078401C1154DE480078401CDD49CB
:1004B000087008460078082815DB084600780870A0
:1004C00011E00120D6490870D1490870D54800785C
:1004D000D5490870D54800688078D5490968887082
:1004E0000020D04908700020CB4908700121C9487C
:1004F0000FF014FC10BD10B50120C2490870CD49A1
:100500000870CD480EF0A8FEC0490870C0480078B9
:10051000012856D00021BF480FF000FC0021BD4843
:100520000FF090FEBC480078A0B1B8480078BB49F5
:10053000097888420ED10020B9490870B94908707D
:1005400008460078401C0870B0480078B649B54AA3
:1005500012788854B048007860BBB148007848BB36
:10056000B0480078642813DAA8480178AE4AAD484C
:100570000078401C1154AB480078401CA949087011
:1005800008460078082815DB08460078087011E056
:100590000120A34908709E490870A2480078A2492A
:1005A0000870A24800688078A14909688870002016
:1005B0009C490870002098490870012195480FF067
:1005C000ADFB10BD10B59A4800689C490978405CA5
:1005D0009B490870084601788B480EF039FE974811
:1005E0000078401C954908709148006800780978A7
:1005F000884210DA0020864908708D490968087021
:100600008849087001208D490870002240F2266157
:100610007D480EF0BCFD10BD70B500257F48007808
:100620008849087003204870874800788870874997
:100630008748006811F038FD064611F099FC000A61
:100640008049C87081498248006811F02DFD064636
:1006500011F08EFC7B4908717E48006811F088FC1F
:100660000121B1EBE03F07D17A4801684FF08F409C
:1006700011F022FE7749086074497648006811F04D
:1006800013FD064611F074FC000A6E4948716F496B
:100690007048006811F008FD064611F069FC6949D0
:1006A000887169480088051F04E00021A81D654A7B
:1006B00011546D1E002DF8DC63480078C01CC1B2D7
:1006C0006048FFF79BFE044621125E4A5E480088A0
:1006D000C01C11545C480088001D14545A4800780E
:1006E000401D5D49087010465C490860012240F2D7
:1006F000277145480EF04BFD70BD70B50025474889
:10070000007850490870032048704F48007888707E
:100710005048006811F02CFC0121B1EBE03F07D1FB
:100720004C4801684FF08F4011F0C6FD4949086000
:1007300046494848006811F0B7FC064611F018FC1D
:10074000000A4049C87041494248006811F0ACFCB9
:10075000064611F00DFC3B4908713B480088851E98
:1007600004E00021281D374A11546D1E002DF8DCCD
:1007700035480078C01CC1B23248FFF73FFE04463E
:100780002112304A30480088C01C11542E4800887D
:10079000001D14542C480078401D2F490870104645
:1007A0002E490860012240F2277117480EF0EFFC35
:1007B00070BD70B5002519480078224908700320E3
:1007C000487021480078887020492148006811F05D
:1007D0006BFC064611F0CCFB000A1A49C8701B4995
:1007E0001B48006811F060FC064611F0C1FB15497A
:1007F000087115480088851E37E000003E00002083
:100800003E0100203500002000440040260000206A
:100810003400002000080040220000209402002044
:100820002300002029000020C40400202C00002008
:100830003000002037000020003801402A0000204E
:1008400027000020C10700201E00002000002041DA
:10085000800300207C0300206C020020680200203E
:100860000021281DFD4A11546D1E002DF8DCFC48A6
:100870000078C01CC1B2F948FFF7C0FD0446211240
:10088000F64AF7480088C01C1154F5480088001D3E
:100890001454F3480078401DF24908701046F2499C
:1008A0000860012240F22771F0480EF070FC70BD24
:1008B00010B50220EE490870EE4800884FF6FA7134
:1008C000884205DAEC48007810B900200DF017F8DE
:1008D000E84800884FF6FA71884203DAE648007863
:1008E00001280ED101200DF00AF80120E24908701C
:1008F000E04800884FF6FA71884202DB3220DD4979
:1009000008800A20DD49088008460288DC49D94869
:1009100000880CF0D1FFDB480078D0490870D84837
:1009200000784870D64840788870D5488078C8707C
:10093000D348C0780871D24800794871D0484079CE
:100940008871CF488079C871CD48C0790872CC4889
:10095000007A4872CA48407A88720B20C1490870F0
:10096000C44800880A30C3490880084600880A2124
:1009700090FBF1F0C449098888420BDD3220BD4963
:1009800008800020C14908703220C1490880002039
:10099000C0490870B148B4490860012240F227718B
:1009A000B2480EF0F4FB10BD70B50025BA480088BF
:1009B000B5490880B3480078A849087003204870FA
:1009C00002208870B0480088000AC870AE480078DD
:1009D00008710521A148FFF711FD044620129F4927
:1009E00048718C7107209F4908709C489E49086097
:1009F000012240F227719D480EF0C9FB70BD2DE920
:100A0000F04104460F460020A4490870A44800782D
:100A100000283BD12078401E255C4FF6FF7000EA8D
:100A200005252078205C05432078C01E205C8C4979
:100A30000880084600884FF6FF7101EA00208849C7
:100A400008802078801E205C098808434FF6FF71DB
:100A500001EA40008249088008460088202801DD1C
:100A6000202008802078801EC1B2601CFFF7C6FCE1
:100A7000064606218B48FFF7C1FC06462078801EFB
:100A8000C1B2601CFFF7BAFC064600E02E46AE423B
:100A900038D18348007808BBA07801281BD00328F0
:100AA0001AD1022180480EF024F86D4800880428ED
:100AB00002D1FFF7B1FD0DE069480088022809D195
:100AC000207910B9FFF775FE04E02079012801D1E3
:100AD000FFF713FE01E000E000BF16E0E07840B150
:100AE00010280DD1022170480EF003F8FFF7E0FE48
:100AF00007E002216C480DF0FCFFFFF755FF00E016
:100B000000BF02E0002069490870BDE8F08110B51F
:100B100040F2244155480EF01FFC01280DD15348E6
:100B20000EF09AFB40F2244150480EF03FFC0120A9
:100B30005F49087000205F49087040F225514B481A
:100B40000EF00AFC012814D148480EF085FB5A49E2
:100B5000087040F2255145480EF028FC56480078B0
:100B60005649544A1278885452480078401C5149DA
:100B7000087010BD70B586B000240226002500BFA5
:100B800004E0002003A90855601CC4B20A2CF8DB5D
:100B900040F225514A480EF0DFFB30B348480EF0D2
:100BA0005BFB4849087048480078F0B9084600786F
:100BB000232802D100204549087042480178434863
:100BC00002780078401C414B1870414881543D48E0
:100BD00000780A2809D118460078801E3C49085C34
:100BE0000D2802D1012038490870374800780128C3
:100BF0007CD100203449087035484078012876D1EE
:100C000034480088022805DB0DF03DFC022126480F
:100C10000DF071FF2E4880782F4908702C48C0785D
:100C20002E4908702A4800792D49087028484079D3
:100C30002C4908702648C179807901EB00202A49A7
:100C400008802348C179807901EB00202049497947
:100C50001F4A1279CDE90021029049E0C107002026
:100C60001E0000206C0200206802002000440040AA
:100C70003D03002020000020380000203C00002020
:100C800068060020940200203A0000203C03002067
:100C9000680300203B0300205C0200203500002098
:100CA00037000020C5040020000801403400002067
:100CB000440200204502002014000020900600207D
:100CC000003801403E0200203F0200204002002088
:100CD0007C0600205002002047020020480200202D
:100CE000490200204A0200204C02002017E109E0DE
:100CF000B148C3788278B1A1BA4810F075F90120E3
:100D0000B9490870AC484078022866D123208DF894
:100D10000C0002208DF80D000D208DF814000A2023
:100D20008DF8150013241DE0AE48005D2E280FD06D
:100D3000AC48005D22280BD0AA48005D03A9895D5C
:100D400001EB810100EB4100303803A9885501E037
:100D5000701CC6B2A348005D2C2801D1264603E0D2
:100D6000601CC4B22A2CDFDD00BF701CC4B20FE0CF
:100D70009C48005D0D2808D09A48005D05EB850170
:100D800000EB4100303885B200E003E0601CC4B2E3
:100D90002A2CEDDD00BF2846E91705EB1161090A91
:100DA0008DF81210E91705EB11610912A5EB01216D
:100DB000C9B28DF8131000240DE003A8015D8B4823
:100DC0000EF046FA00BF802188480EF0AFFA0028E6
:100DD000F9D0601CC4B20A2CEFDB774840780328B6
:100DE00020D183480088022805DB0DF04CFB02214E
:100DF00080480DF080FE7048C178807801EB0020BB
:100E00007D490860084600887C49088000207849B0
:100E100008807B4908807B4908807B490870012055
:100E20007149087064484078042826D123208DF841
:100E30000C0004208DF80D006F480088000A8DF822
:100E40000E006D4800788DF80F000D208DF8100011
:100E50000A208DF8110000240DE003A8015D63480D
:100E60000EF0F6F900BF802160480EF05FFA00280E
:100E7000F9D0601CC4B2062CEFDB4F48407805283F
:100E800024D102215B480DF034FE4FF4FA700DF0CE
:100E900024FC002406E04849A01C085C5B49085576
:100EA000601CC4B25A480078001FA042F3DC002046
:100EB00056490855574B0A4657A15D4810F094F81B
:100EC0000DF0BDFA02214B480DF015FE3A4840786E
:100ED000062824D1022147480DF00BFE4FF4FA708A
:100EE0000DF0FBFB002406E03349A01C085C4949D7
:100EF0000855601CC4B246480078001FA042F3DCCD
:100F00000020444908550B46404A43A1484810F088
:100F10006BF80DF094FA022136480DF0ECFD06B0A6
:100F200070BD10B5012143480FF0C1F9002834D03D
:100F300001204149087000213E480EF0EFFE0021DB
:100F40003C480FF07FF901203C4908703C4800788C
:100F50003C4908703C480078D8B1394800780428EA
:100F600017DD01203949087036480079222803D05E
:100F70003448C078102803D101203549087002E0B8
:100F80000020334908703348016833480068FFF790
:100F900036FD012127480FF09BF910BD704700BFB7
:100FA000FEE700BFFEE700BFFEE700BFFEE77047B9
:100FB00070477047704700007C06002041542B4367
:100FC000495053544152543D22544350222C22251F
:100FD000642E25642E25642E2564222C25640D0A9A
:100FE000000000006C0A00201C00002000380140B6
:100FF0005002002000080140180000205402002088
:10100000EC030020EE030020520200209C0400208C
:1010100040020020B004002041542B43574A415065
:101020003D222573222C222573220D0A0000000088
:101030005A04002000080040220000202300002065
:1010400029000020C40400203500002034000020C6
:1010500037000020300000202C000020002100E09C
:10106000491C8142FCD3704710B5642910D230224C
:1010700002700A22B1FBF2F2303242702E2242702C
:101080000A22B1FBF2F302FB13123032827021E02C
:1010900064291FD3B1F57A7F1CD26422B1FBF2F22E
:1010A000303202706422B1FBF2F302FB13120A2306
:1010B000B2FBF3F2303242702E2282706422B1FB16
:1010C000F2F302FB13120A23B2FBF3F403FB142224
:1010D0003032C27010BD3EB50924F94804800120A9
:1010E0000CF00DFC2246F74900200CF0E5FB6420D3
:1010F0000DF0F3FAF3480078F3490870F1484078AE
:10110000F2490870EF488078F1490870ED48C078DE
:10111000F0490870EB484179007901EB0020EE4975
:10112000088008460088EB490978E94A1278CDE939
:1011300000210290E5480378E3480278E7A1F148EE
:101140000FF052FFDF488079EF490870DD48017ADF
:10115000C07901EB0020ED49086008460068EC49C1
:1011600008603EBD10B5D6480480D7480078E949EC
:101170000870D64800784870D54800788870D548FF
:101180000078C870D4490888C11700EB1161090ABA
:10119000E04A1171D0490888C11700EB11610912AA
:1011A000A0EB01215171D848007811468871D748C9
:1011B0000088000AC871D548007808720924012007
:1011C0000CF09DFB2246D34900200CF086FB6420E6
:1011D0000DF083FA10BD10B53224B9480480002008
:1011E0000CF08DFB2246B74900200CF065FB642013
:1011F0000DF073FAB3480078C7490870B1484078D9
:10120000C6490860C648096850F82100C549086009
:10121000AC488078C4490860AA48C078C3490860CF
:1012200008460068502804DD08460068A0F5807074
:101230000860A4480079BE49086008460068502844
:1012400004DD08460068A0F5807008609D4840797C
:10125000B84908609B488079B74908609948C079C7
:10126000B64908609748007AB54908609548407AC1
:10127000B44908609348807AB34908609148C07ABD
:10128000B24908608F48007BB14908608D48407BB7
:10129000B04908608B48807BAF4908608948C07BB3
:1012A000AE4908808748007C097800EB0120AB49F3
:1012B00008808448407CAA4908708248807CA949FB
:1012C00008608048C07CA84908607E48007DA74926
:1012D000086008460068502804DD08460068A0F54C
:1012E000807008607748407DA14908600846006822
:1012F000502804DD08460068A0F580700860714839
:10130000807D9C4908606F48C07D9B4908606D489E
:10131000007E9A49086008460068642804DD084693
:101320000068A0F5807008606648407E94490860B7
:1013300008460068642804DD08460068A0F580704F
:1013400008606048807E18B15E48807EFF2812D118
:101350005C48C07E18B15B48C07EFF280BD159485D
:10136000007F18B15748007FFF2804D14FF4C870A0
:101370008449086011E05348807E5249C97E01EBE0
:10138000810100EB41004F49097F01EBC10202EBF3
:10139000011100EB81007B4908604A48407F18B189
:1013A0004848407FFF281BD14648807F18B14548F8
:1013B000807FFF2814D14348C07F18B14148C07FC7
:1013C000FF280DD13F4890F8200020B13D4890F80B
:1013D0002000FF2804D14FF4FA606B49086014E044
:1013E0003848407F3749897F0A2202FB010035498E
:1013F000C97F642202FB0100324991F820104FF4AA
:101400007A7202FB0100604908602E4890F82100C2
:1014100020B12C4890F82100FF2816D1294890F8D7
:10142000220020B1274890F82200FF280DD125483E
:1014300090F8230020B1234890F82300FF2804D11E
:101440004FF4C8705149086010E01E4890F8210020
:101450001C4991F822100A2202FB0100194991F857
:101460002310642202FB010048490860154890F8E7
:10147000240020B1134890F82400FF281FD1114800
:1014800090F8250020B10F4890F82500FF2816D1CC
:101490000C4890F8260020B10A4890F82600FF2852
:1014A00078D1084890F8270020B1064890F8270026
:1014B000FF286FD14FF4FA603549086082E069E097
:1014C00038030020250800204702002048020020A1
:1014D000490200204A0200204C02002041542B43C4
:1014E000495053544152543D22544350222C2225FA
:1014F000642E25642E25642E2564222C25640D0A75
:10150000000000006C0A00204602002018000020A5
:1015100054020020F3070020940200209C020020C7
:10152000A002002098020020B4020020B80200208F
:10153000BC020020C8020020CC020020D002002003
:10154000D4020020D8020020DC020020E0020020AB
:10155000E4020020E8020020EC02002068030020E2
:101560003B030020F80200200003002008030020B5
:10157000100300201803002020030020280300206F
:10158000300300208C0300209003002094030020EF
:1015900098030020FE4890F82400FD4991F825109A
:1015A0000A2202FB0100FA4991F82610642202FB8C
:1015B0000100F74991F827104FF47A7202FB0100FD
:1015C000F4490860F24890F8280020B1F04890F8FB
:1015D0002800FF281FD1EE4890F8290020B1EC48E0
:1015E00090F82900FF2816D1E94890F82A0020B188
:1015F000E74890F82A00FF280DD1E54890F82B0025
:1016000020B1E34890F82B00FF2804D14FF4FA6092
:10161000E149086017E0DE4890F82800DC4991F8BD
:1016200029100A2202FB0100D94991F82A106422EC
:1016300002FB0100D64991F82B104FF47A7202FB9D
:101640000100D5490860D24890F82C0020B1D0485C
:1016500090F82C00FF281FD1CD4890F82D0020B124
:10166000CB4890F82D00FF2816D1C94890F82E00DD
:1016700020B1C74890F82E00FF280DD1C44890F83B
:101680002F0020B1C24890F82F00FF2804D14FF45A
:10169000FA60C249086017E0BD4890F82C00BC49C8
:1016A00091F82D100A2202FB0100B94991F82E1081
:1016B000642202FB0100B64991F82F104FF47A72B0
:1016C00002FB0100B5490860FFF705FD10BD10B52C
:1016D000B3480480B3480078B3490870B348007831
:1016E0004870B34800788870B2480078C870B24833
:1016F00000780871B14800784871B1480078887165
:10170000B0480078C871B04800780872AF480078D7
:101710004872AF4800788872AE480078C872AE4808
:1017200000780873AD4800784873AD480078887336
:10173000AC480088000AC873AA4800780874AA4810
:1017400000784874A94800788874A9480078C8745B
:10175000A84800780875A84800784875A748007818
:101760008875A7480078C875A64800780876A64806
:1017700000784876A5480068642190FBF1F201FBEF
:1017800012000A2190FBF1F201FB120086498876D3
:101790009E480068642190FBF1F201FB12000A21CF
:1017A00090FBF1F08049C87698480068642190FB6E
:1017B000F1F07D490877964800684FF47A7190FB04
:1017C000F1F201FB1200642190FBF1F201FB120027
:1017D0000A2190FBF1F201FB1200734948778C4813
:1017E00000684FF47A7190FBF1F201FB1200642162
:1017F00090FBF1F201FB12000A2190FBF1F06A4923
:101800008877834800684FF47A7190FBF1F201FB0E
:101810001200642190FBF1F06349C8777C480068AE
:101820004FF47A7190FBF1F05F4981F8200079481C
:101830000068642190FBF1F201FB12000A2190FB89
:10184000F1F201FB1200584981F82100714800684B
:10185000642190FBF1F201FB12000A2190FBF1F0F0
:10186000514981F822006B480068642190FBF1F037
:101870004D4981F82300474800684FF47A7190FB86
:10188000F1F201FB1200642190FBF1F201FB120066
:101890000A2190FBF1F201FB1200434981F8240078
:1018A0003C4800684FF47A7190FBF1F201FB1200A2
:1018B000642190FBF1F201FB12000A2190FBF1F090
:1018C000394981F82500334800684FF47A7190FB5C
:1018D000F1F201FB1200642190FBF1F0324981F832
:1018E00026002C4800684FF47A7190FBF1F02E49E5
:1018F00081F82700284800684FF47A7190FBF1F2D4
:1019000001FB1200642190FBF1F201FB12000A219D
:1019100090FBF1F201FB1200234981F828001E48D8
:1019200000684FF47A7190FBF1F201FB1200642120
:1019300090FBF1F201FB12000A2190FBF1F01A4931
:1019400081F82900144800684FF47A7190FBF1F295
:1019500001FB1200642190FBF1F0134981F82A0089
:101960000D4800684FF47A7190FBF1F00E4981F850
:101970002B000A4800684FF47A7190FBF1F201FBEA
:101980001200642190FBF1F201FB12000A2143E0F6
:1019900025080020980300209C030020A0030020BD
:1019A0003803002094020020F30700209C0200204E
:1019B000B4020020B8020020BC020020C8020020AF
:1019C000CC020020D0020020D4020020D802002047
:1019D000DC020020E0020020E4020020E8020020F7
:1019E000EC020020680300203B030020F8020020E6
:1019F000000300200803002010030020180300202B
:101A00002003002028030020300300208C03002046
:101A1000900300209403002090FBF1F201FB1200E0
:101A2000FE4981F82C00FE4800684FF47A7190FB63
:101A3000F1F201FB1200642190FBF1F201FB1200B4
:101A40000A2190FBF1F0F54981F82D00F448006877
:101A50004FF47A7190FBF1F201FB1200642190FBCC
:101A6000F1F0EE4981F82E00ED4800684FF47A71EC
:101A700090FBF1F0E94981F82F00322400200BF0AF
:101A80003EFF2246E54900200BF027FF64200CF0C2
:101A900024FEFFF767FB10BD08B5012114200DF0EF
:101AA00037FA4FF48060ADF8000010208DF8030085
:101AB00003208DF802006946DA480CF06DFF4FF400
:101AC0008061D8480DF015F80220ADF80000102014
:101AD0008DF8030003208DF802006946D2480CF00F
:101AE0005BFF0221D0480DF004F82020ADF8000083
:101AF0006946CD480CF050FF2021CB480CF0FBFF8D
:101B00001020ADF800006946C7480CF045FF1021D1
:101B1000C5480CF0EEFF08BD08B5012104200DF00A
:101B2000F7F94020ADF8000010208DF803000320E5
:101B30008DF802006946BC480CF02EFF08BD10B5B8
:101B400004464021B8480CF0D4FFA0B20CF0C5FD0B
:101B50004021B5480CF0CFFF10BD03B581B0002186
:101B60004FF080400EF0DAF801981A2882F00E82C9
:101B7000DFE810F01A001C00D900A50122023D0385
:101B8000A1094D041605810A680E720FE50540068D
:101B9000BB064807DB078A083909530B230CE20C04
:101BA000A90D8310A311F61102F0F0B90AF027FA7B
:101BB0000021084609F07BFF01220821022009F0DC
:101BC0001BFF0121022009F05AFF0121042009F026
:101BD00056FF0AF0CBF995480078642190FBF1F2AA
:101BE00001FB12000A2190FBF1F201FB1200C0B2CE
:101BF000014600901A2009F070FF8C48007864219B
:101C000090FBF1F201FB12000A2190FBF1F0C0B24F
:101C1000014600901C2009F060FF84480078642190
:101C200090FBF1F0C0B2014600901E2009F055FF74
:101C3000029810B1012874D13AE07C480078401E27
:101C40007A49087008460078012801DAFF200870F8
:101C50000AF08CF975480078642190FBF1F201FBE1
:101C600012000A2190FBF1F201FB1200C0B2014602
:101C700000901A2009F031FF6C480078642190FB35
:101C8000F1F201FB12000A2190FBF1F0C0B2014613
:101C900000901C2009F021FF64480078642190FB2B
:101CA000F1F0C0B2014600901E2009F016FF38E0A6
:101CB0005E480078401C5D49087008460078FF289F
:101CC00001DD0120087059480078642190FBF1F291
:101CD00001FB12000A2190FBF1F201FB1200C0B2DD
:101CE000014600901A2009F0F8FE5048007864215F
:101CF00090FBF1F201FB12000A2190FBF1F0C0B25F
:101D0000014600901C2009F0E8FE48480078642154
:101D100090FBF1F0C0B2014600901E2009F0DDFEFC
:101D200000BF00BF40E70AF06AF90221002009F075
:101D3000BEFE01220821022009F05EFE01220821D8
:101D4000022009F097FD0121022009F0B0FE0221D6
:101D5000042009F094FE0AF009F93548006864216E
:101D6000B0FBF1F201FB12000A21B0FBF1F201FB22
:101D70001200014600901A2009F0AFFE2C480068BE
:101D80006421B0FBF1F201FB12000A21B0FBF1F07B
:101D9000014600901C2009F0A0FE2548006864213F
:101DA000B0FBF1F0C0B2014600901E2009F095FE94
:101DB000029810B1012845D145E01D480068401E39
:101DC0001B4908600846006810B940F2E730086017
:101DD0000AF0CCF8164800686421B0FBF1F201FB70
:101DE00012000A21B0FBF1F201FB12000146009043
:101DF0001A2009F072FE0E4800686421B0FBF1F26F
:101E000001FB12000A21B0FBF1F0014600901C20FA
:101E100009F063FE0648006864210BE0F307002028
:101E2000A0030020001001400008014046020020ED
:101E300018000020B0FBF1F0C0B2014600901E2057
:101E400009F04BFE39E0FE480068401CFC49086080
:101E500008460068B0F57A7F01D3012008600AF0D7
:101E600085F8F74800686421B0FBF1F201FB12002D
:101E70000A21B0FBF1F201FB1200014600901A208A
:101E800009F02BFEEE4800686421B0FBF1F201FB83
:101E900012000A21B0FBF1F0014600901C2009F06D
:101EA0001CFEE74800686421B0FBF1F0C0B20146B7
:101EB00000901E2009F011FE00BF00BF74E60AF07A
:101EC0009EF80821002009F0F2FD012208210220DD
:101ED00009F092FD0721022009F0E9FD0321042009
:101EE00009F0CDFDD748006801280AD10AF03EF874
:101EF0000A211A2009F007FE00211C2009F0EDFD3F
:101F00000DE00AF033F805211A2009F0FCFD052147
:101F10001C2009F0F8FD00211E2009F0DEFD0298CA
:101F200010B1012846D122E0C648006868B90120F6
:101F3000C44908600AF01AF80A211A2009F0E3FDE2
:101F400000211C2009F0C9FD10E00020BD490860F7
:101F50000AF00CF805211A2009F0D5FD05211C20F6
:101F600009F0D1FD00211E2009F0B7FD22E0B5489F
:101F7000006868B90120B349086009F0F7FF0A2139
:101F80001A2009F0C0FD00211C2009F0A6FD10E078
:101F90000020AC49086009F0E9FF05211A2009F08A
:101FA000B2FD05211C2009F0AEFD00211E2009F024
:101FB00094FD00BF00BFF7E50AF021F80B210020D7
:101FC00009F075FD01220821022009F015FD032109
:101FD000022009F06CFD0421084609F050FD0121A2
:101FE000172009F0CEFD09F0C1FF974800680028CE
:101FF0000ADA01220821072009F0FEFC9248006855
:1020000040429249086008E08F4800688F490860A4
:1020100000220821072009F0EFFC00211A2009F016
:102020005CFD012211461C2009F0E6FC874800688F
:102030000A2190FBF1F201FB1200C0B201460090B0
:102040001C2009F086FD814800680A2190FBF1F010
:10205000C0B2014600901E2009F03FFD029810B169
:1020600001287AD17AE07A4800687749096888427D
:102070002BDB09F07BFF7448006800280ADA012294
:102080000821072009F0B8FC6F48006840426F49FA
:10209000086008E06C4800686C490860002208216C
:1020A000072009F0A9FC00220821072009F0A4FC60
:1020B00008211A2009F027FD08211C2009F023FD22
:1020C00006211E2009F01FFD47E05F480068401E02
:1020D0005D4908600846006810F1280F02DA6FF0C9
:1020E0002700086009F042FF5748006800280ADA14
:1020F00001220821072009F07FFC53480068404274
:102100005249086008E050480068504908600022C1
:102110000821072009F070FC00211A2009F0DDFCDD
:10212000012211461C2009F067FC484800680A217A
:1021300090FBF1F201FB1200C0B2014600901C209E
:1021400009F007FD414800680A2190FBF1F0C0B298
:10215000014600901E2009F0C0FC46E03A480068A5
:10216000401C3949086008460068502801DD5020AD
:10217000086009F0FBFE3448006800280ADA0122F2
:102180000821072009F038FC2F48006840422F49F9
:10219000086008E02C4800682C49086000220821EB
:1021A000072009F029FC00211A2009F096FC0122E1
:1021B00011461C2009F020FC244800680A2190FBED
:1021C000F1F201FB1200C0B2014600901C2009F0A0
:1021D000C0FC1E4800680A2190FBF1F0C0B2014625
:1021E00000901E2009F079FC00BF00BFDCE409F07C
:1021F00006FF0421002009F05AFC012208210220D8
:1022000009F0FAFB0321022009F051FC04210846E1
:1022100009F035FC0121172009F0B3FC09F0A6FEF6
:102220000B480068002817DA01220821072009F06E
:10223000E3FB0748006840420649086015E00000DB
:1022400018000020B4020020B8020020C4020020C0
:10225000BC020020C0020020FE480068FE49086061
:1022600000220821072009F0C7FB00211A2009F0ED
:1022700034FC012211461C2009F0BEFBF648006820
:102280000A2190FBF1F201FB1200C0B2014600905E
:102290001C2009F05EFCF04800680A2190FBF1F078
:1022A000C0B2014600901E2009F017FC029810B140
:1022B000012848D148E0E7480068401EE549086029
:1022C0000846006810F1280F02DA6FF02700086056
:1022D00009F04CFEDF48006800280ADA01220821D4
:1022E000072009F089FBDB4800684042DA490860B2
:1022F00008E0D8480068D849086000220821072073
:1023000009F07AFB00211A2009F0E7FB01221146AF
:102310001C2009F071FBD04800680A2190FBF1F203
:1023200001FB1200C0B2014600901C2009F011FC14
:10233000C94800680A2190FBF1F0C0B20146009044
:102340001E2009F0CAFB60E0C2480068C349096862
:10235000884213DB09F00AFE00220821072009F059
:102360004BFB08211A2009F0CEFB08211C2009F0A4
:10237000CAFB06211E2009F0C6FB45E0B5480068EF
:10238000401CB449086008460068502801DD502010
:10239000086009F0EBFDAF48006800280ADA012266
:1023A0000821072009F028FBAA4800684042AA49F2
:1023B000086008E0A7480068A749086000220821D3
:1023C000072009F019FB00211A2009F086FB0122E1
:1023D00011461C2009F010FB9F4800680A2190FB61
:1023E000F1F201FB1200C0B2014600901C2009F07E
:1023F000B0FB994800680A2190FBF1F0C0B2014699
:1024000000901E2009F069FB00BF00BF8AE4002293
:102410000821072009F0F0FA09F0F1FD0B21002056
:1024200009F045FB01220821022009F0E5FA0B2101
:10243000022009F03CFB0421084609F020FB09F0CA
:1024400095FD00220821072009F0D6FA00211A2064
:1024500009F07FFB012211461C2009F0CDFA8048CB
:1024600000680A2190FBF1F201FB1200C0B20146A4
:1024700000901C2009F06DFB794800680A2190FB50
:10248000F1F0C0B2014600901E2009F026FB029830
:1024900010B101284DD14DE07148006871490968BB
:1024A000884213DC09F062FD00220821072009F0B0
:1024B000A3FA08211A2009F026FB08211C2009F0A4
:1024C00022FB06211E2009F01EFB32E06448006852
:1024D000401E6349086008460068002801DA0120B0
:1024E000086009F043FD00220821072009F084FA62
:1024F00000211A2009F02DFB012211461C2009F0B1
:102500007BFA574800680A2190FBF1F201FB1200A8
:10251000C0B2014600901C2009F01BFB5048006827
:102520000A2190FBF1F0C0B2014600901E2009F094
:10253000D4FA33E04A480068401C4949086008461C
:102540000068632801DD6320086009F00FFD0022A8
:102550000821072009F050FA00211A2009F0F9FAA1
:10256000012211461C2009F047FA3D4800680A2163
:1025700090FBF1F201FB1200C0B2014600901C205A
:1025800009F0E7FA364800680A2190FBF1F0C0B282
:10259000014600901E2009F0A0FA00BF00BF8DE4A4
:1025A00009F02DFD0421002009F081FA0122082103
:1025B000022009F021FA0B21022009F078FA042107
:1025C000084609F05CFA09F0D1FC00220821072036
:1025D00009F012FA00211A2009F0BBFA0122114673
:1025E0001C2009F009FA1F4800680A2190FBF1F24B
:1025F00001FB1200C0B2014600901C2009F0A9FAAC
:10260000184800680A2190FBF1F0C0B20146009022
:102610001E2009F062FA029810B101283ED13EE076
:1026200010480068401E0F490860084600680028EE
:1026300001DA0020086009F099FC00220821072037
:1026400009F0DAF900211A2009F083FA0122114673
:102650001C2009E0BC020020C0020020B8020020BB
:10266000C8020020CC02002009F0C6F9F848006832
:102670000A2190FBF1F201FB1200C0B2014600906A
:102680001C2009F066FAF24800680A2190FBF1F07C
:10269000C0B2014600901E2009F01FFA4DE0ED483F
:1026A0000068EB490968884213DC09F05FFC0022EE
:1026B0000821072009F0A0F908211A2009F023FABF
:1026C00008211C2009F01FFA06211E2009F01BFA20
:1026D00032E0DF480068401CDD49086008460068B9
:1026E000632801DD6320086009F040FC0022082116
:1026F000072009F081F900211A2009F02AFA0122A5
:1027000011461C2009F078F9D14800680A2190FB95
:10271000F1F201FB1200C0B2014600901C2009F04A
:1027200018FACB4800680A2190FBF1F0C0B20146CC
:1027300000901E2009F0D1F900BF00BF3BE409F072
:102740005EFC0521002009F0B2F9012208210220D7
:1027500009F052F90321022009F0A9F90621042009
:1027600009F08DF90121172009F00BFA09F0FEFBA1
:10277000B9480068012804D105211C2009F0C3F9DB
:1027800003E003211C2009F0BEF9029810B10128D2
:102790002ED116E0B048006848B90120AE49086063
:1027A00009F0E4FB05211C2009F0ADF908E0002048
:1027B000A949086009F0DAFB03211C2009F0A3F9FC
:1027C00016E0A548006848B90120A349086009F04F
:1027D000CDFB05211C2009F096F908E000209E4958
:1027E000086009F0C3FB03211C2009F08CF900BF2D
:1027F00000BFFBE409F003FC0821002009F057F9B1
:1028000001220821022009F0F7F80521022009F031
:102810004EF90721042009F032F909F0A7FB8F488F
:102820000068012808D10A211A2009F06CF900215A
:102830001C2009F052F90BE005211A2009F063F978
:1028400005211C2009F05FF900211E2009F045F93F
:10285000029810B1012846D122E08048006868B98A
:1028600001207E49086009F081FB0A211A2009F045
:102870004AF900211C2009F030F910E000207749C6
:10288000086009F073FB05211A2009F03CF90521C5
:102890001C2009F038F900211E2009F01EF922E061
:1028A0006E48006868B901206C49086009F05EFB59
:1028B0000A211A2009F027F900211C2009F00DF93E
:1028C00010E000206549086009F050FB05211A203E
:1028D00009F019F905211C2009F015F900211E2025
:1028E00009F0FBF800BF00BF80E409F088FB01217C
:1028F000002009F0C4F801220821022009F07CF828
:102900000321022009F0D3F80821042009F0B7F8C8
:1029100009F02CFB5248006838B90A211A2009F046
:10292000F2F800211C2009F0D8F84D480068012871
:102930000BD105211A2009F0E6F805211C2009F029
:10294000E2F800211E2009F0C8F8029810B1012811
:1029500056D12AE042480068401E414908600846B6
:102960000068002801DA012008603D48006848B985
:1029700009F0FCFA0A211A2009F0C5F800211C20F0
:1029800009F0ABF83648006801280DD109F0EEFADD
:1029900005211A2009F0B7F805211C2009F0B3F829
:1029A00000211E2009F099F82AE02D480068401CFB
:1029B0002B49086008460068012801DD00200860F6
:1029C0002748006848B909F0D1FA0A211A2009F00D
:1029D0009AF800211C2009F080F82148006801289D
:1029E0000DD109F0C3FA05211A2009F08CF8052150
:1029F0001C2009F088F800211E2009F06EF800BFA5
:102A000000BF03E509F0FBFA0221002009F037F8C6
:102A100001220821022008F0EFFF0321022009F023
:102A200046F80821042009F02AF809F09FFA0D4819
:102A30000068012818D103211A2009F064F809213F
:102A40001C2009F060F803211E2009F05CF817E053
:102A5000CC020020C8020020D0020020D4020020B6
:102A6000D8020020DC02002000211A2009F04BF8D7
:102A700008211C2009F047F800211E2009F02DF83C
:102A8000029810B101284ED126E0F848006888B9B4
:102A90000120F649086009F069FA03211A2009F0BB
:102AA00032F809211C2009F02EF803211E2009F01C
:102AB0002AF810E00020ED49086009F057FA0021DB
:102AC0001A2009F020F808211C2009F01CF8002128
:102AD0001E2009F002F826E0E448006888B90120C9
:102AE000E249086009F042FA03211A2009F00BF8C4
:102AF00009211C2009F007F803211E2009F003F822
:102B000010E00020D949086009F030FA00211A20AD
:102B100008F0F9FF08211C2008F0F5FF00211E2015
:102B200008F0DBFF00BF00BF70E409F068FA032182
:102B3000002008F0A4FF01220821022008F05CFF19
:102B40000321022008F0B3FF0821042008F097FFBA
:102B500009F00CFAC64800680A2190FBF1F201FB6B
:102B60001200C0B2014600901A2008F0B6FFC0481B
:102B700000680A2190FBF1F090FBF1F201FB1200DA
:102B8000C0B2014600901C2008F0A7FFB8480068BA
:102B9000642190FBF1F0C0B2014600901E2008F0C5
:102BA0009CFF029810B101286CD135E0B048006854
:102BB000401EAF49086008460068012802DA4FF459
:102BC0001670086009F0D2F9A94800680A2190FB44
:102BD000F1F201FB1200C0B2014600901A2008F089
:102BE0007CFFA34800680A2190FBF1F090FBF1F212
:102BF00001FB1200C0B2014600901C2008F06DFFDE
:102C00009B480068642190FBF1F0C0B2014600903F
:102C10001E2008F062FF35E095480068401C94498A
:102C2000086008460068B0F5167F01DD01200860E5
:102C300009F09CF98E4800680A2190FBF1F201FB33
:102C40001200C0B2014600901A2008F046FF8848E2
:102C500000680A2190FBF1F090FBF1F201FB1200F9
:102C6000C0B2014600901C2008F037FF8048006881
:102C7000642190FBF1F0C0B2014600901E2008F0E4
:102C80002CFF00BF00BF8AE409F0B9F9042100203D
:102C900008F0F5FE01220821022008F0ADFE032114
:102CA000022008F004FF0821042008F0E8FE09F0E3
:102CB0005DF9704800680A2190FBF1F201FB1200F7
:102CC000C0B2014600901A2008F007FF694800686A
:102CD0000A2190FBF1F090FBF1F201FB1200C0B26F
:102CE000014600901C2008F0F8FE6248006864214C
:102CF00090FBF1F0C0B2014600901E2008F0EDFEFE
:102D0000029810B101286CD135E05A480068401E85
:102D10005849086008460068012802DA4FF4167026
:102D2000086009F023F9534800680A2190FBF1F28A
:102D300001FB1200C0B2014600901A2008F0CDFE3F
:102D40004C4800680A2190FBF1F090FBF1F201FB86
:102D50001200C0B2014600901C2008F0BEFE45489B
:102D60000068642190FBF1F0C0B2014600901E2083
:102D700008F0B3FE35E03F480068401C3D4908605C
:102D800008460068B0F5167F01DD0120086009F0F3
:102D9000EDF8384800680A2190FBF1F201FB1200BF
:102DA000C0B2014600901A2008F097FE3148006832
:102DB0000A2190FBF1F090FBF1F201FB1200C0B28E
:102DC000014600901C2008F088FE2A480068642113
:102DD00090FBF1F0C0B2014600901E2008F07DFE8D
:102DE00000BF00BFAAE409F00AF90521002008F09D
:102DF00046FE01220821022008F0FEFD03210220E8
:102E000008F055FE0821042008F039FE09F0AEF85C
:102E1000194800680A2190FBF1F201FB1200C0B2D0
:102E2000014600901A2008F058FE029810B10128BF
:102E30003FD123E010480068401E0F490860084653
:102E40000068002801DA0120086009F08FF80A48BC
:102E500000680A2190FBF1F201FB1200C0B20146AA
:102E600000901A2008F039FE23E00000DC02002068
:102E7000E0020020E4020020F4020020FE48006886
:102E8000401CFD49086008460068012801DD00205B
:102E9000086009F06BF8F84800680A2190FBF1F22D
:102EA00001FB1200C0B2014600901A2008F015FE86
:102EB00000BF00BF42E409F0A2F800220821072069
:102EC00008F09AFD002208210A2008F095FD002153
:102ED000084608F0ECFD01220821022008F08CFDD4
:102EE0000321022008F0E3FD0421084608F0C7FD95
:102EF0000121172008F045FE09F038F8DF48006886
:102F00000A2190FBF1F201FB1200C0B201460090D1
:102F10001A2008F0E2FD012211461C2008F06CFD89
:102F2000D64800680A2190FBF1F090FBF1F201FB1A
:102F30001200C0B2014600901C2008F00AFECF48E3
:102F40000068642190FBF1F0C0B2014600901E20A1
:102F500008F0C3FD029810B1012839D139E0C74803
:102F60000068401EC549086008460068002801DA6C
:102F70000020086008F0FAFFC04800680A2190FBB2
:102F8000F1F201FB1200C0B2014600901A2008F0D5
:102F9000A4FD012211461C2008F02EFDB748006850
:102FA0000A2190FBF1F090FBF1F201FB1200C0B29C
:102FB000014600901C2008F0CCFDB0480068642158
:102FC00090FBF1F0C0B2014600901E2008F085FD94
:102FD0004FE0AA480068401CA8490860A84800685B
:102FE000A8490968401A032190FBF1F000EB80002A
:102FF000A2490968B1EB400F0CDDA1480068A14966
:103000000968401A032190FBF1F000EB80004000BA
:103010009A49086008F0AAFF984800680A2190FBC6
:10302000F1F201FB1200C0B2014600901A2008F034
:1030300054FD012211461C2008F0DEFC8F48006878
:103040000A2190FBF1F090FBF1F201FB1200C0B2FB
:10305000014600901C2008F07CFD8848006864212F
:1030600090FBF1F0C0B2014600901E2008F035FD43
:1030700000BF00BF38E408F0C2FF0021084608F096
:1030800016FD01220821022008F0B6FC0B210220C7
:1030900008F00DFD0421084608F0F1FC7A480068AC
:1030A0000A2190FBF1F201FB1200C0B2024601219D
:1030B00000901C2008F0A0FC08F058FF00211A2006
:1030C00008F047FD704800680A2190FBF1F090FB82
:1030D000F1F201FB1200C0B2014600901C2008F082
:1030E00038FD69480068642190FBF1F0C0B20146E8
:1030F00000901E2008F0F1FC029810B1012839D18F
:1031000039E061480068401E5F4908600846006871
:10311000002801DA0020086008F028FF5A480068FB
:103120000A2190FBF1F201FB1200C0B201460090AF
:103130001A2008F00EFD012211461C2008F05CFC4C
:10314000514800680A2190FBF1F090FBF1F201FB7D
:103150001200C0B2014600901C2008F0FAFC4A4858
:103160000068642190FBF1F0C0B2014600901E207F
:1031700008F0B3FC4FE044480068401C4249086036
:103180004248006842490968401A032190FBF1F067
:1031900000EB80003C490968B1EB400F0CDD3B4877
:1031A00000683B490968401A032190FBF1F000EBED
:1031B000800040003449086008F0D8FE32480068BA
:1031C0000A2190FBF1F201FB1200C0B2014600900F
:1031D0001A2008F0BEFC012211461C2008F00CFC4D
:1031E000294800680A2190FBF1F090FBF1F201FB05
:1031F0001200C0B2014600901C2008F0AAFC224830
:103200000068642190FBF1F0C0B2014600901E20DE
:1032100008F063FC00BF00BF86E408F0F0FE002168
:10322000084608F02CFC01220821022008F0E4FBEB
:103230000321022008F03BFC0921042008F01FFCB8
:1032400008F094FE13480078642190FBF1F201FB32
:1032500012000A2190FBF1F201FB1200C0B20146FC
:1032600000901A2008F039FC0A480078642190FB8D
:10327000F1F201FB12000FE0F4020020F80200203E
:10328000B8020020BC02002000030020C802002079
:10329000CC020020470200200A2190FBF1F0C0B2CE
:1032A000014600901C2008F018FCFE4800786421BC
:1032B00090FBF1F0C0B2014600901E2008F00DFC1A
:1032C000029810B1012876D13AE0F6480078401E05
:1032D000F449087008460078012801DAFF200870D8
:1032E00008F044FEEF480078642190FBF1F201FB06
:1032F00012000A2190FBF1F201FB1200C0B201465C
:1033000000901A2008F0E9FBE6480078642190FB61
:10331000F1F201FB12000A2190FBF1F0C0B201466C
:1033200000901C2008F0D9FBDE480078642190FB57
:10333000F1F0C0B2014600901E2008F0CEFB3AE04A
:10334000D8480078401CD749087008460078FF2804
:1033500001DD0120087008F009FED24800786421E0
:1033600090FBF1F201FB12000A2190FBF1F201FB4C
:103370001200C0B2014600901A2008F0AEFBC94806
:103380000078642190FBF1F201FB12000A2190FB0E
:10339000F1F0C0B2014600901C2008F09EFBC1482D
:1033A0000078642190FBF1F0C0B2014600901E202D
:1033B00008F093FB00BF00BF65E408F020FE012188
:1033C000002008F05CFB01220821022008F014FB19
:1033D0000321022008F06BFB0921042008F04FFBB9
:1033E00008F0C4FDB0480078642190FBF1F201FBC5
:1033F00012000A2190FBF1F201FB1200C0B201465B
:1034000000901A2008F069FBA7480078642190FB1F
:10341000F1F201FB12000A2190FBF1F0C0B201466B
:1034200000901C2008F059FB9F480078642190FB15
:10343000F1F0C0B2014600901E2008F04EFB029849
:1034400010B1012876D13AE097480078401E96499D
:10345000087008460078012801DAFF20087008F09B
:1034600085FD91480078642190FBF1F201FB120088
:103470000A2190FBF1F201FB1200C0B2014600905C
:103480001A2008F02AFB88480078642190FBF1F2AA
:1034900001FB12000A2190FBF1F0C0B2014600903E
:1034A0001C2008F01AFB80480078642190FBF1F0A2
:1034B000C0B2014600901E2008F00FFB3AE07A48A7
:1034C0000078401C7849087008460078FF2801DD24
:1034D0000120087008F04AFD73480078642190FBD1
:1034E000F1F201FB12000A2190FBF1F201FB120044
:1034F000C0B2014600901A2008F0EFFA6A4800783E
:10350000642190FBF1F201FB12000A2190FBF1F023
:10351000C0B2014600901C2008F0DFFA6248007833
:10352000642190FBF1F0C0B2014600901E2008F02B
:10353000D4FA00BF00BF55E408F061FD022100206D
:1035400008F09DFA01220821022008F055FA032113
:10355000022008F0ACFA0921042008F090FA08F0E3
:1035600005FD52480078642190FBF1F201FB120046
:103570000A2190FBF1F201FB1200C0B2014600905B
:103580001A2008F0AAFA49480078642190FBF1F269
:1035900001FB12000A2190FBF1F0C0B2014600903D
:1035A0001C2008F09AFA41480078642190FBF1F061
:1035B000C0B2014600901E2008F08FFA029810B1A8
:1035C00001287ED13AE039480078401E374908701A
:1035D00008460078012801DAFF20087008F0C6FCD0
:1035E00032480078642190FBF1F201FB12000A21BD
:1035F00090FBF1F201FB1200C0B2014600901A20CC
:1036000008F06BFA29480078642190FBF1F201FB85
:1036100012000A2190FBF1F0C0B2014600901C207C
:1036200008F05BFA21480078642190FBF1F0C0B209
:10363000014600901E2008F050FA42E01B48007836
:10364000401C1A49087008460078FF2801DD012057
:10365000087008F08BFC15480078642190FBF1F2AB
:1036600001FB12000A2190FBF1F201FB1200C0B233
:10367000014600901A2008F030FA0C4800786421C6
:1036800090FBF1F201FB12000A2190FBF1F0C0B2B5
:10369000014600901C2008F020FA044800786421BC
:1036A00006E00000470200204802002049020020F6
:1036B00090FBF1F0C0B2014600901E2008F00DFA18
:1036C00000BF00BFD8E208F09AFC0321002008F0F8
:1036D000D6F901220821022008F08EF903210220E8
:1036E00008F0E5F90921042008F0C9F908F03EFCCA
:1036F000FE480078642190FBF1F201FB12000A21E0
:1037000090FBF1F201FB1200C0B2014600901A20BA
:1037100008F0E3F9F5480078642190FBF1F201FB31
:1037200012000A2190FBF1F0C0B2014600901C206B
:1037300008F0D3F9ED480078642190FBF1F0C0B2B5
:10374000014600901E2008F0C8F9029810B1012827
:1037500076D13AE0E5480078401EE4490870084612
:103760000078012801DAFF20087008F0FFFBDF482D
:103770000078642190FBF1F201FB12000A2190FB1A
:10378000F1F201FB1200C0B2014600901A2008F0CD
:10379000A4F9D6480078642190FBF1F201FB1200F5
:1037A0000A2190FBF1F0C0B2014600901C2008F005
:1037B00094F9CE480078642190FBF1F0C0B2014644
:1037C00000901E2008F089F93AE0C8480078401CB3
:1037D000C649087008460078FF2801DD01200870FE
:1037E00008F0C4FBC1480078642190FBF1F201FBB2
:1037F00012000A2190FBF1F201FB1200C0B2014657
:1038000000901A2008F069F9B8480078642190FB0C
:10381000F1F201FB12000A2190FBF1F0C0B2014667
:1038200000901C2008F059F9B0480078642190FB02
:10383000F1F0C0B2014600901E2008F04EF900BF22
:1038400000BFA3E308F0DBFB0021084608F017F9EE
:1038500001220821022008F0CFF80321022008F0FD
:1038600026F90521042008F00AF90121172008F0A3
:1038700088F908F07BFB9E48006800280ADA0122DC
:103880000821072008F0B8F8994800684042994993
:10389000086008E096480068964908600022082100
:1038A000072008F0A9F8934800680A2190FBF1F27C
:1038B00001FB1200C0B2014600901A2008F00DF979
:1038C000012211461C2008F097F88A4800680A2156
:1038D00090FBF1F090FBF1F201FB1200C0B2014647
:1038E00000901C2008F035F982480068642190FBA4
:1038F000F1F0C0B2014600901E2008F0EEF80298E8
:1039000010B1012853D153E079480068401E78492E
:1039100008600846006810F1640F02DA6FF0630077
:1039200008607348006800280ADA0122082107208D
:1039300008F062F86E48006840426E49086008E08E
:103940006B4800686B49086000220821072008F0D6
:1039500053F808F00BFB674800680A2190FBF1F26E
:1039600001FB1200C0B2014600901A2008F0B5F821
:10397000012211461C2008F03FF85E4800680A2129
:1039800090FBF1F090FBF1F201FB1200C0B2014696
:1039900000901C2008F0DDF856480068642190FB78
:1039A000F1F0C0B2014600901E2008F096F851E0F8
:1039B0004F480068401C4E4908600846006864286B
:1039C00001DD642008604A48006800280ADA012204
:1039D0000821072008F010F8454800684042454992
:1039E000086008E042480068424908600022082157
:1039F000072008F001F808F0B9FA3E4800680A21EB
:103A000090FBF1F201FB1200C0B2014600901A20B7
:103A100008F063F8012211461C2007F0EDFF35483D
:103A200000680A2190FBF1F090FBF1F201FB12001B
:103A3000C0B2014600901C2008F08BF82D480068A9
:103A4000642190FBF1F0C0B2014600901E2008F006
:103A500044F800BF00BF99E208F0D1FA00210846FF
:103A600008F00DF801220821022007F0C5FF0B2104
:103A7000022008F01CF80521042008F000F808F0E6
:103A800075FA1D48006800280ADA0122082107207B
:103A900007F0B2FF1848006840421849086008E083
:103AA000154800681549086000220821072007F022
:103AB000A3FF124800680A2190FBF1F201FB1200FB
:103AC000C0B2014600901A2008F043F801221146C6
:103AD0001C2007F091FF094800680A2190FBF1F0D3
:103AE00090FBF1F201FB1200C0B209E04A02002093
:103AF000280300202C030020300300203403002082
:103B0000014600901C2008F024F8FB48006864215E
:103B100090FBF1F0C0B2014600901E2007F0DDFFDF
:103B2000029810B1012853D153E0F4480068401EB8
:103B3000F24908600846006810F1640F02DA6FF07D
:103B400063000860ED48006800280ADA01220821B5
:103B5000072007F051FFE94800684042E649086045
:103B600008E0E6480068E4490860002208210720D0
:103B700007F042FF08F0FAF9DF4800680A2190FBDD
:103B8000F1F201FB1200C0B2014600901A2007F0CA
:103B9000E0FF012211461C2007F02EFFD6480068E6
:103BA0000A2190FBF1F090FBF1F201FB1200C0B290
:103BB000014600901C2007F0CCFFCF48006864212C
:103BC00090FBF1F0C0B2014600901E2007F085FF87
:103BD00051E0CA480068401CC849086008460068AF
:103BE000642801DD64200860C448006800280ADAFF
:103BF00001220821072007F0FFFEC048006840426C
:103C0000BD49086008E0BD480068BB490860002263
:103C10000821072007F0F0FE08F0A8F9B648006870
:103C20000A2190FBF1F201FB1200C0B201460090A4
:103C30001A2007F08EFF012211461C2007F0DCFE3F
:103C4000AD4800680A2190FBF1F090FBF1F201FB16
:103C50001200C0B2014600901C2007F07AFFA6486F
:103C60000068642190FBF1F0C0B2014600901E2074
:103C700007F033FF00BF00BF88E108F0C0F904215E
:103C8000002007F0FCFE01220821022007F0B4FE0C
:103C90000321022007F00BFF0921042007F0EFFEAB
:103CA00008F064F908F0B7F99548008842F21071FD
:103CB00090FBF1F0C0B2014600900B2007F0A4FD8C
:103CC0008F48008842F2107190FBF1F201FB120064
:103CD0004FF47A7190FBF1F0C0B2014600900D20D4
:103CE00007F092FD864800884FF47A7190FBF1F25C
:103CF00001FB1200642190FBF1F0C0B2014600907C
:103D00000F2007F081FD7E480088642190FBF1F2CE
:103D100001FB12000A2190FBF1F0C0B201460090B5
:103D2000112007F071FD764800880A2190FBF1F21E
:103D300001FB1200C0B201460090132007F064FDA1
:103D4000029810B101285AD15AE06D480088401EEF
:103D50006B49088008460088012802DA4FF6FF7098
:103D6000088008F058F96648008842F2107190FB0C
:103D7000F1F0C0B2014600900B2007F045FD60480D
:103D8000008842F2107190FBF1F201FB12004FF437
:103D90007A7190FBF1F0C0B2014600900D2007F05F
:103DA00033FD574800884FF47A7190FBF1F201FB24
:103DB0001200642190FBF1F0C0B2014600900F2088
:103DC00007F022FD4E480088642190FBF1F201FBD0
:103DD00012000A2190FBF1F0C0B2014600901120C0
:103DE00007F012FD464800880A2190FBF1F201FB22
:103DF0001200C0B201460090132007F005FD5AE002
:103E00003F480088401C3E49088008460088B0F5BD
:103E1000803F01DB0120088008F0FDF83848008869
:103E200042F2107190FBF1F0C0B2014600900B20FD
:103E300007F0EAFC3248008842F2107190FBF1F280
:103E400001FB12004FF47A7190FBF1F0C0B2014611
:103E500000900D2007F0D8FC294800884FF47A71B3
:103E600090FBF1F201FB1200642190FBF1F0C0B273
:103E7000014600900F2007F0C7FC2148008864210C
:103E800090FBF1F201FB12000A2190FBF1F0C0B2AD
:103E900001460090112007F0B7FC194800880A215C
:103EA00090FBF1F201FB1200C0B20146009013201A
:103EB00007F0AAFC00BF00BF68E008F0A0F80421EA
:103EC000002007F0F4FD0621022007F0F0FD052197
:103ED000042007F0D4FD08F09EF808F047F80948E0
:103EE0000078014600901A2007F0F7FD029858B1BB
:103EF000012833D11DE000003403002030030020EE
:103F00004C020020EC020020FE480068401EFD49E3
:103F1000086008460068012801DA0420086008F0FB
:103F200025F8F8480078014600901A2007F0D5FDE2
:103F300014E0F4480068401CF24908600846006834
:103F4000042801DD0120086008F010F8ED48007831
:103F5000014600901A2007F0C0FD00BF00BF15E029
:103F600008F04DF80621022007F089FD0121042008
:103F700007F085FD07F0FAFF0120E3490860002003
:103F8000E24908600120E249086000BF00BF0EBDA1
:103F900003B583B003981A2882F02783DFE810F076
:103FA0001A001C00DB00D0014D024B03540409052C
:103FB000B90521069C062907B0076A08190978097E
:103FC000410AFD0A060C040DFC0D010F0B101E1119
:103FD000C7120F1302F009BB08F011F800210846C0
:103FE00007F065FD01220821022007F005FD0121EF
:103FF000022007F044FD0121042007F040FD07F0F6
:10400000B5FFC4480078642190FBF1F201FB120077
:104010000A2190FBF1F201FB1200C0B201460290AE
:104020001A2007F05AFDBB480078642190FBF1F29A
:1040300001FB12000A2190FBF1F0C0B20146029090
:104040001C2007F04AFDB3480078642190FBF1F092
:10405000C0B2014602901E2007F03FFD049810B147
:10406000012876D13AE0AB480078401EA949087093
:1040700008460078012801DAFE20087007F076FF74
:10408000A4480078642190FBF1F201FB12000A21A0
:1040900090FBF1F201FB1200C0B2014602901A201F
:1040A00007F01BFD9B480078642190FBF1F201FBB7
:1040B00012000A2190FBF1F0C0B2014602901C20D0
:1040C00007F00BFD93480078642190FBF1F0C0B23B
:1040D000014602901E2007F000FD3AE08D4800786E
:1040E000401C8C49087008460078FE2801DD01203C
:1040F000087007F03BFF87480078642190FBF1F2DD
:1041000001FB12000A2190FBF1F201FB1200C0B288
:10411000014602901A2007F0E0FC7E4800786421F6
:1041200090FBF1F201FB12000A2190FBF1F0C0B20A
:10413000014602901C2007F0D0FC764800786421EC
:1041400090FBF1F0C0B2014602901E2007F0C5FCC2
:1041500000BF00BF3EE707F052FF0221002007F03A
:10416000A6FC01220821022007F046FC01220821BA
:10417000022007F07FFB0121022007F098FC0221BA
:10418000042007F07CFC07F0F1FE634863490968EE
:1041900050F821006249086008460068642190FBDD
:1041A000F1F00A2190FBF1F201FB1200C0B20146CE
:1041B00002901A2007F091FC59480068642190FB96
:1041C000F1F00A2190FBF1F090FBF1F201FB1200FB
:1041D000C0B2014602901C2007F07FFC50480068E6
:1041E00042F2107190FBF1F0C0B2014602901E2025
:1041F00007F073FC049810B1012846D146E0474807
:104200000068401E4549086008460068002801DA39
:104210000420086040484149096850F8210040499D
:104220000860084600680AF094FA07F09FFE3C48D0
:104230000068642190FBF1F00A2190FBF1F201FB90
:104240001200C0B2014602901A2007F046FC344822
:104250000068642190FBF1F00A2190FBF1F090FBE3
:10426000F1F201FB1200C0B2014602901C2007F0DF
:1042700034FC2B48006842F2107190FBF1F0C0B2A0
:10428000014602901E2007F028FC57E023480068F2
:10429000401C2249086008460068042801DD00200F
:1042A00008601D481D49096850F821001C49086034
:1042B000084600680AF04DFA07F058FE18480068F2
:1042C000642190FBF1F00A2190FBF1F201FB120056
:1042D000C0B2014602901A2007F0FFFB10480068A8
:1042E000642190FBF1F00A2190FBF1F090FBF1F2D8
:1042F00001FB1200C0B2014602901C2007F0EDFB4A
:1043000007480FE0EC02002058030020440300207F
:104310006003002094020020A00200209C020020E4
:1043200098020020006842F2107190FBF1F0C0B2D8
:10433000014602901E2007F0D0FB00BF00BF49E6F7
:1043400007F05DFE0821002007F0B1FB01220821E3
:10435000022007F051FB0721022007F0A8FB0321F0
:10436000042007F08CFBFE48006801280AD107F002
:10437000FDFD0A211A2007F0C6FB00211C2007F0D2
:10438000ACFB0DE007F0F2FD05211A2007F0BBFBA6
:1043900005211C2007F0B7FB00211E2007F09DFB24
:1043A000049810B1012846D122E0ED48006868B9B0
:1043B0000120EB49086007F0D9FD0A211A2007F017
:1043C000A2FB00211C2007F088FB10E00020E4493C
:1043D000086007F0CBFD05211A2007F094FB0521AA
:1043E0001C2007F090FB00211E2007F076FB22E046
:1043F000DB48006868B90120D949086007F0B6FDBC
:104400000A211A2007F07FFB00211C2007F065FB22
:1044100010E00020D249086007F0A8FD05211A200D
:1044200007F071FB05211C2007F06DFB00211E2009
:1044300007F053FB00BF00BFCCE507F0E0FD0B2108
:10444000002007F034FB01220821022007F0D4FAF3
:104450000321022007F02BFB0421084607F00FFB85
:104460000121172007F08DFB07F080FDBD48006893
:1044700000280ADA01220821072007F0BDFAB9480E
:1044800000684042B849086008E0B6480068B6498C
:10449000086000220821072007F0AEFA00211A2048
:1044A00007F01BFB012211461C2007F0A5FAAE48BD
:1044B00000680A2190FBF1F201FB1200C0B2014634
:1044C00002901C2007F045FBA74800680A2190FBDA
:1044D000F1F0C0B2014602901E2007F0FEFA0498E7
:1044E00010B1012875D175E0A04800689D490968A0
:1044F000884226DD07F03AFD9A48006800280ADA6B
:1045000001220821072007F077FA96480068404208
:104510009549086008E093480068934908600022C4
:104520000821072007F068FA08211A2007F0EBFAA3
:1045300008211C2007F0E7FA06211E2007F0E3FA05
:1045400047E088480068401E8649086008460068C1
:1045500010F1280F02DA6FF02700086007F006FD5F
:104560008048006800280ADA01220821072007F0A5
:1045700043FA7C48006840427B49086008E079487B
:1045800000687949086000220821072007F034FA02
:1045900000211A2007F0A1FA012211461C2007F081
:1045A0002BFA714800680A2190FBF1F201FB12001E
:1045B000C0B2014602901C2007F0CBFA6A4800689E
:1045C0000A2190FBF1F0C0B2014602901E2007F0D4
:1045D00084FA2EE063480068401C6249086008467F
:1045E0000068502801DD5020086007F0BFFC002162
:1045F0001A2007F072FA012211461C2007F0FCF97C
:10460000594800680A2190FBF1F201FB1200C0B288
:10461000014602901C2007F09CFA534800680A21CA
:1046200090FBF1F0C0B2014602901E2007F055FA4F
:1046300000BF00BFCEE407F0E2FC0421002007F039
:1046400036FA01220821022007F0D6F903210220C0
:1046500007F02DFA0521042007F011FA0121172097
:1046600007F08FFA07F082FC4048006800280ADA59
:1046700001220821072007F0BFF93C4800684042AA
:104680003B49086008E03948006839490860002261
:104690000821072007F0B0F900211A2007F01DFAC1
:1046A000012211461C2007F0A7F9314800680A21B1
:1046B00090FBF1F201FB1200C0B2014602901C20F7
:1046C00007F047FA2A4800680A2190FBF1F0C0B2CF
:1046D000014602901E2007F000FA049810B101284C
:1046E00053D153E021480068401E20490860084625
:1046F000006810F1280F02DA6FF02700086007F059
:1047000035FC1A48006800280ADA0122082107202F
:1047100007F072F91548006840421549086008E042
:10472000124800681249086000220821072007F09B
:1047300063F900211A2007F0D0F9012211461C204C
:1047400007F05AF90A4800680A2190FBF1F201FBD0
:104750001200C0B2014602901C2007F0FAF909E0ED
:10476000B4020020B8020020C4020020BC020020D5
:10477000C0020020F84800680A2190FBF1F0C0B2A6
:10478000014602901E2007F0A8F95BE0F34800689C
:10479000F349096888420EDD07F0E8FB08211A207A
:1047A00007F0B1F908211C2007F0ADF906211E2001
:1047B00007F0A9F945E0E9480068401CE7490860AE
:1047C00008460068502801DD5020086007F0CEFB45
:1047D000E248006800280ADA01220821072007F0D1
:1047E0000BF9DE4800684042DB49086008E0DB481E
:1047F0000068D949086000220821072007F0FCF86A
:1048000000211A2007F069F9012211461C2007F047
:10481000F3F8D14800680A2190FBF1F201FB120085
:10482000C0B2014602901C2007F093F9CA48006804
:104830000A2190FBF1F0C0B2014602901E2007F061
:104840004CF900BF00BF85E400220821072007F0D3
:10485000D3F807F0D4FB0B21002007F028F9012240
:104860000821022007F0C8F80B21022007F01FF9E9
:104870000621042007F003F907F078FB00211A2035
:1048800007F067F9012211461C2007F0B5F8B5487A
:1048900000680A2190FBF1F201FB1200C0B2014650
:1048A00002901C2007F055F9AE4800680A2190FBE1
:1048B000F1F0C0B2014602901E2007F00EF90498F4
:1048C00010B1012873D143E0A6480068A6490968E1
:1048D00088420EDA07F04AFB08211A2007F013F984
:1048E00008211C2007F00FF906211E2007F00BF904
:1048F0002DE09C480068401E9A4908600846006800
:10490000002801DA0120086007F030FB00211A209E
:1049100007F01FF9012211461C2007F06DF891489D
:1049200000680A2190FBF1F201FB1200C0B20146BF
:1049300002901C2007F00DF98A4800680A2190FBBC
:10494000F1F0C0B2014602901E2007F0C6F82EE03A
:1049500084480068401C8349086008460068632852
:1049600001DD6320086007F001FB00211A2007F039
:10497000F0F8012211461C2007F03EF87948006843
:104980000A2190FBF1F201FB1200C0B20146029035
:104990001C2007F0DEF8734800680A2190FBF1F054
:1049A000C0B2014602901E2007F097F800BF00BF7A
:1049B000C5E407F024FB0421002007F078F8012269
:1049C0000821022007F018F80B21022007F06FF8E9
:1049D0000721042007F053F807F0C8FA00211A2035
:1049E00007F0B7F8012211461C2007F005F85E48D1
:1049F00000680A2190FBF1F201FB1200C0B20146EF
:104A000002901C2007F0A5F8574800680A2190FB87
:104A1000F1F0C0B2014602901E2007F05EF8049843
:104A200010B1012873D12EE04F480068401E4E4956
:104A3000086008460068002801DA0020086007F0D6
:104A400095FA00211A2007F084F8012211461C2053
:104A500006F0D2FF444800680A2190FBF1F201FB06
:104A60001200C0B2014602901C2007F072F83E48C6
:104A700000680A2190FBF1F0C0B2014602901E20AE
:104A800007F02BF843E03748006837490968884247
:104A90000EDA07F06BFA08211A2007F034F8082123
:104AA0001C2007F030F806211E2007F02CF82DE01E
:104AB0002D480068401C2C4908600846006863289F
:104AC00001DD6320086007F051FA00211A2007F089
:104AD00040F8012211461C2006F08EFF2248006893
:104AE0000A2190FBF1F201FB1200C0B201460290D4
:104AF0001C2007F02EF81C4800680A2190FBF1F0FA
:104B0000C0B2014602901E2006F0E7FF00BF00BFC2
:104B100015E407F074FA0521002006F0C8FF012211
:104B20000821022006F068FF0321022006F0BFFFE3
:104B30000821042006F0A3FF0121172007F021F827
:104B400007F014FA09480068012811D105211C203A
:104B500006F0D9FF10E00000C0020020BC020020D7
:104B6000B8020020C8020020CC020020D0020020A1
:104B700003211C2006F0C7FF049810B101282ED194
:104B800016E0FE48006848B90120FC49086007F0BB
:104B9000EDF905211C2006F0B6FF08E00020F749DA
:104BA000086007F0E3F903211C2006F0ACFF16E0D3
:104BB000F248006848B90120F049086007F0D6F9CA
:104BC00005211C2006F09FFF08E00020EB4908604B
:104BD00007F0CCF903211C2006F095FF00BF00BFB1
:104BE0002AE407F00CFA0821002006F060FF0122F9
:104BF0000821022006F000FF0521022006F057FFE1
:104C00000921042006F03BFF07F0B0F9DC480068FA
:104C1000012808D10A211A2006F075FF00211C2066
:104C200006F05BFF0BE005211A2006F06CFF052162
:104C30001C2006F068FF00211E2006F04EFF04989D
:104C400010B1012846D122E0CD48006868B90120A2
:104C5000CB49086007F08AF90A211A2006F053FFB1
:104C600000211C2006F039FF10E00020C449086034
:104C700007F07CF905211A2006F045FF05211C20CC
:104C800006F041FF00211E2006F027FF22E0BC486D
:104C9000006868B90120BA49086007F067F90A217D
:104CA0001A2006F030FF00211C2006F016FF10E04D
:104CB0000020B349086007F059F905211A2006F0D1
:104CC00022FF05211C2006F01EFF00211E2006F0F9
:104CD00004FF00BF00BFADE407F091F901210020FF
:104CE00006F0CDFE01220821022006F085FE0021FB
:104CF000022006F0C4FE0321042006F0D8FE07F0CF
:104D000035F9A048006838B90A211A2006F0FBFEE0
:104D100000211C2006F0E1FE9A48006801280BD112
:104D200005211A2006F0EFFE05211C2006F0EBFEFF
:104D300000211E2006F0D1FE049810B1012856D1A2
:104D40002AE090480068401E8E49086008460068C6
:104D5000002801DA012008608A48006848B907F095
:104D600005F90A211A2006F0CEFE00211C2006F0CB
:104D7000B4FE8448006801280DD107F0F7F805213A
:104D80001A2006F0C0FE05211C2006F0BCFE002102
:104D90001E2006F0A2FE2AE07A480068401C7949ED
:104DA000086008460068012801DD00200860754899
:104DB000006848B907F0DAF80A211A2006F0A3FEC5
:104DC00000211C2006F089FE6E48006801280DD1E4
:104DD00007F0CCF805211A2006F095FE05211C20CD
:104DE00006F091FE00211E2006F077FE00BF00BFF6
:104DF00020E407F004F90221002006F040FE012221
:104E00000821022006F0F8FD0021022006F037FEFE
:104E10000321042006F04BFE07F0A8F85A4800686A
:104E200001280CD103211A2006F06DFE09211C2057
:104E300006F069FE03211E2006F065FE0BE000214E
:104E40001A2006F060FE08211C2006F05CFE0021FE
:104E50001E2006F042FE049810B101284ED126E033
:104E60004948006888B901204749086007F07EF882
:104E700003211A2006F047FE09211C2006F043FEFC
:104E800003211E2006F03FFE10E000203E4908608E
:104E900007F06CF800211A2006F035FE08211C20CE
:104EA00006F031FE00211E2006F017FE26E03648EF
:104EB000006888B901203449086007F057F80321D9
:104EC0001A2006F020FE09211C2006F01CFE0321FA
:104ED0001E2006F018FE10E000202B49086007F0A5
:104EE00045F800211A2006F00EFE08211C2006F0CD
:104EF0000AFE00211E2006F0F0FD00BF00BFA2E464
:104F000007F07DF80321002006F0B9FD01220821F9
:104F1000022006F071FD0021022006F0B0FD032101
:104F2000042006F0C4FD07F021F8184800680A21A3
:104F300090FBF1F201FB1200C0B2014602901A2070
:104F400006F0CBFD114800680A2190FBF1F090FBC0
:104F5000F1F201FB1200C0B2014602901C2006F0E3
:104F6000BCFD0A480068642190FBF1F0C0B2014624
:104F700002901E2006F0B1FD049809E0D002002046
:104F8000D4020020D8020020DC020020E002002031
:104F900010B101286CD135E0FE480068401EFD4983
:104FA000086008460068012802DA4FF416700860AD
:104FB00006F0DCFFF74800680A2190FBF1F201FBE4
:104FC0001200C0B2014602901A2006F086FDF14898
:104FD00000680A2190FBF1F090FBF1F201FB120056
:104FE000C0B2014602901C2006F077FDE948006837
:104FF000642190FBF1F0C0B2014602901E2006F041
:105000006CFD35E0E3480068401CE2490860084652
:105010000068B0F5167F01DD0120086006F0A6FFEC
:10502000DC4800680A2190FBF1F201FB1200C0B2DB
:10503000014602901A2006F050FDD64800680A2169
:1050400090FBF1F090FBF1F201FB1200C0B20146BF
:1050500002901C2006F041FDCE480068642190FBC0
:10506000F1F0C0B2014602901E2006F036FD00BFEE
:1050700000BF9DE406F0C3FF0421002006F0FFFC02
:1050800001220821022006F0B7FC0021022006F0D0
:10509000F6FC0321042006F00AFD06F067FFBE4877
:1050A00000680A2190FBF1F201FB1200C0B2014638
:1050B00002901A2006F011FDB74800680A2190FB03
:1050C000F1F090FBF1F201FB1200C0B20146029038
:1050D0001C2006F002FDB0480068642190FBF1F04E
:1050E000C0B2014602901E2006F0F7FC049810B1F1
:1050F00001286CD135E0A8480068401EA649086028
:1051000008460068012802DA4FF41670086006F0BD
:105110002DFFA14800680A2190FBF1F201FB12006B
:10512000C0B2014602901A2006F0D7FC9A480068E7
:105130000A2190FBF1F090FBF1F201FB1200C0B2EA
:10514000014602901C2006F0C8FC934800686421C8
:1051500090FBF1F0C0B2014602901E2006F0BDFCAB
:1051600035E08D480068401C8B490860084600689F
:10517000B0F5167F01DD0120086006F0F7FE8648D5
:1051800000680A2190FBF1F201FB1200C0B2014657
:1051900002901A2006F0A1FC7F4800680A2190FBCB
:1051A000F1F090FBF1F201FB1200C0B20146029057
:1051B0001C2006F092FC78480068642190FBF1F016
:1051C000C0B2014602901E2006F087FC00BF00BF5F
:1051D0009EE406F014FF0521002006F050FC012299
:1051E0000821022006F008FC0021022006F047FCFE
:1051F0000321042006F05BFC06F0B8FE6748006857
:105200000A2190FBF1F201FB1200C0B201460290AC
:105210001A2006F062FC049810B1012836D11AE079
:105220005E480068401E5D49086008460068002826
:1052300001DA0120086006F099FE584800680A214A
:1052400090FBF1F201FB1200C0B2014602901A205D
:1052500006F043FC1AE051480068401C4F490860C2
:1052600008460068012801DD0020086006F07EFE87
:105270004A4800680A2190FBF1F201FB1200C0B21B
:10528000014602901A2006F028FC00BF00BF3FE450
:1052900006F0B5FE0621002006F0F1FB01220821F0
:1052A000022006F0A9FB0021022006F0E8FB032102
:1052B000042006F0FCFB0121172006F062FC06F03A
:1052C00055FE374800680A2190FBF1F201FB1200FD
:1052D000C0B2014602901A2006F0FFFB01221146DF
:1052E0001C2006F089FB2E4800680A2190FBF1F093
:1052F00090FBF1F201FB1200C0B2014602901C20AB
:1053000006F027FC26480068642190FBF1F0C0B24B
:10531000014602901E2006F0E0FB049810B101281F
:105320007DD142E01E480068401E1D4908600846C5
:105330000068002801DA0020086006F017FE18480F
:1053400000680A2190FBF1F201FB1200C0B2014695
:1053500002901A2006F0C1FB012211461C2006F023
:105360004BFB0F4800680A2190FBF1F090FBF1F233
:1053700001FB1200C0B2014602901C2006F0E9FBBE
:1053800007480068642190FBF1F0C0B2014602902A
:105390001E2007E0E0020020E4020020F4020020CA
:1053A000F802002006F099FB39E0FB480068401C39
:1053B000F949086008460068782801DD782008600F
:1053C00006F0D4FDF44800680A2190FBF1F201FBDD
:1053D0001200C0B2014602901A2006F07EFB0122A4
:1053E00011461C2006F008FBEB4800680A2190FBE0
:1053F000F1F090FBF1F201FB1200C0B20146029005
:105400001C2006F0A6FBE4480068642190FBF1F044
:10541000C0B2014602901E2006F05FFB00BF00BF35
:1054200059E406F0ECFD0721002006F028FB0122DC
:105430000821022006F0E0FA0021022006F01FFBFE
:105440000321042006F033FBD44800680A2190FBB6
:10545000F1F201FB1200C0B20246012102901C20B1
:1054600006F0CAFA06F082FD00211A2006F071FB50
:10547000CA4800680A2190FBF1F090FBF1F201FBB1
:105480001200C0B2014602901C2006F062FBC34825
:105490000068642190FBF1F0C0B2014602901E202A
:1054A00006F01BFB049810B1012874D139E0BB4809
:1054B0000068401EB949086008460068002801DA03
:1054C0000020086006F052FDB44800680A2190FBF5
:1054D000F1F201FB1200C0B2014602901A2006F060
:1054E00038FB012211461C2006F086FAAB48006802
:1054F0000A2190FBF1F090FBF1F201FB1200C0B227
:10550000014602901C2006F024FBA4480068642198
:1055100090FBF1F0C0B2014602901E2006F0DDFAC9
:1055200039E09E480068401C9C49086008460068B5
:10553000642801DD6420086006F018FD97480068C3
:105540000A2190FBF1F201FB1200C0B20146029069
:105550001A2006F0FEFA012211461C2006F04CFA31
:105560008E4800680A2190FBF1F090FBF1F201FBFC
:105570001200C0B2014602901C2006F0EAFA8748E9
:105580000068642190FBF1F0C0B2014602901E2039
:1055900006F0A3FA00BF00BF2AE406F030FD0821A0
:1055A000002006F06CFA01220821022006F024FAFD
:1055B0000021022006F063FA0321042006F077FAA6
:1055C0000121172006F0DDFA06F0D0FC74480068CF
:1055D00000280ADA01220821072006F00DFA704897
:1055E000006840426F49086008E06D4800686D49F6
:1055F000086000220821072006F0FEF900211A2089
:1056000006F06BFA012211461C2006F0F5F96548F8
:1056100000680A2190FBF1F201FB1200C0B20146C2
:1056200002901C2006F095FA5E4800680A2190FB63
:10563000F1F0C0B2014602901E2006F04EFA049826
:1056400010B1012875D175E05548006856490968C0
:10565000884226DD06F08AFC5148006800280ADAF4
:1056600001220821072006F0C7F94D480068404292
:105670004C49086008E04A4800684A49086000222E
:105680000821072006F0B8F908211A2006F03BFA95
:1056900008211C2006F037FA06211E2006F033FAF6
:1056A00047E03F480068401E3D49086008460068E2
:1056B00010F1280F02DA6FF02700086006F056FCA0
:1056C0003748006800280ADA01220821072006F07E
:1056D00093F93348006840423249086008E0304896
:1056E00000683049086000220821072006F084F98C
:1056F00000211A2006F0F1F9012211461C2006F0C3
:105700007BF9284800680A2190FBF1F201FB1200A6
:10571000C0B2014602901C2006F01BFA2148006826
:105720000A2190FBF1F0C0B2014602901E2006F063
:10573000D4F92EE01A480068401C19490860084650
:105740000068502801DD5020086006F00FFC0021A1
:105750001A2006F0C2F9012211461C2006F04CF96D
:10576000104800680A2190FBF1F201FB1200C0B260
:10577000014602901C2006F0ECF90A4800680A2154
:1057800090FBF1F0C0B2014602901E2006F0A5F990
:1057900000BF00BF6DE40000F802002000030020FD
:1057A000080300200C0300201003002006F027FC53
:1057B0000921002006F063F901220821022006F0E9
:1057C0001BF90021022006F05AF90321042006F0FB
:1057D0006EF90121172006F0D4F906F0C7FBFE4848
:1057E000006800280ADA01220821072006F004F9DF
:1057F000F94800684042F949086008E0F648006846
:10580000F649086000220821072006F0F5F800217B
:105810001A2006F062F9012211461C2006F0ECF86D
:10582000EE4800680A2190FBF1F201FB1200C0B2C1
:10583000014602901C2006F08CF9E84800680A2115
:1058400090FBF1F0C0B2014602901E2006F045F92F
:10585000049810B1012875D175E0E1480068DE496F
:105860000968884226DD06F081FBDB4800680028D5
:105870000ADA01220821072006F0BEF8D64800689F
:105880004042D649086008E0D3480068D349086020
:1058900000220821072006F0AFF808211A2006F0A0
:1058A00032F908211C2006F02EF906211E2006F0F0
:1058B0002AF947E0C8480068401EC7490860084602
:1058C000006810F1280F02DA6FF02700086006F078
:1058D0004DFBC148006800280ADA01220821072090
:1058E00006F08AF8BC4800684042BC49086008E0FD
:1058F000B9480068B949086000220821072006F06D
:105900007BF800211A2006F0E8F8012211461C203D
:1059100006F072F8B14800680A2190FBF1F201FB31
:105920001200C0B2014602901C2006F012F9AB48EA
:1059300000680A2190FBF1F0C0B2014602901E20DF
:1059400006F0CBF82EE0A4480068401CA24908608D
:1059500008460068502801DD5020086006F006FB6C
:1059600000211A2006F0B9F8012211461C2006F089
:1059700043F89A4800680A2190FBF1F201FB1200FB
:10598000C0B2014602901C2006F0E3F8934800687C
:105990000A2190FBF1F0C0B2014602901E2006F0F1
:1059A0009CF800BF00BF13E406F029FB0021084665
:1059B00006F065F801220821022006F01DF80121F9
:1059C000022006F05CF80321042006F070F806F0CF
:1059D000CDFA8448006800280ADA0122082107204D
:1059E00006F00AF87F48006840427F49086008E0F6
:1059F0007C4800687C49086000220821072005F0E7
:105A0000FBFF00211A2006F0A4F8012211461C20F9
:105A100005F0F2FF744800680A2190FBF1F201FBE7
:105A20001200C0B2014602901C2006F092F86E48A7
:105A300000680A2190FBF1F0C0B2014602901E20DE
:105A400006F04BF8049810B1012873D173E0654853
:105A5000006866490968884226DD06F087FA6148D1
:105A6000006800280ADA01220821072005F0C4FF97
:105A70005C48006840425C49086008E0594800689A
:105A80005949086000220821072005F0B5FF0821C8
:105A90001A2006F038F808211C2006F034F80621F8
:105AA0001E2006F030F845E04E480068401E4D4983
:105AB000086008460068002801DA0020086006F047
:105AC00055FA4848006800280ADA01220821072010
:105AD00005F092FF4348006840424349086008E0EF
