:020000040800F2
:1000000000110020F5EC00089B0F00089D0F000870
:10001000A10F0008A50F0008A90F000800000000AC
:10002000000000000000000000000000AD0F00080C
:10003000AF0F000800000000B10F0008B30F000868
:100040000FED00080FED00080FED00085DCE000871
:100050000FED00080FED00080FED00080FED000890
:100060000FED00080FED00080FED00080FED000880
:100070000FED00080FED00080FED00080FED000870
:100080009DDB0008FDDB00080FED00080FED000808
:100090000FED00080FED00080FED00080FED000850
:1000A0000FED00080FED00080FED00080FED000840
:1000B000E9AC00086DAC0008210F00080FED000846
:1000C0000FED00080FED00080FED00080FED000820
:1000D0000FED0008750B00080F0B00080FED00086E
:1000E000DFE000080FED00080FED00080FED00083D
:1000F0000FED00080FED00080FED00080FED0008F0
:100100000FED00080FED000865AD00080FED0008C9
:100110000FED00080FED00080FED00080FED0008CF
:100120000FED00080FED00080FED00080FED0008BF
:1001300000F002F800F062F80AA090E8000C824497
:100140008344AAF10107DA4501D100F057F8AFF274
:10015000090EBAE80F0013F0010F18BFFB1A43F0A5
:100160000103184718270100382701000A444FF0FF
:10017000000C10F8013B13F0070408BF10F8014B06
:100180001D1108BF10F8015B641E05D010F8016B4B
:10019000641E01F8016BF9D113F0080F1EBF10F8AF
:1001A000014BAD1C0C1B09D16D1E58BF01F801CBD2
:1001B000FAD505E014F8016B01F8016B6D1EF9D555
:1001C0009142D6D37047000000230024002500266A
:1001D000103A28BF78C1FBD8520728BF30C148BFAA
:1001E0000B607047642911F09F81732911F06582BB
:1001F000002070471FB51FBD10B510BD11F066FA85
:100200001146FFF7F7FF09F008FB11F084FA03B479
:10021000FFF7F2FF03BC0EF0BBFC00000CB50020A2
:10022000019000906C48006840F480306A49086092
:1002300000BF6948006800F4003000900198401C3D
:100240000190009818B90198B0F5A06FF1D16248FB
:10025000006800F4003010B10120009001E000209F
:1002600000900098012843D15C48006840F01000DD
:100270005A4908600846006820F0030008600846F4
:10028000006840F0020008605348406852494860E6
:100290000846406848600846406840F4806048600E
:1002A0000846406820F47C1048600846406840F4E6
:1002B000E81048600846006840F08070086000BFA1
:1002C0004548006800F000700028F9D042484068B6
:1002D00020F00300404948600846406840F00200B2
:1002E000486000BF3C48406800F00C000828F9D185
:1002F0000CBD10B5FFF792FF10BD10B53648006871
:1003000040F001003449086008464068344908401C
:100310003149486008460068324908402E49086063
:100320000846006820F4802008600846406820F4F1
:10033000FE0048604FF41F008860FFF7DAFF4FF0BF
:1003400000602949086010BD10B50021002000227E
:10035000214B5B6803F00C0121B1042906D0082968
:1003600028D107E0214B224C236027E01F4B204C73
:10037000236023E0184B5B6803F47010164B5B6836
:1003800003F48032022303EB904022B9194B43431C
:10039000174C23600DE0104B5B6803F4003323B16E
:1003A000144B4343124C236003E0104B4343104C67
:1003B000236003E00D4B0E4C236000BF00BF064BD3
:1003C0005B68C3F303130C4CE15C094B1B68CB4027
:1003D000074C236010BD00000010024000200240C6
:1003E0000000FFF8FFFFF6FE08ED00E000127A00C3
:1003F0000000002000093D000400002070B5024606
:100400000C46FF25FF2309E012F8010B80EA0501E5
:10041000FA48405C80EA0305F948435C201EA4F1D9
:100420000106F4B2F0D143EA052070BD10B50120F9
:10043000F4490870F4480FF03DF9F4490870F448A5
:100440000078012856D00021F2480FF095FE0021D7
:10045000F04810F025F9F0480078A0B1EB4800789A
:10046000EE49097888420ED10020ED490870ED4927
:10047000087008460078401C0870E4480078EA4993
:10048000E84A12788854E448007860BBE448007871
:1004900048BBE4480078642813DADC480178E24A73
:1004A000E0480078401C1154DE480078401CDD49CB
:1004B000087008460078082815DB084600780870A0
:1004C00011E00120D6490870D1490870D54800785C
:1004D000D5490870D54800688078D5490968887082
:1004E0000020D04908700020CB4908700121C9487C
:1004F0000FF042FE10BD10B50120C2490870CD4971
:100500000870CD480FF0D6F8C0490870C048007890
:10051000012856D00021BF480FF02EFE0021BD4813
:1005200010F0BEF8BC480078A0B1B8480078BB49CC
:10053000097888420ED10020B9490870B94908707D
:1005400008460078401C0870B0480078B649B54AA3
:1005500012788854B048007860BBB148007848BB36
:10056000B0480078642813DAA8480178AE4AAD484C
:100570000078401C1154AB480078401CA949087011
:1005800008460078082815DB08460078087011E056
:100590000120A34908709E490870A2480078A2492A
:1005A0000870A24800688078A14909688870002016
:1005B0009C490870002098490870012195480FF067
:1005C000DBFD10BD10B59A4800689C490978405C75
:1005D0009B490870084601788B480FF067F89748E8
:1005E0000078401C954908709148006800780978A7
:1005F000884210DA0020864908708D490968087021
:100600008849087001208D490870002240F2266157
:100610007D480EF0EAFF10BD70B500257F480078D8
:100620008849087003204870874800788870874997
:100630008748006811F066FF064611F0C7FE000A01
:100640008049C87081498248006811F05BFF064606
:1006500011F0BCFE7B4908717E48006811F0B6FEBF
:100660000121B1EBE03F07D17A4801684FF08F409C
:1006700012F050F87749086074497648006811F024
:1006800041FF064611F0A2FE000A6E4948716F490B
:100690007048006811F036FF064611F097FE694970
:1006A000887169480088051F04E00021A81D654A7B
:1006B00011546D1E002DF8DC63480078C01CC1B2D7
:1006C0006048FFF79BFE044621125E4A5E480088A0
:1006D000C01C11545C480088001D14545A4800780E
:1006E000401D5D49087010465C490860012240F2D7
:1006F000277145480EF079FF70BD70B50025474859
:10070000007850490870032048704F48007888707E
:100710005048006811F05AFE0121B1EBE03F07D1CB
:100720004C4801684FF08F4011F0F4FF49490860D0
:1007300046494848006811F0E5FE064611F046FEBD
:10074000000A4049C87041494248006811F0DAFE89
:10075000064611F03BFE3B4908713B480088851E68
:1007600004E00021281D374A11546D1E002DF8DCCD
:1007700035480078C01CC1B23248FFF73FFE04463E
:100780002112304A30480088C01C11542E4800887D
:10079000001D14542C480078401D2F490870104645
:1007A0002E490860012240F2277117480EF01DFF04
:1007B00070BD70B5002519480078224908700320E3
:1007C000487021480078887020492148006811F05D
:1007D00099FE064611F0FAFD000A1A49C8701B4935
:1007E0001B48006811F08EFE064611F0EFFD15491A
:1007F000087115480088851E37E00000660000205B
:10080000660100205D000020004400404C000020F4
:100810005C0000200008004048000020C0020020CA
:10082000490000204F000020C80400205400002090
:10083000580000205F0000200038014050000020D8
:100840004D000020C507002044000020000020418A
:10085000AC030020A803002098020020940200208E
:100860000021281DFD4A11546D1E002DF8DCFC48A6
:100870000078C01CC1B2F948FFF7C0FD0446211240
:10088000F64AF7480088C01C1154F5480088001D3E
:100890001454F3480078401DF24908701046F2499C
:1008A0000860012240F22771F0480EF09EFE70BDF4
:1008B00010B50220EE490870EE4800884FF6FA7134
:1008C000884205DAEC48007810B900200DF08BFA68
:1008D000E84800884FF6FA71884203DAE648007863
:1008E00001280ED101200DF07EFA0120E2490870A6
:1008F000E04800884FF6FA71884202DB3220DD4979
:1009000008800A20DD49088008460288DC49D94869
:1009100000880DF045FADB480078D0490870D848C7
:1009200000784870D64840788870D5488078C8707C
:10093000D348C0780871D24800794871D0484079CE
:100940008871CF488079C871CD48C0790872CC4889
:10095000007A4872CA48407A88720B20C1490870F0
:10096000C44800880A30C3490880084600880A2124
:1009700090FBF1F0C449098888420BDD3220BD4963
:1009800008800020C14908703220C1490880002039
:10099000C0490870B148B4490860012240F227718B
:1009A000B2480EF022FE10BD70B50025BA4800888E
:1009B000B5490880B3480078A849087003204870FA
:1009C00002208870B0480088000AC870AE480078DD
:1009D00008710521A148FFF711FD044620129F4927
:1009E00048718C7107209F4908709C489E49086097
:1009F000012240F227719D480EF0F7FD70BD2DE9F0
:100A0000F04104460F460020A4490870A44800782D
:100A100000283BD12078401E255C4FF6FF7000EA8D
:100A200005252078205C05432078C01E205C8C4979
:100A30000880084600884FF6FF7101EA00208849C7
:100A400008802078801E205C098808434FF6FF71DB
:100A500001EA40008249088008460088202801DD1C
:100A6000202008802078801EC1B2601CFFF7C6FCE1
:100A7000064606218B48FFF7C1FC06462078801EFB
:100A8000C1B2601CFFF7BAFC064600E02E46AE423B
:100A900038D18348007808BBA07801281BD00328F0
:100AA0001AD1022180480EF052FA6D4800880428BD
:100AB00002D1FFF7B1FD0DE069480088022809D195
:100AC000207910B9FFF775FE04E02079012801D1E3
:100AD000FFF713FE01E000E000BF16E0E07840B150
:100AE00010280DD1022170480EF031FAFFF7E0FE18
:100AF00007E002216C480EF02AFAFFF755FF00E0EC
:100B000000BF02E0002069490870BDE8F08110B51F
:100B100040F2244155480EF04DFE01280DD15348B6
:100B20000EF0C8FD40F2244150480EF06DFE012049
:100B30005F49087000205F49087040F225514B481A
:100B40000EF038FE012814D148480EF0B3FD5A4982
:100B5000087040F2255145480EF056FE5648007880
:100B60005649544A1278885452480078401C5149DA
:100B7000087010BD70B586B000240226002500BFA5
:100B800004E0002003A90855601CC4B20A2CF8DB5D
:100B900040F225514A480EF00DFE30B348480EF0A1
:100BA00089FD4849087048480078F0B9084600783F
:100BB000232802D100204549087042480178434863
:100BC00002780078401C414B1870414881543D48E0
:100BD00000780A2809D118460078801E3C49085C34
:100BE0000D2802D1012038490870374800780128C3
:100BF0007CD100203449087035484078012876D1EE
:100C000034480088022805DB0DF0B1FE0221264899
:100C10000EF09FF92E4880782F4908702C48C07834
:100C20002E4908702A4800792D49087028484079D3
:100C30002C4908702648C179807901EB00202A49A7
:100C400008802348C179807901EB00202049497947
:100C50001F4A1279CDE90021029049E0C507002022
:100C6000440000209802002094020020004400402C
:100C7000690300204600002060000020640000207E
:100C80006C060020C00200206200002068030020E3
:100C90009403002067030020880200205D000020EC
:100CA0005F000020C9040020000801405C00002013
:100CB0006C0200206D020020140000209406002029
:100CC0000038014066020020670200206802002010
:100CD0008006002080020020780200207902002097
:100CE0007A0200207B0200207C02002016E10FE047
:100CF000B048C3788278B0A1B94810F0A3FB0020B7
:100D0000B8490880B8490880B8490880B8490870CF
:100D1000A8484078022866D123208DF80C000220D4
:100D20008DF80D000D208DF814000A208DF81500A7
:100D300013241DE0AA48005D2E280FD0A848005DAE
:100D400022280BD0A648005D03A9895D01EB810133
:100D500000EB4100303803A9885501E0701CC6B291
:100D60009F48005D2C2801D1264603E0601CC4B2D8
:100D70002A2CDFDD00BF701CC4B20FE09848005D74
:100D80000D2808D09648005D05EB850100EB410079
:100D9000303885B200E003E0601CC4B22A2CEDDDDF
:100DA00000BF2846E91705EB1161090A8DF81210FA
:100DB000E91705EB11610912A5EB0121C9B28DF804
:100DC000131000240DE003A8015D8A480EF06EFCAC
:100DD00000BF802187480EF0D7FC0028F9D0601CA6
:100DE000C4B20A2CEFDB73484078032819D17D4840
:100DF0000088022805DB0DF0BAFD02217E480EF0C6
:100E0000A8F86C48C178807801EB00207B49086025
:100E10000020744908807449088074490880744926
:100E2000087064484078042826D123208DF80C00EF
:100E300004208DF80D0071480088000A8DF80E001E
:100E40006E4800788DF80F000D208DF810000A20F4
:100E50008DF8110000240DE003A8015D65480EF037
:100E600025FC00BF802163480EF08EFC0028F9D0DD
:100E7000601CC4B2062CEFDB4E484078052824D114
:100E800002215D480EF063F84FF47A700DF053FEC6
:100E9000002406E04749A01C085C59490855601C1D
:100EA000C4B258480078001FA042F3DC0020544927
:100EB0000855554B0A4655A15A4810F0C3FA0DF093
:100EC00032FD02214C480EF044F83A48407806289A
:100ED00024D1022148480EF03AF84FF47A700DF010
:100EE0002AFE002406E03349A01C085C4649085548
:100EF000601CC4B243480078001FA042F3DC00200D
:100F0000414908550B463E4A40A1464810F09AFA1E
:100F10000DF009FD022138480EF01BF806B070BD37
:100F200010B5012140480FF0F0FB002834D001201B
:100F30003E49087000213C480FF01EF900213A4854
:100F40000FF0AEFB01203A4908703A4800783A4960
:100F500008703A480078D8B136480078042817DD80
:100F600001203749087034480079222803D03248DC
:100F7000C078102803D101203249087002E0002017
:100F8000304908703048016830480068FFF737FD85
:100F9000012125480FF0CAFB10BD704700BFFEE7D6
:100FA00000BFFEE700BFFEE700BFFEE770477047E7
:100FB000704770478006002041542B4349505354DA
:100FC0004152543D22544350222C2225642E256444
:100FD0002E25642E2564222C25640D0A00000000B5
:100FE000700A002080020020180400201A0400204B
:100FF0008202002000380140000801401800002053
:101000001C000020680200203000002041542B43C7
:10101000574A41503D222573222C222573220D0A66
:101020000000000086040020000800404800002066
:10103000490000204F000020C80400205D0000206F
:101040005C0000205F0000205800002054000020B9
:10105000002100E0491C8142FCD3704710B564298F
:1010600010D2302202700A22B1FBF2F2303242700A
:101070002E2242700A22B1FBF2F302FB131230322D
:10108000827021E064291FD3B1F57A7F1CD26422DB
:10109000B1FBF2F2303202706422B1FBF2F302FBD8
:1010A00013120A23B2FBF3F2303242702E22827006
:1010B0006422B1FBF2F302FB13120A23B2FBF3F436
:1010C00003FB14223032C27010BD3EB50C24FB4825
:1010D000048001200CF087FE2246F94900200CF024
:1010E0005FFE64200DF027FDF54880790104F44887
:1010F000C07901EB0031F248007A01EB0020F049A1
:10110000497A0844EF490860ED484179007901EBDC
:101110000020EB49C978EA4A9278CDE90021029093
:10112000E74843780278E8A1F14810F08BF9E548E8
:10113000006842F21071B0FBF1F03030ED490870F8
:10114000E048006842F21071B0FBF1F201FB1200BE
:101150004FF47A71B0FBF1F03030E6494870D9486D
:1011600000684FF47A71B0FBF1F201FB12006421C8
:10117000B0FBF1F03030DF498870D248006864215C
:10118000B0FBF1F201FB12000A21B0FBF1F03030AC
:10119000D849C870CB4800680A21B0FBF1F201FBC6
:1011A00012003030D3490871C548C17A807A01EB0A
:1011B0000020D14908603EBD10B5C0480480CF482A
:1011C0000078CF490870CF4800784870CE48007842
:1011D0008870CE480078C870CD490888C11700EBE8
:1011E0001161090AC64A1171C9490888C11700EB83
:1011F00011610912A0EB01215171B2480068000C85
:1012000011468871AF480088C0F30330C871AD48FB
:101210000088C0F303200872AA4800784872B648D4
:101220000088000A8872B4480078C8720C24012033
:101230000CF0D9FD2246B24900200CF0C2FD64201A
:101240000DF079FC10BD10B532249C4804800020BC
:101250000CF0C9FD22469A4900200CF0A1FD642043
:101260000DF069FC96480078AA49087094484078C7
:10127000A9490860A948096850F82100A8490860F0
:101280008F488078A74908608D48C078A6490860D3
:1012900008460068502804DD08460068A0F5807004
:1012A000086087480079A14908600846006850280E
:1012B00004DD08460068A0F5807008608048407929
:1012C0009B4908607E4880799A4908607C48C079CB
:1012D000994908607A48007A984908607848407AC5
:1012E000974908607648807A964908607448C07AC1
:1012F000954908607248007B944908607048407BBB
:10130000934908606E48807B924908606C48C07BB6
:10131000914908806A48007C097800EB01208E49D9
:1013200008806748407C8D4908706548807C8C49FE
:1013300008606348C07C8B4908606148007D8A4929
:10134000086008460068502804DD08460068A0F5DB
:10135000807008605A48407D8449086008460068EB
:10136000502804DD08460068A0F5807008605448E5
:10137000807D7F4908605248C07D7E4908605048A2
:10138000007E7D49086008460068642804DD084640
:101390000068A0F5807008604948407E7749086081
:1013A00008460068642804DD08460068A0F58070DF
:1013B00008604348807E18B14148807EFF2812D1E2
:1013C0003F48C07E18B13E48C07EFF280BD13C4844
:1013D000007F18B13A48007FFF2804D14FF4C8704D
:1013E0006749086011E03648807E3549C97E01EBC7
:1013F000810100EB41003249097F01EBC10202EBA0
:10140000011100EB81005E4908602D48407F18B152
:101410002B48407FFF281BD12948807F18B12848DE
:10142000807FFF2814D12648C07F18B12448C07F90
:10143000FF280DD1224890F8200020B1204890F8D4
:101440002000FF2804D14FF4FA604E49086014E0F0
:101450001B48407F1A49897F0A2202FB0100184974
:10146000C97F642202FB0100154991F820104FF456
:101470007A7202FB010043490860114890F821008C
:1014800020B10F4890F82100FF287FD10C4890F838
:10149000220020B10A4890F82200FF2876D108489F
:1014A00090F8230020B1064890F82300FF286DD162
:1014B0004FF4C8703449086079E067E064030020A5
:1014C000290800207402002041542B4349505354F2
:1014D0004152543D22544350222C2225642E25642F
:1014E0002E25642E2564222C25640D0A00000000A0
:1014F000700A00206E0200201800002078020020F0
:10150000F7070020790200207A0200207B020020E9
:101510007C020020C0020020C8020020CC02002073
:10152000C4020020E0020020E4020020E8020020C3
:10153000F4020020F8020020FC020020000300203A
:1015400004030020080300200C03002010030020E7
:1015500014030020180300209403002067030020D8
:10156000240300202C030020340300203C0300202F
:10157000440300204C030020540300205C0300209F
:10158000B8030020BC030020C0030020FE4890F8F0
:101590002100FD4991F822100A2202FB0100FA49BC
:1015A00091F82310642202FB0100F8490860F64814
:1015B00090F8240020B1F44890F82400FF281FD1AF
:1015C000F14890F8250020B1EF4890F82500FF2859
:1015D00016D1ED4890F8260020B1EB4890F826008F
:1015E000FF280DD1E84890F8270020B1E64890F890
:1015F0002700FF2804D14FF4FA60E549086017E09E
:10160000E14890F82400E04991F825100A2202FBF5
:101610000100DD4991F82610642202FB0100DA493D
:1016200091F827104FF47A7202FB0100D849086044
:10163000D54890F8280020B1D34890F82800FF281A
:101640001FD1D14890F8290020B1CF4890F8290047
:10165000FF2816D1CC4890F82A0020B1CA4890F84B
:101660002A00FF280DD1C84890F82B0020B1C648A9
:1016700090F82B00FF2804D14FF4FA60C5490860A8
:1016800017E0C14890F82800BF4991F829100A22B4
:1016900002FB0100BC4991F82A10642202FB010000
:1016A000B94991F82B104FF47A7202FB0100B94945
:1016B0000860B54890F82C0020B1B34890F82C0091
:1016C000FF281FD1B04890F82D0020B1AE4890F807
:1016D0002D00FF2816D1AC4890F82E0020B1AA4862
:1016E00090F82E00FF280DD1A74890F82F0020B1C8
:1016F000A54890F82F00FF2804D14FF4FA60A649BE
:10170000086017E0A04890F82C009F4991F82D1030
:101710000A2202FB01009C4991F82E10642202FB70
:101720000100994991F82F104FF47A7202FB0100E1
:101730009949086010BD10B5984804809848007811
:1017400098490870984800784870984800788870E0
:1017500097480078C87097480078087196480078D4
:10176000487196480078887195480078C871954806
:10177000007808729448007848729448007888721B
:1017800093480078C87293480078087392480078AC
:10179000487392480078887391480088000AC8739B
:1017A0008F48007808748F48007848748E48007815
:1017B00088748E480078C8748D48007808758D4804
:1017C000007848758C48007888758C480078C87512
:1017D0008B48007808768B48007848768A480068FD
:1017E000642190FBF1F201FB12000A2190FBF1F25F
:1017F00001FB12006B49887683480068642190FBE6
:10180000F1F201FB12000A2190FBF1F06549C87664
:101810007D480068642190FBF1F0624908777B48BD
:1018200000684FF47A7190FBF1F201FB1200642121
:1018300090FBF1F201FB12000A2190FBF1F201FB97
:10184000120058494877714800684FF47A7190FB4C
:10185000F1F201FB1200642190FBF1F201FB120096
:101860000A2190FBF1F04F498877684800684FF4EF
:101870007A7190FBF1F201FB1200642190FBF1F010
:101880004849C877614800684FF47A7190FBF1F0DD
:10189000444981F820003D480068642190FBF1F242
:1018A00001FB12000A2190FBF1F201FB12003D49FD
:1018B00081F8210035480068642190FBF1F201FBBA
:1018C00012000A2190FBF1F0364981F822002F48DE
:1018D0000068642190FBF1F0324981F823002C4824
:1018E00000684FF47A7190FBF1F201FB1200642161
:1018F00090FBF1F201FB12000A2190FBF1F201FBD7
:101900001200284981F82400214800684FF47A71B8
:1019100090FBF1F201FB1200642190FBF1F201FB5C
:1019200012000A2190FBF1F01E4981F825001848A9
:1019300000684FF47A7190FBF1F201FB1200642110
:1019400090FBF1F0174981F82600114800684FF428
:101950007A7190FBF1F0134981F827000D48006877
:101960004FF47A7190FBF1F201FB1200642190FBBD
:10197000F1F201FB12000A2190FBF1F201FB1200CF
:10198000084981F8280043E029080020C00300200E
:10199000C4030020C8030020CC03002064030020FF
:1019A000C0020020F7070020C8020020E00200204B
:1019B000E4020020E8020020F4020020F8020020E7
:1019C000FC02002000030020040300200803002084
:1019D0000C03002010030020140300201803002033
:1019E0009403002067030020240300202C03002020
:1019F000340300203C030020440300204C0300205B
:101A0000540300205C030020B8030020BC03002026
:101A1000FE4800684FF47A7190FBF1F201FB12006E
:101A2000642190FBF1F201FB12000A2190FBF1F01E
:101A3000F74981F82900F54800684FF47A7190FB66
:101A4000F1F201FB1200642190FBF1F0F04981F802
:101A50002A00EE4800684FF47A7190FBF1F0EC49EF
:101A600081F82B00EB4800684FF47A7190FBF1F29B
:101A700001FB1200642190FBF1F201FB12000A212C
:101A800090FBF1F201FB1200E14981F82C00E148E2
:101A900000684FF47A7190FBF1F201FB12006421AF
:101AA00090FBF1F201FB12000A2190FBF1F0D84902
:101AB00081F82D00D74800684FF47A7190FBF1F25D
:101AC00001FB1200642190FBF1F0D14981F82E0056
:101AD000D04800684FF47A7190FBF1F0CC4981F85E
:101AE0002F00322400200CF07EF92246C849002045
:101AF0000CF067F964200DF01EF810BD08B5012147
:101B000014200DF033FC4FF48060ADF8000010207D
:101B10008DF8030003208DF802006946BE480DF0E1
:101B200069F94FF48061BC480DF011FA0220ADF85C
:101B3000000010208DF8030003208DF80200694694
:101B4000B6480DF057F90221B4480DF000FA2020F4
:101B5000ADF800006946B1480DF04CF92021AF48BE
:101B60000DF0F7F91020ADF800006946AB480DF014
:101B700041F91021A9480DF0EAF908BD08B5012185
:101B800004200DF0F3FB4020ADF8000010208DF88C
:101B9000030003208DF802006946A0480DF02AF9E1
:101BA00008BD10B5044640219C480DF0D0F9A0B204
:101BB0000CF0C1FF402199480DF0CBF910BD03B5E1
:101BC00083B003981A2882F00184DFE810F01A002D
:101BD0001C00DB00D2014F027803D0097B045105C1
:101BE000B00ADC0FE61015067006EB0683070A083C
:101BF000B9087109930BAE0CD50DD20EFA11A113D1
:101C0000E91302F0E3BB0AF03CFB002108460AF0AE
:101C10009AF80122082102200AF03AF80121022054
:101C20000AF079F8012104200AF075F80AF0EAFABE
:101C30007B480078642190FBF1F201FB12000A213D
:101C400090FBF1F201FB1200C0B2014602901A2093
:101C50000AF08FF872480078642190FBF1F201FBE2
:101C600012000A2190FBF1F0C0B2014602901C2044
:101C70000AF07FF86A480078642190FBF1F0C0B266
:101C8000014602901E200AF074F8049810B1012851
:101C900076D13AE062480078401E614908700846F3
:101CA0000078012801DAFE2008700AF0ABFA5C48DF
:101CB0000078642190FBF1F201FB12000A2190FBF5
:101CC000F1F201FB1200C0B2014602901A200AF0A4
:101CD00050F853480078642190FBF1F201FB1200A8
:101CE0000A2190FBF1F0C0B2014602901C200AF0DC
:101CF00040F84B480078642190FBF1F0C0B20146F7
:101D000002901E200AF035F83AE045480078401C61
:101D10004349087008460078FE2801DD012008705C
:101D20000AF070FA3E480078642190FBF1F201FB62
:101D300012000A2190FBF1F201FB1200C0B2014631
:101D400002901A200AF015F835480078642190FBBB
:101D5000F1F201FB12000A2190FBF1F0C0B2014642
:101D600002901C200AF005F82D480078642190FBB1
:101D7000F1F0C0B2014602901E2009F0FAFF00BF48
:101D800000BF3EE70AF07DFA0221002009F0DBFFE8
:101D900001220821022009F07BFF012208210220F4
:101DA00009F0B4FE0121022009F0CDFF0221042038
:101DB00009F0B1FF0AF026FA1A481B49096850F8E1
:101DC00021001A49086008460068642190FBF1F080
:101DD0000A2190FBF1F201FB1200C0B20146029011
:101DE0001A2009F0C6FF11480068642190FBF1F049
:101DF0000A2190FBF1F090FBF1F201FB1200C0B25E
:101E0000014602901C2009F0B4FF11E0C803002035
:101E1000F7070020CC03002000100140000801401B
:101E2000C0020020CC020020C8020020C402002012
:101E3000F748006842F2107190FBF1F0C0B2014621
:101E400002901E2009F095FF049810B1012846D198
:101E500046E0F0480068401EEE4908600846006809
:101E6000002801DA04200860EB48EA49096850F8C4
:101E70002100E7490860084600680CF098FE0AF067
:101E8000C1F9E3480068642190FBF1F00A2190FB5E
:101E9000F1F201FB1200C0B2014602901A2009F0D3
:101EA00068FFDB480068642190FBF1F00A2190FB99
:101EB000F1F090FBF1F201FB1200C0B2014602907A
:101EC0001C2009F056FFD248006842F2107190FBC6
:101ED000F1F0C0B2014602901E2009F04AFF46E030
:101EE000CC480068401CCB490860084600680428BC
:101EF00001DD00200860C848C649096850F8210083
:101F0000C3490860084600680CF051FE0AF07AF9EF
:101F1000BF480068642190FBF1F00A2190FBF1F2C8
:101F200001FB1200C0B2014602901A2009F021FF05
:101F3000B7480068642190FBF1F00A2190FBF1F0B2
:101F400090FBF1F201FB1200C0B2014602901C208E
:101F500009F00FFFAE48006842F2107190FBF1F0FB
:101F6000C0B2014602901E2009F003FF00BF00BF6F
:101F700047E60AF086F90821002009F0E4FE012274
:101F80000821022009F084FE0721022009F0DBFE6F
:101F90000321042009F0BFFEA048006801280AD1EF
:101FA0000AF030F90A211A2009F0F9FE00211C205C
:101FB00009F0DFFE0DE00AF025F905211A2009F0ED
:101FC000EEFE05211C2009F0EAFE00211E2009F08A
:101FD000D0FE049810B1012846D122E08F48006855
:101FE00068B901208D4908600AF00CF90A211A200D
:101FF00009F0D5FE00211C2009F0BBFE10E00020F6
:10200000864908600AF0FEF805211A2009F0C7FE8B
:1020100005211C2009F0C3FE00211E2009F0A9FEA5
:1020200022E07E48006868B901207C4908600AF017
:10203000E9F80A211A2009F0B2FE00211C2009F05B
:1020400098FE10E00020754908600AF0DBF80521D1
:102050001A2009F0A4FE05211C2009F0A0FE002191
:102060001E2009F086FE00BF00BFCAE50AF009F98C
:102070000B21002009F067FE01220821022009F04F
:1020800007FE0321022009F05EFE0421084609F044
:1020900042FE0121172009F0C0FE0AF0B3F86048A3
:1020A000006800280ADA01220821072009F0F0FD63
:1020B0005B48006840425B49086008E05848006897
:1020C0005849086000220821072009F0E1FD00219D
:1020D0001A2009F04EFE012211461C2009F0D8FDFD
:1020E000504800680A2190FBF1F201FB1200C0B2D7
:1020F000014602901C2009F078FE4A4800680A2137
:1021000090FBF1F0C0B2014602901E2009F031FEB2
:10211000049810B101287AD188E04348006840490A
:10212000096888422BDB0AF06DF83D4800680028FA
:102130000ADA01220821072009F0AAFD38480068C0
:1021400040423849086008E0354800683549086071
:1021500000220821072009F09BFD0022082107200A
:1021600009F096FD08211A2009F019FE08211C200B
:1021700009F015FE06211E2009F011FE47E028484F
:102180000068401E264908600846006810F1280FC4
:1021900002DA6FF0270008600AF034F8204800687F
:1021A00000280ADA01220821072009F071FD1C48E5
:1021B000006840421B49086008E019480068194956
:1021C000086000220821072009F062FD00211A2082
:1021D00009F0CFFD012211461C2009F059FD1148DC
:1021E00000680A2190FBF1F201FB1200C0B2014627
:1021F00002901C2009F0F9FD0A4800680A2190FBB2
:10220000F1F0C0B2014602901E2009F0B2FD54E088
:10221000C4020020C8020020CC020020E0020020FE
:10222000E4020020F0020020E8020020FE480068DE
:10223000401CFD49086008460068502801DD502018
:10224000086009F0DFFFF848006800280ADA012278
:102250000821072009F01CFDF34800684042F349BB
:10226000086008E0F0480068F04908600022082192
:10227000072009F00DFD00211A2009F07AFD012246
:1022800011461C2009F004FDE84800680A2190FB73
:10229000F1F201FB1200C0B2014602901C2009F0CD
:1022A000A4FDE24800680A2190FBF1F0C0B20146AB
:1022B00002901E2009F05DFD00BF00BFA1E409F0FF
:1022C000E0FF0421002009F03EFD01220821022048
:1022D00009F0DEFC0321022009F035FD0421084647
:1022E00009F019FD0121172009F097FD09F08AFF77
:1022F000CF48006800280ADA01220821072009F0E7
:10230000C7FCCB4800684042CA49086008E0C8489A
:102310000068C849086000220821072009F0B8FCBD
:1023200000211A2009F025FD012211461C2009F088
:10233000AFFCC04800680A2190FBF1F201FB1200DB
:10234000C0B2014602901C2009F04FFDB948006858
:102350000A2190FBF1F0C0B2014602901E2009F064
:1023600008FD049810B1012848D148E0B048006841
:10237000401EAF4908600846006810F1280F02DAD5
:102380006FF02700086009F03DFFA94800680028A9
:102390000ADA01220821072009F07AFCA448006823
:1023A0004042A449086008E0A1480068A1490860CB
:1023B00000220821072009F06BFC00211A2009F0F7
:1023C000D8FC012211461C2009F062FC99480068E3
:1023D0000A2190FBF1F201FB1200C0B2014602900B
:1023E0001C2009F002FD934800680A2190FBF1F0DF
:1023F000C0B2014602901E2009F0BBFC60E08C4890
:10240000006889490968884213DB09F0FBFE002255
:102410000821072009F03CFC08211A2009F0BFFC24
:1024200008211C2009F0BBFC06211E2009F0B7FC86
:1024300045E07F480068401C7D4908600846006808
:10244000502801DD5020086009F0DCFE7848006863
:1024500000280ADA01220821072009F019FC744833
:10246000006840427349086008E07148006871499B
:10247000086000220821072009F00AFC00211A2028
:1024800009F077FC012211461C2009F001FC694883
:1024900000680A2190FBF1F201FB1200C0B2014674
:1024A00002901C2009F0A1FC624800680A2190FB00
:1024B000F1F0C0B2014602901E2009F05AFC00BFA4
:1024C00000BF5EE400220821072009F0E1FB09F0CB
:1024D000D8FE0B21002009F036FC01220821022041
:1024E00009F0D6FB0B21022009F02DFC042108463F
:1024F00009F011FC09F086FE00220821072009F0EE
:10250000C7FB00211A2009F070FC012211461C2093
:1025100009F0BEFB484800680A2190FBF1F201FB7C
:102520001200C0B2014602901C2009F05EFC424835
:1025300000680A2190FBF1F0C0B2014602901E2013
:1025400009F017FC049810B101284DD14DE03A482C
:1025500000683A490968884213DC09F053FE0022FA
:102560000821072009F094FB08211A2009F017FC24
:1025700008211C2009F013FC06211E2009F00FFC85
:1025800032E02D480068401E2B490860084600686C
:10259000002801DA0120086009F034FE0022082139
:1025A000072009F075FB00211A2009F01EFC01220A
:1025B00011461C2009F06CFB1F4800680A2190FBA3
:1025C000F1F201FB1200C0B2014602901C2009F09A
:1025D0000CFC194800680A2190FBF1F0C0B20146DA
:1025E00002901E2009F0C5FB40E013480068401C23
:1025F0001149086008460068632801DD632008600F
:1026000009F000FE00220821072009F041FB00210B
:102610001A2009F0EAFB012211461C2009F038FBC0
:10262000054800680A210BE0E4020020F0020020C7
:10263000E8020020EC020020F4020020F802002052
:1026400090FBF1F201FB1200C0B2014602901C2087
:1026500009F0CBFBFE4800680A2190FBF1F0C0B204
:10266000014602901E2009F084FB00BF00BF7FE4FA
:1026700009F007FE0421002009F065FB0122082172
:10268000022009F005FB0B21022009F05CFB04216C
:10269000084609F040FB09F0B5FD0022082107209B
:1026A00009F0F6FA00211A2009F09FFB01221146D9
:1026B0001C2009F0EDFAE74800680A2190FBF1F2CE
:1026C00001FB1200C0B2014602901C2009F08DFBF4
:1026D000E04800680A2190FBF1F0C0B20146029088
:1026E0001E2009F046FB049810B1012833D133E0D5
:1026F000D8480068401ED74908600846006800288E
:1027000001DA0020086009F07DFD00220821072081
:1027100009F0BEFA00211A2009F067FB01221146D8
:102720001C2009F0B5FACB4800680A2190FBF1F2B1
:1027300001FB1200C0B2014602901C2009F055FBBB
:10274000C44800680A2190FBF1F0C0B20146029033
:102750001E2009F00EFB4DE0BD480068BD49096828
:10276000884213DC09F04EFD00220821072009F001
:102770008FFA08211A2009F012FB08211C2009F009
:102780000EFB06211E2009F00AFB32E0B14800686A
:10279000401CB049086008460068632801DD6320DA
:1027A000086009F02FFD00220821072009F070FAC7
:1027B00000211A2009F019FB012211461C2009F002
:1027C00067FAA44800680A2190FBF1F201FB1200AD
:1027D000C0B2014602901C2009F007FB9D4800682A
:1027E0000A2190FBF1F0C0B2014602901E2009F0D0
:1027F000C0FA00BF00BF38E409F043FD0521002006
:1028000009F0A1FA01220821022009F041FA03216E
:10281000022009F098FA0621042009F07CFA01212F
:10282000172009F0FAFA09F0EDFC8B48006801283E
:1028300004D105211C2009F0B2FA03E003211C2079
:1028400009F0ADFA049810B101282ED116E08248A3
:10285000006848B901208049086009F0D3FC0521CF
:102860001C2009F09CFA08E000207B49086009F070
:10287000C9FC03211C2009F092FA16E07648006892
:1028800048B901207449086009F0BCFC05211C20EE
:1028900009F085FA08E000206F49086009F0B2FCF1
:1028A00003211C2009F07BFA00BF00BF06E509F0F8
:1028B000E8FC0821002009F046FA01220821022044
:1028C00009F0E6F90521022009F03DFA072104206C
:1028D00009F021FA09F096FC60480068012808D147
:1028E0000A211A2009F05BFA00211C2009F041FAA4
:1028F0000BE005211A2009F052FA05211C2009F0ED
:102900004EFA00211E2009F034FA049810B1012873
:1029100046D122E05148006868B901204F4908605B
:1029200009F070FC0A211A2009F039FA00211C2054
:1029300009F01FFA10E000204849086009F062FC25
:1029400005211A2009F02BFA05211C2009F027FA8D
:1029500000211E2009F00DFA22E04048006868B905
:1029600001203E49086009F04DFC0A211A2009F0B7
:1029700016FA00211C2009F0FCF910E0002037496C
:10298000086009F03FFC05211A2009F008FA05212A
:102990001C2009F004FA00211E2009F0EAF900BF0A
:1029A00000BF8BE409F06DFC0121002009F0B3F9B0
:1029B00001220821022009F06BF90321022009F00D
:1029C000C2F90821042009F0A6F909F01BFC2448EB
:1029D000006838B90A211A2009F0E1F900211C2009
:1029E00009F0C7F91E48006801280BD105211A20FB
:1029F00009F0D5F905211C2009F0D1F900211E208C
:102A000009F0B7F9049810B1012861D135E01448F4
:102A10000068401E1249086008460068002801DA74
:102A2000012008600E48006848B909F0EBFB0A2154
:102A30001A2009F0B4F900211C2009F09AF908487D
:102A40000068012818D109F0DDFB05211A2009E0F2
:102A5000F4020020F8020020FC0200200003002005
:102A60000403002009F09BF905211C2009F097F9C7
:102A700000211E2009F07DF92AE0FE480068401C74
:102A8000FC49086008460068012801DD0020086054
:102A9000F848006848B909F0B5FB0A211A2009F086
:102AA0007EF900211C2009F064F9F2480068012831
:102AB0000DD109F0A7FB05211A2009F070F90521B5
:102AC0001C2009F06CF900211E2009F052F900BF0A
:102AD00000BFF6E409F0D5FB0221002009F01BF944
:102AE00001220821022009F0D3F80321022009F075
:102AF0002AF90821042009F00EF909F083FBDE48C9
:102B0000006801280CD103211A2009F048F9092195
:102B10001C2009F044F903211E2009F040F90BE0C4
:102B200000211A2009F03BF908211C2009F037F98F
:102B300000211E2009F01DF9049810B101284ED182
:102B400026E0CD48006888B90120CB49086009F02B
:102B500059FB03211A2009F022F909211C2009F050
:102B60001EF903211E2009F01AF910E00020C249C5
:102B7000086009F047FB00211A2009F010F908212C
:102B80001C2009F00CF900211E2009F0F2F826E0C3
:102B9000B948006888B90120B749086009F032FBDC
:102BA00003211A2009F0FBF809211C2009F0F7F88D
:102BB00003211E2009F0F3F810E00020AE49086060
:102BC00009F020FB00211A2009F0E9F808211C2057
:102BD00009F0E5F800211E2009F0CBF800BF00BF86
:102BE0006FE409F04EFB0321002009F094F8012264
:102BF0000821022009F04CF80321022009F0A3F873
:102C00000821042009F087F809F0FCFA9B480068C5
:102C10000A2190FBF1F201FB1200C0B201460290C2
:102C20001A2009F0A6F8954800680A2190FBF1F0F7
:102C300090FBF1F201FB1200C0B2014602901C2091
:102C400009F097F88D480068642190FBF1F0C0B25C
:102C5000014602901E2009F08CF8049810B101285A
:102C60006CD135E085480068401E844908600846FC
:102C70000068012802DA4FF41670086009F0C2FA01
:102C80007E4800680A2190FBF1F201FB1200C0B2FD
:102C9000014602901A2009F06CF8784800680A2171
:102CA00090FBF1F090FBF1F201FB1200C0B2014683
:102CB00002901C2009F05DF870480068642190FBC8
:102CC000F1F0C0B2014602901E2009F052F835E042
:102CD0006A480068401C6949086008460068B0F509
:102CE000167F01DD0120086009F08CFA6348006856
:102CF0000A2190FBF1F201FB1200C0B201460290E2
:102D00001A2009F036F85D4800680A2190FBF1F0BE
:102D100090FBF1F201FB1200C0B2014602901C20B0
:102D200009F027F855480068642190FBF1F0C0B223
:102D3000014602901E2009F01CF800BF00BF96E477
:102D400009F09FFA0421002008F0E5FF0122082184
:102D5000022008F09DFF0321022008F0F4FF082163
:102D6000042008F0D8FF09F04DFA454800680A2110
:102D700090FBF1F201FB1200C0B2014602901A2052
:102D800008F0F7FF3E4800680A2190FBF1F090FB45
:102D9000F1F201FB1200C0B2014602901C2008F0C3
:102DA000E8FF37480068642190FBF1F0C0B20146AB
:102DB00002901E2008F0DDFF049810B1012875D1A3
:102DC00035E02F480068401E2D490860084600681D
:102DD000012802DA4FF41670086009F013FA284847
:102DE00000680A2190FBF1F201FB1200C0B201461B
:102DF00002901A2008F0BDFF214800680A2190FBCC
:102E0000F1F090FBF1F201FB1200C0B2014602901A
:102E10001C2008F0AEFF1A480068642190FBF1F016
:102E2000C0B2014602901E2008F0A3FF3EE0144805
:102E30000068401C1249086008460068B0F5167F1B
:102E400001DD0120086009F0DDF90D4800680A2164
:102E500090FBF1F201FB1200C0B2014602901A2071
:102E600008F087FF064800680A2190FBF1F090FB0C
:102E7000F1F207E004030020080300200C03002007
:102E80001003002001FB1200C0B2014602901C207A
:102E900008F06FFFFE480068642190FBF1F0C0B2BB
:102EA000014602901E2008F064FF00BF00BFA2E4AC
:102EB00009F0E7F90521002008F02DFF0122082183
:102EC000022008F0E5FE0321022008F03CFF082163
:102ED000042008F020FF09F095F9EE4800680A2167
:102EE00090FBF1F201FB1200C0B2014602901A20E1
:102EF00008F03FFF049810B1012836D11AE0E548E8
:102F00000068401EE349086008460068002801DAAE
:102F10000120086009F076F9DE4800680A2190FB7C
:102F2000F1F201FB1200C0B2014602901A2008F033
:102F300020FF1AE0D7480068401CD64908600846C0
:102F40000068012801DD0020086009F05BF9D14824
:102F500000680A2190FBF1F201FB1200C0B20146A9
:102F600002901A2008F005FF00BF00BF43E409F0FB
:102F700088F900220821072008F08AFE0022082193
:102F80000A2008F085FE0021084608F0DCFE012238
:102F90000821022008F07CFE0321022008F0D3FE65
:102FA0000421084608F0B7FE0121172008F035FF7C
:102FB00009F028F9B84800680A2190FBF1F201FBFA
:102FC0001200C0B2014602901A2008F0D2FE01227F
:102FD00011461C2008F05CFEAF4800680A2190FBF7
:102FE000F1F090FBF1F201FB1200C0B20146029039
:102FF0001C2008F0FAFEA8480068642190FBF1F05C
:10300000C0B2014602901E2008F0B3FE049810B131
:10301000012839D139E0A0480068401E9E49086067
:1030200008460068002801DA0020086009F0EAF884
:10303000994800680A2190FBF1F201FB1200C0B22E
:10304000014602901A2008F094FE012211461C202D
:1030500008F01EFE904800680A2190FBF1F090FBFA
:10306000F1F201FB1200C0B2014602901C2008F0F0
:10307000BCFE89480068642190FBF1F0C0B20146B3
:1030800002901E2008F075FE4FE083480068401C47
:10309000814908608148006881490968401A032114
:1030A00090FBF1F000EB80007B490968B1EB400F29
:1030B0000CDD7A4800687A490968401A032190FBC0
:1030C000F1F000EB800040007349086009F09AF8C5
:1030D000714800680A2190FBF1F201FB1200C0B2B6
:1030E000014602901A2008F044FE012211461C20DD
:1030F00008F0CEFD684800680A2190FBF1F090FBD3
:10310000F1F201FB1200C0B2014602901C2008F04F
:103110006CFE61480068642190FBF1F0C0B201468A
:1031200002901E2008F025FE00BF00BF39E409F020
:10313000A8F80021084608F006FE01220821022016
:1031400008F0A6FD0B21022008F0FDFD0421084631
:1031500008F0E1FD534800680A2190FBF1F201FB01
:103160001200C0B20246012102901C2008F090FD1E
:1031700009F048F800211A2008F037FE4948006895
:103180000A2190FBF1F090FBF1F201FB1200C0B2BA
:10319000014602901C2008F028FE42480068642185
:1031A00090FBF1F0C0B2014602901E2008F0E1FD54
:1031B000049810B1012839D139E03A480068401E1E
:1031C0003849086008460068002801DA00200860D5
:1031D00009F018F8334800680A2190FBF1F201FB6E
:1031E0001200C0B2014602901A2008F0FEFD012232
:1031F00011461C2008F04CFD2A4800680A2190FB6B
:10320000F1F090FBF1F201FB1200C0B20146029016
:103210001C2008F0EAFD23480068642190FBF1F0CF
:10322000C0B2014602901E2008F0A3FD60E01D48D8
:103230000068401C1B4908601B4800681B4909685E
:10324000401A032190FBF1F000EB8000154909685A
:10325000B1EB400F0CDD1448006814490968401AAE
:10326000032190FBF1F000EB800040000D49086065
:1032700008F0C8FF0B4800680A2190FBF1F201FB3F
:103280001200C0B2014602901A2008F0AEFD0FE015
:10329000100300202003002024030020E40200206B
:1032A000E80200202C030020F4020020F802002095
:1032B000012211461C2008F0EBFCFE4800680A21A0
:1032C00090FBF1F090FBF1F201FB1200C0B201465D
:1032D00002901C2008F089FDF6480068642190FBEC
:1032E000F1F0C0B2014602901E2008F042FD00BF7E
:1032F00000BF75E408F0C5FF0021084608F00BFD8B
:1033000001220821022008F0C3FC0321022008F05A
:103310001AFD0721042008F016FD0121172008F0EE
:103320007CFD08F06FFFE448006800280ADA0122FB
:103330000821072008F0ACFCDF4800684042DF4964
:10334000086008E0DC480068DC49086000220821C9
:10335000072008F09DFC00211A2008F00AFD012238
:1033600011461C2008F094FCD44800680A2190FB08
:10337000F1F201FB1200C0B2014602901C2008F0DD
:1033800034FDCE4800680A2190FBF1F0C0B201463E
:1033900002901E2008F0EDFC049810B1012848D1DD
:1033A00048E0C5480068401EC349086008460068F8
:1033B00010F1280F02DA6FF02700086008F022FFF2
:1033C000BD48006800280ADA01220821072008F019
:1033D0005FFCB94800684042B849086008E0B64858
:1033E0000068B649086000220821072008F050FC58
:1033F00000211A2008F0BDFC012211461C2008F013
:1034000047FCAE4800680A2190FBF1F201FB120074
:10341000C0B2014602901C2008F0E7FCA7480068F3
:103420000A2190FBF1F0C0B2014602901E2008F084
:10343000A0FC78E0A0480068A149096888422BDB1D
:1034400008F0E0FE9C48006800280ADA0122082102
:10345000072008F01DFC9848006840429749086022
:1034600008E0954800689549086000220821072077
:1034700008F00EFC00220821072008F009FC0821B2
:103480001A2008F08CFC08211C2008F088FC06217A
:103490001E2008F084FC45E087480068401C8649EF
:1034A000086008460068502801DD5020086008F0D8
:1034B000A9FE8148006800280ADA012208210720B5
:1034C00008F0E6FB7C48006840427C49086008E060
:1034D000794800687949086000220821072008F02F
:1034E000D7FB00211A2008F044FC012211461C20C1
:1034F00008F0CEFB714800680A2190FBF1F201FB55
:103500001200C0B2014602901C2008F06EFC6B480D
:1035100000680A2190FBF1F0C0B2014602901E2023
:1035200008F027FC00BF00BF09E408F0AAFE012153
:10353000002008F0F0FB01220821022008F0A8FB7F
:103540000321022008F0FFFB0721042008F0FBFB09
:103550000121172008F061FC08F054FE584800686B
:1035600000280ADA01220821072008F091FB5448BC
:10357000006840425349086008E0514800685149DA
:10358000086000220821072008F082FB00211A2091
:1035900008F0EFFB012211461C2008F079FB494896
:1035A00000680A2190FBF1F201FB1200C0B2014653
:1035B00002901C2008F019FC424800680A2190FB88
:1035C000F1F0C0B2014602901E2008F0D2FB049830
:1035D00010B1012878D186E0374800683849096879
:1035E00088422BDB08F00EFE3548006800280ADA16
:1035F00001220821072008F04BFB314800684042B7
:103600003049086008E02E4800682E490860002212
:103610000821072008F03CFB00220821072008F0C1
:1036200037FB08211A2008F0BAFB08211C2008F0FB
:10363000B6FB06211E2008F0B2FB53E020480068CC
:10364000401E1F4908600846006810F1280F02DA82
:103650006FF02700086008F0D5FD194800680028C1
:103660000ADA01220821072008F012FB144800683A
:1036700040421449086008E0114800681149086098
:1036800000220821072008F003FB00211A2008F07F
:1036900070FB012211461C2008F0FAFA0948006864
:1036A0000A2190FBF1F201FB1200C0B20146029028
:1036B0001C200AE02C0300203403002038030020E3
:1036C0003C0300204003002054E008F08EFBFE483D
:1036D00000680A2190FBF1F0C0B2014602901E2062
:1036E00008F047FB46E0F9480068401CF7490860CD
:1036F00008460068502801DD5020086008F082FD6F
:10370000F248006800280ADA01220821072008F0A0
:10371000BFFAEE4800684042EB49086008E0EB4819
:103720000068E949086000220821072008F0B0FA83
:1037300000211A2008F01DFB012211461C2008F070
:10374000A7FAE14800680A2190FBF1F201FB1200A0
:10375000C0B2014602901C2008F047FBDA4800681E
:103760000A2190FBF1F0C0B2014602901E2008F041
:1037700000FB00BF00BFD9E408F083FD002108462C
:1037800008F0C9FA01220821022008F081FA0B2171
:10379000022008F0D8FA0721042008F0D4FA08F033
:1037A00031FDCB48006800280ADA012208210720F1
:1037B00008F06EFAC64800684042C649086008E052
:1037C000C3480068C349086000220821072008F0A8
:1037D0005FFA00211A2008F008FB012211461C2084
:1037E00008F056FABB4800680A2190FBF1F201FB91
:1037F0001200C0B2014602901C2008F0F6FAB5484B
:1038000000680A2190FBF1F0C0B2014602901E2030
:1038100008F0AFFA049810B1012846D146E0AC4850
:103820000068401EAA49086008460068002801DABE
:103830000020086008F0E6FCA548006800280ADAC5
:1038400001220821072008F023FAA148006840421D
:10385000A049086008E09E4800689E490860002270
:103860000821072008F014FA00211A2008F0BDFAF8
:10387000012211461C2008F00BFA964800680A2124
:1038800090FBF1F201FB1200C0B2014602901C2035
:1038900008F0ABFA8F4800680A2190FBF1F0C0B243
:1038A000014602901E2008F064FA60E08848006833
:1038B00089490968884226DB08F0A4FC844800682E
:1038C00000280ADA01220821072008F0E1F98048DF
:1038D000006840427F49086008E07D4800687D49F3
:1038E000086000220821072008F0D2F908211A20D8
:1038F00008F055FA08211C2008F051FA06211E2074
:1039000008F04DFA33E072480068401C70490860C6
:1039100008460068632801DD0920086008F072FC91
:1039200000220821072008F0B3F900211A2008F02E
:103930005CFA012211461C2008F0AAF965480068CB
:103940000A2190FBF1F201FB1200C0B20146029085
:103950001C2008F04AFA5F4800680A2190FBF1F049
:10396000C0B2014602901E2008F003FA00BF00BF5B
:10397000BFE408F086FC0121002008F0CCF9012208
:103980000821022008F084F90B21022008F0DBF95D
:103990000721042008F0D7F908F034FC4E480068ED
:1039A00000280ADA01220821072008F071F94A48A4
:1039B000006840424949086008E0474800684749B4
:1039C000086000220821072008F062F900211A206F
:1039D00008F00BFA012211461C2008F059F93F4863
:1039E00000680A2190FBF1F201FB1200C0B201460F
:1039F00002901C2008F0F9F9384800680A2190FB71
:103A0000F1F0C0B2014602901E2008F0B2F904980D
:103A100010B101286DD16DE02D4800682E4909686C
:103A2000884213DB08F0EEFB00220821072008F093
:103A30002FF908211A2008F0B2F908211C2008F0FB
:103A4000AEF906211E2008F0AAF952E022480068CB
:103A5000401E2149086008460068002801DA00205D
:103A6000086008F0CFFB1C48006800280ADA012231
:103A70000821072008F00CF9174800684042174950
:103A8000086008E014480068144908600022082112
:103A9000072008F0FDF800211A2008F0A6F90122FD
:103AA00011461C2008F0F4F80C4800680A2190FB2D
:103AB000F1F201FB1200C0B2014602901C2008F096
:103AC00094F9064800680BE0400300203C03002006
:103AD00044030020480300204C0300205003002032
:103AE0000A2190FBF1F0C0B2014602901E2008F0BE
:103AF00040F946E0FE480068401CFD490860084661
:103B00000068632801DD6320086008F07BFBF8484B
:103B1000006800280ADA01220821072008F0B8F816
:103B2000F34800684042F349086008E0F048006844
:103B3000F049086000220821072008F0A9F80021B8
:103B40001A2008F052F9012211461C2008F0A0F8B2
:103B5000E84800680A2190FBF1F201FB1200C0B2B4
:103B6000014602901C2008F040F9E24800680A2152
:103B700090FBF1F0C0B2014602901E2008F0F9F867
:103B800000BF00BF1CE208F07CFB0021084608F0E3
:103B9000C2F801220821022008F07AF8032102204D
:103BA00008F0D1F80521042008F0B5F8012117200C
:103BB00008F033F908F026FBCF48006800280ADA3D
:103BC00001220821072008F063F8CB480068404232
:103BD000CA49086008E0C8480068C849086000226F
:103BE0000821072008F054F8C44800680A2190FB17
:103BF000F1F201FB1200C0B2014602901A2008F057
:103C0000B8F8012211461C2008F042F8BB480068B1
:103C10000A2190FBF1F090FBF1F201FB1200C0B21F
:103C2000014602901C2008F0E0F8B44800686421C6
:103C300090FBF1F0C0B2014602901E2008F099F806
:103C4000049810B1012853D153E0AB480068401EDE
:103C5000A94908600846006810F1640F02DA6FF0A5
:103C600063000860A448006800280ADA01220821DD
:103C7000072008F00DF8A048006840429F490860FE
:103C800008E09D4800689D4908600022082107203F
:103C900007F0FEFF08F0B6FA984800680A2190FB8A
:103CA000F1F201FB1200C0B2014602901A2008F0A6
:103CB00060F8012211461C2007F0EAFF8F480068D7
:103CC0000A2190FBF1F090FBF1F201FB1200C0B26F
:103CD000014602901C2008F088F88848006864219A
:103CE00090FBF1F0C0B2014602901E2008F041F8AE
:103CF00051E081480068401C7F4908600846006820
:103D0000642801DD642008607B48006800280ADA26
:103D100001220821072007F0BBFF774800684042D6
:103D20007649086008E07448006874490860002219
:103D30000821072007F0ACFF08F064FA6F4800681C
:103D40000A2190FBF1F201FB1200C0B20146029081
:103D50001A2008F00EF8012211461C2007F098FFE7
:103D6000664800680A2190FBF1F090FBF1F201FB3C
:103D70001200C0B2014602901C2008F036F85F48DD
:103D80000068642190FBF1F0C0B2014602901E2051
:103D900007F0EFFF00BF00BF18E308F072FA002140
:103DA000084607F0B8FF01220821022007F070FF43
:103DB0000B21022007F0C7FF0521042007F0ABFF0D
:103DC00008F020FA4E48006800280ADA012208218B
:103DD000072007F05DFF4A480068404249490860F3
:103DE00008E047480068474908600022082107208A
:103DF00007F04EFF434800680A2190FBF1F201FBF7
:103E00001200C0B2014602901A2007F0EEFF012214
:103E100011461C2007F03CFF3A4800680A2190FB3D
:103E2000F1F090FBF1F201FB1200C0B201460290EA
:103E30001C2007F0DAFF33480068642190FBF1F0A2
:103E4000C0B2014602901E2007F093FF049810B103
:103E5000012861D161E02A480068401E28490860B5
:103E60000846006810F1640F02DA6FF06300086022
:103E70002348006800280ADA01220821072007F0F9
:103E800007FF1F48006840421E49086008E01C48C0
:103E900000681C49086000220821072007F0F8FE8E
:103EA00008F0B0F9174800680A2190FBF1F201FB15
:103EB0001200C0B2014602901A2007F096FF0122BC
:103EC00011461C2007F0E4FE0E4800680A2190FB12
:103ED000F1F090FBF1F201FB1200C0B2014602903A
:103EE0001C2007F082FF0748006864210CE00000F6
:103EF0004C030020500300205403002058030020EE
:103F00005C0300206003002090FBF1F0C0B201468A
:103F100002901E2007F02DFF51E0F9480068401C78
:103F2000F749086008460068642801DD64200860DD
:103F3000F348006800280ADA01220821072007F068
:103F4000A7FEEF4800684042EE49086008E0EC48F0
:103F50000068EC49086000220821072007F098FE5D
:103F600008F050F9E74800680A2190FBF1F201FBE4
:103F70001200C0B2014602901A2007F036FF01225B
:103F800011461C2007F084FEDE4800680A2190FBE1
:103F9000F1F090FBF1F201FB1200C0B20146029079
:103FA0001C2007F022FFD7480068642190FBF1F045
:103FB000C0B2014602901E2007F0DBFE00BF00BF2A
:103FC00004E208F05EF90821002007F0BCFE07219A
:103FD000022007F0B8FE0121042007F0B4FE002201
:103FE0000821072007F054FE08F00CF94FF080413B
:103FF000C54800680EF086FA0290C4480068014681
:10400000019002980EF04AFA08D201211C2007F014
:10401000B0FE00211A2007F0ACFE70E14FF08041A5
:10402000B94800680EF06EFA0290B8484068014640
:10403000019002980EF032FA17D24FF08041B24848
:1040400000680EF05FFA0290B048006801460190E7
:1040500002980EF023FB08D802211C2007F089FEED
:1040600000211A2007F085FE49E14FF08041A64863
:1040700000680EF047FA0290A4488068014601905B
:1040800002980EF00BFA17D24FF080419E4800685C
:104090000EF038FA02909D4840680146019002985F
:1040A0000EF0FCFA08D803211C2007F062FE002164
:1040B0001A2007F05EFE22E14FF08041924800682E
:1040C0000EF020FA02909148C068014601900298D3
:1040D0000EF0E4F917D24FF080418B4800680EF0E3
:1040E00011FA0290894880680146019002980EF00A
:1040F000D5FA08D804211C2007F03BFE00211A2025
:1041000007F037FEFBE04FF080417F4800680EF07B
:10411000F9F902907D4800690146019002980EF07D
:10412000BDF917D24FF08041774800680EF0EAF9E8
:1041300002907648C0680146019002980EF0AEFAEF
:1041400008D805211C2007F014FE00211A2007F0D2
:1041500010FED4E04FF080416B4800680EF0D2F9B9
:1041600002906A4840690146019002980EF096F963
:1041700017D24FF08041644800680EF0C3F90290F6
:10418000624800690146019002980EF087FA08D84B
:1041900006211C2007F0EDFD00211A2007F0E9FDA3
:1041A000ADE04FF08041584800680EF0ABF9029046
:1041B000564880690146019002980EF06FF917D2B7
:1041C0004FF08041504800680EF09CF902904F4833
:1041D00040690146019002980EF060FA08D8072164
:1041E0001C2007F0C6FD00211A2007F0C2FD86E062
:1041F0004FF08041444800680EF084F90290434833
:10420000C0690146019002980EF048F917D24FF0AC
:1042100080413D4800680EF075F902903B48806986
:104220000146019002980EF039FA08D808211C20A6
:1042300007F09FFD00211A2007F09BFD5FE04FF083
:104240008041314800680EF05DF902902F48006A05
:104250000146019002980EF021F917D24FF08041EB
:10426000294800680EF04EF902902848C0690146BE
:10427000019002980EF012FA08D809211C2007F0CC
:1042800078FD00211A2007F074FD38E04FF08041DE
:104290001D4800680EF036F902901C48406A01463D
:1042A000019002980EF0FAF80ED24FF080411648B5
:1042B00000680EF027F902901448006A0146019048
:1042C00002980EF0EBF90ED94FF080410E480068CD
:1042D0000EF018F902900D48406A014601900298CC
:1042E0000EF0DCF90BD801211E2007F042FD002161
:1042F0001C2007F03EFD00211A2007F03AFD65E082
:104300005C03002060030020DC030020E8030020A1
:1043100007F0B7FF0421002007F015FD0621022059
:1043200007F011FD0521042007F0F5FC07F06AFFF6
:10433000FE480078014602901A2007F01AFD049802
:1043400010B101282AD114E0F8480068401EF7494E
:10435000086008460068012801DA0420086007F0B8
:1043600051FFF2480078014602901A2007F001FD43
:1043700014E0EE480068401CEC49086008460068FC
:10438000042801DD0120086007F03CFFE7480078C1
:10439000014602901A2007F0ECFC00BF00BF15E0B8
:1043A00007F06FFF0621022007F0B5FC0121042071
:1043B00007F0B1FC07F026FF0120DD49086000206E
:1043C000DC4908600120DC49086000BF00BF05B07F
:1043D00000BD03B583B003981A2882F02683DFE876
:1043E00010F01A001C00DB00D0014D024B035604F4
:1043F0000B05BB0521069C062907B0076A081909A9
:104400007809410AFD0A060C040DFC0D010F0B1082
:104410001E11C6120E1302F008BB07F032FF002176
:10442000084607F090FC01220821022007F030FC2A
:104430000121022007F06FFC0121042007F06BFC32
:1044400007F0E0FEBD480078642190FBF1F201FB2B
:1044500012000A2190FBF1F201FB1200C0B20146EA
:1044600002901A2007F085FCB4480078642190FB84
:10447000F1F201FB12000A2190FBF1F0C0B20146FB
:1044800002901C2007F075FCAC480078642190FB7A
:10449000F1F0C0B2014602901E2007F06AFC0498B9
:1044A00010B1012876D13AE0A4480078401EA34913
:1044B000087008460078012801DAFE20087007F02D
:1044C000A1FE9E480078642190FBF1F201FB1200EE
:1044D0000A2190FBF1F201FB1200C0B201460290EA
:1044E0001A2007F046FC95480078642190FBF1F211
:1044F00001FB12000A2190FBF1F0C0B201460290CC
:104500001C2007F036FC8D480078642190FBF1F008
:10451000C0B2014602901E2007F02BFC3AE087480B
:104520000078401C8549087008460078FE2801DDA7
:104530000120087007F066FE80480078642190FB37
:10454000F1F201FB12000A2190FBF1F201FB1200D3
:10455000C0B2014602901A2007F00BFC77480078A1
:10456000642190FBF1F201FB12000A2190FBF1F0B3
:10457000C0B2014602901C2007F0FBFB6F48007898
:10458000642190FBF1F0C0B2014602901E2007F0BA
:10459000F0FB00BF00BF3EE707F073FE02210020E2
:1045A00007F0D1FB01220821022007F071FB012254
:1045B0000821022007F0AAFA0121022007F0C3FB1C
:1045C0000221042007F0A7FB07F01CFE5C485D49B0
:1045D000096850F821005C490860084600686421B9
:1045E00090FBF1F00A2190FBF1F201FB1200C0B246
:1045F000014602901A2007F0BCFB53480068642172
:1046000090FBF1F00A2190FBF1F090FBF1F201FB3D
:104610001200C0B2014602901C2007F0AAFB4A48D3
:10462000006842F2107190FBF1F0C0B201460290B6
:104630001E2007F09EFB049810B1012846D146E0E9
:1046400040480068401E3F4908600846006800284E
:1046500001DA042008603A483A49096850F8210014
:1046600039490860084600680AF0A1FA07F0CAFD57
:1046700035480068642190FBF1F00A2190FBF1F2CB
:1046800001FB1200C0B2014602901A2007F071FB34
:104690002D480068642190FBF1F00A2190FBF1F0B5
:1046A00090FBF1F201FB1200C0B2014602901C2007
:1046B00007F05FFB2448006842F2107190FBF1F0B4
:1046C000C0B2014602901E2007F053FB57E01D4880
:1046D0000068401C1B49086008460068042801DD8A
:1046E0000020086016481749096850F8210016494B
:1046F0000860084600680AF05AFA07F083FD12487D
:104700000068642190FBF1F00A2190FBF1F201FBBB
:104710001200C0B2014602901A2007F02AFB0A4894
:104720000068642190FBF1F00A210FE018030020DB
:1047300084030020700300208C030020C0020020AE
:10474000CC020020C8020020C402002090FBF1F03F
:1047500090FBF1F201FB1200C0B2014602901C2056
:1047600007F007FBFE48006842F2107190FBF1F081
:10477000C0B2014602901E2007F0FBFA00BF00BF46
:1047800049E607F07EFD0821002007F0DCFA01224F
:104790000821022007F07CFA0721022007F0D3FA53
:1047A0000321042007F0B7FAEE48006801280AD177
:1047B00007F028FD0A211A2007F0F1FA00211C2039
:1047C00007F0D7FA0DE007F01DFD05211A2007F0CC
:1047D000E6FA05211C2007F0E2FA00211E2007F06E
:1047E000C8FA049810B1012846D122E0DD480068DB
:1047F00068B90120DB49086007F004FD0A211A208E
:1048000007F0CDFA00211C2007F0B3FA10E00020D9
:10481000D449086007F0F6FC05211A2007F0BFFA1A
:1048200005211C2007F0BBFA00211E2007F0A1FA89
:1048300022E0CC48006868B90120CA49086007F046
:10484000E1FC0A211A2007F0AAFA00211C2007F037
:1048500090FA10E00020C349086007F0D3FC05215E
:104860001A2007F09CFA05211C2007F098FA002175
:104870001E2007F07EFA00BF00BFCCE507F001FD67
:104880000B21002007F05FFA01220821022007F027
:10489000FFF90321022007F056FA0421084607F029
:1048A0003AFA0121172007F0B8FA07F0ABFCAE483E
:1048B000006800280ADA01220821072007F0E8F939
:1048C000A94800684042A949086008E0A648006875
:1048D000A649086000220821072007F0D9F9002125
:1048E0001A2007F046FA012211461C2007F0D0F9E1
:1048F0009E4800680A2190FBF1F201FB1200C0B251
:10490000014602901C2007F070FA984800680A21BE
:1049100090FBF1F0C0B2014602901E2007F029FA88
:10492000049810B1012875D175E0914800688E494E
:104930000968884226DD07F065FC8B48006800287E
:104940000ADA01220821072007F0A2F98648006848
:1049500040428649086008E083480068834908604F
:1049600000220821072007F093F908211A2007F0F8
:1049700016FA08211C2007F012FA06211E2007F063
:104980000EFA47E078480068401E774908600846FC
:10499000006810F1280F02DA6FF02700086007F0B6
:1049A00031FC7148006800280ADA0122082107203A
:1049B00007F06EF96C48006840426C49086008E0F6
:1049C000694800686949086000220821072007F04B
:1049D0005FF900211A2007F0CCF9012211461C20B2
:1049E00007F056F9614800680A2190FBF1F201FBDB
:1049F0001200C0B2014602901C2007F0F6F95B4895
:104A000000680A2190FBF1F0C0B2014602901E201E
:104A100007F0AFF92EE054480068401C5249086086
:104A200008460068502801DD5020086007F0EAFBC6
:104A300000211A2007F09DF9012211461C2007F0E1
:104A400027F94A4800680A2190FBF1F201FB1200A5
:104A5000C0B2014602901C2007F0C7F94348006825
:104A60000A2190FBF1F0C0B2014602901E2007F02F
:104A700080F900BF00BFCEE407F003FC0421002052
:104A800007F061F901220821022007F001F9032152
:104A9000022007F058F90521042007F03CF9012114
:104AA000172007F0BAF907F0ADFB3148006800287D
:104AB0000ADA01220821072007F0EAF82C480068EA
:104AC00040422C49086008E02948006829490860EC
:104AD00000220821072007F0DBF800211A2007F048
:104AE00048F9012211461C2007F0D2F8214800683D
:104AF0000A2190FBF1F201FB1200C0B201460290C4
:104B00001C2007F072F91B4800680A2190FBF1F0A5
:104B1000C0B2014602901E2007F02BF9049810B194
:104B2000012855D155E012480068401E1049086020
:104B30000846006810F1280F02DA6FF027000860BD
:104B400007F060FB0A480068002817DA01220821F4
:104B5000072007F09DF806480068404205490BE031
:104B6000C4020020E0020020E4020020F002002045
:104B7000E8020020EC020020086008E0FE4800681F
:104B8000FE49086000220821072007F081F8002173
:104B90001A2007F0EEF8012211461C2007F078F8E1
:104BA000F64800680A2190FBF1F201FB1200C0B246
:104BB000014602901C2007F018F9F04800680A210D
:104BC00090FBF1F0C0B2014602901E2007F0D1F830
:104BD0005BE0E9480068EA49096888420EDD07F0B1
:104BE00011FB08211A2007F0DAF808211C2007F031
:104BF000D6F806211E2007F0D2F845E0DE4800680E
:104C0000401CDD49086008460068502801DD50203E
:104C1000086007F0F7FAD848006800280ADA01228D
:104C20000821072007F034F8D34800684042D349F0
:104C3000086008E0D0480068D049086000220821D8
:104C4000072007F025F800211A2007F092F801222A
:104C500011461C2007F01CF8C84800680A2190FB88
:104C6000F1F201FB1200C0B2014602901C2007F0D5
:104C7000BCF8C24800680A2190FBF1F0C0B20146BE
:104C800002901E2007F075F800BF00BF83E40022E9
:104C90000821072006F0FCFF07F0F3FA0B210020A3
:104CA00007F051F801220821022006F0F1FF0B2144
:104CB000022007F048F80621042007F02CF807F03E
:104CC000A1FA00211A2007F090F8012211461C20B9
:104CD00006F0DEFFAB4800680A2190FBF1F201FB11
:104CE0001200C0B2014602901C2007F07EF8A548D1
:104CF00000680A2190FBF1F0C0B2014602901E202C
:104D000007F037F8049810B1012873D143E09D48AB
:104D100000689D49096888420EDA07F073FA082195
:104D20001A2007F03CF808211C2007F038F806216B
:104D30001E2007F034F82DE092480068401E91498B
:104D4000086008460068002801DA0120086007F0C2
:104D500059FA00211A2007F048F8012211461C20B8
:104D600006F096FF874800680A2190FBF1F201FBEC
:104D70001200C0B2014602901C2007F036F88148AC
:104D800000680A2190FBF1F0C0B2014602901E209B
:104D900006F0EFFF2EE07B480068401C7949086070
:104DA00008460068632801DD6320086007F02AFADE
:104DB00000211A2007F019F8012211461C2006F0E4
:104DC00067FF704800680A2190FBF1F201FB1200B6
:104DD000C0B2014602901C2007F007F8694800683D
:104DE0000A2190FBF1F0C0B2014602901E2006F0AD
:104DF000C0FF00BF00BFC3E407F043FA0421002056
:104E000006F0A1FF01220821022006F041FF0B213C
:104E1000022006F098FF0721042006F07CFF07F02F
:104E2000F1F900211A2006F0E0FF012211461C20B2
:104E300006F02EFF544800680A2190FBF1F201FBB6
:104E40001200C0B2014602901C2006F0CEFF4E4870
:104E500000680A2190FBF1F0C0B2014602901E20CA
:104E600006F087FF049810B1012873D12EE0464860
:104E70000068401E4449086008460068002801DABE
:104E80000020086007F0BEF900211A2006F0ADFFEF
:104E9000012211461C2006F0FBFE3B4800680A2157
:104EA00090FBF1F201FB1200C0B2014602901C20FF
:104EB00006F09BFF344800680A2190FBF1F0C0B275
:104EC000014602901E2006F054FF43E02D48006882
:104ED0002D49096888420EDA07F094F908211A2052
:104EE00006F05DFF08211C2006F059FF06211E2058
:104EF00006F055FF2DE024480068401C2249086058
:104F000008460068632801DD6320086007F07AF92D
:104F100000211A2006F069FF012211461C2006F02C
:104F2000B7FE194800680A2190FBF1F201FB12005C
:104F3000C0B2014602901C2006F057FF12480068DC
:104F40000A2190FBF1F0C0B2014602901E2006F04B
:104F500010FF00BF00BF13E407F093F90521002004
:104F600006F0F1FE01220821022006F091FE032145
:104F7000022006F0E8FE09E0E8020020EC02002032
:104F8000E4020020F4020020F8020020082104209E
:104F900006F0C1FE0121172006F03FFF07F032F9AD
:104FA000FE480068012804D105211C2006F0F7FE08
:104FB00003E003211C2006F0F2FE049810B1012842
:104FC0002ED116E0F548006848B90120F349086081
:104FD00007F018F905211C2006F0E1FE08E000208A
:104FE000EE49086007F00EF903211C2006F0D7FEF9
:104FF00016E0EA48006848B90120E849086007F06F
:1050000001F905211C2006F0CAFE08E00020E34952
:10501000086007F0F7F803211C2006F0C0FE00BF6F
:1050200000BF2AE407F02DF90821002006F08BFECE
:1050300001220821022006F02BFE0521022006F0A5
:1050400082FE0921042006F066FE07F0DBF8D44852
:105050000068012808D10A211A2006F0A0FE0021CC
:105060001C2006F086FE0BE005211A2006F097FEB4
:1050700005211C2006F093FE00211E2006F079FE7B
:10508000049810B1012846D122E0C548006868B9EB
:105090000120C349086007F0B5F80A211A2006F07C
:1050A0007EFE00211C2006F064FE10E00020BC49BA
:1050B000086007F0A7F805211A2006F070FE052108
:1050C0001C2006F06CFE00211E2006F052FE22E09D
:1050D000B348006868B90120B149086007F092F848
:1050E0000A211A2006F05BFE00211C2006F041FE7A
:1050F00010E00020AA49086007F084F805211A2072
:1051000006F04DFE05211C2006F049FE00211E2060
:1051100006F02FFE00BF00BFADE407F0B2F801219A
:10512000002006F0F8FD01220821022006F0B0FD63
:105130000021022006F0EFFD0321042006F003FE0B
:1051400007F060F89748006838B90A211A2006F07D
:1051500026FE00211C2006F00CFE92480068012863
:105160000BD105211A2006F01AFE05211C2006F09D
:1051700016FE00211E2006F0FCFD049810B1012847
:1051800056D12AE087480068401E864908600846D4
:105190000068002801DA012008608248006848B9E8
:1051A00007F030F80A211A2006F0F9FD00211C2032
:1051B00006F0DFFD7B48006801280DD107F022F8DA
:1051C00005211A2006F0EBFD05211C2006F0E7FD65
:1051D00000211E2006F0CDFD2AE072480068401C28
:1051E0007049086008460068012801DD0020086059
:1051F0006C48006848B907F005F80A211A2006F043
:10520000CEFD00211C2006F0B4FD66480068012890
:105210000DD106F0F7FF05211A2006F0C0FD05218B
:105220001C2006F0BCFD00211E2006F0A2FD00BFE0
:1052300000BF20E407F025F80221002006F06BFDF6
:1052400001220821022006F023FD0021022006F0A1
:1052500062FD0321042006F076FD06F0D3FF5248DC
:10526000006801280CD103211A2006F098FD0921BD
:105270001C2006F094FD03211E2006F090FD0BE09B
:1052800000211A2006F08BFD08211C2006F087FD66
:1052900000211E2006F06DFD049810B101284ED1AA
:1052A00026E04148006888B901203F49086006F0BF
:1052B000A9FF03211A2006F072FD09211C2006F027
:1052C0006EFD03211E2006F06AFD10E00020364925
:1052D000086006F097FF00211A2006F060FD082103
:1052E0001C2006F05CFD00211E2006F042FD26E099
:1052F0002D48006888B901202B49086006F082FF1C
:1053000003211A2006F04BFD09211C2006F047FD61
:1053100003211E2006F043FD10E000202249086012
:1053200006F070FF00211A2006F039FD08211C202C
:1053300006F035FD00211E2006F01BFD00BF00BF5A
:10534000A4E406F09EFF0321002006F0E4FC012205
:105350000821022006F09CFC0021022006F0DBFC64
:105360000321042006F0EFFC06F04CFF0F48006814
:105370000A2190FBF1F201FB1200C0B2014602903B
:105380001A2006F0F6FC094800680A2190FBF1F0AB
:1053900090FBF1F201FB1200C0B209E0FC02002018
:1053A0000003002004030020080300200C03002059
:1053B000014602901C2006F0DCFCFE4800686421D7
:1053C00090FBF1F0C0B2014602901E2006F0D1FC25
:1053D000049810B101286CD135E0F6480068401EF1
:1053E000F449086008460068012802DA4FF4167094
:1053F000086006F007FFEF4800680A2190FBF1F211
:1054000001FB1200C0B2014602901A2006F0B1FC66
:10541000E84800680A2190FBF1F090FBF1F201FBF3
:105420001200C0B2014602901C2006F0A2FCE14826
:105430000068642190FBF1F0C0B2014602901E208A
:1054400006F097FC35E0DB480068401CD94908604D
:1054500008460068B0F5167F01DD0120086006F0FF
:10546000D1FED44800680A2190FBF1F201FB120042
:10547000C0B2014602901A2006F07BFCCD480068BD
:105480000A2190FBF1F090FBF1F201FB1200C0B297
:10549000014602901C2006F06CFCC648006864219E
:1054A00090FBF1F0C0B2014602901E2006F061FCB4
:1054B00000BF00BF9FE406F0E4FE0421002006F0D8
:1054C0002AFC01220821022006F0E2FB0021022032
:1054D00006F021FC0321042006F035FC06F092FEC4
:1054E000B54800680A2190FBF1F201FB1200C0B23E
:1054F000014602901A2006F03CFCAF4800680A21E1
:1055000090FBF1F090FBF1F201FB1200C0B20146FA
:1055100002901C2006F02DFCA7480068642190FB37
:10552000F1F0C0B2014602901E2006F022FC049861
:1055300010B101286CD135E09F480068401E9E499B
:10554000086008460068012802DA4FF41670086007
:1055500006F058FE984800680A2190FBF1F201FB22
:105560001200C0B2014602901A2006F002FC9248D6
:1055700000680A2190FBF1F090FBF1F201FB1200B0
:10558000C0B2014602901C2006F0F3FB8A48006876
:10559000642190FBF1F0C0B2014602901E2006F09B
:1055A000E8FB35E084480068401C834908600846F1
:1055B0000068B0F5167F01DD0120086006F022FECC
:1055C0007D4800680A2190FBF1F201FB1200C0B295
:1055D000014602901A2006F0CCFB774800680A21A9
:1055E00090FBF1F090FBF1F201FB1200C0B201461A
:1055F00002901C2006F0BDFB6F480068642190FB00
:10560000F1F0C0B2014602901E2006F0B2FB00BFCE
:1056100000BFA0E406F035FE0521002006F07BFB6C
:1056200001220821022006F033FB0021022006F0AF
:1056300072FB0321042006F086FB06F0E3FD5F48C1
:1056400000680A2190FBF1F201FB1200C0B2014692
:1056500002901A2006F08DFB049810B1012836D173
:105660001AE056480068401E544908600846006821
:10567000002801DA0120086006F0C4FD4F480068E8
:105680000A2190FBF1F201FB1200C0B20146029028
:105690001A2006F06EFB1AE048480068401C474993
:1056A000086008460068012801DD0020086006F057
:1056B000A9FD424800680A2190FBF1F201FB1200AB
:1056C000C0B2014602901A2006F053FB00BF00BF93
:1056D00041E406F0D6FD0621002006F01CFB012265
:1056E0000821022006F0D4FA0021022006F013FB64
:1056F0000321042006F027FB0121172006F08DFB73
:1057000006F080FD2E4800680A2190FBF1F201FBB3
:105710001200C0B2014602901A2006F02AFB0122B4
:1057200011461C2006F0B4FA254800680A2190FBB7
:10573000F1F090FBF1F201FB1200C0B201460290C1
:105740001C2006F052FB1E480068642190FBF1F01B
:10575000C0B2014602901E2006F00BFB049810B167
:1057600001287DD142E016480068401E14490860B7
:1057700008460068002801DA0020086006F042FDB3
:105780000F4800680A2190FBF1F201FB1200C0B241
:10579000014602901A2006F0ECFA012211461C2064
:1057A00006F076FA064800680A2190FBF1F090FBBB
:1057B000F1F207E00C03002010030020200300207A
:1057C0002403002001FB1200C0B2014602901C20FD
:1057D00006F00BFBFE480068642190FBF1F0C0B2BC
:1057E000014602901E2006F0C4FA39E0F84800682D
:1057F000401CF749086008460068782801DD7820D9
:10580000086006F0FFFCF24800680A2190FBF1F204
:1058100001FB1200C0B2014602901A2006F0A9FA5C
:10582000012211461C2006F033FAE94800680A21DB
:1058300090FBF1F090FBF1F201FB1200C0B20146C7
:1058400002901C2006F0D1FAE1480068642190FB28
:10585000F1F0C0B2014602901E2006F08AFA00BFA5
:1058600000BF59E406F00DFD0721002006F053FAB1
:1058700001220821022006F00BFA0021022006F086
:105880004AFA0321042006F05EFAD24800680A2191
:1058900090FBF1F201FB1200C0B20246012102901E
:1058A0001C2006F0F5F906F0ADFC00211A2006F0E8
:1058B0009CFAC84800680A2190FBF1F090FBF1F2D5
:1058C00001FB1200C0B2014602901C2006F08DFAC6
:1058D000C0480068642190FBF1F0C0B2014602901C
:1058E0001E2006F046FA049810B1012874D139E060
:1058F000B8480068401EB74908600846006800289C
:1059000001DA0020086006F07DFCB24800680A2138
:1059100090FBF1F201FB1200C0B2014602901A2086
:1059200006F063FA012211461C2006F0B1F9A948DD
:1059300000680A2190FBF1F090FBF1F201FB1200EC
:10594000C0B2014602901C2006F04FFAA148006840
:10595000642190FBF1F0C0B2014602901E2006F0D7
:1059600008FA39E09B480068401C9A4908600846DC
:105970000068642801DD6420086006F043FC954857
:1059800000680A2190FBF1F201FB1200C0B201464F
:1059900002901A2006F029FA012211461C2006F076
:1059A00077F98C4800680A2190FBF1F090FBF1F246
:1059B00001FB1200C0B2014602901C2006F015FA4D
:1059C00084480068642190FBF1F0C0B20146029067
:1059D0001E2006F0CEF900BF00BF2AE406F051FCFD
:1059E0000821002006F097F901220821022006F084
:1059F0004FF90021022006F08EF90321042006F061
:105A0000A2F90121172006F008FA06F0FBFB724804
:105A1000006800280ADA01220821072006F038F978
:105A20006D48006840426D49086008E06A480068B7
:105A30006A49086000220821072006F029F90021A0
:105A40001A2006F096F9012211461C2006F020F9D2
:105A5000624800680A2190FBF1F201FB1200C0B21B
:105A6000014602901C2006F0C0F95C4800680A213B
:105A700090FBF1F0C0B2014602901E2006F079F9C9
:105A8000049810B1012875D175E053480068544955
:105A90000968884226DD06F0B5FB4F4800680028FB
:105AA0000ADA01220821072006F0F2F84A480068C5
:105AB00040424A49086008E0474800684749086092
:105AC00000220821072006F0E3F808211A2006F03A
:105AD00066F908211C2006F062F906211E2006F056
