:020000040800F2
:10000000F81000209DE80008650F0008670F000841
:100010006B0F00086F0F0008730F0008000000004E
:10002000000000000000000000000000770F000842
:10003000790F0008000000007B0F00087D0F00080A
:10004000B7E80008B7E80008B7E8000879C9000871
:10005000B7E80008B7E80008B7E80008B7E8000804
:10006000B7E80008B7E80008B7E80008B7E80008F4
:10007000B7E80008B7E80008B7E80008B7E80008E4
:10008000B9D6000819D70008B7E80008B7E8000893
:10009000B7E80008B7E80008B7E80008B7E80008C4
:1000A000B7E80008B7E80008B7E80008B7E80008B4
:1000B00089AA00080DAA0008EB0E0008B7E800089E
:1000C000B7E80008B7E80008B7E80008B7E8000894
:1000D000B7E800083D0B0008D70A0008B7E8000899
:1000E000FBDB0008B7E80008B7E80008B7E800083D
:1000F000B7E80008B7E80008B7E80008B7E8000864
:10010000B7E80008B7E8000809AB0008B7E800083E
:10011000B7E80008B7E80008B7E80008B7E8000843
:10012000B7E80008B7E80008B7E80008B7E8000833
:1001300000F002F800F062F80AA090E8000C824497
:100140008344AAF10107DA4501D100F057F8AFF274
:10015000090EBAE80F0013F0010F18BFFB1A43F0A5
:1001600001031847C0220100E02201000A444FF0B9
:10017000000C10F8013B13F0070408BF10F8014B06
:100180001D1108BF10F8015B641E05D010F8016B4B
:10019000641E01F8016BF9D113F0080F1EBF10F8AF
:1001A000014BAD1C0C1B09D16D1E58BF01F801CBD2
:1001B000FAD505E014F8016B01F8016B6D1EF9D555
:1001C0009142D6D37047000000230024002500266A
:1001D000103A28BF78C1FBD8520728BF30C148BFAA
:1001E0000B607047642910F07387732911F0398010
:1001F000002070471FB51FBD10B510BD11F03AF8B3
:100200001146FFF7F7FF09F0CCF811F058F803B4E6
:10021000FFF7F2FF03BC0EF08FFA00000CB50020D0
:10022000019000905E48006840F480305C490860AE
:1002300000BF5B48006800F4003000900198401C4B
:100240000190009818B90198B0F5A06FF1D1544809
:10025000006800F4003010B10120009001E000209F
:1002600000900098012828D14E48006840F0100006
:100270004C4908600846006820F003000860084602
:10028000006808604648406845494860084640683C
:1002900048600846406848600846406820F003000F
:1002A00048600846406840F00100486000BF3C4894
:1002B000406800F00C000428F9D10CBD10B5FFF720
:1002C000ADFF10BD10B53648006840F0010034495C
:1002D000086008464068344908403149486008468B
:1002E0000068324908402E4908600846006820F43A
:1002F000802008600846406820F4FE0048604FF403
:100300001F008860FFF7DAFF4FF00060284908609F
:1003100010BD10B5002100200022214B5B6803F0C6
:100320000C0121B1042906D0082928D107E0214B6E
:10033000214C236027E01F4B1F4C236023E0184B08
:100340005B6803F47010164B5B6803F48032022381
:1003500003EB904022B9194B4343174C23600DE047
:100360000F4B5B6803F4003323B1144B4343124C2F
:10037000236003E00F4B43430F4C236003E00D4B1E
:100380000D4C236000BF00BF054B5B68C3F3031334
:100390000B4CE15C084B1B68CB40074C236010BD45
:1003A00000100240002002400000FFF8FFFFF6FEB0
:1003B00008ED00E000127A000000002000093D0076
:1003C0000400002070B502460C46FF25FF2309E01B
:1003D00012F8010B80EA0501FA48405C80EA030547
:1003E000F948435C201EA4F10106F4B2F0D143EABF
:1003F000052070BD10B50120F4490870F4480EF0D6
:100400002DFFF4490870F4480078012856D00021E7
:10041000F2480FF085FC0021F0480FF015FFF0487E
:100420000078A0B1EB480078EE49097888420ED1F7
:100430000020ED490870ED49087008460078401C1E
:100440000870E4480078EA49E84A12788854E44899
:10045000007860BBE448007848BBE4480078642832
:1004600013DADC480178E24AE0480078401C115475
:10047000DE480078401CDD490870084600780828EE
:1004800015DB08460078087011E00120D649087095
:10049000D1490870D5480078D5490870D54800681A
:1004A0008078D549096888700020D04908700020FC
:1004B000CB4908700121C9480FF032FC10BD10B5BE
:1004C0000120C2490870CD490870CD480EF0C6FE23
:1004D000C0490870C0480078012856D00021BF48A4
:1004E0000FF01EFC0021BD480FF0AEFEBC480078A6
:1004F000A0B1B8480078BB49097888420ED10020E5
:10050000B9490870B949087008460078401C08705D
:10051000B0480078B649B54A12788854B048007897
:1005200060BBB148007848BBB0480078642813DA53
:10053000A8480178AE4AAD480078401C1154AB4839
:100540000078401CA949087008460078082815DB87
:1005500008460078087011E00120A34908709E4900
:100560000870A2480078A2490870A2480068807804
:10057000A1490968887000209C49087000209849AA
:100580000870012195480FF0CBFB10BD10B59A48BB
:1005900000689C490978405C9B49087008460178CE
:1005A0008B480EF057FE97480078401C954908701C
:1005B0009148006800780978884210DA002086495E
:1005C00008708D49096808708849087001208D49B4
:1005D0000870002240F226617D480EF0DAFD10BD61
:1005E00070B500257F48007888490870032048705E
:1005F00087480078887087498748006811F056FD61
:10060000064611F0B7FC000A8049C870814982484B
:10061000006811F04BFD064611F0ACFC7B490871F7
:100620007E48006811F0A6FC0121B1EBE03F07D144
:100630007A4801684FF08F4011F040FE774908601A
:1006400074497648006811F031FD064611F092FCBD
:10065000000A6E4948716F497048006811F026FD24
:10066000064611F087FC6949887169480088051FB2
:1006700004E00021A81D654A11546D1E002DF8DC10
:1006800063480078C01CC1B26048FFF79BFE044677
:1006900021125E4A5E480088C01C11545C480088E4
:1006A000001D14545A480078401D5D4908701046DA
:1006B0005C490860012240F2277145480EF069FD4F
:1006C00070BD70B500254748007850490870032078
:1006D00048704F48007888705048006811F04AFC14
:1006E0000121B1EBE03F07D14C4801684FF08F404A
:1006F00011F0E4FD4949086046494848006811F096
:10070000D5FC064611F036FC000A4049C870414944
:100710004248006811F0CAFC064611F02BFC3B4928
:1007200008713B480088851E04E00021281D374AD7
:1007300011546D1E002DF8DC35480078C01CC1B284
:100740003248FFF73FFE04462112304A3048008805
:10075000C01C11542E480088001D14542C480078E9
:10076000401D2F49087010462E490860012240F2B2
:10077000277117480EF00DFD70BD70B500251948A2
:10078000007822490870032048702148007888705A
:1007900020492148006811F089FC064611F0EAFB67
:1007A000000A1A49C8701B491B48006811F07EFCFA
:1007B000064611F0DFFB1549087115480088851EB3
:1007C00037E000003E0000203E0100203500002000
:1007D00000440040260000203400002000080040B3
:1007E0002200002094020020230000202900002085
:1007F000C40400202C00002030000020370000201E
:10080000003801402A00002027000020C1070020F6
:100810001E00002000002041800300207C030020F7
:100820006C020020680200200021281DFD4A11549E
:100830006D1E002DF8DCFC480078C01CC1B2F948E0
:10084000FFF7C0FD04462112F64AF7480088C01C95
:100850001154F5480088001D1454F3480078401DD9
:10086000F24908701046F2490860012240F22771EF
:10087000F0480EF08EFC70BD10B50220EE490870F5
:10088000EE4800884FF6FA71884205DAEC480078A5
:1008900010B900200DF035F8E84800884FF6FA71DD
:1008A000884203DAE648007801280ED101200DF0D5
:1008B00028F80120E2490870E04800884FF6FA71F4
:1008C000884202DB3220DD4908800A20DD490880A9
:1008D00008460288DC49D94800880CF0EFFFDB4865
:1008E0000078D0490870D84800784870D6484078D9
:1008F0008870D5488078C870D348C0780871D248CD
:1009000000794871D04840798871CF488079C871A2
:10091000CD48C0790872CC48007A4872CA48407AFB
:1009200088720B20C1490870C44800880A30C34946
:100930000880084600880A2190FBF1F0C449098824
:1009400088420BDD3220BD4908800020C149087073
:100950003220C14908800020C0490870B148B4491C
:100960000860012240F22771B2480EF012FC10BD5F
:1009700070B50025BA480088B5490880B3480078AA
:10098000A84908700320487002208870B048008889
:10099000000AC870AE48007808710521A148FFF729
:1009A00011FD044620129F4948718C7107209F4910
:1009B00008709C489E490860012240F227719D48BA
:1009C0000EF0E7FB70BD2DE9F04104460F46002014
:1009D000A4490870A448007800283BD12078401E24
:1009E000255C4FF6FF7000EA05252078205C054362
:1009F0002078C01E205C8C490880084600884FF68D
:100A0000FF7101EA0020884908802078801E205C60
:100A1000098808434FF6FF7101EA400082490880C7
:100A200008460088202801DD202008802078801ECC
:100A3000C1B2601CFFF7C6FC064606218B48FFF7D3
:100A4000C1FC06462078801EC1B2601CFFF7BAFCCC
:100A5000064600E02E46AE4238D18348007808BBF7
:100A6000A07801281BD003281AD1022180480EF05B
:100A700042F86D480088042802D1FFF7B1FD0DE06F
:100A800069480088022809D1207910B9FFF775FE5E
:100A900004E02079012801D1FFF713FE01E000E016
:100AA00000BF16E0E07840B110280DD10221704857
:100AB0000EF021F8FFF7E0FE07E002216C480EF08F
:100AC0001AF8FFF755FF00E000BF02E00020694977
:100AD0000870BDE8F08110B540F2244155480EF091
:100AE0003DFC01280DD153480EF0B8FB40F22441E3
:100AF00050480EF05DFC01205F49087000205F49FE
:100B0000087040F225514B480EF028FC012814D102
:100B100048480EF0A3FB5A49087040F22551454859
:100B20000EF046FC564800785649544A12788854CC
:100B300052480078401C5149087010BD70B586B00D
:100B400000240226002500BF04E0002003A9085568
:100B5000601CC4B20A2CF8DB40F225514A480EF062
:100B6000FDFB30B348480EF079FB4849087048480F
:100B70000078F0B908460078232802D100204549C2
:100B8000087042480178434802780078401C414B85
:100B90001870414881543D4800780A2809D1184608
:100BA0000078801E3C49085C0D2802D1012038499C
:100BB00008703748007801287CD10020344908703B
:100BC00035484078012876D134480088022805DB72
:100BD0000DF05BFC022126480DF08FFF2E48807837
:100BE0002F4908702C48C0782E4908702A4800798F
:100BF0002D490870284840792C4908702648C17949
:100C0000807901EB00202A4908802348C179807946
:100C100001EB0020204949791F4A1279CDE90021D2
:100C2000029049E0C10700201E0000206C02002055
:100C300068020020004400403D0300202000002006
:100C4000380000203C0000206806002094020020AC
:100C50003A0000203C030020680300203B030020F2
:100C60005C0200203500002037000020C504002071
:100C7000000801403400002044020020450200200A
:100C80001400002090060020003801403E020020A1
:100C90003F020020400200207C060020500200207D
:100CA0004702002048020020490200204A0200209A
:100CB0004C02002017E109E0B148C3788278B1A165
:100CC000BA4810F093F90120B9490870AC4840784F
:100CD000022866D123208DF80C0002208DF80D002B
:100CE0000D208DF814000A208DF8150013241DE046
:100CF000AE48005D2E280FD0AC48005D22280BD0F6
:100D0000AA48005D03A9895D01EB810100EB410068
:100D1000303803A9885501E0701CC6B2A348005DB5
:100D20002C2801D1264603E0601CC4B22A2CDFDD4A
:100D300000BF701CC4B20FE09C48005D0D2808D0B5
:100D40009A48005D05EB850100EB4100303885B223
:100D500000E003E0601CC4B22A2CEDDD00BF284691
:100D6000E91705EB1161090A8DF81210E91705EB77
:100D700011610912A5EB0121C9B28DF813100024ED
:100D80000DE003A8015D8B480EF064FA00BF8021DE
:100D900088480EF0CDFA0028F9D0601CC4B20A2CA5
:100DA000EFDB77484078032820D183480088022869
:100DB00005DB0DF06AFB022180480DF09EFE7048B5
:100DC000C178807801EB00207D49086008460088E2
:100DD0007C4908800020784908807B4908807B494D
:100DE00008807B4908700120714908706448407888
:100DF000042826D123208DF80C0004208DF80D0046
:100E00006F480088000A8DF80E006D4800788DF854
:100E10000F000D208DF810000A208DF8110000241D
:100E20000DE003A8015D63480EF014FA00BF8021B5
:100E300060480EF07DFA0028F9D0601CC4B2062C80
:100E4000EFDB4F484078052824D102215B480DF0A4
:100E500052FE4FF47A700DF042FC002406E048493F
:100E6000A01C085C5B490855601CC4B25A48007855
:100E7000001FA042F3DC002056490855574B0A4694
:100E800057A15D4810F0B2F80DF0DBFA02214B4893
:100E90000DF033FE3A484078062824D10221474815
:100EA0000DF029FE4FF47A700DF019FC002406E0D5
:100EB0003349A01C085C49490855601CC4B2464827
:100EC0000078001FA042F3DC0020444908550B467F
:100ED000404A43A1484810F089F80DF0B2FA0221C7
:100EE00036480DF00AFE06B070BD10B5012143482A
:100EF0000FF0DFF9002834D00120414908700021AB
:100F00003E480EF00DFF00213C480FF09DF90120F6
:100F10003C4908703C4800783C4908703C480078DF
:100F2000D8B139480078042817DD01203949087004
:100F300036480079222803D03448C078102803D1DD
:100F400001203549087002E0002033490870334819
:100F5000016833480068FFF736FD012127480FF08C
:100F6000B9F910BD704700BFFEE700BFFEE700BF44
:100F7000FEE700BFFEE7704770477047704700000C
:100F80007C06002041542B43495053544152543D58
:100F900022544350222C2225642E25642E25642EB3
:100FA0002564222C25640D0A000000006C0A002034
:100FB0001C000020003801405002002000080140C1
:100FC0001800002054020020EC030020EE03002053
:100FD000520200209C04002040020020B0040020A7
:100FE00041542B43574A41503D222573222C222540
:100FF00073220D0A000000005A040020000800407F
:10100000220000202300002029000020C40400202A
:101010003500002034000020370000203000002080
:101020002C000020002100E0491C8142FCD37047C5
:1010300010B5642910D2302202700A22B1FBF2F2FC
:10104000303242702E2242700A22B1FBF2F302FBD0
:1010500013123032827021E064291FD3B1F57A7FF8
:101060001CD26422B1FBF2F2303202706422B1FB76
:10107000F2F302FB13120A23B2FBF3F23032427096
:101080002E2282706422B1FBF2F302FB13120A23B8
:10109000B2FBF3F403FB14223032C27010BD3EB534
:1010A0000924FA48048001200CF02BFC2246F84960
:1010B00000200CF003FC64200DF011FBF4480078D4
:1010C000F4490870F2484078F3490870F048807895
:1010D000F2490870EE48C078F1490870EC4841794F
:1010E000007901EB0020EF49088008460088EC49B0
:1010F0000978EA4A1278CDE900210290E64803789F
:10110000E4480278E8A1F2480FF070FFE0488079E7
:10111000F0490870DE48017AC07901EB0020EE4901
:10112000086008460068ED4908603EBD10B5D74824
:101130000480D8480078EA490870D7480078487099
:10114000D64800788870D6480078C870D549088895
:10115000C11700EB1161090AE14A1171D1490888F0
:10116000C11700EB11610912A0EB01215171D9489F
:10117000007811468871D8480088000AC871D6489E
:1011800000780872092401200CF0BBFB2246D449E8
:1011900000200CF0A4FB64200DF0A1FA10BD10B5E6
:1011A000FFF77DFF3224B948048000200CF0A9FB32
:1011B0002246B74900200CF081FB64200DF08FFA25
:1011C000B3480078C7490870B1484078C6490860FC
:1011D000C648096850F82100C5490860AC488078C5
:1011E000C4490860AA48C078C34908600846006836
:1011F000502804DD08460068A0F580700860A44807
:101200000079BE49086008460068502804DD084699
:101210000068A0F5807008609D484079B849086072
:101220009B488079B74908609948C079B6490860F9
:101230009748007AB54908609548407AB4490860F3
:101240009348807AB34908609148C07AB2490860EF
:101250008F48007BB14908608D48407BB0490860E9
:101260008B48807BAF4908608948C07BAE490880C5
:101270008748007C097800EB0120AB49088084484E
:10128000407CAA4908708248807CA949086080484F
:10129000C07CA84908607E48007DA74908600846D0
:1012A0000068502804DD08460068A0F580700860DA
:1012B0007748407DA149086008460068502804DD51
:1012C00008460068A0F5807008607148807D9C49E0
:1012D00008606F48C07D9B4908606D48007E9A4950
:1012E000086008460068642804DD08460068A0F528
:1012F000807008606648407E94490860084600682F
:10130000642804DD08460068A0F580700860604825
:10131000807E18B15E48807EFF2812D15C48C07E76
:1013200018B15B48C07EFF280BD15948007F18B127
:101330005748007FFF2804D14FF4C87084490860E3
:1013400011E05348807E5249C97E01EB810100EBD8
:1013500041004F49097F01EBC10202EB011100EB93
:1013600081007B4908604A48407F18B14848407F67
:10137000FF281BD14648807F18B14548807FFF2851
:1013800014D14348C07F18B14148C07FFF280DD118
:101390003F4890F8200020B13D4890F82000FF28F9
:1013A00004D14FF4FA606B49086014E03848407F7C
:1013B0003749897F0A2202FB01003549C97F64222F
:1013C00002FB0100324991F820104FF47A7202FBBF
:1013D0000100604908602E4890F8210020B12C4897
:1013E00090F82100FF2816D1294890F8220020B15A
:1013F000274890F82200FF280DD1254890F82300B7
:1014000020B1234890F82300FF2804D14FF4C8707E
:101410005149086010E01E4890F821001C4991F8DD
:1014200022100A2202FB0100194991F823106422BC
:1014300002FB010048490860154890F8240020B1DB
:10144000134890F82400FF281FD1114890F8250078
:1014500020B10F4890F82500FF2816D10C4890F8CD
:10146000260020B10A4890F82600FF2878D10848C5
:1014700090F8270020B1064890F82700FF286FD188
:101480004FF4FA603549086082E069E038030020D3
:1014900025080020470200204802002049020020C1
:1014A0004A0200204C02002041542B43495053541F
:1014B0004152543D22544350222C2225642E25644F
:1014C0002E25642E2564222C25640D0A00000000C0
:1014D0006C0A002046020020180000205402002060
:1014E000F3070020940200209C020020A0020020AC
:1014F00098020020B4020020B8020020BC020020A4
:10150000C8020020CC020020D0020020D40200201B
:10151000D8020020DC020020E0020020E4020020CB
:10152000E8020020EC020020680300203B030020BA
:10153000F802002000030020080300201003002010
:10154000180300202003002028030020300300207F
:101550008C030020900300209403002098030020B7
:10156000FE4890F82400FD4991F825100A2202FB5C
:101570000100FA4991F82610642202FB0100F749A4
:1015800091F827104FF47A7202FB0100F4490860C9
:10159000F24890F8280020B1F04890F82800FF2881
:1015A0001FD1EE4890F8290020B1EC4890F82900AE
:1015B000FF2816D1E94890F82A0020B1E74890F8B2
:1015C0002A00FF280DD1E54890F82B0020B1E34810
:1015D00090F82B00FF2804D14FF4FA60E14908602D
:1015E00017E0DE4890F82800DC4991F829100A221B
:1015F00002FB0100D94991F82A10642202FB010084
:10160000D64991F82B104FF47A7202FB0100D549AC
:101610000860D24890F82C0020B1D04890F82C00F7
:10162000FF281FD1CD4890F82D0020B1CB4890F86D
:101630002D00FF2816D1C94890F82E0020B1C748C8
:1016400090F82E00FF280DD1C44890F82F0020B14B
:10165000C24890F82F00FF2804D14FF4FA60C24925
:10166000086017E0BD4890F82C00BC4991F82D1097
:101670000A2202FB0100B94991F82E10642202FBF4
:101680000100B64991F82F104FF47A7202FB010065
:10169000B549086010BD10B5B4480480B44800785E
:1016A000B4490870B44800784870B448007888702D
:1016B000B3480078C870B34800780871B248007821
:1016C0004871B24800788871B1480078C871B14853
:1016D00000780872B04800784872B0480078887284
:1016E000AF480078C872AF4800780873AE480078F9
:1016F0004873AE4800788873AD480088000AC87304
:10170000AB4800780874AB4800784874AA48007861
:101710008874AA480078C874A94800780875A94850
:1017200000784875A84800788875A8480078C8757A
:10173000A74800780876A74800784876A648006849
:10174000642190FBF1F201FB12000A2190FBF1F2FF
:1017500001FB1200874988769F480068642190FB4E
:10176000F1F201FB12000A2190FBF1F08149C876E9
:1017700099480068642190FBF1F07E49087797480A
:1017800000684FF47A7190FBF1F201FB12006421C2
:1017900090FBF1F201FB12000A2190FBF1F201FB38
:1017A0001200744948778D4800684FF47A7190FBB5
:1017B000F1F201FB1200642190FBF1F201FB120037
:1017C0000A2190FBF1F06B498877844800684FF458
:1017D0007A7190FBF1F201FB1200642190FBF1F0B1
:1017E0006449C8777D4800684FF47A7190FBF1F046
:1017F000604981F820007A480068642190FBF1F28A
:1018000001FB12000A2190FBF1F201FB1200594981
:1018100081F8210072480068642190FBF1F201FB1D
:1018200012000A2190FBF1F0524981F822006C4825
:101830000068642190FBF1F04E4981F8230048488C
:1018400000684FF47A7190FBF1F201FB1200642101
:1018500090FBF1F201FB12000A2190FBF1F201FB77
:101860001200444981F824003D4800684FF47A7121
:1018700090FBF1F201FB1200642190FBF1F201FBFD
:1018800012000A2190FBF1F03A4981F82500344812
:1018900000684FF47A7190FBF1F201FB12006421B1
:1018A00090FBF1F0334981F826002D4800684FF491
:1018B0007A7190FBF1F02F4981F8270029480068E0
:1018C0004FF47A7190FBF1F201FB1200642190FB5E
:1018D000F1F201FB12000A2190FBF1F201FB120070
:1018E000244981F828001F4800684FF47A7190FB62
:1018F000F1F201FB1200642190FBF1F201FB1200F6
:101900000A2190FBF1F01B4981F829001548006875
:101910004FF47A7190FBF1F201FB1200642190FB0D
:10192000F1F0144981F82A000E4800684FF47A71EA
:1019300090FBF1F00F4981F82B000B4800684FF441
:101940007A7190FBF1F201FB1200642190FBF1F23D
:1019500001FB12000A2190FBF1F243E02508002070
:10196000980300209C030020A003002038030020DF
:1019700094020020F30700209C020020B402002003
:10198000B8020020BC020020C8020020CC020020C7
:10199000D0020020D4020020D8020020DC02002067
:1019A000E0020020E4020020E8020020EC02002017
:1019B000680300203B030020F80200200003002001
:1019C000080300201003002018030020200300203B
:1019D00028030020300300208C0300209003002007
:1019E0009403002001FB1200FE4981F82C00FE4800
:1019F00000684FF47A7190FBF1F201FB1200642150
:101A000090FBF1F201FB12000A2190FBF1F0F54985
:101A100081F82D00F44800684FF47A7190FBF1F2E0
:101A200001FB1200642190FBF1F0EE4981F82E00D9
:101A3000ED4800684FF47A7190FBF1F0E94981F8C4
:101A40002F00322400200BF05CFF2246E5490020E5
:101A50000BF045FF64200CF042FEFFF767FB10BD62
:101A600008B5012114200DF055FA4FF48060ADF84F
:101A7000000010208DF8030003208DF80200694655
:101A8000DA480CF08BFF4FF48061D8480DF033F842
:101A90000220ADF8000010208DF8030003208DF81F
:101AA00002006946D2480CF079FF0221D0480DF0BF
:101AB00024F82020ADF800006946CD480CF06EFFF8
:101AC0002021CB480DF019F81020ADF80000694630
:101AD000C7480CF063FF1021C5480DF00CF808BD95
:101AE00008B5012104200DF015FA4020ADF80000E2
:101AF00010208DF8030003208DF802006946BC48D1
:101B00000CF04CFF08BD10B504464021B8480CF05D
:101B1000F2FFA0B20CF0E3FD4021B5480CF0EDFF60
:101B200010BD03B581B000214FF080400EF0F8F8F1
:101B300001981A2882F00E82DFE810F01A001C00CB
:101B4000D900A50122023D03A1094D041605810A11
:101B5000680E720FE5054006BB064807DB078A08DA
:101B60003909530B230CE20CA90D8310A311F611B4
:101B700002F0F0B90AF061FA0021084609F0B5FF59
:101B800001220821022009F055FF0121022009F05D
:101B900094FF0121042009F090FF0AF005FA95480E
:101BA0000078642190FBF1F201FB12000A2190FB06
:101BB000F1F201FB1200C0B2014600901A2009F0B8
:101BC000AAFF8C480078642190FBF1F201FB12001F
:101BD0000A2190FBF1F0C0B2014600901C2009F0F0
:101BE0009AFF84480078642190FBF1F0C0B201466E
:101BF00000901E2009F08FFF029810B1012874D1C7
:101C00003AE07C480078401E7A490870084600781F
:101C1000012801DAFF2008700AF0C6F9754800783B
:101C2000642190FBF1F201FB12000A2190FBF1F21A
:101C300001FB1200C0B2014600901A2009F06BFFB0
:101C40006C480078642190FBF1F201FB12000A213C
:101C500090FBF1F0C0B2014600901C2009F05BFF40
:101C600064480078642190FBF1F0C0B20146009016
:101C70001E2009F050FF38E05E480078401C5D49A6
:101C8000087008460078FF2801DD012008705948D7
:101C90000078642190FBF1F201FB12000A2190FB15
:101CA000F1F201FB1200C0B2014600901A2009F0C7
:101CB00032FF50480078642190FBF1F201FB1200E2
:101CC0000A2190FBF1F0C0B2014600901C2009F0FF
:101CD00022FF48480078642190FBF1F0C0B2014631
:101CE00000901E2009F017FF00BF00BF40E70AF078
:101CF000A4F90221002009F0F8FE012208210220A7
:101D000009F098FE01220821022009F0D1FD0121ED
:101D1000022009F0EAFE0221042009F0CEFE0AF0BA
:101D200043F9354800686421B0FBF1F201FB120071
:101D30000A21B0FBF1F201FB1200014600901A20CB
:101D400009F0E9FE2C4800686421B0FBF1F201FBC8
:101D500012000A21B0FBF1F0014600901C2009F0AE
:101D6000DAFE254800686421B0FBF1F0C0B20146FC
:101D700000901E2009F0CFFE029810B1012845D135
:101D800045E01D480068401E1B4908600846006881
:101D900010B940F2E73008600AF006F9164800680A
:101DA0006421B0FBF1F201FB12000A21B0FBF1F259
:101DB00001FB1200014600901A2009F0ACFE0E480B
:101DC00000686421B0FBF1F201FB12000A21B0FBB4
:101DD000F1F0014600901C2009F09DFE06480068C5
:101DE00064210BE0F3070020A00300200010014055
:101DF000000801404602002018000020B0FBF1F06E
:101E0000C0B2014600901E2009F085FE39E0FE4870
:101E10000068401CFC49086008460068B0F57A7FFD
:101E200001D3012008600AF0BFF8F7480068642178
:101E3000B0FBF1F201FB12000A21B0FBF1F201FB51
:101E40001200014600901A2009F065FEEE48006875
:101E50006421B0FBF1F201FB12000A21B0FBF1F0AA
:101E6000014600901C2009F056FEE74800686421F6
:101E7000B0FBF1F0C0B2014600901E2009F04BFE0D
:101E800000BF00BF74E60AF0D8F80821002009F06E
:101E90002CFE01220821022009F0CCFD072102209E
:101EA00009F023FE0321042009F007FED74800684B
:101EB00001280AD10AF078F80A211A2009F041FE17
:101EC00000211C2009F027FE0DE00AF06DF8052125
:101ED0001A2009F036FE05211C2009F032FE0021EF
:101EE0001E2009F018FE029810B1012846D122E008
:101EF000C648006868B90120C44908600AF054F86F
:101F00000A211A2009F01DFE00211C2009F003FE01
:101F100010E00020BD4908600AF046F805211A20AB
:101F200009F00FFE05211C2009F00BFE00211E20E8
:101F300009F0F1FD22E0B548006868B90120B34915
:101F400008600AF031F80A211A2009F0FAFD002190
:101F50001C2009F0E0FD10E00020AC4908600AF008
:101F600023F805211A2009F0ECFD05211C2009F0B9
:101F7000E8FD00211E2009F0CEFD00BF00BFF7E5FF
:101F80000AF05BF80B21002009F0AFFD01220821C7
:101F9000022009F04FFD0321022009F0A6FD0421D3
:101FA000084609F08AFD0121172009F008FE09F012
:101FB000FBFF9748006800280ADA01220821072061
:101FC00009F038FD9248006840429249086008E0F4
:101FD0008F4800688F49086000220821072009F017
:101FE00029FD00211A2009F096FD012211461C202E
:101FF00009F020FD874800680A2190FBF1F201FBFF
:102000001200C0B2014600901C2009F0C0FD8148BA
:1020100000680A2190FBF1F0C0B2014600901E203A
:1020200009F079FD029810B101287AD17AE07A4856
:1020300000687749096888422BDB09F0B5FF7448CE
:10204000006800280ADA01220821072009F0F2FCC2
:102050006F48006840426F49086008E06C480068BB
:102060006C49086000220821072009F0E3FC0022E7
:102070000821072009F0DEFC08211A2009F061FD83
:1020800008211C2009F05DFD06211E2009F059FDE4
:1020900047E05F480068401E5D49086008460068E8
:1020A00010F1280F02DA6FF02700086009F07CFFBA
:1020B0005748006800280ADA01220821072009F0A1
:1020C000B9FC5348006840425249086008E0504853
:1020D00000685049086000220821072009F0AAFC86
:1020E00000211A2009F017FD012211461C2009F0D9
:1020F000A1FC484800680A2190FBF1F201FB1200A4
:10210000C0B2014600901C2009F041FD4148006822
:102110000A2190FBF1F0C0B2014600901E2009F0A8
:10212000FAFC46E03A480068401C39490860084615
:102130000068502801DD5020086009F035FF344860
:10214000006800280ADA01220821072009F072FC41
:102150002F48006840422F49086008E02C4800687A
:102160002C49086000220821072009F063FC0021A7
:102170001A2009F0D0FC012211461C2009F05AFC5B
:10218000244800680A2190FBF1F201FB1200C0B262
:10219000014600901C2009F0FAFC1E4800680A2144
:1021A00090FBF1F0C0B2014600901E2009F0B3FC94
:1021B00000BF00BFDCE409F040FF0421002009F06B
:1021C00094FC01220821022009F034FC03210220A2
:1021D00009F08BFC0421084609F06FFC012117204F
:1021E00009F0EDFC09F0E0FE0B480068002817DA62
:1021F00001220821072009F01DFC07480068404221
:102200000649086015E0000018000020B402002014
:10221000B8020020C4020020BC020020C00200203E
:10222000FE480068FE49086000220821072009F0E6
:1022300001FC00211A2009F06EFC012211461C202D
:1022400009F0F8FBF64800680A2190FBF1F201FB67
:102250001200C0B2014600901C2009F098FCF04822
:1022600000680A2190FBF1F0C0B2014600901E20E8
:1022700009F051FC029810B1012848D148E0E74824
:102280000068401EE54908600846006810F1280F04
:1022900002DA6FF02700086009F086FEDF48006868
:1022A00000280ADA01220821072009F0C3FBDB48D5
:1022B00000684042DA49086008E0D8480068D84918
:1022C000086000220821072009F0B4FB00211A2031
:1022D00009F021FC012211461C2009F0ABFBD0487B
:1022E00000680A2190FBF1F201FB1200C0B2014626
:1022F00000901C2009F04BFCC94800680A2190FBA3
:10230000F1F0C0B2014600901E2009F004FC60E02C
:10231000C2480068C3490968884213DB09F044FEDB
:1023200000220821072009F085FB08211A2009F066
:1023300008FC08211C2009F004FC06211E2009F0DD
:1023400000FC45E0B5480068401CB44908600846F8
:102350000068502801DD5020086009F025FEAF48D4
:10236000006800280ADA01220821072009F062FB30
:10237000AA4800684042AA49086008E0A7480068E7
:10238000A749086000220821072009F053FB00211B
:102390001A2009F0C0FB012211461C2009F04AFB5B
:1023A0009F4800680A2190FBF1F201FB1200C0B2C5
:1023B000014600901C2009F0EAFB994800680A21B8
:1023C00090FBF1F0C0B2014600901E2009F0A3FB83
:1023D00000BF00BF8AE400220821072009F02AFB81
:1023E00009F02BFE0B21002009F07FFB01220821C0
:1023F000022009F01FFB0B21022009F076FB0421CB
:10240000084609F05AFB09F0CFFD002208210720F9
:1024100009F010FB00211A2009F0B9FB0122114636
:102420001C2009F007FB804800680A2190FBF1F2AC
:1024300001FB1200C0B2014600901C2009F0A7FB6E
:10244000794800680A2190FBF1F0C0B20146009083
:102450001E2009F060FB029810B101284DD14DE01B
:102460007148006871490968884213DC09F09CFDD5
:1024700000220821072009F0DDFA08211A2009F0BE
:1024800060FB08211C2009F05CFB06211E2009F0DE
:1024900058FB32E064480068401E63490860084603
:1024A0000068002801DA0120086009F07DFD0022A3
:1024B0000821072009F0BEFA00211A2009F067FB65
:1024C000012211461C2009F0B5FA574800680A217C
:1024D00090FBF1F201FB1200C0B2014600901C20FB
:1024E00009F055FB504800680A2190FBF1F0C0B29A
:1024F000014600901E2009F00EFB33E04A480068B8
:10250000401C4949086008460068632801DD6320D3
:10251000086009F049FD00220821072009F08AFA25
:1025200000211A2009F033FB012211461C2009F07A
:1025300081FA3D4800680A2190FBF1F201FB12008C
:10254000C0B2014600901C2009F021FB364800680B
:102550000A2190FBF1F0C0B2014600901E2009F064
:10256000DAFA00BF00BF8DE409F067FD0421002006
:1025700009F0BBFA01220821022009F05BFA0B21C5
:10258000022009F0B2FA0421084609F096FA09F08F
:102590000BFD00220821072009F04CFA00211A2027
:1025A00009F0F5FA012211461C2009F043FA1F48F0
:1025B00000680A2190FBF1F201FB1200C0B2014653
:1025C00000901C2009F0E3FA184800680A2190FBEB
:1025D000F1F0C0B2014600901E2009F09CFA02986A
:1025E00010B101283ED13EE010480068401E0F495E
:1025F000086008460068002801DA0020086009F039
:10260000D3FC00220821072009F014FA00211A2027
:1026100009F0BDFA012211461C2009E0BC0200208D
:10262000C0020020B8020020C8020020CC02002016
:1026300009F000FAF84800680A2190FBF1F201FB6A
:102640001200C0B2014600901C2009F0A0FAF24826
:1026500000680A2190FBF1F0C0B2014600901E20F4
:1026600009F059FA4DE0ED480068EB4909688842E5
:1026700013DC09F099FC00220821072009F0DAF99F
:1026800008211A2009F05DFA08211C2009F059FAE6
:1026900006211E2009F055FA32E0DF480068401C90
:1026A000DD49086008460068632801DD6320086092
:1026B00009F07AFC00220821072009F0BBF900216B
:1026C0001A2009F064FA012211461C2009F0B2F91F
:1026D000D14800680A2190FBF1F201FB1200C0B260
:1026E000014600901C2009F052FACB4800680A21EC
:1026F00090FBF1F0C0B2014600901E2009F00BFAE9
:1027000000BF00BF3BE409F098FC0521002009F060
:10271000ECF901220821022009F08CF903210220A2
:1027200009F0E3F90621042009F0C7F90121172077
:1027300009F045FA09F038FCB9480068012804D1CD
:1027400005211C2009F0FDF903E003211C2009F0FC
:10275000F8F9029810B101282ED116E0B0480068AF
:1027600048B90120AE49086009F01EFC05211C2073
:1027700009F0E7F908E00020A949086009F014FC15
:1027800003211C2009F0DDF916E0A548006848B9CE
:102790000120A349086009F007FC05211C2009F06D
:1027A000D0F908E000209E49086009F0FDFB0321F4
:1027B0001C2009F0C6F900BF00BFFBE409F03DFC96
:1027C0000821002009F091F901220821022009F0D6
:1027D00031F90521022009F088F90721042009F0C8
:1027E0006CF909F0E1FB8F480068012808D10A2143
:1027F0001A2009F0A6F900211C2009F08CF90BE041
:1028000005211A2009F09DF905211C2009F099F9EC
:1028100000211E2009F07FF9029810B1012846D14D
:1028200022E08048006868B901207E49086009F00C
:10283000BBFB0A211A2009F084F900211C2009F0B1
:102840006AF910E000207749086009F0ADFB052126
:102850001A2009F076F905211C2009F072F90021EF
:102860001E2009F058F922E06E48006868B901207E
:102870006C49086009F098FB0A211A2009F061F9F7
:1028800000211C2009F047F910E00020654908608C
:1028900009F08AFB05211A2009F053F905211C20B3
:1028A00009F04FF900211E2009F035F900BF00BFE3
:1028B00080E409F0C2FB0121002009F0FEF80122AA
:1028C0000821022009F0B6F80321022009F00DF9D1
:1028D0000821042009F0F1F809F066FB524800686D
:1028E00038B90A211A2009F02CF900211C2009F01E
:1028F00012F94D48006801280BD105211A2009F072
:1029000020F905211C2009F01CF900211E2009F0E6
:1029100002F9029810B1012856D12AE04248006815
:10292000401E4149086008460068002801DA01207D
:1029300008603D48006848B909F036FB0A211A20B2
:1029400009F0FFF800211C2009F0E5F8364800687E
:1029500001280DD109F028FB05211A2009F0F1F812
:1029600005211C2009F0EDF800211E2009F0D3F804
:102970002AE02D480068401C2B4908600846006882
:10298000012801DD002008602748006848B909F0E7
:102990000BFB0A211A2009F0D4F800211C2009F0B1
:1029A000BAF82148006801280DD109F0FDFA052187
:1029B0001A2009F0C6F805211C2009F0C2F80021F0
:1029C0001E2009F0A8F800BF00BF03E509F035FBA1
:1029D0000221002009F071F801220821022009F0EB
:1029E00029F80321022009F080F80821042009F0C9
:1029F00064F809F0D9FA0D480068012818D10321BC
:102A00001A2009F09EF809211C2009F09AF80321E8
:102A10001E2009F096F817E0CC020020C802002022
:102A2000D0020020D4020020D8020020DC020020C6
:102A300000211A2009F085F808211C2009F081F8EE
:102A400000211E2009F067F8029810B101284ED12C
:102A500026E0F848006888B90120F649086009F0C6
:102A6000A3FA03211A2009F06CF809211C2009F0AF
:102A700068F803211E2009F064F810E00020ED49F9
:102A8000086009F091FA00211A2009F05AF808218B
:102A90001C2009F056F800211E2009F03CF826E021
:102AA000E448006888B90120E249086009F07CFA2E
:102AB00003211A2009F045F809211C2009F041F8EA
:102AC00003211E2009F03DF810E00020D9490860DC
:102AD00009F06AFA00211A2009F033F808211C20B5
:102AE00009F02FF800211E2009F015F800BF00BFE3
:102AF00070E409F0A2FA0321002008F0DEFF0122B1
:102B00000821022008F096FF0321022008F0EDFFC3
:102B10000821042008F0D1FF09F046FAC6480068F1
:102B20000A2190FBF1F201FB1200C0B201460090B5
:102B30001A2008F0F0FFC04800680A2190FBF1F06D
:102B400090FBF1F201FB1200C0B2014600901C2084
:102B500008F0E1FFB8480068642190FBF1F0C0B2D2
:102B6000014600901E2008F0D6FF029810B10128FF
:102B70006CD135E0B0480068401EAF490860084697
:102B80000068012802DA4FF41670086009F00CFAA8
:102B9000A94800680A2190FBF1F201FB1200C0B2C3
:102BA000014600901A2008F0B6FFA34800680A21E9
:102BB00090FBF1F090FBF1F201FB1200C0B2014674
:102BC00000901C2008F0A7FF9B480068642190FB40
:102BD000F1F0C0B2014600901E2008F09CFF35E0E5
:102BE00095480068401C9449086008460068B0F5A4
:102BF000167F01DD0120086009F0D6F98E480068D3
:102C00000A2190FBF1F201FB1200C0B201460090D4
:102C10001A2008F080FF884800680A2190FBF1F034
:102C200090FBF1F201FB1200C0B2014600901C20A3
:102C300008F071FF80480068642190FBF1F0C0B299
:102C4000014600901E2008F066FF00BF00BF8AE426
:102C500009F0F3F90421002008F02FFF01220821D8
:102C6000022008F0E7FE0321022008F03EFF0821C1
:102C7000042008F022FF09F097F9704800680A2143
:102C800090FBF1F201FB1200C0B2014600901A2045
:102C900008F041FF694800680A2190FBF1F090FBC1
:102CA000F1F201FB1200C0B2014600901C2008F0B6
:102CB00032FF62480068642190FBF1F0C0B2014627
:102CC00000901E2008F027FF029810B101286CD157
:102CD00035E05A480068401E5849086008460068B8
:102CE000012802DA4FF41670086009F05DF95348C4
:102CF00000680A2190FBF1F201FB1200C0B201460C
:102D000000901A2008F007FF4C4800680A2190FB49
:102D1000F1F090FBF1F201FB1200C0B2014600900D
:102D20001C2008F0F8FE45480068642190FBF1F093
:102D3000C0B2014600901E2008F0EDFE35E03F488D
:102D40000068401C3D49086008460068B0F5167FE1
:102D500001DD0120086009F027F9384800680A21E0
:102D600090FBF1F201FB1200C0B2014600901A2064
:102D700008F0D1FE314800680A2190FBF1F090FB89
:102D8000F1F201FB1200C0B2014600901C2008F0D5
:102D9000C2FE2A480068642190FBF1F0C0B20146EF
:102DA00000901E2008F0B7FE00BF00BFAAE409F0A3
:102DB00044F90521002008F080FE012208210220AC
:102DC00008F038FE0321022008F08FFE08210420BD
:102DD00008F073FE09F0E8F8194800680A2190FB32
:102DE000F1F201FB1200C0B2014600901A2008F077
:102DF00092FE029810B101283FD123E010480068EC
:102E0000401E0F49086008460068002801DA0120CA
:102E1000086009F0C9F80A4800680A2190FBF1F23D
:102E200001FB1200C0B2014600901A2008F073FEA8
:102E300023E00000DC020020E0020020E402002089
:102E4000F4020020FE480068401CFD490860084666
:102E50000068012801DD0020086009F0A5F8F848A5
:102E600000680A2190FBF1F201FB1200C0B201469A
:102E700000901A2008F04FFE00BF00BF42E409F0A6
:102E8000DCF800220821072008F0D4FD00220821E8
:102E90000A2008F0CFFD0021084608F026FE012296
:102EA0000821022008F0C6FD0321022008F01DFEC3
:102EB0000421084608F001FE0121172008F07FFEDA
:102EC00009F072F8DF4800680A2190FBF1F201FB7B
:102ED0001200C0B2014600901A2008F01CFE012228
:102EE00011461C2008F0A6FDD64800680A2190FB78
:102EF000F1F090FBF1F201FB1200C0B2014600902C
:102F00001C2008F044FECF480068642190FBF1F0DB
:102F1000C0B2014600901E2008F0FDFD029810B1DD
:102F2000012839D139E0C7480068401EC54908600A
:102F300008460068002801DA0020086009F034F82B
:102F4000C04800680A2190FBF1F201FB1200C0B2F8
:102F5000014600901A2008F0DEFD012211461C20D7
:102F600008F068FDB74800680A2190FBF1F090FB7B
:102F7000F1F201FB1200C0B2014600901C2008F0E3
:102F800006FEB0480068642190FBF1F0C0B2014633
:102F900000901E2008F0BFFD4FE0AA480068401CCA
:102FA000A8490860A8480068A8490968401A032190
:102FB00090FBF1F000EB8000A2490968B1EB400FF3
:102FC0000CDDA1480068A1490968401A032190FB63
:102FD000F1F000EB800040009A49086008F0E4FF3F
:102FE000984800680A2190FBF1F201FB1200C0B280
:102FF000014600901A2008F08EFD012211461C2087
:1030000008F018FD8F4800680A2190FBF1F090FB52
:10301000F1F201FB1200C0B2014600901C2008F042
:10302000B6FD88480068642190FBF1F0C0B201460B
:1030300000901E2008F06FFD00BF00BF38E408F0CC
:10304000FCFF0021084608F050FD01220821022063
:1030500008F0F0FC0B21022008F047FD042108468F
:1030600008F02BFD7A4800680A2190FBF1F201FB81
:103070001200C0B20246012100901C2008F0DAFCC8
:1030800008F092FF00211A2008F081FD70480068C6
:103090000A2190FBF1F090FBF1F201FB1200C0B2AB
:1030A000014600901C2008F072FD69480068642108
:1030B00090FBF1F0C0B2014600901E2008F02BFDFD
:1030C000029810B1012839D139E061480068401EEA
:1030D0005F49086008460068002801DA002008609F
:1030E00008F062FF5A4800680A2190FBF1F201FBE8
:1030F0001200C0B2014600901A2008F048FD0122DB
:1031000011461C2008F096FC514800680A2190FBEB
:10311000F1F090FBF1F201FB1200C0B20146009009
:103120001C2008F034FD4A480068642190FBF1F04F
:10313000C0B2014600901E2008F0EDFC4FE044486C
:103140000068401C424908604248006842490968DA
:10315000401A032190FBF1F000EB80003C49096824
:10316000B1EB400F0CDD3B4800683B490968401A51
:10317000032190FBF1F000EB80004000344908602F
:1031800008F012FF324800680A2190FBF1F201FBBF
:103190001200C0B2014600901A2008F0F8FC01228B
:1031A00011461C2008F046FC294800680A2190FBC3
:1031B000F1F090FBF1F201FB1200C0B20146009069
:1031C0001C2008F0E4FC22480068642190FBF1F028
:1031D000C0B2014600901E2008F09DFC00BF00BF59
:1031E00086E408F02AFF0021084608F066FC012268
:1031F0000821022008F01EFC0321022008F075FCC3
:103200000921042008F059FC08F0CEFE134800788C
:10321000642190FBF1F201FB12000A2190FBF1F214
:1032200001FB1200C0B2014600901A2008F073FCA6
:103230000A480078642190FBF1F201FB12000FE0D4
:10324000F4020020F8020020B8020020BC02002096
:1032500000030020C8020020CC020020470200200A
:103260000A2190FBF1F0C0B2014600901C2008F04A
:1032700052FCFE480078642190FBF1F0C0B2014698
:1032800000901E2008F047FC029810B1012876D16A
:103290003AE0F6480078401EF44908700846007885
:1032A000012801DAFF20087008F07EFEEF48007860
:1032B000642190FBF1F201FB12000A2190FBF1F274
:1032C00001FB1200C0B2014600901A2008F023FC56
:1032D000E6480078642190FBF1F201FB12000A211C
:1032E00090FBF1F0C0B2014600901C2008F013FCE6
:1032F000DE480078642190FBF1F0C0B201460090F6
:103300001E2008F008FC3AE0D8480078401CD74955
:10331000087008460078FF2801DD0120087008F0D9
:1033200043FED2480078642190FBF1F201FB1200C9
:103330000A2190FBF1F201FB1200C0B2014600909D
:103340001A2008F0E8FBC9480078642190FBF1F2EC
:1033500001FB12000A2190FBF1F0C0B2014600907F
:103360001C2008F0D8FBC1480078642190FBF1F0E4
:10337000C0B2014600901E2008F0CDFB00BF00BF88
:1033800065E408F05AFE0121002008F096FB0122B6
:103390000821022008F04EFB0321022008F0A5FBC3
:1033A0000921042008F089FB08F0FEFDB0480078F0
:1033B000642190FBF1F201FB12000A2190FBF1F273
:1033C00001FB1200C0B2014600901A2008F0A3FBD6
:1033D000A7480078642190FBF1F201FB12000A215A
:1033E00090FBF1F0C0B2014600901C2008F093FB66
:1033F0009F480078642190FBF1F0C0B20146009034
:103400001E2008F088FB029810B1012876D13AE01E
:1034100097480078401E96490870084600780128B1
:1034200001DAFF20087008F0BFFD914800786421A0
:1034300090FBF1F201FB12000A2190FBF1F201FB7B
:103440001200C0B2014600901A2008F064FB8848C0
:103450000078642190FBF1F201FB12000A2190FB3D
:10346000F1F0C0B2014600901C2008F054FB8048E7
:103470000078642190FBF1F0C0B2014600901E205C
:1034800008F049FB3AE07A480078401C7849087017
:1034900008460078FF2801DD0120087008F084FD4F
:1034A00073480078642190FBF1F201FB12000A21BD
:1034B00090FBF1F201FB1200C0B2014600901A200D
:1034C00008F029FB6A480078642190FBF1F201FBC7
:1034D00012000A2190FBF1F0C0B2014600901C20BE
:1034E00008F019FB62480078642190FBF1F0C0B24B
:1034F000014600901E2008F00EFB00BF00BF55E4FF
:1035000008F09BFD0221002008F0D7FA01220821D3
:10351000022008F08FFA0321022008F0E6FA0921C0
:10352000042008F0CAFA08F03FFD524800786421F0
:1035300090FBF1F201FB12000A2190FBF1F201FB7A
:103540001200C0B2014600901A2008F0E4FA49487F
:103550000078642190FBF1F201FB12000A2190FB3C
:10356000F1F0C0B2014600901C2008F0D4FA4148A6
:103570000078642190FBF1F0C0B2014600901E205B
:1035800008F0C9FA029810B101287ED13AE0394812
:103590000078401E3749087008460078012801DA93
:1035A000FF20087008F000FD32480078642190FB8D
:1035B000F1F201FB12000A2190FBF1F201FB120073
:1035C000C0B2014600901A2008F0A5FA29480078F8
:1035D000642190FBF1F201FB12000A2190FBF1F053
:1035E000C0B2014600901C2008F095FA21480078EE
:1035F000642190FBF1F0C0B2014600901E2008F05B
:103600008AFA42E01B480078401C1A4908700846B4
:103610000078FF2801DD0120087008F0C5FC15487E
:103620000078642190FBF1F201FB12000A2190FB6B
:10363000F1F201FB1200C0B2014600901A2008F01E
:103640006AFA0C480078642190FBF1F201FB120049
:103650000A2190FBF1F0C0B2014600901C2008F056
:103660005AFA04480078642106E00000470200206E
:10367000480200204902002090FBF1F0C0B2014650
:1036800000901E2008F047FA00BF00BFD8E208F003
:10369000D4FC0321002008F010FA012208210220A6
:1036A00008F0C8F90321022008F01FFA09210420BC
:1036B00008F003FA08F078FCFE480078642190FBDB
:1036C000F1F201FB12000A2190FBF1F201FB120062
:1036D000C0B2014600901A2008F01DFAF5480078A3
:1036E000642190FBF1F201FB12000A2190FBF1F042
:1036F000C0B2014600901C2008F00DFAED48007899
:10370000642190FBF1F0C0B2014600901E2008F049
:1037100002FA029810B1012876D13AE0E548007823
:10372000401EE449087008460078012801DAFF20AD
:10373000087008F039FCDF480078642190FBF1F252
:1037400001FB12000A2190FBF1F201FB1200C0B252
:10375000014600901A2008F0DEF9D648007864216E
:1037600090FBF1F201FB12000A2190FBF1F0C0B2D4
:10377000014600901C2008F0CEF9CE480078642164
:1037800090FBF1F0C0B2014600901E2008F0C3F992
:103790003AE0C8480078401CC649087008460078DE
:1037A000FF2801DD0120087008F0FEFBC148007809
:1037B000642190FBF1F201FB12000A2190FBF1F26F
:1037C00001FB1200C0B2014600901A2008F0A3F9D4
:1037D000B8480078642190FBF1F201FB12000A2145
:1037E00090FBF1F0C0B2014600901C2008F093F964
:1037F000B0480078642190FBF1F0C0B2014600901F
:103800001E2008F088F900BF00BFA3E308F015FCF4
:103810000021084608F051F901220821022008F091
:1038200009F90321022008F060F90521042008F0BD
:1038300044F90121172008F0C2F908F0B5FB9E48B1
:10384000006800280ADA01220821072008F0F2F8AF
:103850009948006840429949086008E09648006825
:103860009649086000220821072008F0E3F89348F1
:1038700000680A2190FBF1F201FB1200C0B2014680
:1038800000901A2008F047F9012211461C2008F088
:10389000D1F88A4800680A2190FBF1F090FBF1F220
:1038A00001FB1200C0B2014600901C2008F06FF925
:1038B00082480068642190FBF1F0C0B2014600909C
:1038C0001E2008F028F9029810B1012853D153E0C6
:1038D00079480068401E784908600846006810F181
:1038E000640F02DA6FF06300086073480068002814
:1038F0000ADA01220821072008F09CF86E480068C7
:1039000040426E49086008E06B4800686B490860F7
:1039100000220821072008F08DF808F045FB6748D1
:1039200000680A2190FBF1F201FB1200C0B20146CF
:1039300000901A2008F0EFF8012211461C2008F030
:1039400079F85E4800680A2190FBF1F090FBF1F2F3
:1039500001FB1200C0B2014600901C2008F017F9CC
:1039600056480068642190FBF1F0C0B20146009017
:103970001E2008F0D0F851E04F480068401C4E4926
:10398000086008460068642801DD642008604A4831
:10399000006800280ADA01220821072008F04AF806
:1039A0004548006840424549086008E042480068D0
:1039B0004249086000220821072008F03BF808F07F
:1039C000F3FA3E4800680A2190FBF1F201FB120075
:1039D000C0B2014600901A2008F09DF8012211465D
:1039E0001C2008F027F8354800680A2190FBF1F008
:1039F00090FBF1F201FB1200C0B2014600901C20C6
:103A000008F0C5F82D480068642190FBF1F0C0B2C1
:103A1000014600901E2008F07EF800BF00BF99E22A
:103A200008F00BFB0021084608F047F801220821A6
:103A3000022007F0FFFF0B21022008F056F80521B5
:103A4000042008F03AF808F0AFFA1D480068002892
:103A50000ADA01220821072007F0ECFF1848006865
:103A600040421849086008E0154800681549086098
:103A700000220821072007F0DDFF124800680A2114
:103A800090FBF1F201FB1200C0B2014600901A2037
:103A900008F07DF8012211461C2007F0CBFF0948F1
:103AA00000680A2190FBF1F090FBF1F201FB12009B
:103AB000C0B209E04A020020280300202C030020A5
:103AC0003003002034030020014600901C2008F041
:103AD0005EF8FB480068642190FBF1F0C0B201463B
:103AE00000901E2008F017F8029810B1012853D159
:103AF00053E0F4480068401EF24908600846006838
:103B000010F1640F02DA6FF063000860ED4800689E
:103B100000280ADA01220821072007F08BFFE94874
:103B200000684042E649086008E0E6480068E44969
:103B3000086000220821072007F07CFF08F034FA13
:103B4000DF4800680A2190FBF1F201FB1200C0B2CD
:103B5000014600901A2008F01AF8012211461C2094
:103B600007F068FFD64800680A2190FBF1F090FB4F
:103B7000F1F201FB1200C0B2014600901C2008F0D7
:103B800006F8CF480068642190FBF1F0C0B201460E
:103B900000901E2007F0BFFF51E0CA480068401C9B
:103BA000C849086008460068642801DD6420086090
:103BB000C448006800280ADA01220821072007F01B
:103BC00039FFC04800684042BD49086008E0BD4870
:103BD0000068BB49086000220821072007F02AFF7F
:103BE00008F0E2F9B64800680A2190FBF1F201FB07
:103BF0001200C0B2014600901A2007F0C8FF01224F
:103C000011461C2007F016FFAD4800680A2190FB02
:103C1000F1F090FBF1F201FB1200C0B201460090FE
:103C20001C2007F0B4FFA6480068642190FBF1F067
:103C3000C0B2014600901E2007F06DFF00BF00BF1C
:103C400088E108F0FAF90421002007F036FF01228C
:103C50000821022007F0EEFE0321022007F045FFB5
:103C60000921042007F029FF08F09EF908F0F1F976
:103C70009548008842F2107190FBF1F0C0B2014605
:103C800000900B2007F0DEFD8F48008842F2107193
:103C900090FBF1F201FB12004FF47A7190FBF1F00E
:103CA000C0B2014600900D2007F0CCFD8648008888
:103CB0004FF47A7190FBF1F201FB1200642190FB4A
:103CC000F1F0C0B2014600900F2007F0BBFD7E4826
:103CD0000088642190FBF1F201FB12000A2190FBA5
:103CE000F1F0C0B201460090112007F0ABFD76481C
:103CF00000880A2190FBF1F201FB1200C0B20146DC
:103D00000090132007F09EFD029810B101285AD1AF
:103D10005AE06D480088401E6B49088008460088BC
:103D2000012802DA4FF6FF70088008F092F9664821
:103D3000008842F2107190FBF1F0C0B20146009091
:103D40000B2007F07FFD6048008842F2107190FB65
:103D5000F1F201FB12004FF47A7190FBF1F0C0B266
:103D6000014600900D2007F06DFD574800884FF484
:103D70007A7190FBF1F201FB1200642190FBF1F0EB
:103D8000C0B2014600900F2007F05CFD4E4800884D
:103D9000642190FBF1F201FB12000A2190FBF1F08B
:103DA000C0B201460090112007F04CFD4648008843
:103DB0000A2190FBF1F201FB1200C0B20146009013
:103DC000132007F03FFD5AE03F480088401C3E4961
:103DD000088008460088B0F5803F01DB012008809C
:103DE00008F037F93848008842F2107190FBF1F082
:103DF000C0B2014600900B2007F024FD3248008835
:103E000042F2107190FBF1F201FB12004FF47A7153
:103E100090FBF1F0C0B2014600900D2007F012FDBA
:103E2000294800884FF47A7190FBF1F201FB1200EF
:103E3000642190FBF1F0C0B2014600900F2007F022
:103E400001FD21480088642190FBF1F201FB120082
:103E50000A2190FBF1F0C0B201460090112007F05A
:103E6000F1FC194800880A2190FBF1F201FB1200D5
:103E7000C0B201460090132007F0E4FC00BF00BF71
:103E800068E008F0DAF80421002007F02EFE062191
:103E9000022007F02AFE0521042007F00EFE08F09C
:103EA000D8F808F081F809480078014600901A20F7
:103EB00007F031FE029858B1012833D11DE000000F
:103EC00034030020300300204C020020EC020020CC
:103ED000FE480068401EFD49086008460068012849
:103EE00001DA0420086008F05FF8F848007801461D
:103EF00000901A2007F00FFE14E0F4480068401C00
:103F0000F249086008460068042801DD01200860C5
:103F100008F04AF8ED480078014600901A2007F0B2
:103F2000FAFD00BF00BF15E008F087F80621022067
:103F300007F0C3FD0121042007F0BFFD08F034F8AD
:103F40000120E34908600020E24908600120E249BD
:103F5000086000BF00BF0EBD03B583B003981A28E8
:103F600082F02783DFE810F01A001C00DB00D0018C
:103F70004D024B0354040905B90521069C06290787
:103F8000B0076A0819097809410AFD0A060C040DF0
:103F9000FC0D010F0B101E11C7120F1302F009BB0D
:103FA00008F04BF80021084607F09FFD0122082188
:103FB000022007F03FFD0121022007F07EFD0121D4
:103FC000042007F07AFD07F0EFFFC4480078642171
:103FD00090FBF1F201FB12000A2190FBF1F201FBD0
:103FE0001200C0B2014602901A2007F094FDBB48AF
:103FF0000078642190FBF1F201FB12000A2190FB92
:10400000F1F0C0B2014602901C2007F084FDB348D5
:104010000078642190FBF1F0C0B2014602901E20AE
:1040200007F079FD049810B1012876D13AE0AB4849
:104030000078401EA949087008460078012801DA76
:10404000FE20087007F0B0FFA4480078642190FBC0
:10405000F1F201FB12000A2190FBF1F201FB1200C8
:10406000C0B2014602901A2007F055FD9B48007827
:10407000642190FBF1F201FB12000A2190FBF1F0A8
:10408000C0B2014602901C2007F045FD934800781D
:10409000642190FBF1F0C0B2014602901E2007F0AF
:1040A0003AFD3AE08D480078401C8C49087008467B
:1040B0000078FE2801DD0120087007F075FF8748B1
:1040C0000078642190FBF1F201FB12000A2190FBC1
:1040D000F1F201FB1200C0B2014602901A2007F073
:1040E0001AFD7E480078642190FBF1F201FB12007A
:1040F0000A2190FBF1F0C0B2014602901C2007F0AB
:104100000AFD76480078642190FBF1F0C0B20146C8
:1041100002901E2007F0FFFC00BF00BF3EE707F043
:104120008CFF0221002007F0E0FC01220821022080
:1041300007F080FC01220821022007F0B9FB0121D1
:10414000022007F0D2FC0221042007F0B6FC07F0A1
:104150002BFF63486349096850F8210062490860F1
:1041600008460068642190FBF1F00A2190FBF1F20F
:1041700001FB1200C0B2014602901A2007F0CBFCEE
:1041800059480068642190FBF1F00A2190FBF1F09E
:1041900090FBF1F201FB1200C0B2014602901C201C
:1041A00007F0B9FC5048006842F2107190FBF1F042
:1041B000C0B2014602901E2007F0ADFC049810B179
:1041C000012846D146E047480068401E454908603E
:1041D00008460068002801DA042008604048414988
:1041E000096850F8210040490860084600680AF054
:1041F000B2FA07F0D9FE3C480068642190FBF1F068
:104200000A2190FBF1F201FB1200C0B201460290BC
:104210001A2007F080FC34480068642190FBF1F01C
:104220000A2190FBF1F090FBF1F201FB1200C0B209
:10423000014602901C2007F06EFC2B48006842F2F9
:10424000107190FBF1F0C0B2014602901E2007F001
:1042500062FC57E023480068401C22490860084679
:104260000068042801DD002008601D481D49096818
:1042700050F821001C490860084600680AF06BFAF3
:1042800007F092FE18480068642190FBF1F00A21C3
:1042900090FBF1F201FB1200C0B2014602901A201D
:1042A00007F039FC10480068642190FBF1F00A2106
:1042B00090FBF1F090FBF1F201FB1200C0B201465D
:1042C00002901C2007F027FC07480FE0EC020020BA
:1042D00058030020440300206003002094020020C3
:1042E000A00200209C02002098020020006842F2F8
:1042F000107190FBF1F0C0B2014602901E2007F051
:104300000AFC00BF00BF49E607F097FE0821002025
:1043100007F0EBFB01220821022007F08BFB0721AD
:10432000022007F0E2FB0321042007F0C6FBFE4851
:10433000006801280AD107F037FE0A211A2007F089
:1043400000FC00211C2007F0E6FB0DE007F02CFE2E
:1043500005211A2007F0F5FB05211C2007F0F1FBD1
:1043600000211E2007F0D7FB049810B1012846D188
:1043700022E0ED48006868B90120EB49086007F0C9
:1043800013FE0A211A2007F0DCFB00211C2007F095
:10439000C2FB10E00020E449086007F005FE05219B
:1043A0001A2007F0CEFB05211C2007F0CAFB0021D4
:1043B0001E2007F0B0FB22E0DB48006868B901204E
:1043C000D949086007F0F0FD0A211A2007F0B9FB6F
:1043D00000211C2007F09FFB10E00020D24908605C
:1043E00007F0E2FD05211A2007F0ABFB05211C2098
:1043F00007F0A7FB00211E2007F08DFB00BF00BFC8
:10440000CCE507F01AFE0B21002007F06EFB01221D
:104410000821022007F00EFB0321022007F065FBB4
:104420000421084607F049FB0121172007F0C7FBCC
:1044300007F0BAFDBD48006800280ADA0122082109
:10444000072007F0F7FAB94800684042B849086009
:1044500008E0B6480068B649086000220821072035
:1044600007F0E8FA00211A2007F055FB0122114657
:104470001C2007F0DFFAAE4800680A2190FBF1F239
:1044800001FB1200C0B2014602901C2007F07FFB26
:10449000A74800680A2190FBF1F0C0B201460290E3
:1044A0001E2007F038FB049810B1012875D175E083
:1044B000A04800689D490968884226DD07F074FD20
:1044C0009A48006800280ADA01220821072007F02C
:1044D000B1FA9648006840429549086008E0934860
:1044E00000689349086000220821072007F0A2FA1B
:1044F00008211A2007F025FB08211C2007F021FBCA
:1045000006211E2007F01DFB47E088480068401E7A
:10451000864908600846006810F1280F02DA6FF03B
:104520002700086007F040FD8048006800280ADA8C
:1045300001220821072007F07DFA7C4800684042EC
:104540007B49086008E079480068794908600022E2
:104550000821072007F06EFA00211A2007F0DBFA85
:10456000012211461C2007F065FA714800680A21F3
:1045700090FBF1F201FB1200C0B2014602901C2038
:1045800007F005FB6A4800680A2190FBF1F0C0B211
:10459000014602901E2007F0BEFA2EE06348006834
:1045A000401C6249086008460068502801DD502020
:1045B000086007F0F9FC00211A2007F0ACFA01228C
:1045C00011461C2007F036FA594800680A2190FB72
:1045D000F1F201FB1200C0B2014602901C2007F06C
:1045E000D6FA534800680A2190FBF1F0C0B20146A8
:1045F00002901E2007F08FFA00BF00BFCEE407F044
:104600001CFD0421002007F070FA0122082102207D
:1046100007F010FA0321022007F067FA05210420B1
:1046200007F04BFA0121172007F0C9FA07F0BCFC8C
:104630004048006800280ADA01220821072007F014
:10464000F9F93C48006840423B49086008E03948B5
:1046500000683949086000220821072007F0EAF9BC
:1046600000211A2007F057FA012211461C2007F0FA
:10467000E1F9314800680A2190FBF1F201FB1200D8
:10468000C0B2014602901C2007F081FA2A48006857
:104690000A2190FBF1F0C0B2014602901E2007F003
:1046A0003AFA049810B1012853D153E02148006828
:1046B000401E204908600846006810F1280F02DA01
:1046C0006FF02700086007F06FFC1A4800680028A8
:1046D0000ADA01220821072007F0ACF91548006822
:1046E00040421549086008E0124800681249086015
:1046F00000220821072007F09DF900211A2007F069
:104700000AFA012211461C2007F094F90A480068B1
:104710000A2190FBF1F201FB1200C0B201460290A7
:104720001C2007F034FA09E0B4020020B80200208F
:10473000C4020020BC020020C0020020F84800682B
:104740000A2190FBF1F0C0B2014602901E2007F052
:10475000E2F95BE0F3480068F349096888420EDD3E
:1047600007F022FC08211A2007F0EBF908211C2091
:1047700007F0E7F906211E2007F0E3F945E0E948D4
:104780000068401CE749086008460068502801DDC1
:104790005020086007F008FCE248006800280ADAA8
:1047A00001220821072007F045F9DE480068404251
:1047B000DB49086008E0DB480068D949086000224E
:1047C0000821072007F036F900211A2007F0A3F985
:1047D000012211461C2007F02DF9D14800680A215A
:1047E00090FBF1F201FB1200C0B2014602901C20C6
:1047F00007F0CDF9CA4800680A2190FBF1F0C0B279
:10480000014602901E2007F086F900BF00BF85E434
:1048100000220821072007F00DF907F00EFC0B21FC
:10482000002007F062F901220821022007F002F9B6
:104830000B21022007F059F90621042007F03DF969
:1048400007F0B2FB00211A2007F0A1F9012211465E
:104850001C2007F0EFF8B54800680A2190FBF1F240
:1048600001FB1200C0B2014602901C2007F08FF934
:10487000AE4800680A2190FBF1F0C0B201460290F8
:104880001E2007F048F9049810B1012873D143E0C5
:10489000A6480068A649096888420EDA07F084FB3A
:1048A00008211A2007F04DF908211C2007F049F9CA
:1048B00006211E2007F045F92DE09C480068401EA7
:1048C0009A49086008460068002801DA012008605B
:1048D00007F06AFB00211A2007F059F9012211465E
:1048E0001C2007F0A7F8914800680A2190FBF1F21C
:1048F00001FB1200C0B2014602901C2007F047F9EC
:104900008A4800680A2190FBF1F0C0B2014602908B
:104910001E2007F000F92EE084480068401C8349FF
:10492000086008460068632801DD6320086007F01E
:104930003BFB00211A2007F02AF9012211461C2016
:1049400007F078F8794800680A2190FBF1F201FB42
:104950001200C0B2014602901C2007F018F97348FB
:1049600000680A2190FBF1F0C0B2014602901E20BF
:1049700007F0D1F800BF00BFC5E407F05EFB0421DB
:10498000002007F0B2F801220821022007F052F8B7
:104990000B21022007F0A9F80721042007F08DF869
:1049A00007F002FB00211A2007F0F1F8012211465E
:1049B0001C2007F03FF85E4800680A2190FBF1F2E6
:1049C00001FB1200C0B2014602901C2007F0DFF884
:1049D000574800680A2190FBF1F0C0B201460290EE
:1049E0001E2007F098F8049810B1012873D12EE02A
:1049F0004F480068401E4E4908600846006800287D
:104A000001DA0020086007F0CFFA00211A2007F031
:104A1000BEF8012211461C2007F00CF8444800683B
:104A20000A2190FBF1F201FB1200C0B20146029094
:104A30001C2007F0ACF83E4800680A2190FBF1F01A
:104A4000C0B2014602901E2007F065F843E03748E7
:104A500000683749096888420EDA07F0A5FA08218C
:104A60001A2007F06EF808211C2007F06AF80621CA
:104A70001E2007F066F82DE02D480068401C2C49E8
:104A8000086008460068632801DD6320086007F0BD
:104A90008BFA00211A2007F07AF8012211461C2017
:104AA00006F0C8FF224800680A2190FBF1F201FBE2
:104AB0001200C0B2014602901C2007F068F81C48A2
:104AC00000680A2190FBF1F0C0B2014602901E205E
:104AD00007F021F800BF00BF15E407F0AEFA05218A
:104AE000002007F002F801220821022006F0A2FFB0
:104AF0000321022006F0F9FF0821042006F0DDFF63
:104B00000121172007F05BF807F04EFA094800680A
:104B1000012811D105211C2007F013F810E0000036
:104B2000C0020020BC020020B8020020C802002001
:104B3000CC020020D002002003211C2007F001F845
:104B4000049810B101282ED116E0FE48006848B93B
:104B50000120FC49086007F027FA05211C2006F017
:104B6000F0FF08E00020F749086007F01DFA032174
:104B70001C2006F0E6FF16E0F248006848B9012064
:104B8000F049086007F010FA05211C2006F0D9FF53
:104B900008E00020EB49086007F006FA03211C201A
:104BA00006F0CFFF00BF00BF2AE407F046FA082155
:104BB000002006F09AFF01220821022006F03AFFA9
:104BC0000521022006F091FF0921042006F075FF5F
:104BD00007F0EAF9DC480068012808D10A211A2008
:104BE00006F0AFFF00211C2006F095FF0BE0052129
:104BF0001A2006F0A6FF05211C2006F0A2FF0021C6
:104C00001E2006F088FF049810B1012846D122E04A
:104C1000CD48006868B90120CB49086007F0C4F9A5
:104C20000A211A2006F08DFF00211C2006F073FFD8
:104C300010E00020C449086007F0B6F905211A20E9
:104C400006F07FFF05211C2006F07BFF00211E20BF
:104C500006F061FF22E0BC48006868B90120BA494B
:104C6000086007F0A1F90A211A2006F06AFF002166
:104C70001C2006F050FF10E00020B349086007F048
:104C800093F905211A2006F05CFF05211C2006F08F
:104C900058FF00211E2006F03EFF00BF00BFADE41C
:104CA00007F0CBF90121002006F007FF01220821BF
:104CB000022006F0BFFE0021022006F0FEFE0321C6
:104CC000042006F012FF07F06FF9A048006838B919
:104CD0000A211A2006F035FF00211C2006F01BFFD8
:104CE0009A48006801280BD105211A2006F029FFF7
:104CF00005211C2006F025FF00211E2006F00BFFD9
:104D0000049810B1012856D12AE090480068401E4E
:104D10008E49086008460068002801DA0120086012
:104D20008A48006848B907F03FF90A211A2006F0BE
:104D300008FF00211C2006F0EEFE844800680128D0
:104D40000DD107F031F905211A2006F0FAFE0521F0
:104D50001C2006F0F6FE00211E2006F0DCFE2AE0F4
:104D60007A480068401C79490860084600680128B4
:104D700001DD002008607548006848B907F014F9A3
:104D80000A211A2006F0DDFE00211C2006F0C3FED9
:104D90006E48006801280DD107F006F905211A2098
:104DA00006F0CFFE05211C2006F0CBFE00211E20C0
:104DB00006F0B1FE00BF00BF20E407F03EF902217B
:104DC000002006F07AFE01220821022006F032FEC1
:104DD0000021022006F071FE0321042006F085FE6A
:104DE00007F0E2F85A48006801280CD103211A2084
:104DF00006F0A7FE09211C2006F0A3FE03211E20B9
:104E000006F09FFE0BE000211A2006F09AFE082112
:104E10001C2006F096FE00211E2006F07CFE049861
:104E200010B101284ED126E04948006888B9012018
:104E30004749086007F0B8F803211A2006F081FE00
:104E400009211C2006F07DFE03211E2006F079FEBC
:104E500010E000203E49086007F0A6F800211A2063
:104E600006F06FFE08211C2006F06BFE00211E20BC
:104E700006F051FE26E03648006888B90120344922
:104E8000086007F091F803211A2006F05AFE092164
:104E90001C2006F056FE03211E2006F052FE10E0F4
:104EA00000202B49086007F07FF800211A2006F047
:104EB00048FE08211C2006F044FE00211E2006F0BA
:104EC0002AFE00BF00BFA2E407F0B7F803210020CC
:104ED00006F0F3FD01220821022006F0ABFD0021BF
:104EE000022006F0EAFD0321042006F0FEFD07F093
:104EF0005BF8184800680A2190FBF1F201FB1200F0
:104F0000C0B2014602901A2006F005FE1148006862
:104F10000A2190FBF1F090FBF1F201FB1200C0B20C
:104F2000014602901C2006F0F6FD0A480068642144
:104F300090FBF1F0C0B2014602901E2006F0EBFD9E
:104F4000049809E0D0020020D4020020D8020020FA
:104F5000DC020020E002002010B101286CD135E015
:104F6000FE480068401EFD490860084600680128A8
:104F700002DA4FF41670086007F016F8F748006878
:104F80000A2190FBF1F201FB1200C0B2014602902F
:104F90001A2006F0C0FDF14800680A2190FBF1F0EC
:104FA00090FBF1F201FB1200C0B2014602901C20FE
:104FB00006F0B1FDE9480068642190FBF1F0C0B251
:104FC000014602901E2006F0A6FD35E0E348006889
:104FD000401CE249086008460068B0F5167F01DD14
:104FE0000120086006F0E0FFDC4800680A2190FB21
:104FF000F1F201FB1200C0B2014602901A2006F045
:105000008AFDD64800680A2190FBF1F090FBF1F28E
:1050100001FB1200C0B2014602901C2006F07BFD8D
:10502000CE480068642190FBF1F0C0B201460290C6
:105030001E2006F070FD00BF00BF9DE406F0FDFFDE
:105040000421002006F039FD01220821022006F08B
:10505000F1FC0021022006F030FD0321042006F0BF
:1050600044FD06F0A1FFBE4800680A2190FBF1F262
:1050700001FB1200C0B2014602901A2006F04BFD5F
:10508000B74800680A2190FBF1F090FBF1F201FBB8
:105090001200C0B2014602901C2006F03CFDB04850
:1050A0000068642190FBF1F0C0B2014602901E201E
:1050B00006F031FD049810B101286CD135E0A84804
:1050C0000068401EA649086008460068012802DA08
:1050D0004FF41670086006F067FFA14800680A21C7
:1050E00090FBF1F201FB1200C0B2014602901A20BF
:1050F00006F011FD9A4800680A2190FBF1F090FB40
:10510000F1F201FB1200C0B2014602901C2006F031
:1051100002FD93480068642190FBF1F0C0B20146A3
:1051200002901E2006F0F7FC35E08D480068401C18
:105130008B49086008460068B0F5167F01DD012044
:10514000086006F031FF864800680A2190FBF1F202
:1051500001FB1200C0B2014602901A2006F0DBFCEF
:105160007F4800680A2190FBF1F090FBF1F201FB0F
:105170001200C0B2014602901C2006F0CCFC784818
:105180000068642190FBF1F0C0B2014602901E203D
:1051900006F0C1FC00BF00BF9EE406F04EFF0521F3
:1051A000002006F08AFC01220821022006F042FCC1
:1051B0000021022006F081FC0321042006F095FC6A
:1051C00006F0F2FE674800680A2190FBF1F201FB4D
:1051D0001200C0B2014602901A2006F09CFC04980E
:1051E00010B1012836D11AE05E480068401E5D49C2
:1051F000086008460068002801DA0120086006F00F
:10520000D3FE584800680A2190FBF1F201FB12001E
:10521000C0B2014602901A2006F07DFC1AE0514807
:105220000068401C4F49086008460068012801DDFD
:105230000020086006F0B8FE4A4800680A2190FB8A
:10524000F1F201FB1200C0B2014602901A2006F0F2
:1052500062FC00BF00BF3FE406F0EFFE0621002025
:1052600006F02BFC01220821022006F0E3FB0021BE
:10527000022006F022FC0321042006F036FC012166
:10528000172006F09CFC06F08FFE374800680A21C4
:1052900090FBF1F201FB1200C0B2014602901A200D
:1052A00006F039FC012211461C2006F0C3FB2E48F3
:1052B00000680A2190FBF1F090FBF1F201FB120073
:1052C000C0B2014602901C2006F061FC264800682E
:1052D000642190FBF1F0C0B2014602901E2006F05E
:1052E0001AFC049810B101287DD142E01E480068E4
:1052F000401E1D49086008460068002801DA0020A9
:10530000086006F051FE184800680A2190FBF1F28F
:1053100001FB1200C0B2014602901A2006F0FBFB0E
:10532000012211461C2006F085FB0F4800680A2167
:1053300090FBF1F090FBF1F201FB1200C0B20146CC
:1053400002901C2006F023FC07480068642190FBB3
:10535000F1F0C0B2014602901E2007E0E0020020FA
:10536000E4020020F4020020F802002006F0D3FB43
:1053700039E0FB480068401CF949086008460068AD
:10538000782801DD7820086006F00EFEF4480068F9
:105390000A2190FBF1F201FB1200C0B2014602901B
:1053A0001A2006F0B8FB012211461C2006F042FB31
:1053B000EB4800680A2190FBF1F090FBF1F201FB51
:1053C0001200C0B2014602901C2006F0E0FBE44847
:1053D0000068642190FBF1F0C0B2014602901E20EB
:1053E00006F099FB00BF00BF59E406F026FE072136
:1053F000002006F062FB01220821022006F01AFBC1
:105400000021022006F059FB0321042006F06DFB69
:10541000D44800680A2190FBF1F201FB1200C0B2EF
:105420000246012102901C2006F004FB06F0BCFDA0
:1054300000211A2006F0ABFBCA4800680A2190FB45
:10544000F1F090FBF1F201FB1200C0B201460290B4
:105450001C2006F09CFBC3480068642190FBF1F01F
:10546000C0B2014602901E2006F055FB049810B110
:10547000012874D139E0BB480068401EB949086072
:1054800008460068002801DA0020086006F08CFD5C
:10549000B44800680A2190FBF1F201FB1200C0B28F
:1054A000014602901A2006F072FB012211461C20D0
:1054B00006F0C0FAAB4800680A2190FBF1F090FBBF
:1054C000F1F201FB1200C0B2014602901C2006F06E
:1054D0005EFBA4480068642190FBF1F0C0B2014675
:1054E00002901E2006F017FB39E09E480068401C21
:1054F0009C49086008460068642801DD6420086053
:1055000006F052FD974800680A2190FBF1F201FB7A
:105510001200C0B2014602901A2006F038FB0122A8
:1055200011461C2006F086FA8E4800680A2190FB7E
:10553000F1F090FBF1F201FB1200C0B201460290C3
:105540001C2006F024FB87480068642190FBF1F0E2
:10555000C0B2014602901E2006F0DDFA00BF00BF77
:105560002AE406F06AFD0821002006F0A6FA0122CE
:105570000821022006F05EFA0021022006F09DFAC2
:105580000321042006F0B1FA0121172006F017FBD1
:1055900006F00AFD7448006800280ADA0122082192
:1055A000072006F047FA7048006840426F490860DB
:1055B00008E06D4800686D49086000220821072056
:1055C00006F038FA00211A2006F0A5FA0122114649
:1055D0001C2006F02FFA654800680A2190FBF1F2C2
:1055E00001FB1200C0B2014602901C2006F0CFFA67
:1055F0005E4800680A2190FBF1F0C0B201460290BB
:105600001E2006F088FA049810B1012875D175E0C3
:105610005548006856490968884226DD06F0C4FCF2
:105620005148006800280ADA01220821072006F004
:1056300001FA4D48006840424C49086008E04A4879
:1056400000684A49086000220821072006F0F2F9A4
:1056500008211A2006F075FA08211C2006F071FABC
:1056600006211E2006F06DFA47E03F480068401E04
:105670003D4908600846006810F1280F02DA6FF013
:105680002700086006F090FC3748006800280ADA16
:1056900001220821072006F0CDF933480068404276
:1056A0003249086008E0304800683049086000224C
:1056B0000821072006F0BEF900211A2006F02BFA77
:1056C000012211461C2006F0B5F9284800680A217D
:1056D00090FBF1F201FB1200C0B2014602901C20C7
:1056E00006F055FA214800680A2190FBF1F0C0B29B
:1056F000014602901E2006F00EFA2EE01A480068BD
:10570000401C1949086008460068502801DD5020F7
:10571000086006F049FC00211A2006F0FCF901227D
:1057200011461C2006F086F9104800680A2190FBFB
:10573000F1F201FB1200C0B2014602901C2006F0FB
:1057400026FA0A4800680A2190FBF1F0C0B201462F
:1057500002901E2006F0DFF900BF00BF6DE40000DC
:10576000F802002000030020080300200C030020A2
:105770001003002006F061FC0921002006F09DF9CD
:1057800001220821022006F055F90021022006F02E
:1057900094F90321042006F0A8F90121172006F04E
:1057A0000EFA06F001FCFE48006800280ADA012221
:1057B0000821072006F03EF9F94800684042F949FF
:1057C000086008E0F6480068F649086000220821F1
:1057D000072006F02FF900211A2006F09CF901227B
:1057E00011461C2006F026F9EE4800680A2190FBBD
:1057F000F1F201FB1200C0B2014602901C2006F03B
:10580000C6F9E84800680A2190FBF1F0C0B20146F1
:1058100002901E2006F07FF9049810B1012875D17E
:1058200075E0E1480068DE490968884226DD06F037
:10583000BBFBDB48006800280ADA012208210720A8
:1058400006F0F8F8D64800684042D649086008E0FB
:10585000D3480068D349086000220821072006F0D9
:10586000E9F808211A2006F06CF908211C2006F03E
:1058700068F906211E2006F064F947E0C848006870
:10588000401EC74908600846006810F1280F02DA78
:105890006FF02700086006F087FBC1480068002809
:1058A0000ADA01220821072006F0C4F8BC48006883
:1058B0004042BC49086008E0B9480068B94908603E
:1058C00000220821072006F0B5F800211A2006F072
:1058D00022F9012211461C2006F0ACF8B1480068FC
:1058E0000A2190FBF1F201FB1200C0B201460290C6
:1058F0001C2006F04CF9AB4800680A2190FBF1F03F
:10590000C0B2014602901E2006F005F92EE0A44820
:105910000068401CA249086008460068502801DD64
:105920005020086006F040FB00211A2006F0F3F832
:10593000012211461C2006F07DF89A4800680A21D1
:1059400090FBF1F201FB1200C0B2014602901C2054
:1059500006F01DF9934800680A2190FBF1F0C0B2EF
:10596000014602901E2006F0D6F800BF00BF13E4E7
:1059700006F063FB0021084606F09FF8012208218B
:10598000022006F057F80121022006F096F80321C4
:10599000042006F0AAF806F007FB844800680028F7
:1059A0000ADA01220821072006F044F87F4800683F
:1059B00040427F49086008E07C4800687C490860F4
:1059C00000220821072006F035F800211A2006F0F1
:1059D000DEF8012211461C2006F02CF874480068FD
:1059E0000A2190FBF1F201FB1200C0B201460290C5
:1059F0001C2006F0CCF86E4800680A2190FBF1F0FC
:105A0000C0B2014602901E2006F085F8049810B13D
:105A1000012873D173E065480068664909688842C7
:105A200026DD06F0C1FA6148006800280ADA012282
:105A30000821072005F0FEFF5C48006840425C49F1
:105A4000086008E0594800685949086000220821A8
:105A5000072005F0EFFF08211A2006F072F8082150
:105A60001C2006F06EF806211E2006F06AF845E0BC
:105A70004E480068401E4D490860084600680028EE
:105A800001DA0020086006F08FFA48480068002814
:105A90000ADA01220821072005F0CCFF43480068FC
:105AA00040424349086008E04048006840490860B7
:105AB00000220821072005F0BDFF00211A2006F072
:105AC00066F8012211461C2005F0B4FF3848006832
:105AD0000A2190FBF1F201FB1200C0B201460290D4
