:020000040800F2
:100000000011002011EC00089B0F00089D0F000854
:10001000A10F0008A50F0008A90F000800000000AC
:10002000000000000000000000000000AD0F00080C
:10003000AF0F000800000000B10F0008B30F000868
:100040002BEC00082BEC00082BEC0008A5CD0008D9
:100050002BEC00082BEC00082BEC00082BEC000824
:100060002BEC00082BEC00082BEC00082BEC000814
:100070002BEC00082BEC00082BEC00082BEC000804
:10008000E5DA000845DB00082BEC00082BEC000843
:100090002BEC00082BEC00082BEC00082BEC0008E4
:1000A0002BEC00082BEC00082BEC00082BEC0008D4
:1000B00031AC0008B5AB0008210F00082BEC00089C
:1000C0002BEC00082BEC00082BEC00082BEC0008B4
:1000D0002BEC0008750B00080F0B00082BEC000838
:1000E00027E000082BEC00082BEC00082BEC0008A4
:1000F0002BEC00082BEC00082BEC00082BEC000884
:100100002BEC00082BEC0008ADAC00082BEC000831
:100110002BEC00082BEC00082BEC00082BEC000863
:100120002BEC00082BEC00082BEC00082BEC000853
:1001300000F002F800F062F80AA090E8000C824497
:100140008344AAF10107DA4501D100F057F8AFF274
:10015000090EBAE80F0013F0010F18BFFB1A43F0A5
:100160000103184734260100542601000A444FF0C9
:10017000000C10F8013B13F0070408BF10F8014B06
:100180001D1108BF10F8015B641E05D010F8016B4B
:10019000641E01F8016BF9D113F0080F1EBF10F8AF
:1001A000014BAD1C0C1B09D16D1E58BF01F801CBD2
:1001B000FAD505E014F8016B01F8016B6D1EF9D555
:1001C0009142D6D37047000000230024002500266A
:1001D000103A28BF78C1FBD8520728BF30C148BFAA
:1001E0000B607047642911F02D81732911F0F381A0
:1001F000002070471FB51FBD10B510BD11F0F4F9F8
:100200001146FFF7F7FF09F008FB11F012FA03B4EB
:10021000FFF7F2FF03BC0EF049FC00000CB5002014
:10022000019000906C48006840F480306A49086092
:1002300000BF6948006800F4003000900198401C3D
:100240000190009818B90198B0F5A06FF1D16248FB
:10025000006800F4003010B10120009001E000209F
:1002600000900098012843D15C48006840F01000DD
:100270005A4908600846006820F0030008600846F4
:10028000006840F0020008605348406852494860E6
:100290000846406848600846406840F4806048600E
:1002A0000846406820F47C1048600846406840F4E6
:1002B000E81048600846006840F08070086000BFA1
:1002C0004548006800F000700028F9D042484068B6
:1002D00020F00300404948600846406840F00200B2
:1002E000486000BF3C48406800F00C000828F9D185
:1002F0000CBD10B5FFF792FF10BD10B53648006871
:1003000040F001003449086008464068344908401C
:100310003149486008460068324908402E49086063
:100320000846006820F4802008600846406820F4F1
:10033000FE0048604FF41F008860FFF7DAFF4FF0BF
:1003400000602949086010BD10B50021002000227E
:10035000214B5B6803F00C0121B1042906D0082968
:1003600028D107E0214B224C236027E01F4B204C73
:10037000236023E0184B5B6803F47010164B5B6836
:1003800003F48032022303EB904022B9194B43431C
:10039000174C23600DE0104B5B6803F4003323B16E
:1003A000144B4343124C236003E0104B4343104C67
:1003B000236003E00D4B0E4C236000BF00BF064BD3
:1003C0005B68C3F303130C4CE15C094B1B68CB4027
:1003D000074C236010BD00000010024000200240C6
:1003E0000000FFF8FFFFF6FE08ED00E000127A00C3
:1003F0000000002000093D000400002070B5024606
:100400000C46FF25FF2309E012F8010B80EA0501E5
:10041000FA48405C80EA0305F948435C201EA4F1D9
:100420000106F4B2F0D143EA052070BD10B50120F9
:10043000F4490870F4480FF0CBF8F4490870F44818
:100440000078012856D00021F2480FF023FE002149
:10045000F04810F0B3F8F0480078A0B1EB4800780D
:10046000EE49097888420ED10020ED490870ED4927
:10047000087008460078401C0870E4480078EA4993
:10048000E84A12788854E448007860BBE448007871
:1004900048BBE4480078642813DADC480178E24A73
:1004A000E0480078401C1154DE480078401CDD49CB
:1004B000087008460078082815DB084600780870A0
:1004C00011E00120D6490870D1490870D54800785C
:1004D000D5490870D54800688078D5490968887082
:1004E0000020D04908700020CB4908700121C9487C
:1004F0000FF0D0FD10BD10B50120C2490870CD49E4
:100500000870CD480FF064F8C0490870C048007802
:10051000012856D00021BF480FF0BCFD0021BD4886
:1005200010F04CF8BC480078A0B1B8480078BB493E
:10053000097888420ED10020B9490870B94908707D
:1005400008460078401C0870B0480078B649B54AA3
:1005500012788854B048007860BBB148007848BB36
:10056000B0480078642813DAA8480178AE4AAD484C
:100570000078401C1154AB480078401CA949087011
:1005800008460078082815DB08460078087011E056
:100590000120A34908709E490870A2480078A2492A
:1005A0000870A24800688078A14909688870002016
:1005B0009C490870002098490870012195480FF067
:1005C00069FD10BD10B59A4800689C490978405CE7
:1005D0009B490870084601788B480EF0F5FF974854
:1005E0000078401C954908709148006800780978A7
:1005F000884210DA0020864908708D490968087021
:100600008849087001208D490870002240F2266157
:100610007D480EF078FF10BD70B500257F4800784A
:100620008849087003204870874800788870874997
:100630008748006811F0F4FE064611F055FE000AE6
:100640008049C87081498248006811F0E9FE064679
:1006500011F04AFE7B4908717E48006811F044FEA3
:100660000121B1EBE03F07D17A4801684FF08F409C
:1006700011F0DEFF7749086074497648006811F090
:10068000CFFE064611F030FE000A6E4948716F49F0
:100690007048006811F0C4FE064611F025FE694955
:1006A000887169480088051F04E00021A81D654A7B
:1006B00011546D1E002DF8DC63480078C01CC1B2D7
:1006C0006048FFF79BFE044621125E4A5E480088A0
:1006D000C01C11545C480088001D14545A4800780E
:1006E000401D5D49087010465C490860012240F2D7
:1006F000277145480EF007FF70BD70B500254748CB
:10070000007850490870032048704F48007888707E
:100710005048006811F0E8FD0121B1EBE03F07D13E
:100720004C4801684FF08F4011F082FF4949086042
:1007300046494848006811F073FE064611F0D4FDA2
:10074000000A4049C87041494248006811F068FEFB
:10075000064611F0C9FD3B4908713B480088851EDB
:1007600004E00021281D374A11546D1E002DF8DCCD
:1007700035480078C01CC1B23248FFF73FFE04463E
:100780002112304A30480088C01C11542E4800887D
:10079000001D14542C480078401D2F490870104645
:1007A0002E490860012240F2277117480EF0ABFE77
:1007B00070BD70B5002519480078224908700320E3
:1007C000487021480078887020492148006811F05D
:1007D00027FE064611F088FD000A1A49C8701B4919
:1007E0001B48006811F01CFE064611F07DFD1549FE
:1007F000087115480088851E37E00000660000205B
:10080000660100205D000020004400404C000020F4
:100810005C0000200008004048000020C0020020CA
:10082000490000204F000020C80400205400002090
:10083000580000205F0000200038014050000020D8
:100840004D000020C507002044000020000020418A
:10085000AC030020A803002098020020940200208E
:100860000021281DFD4A11546D1E002DF8DCFC48A6
:100870000078C01CC1B2F948FFF7C0FD0446211240
:10088000F64AF7480088C01C1154F5480088001D3E
:100890001454F3480078401DF24908701046F2499C
:1008A0000860012240F22771F0480EF02CFE70BD66
:1008B00010B50220EE490870EE4800884FF6FA7134
:1008C000884205DAEC48007810B900200DF02FFAC4
:1008D000E84800884FF6FA71884203DAE648007863
:1008E00001280ED101200DF022FA0120E249087002
:1008F000E04800884FF6FA71884202DB3220DD4979
:1009000008800A20DD49088008460288DC49D94869
:1009100000880DF0E9F9DB480078D0490870D84824
:1009200000784870D64840788870D5488078C8707C
:10093000D348C0780871D24800794871D0484079CE
:100940008871CF488079C871CD48C0790872CC4889
:10095000007A4872CA48407A88720B20C1490870F0
:10096000C44800880A30C3490880084600880A2124
:1009700090FBF1F0C449098888420BDD3220BD4963
:1009800008800020C14908703220C1490880002039
:10099000C0490870B148B4490860012240F227718B
:1009A000B2480EF0B0FD10BD70B50025BA48008801
:1009B000B5490880B3480078A849087003204870FA
:1009C00002208870B0480088000AC870AE480078DD
:1009D00008710521A148FFF711FD044620129F4927
:1009E00048718C7107209F4908709C489E49086097
:1009F000012240F227719D480EF085FD70BD2DE962
:100A0000F04104460F460020A4490870A44800782D
:100A100000283BD12078401E255C4FF6FF7000EA8D
:100A200005252078205C05432078C01E205C8C4979
:100A30000880084600884FF6FF7101EA00208849C7
:100A400008802078801E205C098808434FF6FF71DB
:100A500001EA40008249088008460088202801DD1C
:100A6000202008802078801EC1B2601CFFF7C6FCE1
:100A7000064606218B48FFF7C1FC06462078801EFB
:100A8000C1B2601CFFF7BAFC064600E02E46AE423B
:100A900038D18348007808BBA07801281BD00328F0
:100AA0001AD1022180480EF0E0F96D480088042830
:100AB00002D1FFF7B1FD0DE069480088022809D195
:100AC000207910B9FFF775FE04E02079012801D1E3
:100AD000FFF713FE01E000E000BF16E0E07840B150
:100AE00010280DD1022170480EF0BFF9FFF7E0FE8B
:100AF00007E002216C480EF0B8F9FFF755FF00E05F
:100B000000BF02E0002069490870BDE8F08110B51F
:100B100040F2244155480EF0DBFD01280DD1534829
:100B20000EF056FD40F2244150480EF0FBFD01202E
:100B30005F49087000205F49087040F225514B481A
:100B40000EF0C6FD012814D148480EF041FD5A4967
:100B5000087040F2255145480EF0E4FD56480078F3
:100B60005649544A1278885452480078401C5149DA
:100B7000087010BD70B586B000240226002500BFA5
:100B800004E0002003A90855601CC4B20A2CF8DB5D
:100B900040F225514A480EF09BFD30B348480EF014
:100BA00017FD4849087048480078F0B908460078B1
:100BB000232802D100204549087042480178434863
:100BC00002780078401C414B1870414881543D48E0
:100BD00000780A2809D118460078801E3C49085C34
:100BE0000D2802D1012038490870374800780128C3
:100BF0007CD100203449087035484078012876D1EE
:100C000034480088022805DB0DF055FE02212648F5
:100C10000EF02DF92E4880782F4908702C48C078A6
:100C20002E4908702A4800792D49087028484079D3
:100C30002C4908702648C179807901EB00202A49A7
:100C400008802348C179807901EB00202049497947
:100C50001F4A1279CDE90021029049E0C507002022
:100C6000440000209802002094020020004400402C
:100C7000690300204600002060000020640000207E
:100C80006C060020C00200206200002068030020E3
:100C90009403002067030020880200205D000020EC
:100CA0005F000020C9040020000801405C00002013
:100CB0006C0200206D020020140000209406002029
:100CC0000038014066020020670200206802002010
:100CD0008006002080020020780200207902002097
:100CE0007A0200207B0200207C02002016E10FE047
:100CF000B048C3788278B0A1B94810F031FB002029
:100D0000B8490880B8490880B8490880B8490870CF
:100D1000A8484078022866D123208DF80C000220D4
:100D20008DF80D000D208DF814000A208DF81500A7
:100D300013241DE0AA48005D2E280FD0A848005DAE
:100D400022280BD0A648005D03A9895D01EB810133
:100D500000EB4100303803A9885501E0701CC6B291
:100D60009F48005D2C2801D1264603E0601CC4B2D8
:100D70002A2CDFDD00BF701CC4B20FE09848005D74
:100D80000D2808D09648005D05EB850100EB410079
:100D9000303885B200E003E0601CC4B22A2CEDDDDF
:100DA00000BF2846E91705EB1161090A8DF81210FA
:100DB000E91705EB11610912A5EB0121C9B28DF804
:100DC000131000240DE003A8015D8A480EF0FCFB1F
:100DD00000BF802187480EF065FC0028F9D0601C18
:100DE000C4B20A2CEFDB73484078032819D17D4840
:100DF0000088022805DB0DF05EFD02217E480EF022
:100E000036F86C48C178807801EB00207B49086097
:100E10000020744908807449088074490880744926
:100E2000087064484078042826D123208DF80C00EF
:100E300004208DF80D0071480088000A8DF80E001E
:100E40006E4800788DF80F000D208DF810000A20F4
:100E50008DF8110000240DE003A8015D65480EF037
:100E6000B3FB00BF802163480EF01CFC0028F9D0C2
:100E7000601CC4B2062CEFDB4E484078052824D114
:100E800002215D480DF0F1FF4FF4FA700DF0E1FD25
:100E9000002406E04749A01C085C59490855601C1D
:100EA000C4B258480078001FA042F3DC0020544927
:100EB0000855554B0A4655A15A4810F051FA0DF005
:100EC000D6FC02214C480DF0D2FF3A484078062863
:100ED00024D1022148480DF0C8FF4FF4FA700DF0FC
:100EE000B8FD002406E03349A01C085C46490855BB
:100EF000601CC4B243480078001FA042F3DC00200D
:100F0000414908550B463E4A40A1464810F028FA90
:100F10000DF0ADFC022138480DF0A9FF06B070BD00
:100F200010B5012140480FF07EFB002834D001208D
:100F30003E49087000213C480FF0ACF800213A48C7
:100F40000FF03CFB01203A4908703A4800783A49D2
:100F500008703A480078D8B136480078042817DD80
:100F600001203749087034480079222803D03248DC
:100F7000C078102803D101203249087002E0002017
:100F8000304908703048016830480068FFF737FD85
:100F9000012125480FF058FB10BD704700BFFEE748
:100FA00000BFFEE700BFFEE700BFFEE770477047E7
:100FB000704770478006002041542B4349505354DA
:100FC0004152543D22544350222C2225642E256444
:100FD0002E25642E2564222C25640D0A00000000B5
:100FE000700A002080020020180400201A0400204B
:100FF0008202002000380140000801401800002053
:101000001C000020680200203000002041542B43C7
:10101000574A41503D222573222C222573220D0A66
:101020000000000086040020000800404800002066
:10103000490000204F000020C80400205D0000206F
:101040005C0000205F0000205800002054000020B9
:10105000002100E0491C8142FCD3704710B564298F
:1010600010D2302202700A22B1FBF2F2303242700A
:101070002E2242700A22B1FBF2F302FB131230322D
:10108000827021E064291FD3B1F57A7F1CD26422DB
:10109000B1FBF2F2303202706422B1FBF2F302FBD8
:1010A00013120A23B2FBF3F2303242702E22827006
:1010B0006422B1FBF2F302FB13120A23B2FBF3F436
:1010C00003FB14223032C27010BD3EB50C24FB4825
:1010D000048001200CF02BFE2246F94900200CF080
:1010E00003FE64200DF0B5FCF54880790104F44856
:1010F000C07901EB0031F248007A01EB0020F049A1
:10110000497A0844EF490860ED484179007901EBDC
:101110000020EB49C978EA4A9278CDE90021029093
:10112000E74843780278E8A1F14810F019F9E5485A
:10113000006842F21071B0FBF1F03030ED490870F8
:10114000E048006842F21071B0FBF1F201FB1200BE
:101150004FF47A71B0FBF1F03030E6494870D9486D
:1011600000684FF47A71B0FBF1F201FB12006421C8
:10117000B0FBF1F03030DF498870D248006864215C
:10118000B0FBF1F201FB12000A21B0FBF1F03030AC
:10119000D849C870CB4800680A21B0FBF1F201FBC6
:1011A00012003030D3490871C548C17A807A01EB0A
:1011B0000020D14908603EBD10B5C0480480CF482A
:1011C0000078CF490870CF4800784870CE48007842
:1011D0008870CE480078C870CD490888C11700EBE8
:1011E0001161090AC64A1171C9490888C11700EB83
:1011F00011610912A0EB01215171B2480068000C85
:1012000011468871AF480088C0F30330C871AD48FB
:101210000088C0F303200872AA4800784872B648D4
:101220000088000A8872B4480078C8720C24012033
:101230000CF07DFD2246B24900200CF066FD6420D2
:101240000DF007FC10BD10B532249C48048000202E
:101250000CF06DFD22469A4900200CF045FD6420FB
:101260000DF0F7FB96480078AA490870944840783A
:10127000A9490860A948096850F82100A8490860F0
:101280008F488078A74908608D48C078A6490860D3
:1012900008460068502804DD08460068A0F5807004
:1012A000086087480079A14908600846006850280E
:1012B00004DD08460068A0F5807008608048407929
:1012C0009B4908607E4880799A4908607C48C079CB
:1012D000994908607A48007A984908607848407AC5
:1012E000974908607648807A964908607448C07AC1
:1012F000954908607248007B944908607048407BBB
:10130000934908606E48807B924908606C48C07BB6
:10131000914908806A48007C097800EB01208E49D9
:1013200008806748407C8D4908706548807C8C49FE
:1013300008606348C07C8B4908606148007D8A4929
:10134000086008460068502804DD08460068A0F5DB
:10135000807008605A48407D8449086008460068EB
:10136000502804DD08460068A0F5807008605448E5
:10137000807D7F4908605248C07D7E4908605048A2
:10138000007E7D49086008460068642804DD084640
:101390000068A0F5807008604948407E7749086081
:1013A00008460068642804DD08460068A0F58070DF
:1013B00008604348807E18B14148807EFF2812D1E2
:1013C0003F48C07E18B13E48C07EFF280BD13C4844
:1013D000007F18B13A48007FFF2804D14FF4C8704D
:1013E0006749086011E03648807E3549C97E01EBC7
:1013F000810100EB41003249097F01EBC10202EBA0
:10140000011100EB81005E4908602D48407F18B152
:101410002B48407FFF281BD12948807F18B12848DE
:10142000807FFF2814D12648C07F18B12448C07F90
:10143000FF280DD1224890F8200020B1204890F8D4
:101440002000FF2804D14FF4FA604E49086014E0F0
:101450001B48407F1A49897F0A2202FB0100184974
:10146000C97F642202FB0100154991F820104FF456
:101470007A7202FB010043490860114890F821008C
:1014800020B10F4890F82100FF287FD10C4890F838
:10149000220020B10A4890F82200FF2876D108489F
:1014A00090F8230020B1064890F82300FF286DD162
:1014B0004FF4C8703449086079E067E064030020A5
:1014C000290800207402002041542B4349505354F2
:1014D0004152543D22544350222C2225642E25642F
:1014E0002E25642E2564222C25640D0A00000000A0
:1014F000700A00206E0200201800002078020020F0
:10150000F7070020790200207A0200207B020020E9
:101510007C020020C0020020C8020020CC02002073
:10152000C4020020E0020020E4020020E8020020C3
:10153000F4020020F8020020FC020020000300203A
:1015400004030020080300200C03002010030020E7
:1015500014030020180300209403002067030020D8
:10156000240300202C030020340300203C0300202F
:10157000440300204C030020540300205C0300209F
:10158000B8030020BC030020C0030020FE4890F8F0
:101590002100FD4991F822100A2202FB0100FA49BC
:1015A00091F82310642202FB0100F8490860F64814
:1015B00090F8240020B1F44890F82400FF281FD1AF
:1015C000F14890F8250020B1EF4890F82500FF2859
:1015D00016D1ED4890F8260020B1EB4890F826008F
:1015E000FF280DD1E84890F8270020B1E64890F890
:1015F0002700FF2804D14FF4FA60E549086017E09E
:10160000E14890F82400E04991F825100A2202FBF5
:101610000100DD4991F82610642202FB0100DA493D
:1016200091F827104FF47A7202FB0100D849086044
:10163000D54890F8280020B1D34890F82800FF281A
:101640001FD1D14890F8290020B1CF4890F8290047
:10165000FF2816D1CC4890F82A0020B1CA4890F84B
:101660002A00FF280DD1C84890F82B0020B1C648A9
:1016700090F82B00FF2804D14FF4FA60C5490860A8
:1016800017E0C14890F82800BF4991F829100A22B4
:1016900002FB0100BC4991F82A10642202FB010000
:1016A000B94991F82B104FF47A7202FB0100B94945
:1016B0000860B54890F82C0020B1B34890F82C0091
:1016C000FF281FD1B04890F82D0020B1AE4890F807
:1016D0002D00FF2816D1AC4890F82E0020B1AA4862
:1016E00090F82E00FF280DD1A74890F82F0020B1C8
:1016F000A54890F82F00FF2804D14FF4FA60A649BE
:10170000086017E0A04890F82C009F4991F82D1030
:101710000A2202FB01009C4991F82E10642202FB70
:101720000100994991F82F104FF47A7202FB0100E1
:101730009949086010BD10B5984804809848007811
:1017400098490870984800784870984800788870E0
:1017500097480078C87097480078087196480078D4
:10176000487196480078887195480078C871954806
:10177000007808729448007848729448007888721B
:1017800093480078C87293480078087392480078AC
:10179000487392480078887391480088000AC8739B
:1017A0008F48007808748F48007848748E48007815
:1017B00088748E480078C8748D48007808758D4804
:1017C000007848758C48007888758C480078C87512
:1017D0008B48007808768B48007848768A480068FD
:1017E000642190FBF1F201FB12000A2190FBF1F25F
:1017F00001FB12006B49887683480068642190FBE6
:10180000F1F201FB12000A2190FBF1F06549C87664
:101810007D480068642190FBF1F0624908777B48BD
:1018200000684FF47A7190FBF1F201FB1200642121
:1018300090FBF1F201FB12000A2190FBF1F201FB97
:10184000120058494877714800684FF47A7190FB4C
:10185000F1F201FB1200642190FBF1F201FB120096
:101860000A2190FBF1F04F498877684800684FF4EF
:101870007A7190FBF1F201FB1200642190FBF1F010
:101880004849C877614800684FF47A7190FBF1F0DD
:10189000444981F820003D480068642190FBF1F242
:1018A00001FB12000A2190FBF1F201FB12003D49FD
:1018B00081F8210035480068642190FBF1F201FBBA
:1018C00012000A2190FBF1F0364981F822002F48DE
:1018D0000068642190FBF1F0324981F823002C4824
:1018E00000684FF47A7190FBF1F201FB1200642161
:1018F00090FBF1F201FB12000A2190FBF1F201FBD7
:101900001200284981F82400214800684FF47A71B8
:1019100090FBF1F201FB1200642190FBF1F201FB5C
:1019200012000A2190FBF1F01E4981F825001848A9
:1019300000684FF47A7190FBF1F201FB1200642110
:1019400090FBF1F0174981F82600114800684FF428
:101950007A7190FBF1F0134981F827000D48006877
:101960004FF47A7190FBF1F201FB1200642190FBBD
:10197000F1F201FB12000A2190FBF1F201FB1200CF
:10198000084981F8280043E029080020C00300200E
:10199000C4030020C8030020CC03002064030020FF
:1019A000C0020020F7070020C8020020E00200204B
:1019B000E4020020E8020020F4020020F8020020E7
:1019C000FC02002000030020040300200803002084
:1019D0000C03002010030020140300201803002033
:1019E0009403002067030020240300202C03002020
:1019F000340300203C030020440300204C0300205B
:101A0000540300205C030020B8030020BC03002026
:101A1000FE4800684FF47A7190FBF1F201FB12006E
:101A2000642190FBF1F201FB12000A2190FBF1F01E
:101A3000F74981F82900F54800684FF47A7190FB66
:101A4000F1F201FB1200642190FBF1F0F04981F802
:101A50002A00EE4800684FF47A7190FBF1F0EC49EF
:101A600081F82B00EB4800684FF47A7190FBF1F29B
:101A700001FB1200642190FBF1F201FB12000A212C
:101A800090FBF1F201FB1200E14981F82C00E148E2
:101A900000684FF47A7190FBF1F201FB12006421AF
:101AA00090FBF1F201FB12000A2190FBF1F0D84902
:101AB00081F82D00D74800684FF47A7190FBF1F25D
:101AC00001FB1200642190FBF1F0D14981F82E0056
:101AD000D04800684FF47A7190FBF1F0CC4981F85E
:101AE0002F00322400200CF022F92246C8490020A1
:101AF0000CF00BF964200CF0ACFF10BD08B501210F
:101B000014200DF0C1FB4FF48060ADF800001020F0
:101B10008DF8030003208DF802006946BE480DF0E1
:101B2000F7F84FF48061BC480DF09FF90220ADF842
:101B3000000010208DF8030003208DF80200694694
:101B4000B6480DF0E5F80221B4480DF08EF92020DA
:101B5000ADF800006946B1480DF0DAF82021AF4831
:101B60000DF085F91020ADF800006946AB480DF086
:101B7000CFF81021A9480DF078F908BD08B501216A
:101B800004200DF081FB4020ADF8000010208DF8FE
:101B9000030003208DF802006946A0480DF0B8F854
:101BA00008BD10B5044640219C480DF05EF9A0B276
:101BB0000CF04FFF402199480DF059F910BD03B5C5
:101BC00083B003981A2882F00184DFE810F01A002D
:101BD0001C00DB00D2014F027803D0097B045105C1
:101BE000B00ADC0FE61015067006EB0683070A083C
:101BF000B9087109930BAE0CD50DD20EFA11A113D1
:101C0000E91302F0E3BB0AF0E0FA002108460AF00B
:101C10003EF801220821022009F0DEFF0121022006
:101C20000AF01DF8012104200AF019F80AF08EFAD2
:101C30007B480078642190FBF1F201FB12000A213D
:101C400090FBF1F201FB1200C0B2014602901A2093
:101C50000AF033F872480078642190FBF1F201FB3E
:101C600012000A2190FBF1F0C0B2014602901C2044
:101C70000AF023F86A480078642190FBF1F0C0B2C2
:101C8000014602901E200AF018F8049810B10128AD
:101C900076D13AE062480078401E614908700846F3
:101CA0000078012801DAFE2008700AF04FFA5C483B
:101CB0000078642190FBF1F201FB12000A2190FBF5
:101CC000F1F201FB1200C0B2014602901A2009F0A5
:101CD000F4FF53480078642190FBF1F201FB1200FD
:101CE0000A2190FBF1F0C0B2014602901C2009F0DD
:101CF000E4FF4B480078642190FBF1F0C0B201464C
:101D000002901E2009F0D9FF3AE045480078401CB7
:101D10004349087008460078FE2801DD012008705C
:101D20000AF014FA3E480078642190FBF1F201FBBE
:101D300012000A2190FBF1F201FB1200C0B2014631
:101D400002901A2009F0B9FF35480078642190FB11
:101D5000F1F201FB12000A2190FBF1F0C0B2014642
:101D600002901C2009F0A9FF2D480078642190FB07
:101D7000F1F0C0B2014602901E2009F09EFF00BFA4
:101D800000BF3EE70AF021FA0221002009F07FFFA0
:101D900001220821022009F01FFF01220821022050
:101DA00009F058FE0121022009F071FF02210420F0
:101DB00009F055FF0AF0CAF91A481B49096850F89A
:101DC00021001A49086008460068642190FBF1F080
:101DD0000A2190FBF1F201FB1200C0B20146029011
:101DE0001A2009F06AFF11480068642190FBF1F0A5
:101DF0000A2190FBF1F090FBF1F201FB1200C0B25E
:101E0000014602901C2009F058FF11E0C803002091
:101E1000F7070020CC03002000100140000801401B
:101E2000C0020020CC020020C8020020C402002012
:101E3000F748006842F2107190FBF1F0C0B2014621
:101E400002901E2009F039FF049810B1012846D1F4
:101E500046E0F0480068401EEE4908600846006809
:101E6000002801DA04200860EB48EA49096850F8C4
:101E70002100E7490860084600680CF026FE0AF0D9
:101E800065F9E3480068642190FBF1F00A2190FBBA
:101E9000F1F201FB1200C0B2014602901A2009F0D3
:101EA0000CFFDB480068642190FBF1F00A2190FBF5
:101EB000F1F090FBF1F201FB1200C0B2014602907A
:101EC0001C2009F0FAFED248006842F2107190FB23
:101ED000F1F0C0B2014602901E2009F0EEFE46E08D
:101EE000CC480068401CCB490860084600680428BC
:101EF00001DD00200860C848C649096850F8210083
:101F0000C3490860084600680CF0DFFD0AF01EF9BE
:101F1000BF480068642190FBF1F00A2190FBF1F2C8
:101F200001FB1200C0B2014602901A2009F0C5FE62
:101F3000B7480068642190FBF1F00A2190FBF1F0B2
:101F400090FBF1F201FB1200C0B2014602901C208E
:101F500009F0B3FEAE48006842F2107190FBF1F058
:101F6000C0B2014602901E2009F0A7FE00BF00BFCC
:101F700047E60AF02AF90821002009F088FE01222C
:101F80000821022009F028FE0721022009F07FFE27
:101F90000321042009F063FEA048006801280AD14B
:101FA0000AF0D4F80A211A2009F09DFE00211C2015
:101FB00009F083FE0DE00AF0C9F805211A2009F0A6
:101FC00092FE05211C2009F08EFE00211E2009F042
:101FD00074FE049810B1012846D122E08F480068B1
:101FE00068B901208D4908600AF0B0F80A211A206A
:101FF00009F079FE00211C2009F05FFE10E00020AE
:10200000864908600AF0A2F805211A2009F06BFE43
:1020100005211C2009F067FE00211E2009F04DFE5D
:1020200022E07E48006868B901207C4908600AF017
:102030008DF80A211A2009F056FE00211C2009F013
:102040003CFE10E00020754908600AF07FF8052189
:102050001A2009F048FE05211C2009F044FE002149
:102060001E2009F02AFE00BF00BFCAE50AF0ADF845
:102070000B21002009F00BFE01220821022009F0AB
:10208000ABFD0321022009F002FE0421084609F0FD
:10209000E6FD0121172009F064FE0AF057F86048B8
:1020A000006800280ADA01220821072009F094FDBF
:1020B0005B48006840425B49086008E05848006897
:1020C0005849086000220821072009F085FD0021F9
:1020D0001A2009F0F2FD012211461C2009F07CFDB6
:1020E000504800680A2190FBF1F201FB1200C0B2D7
:1020F000014602901C2009F01CFE4A4800680A2193
:1021000090FBF1F0C0B2014602901E2009F0D5FD0F
:10211000049810B101287AD188E04348006840490A
:10212000096888422BDB0AF011F83D480068002856
:102130000ADA01220821072009F04EFD384800681C
:1021400040423849086008E0354800683549086071
:1021500000220821072009F03FFD00220821072066
:1021600009F03AFD08211A2009F0BDFD08211C20C4
:1021700009F0B9FD06211E2009F0B5FD47E0284809
:102180000068401E264908600846006810F1280FC4
:1021900002DA6FF02700086009F0D8FF20480068D5
:1021A00000280ADA01220821072009F015FD1C4841
:1021B000006840421B49086008E019480068194956
:1021C000086000220821072009F006FD00211A20DE
:1021D00009F073FD012211461C2009F0FDFC114895
:1021E00000680A2190FBF1F201FB1200C0B2014627
:1021F00002901C2009F09DFD0A4800680A2190FB0E
:10220000F1F0C0B2014602901E2009F056FD54E0E4
:10221000C4020020C8020020CC020020E0020020FE
:10222000E4020020F0020020E8020020FE480068DE
:10223000401CFD49086008460068502801DD502018
:10224000086009F083FFF848006800280ADA0122D4
:102250000821072009F0C0FCF34800684042F34918
:10226000086008E0F0480068F04908600022082192
:10227000072009F0B1FC00211A2009F01EFD0122FF
:1022800011461C2009F0A8FCE84800680A2190FBD0
:10229000F1F201FB1200C0B2014602901C2009F0CD
:1022A00048FDE24800680A2190FBF1F0C0B2014607
:1022B00002901E2009F001FD00BF00BFA1E409F05B
:1022C00084FF0421002009F0E2FC01220821022001
:1022D00009F082FC0321022009F0D9FC0421084600
:1022E00009F0BDFC0121172009F03BFD09F02EFF8C
:1022F000CF48006800280ADA01220821072009F0E7
:102300006BFCCB4800684042CA49086008E0C848F6
:102310000068C849086000220821072009F05CFC19
:1023200000211A2009F0C9FC012211461C2009F0E5
:1023300053FCC04800680A2190FBF1F201FB120037
:10234000C0B2014602901C2009F0F3FCB9480068B5
:102350000A2190FBF1F0C0B2014602901E2009F064
:10236000ACFC049810B1012848D148E0B04800689E
:10237000401EAF4908600846006810F1280F02DAD5
:102380006FF02700086009F0E1FEA9480068002806
:102390000ADA01220821072009F01EFCA44800687F
:1023A0004042A449086008E0A1480068A1490860CB
:1023B00000220821072009F00FFC00211A2009F053
:1023C0007CFC012211461C2009F006FC994800689B
:1023D0000A2190FBF1F201FB1200C0B2014602900B
:1023E0001C2009F0A6FC934800680A2190FBF1F03C
:1023F000C0B2014602901E2009F05FFC60E08C48EC
:10240000006889490968884213DB09F09FFE0022B1
:102410000821072009F0E0FB08211A2009F063FCDD
:1024200008211C2009F05FFC06211E2009F05BFC3E
:1024300045E07F480068401C7D4908600846006808
:10244000502801DD5020086009F080FE78480068BF
:1024500000280ADA01220821072009F0BDFB744890
:10246000006840427349086008E07148006871499B
:10247000086000220821072009F0AEFB00211A2085
:1024800009F01BFC012211461C2009F0A5FB69483C
:1024900000680A2190FBF1F201FB1200C0B2014674
:1024A00002901C2009F045FC624800680A2190FB5C
:1024B000F1F0C0B2014602901E2009F0FEFB00BF01
:1024C00000BF5EE400220821072009F085FB09F027
:1024D0007CFE0B21002009F0DAFB012208210220FA
:1024E00009F07AFB0B21022009F0D1FB04210846F8
:1024F00009F0B5FB09F02AFE00220821072009F0A7
:102500006BFB00211A2009F014FC012211461C204B
:1025100009F062FB484800680A2190FBF1F201FBD8
:102520001200C0B2014602901C2009F002FC424891
:1025300000680A2190FBF1F0C0B2014602901E2013
:1025400009F0BBFB049810B101284DD14DE03A4889
:1025500000683A490968884213DC09F0F7FD002257
:102560000821072009F038FB08211A2009F0BBFBDD
:1025700008211C2009F0B7FB06211E2009F0B3FB3F
:1025800032E02D480068401E2B490860084600686C
:10259000002801DA0120086009F0D8FD0022082196
:1025A000072009F019FB00211A2009F0C2FB0122C3
:1025B00011461C2009F010FB1F4800680A2190FBFF
:1025C000F1F201FB1200C0B2014602901C2009F09A
:1025D000B0FB194800680A2190FBF1F0C0B2014637
:1025E00002901E2009F069FB40E013480068401C7F
:1025F0001149086008460068632801DD632008600F
:1026000009F0A4FD00220821072009F0E5FA0021C5
:102610001A2009F08EFB012211461C2009F0DCFA79
:10262000054800680A210BE0E4020020F0020020C7
:10263000E8020020EC020020F4020020F802002052
:1026400090FBF1F201FB1200C0B2014602901C2087
:1026500009F06FFBFE4800680A2190FBF1F0C0B260
:10266000014602901E2009F028FB00BF00BF7FE456
:1026700009F0ABFD0421002009F009FB012208212B
:10268000022009F0A9FA0B21022009F000FB042125
:10269000084609F0E4FA09F059FD00220821072054
:1026A00009F09AFA00211A2009F043FB0122114691
:1026B0001C2009F091FAE74800680A2190FBF1F22A
:1026C00001FB1200C0B2014602901C2009F031FB50
:1026D000E04800680A2190FBF1F0C0B20146029088
:1026E0001E2009F0EAFA049810B1012833D133E032
:1026F000D8480068401ED74908600846006800288E
:1027000001DA0020086009F021FD002208210720DD
:1027100009F062FA00211A2009F00BFB0122114690
:102720001C2009F059FACB4800680A2190FBF1F20D
:1027300001FB1200C0B2014602901C2009F0F9FA18
:10274000C44800680A2190FBF1F0C0B20146029033
:102750001E2009F0B2FA4DE0BD480068BD49096885
:10276000884213DC09F0F2FC00220821072009F05E
:1027700033FA08211A2009F0B6FA08211C2009F0C2
:10278000B2FA06211E2009F0AEFA32E0B148006824
:10279000401CB049086008460068632801DD6320DA
:1027A000086009F0D3FC00220821072009F014FA80
:1027B00000211A2009F0BDFA012211461C2009F05F
:1027C0000BFAA44800680A2190FBF1F201FB120009
:1027D000C0B2014602901C2009F0ABFA9D48006887
:1027E0000A2190FBF1F0C0B2014602901E2009F0D0
:1027F00064FA00BF00BF38E409F0E7FC05210020BF
:1028000009F045FA01220821022009F0E5F9032127
:10281000022009F03CFA0621042009F020FA0121E7
:10282000172009F09EFA09F091FC8B4800680128F6
:1028300004D105211C2009F056FA03E003211C20D5
:1028400009F051FA049810B101282ED116E08248FF
:10285000006848B901208049086009F077FC05212B
:102860001C2009F040FA08E000207B49086009F0CC
:102870006DFC03211C2009F036FA16E0764800684A
:1028800048B901207449086009F060FC05211C204A
:1028900009F029FA08E000206F49086009F056FCA9
:1028A00003211C2009F01FFA00BF00BF06E509F054
:1028B0008CFC0821002009F0EAF9012208210220FD
:1028C00009F08AF90521022009F0E1F90721042025
:1028D00009F0C5F909F03AFC60480068012808D100
:1028E0000A211A2009F0FFF900211C2009F0E5F95E
:1028F0000BE005211A2009F0F6F905211C2009F04A
:10290000F2F900211E2009F0D8F9049810B101282D
:1029100046D122E05148006868B901204F4908605B
:1029200009F014FC0A211A2009F0DDF900211C200D
:1029300009F0C3F910E000204849086009F006FCDE
:1029400005211A2009F0CFF905211C2009F0CBF947
:1029500000211E2009F0B1F922E04048006868B962
:1029600001203E49086009F0F1FB0A211A2009F014
:10297000BAF900211C2009F0A0F910E00020374925
:10298000086009F0E3FB05211A2009F0ACF90521E4
:102990001C2009F0A8F900211E2009F08EF900BFC3
:1029A00000BF8BE409F011FC0121002009F057F968
:1029B00001220821022009F00FF90321022009F069
:1029C00066F90821042009F04AF909F0BFFB244800
:1029D000006838B90A211A2009F085F900211C2065
:1029E00009F06BF91E48006801280BD105211A2057
:1029F00009F079F905211C2009F075F900211E2044
:102A000009F05BF9049810B1012861D135E0144850
:102A10000068401E1249086008460068002801DA74
:102A2000012008600E48006848B909F08FFB0A21B0
:102A30001A2009F058F900211C2009F03EF9084835
:102A40000068012818D109F081FB05211A2009E04E
:102A5000F4020020F8020020FC0200200003002005
:102A60000403002009F03FF905211C2009F03BF97F
:102A700000211E2009F021F92AE0FE480068401CD0
:102A8000FC49086008460068012801DD0020086054
:102A9000F848006848B909F059FB0A211A2009F0E2
:102AA00022F900211C2009F008F9F24800680128E9
:102AB0000DD109F04BFB05211A2009F014F905216D
:102AC0001C2009F010F900211E2009F0F6F800BFC3
:102AD00000BFF6E409F079FB0221002009F0BFF8FD
:102AE00001220821022009F077F80321022009F0D1
:102AF000CEF80821042009F0B2F809F027FBDE48DF
:102B0000006801280CD103211A2009F0ECF80921F2
:102B10001C2009F0E8F803211E2009F0E4F80BE07E
:102B200000211A2009F0DFF808211C2009F0DBF849
:102B300000211E2009F0C1F8049810B101284ED1DF
:102B400026E0CD48006888B90120CB49086009F02B
:102B5000FDFA03211A2009F0C6F809211C2009F00A
:102B6000C2F803211E2009F0BEF810E00020C2497F
:102B7000086009F0EBFA00211A2009F0B4F80821E6
:102B80001C2009F0B0F800211E2009F096F826E07C
:102B9000B948006888B90120B749086009F0D6FA39
:102BA00003211A2009F09FF809211C2009F09BF845
:102BB00003211E2009F097F810E00020AE490860BC
:102BC00009F0C4FA00211A2009F08DF808211C2010
:102BD00009F089F800211E2009F06FF800BF00BF3E
:102BE0006FE409F0F2FA0321002009F038F801221D
:102BF0000821022008F0F0FF0321022009F047F825
:102C00000821042009F02BF809F0A0FA9B4800687D
:102C10000A2190FBF1F201FB1200C0B201460290C2
:102C20001A2009F04AF8954800680A2190FBF1F053
:102C300090FBF1F201FB1200C0B2014602901C2091
:102C400009F03BF88D480068642190FBF1F0C0B2B8
:102C5000014602901E2009F030F8049810B10128B6
:102C60006CD135E085480068401E844908600846FC
:102C70000068012802DA4FF41670086009F066FA5D
:102C80007E4800680A2190FBF1F201FB1200C0B2FD
:102C9000014602901A2009F010F8784800680A21CD
:102CA00090FBF1F090FBF1F201FB1200C0B2014683
:102CB00002901C2009F001F870480068642190FB24
:102CC000F1F0C0B2014602901E2008F0F6FF35E098
:102CD0006A480068401C6949086008460068B0F509
:102CE000167F01DD0120086009F030FA63480068B2
:102CF0000A2190FBF1F201FB1200C0B201460290E2
:102D00001A2008F0DAFF5D4800680A2190FBF1F014
:102D100090FBF1F201FB1200C0B2014602901C20B0
:102D200008F0CBFF55480068642190FBF1F0C0B279
:102D3000014602901E2008F0C0FF00BF00BF96E4CD
:102D400009F043FA0421002008F089FF012208213C
:102D5000022008F041FF0321022008F098FF08211B
:102D6000042008F07CFF09F0F1F9454800680A21C9
:102D700090FBF1F201FB1200C0B2014602901A2052
:102D800008F09BFF3E4800680A2190FBF1F090FBA1
:102D9000F1F201FB1200C0B2014602901C2008F0C3
:102DA0008CFF37480068642190FBF1F0C0B2014607
:102DB00002901E2008F081FF049810B1012875D1FF
:102DC00035E02F480068401E2D490860084600681D
:102DD000012802DA4FF41670086009F0B7F92848A4
:102DE00000680A2190FBF1F201FB1200C0B201461B
:102DF00002901A2008F061FF214800680A2190FB28
:102E0000F1F090FBF1F201FB1200C0B2014602901A
:102E10001C2008F052FF1A480068642190FBF1F072
:102E2000C0B2014602901E2008F047FF3EE0144861
:102E30000068401C1249086008460068B0F5167F1B
:102E400001DD0120086009F081F90D4800680A21C0
:102E500090FBF1F201FB1200C0B2014602901A2071
:102E600008F02BFF064800680A2190FBF1F090FB68
:102E7000F1F207E004030020080300200C03002007
:102E80001003002001FB1200C0B2014602901C207A
:102E900008F013FFFE480068642190FBF1F0C0B217
:102EA000014602901E2008F008FF00BF00BFA2E408
:102EB00009F08BF90521002008F0D1FE012208213C
:102EC000022008F089FE0321022008F0E0FE08211C
:102ED000042008F0C4FE09F039F9EE4800680A2120
:102EE00090FBF1F201FB1200C0B2014602901A20E1
:102EF00008F0E3FE049810B1012836D11AE0E54845
:102F00000068401EE349086008460068002801DAAE
:102F10000120086009F01AF9DE4800680A2190FBD8
:102F2000F1F201FB1200C0B2014602901A2008F033
:102F3000C4FE1AE0D7480068401CD649086008461D
:102F40000068012801DD0020086009F0FFF8D14881
:102F500000680A2190FBF1F201FB1200C0B20146A9
:102F600002901A2008F0A9FE00BF00BF43E409F058
:102F70002CF900220821072008F02EFE002208214B
:102F80000A2008F029FE0021084608F080FE0122F0
:102F90000821022008F020FE0321022008F077FE1D
:102FA0000421084608F05BFE0121172008F0D9FE35
:102FB00009F0CCF8B84800680A2190FBF1F201FB57
:102FC0001200C0B2014602901A2008F076FE0122DB
:102FD00011461C2008F000FEAF4800680A2190FB53
:102FE000F1F090FBF1F201FB1200C0B20146029039
:102FF0001C2008F09EFEA8480068642190FBF1F0B8
:10300000C0B2014602901E2008F057FE049810B18D
:10301000012839D139E0A0480068401E9E49086067
:1030200008460068002801DA0020086009F08EF8E0
:10303000994800680A2190FBF1F201FB1200C0B22E
:10304000014602901A2008F038FE012211461C2089
:1030500008F0C2FD904800680A2190FBF1F090FB57
:10306000F1F201FB1200C0B2014602901C2008F0F0
:1030700060FE89480068642190FBF1F0C0B201460F
:1030800002901E2008F019FE4FE083480068401CA3
:10309000814908608148006881490968401A032114
:1030A00090FBF1F000EB80007B490968B1EB400F29
:1030B0000CDD7A4800687A490968401A032190FBC0
:1030C000F1F000EB800040007349086009F03EF821
:1030D000714800680A2190FBF1F201FB1200C0B2B6
:1030E000014602901A2008F0E8FD012211461C203A
:1030F00008F072FD684800680A2190FBF1F090FB2F
:10310000F1F201FB1200C0B2014602901C2008F04F
:1031100010FE61480068642190FBF1F0C0B20146E6
:1031200002901E2008F0C9FD00BF00BF39E409F07D
:103130004CF80021084608F0AAFD012208210220CF
:1031400008F04AFD0B21022008F0A1FD04210846E9
:1031500008F085FD534800680A2190FBF1F201FB5D
:103160001200C0B20246012102901C2008F034FD7A
:1031700008F0ECFF00211A2008F0DBFD4948006848
:103180000A2190FBF1F090FBF1F201FB1200C0B2BA
:10319000014602901C2008F0CCFD424800686421E2
:1031A00090FBF1F0C0B2014602901E2008F085FDB0
:1031B000049810B1012839D139E03A480068401E1E
:1031C0003849086008460068002801DA00200860D5
:1031D00008F0BCFF334800680A2190FBF1F201FBC4
:1031E0001200C0B2014602901A2008F0A2FD01228E
:1031F00011461C2008F0F0FC2A4800680A2190FBC8
:10320000F1F090FBF1F201FB1200C0B20146029016
:103210001C2008F08EFD23480068642190FBF1F02B
:10322000C0B2014602901E2008F047FD60E01D4834
:103230000068401C1B4908601B4800681B4909685E
:10324000401A032190FBF1F000EB8000154909685A
:10325000B1EB400F0CDD1448006814490968401AAE
:10326000032190FBF1F000EB800040000D49086065
:1032700008F06CFF0B4800680A2190FBF1F201FB9B
:103280001200C0B2014602901A2008F052FD0FE071
:10329000100300202003002024030020E40200206B
:1032A000E80200202C030020F4020020F802002095
:1032B000012211461C2008F08FFCFE4800680A21FC
:1032C00090FBF1F090FBF1F201FB1200C0B201465D
:1032D00002901C2008F02DFDF6480068642190FB48
:1032E000F1F0C0B2014602901E2008F0E6FC00BFDB
:1032F00000BF75E408F069FF0021084608F0AFFC44
:1033000001220821022008F067FC0321022008F0B6
:10331000BEFC0721042008F0BAFC0121172008F0A8
:1033200020FD08F013FFE448006800280ADA0122B3
:103330000821072008F050FCDF4800684042DF49C0
:10334000086008E0DC480068DC49086000220821C9
:10335000072008F041FC00211A2008F0AEFC0122F1
:1033600011461C2008F038FCD44800680A2190FB64
:10337000F1F201FB1200C0B2014602901C2008F0DD
:10338000D8FCCE4800680A2190FBF1F0C0B201469B
:1033900002901E2008F091FC049810B1012848D139
:1033A00048E0C5480068401EC349086008460068F8
:1033B00010F1280F02DA6FF02700086008F0C6FE4F
:1033C000BD48006800280ADA01220821072008F019
:1033D00003FCB94800684042B849086008E0B648B4
:1033E0000068B649086000220821072008F0F4FBB5
:1033F00000211A2008F061FC012211461C2008F06F
:10340000EBFBAE4800680A2190FBF1F201FB1200D1
:10341000C0B2014602901C2008F08BFCA74800684F
:103420000A2190FBF1F0C0B2014602901E2008F084
:1034300044FC78E0A0480068A149096888422BDB79
:1034400008F084FE9C48006800280ADA012208215E
:10345000072008F0C1FB984800684042974908607F
:1034600008E0954800689549086000220821072077
:1034700008F0B2FB00220821072008F0ADFB08216C
:103480001A2008F030FC08211C2008F02CFC062132
:103490001E2008F028FC45E087480068401C86494B
:1034A000086008460068502801DD5020086008F0D8
:1034B0004DFE8148006800280ADA01220821072011
:1034C00008F08AFB7C48006840427C49086008E0BC
:1034D000794800687949086000220821072008F02F
:1034E0007BFB00211A2008F0E8FB012211461C207A
:1034F00008F072FB714800680A2190FBF1F201FBB1
:103500001200C0B2014602901C2008F012FC6B4869
:1035100000680A2190FBF1F0C0B2014602901E2023
:1035200008F0CBFB00BF00BF09E408F04EFE01210C
:10353000002008F094FB01220821022008F04CFB37
:103540000321022008F0A3FB0721042008F09FFBC1
:103550000121172008F005FC08F0F8FD5848006824
:1035600000280ADA01220821072008F035FB544818
:10357000006840425349086008E0514800685149DA
:10358000086000220821072008F026FB00211A20ED
:1035900008F093FB012211461C2008F01DFB49484E
:1035A00000680A2190FBF1F201FB1200C0B2014653
:1035B00002901C2008F0BDFB424800680A2190FBE5
:1035C000F1F0C0B2014602901E2008F076FB04988C
:1035D00010B1012878D186E0374800683849096879
:1035E00088422BDB08F0B2FD3548006800280ADA73
:1035F00001220821072008F0EFFA31480068404214
:103600003049086008E02E4800682E490860002212
:103610000821072008F0E0FA00220821072008F01E
:10362000DBFA08211A2008F05EFB08211C2008F0B4
:103630005AFB06211E2008F056FB53E02048006884
:10364000401E1F4908600846006810F1280F02DA82
:103650006FF02700086008F079FD1948006800281D
:103660000ADA01220821072008F0B6FA1448006897
:1036700040421449086008E0114800681149086098
:1036800000220821072008F0A7FA00211A2008F0DC
:1036900014FB012211461C2008F09EFA094800681C
:1036A0000A2190FBF1F201FB1200C0B20146029028
:1036B0001C200AE02C0300203403002038030020E3
:1036C0003C0300204003002054E008F032FBFE4899
:1036D00000680A2190FBF1F0C0B2014602901E2062
:1036E00008F0EBFA46E0F9480068401CF74908602A
:1036F00008460068502801DD5020086008F026FDCB
:10370000F248006800280ADA01220821072008F0A0
:1037100063FAEE4800684042EB49086008E0EB4875
:103720000068E949086000220821072008F054FADF
:1037300000211A2008F0C1FA012211461C2008F0CD
:103740004BFAE14800680A2190FBF1F201FB1200FC
:10375000C0B2014602901C2008F0EBFADA4800687B
:103760000A2190FBF1F0C0B2014602901E2008F041
:10377000A4FA00BF00BFD9E408F027FD00210846E5
:1037800008F06DFA01220821022008F025FA0B2129
:10379000022008F07CFA0721042008F078FA08F0EB
:1037A000D5FCCB48006800280ADA0122082107204E
:1037B00008F012FAC64800684042C649086008E0AE
:1037C000C3480068C349086000220821072008F0A8
:1037D00003FA00211A2008F0ACFA012211461C203D
:1037E00008F0FAF9BB4800680A2190FBF1F201FBEE
:1037F0001200C0B2014602901C2008F09AFAB548A7
:1038000000680A2190FBF1F0C0B2014602901E2030
:1038100008F053FA049810B1012846D146E0AC48AC
:103820000068401EAA49086008460068002801DABE
:103830000020086008F08AFCA548006800280ADA21
:1038400001220821072008F0C7F9A148006840427A
:10385000A049086008E09E4800689E490860002270
:103860000821072008F0B8F900211A2008F061FAB1
:10387000012211461C2008F0AFF9964800680A2181
:1038800090FBF1F201FB1200C0B2014602901C2035
:1038900008F04FFA8F4800680A2190FBF1F0C0B29F
:1038A000014602901E2008F008FA60E0884800688F
:1038B00089490968884226DB08F048FC844800688A
:1038C00000280ADA01220821072008F085F980483B
:1038D000006840427F49086008E07D4800687D49F3
:1038E000086000220821072008F076F908211A2034
:1038F00008F0F9F908211C2008F0F5F906211E202E
:1039000008F0F1F933E072480068401C7049086023
:1039100008460068632801DD0920086008F016FCED
:1039200000220821072008F057F900211A2008F08A
:1039300000FA012211461C2008F04EF96548006883
:103940000A2190FBF1F201FB1200C0B20146029085
:103950001C2008F0EEF95F4800680A2190FBF1F0A6
:10396000C0B2014602901E2008F0A7F900BF00BFB8
:10397000BFE408F02AFC0121002008F070F90122C0
:103980000821022008F028F90B21022008F07FF915
:103990000721042008F07BF908F0D8FB4E480068A6
:1039A00000280ADA01220821072008F015F94A4800
:1039B000006840424949086008E0474800684749B4
:1039C000086000220821072008F006F900211A20CB
:1039D00008F0AFF9012211461C2008F0FDF83F481D
:1039E00000680A2190FBF1F201FB1200C0B201460F
:1039F00002901C2008F09DF9384800680A2190FBCD
:103A0000F1F0C0B2014602901E2008F056F9049869
:103A100010B101286DD16DE02D4800682E4909686C
:103A2000884213DB08F092FB00220821072008F0EF
:103A3000D3F808211A2008F056F908211C2008F0B4
:103A400052F906211E2008F04EF952E02248006883
:103A5000401E2149086008460068002801DA00205D
:103A6000086008F073FB1C48006800280ADA01228D
:103A70000821072008F0B0F81748006840421749AD
:103A8000086008E014480068144908600022082112
:103A9000072008F0A1F800211A2008F04AF90122B5
:103AA00011461C2008F098F80C4800680A2190FB89
:103AB000F1F201FB1200C0B2014602901C2008F096
:103AC00038F9064800680BE0400300203C03002062
:103AD00044030020480300204C0300205003002032
:103AE0000A2190FBF1F0C0B2014602901E2008F0BE
:103AF000E4F846E0FE480068401CFD4908600846BE
:103B00000068632801DD6320086008F01FFBF848A7
:103B1000006800280ADA01220821072008F05CF872
:103B2000F34800684042F349086008E0F048006844
:103B3000F049086000220821072008F04DF8002114
:103B40001A2008F0F6F8012211461C2008F044F86B
:103B5000E84800680A2190FBF1F201FB1200C0B2B4
:103B6000014602901C2008F0E4F8E24800680A21AF
:103B700090FBF1F0C0B2014602901E2008F09DF8C3
:103B800000BF00BF1CE208F020FB0021084608F03F
:103B900066F801220821022008F01EF80321022005
:103BA00008F075F80521042008F059F801211720C4
:103BB00008F0D7F808F0CAFACF48006800280ADAF7
:103BC00001220821072008F007F8CB48006840428E
:103BD000CA49086008E0C8480068C849086000226F
:103BE0000821072007F0F8FFC44800680A2190FB6D
:103BF000F1F201FB1200C0B2014602901A2008F057
:103C00005CF8012211461C2007F0E6FFBB48006863
:103C10000A2190FBF1F090FBF1F201FB1200C0B21F
:103C2000014602901C2008F084F8B4480068642122
:103C300090FBF1F0C0B2014602901E2008F03DF862
:103C4000049810B1012853D153E0AB480068401EDE
:103C5000A94908600846006810F1640F02DA6FF0A5
:103C600063000860A448006800280ADA01220821DD
:103C7000072007F0B1FFA048006840429F49086054
:103C800008E09D4800689D4908600022082107203F
:103C900007F0A2FF08F05AFA984800680A2190FB42
:103CA000F1F201FB1200C0B2014602901A2008F0A6
:103CB00004F8012211461C2007F08EFF8F4800688F
:103CC0000A2190FBF1F090FBF1F201FB1200C0B26F
:103CD000014602901C2008F02CF8884800686421F6
:103CE00090FBF1F0C0B2014602901E2007F0E5FF04
:103CF00051E081480068401C7F4908600846006820
:103D0000642801DD642008607B48006800280ADA26
:103D100001220821072007F05FFF77480068404232
:103D20007649086008E07448006874490860002219
:103D30000821072007F050FF08F008FA6F480068D4
:103D40000A2190FBF1F201FB1200C0B20146029081
:103D50001A2007F0B2FF012211461C2007F03CFF99
:103D6000664800680A2190FBF1F090FBF1F201FB3C
:103D70001200C0B2014602901C2007F0DAFF5F4833
:103D80000068642190FBF1F0C0B2014602901E2051
:103D900007F093FF00BF00BF18E308F016FA0021F8
:103DA000084607F05CFF01220821022007F014FFFB
:103DB0000B21022007F06BFF0521042007F04FFFC5
:103DC00008F0C4F94E48006800280ADA01220821E8
:103DD000072007F001FF4A4800684042494908604F
:103DE00008E047480068474908600022082107208A
:103DF00007F0F2FE434800680A2190FBF1F201FB54
:103E00001200C0B2014602901A2007F092FF012270
:103E100011461C2007F0E0FE3A4800680A2190FB9A
:103E2000F1F090FBF1F201FB1200C0B201460290EA
:103E30001C2007F07EFF33480068642190FBF1F0FE
:103E4000C0B2014602901E2007F037FF049810B15F
:103E5000012861D161E02A480068401E28490860B5
:103E60000846006810F1640F02DA6FF06300086022
:103E70002348006800280ADA01220821072007F0F9
:103E8000ABFE1F48006840421E49086008E01C481D
:103E900000681C49086000220821072007F09CFEEA
:103EA00008F054F9174800680A2190FBF1F201FB71
:103EB0001200C0B2014602901A2007F03AFF012218
:103EC00011461C2007F088FE0E4800680A2190FB6E
:103ED000F1F090FBF1F201FB1200C0B2014602903A
:103EE0001C2007F026FF0748006864210CE0000052
:103EF0004C030020500300205403002058030020EE
:103F00005C0300206003002090FBF1F0C0B201468A
:103F100002901E2007F0D1FE51E0F9480068401CD5
:103F2000F749086008460068642801DD64200860DD
:103F3000F348006800280ADA01220821072007F068
:103F40004BFEEF4800684042EE49086008E0EC484C
:103F50000068EC49086000220821072007F03CFEB9
:103F600008F0F4F8E74800680A2190FBF1F201FB41
:103F70001200C0B2014602901A2007F0DAFE0122B8
:103F800011461C2007F028FEDE4800680A2190FB3D
:103F9000F1F090FBF1F201FB1200C0B20146029079
:103FA0001C2007F0C6FED7480068642190FBF1F0A2
:103FB000C0B2014602901E2007F07FFE00BF00BF86
:103FC00004E208F002F90821002007F060FE072152
:103FD000022007F05CFE0121042007F058FE0022B9
:103FE0000821072007F0F8FD08F0B0F84FF08041F5
:103FF000C54800680EF014FA0290C44800680146F3
:10400000019002980EF0D8F908D201211C2007F087
:1040100054FE00211A2007F050FE70E14FF080415D
:10402000B94800680EF0FCF90290B84840680146B3
:10403000019002980EF0C0F917D24FF08041B248BB
:1040400000680EF0EDF90290B0480068014601905A
:1040500002980EF0B1FA08D802211C2007F02DFEBC
:1040600000211A2007F029FE49E14FF08041A648BF
:1040700000680EF0D5F90290A448806801460190CE
:1040800002980EF099F917D24FF080419E480068CF
:104090000EF0C6F902909D484068014601900298D2
:1040A0000EF08AFA08D803211C2007F006FE002132
:1040B0001A2007F002FE22E14FF08041924800688A
:1040C0000EF0AEF902909148C06801460190029846
:1040D0000EF072F917D24FF080418B4800680EF055
:1040E0009FF90290894880680146019002980EF07D
:1040F00063FA08D804211C2007F0DFFD00211A20F4
:1041000007F0DBFDFBE04FF080417F4800680EF0D8
:1041100087F902907D4800690146019002980EF0EF
:104120004BF917D24FF08041774800680EF078F9CC
:1041300002907648C0680146019002980EF03CFA61
:1041400008D805211C2007F0B8FD00211A2007F02F
:10415000B4FDD4E04FF080416B4800680EF060F988
:1041600002906A4840690146019002980EF024F9D5
:1041700017D24FF08041644800680EF051F9029068
:10418000624800690146019002980EF015FA08D8BD
:1041900006211C2007F091FD00211A2007F08DFD5B
:1041A000ADE04FF08041584800680EF039F90290B8
:1041B000564880690146019002980EF0FDF817D22A
:1041C0004FF08041504800680EF02AF902904F48A5
:1041D00040690146019002980EF0EEF908D80721D7
:1041E0001C2007F06AFD00211A2007F066FD86E01A
:1041F0004FF08041444800680EF012F902904348A5
:10420000C0690146019002980EF0D6F817D24FF01F
:1042100080413D4800680EF003F902903B488069F8
:104220000146019002980EF0C7F908D808211C2019
:1042300007F043FD00211A2007F03FFD5FE04FF03B
:104240008041314800680EF0EBF802902F48006A78
:104250000146019002980EF0AFF817D24FF080415E
:10426000294800680EF0DCF802902848C069014631
:10427000019002980EF0A0F908D809211C2007F03F
:104280001CFD00211A2007F018FD38E04FF0804196
:104290001D4800680EF0C4F802901C48406A0146B0
:1042A000019002980EF088F80ED24FF08041164827
:1042B00000680EF0B5F802901448006A01460190BB
:1042C00002980EF079F90ED94FF080410E4800683F
:1042D0000EF0A6F802900D48406A0146019002983F
:1042E0000EF06AF90BD801211E2007F0E6FC002130
:1042F0001C2007F0E2FC00211A2007F0DEFC65E03C
:104300005C03002060030020DC030020E8030020A1
:1043100007F05BFF0421002007F0B9FC0621022012
:1043200007F0B5FC0521042007F099FC07F00EFF0B
:10433000FE480078014602901A2007F0BEFC04985F
:1043400010B101282AD114E0F8480068401EF7494E
:10435000086008460068012801DA0420086007F0B8
:10436000F5FEF2480078014602901A2007F0A5FCFD
:1043700014E0EE480068401CEC49086008460068FC
:10438000042801DD0120086007F0E0FEE74800781E
:10439000014602901A2007F090FC00BF00BF15E014
:1043A00007F013FF0621022007F059FC0121042029
:1043B00007F055FC07F0CAFE0120DD490860002027
:1043C000DC4908600120DC49086000BF00BF05B07F
:1043D00000BD03B583B003981A2882F02683DFE876
:1043E00010F01A001C00DB00D0014D024B035604F4
:1043F0000B05BB0521069C062907B0076A081909A9
:104400007809410AFD0A060C040DFC0D010F0B1082
:104410001E11C6120E1302F008BB07F0D6FE0021D3
:10442000084607F034FC01220821022007F0D4FBE3
:104430000121022007F013FC0121042007F00FFCEA
:1044400007F084FEBD480078642190FBF1F201FB87
:1044500012000A2190FBF1F201FB1200C0B20146EA
:1044600002901A2007F029FCB4480078642190FBE0
:10447000F1F201FB12000A2190FBF1F0C0B20146FB
:1044800002901C2007F019FCAC480078642190FBD6
:10449000F1F0C0B2014602901E2007F00EFC049815
:1044A00010B1012876D13AE0A4480078401EA34913
:1044B000087008460078012801DAFE20087007F02D
:1044C00045FE9E480078642190FBF1F201FB12004A
:1044D0000A2190FBF1F201FB1200C0B201460290EA
:1044E0001A2007F0EAFB95480078642190FBF1F26E
:1044F00001FB12000A2190FBF1F0C0B201460290CC
:104500001C2007F0DAFB8D480078642190FBF1F065
:10451000C0B2014602901E2007F0CFFB3AE0874868
:104520000078401C8549087008460078FE2801DDA7
:104530000120087007F00AFE80480078642190FB93
:10454000F1F201FB12000A2190FBF1F201FB1200D3
:10455000C0B2014602901A2007F0AFFB77480078FE
:10456000642190FBF1F201FB12000A2190FBF1F0B3
:10457000C0B2014602901C2007F09FFB6F480078F4
:10458000642190FBF1F0C0B2014602901E2007F0BA
:1045900094FB00BF00BF3EE707F017FE022100209A
:1045A00007F075FB01220821022007F015FB01220C
:1045B0000821022007F04EFA0121022007F067FBD4
:1045C0000221042007F04BFB07F0C0FD5C485D4969
:1045D000096850F821005C490860084600686421B9
:1045E00090FBF1F00A2190FBF1F201FB1200C0B246
:1045F000014602901A2007F060FB534800686421CE
:1046000090FBF1F00A2190FBF1F090FBF1F201FB3D
:104610001200C0B2014602901C2007F04EFB4A482F
:10462000006842F2107190FBF1F0C0B201460290B6
:104630001E2007F042FB049810B1012846D146E045
:1046400040480068401E3F4908600846006800284E
:1046500001DA042008603A483A49096850F8210014
:1046600039490860084600680AF02FFA07F06EFD25
:1046700035480068642190FBF1F00A2190FBF1F2CB
:1046800001FB1200C0B2014602901A2007F015FB90
:104690002D480068642190FBF1F00A2190FBF1F0B5
:1046A00090FBF1F201FB1200C0B2014602901C2007
:1046B00007F003FB2448006842F2107190FBF1F010
:1046C000C0B2014602901E2007F0F7FA57E01D48DD
:1046D0000068401C1B49086008460068042801DD8A
:1046E0000020086016481749096850F8210016494B
:1046F0000860084600680AF0E8F907F027FD12484C
:104700000068642190FBF1F00A2190FBF1F201FBBB
:104710001200C0B2014602901A2007F0CEFA0A48F1
:104720000068642190FBF1F00A210FE018030020DB
:1047300084030020700300208C030020C0020020AE
:10474000CC020020C8020020C402002090FBF1F03F
:1047500090FBF1F201FB1200C0B2014602901C2056
:1047600007F0ABFAFE48006842F2107190FBF1F0DE
:10477000C0B2014602901E2007F09FFA00BF00BFA2
:1047800049E607F022FD0821002007F080FA012207
:104790000821022007F020FA0721022007F077FA0B
:1047A0000321042007F05BFAEE48006801280AD1D3
:1047B00007F0CCFC0A211A2007F095FA00211C20F2
:1047C00007F07BFA0DE007F0C1FC05211A2007F085
:1047D0008AFA05211C2007F086FA00211E2007F026
:1047E0006CFA049810B1012846D122E0DD48006837
:1047F00068B90120DB49086007F0A8FC0A211A20EB
:1048000007F071FA00211C2007F057FA10E0002091
:10481000D449086007F09AFC05211A2007F063FAD2
:1048200005211C2007F05FFA00211E2007F045FA41
:1048300022E0CC48006868B90120CA49086007F046
:1048400085FC0A211A2007F04EFA00211C2007F0EF
:1048500034FA10E00020C349086007F077FC052116
:104860001A2007F040FA05211C2007F03CFA00212D
:104870001E2007F022FA00BF00BFCCE507F0A5FC20
:104880000B21002007F003FA01220821022007F083
:10489000A3F90321022007F0FAF90421084607F0E2
:1048A000DEF90121172007F05CFA07F04FFCAE4853
:1048B000006800280ADA01220821072007F08CF995
:1048C000A94800684042A949086008E0A648006875
:1048D000A649086000220821072007F07DF9002181
:1048E0001A2007F0EAF9012211461C2007F074F99A
:1048F0009E4800680A2190FBF1F201FB1200C0B251
:10490000014602901C2007F014FA984800680A211A
:1049100090FBF1F0C0B2014602901E2007F0CDF9E5
:10492000049810B1012875D175E0914800688E494E
:104930000968884226DD07F009FC8B4800680028DA
:104940000ADA01220821072007F046F986480068A4
:1049500040428649086008E083480068834908604F
:1049600000220821072007F037F908211A2007F054
:10497000BAF908211C2007F0B6F906211E2007F01D
:10498000B2F947E078480068401E77490860084659
:10499000006810F1280F02DA6FF02700086007F0B6
:1049A000D5FB7148006800280ADA01220821072097
:1049B00007F012F96C48006840426C49086008E052
:1049C000694800686949086000220821072007F04B
:1049D00003F900211A2007F070F9012211461C206A
:1049E00007F0FAF8614800680A2190FBF1F201FB38
:1049F0001200C0B2014602901C2007F09AF95B48F1
:104A000000680A2190FBF1F0C0B2014602901E201E
:104A100007F053F92EE054480068401C52490860E2
:104A200008460068502801DD5020086007F08EFB22
:104A300000211A2007F041F9012211461C2007F03D
:104A4000CBF84A4800680A2190FBF1F201FB120002
:104A5000C0B2014602901C2007F06BF94348006881
:104A60000A2190FBF1F0C0B2014602901E2007F02F
:104A700024F900BF00BFCEE407F0A7FB042100200B
:104A800007F005F901220821022007F0A5F803210B
:104A9000022007F0FCF80521042007F0E0F80121CE
:104AA000172007F05EF907F051FB31480068002835
:104AB0000ADA01220821072007F08EF82C48006846
:104AC00040422C49086008E02948006829490860EC
:104AD00000220821072007F07FF800211A2007F0A4
:104AE000ECF8012211461C2007F076F821480068F6
:104AF0000A2190FBF1F201FB1200C0B201460290C4
:104B00001C2007F016F91B4800680A2190FBF1F001
:104B1000C0B2014602901E2007F0CFF8049810B1F1
:104B2000012855D155E012480068401E1049086020
:104B30000846006810F1280F02DA6FF027000860BD
:104B400007F004FB0A480068002817DA0122082150
:104B5000072007F041F806480068404205490BE08D
:104B6000C4020020E0020020E4020020F002002045
:104B7000E8020020EC020020086008E0FE4800681F
:104B8000FE49086000220821072007F025F80021CF
:104B90001A2007F092F8012211461C2007F01CF899
:104BA000F64800680A2190FBF1F201FB1200C0B246
:104BB000014602901C2007F0BCF8F04800680A216A
:104BC00090FBF1F0C0B2014602901E2007F075F88C
:104BD0005BE0E9480068EA49096888420EDD07F0B1
:104BE000B5FA08211A2007F07EF808211C2007F0EA
:104BF0007AF806211E2007F076F845E0DE480068C6
:104C0000401CDD49086008460068502801DD50203E
:104C1000086007F09BFAD848006800280ADA0122E9
:104C20000821072006F0D8FFD34800684042D34946
:104C3000086008E0D0480068D049086000220821D8
:104C4000072006F0C9FF00211A2007F036F80122DC
:104C500011461C2006F0C0FFC84800680A2190FBDE
:104C6000F1F201FB1200C0B2014602901C2007F0D5
:104C700060F8C24800680A2190FBF1F0C0B201461A
:104C800002901E2007F019F800BF00BF83E4002245
:104C90000821072006F0A0FF07F097FA0B2100205B
:104CA00006F0F5FF01220821022006F095FF0B21F6
:104CB000022006F0ECFF0621042006F0D0FF07F0EA
:104CC00045FA00211A2007F034F8012211461C2071
:104CD00006F082FFAB4800680A2190FBF1F201FB6D
:104CE0001200C0B2014602901C2007F022F8A5482D
:104CF00000680A2190FBF1F0C0B2014602901E202C
:104D000006F0DBFF049810B1012873D143E09D4801
:104D100000689D49096888420EDA07F017FA0821F1
:104D20001A2006F0E0FF08211C2006F0DCFF062117
:104D30001E2006F0D8FF2DE092480068401E9149E1
:104D4000086008460068002801DA0120086007F0C2
:104D5000FDF900211A2006F0ECFF012211461C206B
:104D600006F03AFF874800680A2190FBF1F201FB48
:104D70001200C0B2014602901C2006F0DAFF814802
:104D800000680A2190FBF1F0C0B2014602901E209B
:104D900006F093FF2EE07B480068401C79490860CC
:104DA00008460068632801DD6320086007F0CEF93B
:104DB00000211A2006F0BDFF012211461C2006F03A
:104DC0000BFF704800680A2190FBF1F201FB120012
:104DD000C0B2014602901C2006F0ABFF6948006893
:104DE0000A2190FBF1F0C0B2014602901E2006F0AD
:104DF00064FF00BF00BFC3E407F0E7F9042100200F
:104E000006F045FF01220821022006F0E5FE0B21F5
:104E1000022006F03CFF0721042006F020FF07F0E7
:104E200095F900211A2006F084FF012211461C206A
:104E300006F0D2FE544800680A2190FBF1F201FB13
:104E40001200C0B2014602901C2006F072FF4E48CC
:104E500000680A2190FBF1F0C0B2014602901E20CA
:104E600006F02BFF049810B1012873D12EE04648BC
:104E70000068401E4449086008460068002801DABE
:104E80000020086007F062F900211A2006F051FFA7
:104E9000012211461C2006F09FFE3B4800680A21B3
:104EA00090FBF1F201FB1200C0B2014602901C20FF
:104EB00006F03FFF344800680A2190FBF1F0C0B2D1
:104EC000014602901E2006F0F8FE43E02D480068DF
:104ED0002D49096888420EDA07F038F908211A20AE
:104EE00006F001FF08211C2006F0FDFE06211E2011
:104EF00006F0F9FE2DE024480068401C22490860B5
:104F000008460068632801DD6320086007F01EF989
:104F100000211A2006F00DFF012211461C2006F088
:104F20005BFE194800680A2190FBF1F201FB1200B8
:104F3000C0B2014602901C2006F0FBFE1248006839
:104F40000A2190FBF1F0C0B2014602901E2006F04B
:104F5000B4FE00BF00BF13E407F037F905210020BD
:104F600006F095FE01220821022006F035FE0321FD
:104F7000022006F08CFE09E0E8020020EC0200208E
:104F8000E4020020F4020020F8020020082104209E
:104F900006F065FE0121172006F0E3FE07F0D6F8C3
:104FA000FE480068012804D105211C2006F09BFE64
:104FB00003E003211C2006F096FE049810B101289E
:104FC0002ED116E0F548006848B90120F349086081
:104FD00007F0BCF805211C2006F085FE08E0002043
:104FE000EE49086007F0B2F803211C2006F07BFEB2
:104FF00016E0EA48006848B90120E849086007F06F
:10500000A5F805211C2006F06EFE08E00020E3490B
:10501000086007F09BF803211C2006F064FE00BF27
:1050200000BF2AE407F0D1F80821002006F02FFE87
:1050300001220821022006F0CFFD0521022006F002
:1050400026FE0921042006F00AFE07F07FF8D44866
:105050000068012808D10A211A2006F044FE002128
:105060001C2006F02AFE0BE005211A2006F03BFE6C
:1050700005211C2006F037FE00211E2006F01DFE33
:10508000049810B1012846D122E0C548006868B9EB
:105090000120C349086007F059F80A211A2006F0D8
:1050A00022FE00211C2006F008FE10E00020BC4972
:1050B000086007F04BF805211A2006F014FE0521C0
:1050C0001C2006F010FE00211E2006F0F6FD22E056
:1050D000B348006868B90120B149086007F036F8A4
:1050E0000A211A2006F0FFFD00211C2006F0E5FD34
:1050F00010E00020AA49086007F028F805211A20CE
:1051000006F0F1FD05211C2006F0EDFD00211E201A
:1051100006F0D3FD00BF00BFADE407F056F8012153
:10512000002006F09CFD01220821022006F054FD1B
:105130000021022006F093FD0321042006F0A7FDC4
:1051400007F004F89748006838B90A211A2006F0D9
:10515000CAFD00211C2006F0B0FD9248006801281D
:105160000BD105211A2006F0BEFD05211C2006F0FA
:10517000BAFD00211E2006F0A0FD049810B1012800
:1051800056D12AE087480068401E864908600846D4
:105190000068002801DA012008608248006848B9E8
:1051A00006F0D4FF0A211A2006F09DFD00211C20E4
:1051B00006F083FD7B48006801280DD106F0C6FF8C
:1051C00005211A2006F08FFD05211C2006F08BFD1D
:1051D00000211E2006F071FD2AE072480068401C84
:1051E0007049086008460068012801DD0020086059
:1051F0006C48006848B906F0A9FF0A211A2006F099
:1052000072FD00211C2006F058FD66480068012848
:105210000DD106F09BFF05211A2006F064FD052143
:105220001C2006F060FD00211E2006F046FD00BF98
:1052300000BF20E406F0C9FF0221002006F00FFDA8
:1052400001220821022006F0C7FC0021022006F0FE
:1052500006FD0321042006F01AFD06F077FF5248F0
:10526000006801280CD103211A2006F03CFD092119
:105270001C2006F038FD03211E2006F034FD0BE053
:1052800000211A2006F02FFD08211C2006F02BFD1E
:1052900000211E2006F011FD049810B101284ED106
:1052A00026E04148006888B901203F49086006F0BF
:1052B0004DFF03211A2006F016FD09211C2006F0DF
:1052C00012FD03211E2006F00EFD10E000203649DD
:1052D000086006F03BFF00211A2006F004FD0821BB
:1052E0001C2006F000FD00211E2006F0E6FC26E052
:1052F0002D48006888B901202B49086006F026FF78
:1053000003211A2006F0EFFC09211C2006F0EBFC1B
:1053100003211E2006F0E7FC10E00020224908606F
:1053200006F014FF00211A2006F0DDFC08211C20E5
:1053300006F0D9FC00211E2006F0BFFC00BF00BF14
:10534000A4E406F042FF0321002006F088FC0122BD
:105350000821022006F040FC0021022006F07FFC1C
:105360000321042006F093FC06F0F0FE0F480068CD
:105370000A2190FBF1F201FB1200C0B2014602903B
:105380001A2006F09AFC094800680A2190FBF1F007
:1053900090FBF1F201FB1200C0B209E0FC02002018
:1053A0000003002004030020080300200C03002059
:1053B000014602901C2006F080FCFE480068642133
:1053C00090FBF1F0C0B2014602901E2006F075FC81
:1053D000049810B101286CD135E0F6480068401EF1
:1053E000F449086008460068012802DA4FF4167094
:1053F000086006F0ABFEEF4800680A2190FBF1F26E
:1054000001FB1200C0B2014602901A2006F055FCC2
:10541000E84800680A2190FBF1F090FBF1F201FBF3
:105420001200C0B2014602901C2006F046FCE14882
:105430000068642190FBF1F0C0B2014602901E208A
:1054400006F03BFC35E0DB480068401CD9490860A9
:1054500008460068B0F5167F01DD0120086006F0FF
:1054600075FED44800680A2190FBF1F201FB12009E
:10547000C0B2014602901A2006F01FFCCD48006819
:105480000A2190FBF1F090FBF1F201FB1200C0B297
:10549000014602901C2006F010FCC64800686421FA
:1054A00090FBF1F0C0B2014602901E2006F005FC10
:1054B00000BF00BF9FE406F088FE0421002006F034
:1054C000CEFB01220821022006F086FB00210220EB
:1054D00006F0C5FB0321042006F0D9FB06F036FEDA
:1054E000B54800680A2190FBF1F201FB1200C0B23E
:1054F000014602901A2006F0E0FBAF4800680A213E
:1055000090FBF1F090FBF1F201FB1200C0B20146FA
:1055100002901C2006F0D1FBA7480068642190FB94
:10552000F1F0C0B2014602901E2006F0C6FB0498BE
:1055300010B101286CD135E09F480068401E9E499B
:10554000086008460068012802DA4FF41670086007
:1055500006F0FCFD984800680A2190FBF1F201FB7F
:105560001200C0B2014602901A2006F0A6FB924833
:1055700000680A2190FBF1F090FBF1F201FB1200B0
:10558000C0B2014602901C2006F097FB8A480068D2
:10559000642190FBF1F0C0B2014602901E2006F09B
:1055A0008CFB35E084480068401C8349086008464D
:1055B0000068B0F5167F01DD0120086006F0C6FD29
:1055C0007D4800680A2190FBF1F201FB1200C0B295
:1055D000014602901A2006F070FB774800680A2105
:1055E00090FBF1F090FBF1F201FB1200C0B201461A
:1055F00002901C2006F061FB6F480068642190FB5C
:10560000F1F0C0B2014602901E2006F056FB00BF2A
:1056100000BFA0E406F0D9FD0521002006F01FFB25
:1056200001220821022006F0D7FA0021022006F00C
:1056300016FB0321042006F02AFB06F087FD5F48D5
:1056400000680A2190FBF1F201FB1200C0B2014692
:1056500002901A2006F031FB049810B1012836D1CF
:105660001AE056480068401E544908600846006821
:10567000002801DA0120086006F068FD4F48006844
:105680000A2190FBF1F201FB1200C0B20146029028
:105690001A2006F012FB1AE048480068401C4749EF
:1056A000086008460068012801DD0020086006F057
:1056B0004DFD424800680A2190FBF1F201FB120007
:1056C000C0B2014602901A2006F0F7FA00BF00BFF0
:1056D00041E406F07AFD0621002006F0C0FA01221E
:1056E0000821022006F078FA0021022006F0B7FA1D
:1056F0000321042006F0CBFA0121172006F031FB2C
:1057000006F024FD2E4800680A2190FBF1F201FB0F
:105710001200C0B2014602901A2006F0CEFA012211
:1057200011461C2006F058FA254800680A2190FB13
:10573000F1F090FBF1F201FB1200C0B201460290C1
:105740001C2006F0F6FA1E480068642190FBF1F078
:10575000C0B2014602901E2006F0AFFA049810B1C4
:1057600001287DD142E016480068401E14490860B7
:1057700008460068002801DA0020086006F0E6FC10
:105780000F4800680A2190FBF1F201FB1200C0B241
:10579000014602901A2006F090FA012211461C20C0
:1057A00006F01AFA064800680A2190FBF1F090FB17
:1057B000F1F207E00C03002010030020200300207A
:1057C0002403002001FB1200C0B2014602901C20FD
:1057D00006F0AFFAFE480068642190FBF1F0C0B219
:1057E000014602901E2006F068FA39E0F848006889
:1057F000401CF749086008460068782801DD7820D9
:10580000086006F0A3FCF24800680A2190FBF1F260
:1058100001FB1200C0B2014602901A2006F04DFAB8
:10582000012211461C2006F0D7F9E94800680A2138
:1058300090FBF1F090FBF1F201FB1200C0B20146C7
:1058400002901C2006F075FAE1480068642190FB84
:10585000F1F0C0B2014602901E2006F02EFA00BF01
:1058600000BF59E406F0B1FC0721002006F0F7F96B
:1058700001220821022006F0AFF90021022006F0E3
:10588000EEF90321042006F002FAD24800680A214A
:1058900090FBF1F201FB1200C0B20246012102901E
:1058A0001C2006F099F906F051FC00211A2006F0A0
:1058B00040FAC84800680A2190FBF1F090FBF1F231
:1058C00001FB1200C0B2014602901C2006F031FA22
:1058D000C0480068642190FBF1F0C0B2014602901C
:1058E0001E2006F0EAF9049810B1012874D139E0BD
:1058F000B8480068401EB74908600846006800289C
:1059000001DA0020086006F021FCB24800680A2194
:1059100090FBF1F201FB1200C0B2014602901A2086
:1059200006F007FA012211461C2006F055F9A94895
:1059300000680A2190FBF1F090FBF1F201FB1200EC
:10594000C0B2014602901C2006F0F3F9A14800689D
:10595000642190FBF1F0C0B2014602901E2006F0D7
:10596000ACF939E09B480068401C9A490860084639
:105970000068642801DD6420086006F0E7FB9548B4
:1059800000680A2190FBF1F201FB1200C0B201464F
:1059900002901A2006F0CDF9012211461C2006F0D3
:1059A0001BF98C4800680A2190FBF1F090FBF1F2A2
:1059B00001FB1200C0B2014602901C2006F0B9F9AA
:1059C00084480068642190FBF1F0C0B20146029067
:1059D0001E2006F072F900BF00BF2AE406F0F5FBB6
:1059E0000821002006F03BF901220821022006F0E0
:1059F000F3F80021022006F032F90321042006F01A
:105A000046F90121172006F0ACF906F09FFB724819
:105A1000006800280ADA01220821072006F0DCF8D5
:105A20006D48006840426D49086008E06A480068B7
:105A30006A49086000220821072006F0CDF80021FD
:105A40001A2006F03AF9012211461C2006F0C4F88B
:105A5000624800680A2190FBF1F201FB1200C0B21B
:105A6000014602901C2006F064F95C4800680A2197
:105A700090FBF1F0C0B2014602901E2006F01DF925
:105A8000049810B1012875D175E053480068544955
:105A90000968884226DD06F059FB4F480068002857
:105AA0000ADA01220821072006F096F84A48006821
:105AB00040424A49086008E0474800684749086092
:105AC00000220821072006F087F808211A2006F096
:105AD0000AF908211C2006F006F906211E2006F00E
