:020000040800F2
:10000000F810002089E800089D0F00089F0F0008E5
:10001000A30F0008A70F0008AB0F000800000000A6
:10002000000000000000000000000000AF0F00080A
:10003000B10F000800000000B30F0008B50F000862
:10004000A3E80008A3E80008A3E8000865C90008C1
:10005000A3E80008A3E80008A3E80008A3E8000854
:10006000A3E80008A3E80008A3E80008A3E8000844
:10007000A3E80008A3E80008A3E80008A3E8000834
:10008000A5D6000805D70008A3E80008A3E80008E3
:10009000A3E80008A3E80008A3E80008A3E8000814
:1000A000A3E80008A3E80008A3E80008A3E8000804
:1000B0003DAA0008C1A90008230F0008A3E8000812
:1000C000A3E80008A3E80008A3E80008A3E80008E4
:1000D000A3E80008750B00080F0B0008A3E8000850
:1000E000E7DB0008A3E80008A3E80008A3E800088D
:1000F000A3E80008A3E80008A3E80008A3E80008B4
:10010000A3E80008A3E80008BDAA0008A3E80008C7
:10011000A3E80008A3E80008A3E80008A3E8000893
:10012000A3E80008A3E80008A3E80008A3E8000883
:1001300000F002F800F062F80AA090E8000C824497
:100140008344AAF10107DA4501D100F057F8AFF274
:10015000090EBAE80F0013F0010F18BFFB1A43F0A5
:1001600001031847AC220100CC2201000A444FF0E1
:10017000000C10F8013B13F0070408BF10F8014B06
:100180001D1108BF10F8015B641E05D010F8016B4B
:10019000641E01F8016BF9D113F0080F1EBF10F8AF
:1001A000014BAD1C0C1B09D16D1E58BF01F801CBD2
:1001B000FAD505E014F8016B01F8016B6D1EF9D555
:1001C0009142D6D37047000000230024002500266A
:1001D000103A28BF78C1FBD8520728BF30C148BFAA
:1001E0000B607047642910F06987732911F02F8024
:1001F000002070471FB51FBD10B510BD11F030F8BD
:100200001146FFF7F7FF09F0E8F811F04EF803B4D4
:10021000FFF7F2FF03BC0EF085FA00000CB50020DA
:10022000019000906C48006840F480306A49086092
:1002300000BF6948006800F4003000900198401C3D
:100240000190009818B90198B0F5A06FF1D16248FB
:10025000006800F4003010B10120009001E000209F
:1002600000900098012843D15C48006840F01000DD
:100270005A4908600846006820F0030008600846F4
:10028000006840F0020008605348406852494860E6
:100290000846406848600846406840F4806048600E
:1002A0000846406820F47C1048600846406840F4E6
:1002B000E81048600846006840F08070086000BFA1
:1002C0004548006800F000700028F9D042484068B6
:1002D00020F00300404948600846406840F00200B2
:1002E000486000BF3C48406800F00C000828F9D185
:1002F0000CBD10B5FFF792FF10BD10B53648006871
:1003000040F001003449086008464068344908401C
:100310003149486008460068324908402E49086063
:100320000846006820F4802008600846406820F4F1
:10033000FE0048604FF41F008860FFF7DAFF4FF0BF
:1003400000602949086010BD10B50021002000227E
:10035000214B5B6803F00C0121B1042906D0082968
:1003600028D107E0214B224C236027E01F4B204C73
:10037000236023E0184B5B6803F47010164B5B6836
:1003800003F48032022303EB904022B9194B43431C
:10039000174C23600DE0104B5B6803F4003323B16E
:1003A000144B4343124C236003E0104B4343104C67
:1003B000236003E00D4B0E4C236000BF00BF064BD3
:1003C0005B68C3F303130C4CE15C094B1B68CB4027
:1003D000074C236010BD00000010024000200240C6
:1003E0000000FFF8FFFFF6FE08ED00E000127A00C3
:1003F0000000002000093D000400002070B5024606
:100400000C46FF25FF2309E012F8010B80EA0501E5
:10041000FA48405C80EA0305F948435C201EA4F1D9
:100420000106F4B2F0D143EA052070BD10B50120F9
:10043000F4490870F4480EF007FFF4490870F448D6
:100440000078012856D00021F2480FF05FFC00210F
:10045000F0480FF0EFFEF0480078A0B1EB480078CC
:10046000EE49097888420ED10020ED490870ED4927
:10047000087008460078401C0870E4480078EA4993
:10048000E84A12788854E448007860BBE448007871
:1004900048BBE4480078642813DADC480178E24A73
:1004A000E0480078401C1154DE480078401CDD49CB
:1004B000087008460078082815DB084600780870A0
:1004C00011E00120D6490870D1490870D54800785C
:1004D000D5490870D54800688078D5490968887082
:1004E0000020D04908700020CB4908700121C9487C
:1004F0000FF00CFC10BD10B50120C2490870CD49A9
:100500000870CD480EF0A0FEC0490870C0480078C1
:10051000012856D00021BF480FF0F8FB0021BD484C
:100520000FF088FEBC480078A0B1B8480078BB49FD
:10053000097888420ED10020B9490870B94908707D
:1005400008460078401C0870B0480078B649B54AA3
:1005500012788854B048007860BBB148007848BB36
:10056000B0480078642813DAA8480178AE4AAD484C
:100570000078401C1154AB480078401CA949087011
:1005800008460078082815DB08460078087011E056
:100590000120A34908709E490870A2480078A2492A
:1005A0000870A24800688078A14909688870002016
:1005B0009C490870002098490870012195480FF067
:1005C000A5FB10BD10B59A4800689C490978405CAD
:1005D0009B490870084601788B480EF031FE974819
:1005E0000078401C954908709148006800780978A7
:1005F000884210DA0020864908708D490968087021
:100600008849087001208D490870002240F2266157
:100610007D480EF0B4FD10BD70B500257F48007810
:100620008849087003204870874800788870874997
:100630008748006811F030FD064611F091FC000A71
:100640008049C87081498248006811F025FD06463E
:1006500011F086FC7B4908717E48006811F080FC2F
:100660000121B1EBE03F07D17A4801684FF08F409C
:1006700011F01AFE7749086074497648006811F055
:100680000BFD064611F06CFC000A6E4948716F497B
:100690007048006811F000FD064611F061FC6949E0
:1006A000887169480088051F04E00021A81D654A7B
:1006B00011546D1E002DF8DC63480078C01CC1B2D7
:1006C0006048FFF79BFE044621125E4A5E480088A0
:1006D000C01C11545C480088001D14545A4800780E
:1006E000401D5D49087010465C490860012240F2D7
:1006F000277145480EF043FD70BD70B50025474891
:10070000007850490870032048704F48007888707E
:100710005048006811F024FC0121B1EBE03F07D103
:100720004C4801684FF08F4011F0BEFD4949086008
:1007300046494848006811F0AFFC064611F010FC2D
:10074000000A4049C87041494248006811F0A4FCC1
:10075000064611F005FC3B4908713B480088851EA0
:1007600004E00021281D374A11546D1E002DF8DCCD
:1007700035480078C01CC1B23248FFF73FFE04463E
:100780002112304A30480088C01C11542E4800887D
:10079000001D14542C480078401D2F490870104645
:1007A0002E490860012240F2277117480EF0E7FC3D
:1007B00070BD70B5002519480078224908700320E3
:1007C000487021480078887020492148006811F05D
:1007D00063FC064611F0C4FB000A1A49C8701B49A5
:1007E0001B48006811F058FC064611F0B9FB15498A
:1007F000087115480088851E37E000003E00002083
:100800003E0100203500002000440040260000206A
:100810003400002000080040220000209402002044
:100820002300002029000020C40400202C00002008
:100830003000002037000020003801402A0000204E
:1008400027000020C10700201E00002000002041DA
:10085000800300207C0300206C020020680200203E
:100860000021281DFD4A11546D1E002DF8DCFC48A6
:100870000078C01CC1B2F948FFF7C0FD0446211240
:10088000F64AF7480088C01C1154F5480088001D3E
:100890001454F3480078401DF24908701046F2499C
:1008A0000860012240F22771F0480EF068FC70BD2C
:1008B00010B50220EE490870EE4800884FF6FA7134
:1008C000884205DAEC48007810B900200DF00FF8E6
:1008D000E84800884FF6FA71884203DAE648007863
:1008E00001280ED101200DF002F80120E249087024
:1008F000E04800884FF6FA71884202DB3220DD4979
:1009000008800A20DD49088008460288DC49D94869
:1009100000880CF0C9FFDB480078D0490870D8483F
:1009200000784870D64840788870D5488078C8707C
:10093000D348C0780871D24800794871D0484079CE
:100940008871CF488079C871CD48C0790872CC4889
:10095000007A4872CA48407A88720B20C1490870F0
:10096000C44800880A30C3490880084600880A2124
:1009700090FBF1F0C449098888420BDD3220BD4963
:1009800008800020C14908703220C1490880002039
:10099000C0490870B148B4490860012240F227718B
:1009A000B2480EF0ECFB10BD70B50025BA480088C7
:1009B000B5490880B3480078A849087003204870FA
:1009C00002208870B0480088000AC870AE480078DD
:1009D00008710521A148FFF711FD044620129F4927
:1009E00048718C7107209F4908709C489E49086097
:1009F000012240F227719D480EF0C1FB70BD2DE928
:100A0000F04104460F460020A4490870A44800782D
:100A100000283BD12078401E255C4FF6FF7000EA8D
:100A200005252078205C05432078C01E205C8C4979
:100A30000880084600884FF6FF7101EA00208849C7
:100A400008802078801E205C098808434FF6FF71DB
:100A500001EA40008249088008460088202801DD1C
:100A6000202008802078801EC1B2601CFFF7C6FCE1
:100A7000064606218B48FFF7C1FC06462078801EFB
:100A8000C1B2601CFFF7BAFC064600E02E46AE423B
:100A900038D18348007808BBA07801281BD00328F0
:100AA0001AD1022180480EF01CF86D4800880428F5
:100AB00002D1FFF7B1FD0DE069480088022809D195
:100AC000207910B9FFF775FE04E02079012801D1E3
:100AD000FFF713FE01E000E000BF16E0E07840B150
:100AE00010280DD1022170480DF0FBFFFFF7E0FE4A
:100AF00007E002216C480DF0F4FFFFF755FF00E01E
:100B000000BF02E0002069490870BDE8F08110B51F
:100B100040F2244155480EF017FC01280DD15348EE
:100B20000EF092FB40F2244150480EF037FC0120B9
:100B30005F49087000205F49087040F225514B481A
:100B40000EF002FC012814D148480EF07DFB5A49F2
:100B5000087040F2255145480EF020FC56480078B8
:100B60005649544A1278885452480078401C5149DA
:100B7000087010BD70B586B000240226002500BFA5
:100B800004E0002003A90855601CC4B20A2CF8DB5D
:100B900040F225514A480EF0D7FB30B348480EF0DA
:100BA00053FB4849087048480078F0B90846007877
:100BB000232802D100204549087042480178434863
:100BC00002780078401C414B1870414881543D48E0
:100BD00000780A2809D118460078801E3C49085C34
:100BE0000D2802D1012038490870374800780128C3
:100BF0007CD100203449087035484078012876D1EE
:100C000034480088022805DB0DF035FC0221264817
:100C10000DF069FF2E4880782F4908702C48C07865
:100C20002E4908702A4800792D49087028484079D3
:100C30002C4908702648C179807901EB00202A49A7
:100C400008802348C179807901EB00202049497947
:100C50001F4A1279CDE90021029049E0C107002026
:100C60001E0000206C0200206802002000440040AA
:100C70003D03002020000020380000203C00002020
:100C800068060020940200203A0000203C03002067
:100C9000680300203B0300205C0200203500002098
:100CA00037000020C5040020000801403400002067
:100CB000440200204502002014000020900600207D
:100CC000003801403E0200203F0200204002002088
:100CD0007C0600205002002047020020480200202D
:100CE000490200204A0200204C02002017E109E0DE
:100CF000B148C3788278B1A1BA4810F06DF90120EB
:100D0000B9490870AC484078022866D123208DF894
:100D10000C0002208DF80D000D208DF814000A2023
:100D20008DF8150013241DE0AE48005D2E280FD06D
:100D3000AC48005D22280BD0AA48005D03A9895D5C
:100D400001EB810100EB4100303803A9885501E037
:100D5000701CC6B2A348005D2C2801D1264603E0D2
:100D6000601CC4B22A2CDFDD00BF701CC4B20FE0CF
:100D70009C48005D0D2808D09A48005D05EB850170
:100D800000EB4100303885B200E003E0601CC4B2E3
:100D90002A2CEDDD00BF2846E91705EB1161090A91
:100DA0008DF81210E91705EB11610912A5EB01216D
:100DB000C9B28DF8131000240DE003A8015D8B4823
:100DC0000EF03EFA00BF802188480EF0A7FA0028F6
:100DD000F9D0601CC4B20A2CEFDB774840780328B6
:100DE00020D183480088022805DB0DF044FB022156
:100DF00080480DF078FE7048C178807801EB0020C3
:100E00007D490860084600887C49088000207849B0
:100E100008807B4908807B4908807B490870012055
:100E20007149087064484078042826D123208DF841
:100E30000C0004208DF80D006F480088000A8DF822
:100E40000E006D4800788DF80F000D208DF8100011
:100E50000A208DF8110000240DE003A8015D63480D
:100E60000EF0EEF900BF802160480EF057FA00281E
:100E7000F9D0601CC4B2062CEFDB4F48407805283F
:100E800024D102215B480DF02CFE4FF4FA700DF0D6
:100E90001CFC002406E04849A01C085C5B4908557E
:100EA000601CC4B25A480078001FA042F3DC002046
:100EB00056490855574B0A4657A15D4810F08CF823
:100EC0000DF0B5FA02214B480DF00DFE3A4840787E
:100ED000062824D1022147480DF003FE4FF4FA7092
:100EE0000DF0F3FB002406E03349A01C085C4949DF
:100EF0000855601CC4B246480078001FA042F3DCCD
:100F00000020444908550B46404A43A1484810F088
:100F100063F80DF08CFA022136480DF0E4FD06B0BE
:100F200070BD10B5012143480FF0B9F9002834D045
:100F300001204149087000213E480EF0E7FE0021E3
:100F40003C480FF077F901203C4908703C48007894
:100F50003C4908703C480078D8B1394800780428EA
:100F600017DD01203949087036480079222803D05E
:100F70003448C078102803D101203549087002E0B8
:100F80000020334908703348016833480068FFF790
:100F900036FD012127480FF093F910BD704700BFBF
:100FA000FEE700BFFEE700BFFEE700BFFEE77047B9
:100FB00070477047704700007C06002041542B4367
:100FC000495053544152543D22544350222C22251F
:100FD000642E25642E25642E2564222C25640D0A9A
:100FE000000000006C0A00201C00002000380140B6
:100FF0005002002000080140180000205402002088
:10100000EC030020EE030020520200209C0400208C
:1010100040020020B004002041542B43574A415065
:101020003D222573222C222573220D0A0000000088
:101030005A04002000080040220000202300002065
:1010400029000020C40400203500002034000020C6
:1010500037000020300000202C000020002100E09C
:10106000491C8142FCD3704710B5642910D230224C
:1010700002700A22B1FBF2F2303242702E2242702C
:101080000A22B1FBF2F302FB13123032827021E02C
:1010900064291FD3B1F57A7F1CD26422B1FBF2F22E
:1010A000303202706422B1FBF2F302FB13120A2306
:1010B000B2FBF3F2303242702E2282706422B1FB16
:1010C000F2F302FB13120A23B2FBF3F403FB142224
:1010D0003032C27010BD3EB50924F94804800120A9
:1010E0000CF005FC2246F74900200CF0DDFB6420E3
:1010F0000DF0EBFAF3480078F3490870F1484078B6
:10110000F2490870EF488078F1490870ED48C078DE
:10111000F0490870EB484179007901EB0020EE4975
:10112000088008460088EB490978E94A1278CDE939
:1011300000210290E5480378E3480278E7A1F148EE
:101140000FF04AFFDF488079EF490870DD48017AE7
:10115000C07901EB0020ED49086008460068EC49C1
:1011600008603EBD10B5D6480480D7480078E949EC
:101170000870D64800784870D54800788870D548FF
:101180000078C870D4490888C11700EB1161090ABA
:10119000E04A1171D0490888C11700EB11610912AA
:1011A000A0EB01215171D848007811468871D748C9
:1011B0000088000AC871D548007808720924012007
:1011C0000CF095FB2246D34900200CF07EFB6420F6
:1011D0000DF07BFA10BD10B53224B9480480002010
:1011E0000CF085FB2246B74900200CF05DFB642023
:1011F0000DF06BFAB3480078C7490870B1484078E1
:10120000C6490860C648096850F82100C549086009
:10121000AC488078C4490860AA48C078C3490860CF
:1012200008460068502804DD08460068A0F5807074
:101230000860A4480079BE49086008460068502844
:1012400004DD08460068A0F5807008609D4840797C
:10125000B84908609B488079B74908609948C079C7
:10126000B64908609748007AB54908609548407AC1
:10127000B44908609348807AB34908609148C07ABD
:10128000B24908608F48007BB14908608D48407BB7
:10129000B04908608B48807BAF4908608948C07BB3
:1012A000AE4908808748007C097800EB0120AB49F3
:1012B00008808448407CAA4908708248807CA949FB
:1012C00008608048C07CA84908607E48007DA74926
:1012D000086008460068502804DD08460068A0F54C
:1012E000807008607748407DA14908600846006822
:1012F000502804DD08460068A0F580700860714839
:10130000807D9C4908606F48C07D9B4908606D489E
:10131000007E9A49086008460068642804DD084693
:101320000068A0F5807008606648407E94490860B7
:1013300008460068642804DD08460068A0F580704F
:1013400008606048807E18B15E48807EFF2812D118
:101350005C48C07E18B15B48C07EFF280BD159485D
:10136000007F18B15748007FFF2804D14FF4C870A0
:101370008449086011E05348807E5249C97E01EBE0
:10138000810100EB41004F49097F01EBC10202EBF3
:10139000011100EB81007B4908604A48407F18B189
:1013A0004848407FFF281BD14648807F18B14548F8
:1013B000807FFF2814D14348C07F18B14148C07FC7
:1013C000FF280DD13F4890F8200020B13D4890F80B
:1013D0002000FF2804D14FF4FA606B49086014E044
:1013E0003848407F3749897F0A2202FB010035498E
:1013F000C97F642202FB0100324991F820104FF4AA
:101400007A7202FB0100604908602E4890F82100C2
:1014100020B12C4890F82100FF2816D1294890F8D7
:10142000220020B1274890F82200FF280DD125483E
:1014300090F8230020B1234890F82300FF2804D11E
:101440004FF4C8705149086010E01E4890F8210020
:101450001C4991F822100A2202FB0100194991F857
:101460002310642202FB010048490860154890F8E7
:10147000240020B1134890F82400FF281FD1114800
:1014800090F8250020B10F4890F82500FF2816D1CC
:101490000C4890F8260020B10A4890F82600FF2852
:1014A00078D1084890F8270020B1064890F8270026
:1014B000FF286FD14FF4FA603549086082E069E097
:1014C00038030020250800204702002048020020A1
:1014D000490200204A0200204C02002041542B43C4
:1014E000495053544152543D22544350222C2225FA
:1014F000642E25642E25642E2564222C25640D0A75
:10150000000000006C0A00204602002018000020A5
:1015100054020020F3070020940200209C020020C7
:10152000A002002098020020B4020020B80200208F
:10153000BC020020C8020020CC020020D002002003
:10154000D4020020D8020020DC020020E0020020AB
:10155000E4020020E8020020EC02002068030020E2
:101560003B030020F80200200003002008030020B5
:10157000100300201803002020030020280300206F
:10158000300300208C0300209003002094030020EF
:1015900098030020FE4890F82400FD4991F825109A
:1015A0000A2202FB0100FA4991F82610642202FB8C
:1015B0000100F74991F827104FF47A7202FB0100FD
:1015C000F4490860F24890F8280020B1F04890F8FB
:1015D0002800FF281FD1EE4890F8290020B1EC48E0
:1015E00090F82900FF2816D1E94890F82A0020B188
:1015F000E74890F82A00FF280DD1E54890F82B0025
:1016000020B1E34890F82B00FF2804D14FF4FA6092
:10161000E149086017E0DE4890F82800DC4991F8BD
:1016200029100A2202FB0100D94991F82A106422EC
:1016300002FB0100D64991F82B104FF47A7202FB9D
:101640000100D5490860D24890F82C0020B1D0485C
:1016500090F82C00FF281FD1CD4890F82D0020B124
:10166000CB4890F82D00FF2816D1C94890F82E00DD
:1016700020B1C74890F82E00FF280DD1C44890F83B
:101680002F0020B1C24890F82F00FF2804D14FF45A
:10169000FA60C249086017E0BD4890F82C00BC49C8
:1016A00091F82D100A2202FB0100B94991F82E1081
:1016B000642202FB0100B64991F82F104FF47A72B0
:1016C00002FB0100B5490860FFF705FD10BD10B52C
:1016D000B3480480B3480078B3490870B348007831
:1016E0004870B34800788870B2480078C870B24833
:1016F00000780871B14800784871B1480078887165
:10170000B0480078C871B04800780872AF480078D7
:101710004872AF4800788872AE480078C872AE4808
:1017200000780873AD4800784873AD480078887336
:10173000AC480088000AC873AA4800780874AA4810
:1017400000784874A94800788874A9480078C8745B
:10175000A84800780875A84800784875A748007818
:101760008875A7480078C875A64800780876A64806
:1017700000784876A5480068642190FBF1F201FBEF
:1017800012000A2190FBF1F201FB120086498876D3
:101790009E480068642190FBF1F201FB12000A21CF
:1017A00090FBF1F08049C87698480068642190FB6E
:1017B000F1F07D490877964800684FF47A7190FB04
:1017C000F1F201FB1200642190FBF1F201FB120027
:1017D0000A2190FBF1F201FB1200734948778C4813
:1017E00000684FF47A7190FBF1F201FB1200642162
:1017F00090FBF1F201FB12000A2190FBF1F06A4923
:101800008877834800684FF47A7190FBF1F201FB0E
:101810001200642190FBF1F06349C8777C480068AE
:101820004FF47A7190FBF1F05F4981F8200079481C
:101830000068642190FBF1F201FB12000A2190FB89
:10184000F1F201FB1200584981F82100714800684B
:10185000642190FBF1F201FB12000A2190FBF1F0F0
:10186000514981F822006B480068642190FBF1F037
:101870004D4981F82300474800684FF47A7190FB86
:10188000F1F201FB1200642190FBF1F201FB120066
:101890000A2190FBF1F201FB1200434981F8240078
:1018A0003C4800684FF47A7190FBF1F201FB1200A2
:1018B000642190FBF1F201FB12000A2190FBF1F090
:1018C000394981F82500334800684FF47A7190FB5C
:1018D000F1F201FB1200642190FBF1F0324981F832
:1018E00026002C4800684FF47A7190FBF1F02E49E5
:1018F00081F82700284800684FF47A7190FBF1F2D4
:1019000001FB1200642190FBF1F201FB12000A219D
:1019100090FBF1F201FB1200234981F828001E48D8
:1019200000684FF47A7190FBF1F201FB1200642120
:1019300090FBF1F201FB12000A2190FBF1F01A4931
:1019400081F82900144800684FF47A7190FBF1F295
:1019500001FB1200642190FBF1F0134981F82A0089
:101960000D4800684FF47A7190FBF1F00E4981F850
:101970002B000A4800684FF47A7190FBF1F201FBEA
:101980001200642190FBF1F201FB12000A2143E0F6
:1019900025080020980300209C030020A0030020BD
:1019A0003803002094020020F30700209C0200204E
:1019B000B4020020B8020020BC020020C8020020AF
:1019C000CC020020D0020020D4020020D802002047
:1019D000DC020020E0020020E4020020E8020020F7
:1019E000EC020020680300203B030020F8020020E6
:1019F000000300200803002010030020180300202B
:101A00002003002028030020300300208C03002046
:101A1000900300209403002090FBF1F201FB1200E0
:101A2000FE4981F82C00FE4800684FF47A7190FB63
:101A3000F1F201FB1200642190FBF1F201FB1200B4
:101A40000A2190FBF1F0F54981F82D00F448006877
:101A50004FF47A7190FBF1F201FB1200642190FBCC
:101A6000F1F0EE4981F82E00ED4800684FF47A71EC
:101A700090FBF1F0E94981F82F00322400200BF0AF
:101A800036FF2246E54900200BF01FFF64200CF0D2
:101A90001CFEFFF767FB10BD08B5012114200DF0F7
:101AA0002FFA4FF48060ADF8000010208DF803008D
:101AB00003208DF802006946DA480CF065FF4FF408
:101AC0008061D8480DF00DF80220ADF8000010201C
:101AD0008DF8030003208DF802006946D2480CF00F
:101AE00053FF0221D0480CF0FCFF2020ADF800008D
:101AF0006946CD480CF048FF2021CB480CF0F3FF9D
:101B00001020ADF800006946C7480CF03DFF1021D9
:101B1000C5480CF0E6FF08BD08B5012104200DF012
:101B2000EFF94020ADF8000010208DF803000320ED
:101B30008DF802006946BC480CF026FF08BD10B5C0
:101B400004464021B8480CF0CCFFA0B20CF0BDFD1B
:101B50004021B5480CF0C7FF10BD03B581B000218E
:101B60004FF080400EF0D2F801981A2882F00E82D1
:101B7000DFE810F01A001C00D900A50122023D0385
:101B8000A1094D041605810A680E720FE50540068D
:101B9000BB064807DB078A083909530B230CE20C04
:101BA000A90D8310A311F61102F0F0B90AF01FFA83
:101BB0000021084609F073FF01220821022009F0E4
:101BC00013FF0121022009F052FF0121042009F036
:101BD0004EFF0AF0C3F995480078642190FBF1F2BA
:101BE00001FB12000A2190FBF1F201FB1200C0B2CE
:101BF000014600901A2009F068FF8C4800786421A3
:101C000090FBF1F201FB12000A2190FBF1F0C0B24F
:101C1000014600901C2009F058FF84480078642198
:101C200090FBF1F0C0B2014600901E2009F04DFF7C
:101C3000029810B1012874D13AE07C480078401E27
:101C40007A49087008460078012801DAFF200870F8
:101C50000AF084F975480078642190FBF1F201FBE9
:101C600012000A2190FBF1F201FB1200C0B2014602
:101C700000901A2009F029FF6C480078642190FB3D
:101C8000F1F201FB12000A2190FBF1F0C0B2014613
:101C900000901C2009F019FF64480078642190FB33
:101CA000F1F0C0B2014600901E2009F00EFF38E0AE
:101CB0005E480078401C5D49087008460078FF289F
:101CC00001DD0120087059480078642190FBF1F291
:101CD00001FB12000A2190FBF1F201FB1200C0B2DD
:101CE000014600901A2009F0F0FE50480078642167
:101CF00090FBF1F201FB12000A2190FBF1F0C0B25F
:101D0000014600901C2009F0E0FE4848007864215C
:101D100090FBF1F0C0B2014600901E2009F0D5FE04
:101D200000BF00BF40E70AF062F90221002009F07D
:101D3000B6FE01220821022009F056FE01220821E8
:101D4000022009F08FFD0121022009F0A8FE0221E6
:101D5000042009F08CFE0AF001F93548006864217E
:101D6000B0FBF1F201FB12000A21B0FBF1F201FB22
:101D70001200014600901A2009F0A7FE2C480068C6
:101D80006421B0FBF1F201FB12000A21B0FBF1F07B
:101D9000014600901C2009F098FE25480068642147
:101DA000B0FBF1F0C0B2014600901E2009F08DFE9C
:101DB000029810B1012845D145E01D480068401E39
:101DC0001B4908600846006810B940F2E730086017
:101DD0000AF0C4F8164800686421B0FBF1F201FB78
:101DE00012000A21B0FBF1F201FB12000146009043
:101DF0001A2009F06AFE0E4800686421B0FBF1F277
:101E000001FB12000A21B0FBF1F0014600901C20FA
:101E100009F05BFE0648006864210BE0F307002030
:101E2000A0030020001001400008014046020020ED
:101E300018000020B0FBF1F0C0B2014600901E2057
:101E400009F043FE39E0FE480068401CFC49086088
:101E500008460068B0F57A7F01D3012008600AF0D7
:101E60007DF8F74800686421B0FBF1F201FB120035
:101E70000A21B0FBF1F201FB1200014600901A208A
:101E800009F023FEEE4800686421B0FBF1F201FB8B
:101E900012000A21B0FBF1F0014600901C2009F06D
:101EA00014FEE74800686421B0FBF1F0C0B20146BF
:101EB00000901E2009F009FE00BF00BF74E60AF082
:101EC00096F80821002009F0EAFD012208210220ED
:101ED00009F08AFD0721022009F0E1FD0321042019
:101EE00009F0C5FDD748006801280AD10AF036F884
:101EF0000A211A2009F0FFFD00211C2009F0E5FD50
:101F00000DE00AF02BF805211A2009F0F4FD052157
:101F10001C2009F0F0FD00211E2009F0D6FD0298DA
:101F200010B1012846D122E0C648006868B90120F6
:101F3000C44908600AF012F80A211A2009F0DBFDF2
:101F400000211C2009F0C1FD10E00020BD490860FF
:101F50000AF004F805211A2009F0CDFD05211C2006
:101F600009F0C9FD00211E2009F0AFFD22E0B548AF
:101F7000006868B90120B349086009F0EFFF0A2141
:101F80001A2009F0B8FD00211C2009F09EFD10E088
:101F90000020AC49086009F0E1FF05211A2009F092
:101FA000AAFD05211C2009F0A6FD00211E2009F034
:101FB0008CFD00BF00BFF7E50AF019F80B210020E7
:101FC00009F06DFD01220821022009F00DFD032119
:101FD000022009F064FD0421084609F048FD0121B2
:101FE000172009F0C6FD09F0B9FF974800680028DE
:101FF0000ADA01220821072009F0F6FC924800685D
:1020000040429249086008E08F4800688F490860A4
:1020100000220821072009F0E7FC00211A2009F01E
:1020200054FD012211461C2009F0DEFC874800689F
:102030000A2190FBF1F201FB1200C0B201460090B0
:102040001C2009F07EFD814800680A2190FBF1F018
:10205000C0B2014600901E2009F037FD029810B171
:1020600001287AD17AE07A4800687749096888427D
:102070002BDB09F073FF7448006800280ADA01229C
:102080000821072009F0B0FC6F48006840426F4902
:10209000086008E06C4800686C490860002208216C
:1020A000072009F0A1FC00220821072009F09CFC70
:1020B00008211A2009F01FFD08211C2009F01BFD32
:1020C00006211E2009F017FD47E05F480068401E0A
:1020D0005D4908600846006810F1280F02DA6FF0C9
:1020E0002700086009F03AFF5748006800280ADA1C
:1020F00001220821072009F077FC5348006840427C
:102100005249086008E050480068504908600022C1
:102110000821072009F068FC00211A2009F0D5FCED
:10212000012211461C2009F05FFC484800680A2182
:1021300090FBF1F201FB1200C0B2014600901C209E
:1021400009F0FFFC414800680A2190FBF1F0C0B2A1
:10215000014600901E2009F0B8FC46E03A480068AD
:10216000401C3949086008460068502801DD5020AD
:10217000086009F0F3FE3448006800280ADA0122FA
:102180000821072009F030FC2F48006840422F4901
:10219000086008E02C4800682C49086000220821EB
:1021A000072009F021FC00211A2009F08EFC0122F1
:1021B00011461C2009F018FC244800680A2190FBF5
:1021C000F1F201FB1200C0B2014600901C2009F0A0
:1021D000B8FC1E4800680A2190FBF1F0C0B201462D
:1021E00000901E2009F071FC00BF00BFDCE409F084
:1021F000FEFE0421002009F052FC012208210220E9
:1022000009F0F2FB0321022009F049FC04210846F1
:1022100009F02DFC0121172009F0ABFC09F09EFE0E
:102220000B480068002817DA01220821072009F06E
:10223000DBFB0748006840420649086015E00000E3
:1022400018000020B4020020B8020020C4020020C0
:10225000BC020020C0020020FE480068FE49086061
:1022600000220821072009F0BFFB00211A2009F0F5
:102270002CFC012211461C2009F0B6FBF648006830
:102280000A2190FBF1F201FB1200C0B2014600905E
:102290001C2009F056FCF04800680A2190FBF1F080
:1022A000C0B2014600901E2009F00FFC029810B148
:1022B000012848D148E0E7480068401EE549086029
:1022C0000846006810F1280F02DA6FF02700086056
:1022D00009F044FEDF48006800280ADA01220821DC
:1022E000072009F081FBDB4800684042DA490860BA
:1022F00008E0D8480068D849086000220821072073
:1023000009F072FB00211A2009F0DFFB01221146BF
:102310001C2009F069FBD04800680A2190FBF1F20B
:1023200001FB1200C0B2014600901C2009F009FC1C
:10233000C94800680A2190FBF1F0C0B20146009044
:102340001E2009F0C2FB60E0C2480068C34909686A
:10235000884213DB09F002FE00220821072009F061
:1023600043FB08211A2009F0C6FB08211C2009F0B4
:10237000C2FB06211E2009F0BEFB45E0B5480068FF
:10238000401CB449086008460068502801DD502010
:10239000086009F0E3FDAF48006800280ADA01226E
:1023A0000821072009F020FBAA4800684042AA49FA
:1023B000086008E0A7480068A749086000220821D3
:1023C000072009F011FB00211A2009F07EFB0122F1
:1023D00011461C2009F008FB9F4800680A2190FB69
:1023E000F1F201FB1200C0B2014600901C2009F07E
:1023F000A8FB994800680A2190FBF1F0C0B20146A1
:1024000000901E2009F061FB00BF00BF8AE400229B
:102410000821072009F0E8FA09F0E9FD0B21002066
:1024200009F03DFB01220821022009F0DDFA0B2111
:10243000022009F034FB0421084609F018FB09F0DA
:102440008DFD00220821072009F0CEFA00211A2074
:1024500009F077FB012211461C2009F0C5FA8048DB
:1024600000680A2190FBF1F201FB1200C0B20146A4
:1024700000901C2009F065FB794800680A2190FB58
:10248000F1F0C0B2014600901E2009F01EFB029838
:1024900010B101284DD14DE07148006871490968BB
:1024A000884213DC09F05AFD00220821072009F0B8
:1024B0009BFA08211A2009F01EFB08211C2009F0B4
:1024C0001AFB06211E2009F016FB32E06448006862
:1024D000401E6349086008460068002801DA0120B0
:1024E000086009F03BFD00220821072009F07CFA72
:1024F00000211A2009F025FB012211461C2009F0B9
:1025000073FA574800680A2190FBF1F201FB1200B0
:10251000C0B2014600901C2009F013FB504800682F
:102520000A2190FBF1F0C0B2014600901E2009F094
:10253000CCFA33E04A480068401C49490860084624
:102540000068632801DD6320086009F007FD0022B0
:102550000821072009F048FA00211A2009F0F1FAB1
:10256000012211461C2009F03FFA3D4800680A216B
:1025700090FBF1F201FB1200C0B2014600901C205A
:1025800009F0DFFA364800680A2190FBF1F0C0B28A
:10259000014600901E2009F098FA00BF00BF8DE4AC
:1025A00009F025FD0421002009F079FA0122082113
:1025B000022009F019FA0B21022009F070FA042117
:1025C000084609F054FA09F0C9FC00220821072046
:1025D00009F00AFA00211A2009F0B3FA0122114683
:1025E0001C2009F001FA1F4800680A2190FBF1F253
:1025F00001FB1200C0B2014600901C2009F0A1FAB4
:10260000184800680A2190FBF1F0C0B20146009022
:102610001E2009F05AFA029810B101283ED13EE07E
:1026200010480068401E0F490860084600680028EE
:1026300001DA0020086009F091FC0022082107203F
:1026400009F0D2F900211A2009F07BFA0122114683
:102650001C2009E0BC020020C0020020B8020020BB
:10266000C8020020CC02002009F0BEF9F84800683A
:102670000A2190FBF1F201FB1200C0B2014600906A
:102680001C2009F05EFAF24800680A2190FBF1F084
:10269000C0B2014600901E2009F017FA4DE0ED4847
:1026A0000068EB490968884213DC09F057FC0022F6
:1026B0000821072009F098F908211A2009F01BFACF
:1026C00008211C2009F017FA06211E2009F013FA30
:1026D00032E0DF480068401CDD49086008460068B9
:1026E000632801DD6320086009F038FC002208211E
:1026F000072009F079F900211A2009F022FA0122B5
:1027000011461C2009F070F9D14800680A2190FB9D
:10271000F1F201FB1200C0B2014600901C2009F04A
:1027200010FACB4800680A2190FBF1F0C0B20146D4
:1027300000901E2009F0C9F900BF00BF3BE409F07A
:1027400056FC0521002009F0AAF9012208210220E7
:1027500009F04AF90321022009F0A1F90621042019
:1027600009F085F90121172009F003FA09F0F6FBB9
:10277000B9480068012804D105211C2009F0BBF9E3
:1027800003E003211C2009F0B6F9029810B10128DA
:102790002ED116E0B048006848B90120AE49086063
:1027A00009F0DCFB05211C2009F0A5F908E0002058
:1027B000A949086009F0D2FB03211C2009F09BF90C
:1027C00016E0A548006848B90120A349086009F04F
:1027D000C5FB05211C2009F08EF908E000209E4968
:1027E000086009F0BBFB03211C2009F084F900BF3D
:1027F00000BFFBE409F0FBFB0821002009F04FF9C2
:1028000001220821022009F0EFF80521022009F039
:1028100046F90721042009F02AF909F09FFB8F48A7
:102820000068012808D10A211A2009F064F9002162
:102830001C2009F04AF90BE005211A2009F05BF988
:1028400005211C2009F057F900211E2009F03DF94F
:10285000029810B1012846D122E08048006868B98A
:1028600001207E49086009F079FB0A211A2009F04D
:1028700042F900211C2009F028F910E000207749D6
:10288000086009F06BFB05211A2009F034F90521D5
:102890001C2009F030F900211E2009F016F922E071
:1028A0006E48006868B901206C49086009F056FB61
:1028B0000A211A2009F01FF900211C2009F005F94E
:1028C00010E000206549086009F048FB05211A2046
:1028D00009F011F905211C2009F00DF900211E2035
:1028E00009F0F3F800BF00BF80E409F080FB01218C
:1028F000002009F0BCF801220821022009F074F838
:102900000321022009F0CBF80821042009F0AFF8D8
:1029100009F024FB5248006838B90A211A2009F04E
:10292000EAF800211C2009F0D0F84D480068012881
:102930000BD105211A2009F0DEF805211C2009F031
:10294000DAF800211E2009F0C0F8029810B1012821
:1029500056D12AE042480068401E414908600846B6
:102960000068002801DA012008603D48006848B985
:1029700009F0F4FA0A211A2009F0BDF800211C2000
:1029800009F0A3F83648006801280DD109F0E6FAED
:1029900005211A2009F0AFF805211C2009F0ABF839
:1029A00000211E2009F091F82AE02D480068401C03
:1029B0002B49086008460068012801DD00200860F6
:1029C0002748006848B909F0C9FA0A211A2009F015
:1029D00092F800211C2009F078F8214800680128AD
:1029E0000DD109F0BBFA05211A2009F084F8052160
:1029F0001C2009F080F800211E2009F066F800BFB5
:102A000000BF03E509F0F3FA0221002009F02FF8D6
:102A100001220821022008F0E7FF0321022009F02B
:102A20003EF80821042009F022F809F097FA0D4831
:102A30000068012818D103211A2009F05CF8092147
:102A40001C2009F058F803211E2009F054F817E063
:102A5000CC020020C8020020D0020020D4020020B6
:102A6000D8020020DC02002000211A2009F043F8DF
:102A700008211C2009F03FF800211E2009F025F84C
:102A8000029810B101284ED126E0F848006888B9B4
:102A90000120F649086009F061FA03211A2009F0C3
:102AA0002AF809211C2009F026F803211E2009F02C
:102AB00022F810E00020ED49086009F04FFA0021EB
:102AC0001A2009F018F808211C2009F014F8002138
:102AD0001E2008F0FAFF26E0E448006888B90120CB
:102AE000E249086009F03AFA03211A2009F003F8D4
:102AF00009211C2008F0FFFF03211E2008F0FBFF26
:102B000010E00020D949086009F028FA00211A20B5
:102B100008F0F1FF08211C2008F0EDFF00211E2025
:102B200008F0D3FF00BF00BF70E409F060FA032192
:102B3000002008F09CFF01220821022008F054FF29
:102B40000321022008F0ABFF0821042008F08FFFCA
:102B500009F004FAC64800680A2190FBF1F201FB73
:102B60001200C0B2014600901A2008F0AEFFC04823
:102B700000680A2190FBF1F090FBF1F201FB1200DA
:102B8000C0B2014600901C2008F09FFFB8480068C2
:102B9000642190FBF1F0C0B2014600901E2008F0C5
:102BA00094FF029810B101286CD135E0B04800685C
:102BB000401EAF49086008460068012802DA4FF459
:102BC0001670086009F0CAF9A94800680A2190FB4C
:102BD000F1F201FB1200C0B2014600901A2008F089
:102BE00074FFA34800680A2190FBF1F090FBF1F21A
:102BF00001FB1200C0B2014600901C2008F065FFE6
:102C00009B480068642190FBF1F0C0B2014600903F
:102C10001E2008F05AFF35E095480068401C944992
:102C2000086008460068B0F5167F01DD01200860E5
:102C300009F094F98E4800680A2190FBF1F201FB3B
:102C40001200C0B2014600901A2008F03EFF8848EA
:102C500000680A2190FBF1F090FBF1F201FB1200F9
:102C6000C0B2014600901C2008F02FFF8048006889
:102C7000642190FBF1F0C0B2014600901E2008F0E4
:102C800024FF00BF00BF8AE409F0B1F9042100204D
:102C900008F0EDFE01220821022008F0A5FE032124
:102CA000022008F0FCFE0821042008F0E0FE09F0F4
:102CB00055F9704800680A2190FBF1F201FB1200FF
:102CC000C0B2014600901A2008F0FFFE6948006873
:102CD0000A2190FBF1F090FBF1F201FB1200C0B26F
:102CE000014600901C2008F0F0FE62480068642154
:102CF00090FBF1F0C0B2014600901E2008F0E5FE06
:102D0000029810B101286CD135E05A480068401E85
:102D10005849086008460068012802DA4FF4167026
:102D2000086009F01BF9534800680A2190FBF1F292
:102D300001FB1200C0B2014600901A2008F0C5FE47
:102D40004C4800680A2190FBF1F090FBF1F201FB86
:102D50001200C0B2014600901C2008F0B6FE4548A3
:102D60000068642190FBF1F0C0B2014600901E2083
:102D700008F0ABFE35E03F480068401C3D49086064
:102D800008460068B0F5167F01DD0120086009F0F3
:102D9000E5F8384800680A2190FBF1F201FB1200C7
:102DA000C0B2014600901A2008F08FFE314800683A
:102DB0000A2190FBF1F090FBF1F201FB1200C0B28E
:102DC000014600901C2008F080FE2A48006864211B
:102DD00090FBF1F0C0B2014600901E2008F075FE95
:102DE00000BF00BFAAE409F002F90521002008F0A5
:102DF0003EFE01220821022008F0F6FD03210220F8
:102E000008F04DFE0821042008F031FE09F0A6F874
:102E1000194800680A2190FBF1F201FB1200C0B2D0
:102E2000014600901A2008F050FE029810B10128C7
:102E30003FD123E010480068401E0F490860084653
:102E40000068002801DA0120086009F087F80A48C4
:102E500000680A2190FBF1F201FB1200C0B20146AA
:102E600000901A2008F031FE23E00000DC02002070
:102E7000E0020020E4020020F4020020FE48006886
:102E8000401CFD49086008460068012801DD00205B
:102E9000086009F063F8F84800680A2190FBF1F235
:102EA00001FB1200C0B2014600901A2008F00DFE8E
:102EB00000BF00BF42E409F09AF800220821072071
:102EC00008F092FD002208210A2008F08DFD002163
:102ED000084608F0E4FD01220821022008F084FDE4
:102EE0000321022008F0DBFD0421084608F0BFFDA5
:102EF0000121172008F03DFE09F030F8DF48006896
:102F00000A2190FBF1F201FB1200C0B201460090D1
:102F10001A2008F0DAFD012211461C2008F064FD99
:102F2000D64800680A2190FBF1F090FBF1F201FB1A
:102F30001200C0B2014600901C2008F002FECF48EB
:102F40000068642190FBF1F0C0B2014600901E20A1
:102F500008F0BBFD029810B1012839D139E0C7480B
:102F60000068401EC549086008460068002801DA6C
:102F70000020086008F0F2FFC04800680A2190FBBA
:102F8000F1F201FB1200C0B2014600901A2008F0D5
:102F90009CFD012211461C2008F026FDB748006860
:102FA0000A2190FBF1F090FBF1F201FB1200C0B29C
:102FB000014600901C2008F0C4FDB0480068642160
:102FC00090FBF1F0C0B2014600901E2008F07DFD9C
:102FD0004FE0AA480068401CA8490860A84800685B
:102FE000A8490968401A032190FBF1F000EB80002A
:102FF000A2490968B1EB400F0CDDA1480068A14966
:103000000968401A032190FBF1F000EB80004000BA
:103010009A49086008F0A2FF984800680A2190FBCE
:10302000F1F201FB1200C0B2014600901A2008F034
:103030004CFD012211461C2008F0D6FC8F48006888
:103040000A2190FBF1F090FBF1F201FB1200C0B2FB
:10305000014600901C2008F074FD88480068642137
:1030600090FBF1F0C0B2014600901E2008F02DFD4B
:1030700000BF00BF38E408F0BAFF0021084608F09E
:103080000EFD01220821022008F0AEFC0B210220D7
:1030900008F005FD0421084608F0E9FC7A480068BC
:1030A0000A2190FBF1F201FB1200C0B2024601219D
:1030B00000901C2008F098FC08F050FF00211A2016
:1030C00008F03FFD704800680A2190FBF1F090FB8A
:1030D000F1F201FB1200C0B2014600901C2008F082
:1030E00030FD69480068642190FBF1F0C0B20146F0
:1030F00000901E2008F0E9FC029810B1012839D197
:1031000039E061480068401E5F4908600846006871
:10311000002801DA0020086008F020FF5A48006803
:103120000A2190FBF1F201FB1200C0B201460090AF
:103130001A2008F006FD012211461C2008F054FC5C
:10314000514800680A2190FBF1F090FBF1F201FB7D
:103150001200C0B2014600901C2008F0F2FC4A4860
:103160000068642190FBF1F0C0B2014600901E207F
:1031700008F0ABFC4FE044480068401C424908603E
:103180004248006842490968401A032190FBF1F067
:1031900000EB80003C490968B1EB400F0CDD3B4877
:1031A00000683B490968401A032190FBF1F000EBED
:1031B000800040003449086008F0D0FE32480068C2
:1031C0000A2190FBF1F201FB1200C0B2014600900F
:1031D0001A2008F0B6FC012211461C2008F004FC5D
:1031E000294800680A2190FBF1F090FBF1F201FB05
:1031F0001200C0B2014600901C2008F0A2FC224838
:103200000068642190FBF1F0C0B2014600901E20DE
:1032100008F05BFC00BF00BF86E408F0E8FE002178
:10322000084608F024FC01220821022008F0DCFBFB
:103230000321022008F033FC0921042008F017FCC8
:1032400008F08CFE13480078642190FBF1F201FB3A
:1032500012000A2190FBF1F201FB1200C0B20146FC
:1032600000901A2008F031FC0A480078642190FB95
:10327000F1F201FB12000FE0F4020020F80200203E
:10328000B8020020BC02002000030020C802002079
:10329000CC020020470200200A2190FBF1F0C0B2CE
:1032A000014600901C2008F010FCFE4800786421C4
:1032B00090FBF1F0C0B2014600901E2008F005FC22
:1032C000029810B1012876D13AE0F6480078401E05
:1032D000F449087008460078012801DAFF200870D8
:1032E00008F03CFEEF480078642190FBF1F201FB0E
:1032F00012000A2190FBF1F201FB1200C0B201465C
:1033000000901A2008F0E1FBE6480078642190FB69
:10331000F1F201FB12000A2190FBF1F0C0B201466C
:1033200000901C2008F0D1FBDE480078642190FB5F
:10333000F1F0C0B2014600901E2008F0C6FB3AE052
:10334000D8480078401CD749087008460078FF2804
:1033500001DD0120087008F001FED24800786421E8
:1033600090FBF1F201FB12000A2190FBF1F201FB4C
:103370001200C0B2014600901A2008F0A6FBC9480E
:103380000078642190FBF1F201FB12000A2190FB0E
:10339000F1F0C0B2014600901C2008F096FBC14835
:1033A0000078642190FBF1F0C0B2014600901E202D
:1033B00008F08BFB00BF00BF65E408F018FE012198
:1033C000002008F054FB01220821022008F00CFB29
:1033D0000321022008F063FB0921042008F047FBC9
:1033E00008F0BCFDB0480078642190FBF1F201FBCD
:1033F00012000A2190FBF1F201FB1200C0B201465B
:1034000000901A2008F061FBA7480078642190FB27
:10341000F1F201FB12000A2190FBF1F0C0B201466B
:1034200000901C2008F051FB9F480078642190FB1D
:10343000F1F0C0B2014600901E2008F046FB029851
:1034400010B1012876D13AE097480078401E96499D
:10345000087008460078012801DAFF20087008F09B
:103460007DFD91480078642190FBF1F201FB120090
:103470000A2190FBF1F201FB1200C0B2014600905C
:103480001A2008F022FB88480078642190FBF1F2B2
:1034900001FB12000A2190FBF1F0C0B2014600903E
:1034A0001C2008F012FB80480078642190FBF1F0AA
:1034B000C0B2014600901E2008F007FB3AE07A48AF
:1034C0000078401C7849087008460078FF2801DD24
:1034D0000120087008F042FD73480078642190FBD9
:1034E000F1F201FB12000A2190FBF1F201FB120044
:1034F000C0B2014600901A2008F0E7FA6A48007846
:10350000642190FBF1F201FB12000A2190FBF1F023
:10351000C0B2014600901C2008F0D7FA624800783B
:10352000642190FBF1F0C0B2014600901E2008F02B
:10353000CCFA00BF00BF55E408F059FD022100207D
:1035400008F095FA01220821022008F04DFA032123
:10355000022008F0A4FA0921042008F088FA08F0F3
:10356000FDFC52480078642190FBF1F201FB12004F
:103570000A2190FBF1F201FB1200C0B2014600905B
:103580001A2008F0A2FA49480078642190FBF1F271
:1035900001FB12000A2190FBF1F0C0B2014600903D
:1035A0001C2008F092FA41480078642190FBF1F069
:1035B000C0B2014600901E2008F087FA029810B1B0
:1035C00001287ED13AE039480078401E374908701A
:1035D00008460078012801DAFF20087008F0BEFCD8
:1035E00032480078642190FBF1F201FB12000A21BD
:1035F00090FBF1F201FB1200C0B2014600901A20CC
:1036000008F063FA29480078642190FBF1F201FB8D
:1036100012000A2190FBF1F0C0B2014600901C207C
:1036200008F053FA21480078642190FBF1F0C0B211
:10363000014600901E2008F048FA42E01B4800783E
:10364000401C1A49087008460078FF2801DD012057
:10365000087008F083FC15480078642190FBF1F2B3
:1036600001FB12000A2190FBF1F201FB1200C0B233
:10367000014600901A2008F028FA0C4800786421CE
:1036800090FBF1F201FB12000A2190FBF1F0C0B2B5
:10369000014600901C2008F018FA044800786421C4
:1036A00006E00000470200204802002049020020F6
:1036B00090FBF1F0C0B2014600901E2008F005FA20
:1036C00000BF00BFD8E208F092FC0321002008F000
:1036D000CEF901220821022008F086F903210220F8
:1036E00008F0DDF90921042008F0C1F908F036FCE2
:1036F000FE480078642190FBF1F201FB12000A21E0
:1037000090FBF1F201FB1200C0B2014600901A20BA
:1037100008F0DBF9F5480078642190FBF1F201FB39
:1037200012000A2190FBF1F0C0B2014600901C206B
:1037300008F0CBF9ED480078642190FBF1F0C0B2BD
:10374000014600901E2008F0C0F9029810B101282F
:1037500076D13AE0E5480078401EE4490870084612
:103760000078012801DAFF20087008F0F7FBDF4835
:103770000078642190FBF1F201FB12000A2190FB1A
:10378000F1F201FB1200C0B2014600901A2008F0CD
:103790009CF9D6480078642190FBF1F201FB1200FD
:1037A0000A2190FBF1F0C0B2014600901C2008F005
:1037B0008CF9CE480078642190FBF1F0C0B201464C
:1037C00000901E2008F081F93AE0C8480078401CBB
:1037D000C649087008460078FF2801DD01200870FE
:1037E00008F0BCFBC1480078642190FBF1F201FBBA
:1037F00012000A2190FBF1F201FB1200C0B2014657
:1038000000901A2008F061F9B8480078642190FB14
:10381000F1F201FB12000A2190FBF1F0C0B2014667
:1038200000901C2008F051F9B0480078642190FB0A
:10383000F1F0C0B2014600901E2008F046F900BF2A
:1038400000BFA3E308F0D3FB0021084608F00FF9FE
:1038500001220821022008F0C7F80321022008F005
:103860001EF90521042008F002F90121172008F0B3
:1038700080F908F073FB9E48006800280ADA0122EC
:103880000821072008F0B0F899480068404299499B
:10389000086008E096480068964908600022082100
:1038A000072008F0A1F8934800680A2190FBF1F284
:1038B00001FB1200C0B2014600901A2008F005F981
:1038C000012211461C2008F08FF88A4800680A215E
:1038D00090FBF1F090FBF1F201FB1200C0B2014647
:1038E00000901C2008F02DF982480068642190FBAC
:1038F000F1F0C0B2014600901E2008F0E6F80298F0
:1039000010B1012853D153E079480068401E78492E
:1039100008600846006810F1640F02DA6FF0630077
:1039200008607348006800280ADA0122082107208D
:1039300008F05AF86E48006840426E49086008E096
:103940006B4800686B49086000220821072008F0D6
:103950004BF808F003FB674800680A2190FBF1F27E
:1039600001FB1200C0B2014600901A2008F0ADF829
:10397000012211461C2008F037F85E4800680A2131
:1039800090FBF1F090FBF1F201FB1200C0B2014696
:1039900000901C2008F0D5F856480068642190FB80
:1039A000F1F0C0B2014600901E2008F08EF851E000
:1039B0004F480068401C4E4908600846006864286B
:1039C00001DD642008604A48006800280ADA012204
:1039D0000821072008F008F845480068404245499A
:1039E000086008E042480068424908600022082157
:1039F000072007F0F9FF08F0B1FA3E4800680A21F5
:103A000090FBF1F201FB1200C0B2014600901A20B7
:103A100008F05BF8012211461C2007F0E5FF35484D
:103A200000680A2190FBF1F090FBF1F201FB12001B
:103A3000C0B2014600901C2008F083F82D480068B1
:103A4000642190FBF1F0C0B2014600901E2008F006
:103A50003CF800BF00BF99E208F0C9FA002108460F
:103A600008F005F801220821022007F0BDFF0B2114
:103A7000022008F014F80521042007F0F8FF08F0F0
:103A80006DFA1D48006800280ADA01220821072083
:103A900007F0AAFF1848006840421849086008E08B
:103AA000154800681549086000220821072007F022
:103AB0009BFF124800680A2190FBF1F201FB120003
:103AC000C0B2014600901A2008F03BF801221146CE
:103AD0001C2007F089FF094800680A2190FBF1F0DB
:103AE00090FBF1F201FB1200C0B209E04A02002093
:103AF000280300202C030020300300203403002082
:103B0000014600901C2008F01CF8FB480068642166
:103B100090FBF1F0C0B2014600901E2007F0D5FFE7
:103B2000029810B1012853D153E0F4480068401EB8
:103B3000F24908600846006810F1640F02DA6FF07D
:103B400063000860ED48006800280ADA01220821B5
:103B5000072007F049FFE94800684042E64908604D
:103B600008E0E6480068E4490860002208210720D0
:103B700007F03AFF08F0F2F9DF4800680A2190FBED
:103B8000F1F201FB1200C0B2014600901A2007F0CA
:103B9000D8FF012211461C2007F026FFD6480068F6
:103BA0000A2190FBF1F090FBF1F201FB1200C0B290
:103BB000014600901C2007F0C4FFCF480068642134
:103BC00090FBF1F0C0B2014600901E2007F07DFF8F
:103BD00051E0CA480068401CC849086008460068AF
:103BE000642801DD64200860C448006800280ADAFF
:103BF00001220821072007F0F7FEC0480068404274
:103C0000BD49086008E0BD480068BB490860002263
:103C10000821072007F0E8FE08F0A0F9B648006880
:103C20000A2190FBF1F201FB1200C0B201460090A4
:103C30001A2007F086FF012211461C2007F0D4FE4F
:103C4000AD4800680A2190FBF1F090FBF1F201FB16
:103C50001200C0B2014600901C2007F072FFA64877
:103C60000068642190FBF1F0C0B2014600901E2074
:103C700007F02BFF00BF00BF88E108F0B8F904216E
:103C8000002007F0F4FE01220821022007F0ACFE1C
:103C90000321022007F003FF0921042007F0E7FEBB
:103CA00008F05CF908F0AFF99548008842F210710D
:103CB00090FBF1F0C0B2014600900B2007F09CFD94
:103CC0008F48008842F2107190FBF1F201FB120064
:103CD0004FF47A7190FBF1F0C0B2014600900D20D4
:103CE00007F08AFD864800884FF47A7190FBF1F264
:103CF00001FB1200642190FBF1F0C0B2014600907C
:103D00000F2007F079FD7E480088642190FBF1F2D6
:103D100001FB12000A2190FBF1F0C0B201460090B5
:103D2000112007F069FD764800880A2190FBF1F226
:103D300001FB1200C0B201460090132007F05CFDA9
:103D4000029810B101285AD15AE06D480088401EEF
:103D50006B49088008460088012802DA4FF6FF7098
:103D6000088008F050F96648008842F2107190FB14
:103D7000F1F0C0B2014600900B2007F03DFD604815
:103D8000008842F2107190FBF1F201FB12004FF437
:103D90007A7190FBF1F0C0B2014600900D2007F05F
:103DA0002BFD574800884FF47A7190FBF1F201FB2C
:103DB0001200642190FBF1F0C0B2014600900F2088
:103DC00007F01AFD4E480088642190FBF1F201FBD8
:103DD00012000A2190FBF1F0C0B2014600901120C0
:103DE00007F00AFD464800880A2190FBF1F201FB2A
:103DF0001200C0B201460090132007F0FDFC5AE00B
:103E00003F480088401C3E49088008460088B0F5BD
:103E1000803F01DB0120088008F0F5F83848008871
:103E200042F2107190FBF1F0C0B2014600900B20FD
:103E300007F0E2FC3248008842F2107190FBF1F288
:103E400001FB12004FF47A7190FBF1F0C0B2014611
:103E500000900D2007F0D0FC294800884FF47A71BB
:103E600090FBF1F201FB1200642190FBF1F0C0B273
:103E7000014600900F2007F0BFFC21480088642114
:103E800090FBF1F201FB12000A2190FBF1F0C0B2AD
:103E900001460090112007F0AFFC194800880A2164
:103EA00090FBF1F201FB1200C0B20146009013201A
:103EB00007F0A2FC00BF00BF68E008F098F80421FA
:103EC000002007F0ECFD0621022007F0E8FD0521A7
:103ED000042007F0CCFD08F096F808F03FF80948F8
:103EE0000078014600901A2007F0EFFD029858B1C3
:103EF000012833D11DE000003403002030030020EE
:103F00004C020020EC020020FE480068401EFD49E3
:103F1000086008460068012801DA0420086008F0FB
:103F20001DF8F8480078014600901A2007F0CDFDF2
:103F300014E0F4480068401CF24908600846006834
:103F4000042801DD0120086008F008F8ED48007839
:103F5000014600901A2007F0B8FD00BF00BF15E031
:103F600008F045F80621022007F081FD0121042018
:103F700007F07DFD07F0F2FF0120E3490860002013
:103F8000E24908600120E249086000BF00BF0EBDA1
:103F900003B583B003981A2882F02783DFE810F076
:103FA0001A001C00DB00D0014D024B03540409052C
:103FB000B90521069C062907B0076A08190978097E
:103FC000410AFD0A060C040DFC0D010F0B101E1119
:103FD000C7120F1302F009BB08F009F800210846C8
:103FE00007F05DFD01220821022007F0FDFC012100
:103FF000022007F03CFD0121042007F038FD07F006
:10400000ADFFC4480078642190FBF1F201FB12007F
:104010000A2190FBF1F201FB1200C0B201460290AE
:104020001A2007F052FDBB480078642190FBF1F2A2
:1040300001FB12000A2190FBF1F0C0B20146029090
:104040001C2007F042FDB3480078642190FBF1F09A
:10405000C0B2014602901E2007F037FD049810B14F
:10406000012876D13AE0AB480078401EA949087093
:1040700008460078012801DAFE20087007F06EFF7C
:10408000A4480078642190FBF1F201FB12000A21A0
:1040900090FBF1F201FB1200C0B2014602901A201F
:1040A00007F013FD9B480078642190FBF1F201FBBF
:1040B00012000A2190FBF1F0C0B2014602901C20D0
:1040C00007F003FD93480078642190FBF1F0C0B243
:1040D000014602901E2007F0F8FC3AE08D48007877
:1040E000401C8C49087008460078FE2801DD01203C
:1040F000087007F033FF87480078642190FBF1F2E5
:1041000001FB12000A2190FBF1F201FB1200C0B288
:10411000014602901A2007F0D8FC7E4800786421FE
:1041200090FBF1F201FB12000A2190FBF1F0C0B20A
:10413000014602901C2007F0C8FC764800786421F4
:1041400090FBF1F0C0B2014602901E2007F0BDFCCA
:1041500000BF00BF3EE707F04AFF0221002007F042
:104160009EFC01220821022007F03EFC01220821CA
:10417000022007F077FB0121022007F090FC0221CA
:10418000042007F074FC07F0E9FE634863490968FE
:1041900050F821006249086008460068642190FBDD
:1041A000F1F00A2190FBF1F201FB1200C0B20146CE
:1041B00002901A2007F089FC59480068642190FB9E
:1041C000F1F00A2190FBF1F090FBF1F201FB1200FB
:1041D000C0B2014602901C2007F077FC50480068EE
:1041E00042F2107190FBF1F0C0B2014602901E2025
:1041F00007F06BFC049810B1012846D146E047480F
:104200000068401E4549086008460068002801DA39
:104210000420086040484149096850F8210040499D
:104220000860084600680AF08CFA07F097FE3C48E0
:104230000068642190FBF1F00A2190FBF1F201FB90
:104240001200C0B2014602901A2007F03EFC34482A
:104250000068642190FBF1F00A2190FBF1F090FBE3
:10426000F1F201FB1200C0B2014602901C2007F0DF
:104270002CFC2B48006842F2107190FBF1F0C0B2A8
:10428000014602901E2007F020FC57E023480068FA
:10429000401C2249086008460068042801DD00200F
:1042A00008601D481D49096850F821001C49086034
:1042B000084600680AF045FA07F050FE1848006802
:1042C000642190FBF1F00A2190FBF1F201FB120056
:1042D000C0B2014602901A2007F0F7FB10480068B0
:1042E000642190FBF1F00A2190FBF1F090FBF1F2D8
:1042F00001FB1200C0B2014602901C2007F0E5FB52
:1043000007480FE0EC02002058030020440300207F
:104310006003002094020020A00200209C020020E4
:1043200098020020006842F2107190FBF1F0C0B2D8
:10433000014602901E2007F0C8FB00BF00BF49E6FF
:1043400007F055FE0821002007F0A9FB01220821F3
:10435000022007F049FB0721022007F0A0FB032100
:10436000042007F084FBFE48006801280AD107F00A
:10437000F5FD0A211A2007F0BEFB00211C2007F0E2
:10438000A4FB0DE007F0EAFD05211A2007F0B3FBBE
:1043900005211C2007F0AFFB00211E2007F095FB34
:1043A000049810B1012846D122E0ED48006868B9B0
:1043B0000120EB49086007F0D1FD0A211A2007F01F
:1043C0009AFB00211C2007F080FB10E00020E4494C
:1043D000086007F0C3FD05211A2007F08CFB0521BA
:1043E0001C2007F088FB00211E2007F06EFB22E056
:1043F000DB48006868B90120D949086007F0AEFDC4
:104400000A211A2007F077FB00211C2007F05DFB32
:1044100010E00020D249086007F0A0FD05211A2015
:1044200007F069FB05211C2007F065FB00211E2019
:1044300007F04BFB00BF00BFCCE507F0D8FD0B2118
:10444000002007F02CFB01220821022007F0CCFA03
:104450000321022007F023FB0421084607F007FB95
:104460000121172007F085FB07F078FDBD480068A3
:1044700000280ADA01220821072007F0B5FAB94816
:1044800000684042B849086008E0B6480068B6498C
:10449000086000220821072007F0A6FA00211A2050
:1044A00007F013FB012211461C2007F09DFAAE48CD
:1044B00000680A2190FBF1F201FB1200C0B2014634
:1044C00002901C2007F03DFBA74800680A2190FBE2
:1044D000F1F0C0B2014602901E2007F0F6FA0498EF
:1044E00010B1012875D175E0A04800689D490968A0
:1044F000884226DD07F032FD9A48006800280ADA73
:1045000001220821072007F06FFA96480068404210
:104510009549086008E093480068934908600022C4
:104520000821072007F060FA08211A2007F0E3FAB3
:1045300008211C2007F0DFFA06211E2007F0DBFA15
:1045400047E088480068401E8649086008460068C1
:1045500010F1280F02DA6FF02700086007F0FEFC68
:104560008048006800280ADA01220821072007F0A5
:104570003BFA7C48006840427B49086008E0794883
:1045800000687949086000220821072007F02CFA0A
:1045900000211A2007F099FA012211461C2007F089
:1045A00023FA714800680A2190FBF1F201FB120026
:1045B000C0B2014602901C2007F0C3FA6A480068A6
:1045C0000A2190FBF1F0C0B2014602901E2007F0D4
:1045D0007CFA2EE063480068401C62490860084687
:1045E0000068502801DD5020086007F0B7FC00216A
:1045F0001A2007F06AFA012211461C2007F0F4F98C
:10460000594800680A2190FBF1F201FB1200C0B288
:10461000014602901C2007F094FA534800680A21D2
:1046200090FBF1F0C0B2014602901E2007F04DFA57
:1046300000BF00BFCEE407F0DAFC0421002007F041
:104640002EFA01220821022007F0CEF903210220D0
:1046500007F025FA0521042007F009FA01211720A7
:1046600007F087FA07F07AFC4048006800280ADA69
:1046700001220821072007F0B7F93C4800684042B2
:104680003B49086008E03948006839490860002261
:104690000821072007F0A8F900211A2007F015FAD1
:1046A000012211461C2007F09FF9314800680A21B9
:1046B00090FBF1F201FB1200C0B2014602901C20F7
:1046C00007F03FFA2A4800680A2190FBF1F0C0B2D7
:1046D000014602901E2007F0F8F9049810B1012855
:1046E00053D153E021480068401E20490860084625
:1046F000006810F1280F02DA6FF02700086007F059
:104700002DFC1A48006800280ADA01220821072037
:1047100007F06AF91548006840421549086008E04A
:10472000124800681249086000220821072007F09B
:104730005BF900211A2007F0C8F9012211461C205C
:1047400007F052F90A4800680A2190FBF1F201FBD8
:104750001200C0B2014602901C2007F0F2F909E0F5
:10476000B4020020B8020020C4020020BC020020D5
:10477000C0020020F84800680A2190FBF1F0C0B2A6
:10478000014602901E2007F0A0F95BE0F3480068A4
:10479000F349096888420EDD07F0E0FB08211A2082
:1047A00007F0A9F908211C2007F0A5F906211E2011
:1047B00007F0A1F945E0E9480068401CE7490860B6
:1047C00008460068502801DD5020086007F0C6FB4D
:1047D000E248006800280ADA01220821072007F0D1
:1047E00003F9DE4800684042DB49086008E0DB4826
:1047F0000068D949086000220821072007F0F4F872
:1048000000211A2007F061F9012211461C2007F04F
:10481000EBF8D14800680A2190FBF1F201FB12008D
:10482000C0B2014602901C2007F08BF9CA4800680C
:104830000A2190FBF1F0C0B2014602901E2007F061
:1048400044F900BF00BF85E400220821072007F0DB
:10485000CBF807F0CCFB0B21002007F020F9012258
:104860000821022007F0C0F80B21022007F017F9F9
:104870000621042007F0FBF807F070FB00211A2046
:1048800007F05FF9012211461C2007F0ADF8B5488A
:1048900000680A2190FBF1F201FB1200C0B2014650
:1048A00002901C2007F04DF9AE4800680A2190FBE9
:1048B000F1F0C0B2014602901E2007F006F90498FC
:1048C00010B1012873D143E0A6480068A6490968E1
:1048D00088420EDA07F042FB08211A2007F00BF994
:1048E00008211C2007F007F906211E2007F003F914
:1048F0002DE09C480068401E9A4908600846006800
:10490000002801DA0120086007F028FB00211A20A6
:1049100007F017F9012211461C2007F065F89148AD
:1049200000680A2190FBF1F201FB1200C0B20146BF
:1049300002901C2007F005F98A4800680A2190FBC4
:10494000F1F0C0B2014602901E2007F0BEF82EE042
:1049500084480068401C8349086008460068632852
:1049600001DD6320086007F0F9FA00211A2007F042
:10497000E8F8012211461C2007F036F87948006853
:104980000A2190FBF1F201FB1200C0B20146029035
:104990001C2007F0D6F8734800680A2190FBF1F05C
:1049A000C0B2014602901E2007F08FF800BF00BF82
:1049B000C5E407F01CFB0421002007F070F8012279
:1049C0000821022007F010F80B21022007F067F8F9
:1049D0000721042007F04BF807F0C0FA00211A2045
:1049E00007F0AFF8012211461C2006F0FDFF5E48DB
:1049F00000680A2190FBF1F201FB1200C0B20146EF
:104A000002901C2007F09DF8574800680A2190FB8F
:104A1000F1F0C0B2014602901E2007F056F804984B
:104A200010B1012873D12EE04F480068401E4E4956
:104A3000086008460068002801DA0020086007F0D6
:104A40008DFA00211A2007F07CF8012211461C2063
:104A500006F0CAFF444800680A2190FBF1F201FB0E
:104A60001200C0B2014602901C2007F06AF83E48CE
:104A700000680A2190FBF1F0C0B2014602901E20AE
:104A800007F023F843E0374800683749096888424F
:104A90000EDA07F063FA08211A2007F02CF8082133
:104AA0001C2007F028F806211E2007F024F82DE02E
:104AB0002D480068401C2C4908600846006863289F
:104AC00001DD6320086007F049FA00211A2007F091
:104AD00038F8012211461C2006F086FF22480068A3
:104AE0000A2190FBF1F201FB1200C0B201460290D4
:104AF0001C2007F026F81C4800680A2190FBF1F002
:104B0000C0B2014602901E2006F0DFFF00BF00BFCA
:104B100015E407F06CFA0521002006F0C0FF012221
:104B20000821022006F060FF0321022006F0B7FFF3
:104B30000821042006F09BFF0121172007F019F837
:104B400007F00CFA09480068012811D105211C2042
:104B500006F0D1FF10E00000C0020020BC020020DF
:104B6000B8020020C8020020CC020020D0020020A1
:104B700003211C2006F0BFFF049810B101282ED19C
:104B800016E0FE48006848B90120FC49086007F0BB
:104B9000E5F905211C2006F0AEFF08E00020F749EA
:104BA000086007F0DBF903211C2006F0A4FF16E0E3
:104BB000F248006848B90120F049086007F0CEF9D2
:104BC00005211C2006F097FF08E00020EB49086053
:104BD00007F0C4F903211C2006F08DFF00BF00BFC1
:104BE0002AE407F004FA0821002006F058FF012209
:104BF0000821022006F0F8FE0521022006F04FFFF2
:104C00000921042006F033FF07F0A8F9DC4800680A
:104C1000012808D10A211A2006F06DFF00211C206E
:104C200006F053FF0BE005211A2006F064FF052172
:104C30001C2006F060FF00211E2006F046FF0498AD
:104C400010B1012846D122E0CD48006868B90120A2
:104C5000CB49086007F082F90A211A2006F04BFFC1
:104C600000211C2006F031FF10E00020C44908603C
:104C700007F074F905211A2006F03DFF05211C20DC
:104C800006F039FF00211E2006F01FFF22E0BC487D
:104C9000006868B90120BA49086007F05FF90A2185
:104CA0001A2006F028FF00211C2006F00EFF10E05D
:104CB0000020B349086007F051F905211A2006F0D9
:104CC0001AFF05211C2006F016FF00211E2006F009
:104CD000FCFE00BF00BFADE407F089F90121002010
:104CE00006F0C5FE01220821022006F07DFE00210B
:104CF000022006F0BCFE0321042006F0D0FE07F0DF
:104D00002DF9A048006838B90A211A2006F0F3FEF0
:104D100000211C2006F0D9FE9A48006801280BD11A
:104D200005211A2006F0E7FE05211C2006F0E3FE0F
:104D300000211E2006F0C9FE049810B1012856D1AA
:104D40002AE090480068401E8E49086008460068C6
:104D5000002801DA012008608A48006848B907F095
:104D6000FDF80A211A2006F0C6FE00211C2006F0DC
:104D7000ACFE8448006801280DD107F0EFF805214A
:104D80001A2006F0B8FE05211C2006F0B4FE002112
:104D90001E2006F09AFE2AE07A480068401C7949F5
:104DA000086008460068012801DD00200860754899
:104DB000006848B907F0D2F80A211A2006F09BFED5
:104DC00000211C2006F081FE6E48006801280DD1EC
:104DD00007F0C4F805211A2006F08DFE05211C20DD
:104DE00006F089FE00211E2006F06FFE00BF00BF06
:104DF00020E407F0FCF80221002006F038FE012232
:104E00000821022006F0F0FD0021022006F02FFE0E
:104E10000321042006F043FE07F0A0F85A4800687A
:104E200001280CD103211A2006F065FE09211C205F
:104E300006F061FE03211E2006F05DFE0BE000215E
:104E40001A2006F058FE08211C2006F054FE00210E
:104E50001E2006F03AFE049810B101284ED126E03B
:104E60004948006888B901204749086007F076F88A
:104E700003211A2006F03FFE09211C2006F03BFE0C
:104E800003211E2006F037FE10E000203E49086096
:104E900007F064F800211A2006F02DFE08211C20DE
:104EA00006F029FE00211E2006F00FFE26E03648FF
:104EB000006888B901203449086007F04FF80321E1
:104EC0001A2006F018FE09211C2006F014FE03210A
:104ED0001E2006F010FE10E000202B49086007F0AD
:104EE0003DF800211A2006F006FE08211C2006F0DD
:104EF00002FE00211E2006F0E8FD00BF00BFA2E474
:104F000007F075F80321002006F0B1FD0122082109
:104F1000022006F069FD0021022006F0A8FD032111
:104F2000042006F0BCFD07F019F8184800680A21B3
:104F300090FBF1F201FB1200C0B2014602901A2070
:104F400006F0C3FD114800680A2190FBF1F090FBC8
:104F5000F1F201FB1200C0B2014602901C2006F0E3
:104F6000B4FD0A480068642190FBF1F0C0B201462C
:104F700002901E2006F0A9FD049809E0D00200204E
:104F8000D4020020D8020020DC020020E002002031
:104F900010B101286CD135E0FE480068401EFD4983
:104FA000086008460068012802DA4FF416700860AD
:104FB00006F0D4FFF74800680A2190FBF1F201FBEC
:104FC0001200C0B2014602901A2006F07EFDF148A0
:104FD00000680A2190FBF1F090FBF1F201FB120056
:104FE000C0B2014602901C2006F06FFDE94800683F
:104FF000642190FBF1F0C0B2014602901E2006F041
:1050000064FD35E0E3480068401CE249086008465A
:105010000068B0F5167F01DD0120086006F09EFFF4
:10502000DC4800680A2190FBF1F201FB1200C0B2DB
:10503000014602901A2006F048FDD64800680A2171
:1050400090FBF1F090FBF1F201FB1200C0B20146BF
:1050500002901C2006F039FDCE480068642190FBC8
:10506000F1F0C0B2014602901E2006F02EFD00BFF6
:1050700000BF9DE406F0BBFF0421002006F0F7FC12
:1050800001220821022006F0AFFC0021022006F0D8
:10509000EEFC0321042006F002FD06F05FFFBE488F
:1050A00000680A2190FBF1F201FB1200C0B2014638
:1050B00002901A2006F009FDB74800680A2190FB0B
:1050C000F1F090FBF1F201FB1200C0B20146029038
:1050D0001C2006F0FAFCB0480068642190FBF1F057
:1050E000C0B2014602901E2006F0EFFC049810B1F9
:1050F00001286CD135E0A8480068401EA649086028
:1051000008460068012802DA4FF41670086006F0BD
:1051100025FFA14800680A2190FBF1F201FB120073
:10512000C0B2014602901A2006F0CFFC9A480068EF
:105130000A2190FBF1F090FBF1F201FB1200C0B2EA
:10514000014602901C2006F0C0FC934800686421D0
:1051500090FBF1F0C0B2014602901E2006F0B5FCB3
:1051600035E08D480068401C8B490860084600689F
:10517000B0F5167F01DD0120086006F0EFFE8648DD
:1051800000680A2190FBF1F201FB1200C0B2014657
:1051900002901A2006F099FC7F4800680A2190FBD3
:1051A000F1F090FBF1F201FB1200C0B20146029057
:1051B0001C2006F08AFC78480068642190FBF1F01E
:1051C000C0B2014602901E2006F07FFC00BF00BF67
:1051D0009EE406F00CFF0521002006F048FC0122A9
:1051E0000821022006F000FC0021022006F03FFC0E
:1051F0000321042006F053FC06F0B0FE6748006867
:105200000A2190FBF1F201FB1200C0B201460290AC
:105210001A2006F05AFC049810B1012836D11AE081
:105220005E480068401E5D49086008460068002826
:1052300001DA0120086006F091FE584800680A2152
:1052400090FBF1F201FB1200C0B2014602901A205D
:1052500006F03BFC1AE051480068401C4F490860CA
:1052600008460068012801DD0020086006F076FE8F
:105270004A4800680A2190FBF1F201FB1200C0B21B
:10528000014602901A2006F020FC00BF00BF3FE458
:1052900006F0ADFE0621002006F0E9FB0122082100
:1052A000022006F0A1FB0021022006F0E0FB032112
:1052B000042006F0F4FB0121172006F05AFC06F04A
:1052C0004DFE374800680A2190FBF1F201FB120005
:1052D000C0B2014602901A2006F0F7FB01221146E7
:1052E0001C2006F081FB2E4800680A2190FBF1F09B
:1052F00090FBF1F201FB1200C0B2014602901C20AB
:1053000006F01FFC26480068642190FBF1F0C0B253
:10531000014602901E2006F0D8FB049810B1012827
:105320007DD142E01E480068401E1D4908600846C5
:105330000068002801DA0020086006F00FFE184817
:1053400000680A2190FBF1F201FB1200C0B2014695
:1053500002901A2006F0B9FB012211461C2006F02B
:1053600043FB0F4800680A2190FBF1F090FBF1F23B
:1053700001FB1200C0B2014602901C2006F0E1FBC6
:1053800007480068642190FBF1F0C0B2014602902A
:105390001E2007E0E0020020E4020020F4020020CA
:1053A000F802002006F091FB39E0FB480068401C41
:1053B000F949086008460068782801DD782008600F
:1053C00006F0CCFDF44800680A2190FBF1F201FBE5
:1053D0001200C0B2014602901A2006F076FB0122AC
:1053E00011461C2006F000FBEB4800680A2190FBE8
:1053F000F1F090FBF1F201FB1200C0B20146029005
:105400001C2006F09EFBE4480068642190FBF1F04C
:10541000C0B2014602901E2006F057FB00BF00BF3D
:1054200059E406F0E4FD0721002006F020FB0122EC
:105430000821022006F0D8FA0021022006F017FB0E
:105440000321042006F02BFBD44800680A2190FBBE
:10545000F1F201FB1200C0B20246012102901C20B1
:1054600006F0C2FA06F07AFD00211A2006F069FB68
:10547000CA4800680A2190FBF1F090FBF1F201FBB1
:105480001200C0B2014602901C2006F05AFBC3482D
:105490000068642190FBF1F0C0B2014602901E202A
:1054A00006F013FB049810B1012874D139E0BB4811
:1054B0000068401EB949086008460068002801DA03
:1054C0000020086006F04AFDB44800680A2190FBFD
:1054D000F1F201FB1200C0B2014602901A2006F060
:1054E00030FB012211461C2006F07EFAAB48006812
:1054F0000A2190FBF1F090FBF1F201FB1200C0B227
:10550000014602901C2006F01CFBA44800686421A0
:1055100090FBF1F0C0B2014602901E2006F0D5FAD1
:1055200039E09E480068401C9C49086008460068B5
:10553000642801DD6420086006F010FD97480068CB
:105540000A2190FBF1F201FB1200C0B20146029069
:105550001A2006F0F6FA012211461C2006F044FA41
:105560008E4800680A2190FBF1F090FBF1F201FBFC
:105570001200C0B2014602901C2006F0E2FA8748F1
:105580000068642190FBF1F0C0B2014602901E2039
:1055900006F09BFA00BF00BF2AE406F028FD0821B0
:1055A000002006F064FA01220821022006F01CFA0D
:1055B0000021022006F05BFA0321042006F06FFAB6
:1055C0000121172006F0D5FA06F0C8FC74480068DF
:1055D00000280ADA01220821072006F005FA70489F
:1055E000006840426F49086008E06D4800686D49F6
:1055F000086000220821072006F0F6F900211A2091
:1056000006F063FA012211461C2006F0EDF9654808
:1056100000680A2190FBF1F201FB1200C0B20146C2
:1056200002901C2006F08DFA5E4800680A2190FB6B
:10563000F1F0C0B2014602901E2006F046FA04982E
:1056400010B1012875D175E05548006856490968C0
:10565000884226DD06F082FC5148006800280ADAFC
:1056600001220821072006F0BFF94D48006840429A
:105670004C49086008E04A4800684A49086000222E
:105680000821072006F0B0F908211A2006F033FAA5
:1056900008211C2006F02FFA06211E2006F02BFA06
:1056A00047E03F480068401E3D49086008460068E2
:1056B00010F1280F02DA6FF02700086006F04EFCA8
:1056C0003748006800280ADA01220821072006F07E
:1056D0008BF93348006840423249086008E030489E
:1056E00000683049086000220821072006F07CF994
:1056F00000211A2006F0E9F9012211461C2006F0CB
:1057000073F9284800680A2190FBF1F201FB1200AE
:10571000C0B2014602901C2006F013FA214800682E
:105720000A2190FBF1F0C0B2014602901E2006F063
:10573000CCF92EE01A480068401C19490860084658
:105740000068502801DD5020086006F007FC0021A9
:105750001A2006F0BAF9012211461C2006F044F97D
:10576000104800680A2190FBF1F201FB1200C0B260
:10577000014602901C2006F0E4F90A4800680A215C
:1057800090FBF1F0C0B2014602901E2006F09DF998
:1057900000BF00BF6DE40000F802002000030020FD
:1057A000080300200C0300201003002006F01FFC5B
:1057B0000921002006F05BF901220821022006F0F1
:1057C00013F90021022006F052F90321042006F00B
:1057D00066F90121172006F0CCF906F0BFFBFE4860
:1057E000006800280ADA01220821072006F0FCF8E8
:1057F000F94800684042F949086008E0F648006846
:10580000F649086000220821072006F0EDF8002183
:105810001A2006F05AF9012211461C2006F0E4F87D
:10582000EE4800680A2190FBF1F201FB1200C0B2C1
:10583000014602901C2006F084F9E84800680A211D
:1058400090FBF1F0C0B2014602901E2006F03DF937
:10585000049810B1012875D175E0E1480068DE496F
:105860000968884226DD06F079FBDB4800680028DD
:105870000ADA01220821072006F0B6F8D6480068A7
:105880004042D649086008E0D3480068D349086020
:1058900000220821072006F0A7F808211A2006F0A8
:1058A0002AF908211C2006F026F906211E2006F000
:1058B00022F947E0C8480068401EC749086008460A
:1058C000006810F1280F02DA6FF02700086006F078
:1058D00045FBC148006800280ADA01220821072098
:1058E00006F082F8BC4800684042BC49086008E005
:1058F000B9480068B949086000220821072006F06D
:1059000073F800211A2006F0E0F8012211461C204D
:1059100006F06AF8B14800680A2190FBF1F201FB39
:105920001200C0B2014602901C2006F00AF9AB48F2
:1059300000680A2190FBF1F0C0B2014602901E20DF
:1059400006F0C3F82EE0A4480068401CA249086095
:1059500008460068502801DD5020086006F0FEFA75
:1059600000211A2006F0B1F8012211461C2006F091
:105970003BF89A4800680A2190FBF1F201FB120003
:10598000C0B2014602901C2006F0DBF89348006884
:105990000A2190FBF1F0C0B2014602901E2006F0F1
:1059A00094F800BF00BF13E406F021FB0021084675
:1059B00006F05DF801220821022006F015F8012109
:1059C000022006F054F80321042006F068F806F0DF
:1059D000C5FA8448006800280ADA01220821072055
:1059E00006F002F87F48006840427F49086008E0FE
:1059F0007C4800687C49086000220821072005F0E7
:105A0000F3FF00211A2006F09CF8012211461C2009
:105A100005F0EAFF744800680A2190FBF1F201FBEF
:105A20001200C0B2014602901C2006F08AF86E48AF
:105A300000680A2190FBF1F0C0B2014602901E20DE
:105A400006F043F8049810B1012873D173E065485B
:105A5000006866490968884226DD06F07FFA6148D9
:105A6000006800280ADA01220821072005F0BCFF9F
:105A70005C48006840425C49086008E0594800689A
:105A80005949086000220821072005F0ADFF0821D0
:105A90001A2006F030F808211C2006F02CF8062108
:105AA0001E2006F028F845E04E480068401E4D498B
:105AB000086008460068002801DA0020086006F047
:105AC0004DFA4848006800280ADA01220821072018
:105AD00005F08AFF4348006840424349086008E0F7
