:020000040800F2
:10000000F81000203DE800084D0F00084F0F0008D1
:10001000530F0008570F00085B0F00080000000096
:100020000000000000000000000000005F0F00085A
:10003000610F000800000000630F0008650F000852
:1000400057E8000857E8000857E80008A5C9000865
:1000500057E8000857E8000857E8000857E8000884
:1000600057E8000857E8000857E8000857E8000874
:1000700057E8000857E8000857E8000857E8000864
:10008000E5D6000845D7000857E8000857E80008FB
:1000900057E8000857E8000857E8000857E8000844
:1000A00057E8000857E8000857E8000857E8000834
:1000B00075AA0008F9A90008D30E000857E800083F
:1000C00057E8000857E8000857E8000857E8000814
:1000D00057E800083D0B0008D70A000857E8000859
:1000E00027DC000857E8000857E8000857E8000830
:1000F00057E8000857E8000857E8000857E80008E4
:1001000057E8000857E80008F5AA000857E8000873
:1001100057E8000857E8000857E8000857E80008C3
:1001200057E8000857E8000857E8000857E80008B3
:1001300000F002F800F062F80AA090E8000C824497
:100140008344AAF10107DA4501D100F057F8AFF274
:10015000090EBAE80F0013F0010F18BFFB1A43F0A5
:100160000103184760220100802201000A444FF079
:10017000000C10F8013B13F0070408BF10F8014B06
:100180001D1108BF10F8015B641E05D010F8016B4B
:10019000641E01F8016BF9D113F0080F1EBF10F8AF
:1001A000014BAD1C0C1B09D16D1E58BF01F801CBD2
:1001B000FAD505E014F8016B01F8016B6D1EF9D555
:1001C0009142D6D37047000000230024002500266A
:1001D000103A28BF78C1FBD8520728BF30C148BFAA
:1001E0000B607047642910F04387732911F0098070
:1001F000002070471FB51FBD10B510BD11F00AF8E3
:100200001146FFF7F7FF09F0B0F811F028F803B432
:10021000FFF7F2FF03BC0EF05FFA00000CB5002000
:10022000019000905E48006840F480305C490860AE
:1002300000BF5B48006800F4003000900198401C4B
:100240000190009818B90198B0F5A06FF1D1544809
:10025000006800F4003010B10120009001E000209F
:1002600000900098012828D14E48006840F0100006
:100270004C4908600846006820F003000860084602
:10028000006808604648406845494860084640683C
:1002900048600846406848600846406820F003000F
:1002A00048600846406840F00100486000BF3C4894
:1002B000406800F00C000428F9D10CBD10B5FFF720
:1002C000ADFF10BD10B53648006840F0010034495C
:1002D000086008464068344908403149486008468B
:1002E0000068324908402E4908600846006820F43A
:1002F000802008600846406820F4FE0048604FF403
:100300001F008860FFF7DAFF4FF00060284908609F
:1003100010BD10B5002100200022214B5B6803F0C6
:100320000C0121B1042906D0082928D107E0214B6E
:10033000214C236027E01F4B1F4C236023E0184B08
:100340005B6803F47010164B5B6803F48032022381
:1003500003EB904022B9194B4343174C23600DE047
:100360000F4B5B6803F4003323B1144B4343124C2F
:10037000236003E00F4B43430F4C236003E00D4B1E
:100380000D4C236000BF00BF054B5B68C3F3031334
:100390000B4CE15C084B1B68CB40074C236010BD45
:1003A00000100240002002400000FFF8FFFFF6FEB0
:1003B00008ED00E000127A000000002000093D0076
:1003C0000400002070B502460C46FF25FF2309E01B
:1003D00012F8010B80EA0501FA48405C80EA030547
:1003E000F948435C201EA4F10106F4B2F0D143EABF
:1003F000052070BD10B50120F4490870F4480EF0D6
:10040000FDFEF4490870F4480078012856D0002118
:10041000F2480FF055FC0021F0480FF0E5FEF048DF
:100420000078A0B1EB480078EE49097888420ED1F7
:100430000020ED490870ED49087008460078401C1E
:100440000870E4480078EA49E84A12788854E44899
:10045000007860BBE448007848BBE4480078642832
:1004600013DADC480178E24AE0480078401C115475
:10047000DE480078401CDD490870084600780828EE
:1004800015DB08460078087011E00120D649087095
:10049000D1490870D5480078D5490870D54800681A
:1004A0008078D549096888700020D04908700020FC
:1004B000CB4908700121C9480FF002FC10BD10B5EE
:1004C0000120C2490870CD490870CD480EF096FE53
:1004D000C0490870C0480078012856D00021BF48A4
:1004E0000FF0EEFB0021BD480FF07EFEBC48007807
:1004F000A0B1B8480078BB49097888420ED10020E5
:10050000B9490870B949087008460078401C08705D
:10051000B0480078B649B54A12788854B048007897
:1005200060BBB148007848BBB0480078642813DA53
:10053000A8480178AE4AAD480078401C1154AB4839
:100540000078401CA949087008460078082815DB87
:1005500008460078087011E00120A34908709E4900
:100560000870A2480078A2490870A2480068807804
:10057000A1490968887000209C49087000209849AA
:100580000870012195480FF09BFB10BD10B59A48EB
:1005900000689C490978405C9B49087008460178CE
:1005A0008B480EF027FE97480078401C954908704C
:1005B0009148006800780978884210DA002086495E
:1005C00008708D49096808708849087001208D49B4
:1005D0000870002240F226617D480EF0AAFD10BD91
:1005E00070B500257F48007888490870032048705E
:1005F00087480078887087498748006811F026FD91
:10060000064611F087FC000A8049C870814982487B
:10061000006811F01BFD064611F07CFC7B49087157
:100620007E48006811F076FC0121B1EBE03F07D174
:100630007A4801684FF08F4011F010FE774908604A
:1006400074497648006811F001FD064611F062FC1D
:10065000000A6E4948716F497048006811F0F6FC55
:10066000064611F057FC6949887169480088051FE2
:1006700004E00021A81D654A11546D1E002DF8DC10
:1006800063480078C01CC1B26048FFF79BFE044677
:1006900021125E4A5E480088C01C11545C480088E4
:1006A000001D14545A480078401D5D4908701046DA
:1006B0005C490860012240F2277145480EF039FD7F
:1006C00070BD70B500254748007850490870032078
:1006D00048704F48007888705048006811F01AFC44
:1006E0000121B1EBE03F07D14C4801684FF08F404A
:1006F00011F0B4FD4949086046494848006811F0C6
:10070000A5FC064611F006FC000A4049C8704149A4
:100710004248006811F09AFC064611F0FBFB3B4989
:1007200008713B480088851E04E00021281D374AD7
:1007300011546D1E002DF8DC35480078C01CC1B284
:100740003248FFF73FFE04462112304A3048008805
:10075000C01C11542E480088001D14542C480078E9
:10076000401D2F49087010462E490860012240F2B2
:10077000277117480EF0DDFC70BD70B500251948D3
:10078000007822490870032048702148007888705A
:1007900020492148006811F059FC064611F0BAFBC7
:1007A000000A1A49C8701B491B48006811F04EFC2A
:1007B000064611F0AFFB1549087115480088851EE3
:1007C00037E0000066000020660100205D00002088
:1007D000004400404C0000205C0000200008004065
:1007E00048000020BC020020490000204F000020EB
:1007F000C404002054000020580000205F000020A6
:1008000000380140500000204D000020C1070020AA
:100810004400002000002041A8030020A403002081
:1008200094020020900200200021281DFD4A11544E
:100830006D1E002DF8DCFC480078C01CC1B2F948E0
:10084000FFF7C0FD04462112F64AF7480088C01C95
:100850001154F5480088001D1454F3480078401DD9
:10086000F24908701046F2490860012240F22771EF
:10087000F0480EF05EFC70BD10B50220EE49087025
:10088000EE4800884FF6FA71884205DAEC480078A5
:1008900010B900200DF04BF8E84800884FF6FA71C7
:1008A000884203DAE648007801280ED101200DF0D5
:1008B0003EF80120E2490870E04800884FF6FA71DE
:1008C000884202DB3220DD4908800A20DD490880A9
:1008D00008460288DC49D94800880DF005F8DB4855
:1008E0000078D0490870D84800784870D6484078D9
:1008F0008870D5488078C870D348C0780871D248CD
:1009000000794871D04840798871CF488079C871A2
:10091000CD48C0790872CC48007A4872CA48407AFB
:1009200088720B20C1490870C44800880A30C34946
:100930000880084600880A2190FBF1F0C449098824
:1009400088420BDD3220BD4908800020C149087073
:100950003220C14908800020C0490870B148B4491C
:100960000860012240F22771B2480EF0E2FB10BD90
:1009700070B50025BA480088B5490880B3480078AA
:10098000A84908700320487002208870B048008889
:10099000000AC870AE48007808710521A148FFF729
:1009A00011FD044620129F4948718C7107209F4910
:1009B00008709C489E490860012240F227719D48BA
:1009C0000EF0B7FB70BD2DE9F04104460F46002044
:1009D000A4490870A448007800283BD12078401E24
:1009E000255C4FF6FF7000EA05252078205C054362
:1009F0002078C01E205C8C490880084600884FF68D
:100A0000FF7101EA0020884908802078801E205C60
:100A1000098808434FF6FF7101EA400082490880C7
:100A200008460088202801DD202008802078801ECC
:100A3000C1B2601CFFF7C6FC064606218B48FFF7D3
:100A4000C1FC06462078801EC1B2601CFFF7BAFCCC
:100A5000064600E02E46AE4238D18348007808BBF7
:100A6000A07801281BD003281AD1022180480EF05B
:100A700012F86D480088042802D1FFF7B1FD0DE09F
:100A800069480088022809D1207910B9FFF775FE5E
:100A900004E02079012801D1FFF713FE01E000E016
:100AA00000BF16E0E07840B110280DD10221704857
:100AB0000DF0F1FFFFF7E0FE07E002216C480DF0BA
:100AC000EAFFFFF755FF00E000BF02E000206949A0
:100AD0000870BDE8F08110B540F2244155480EF091
:100AE0000DFC01280DD153480EF088FB40F2244143
:100AF00050480EF02DFC01205F49087000205F492E
:100B0000087040F225514B480EF0F8FB012814D133
:100B100048480EF073FB5A49087040F22551454889
:100B20000EF016FC564800785649544A12788854FC
:100B300052480078401C5149087010BD70B586B00D
:100B400000240226002500BF04E0002003A9085568
:100B5000601CC4B20A2CF8DB40F225514A480EF062
:100B6000CDFB30B348480EF049FB4849087048486F
:100B70000078F0B908460078232802D100204549C2
:100B8000087042480178434802780078401C414B85
:100B90001870414881543D4800780A2809D1184608
:100BA0000078801E3C49085C0D2802D1012038499C
:100BB00008703748007801287CD10020344908703B
:100BC00035484078012876D134480088022805DB72
:100BD0000DF044FB022126480DF05FFF2E4880787F
:100BE0002F4908702C48C0782E4908702A4800798F
:100BF0002D490870284840792C4908702648C17949
:100C0000807901EB00202A4908802348C179807946
:100C100001EB0020204949791F4A1279CDE90021D2
:100C2000029049E0C1070020440000209402002007
:100C30009002002000440040650300204600002090
:100C4000600000206400002068060020BC02002034
:100C50006200002064030020900300206303002052
:100C6000840200205D0000205F000020C5040020F9
:100C7000000801405C0000206C0200206D02002092
:100C80001500002090060020003801406602002078
:100C900067020020680200207C0600207802002005
:100CA0006F020020700200207102002072020020FA
:100CB000740200200BE109E0AB48C3788278ABA155
:100CC000B34810F063F90120B2490870A648407893
:100CD000022866D123208DF80C0002208DF80D002B
:100CE0000D208DF814000A208DF8150013241DE046
:100CF000A748005D2E280FD0A548005D22280BD004
:100D0000A348005D03A9895D01EB810100EB41006F
:100D1000303803A9885501E0701CC6B29C48005DBC
:100D20002C2801D1264603E0601CC4B22A2CDFDD4A
:100D300000BF701CC4B20FE09548005D0D2808D0BC
:100D40009348005D05EB850100EB4100303885B22A
:100D500000E003E0601CC4B22A2CEDDD00BF284691
:100D6000E91705EB1161090A8DF81210E91705EB77
:100D700011610912A5EB0121C9B28DF813100024ED
:100D80000DE003A8015D84480EF034FA00BF802115
:100D900081480EF09DFA0028F9D0601CC4B20A2CDC
:100DA000EFDB71484078032820D17C480088022876
:100DB00005DB0DF053FA022179480DF06EFE6A480A
:100DC000C178807801EB00207649086008460088E9
:100DD0007549088000207149088074490880744969
:100DE00008807449087001206A4908705E4840789C
:100DF000042826D123208DF80C0004208DF80D0046
:100E000068480088000A8DF80E00664800788DF862
:100E10000F000D208DF810000A208DF8110000241D
:100E20000DE003A8015D5C480EF0E4F900BF8021ED
:100E300059480EF04DFA0028F9D0601CC4B2062CB7
:100E4000EFDB4948407805281ED154480088022825
:100E500001DB0DF030FB002406E04349A01C085CD8
:100E600055490855601CC4B254480078001FA04280
:100E7000F3DC002050490855514B0A4651A1574810
:100E800010F084F80DF0F3FA3748407806281ED1A8
:100E900042480088022801DB0DF00DFB002406E02B
:100EA0003149A01C085C46490855601CC4B243483F
:100EB0000078001FA042F3DC0020414908550B4692
:100EC0003D4A40A1454810F061F80DF0D0FA06B057
:100ED00070BD10B5012142480FF0BBF9002834D095
:100EE00001204049087000213D480EF0E9FE002134
:100EF0003B480FF079F901203B4908703B480078E6
:100F00003B4908703B480078D8B13848007804283D
:100F100017DD01203849087035480079222803D0B0
:100F20003348C078102803D101203449087002E00A
:100F30000020324908703248016832480068FFF7E3
:100F400042FD012126480FF095F910BD704700BF02
:100F5000FEE700BFFEE700BFFEE700BFFEE7704709
:100F600070477047704700007C06002041542B43B7
:100F7000495053544152543D22544350222C22256F
:100F8000642E25642E25642E2564222C25640D00F4
:100F90006C0A002014000020003801407802002074
:100FA00000080140180000207C02002014040020EA
:100FB000160400207A0200201C0000206802002095
:100FC0003000002041542B43574A41503D222573A5
:100FD000222C222573220D0A00000000820400202A
:100FE0000008004048000020490000204F00002079
:100FF000C40400205D0000205C0000205F00002091
:101000005800002054000020002100E0491C8142CB
:10101000FCD3704710B5642910D2302202700A2226
:10102000B1FBF2F2303242702E2242700A22B1FB42
:10103000F2F302FB13123032827021E064291FD3D5
:10104000B1F57A7F1CD26422B1FBF2F23032027029
:101050006422B1FBF2F302FB13120A23B2FBF3F298
:10106000303242702E2282706422B1FBF2F302FB16
:1010700013120A23B2FBF3F403FB14223032C270C2
:1010800010BD3EB50924FA48048001200CF04FFC45
:101090002246F84900200CF027FC64200DF0EFFAFE
:1010A000F4480078F4490870F2484078F349087031
:1010B000F0488078F2490870EE48C078F14908702D
:1010C000EC484179007901EB0020EF49088008469F
:1010D0000088EC490978EA4A1278CDE900210290AB
:1010E000E6480378E4480278E8A1F1480FF04EFFA3
:1010F000E0488079EF490870DE48017AC07901EB59
:101100000020ED49086008460068EC4908603EBDD3
:1011100010B5D7480480D8480078E9490870D74806
:1011200000784870D64800788870D6480078C87033
:10113000D5490888C11700EB1161090AE04A11710D
:10114000D1490888C11700EB11610912A0EB0121F8
:101150005171D848007811468871D7480088000A34
:10116000C871D54800780872092401200CF0DFFB13
:101170002246D34900200CF0C8FB64200DF07FFA12
:1011800010BD10B5FFF77DFF3224B9480480002060
:101190000CF0CDFB2246B74900200CF0A5FB6420E3
:1011A0000DF06DFAB3480078C6490860B148407840
:1011B000C5490860C548096850F82100C44908605D
:1011C000AC488078C3490860AA48C078C249086022
:1011D00008460068502804DD08460068A0F58070C5
:1011E0000860A4480079BD49086008460068502896
:1011F00004DD08460068A0F5807008609D484079CD
:10120000B74908609B488079B64908609948C07919
:10121000B54908609748007AB44908609548407A13
:10122000B34908609348807AB24908609148C07A0F
:10123000B14908608F48007BB04908608D48407B09
:10124000AF4908608B48807BAE4908608948C07B05
:10125000AD4908808748007C097800EB0120AA4945
:1012600008808448407CA94908708248807CA8494D
:1012700008608048C07CA74908607E48007DA64978
:10128000086008460068502804DD08460068A0F59C
:10129000807008607748407DA04908600846006873
:1012A000502804DD08460068A0F580700860714889
:1012B000807D9B4908606F48C07D9A4908606D48F1
:1012C000007E9949086008460068642804DD0846E5
:1012D0000068A0F5807008606648407E9349086009
:1012E00008460068642804DD08460068A0F58070A0
:1012F00008606048807E18B15E48807EFF2812D169
:101300005C48C07E18B15B48C07EFF280BD15948AD
:10131000007F18B15748007FFF2804D14FF4C870F0
:101320008349086011E05348807E5249C97E01EB31
:10133000810100EB41004F49097F01EBC10202EB43
:10134000011100EB81007A4908604A48407F18B1DA
:101350004848407FFF281BD14648807F18B1454848
:10136000807FFF2814D14348C07F18B14148C07F17
:10137000FF280DD13F4890F8200020B13D4890F85B
:101380002000FF2804D14FF4FA606A49086014E095
:101390003848407F3749897F0A2202FB01003549DE
:1013A000C97F642202FB0100324991F820104FF4FA
:1013B0007A7202FB01005F4908602E4890F8210014
:1013C00020B12C4890F82100FF2816D1294890F828
:1013D000220020B1274890F82200FF280DD125488F
:1013E00090F8230020B1234890F82300FF2804D16F
:1013F0004FF4C8705049086010E01E4890F8210072
:101400001C4991F822100A2202FB0100194991F8A7
:101410002310642202FB010047490860154890F838
:10142000240020B1134890F82400FF281FD1114850
:1014300090F8250020B10F4890F82500FF287FD1B3
:101440000C4890F8260020B10A4890F82600FF28A2
:1014500076D1084890F8270020B1064890F8270078
:10146000FF286DD14FF4FA603449086080E067E0EE
:1014700060030020250800206F0200207002002079
:1014800071020020720200207402002041542B439C
:10149000495053544152543D22544350222C22254A
:1014A000642E25642E25642E2564222C25640D00CF
:1014B0006C0A00206E020020180000207C02002030
:1014C000F3070020BC020020C4020020C802002054
:1014D000C0020020DC020020E0020020E402002024
:1014E000F0020020F4020020F8020020FC0200209C
:1014F0000003002004030020080300200C03002048
:101500001003002014030020900300206303002038
:10151000200300202803002030030020380300208F
:1015200040030020480300205003002058030020FF
:10153000B4030020B8030020BC030020C003002037
:10154000FE4890F82400FD4991F825100A2202FB7C
:101550000100FA4991F82610642202FB0100F749C4
:1015600091F827104FF47A7202FB0100F4490860E9
:10157000F24890F8280020B1F04890F82800FF28A1
:101580001FD1EE4890F8290020B1EC4890F82900CE
:10159000FF2816D1E94890F82A0020B1E74890F8D2
:1015A0002A00FF280DD1E54890F82B0020B1E34830
:1015B00090F82B00FF2804D14FF4FA60E14908604D
:1015C00017E0DE4890F82800DC4991F829100A223B
:1015D00002FB0100D94991F82A10642202FB0100A4
:1015E000D64991F82B104FF47A7202FB0100D549CD
:1015F0000860D24890F82C0020B1D04890F82C0018
:10160000FF281FD1CD4890F82D0020B1CB4890F88D
:101610002D00FF2816D1C94890F82E0020B1C748E8
:1016200090F82E00FF280DD1C44890F82F0020B16B
:10163000C24890F82F00FF2804D14FF4FA60C24945
:10164000086017E0BD4890F82C00BC4991F82D10B7
:101650000A2202FB0100B94991F82E10642202FB14
:101660000100B64991F82F104FF47A7202FB010085
:10167000B549086010BD10B5B4480480B44800787E
:10168000B4490870B44800784870B448007888704D
:10169000B3480078C870B34800780871B248007841
:1016A0004871B24800788871B1480078C871B14873
:1016B00000780872B04800784872B04800788872A4
:1016C000AF480078C872AF4800780873AE48007819
:1016D0004873AE4800788873AD480088000AC87324
:1016E000AB4800780874AB4800784874AA48007882
:1016F0008874AA480078C874A94800780875A94871
:1017000000784875A84800788875A8480078C8759A
:10171000A74800780876A74800784876A648006869
:10172000642190FBF1F201FB12000A2190FBF1F21F
:1017300001FB1200874988769F480068642190FB6E
:10174000F1F201FB12000A2190FBF1F08149C87609
:1017500099480068642190FBF1F07E49087797482A
:1017600000684FF47A7190FBF1F201FB12006421E2
:1017700090FBF1F201FB12000A2190FBF1F201FB58
:101780001200744948778D4800684FF47A7190FBD5
:10179000F1F201FB1200642190FBF1F201FB120057
:1017A0000A2190FBF1F06B498877844800684FF478
:1017B0007A7190FBF1F201FB1200642190FBF1F0D1
:1017C0006449C8777D4800684FF47A7190FBF1F066
:1017D000604981F820007A480068642190FBF1F2AA
:1017E00001FB12000A2190FBF1F201FB12005949A2
:1017F00081F8210072480068642190FBF1F201FB3E
:1018000012000A2190FBF1F0524981F822006C4845
:101810000068642190FBF1F04E4981F823004848AC
:1018200000684FF47A7190FBF1F201FB1200642121
:1018300090FBF1F201FB12000A2190FBF1F201FB97
:101840001200444981F824003D4800684FF47A7141
:1018500090FBF1F201FB1200642190FBF1F201FB1D
:1018600012000A2190FBF1F03A4981F82500344832
:1018700000684FF47A7190FBF1F201FB12006421D1
:1018800090FBF1F0334981F826002D4800684FF4B1
:101890007A7190FBF1F02F4981F827002948006800
:1018A0004FF47A7190FBF1F201FB1200642190FB7E
:1018B000F1F201FB12000A2190FBF1F201FB120090
:1018C000244981F828001F4800684FF47A7190FB82
:1018D000F1F201FB1200642190FBF1F201FB120016
:1018E0000A2190FBF1F01B4981F829001548006896
:1018F0004FF47A7190FBF1F201FB1200642190FB2E
:10190000F1F0144981F82A000E4800684FF47A710A
:1019100090FBF1F00F4981F82B000B4800684FF461
:101920007A7190FBF1F201FB1200642190FBF1F25D
:1019300001FB12000A2190FBF1F243E02508002090
:10194000C0030020C4030020C8030020600300205F
:10195000BC020020F3070020C4020020DC020020AB
:10196000E0020020E4020020F0020020F402002047
:10197000F8020020FC0200200003002004030020E5
:10198000080300200C030020100300201403002093
:101990009003002063030020200300202803002080
:1019A00030030020380300204003002048030020BB
:1019B0005003002058030020B4030020B803002087
:1019C000BC03002001FB1200FE4981F82C00FE48F8
:1019D00000684FF47A7190FBF1F201FB1200642170
:1019E00090FBF1F201FB12000A2190FBF1F0F549A6
:1019F00081F82D00F44800684FF47A7190FBF1F201
:101A000001FB1200642190FBF1F0EE4981F82E00F9
:101A1000ED4800684FF47A7190FBF1F0E94981F8E4
:101A20002F00322400200BF082FF2246E5490020DF
:101A30000BF06BFF64200CF022FEFFF769FB10BD7A
:101A400008B5012114200DF035FA4FF48060ADF88F
:101A5000000010208DF8030003208DF80200694675
:101A6000DA480CF06BFF4FF48061D8480DF013F8A2
:101A70000220ADF8000010208DF8030003208DF83F
:101A800002006946D2480CF059FF0221D0480DF0FF
:101A900004F82020ADF800006946CD480CF04EFF58
:101AA0002021CB480CF0F9FF1020ADF8000069466A
:101AB000C7480CF043FF1021C5480CF0ECFF08BDEF
:101AC00008B5012104200DF0F5F94020ADF8000023
:101AD00010208DF8030003208DF802006946BC48F1
:101AE0000CF02CFF08BD10B504464021B8480CF09E
:101AF000D2FFA0B20CF0C3FD4021B5480CF0CDFFE1
:101B000010BD03B581B000214FF080400EF0D8F831
:101B100001981A2882F01082DFE810F01A001C00E9
:101B2000D900A50124023F03A3094F041805830A25
:101B30006A0E740FE7054206BD064A07DD078C08EA
:101B40003B09550B250CE40CAB0D8510A511F811C4
:101B500002F0F2B90AF067FA0021084609F0BBFF6B
:101B600001220821022009F05BFF0121022009F077
:101B70009AFF0121042009F096FF0AF00BFA95481C
:101B80000078642190FBF1F201FB12000A2190FB26
:101B9000F1F201FB1200C0B2014600901A2009F0D8
:101BA000B0FF8C480078642190FBF1F201FB120039
:101BB0000A2190FBF1F0C0B2014600901C2009F010
:101BC000A0FF84480078642190FBF1F0C0B2014688
:101BD00000901E2009F095FF029810B1012874D1E1
:101BE0003AE07C480078401E7A4908700846007840
:101BF000012801DAFF2008700AF0CCF97548007856
:101C0000642190FBF1F201FB12000A2190FBF1F23A
:101C100001FB1200C0B2014600901A2009F071FFCA
:101C20006C480078642190FBF1F201FB12000A215C
:101C300090FBF1F0C0B2014600901C2009F061FF5A
:101C400064480078642190FBF1F0C0B20146009036
:101C50001E2009F056FF38E05E480078401C5D49C0
:101C6000087008460078FF2801DD012008705948F7
:101C70000078642190FBF1F201FB12000A2190FB35
:101C8000F1F201FB1200C0B2014600901A2009F0E7
:101C900038FF50480078642190FBF1F201FB1200FC
:101CA0000A2190FBF1F0C0B2014600901C2009F01F
:101CB00028FF48480078642190FBF1F0C0B201464B
:101CC00000901E2009F01DFF00BF00BF40E70AF092
:101CD000AAF90221002009F0FEFE012208210220BB
:101CE00009F09EFE01220821022009F0D7FD012102
:101CF000022009F0F0FE0221042009F0D4FE0AF0CF
:101D000049F9354800686421B0FBF1F201FB12008B
:101D10000A21B0FBF1F201FB1200014600901A20EB
:101D200009F0EFFE2C4800686421B0FBF1F201FBE2
:101D300012000A21B0FBF1F0014600901C2009F0CE
:101D4000E0FE254800686421B0FBF1F0C0B2014616
:101D500000901E2009F0D5FE029810B1012845D14F
:101D600045E01D480068401E1B49086008460068A1
:101D700010B940F2E73008600AF00CF91648006824
:101D80006421B0FBF1F201FB12000A21B0FBF1F279
:101D900001FB1200014600901A2009F0B2FE0E4825
:101DA00000686421B0FBF1F201FB12000A21B0FBD4
:101DB000F1F0014600901C2009F0A3FE06480068DF
:101DC00064210BE0F3070020C8030020001001404D
:101DD000000801406E02002018000020B0FBF1F066
:101DE000C0B2014600901E2009F08BFE39E0FE488B
:101DF0000068401CFC49086008460068B0F57A7F1E
:101E000001D3012008600AF0C5F8F7480068642192
:101E1000B0FBF1F201FB12000A21B0FBF1F201FB71
:101E20001200014600901A2009F06BFEEE4800688F
:101E30006421B0FBF1F201FB12000A21B0FBF1F0CA
:101E4000014600901C2009F05CFEE7480068642110
:101E5000B0FBF1F0C0B2014600901E2009F051FE27
:101E600000BF00BF74E60AF0DEF80821002009F088
:101E700032FE01220821022009F0D2FD07210220B2
:101E800009F029FE0321042009F00DFE0AF0D7F81D
:101E9000D648006801280AD10AF07CF80A211A20E5
:101EA00009F045FE00211C2009F02BFE0DE00AF090
:101EB00071F805211A2009F03AFE05211C2009F0CD
:101EC00036FE00211E2009F01CFE029810B10128E8
:101ED00046D122E0C548006868B90120C3490860BE
:101EE0000AF058F80A211A2009F021FE00211C20CE
:101EF00009F007FE10E00020BC4908600AF04AF82B
:101F000005211A2009F013FE05211C2009F00FFEFF
:101F100000211E2009F0F5FD22E0B448006868B9F0
:101F20000120B24908600AF035F80A211A2009F0A8
:101F3000FEFD00211C2009F0E4FD10E00020AB496B
:101F400008600AF027F805211A2009F0F0FD0521A4
:101F50001C2009F0ECFD00211E2009F0D2FD00BF7D
:101F600000BFF5E50AF05FF80B21002009F0B3FD92
:101F700001220821022009F053FD0321022009F06B
:101F8000AAFD0421084609F08EFD0121172009F061
:101F90000CFE09F0FFFF9648006800280ADA0122CB
:101FA0000821072009F03CFD914800684042914912
:101FB000086008E08E4800688E4908600022082109
:101FC000072009F02DFD00211A2009F09AFD0122B9
:101FD00011461C2009F024FD864800680A2190FB68
:101FE000F1F201FB1200C0B2014600901C2009F082
:101FF000C4FD804800680A2190FBF1F0C0B20146A0
:1020000000901E2009F07DFD029810B101287AD1C0
:102010007AE0794800687649096888422BDB09F044
:10202000B9FF7348006800280ADA01220821072056
:1020300009F0F6FC6E48006840426E49086008E00E
:102040006B4800686B49086000220821072009F0EE
:10205000E7FC00220821072009F0E2FC08211A20F1
:1020600009F065FD08211C2009F061FD06211E20F4
:1020700009F05DFD47E05E480068401E5C4908606D
:102080000846006810F1280F02DA6FF02700086098
:1020900009F080FF5648006800280ADA012208216A
:1020A000072009F0BDFC52480068404251490860D1
:1020B00008E04F4800684F490860002208210720C7
:1020C00009F0AEFC00211A2009F01BFD0122114687
:1020D0001C2009F0A5FC474800680A2190FBF1F29A
:1020E00001FB1200C0B2014600901C2009F045FD22
:1020F000404800680A2190FBF1F0C0B20146009010
:102100001E2009F0FEFC46E039480068401C3849B2
:10211000086008460068502801DD5020086009F07A
:1021200039FF3348006800280ADA01220821072015
:1021300009F076FC2E48006840422E49086008E00D
:102140002B4800682B49086000220821072009F06D
:1021500067FC00211A2009F0D4FC012211461C2042
:1021600009F05EFC234800680A2190FBF1F201FBB4
:102170001200C0B2014600901C2009F0FEFC1D4870
:1021800000680A2190FBF1F0C0B2014600901E20C9
:1021900009F0B7FC00BF00BFDAE409F044FF0421F6
:1021A000002009F098FC01220821022009F038FCE7
:1021B0000321022009F08FFC0421084609F073FC7A
:1021C0000121172009F0F1FC09F0E4FE0A4800683B
:1021D000002817DA01220821072009F021FC06480F
:1021E0000068404205490BE018000020DC02002096
:1021F000E0020020EC020020E4020020E8020020BF
:10220000086008E0FE480068FE49086000220821D6
:10221000072009F005FC00211A2009F072FC0122B8
:1022200011461C2009F0FCFBF64800680A2190FBCF
:10223000F1F201FB1200C0B2014600901C2009F02F
:102240009CFCF04800680A2190FBF1F0C0B2014606
:1022500000901E2009F055FC029810B1012848D1C9
:1022600048E0E7480068401EE54908600846006805
:1022700010F1280F02DA6FF02700086009F08AFEDB
:10228000DF48006800280ADA01220821072009F047
:10229000C7FBDB4800684042DA49086008E0D848DC
:1022A0000068D849086000220821072009F0B8FB1F
:1022B00000211A2009F025FC012211461C2009F0FA
:1022C000AFFBD04800680A2190FBF1F201FB12003D
:1022D000C0B2014600901C2009F04FFCC9480068BC
:1022E0000A2190FBF1F0C0B2014600901E2009F0D7
:1022F00008FC60E0C2480068C3490968884213DBF3
:1023000009F048FE00220821072009F089FB082176
:102310001A2009F00CFC08211C2009F008FC0621F9
:102320001E2009F004FC45E0B5480068401CB44993
:10233000086008460068502801DD5020086009F058
:1023400029FEAF48006800280ADA01220821072088
:1023500009F066FBAA4800684042AA49086008E004
:10236000A7480068A749086000220821072009F053
:1023700057FB00211A2009F0C4FB012211461C2042
:1023800009F04EFB9F4800680A2190FBF1F201FB27
:102390001200C0B2014600901C2009F0EEFB9948E3
:1023A00000680A2190FBF1F0C0B2014600901E20A7
:1023B00009F0A7FB00BF00BF88E400220821072026
:1023C00009F02EFB09F02FFE0B21002009F083FB02
:1023D00001220821022009F023FB0B21022009F031
:1023E0007AFB0421084609F05EFB09F0D3FD0022C8
:1023F0000821072009F014FB00211A2009F0BDFB79
:10240000012211461C2009F00BFB804800680A21BC
:1024100090FBF1F201FB1200C0B2014600901C20BB
:1024200009F0ABFB794800680A2190FBF1F0C0B2DB
:10243000014600901E2009F064FB029810B10128AB
:102440004DD14DE07148006871490968884213DC3C
:1024500009F0A0FD00220821072009F0E1FA082177
:102460001A2009F064FB08211C2009F060FB0621FA
:102470001E2009F05CFB32E064480068401E63499E
:10248000086008460068002801DA0120086009F0A9
:1024900081FD00220821072009F0C2FA00211A203C
:1024A00009F06BFB012211461C2009F0B9FA5748CC
:1024B00000680A2190FBF1F201FB1200C0B2014654
:1024C00000901C2009F059FB504800680A2190FB3D
:1024D000F1F0C0B2014600901E2009F012FB33E07B
:1024E0004A480068401C494908600846006863285B
:1024F00001DD6320086009F04DFD0022082107205E
:1025000009F08EFA00211A2009F037FB012211464A
:102510001C2009F085FA3D4800680A2190FBF1F281
:1025200001FB1200C0B2014600901C2009F025FBFF
:10253000364800680A2190FBF1F0C0B201460090D5
:102540001E2009F0DEFA00BF00BF8BE409F06BFD2E
:102550000421002009F0BFFA01220821022009F01D
:102560005FFA0B21022009F0B6FA0421084609F0AF
:102570009AFA09F00FFD00220821072009F050FA0D
:1025800000211A2009F0F9FA012211461C2009F055
:1025900047FA1F4800680A2190FBF1F201FB120084
:1025A000C0B2014600901C2009F0E7FA1848006804
:1025B0000A2190FBF1F0C0B2014600901E2009F004
:1025C000A0FA029810B101283ED13EE01048006800
:1025D000401E0F49086008460068002801DA002004
:1025E000086009F0D7FC00220821072009F018FA3A
:1025F00000211A2009F0C1FA012211461C2009E02D
:10260000E4020020E8020020E0020020F0020020A6
:10261000F402002009F004FAF84800680A2190FB4F
:10262000F1F201FB1200C0B2014600901C2009F03B
:10263000A4FAF24800680A2190FBF1F0C0B201460A
:1026400000901E2009F05DFA4DE0ED480068EB496E
:102650000968884213DC09F09DFC0022082107204C
:1026600009F0DEF908211A2009F061FA08211C207E
:1026700009F05DFA06211E2009F059FA32E0DF4820
:102680000068401CDD49086008460068632801DDD9
:102690006320086009F07EFC00220821072009F071
:1026A000BFF900211A2009F068FA012211461C2006
:1026B00009F0B6F9D14800680A2190FBF1F201FB5C
:1026C0001200C0B2014600901C2009F056FACB4817
:1026D00000680A2190FBF1F0C0B2014600901E2074
:1026E00009F00FFA00BF00BF3BE409F09CFC052194
:1026F000002009F0F0F901220821022009F090F9E8
:102700000321022009F0E7F90621042009F0CBF9A2
:102710000121172009F049FA09F03CFCB94800688A
:10272000012804D105211C2009F001FA03E003214E
:102730001C2009F0FCF9029810B101282ED116E0F6
:10274000B048006848B90120AE49086009F022FC91
:1027500005211C2009F0EBF908E00020A9490860D8
:1027600009F018FC03211C2009F0E1F916E0A54846
:10277000006848B90120A349086009F00BFC052155
:102780001C2009F0D4F908E000209E49086009F0F7
:1027900001FC03211C2009F0CAF900BF00BFFBE4C3
:1027A00009F041FC0821002009F095F901220821D7
:1027B000022009F035F90521022009F08CF90721E2
:1027C000042009F070F909F0E5FB8F480068012842
:1027D00008D10A211A2009F0AAF900211C2009F0C9
:1027E00090F90BE005211A2009F0A1F905211C2020
:1027F00009F09DF900211E2009F083F9029810B11B
:10280000012846D122E08048006868B901207E494D
:10281000086009F0BFFB0A211A2009F088F900219D
:102820001C2009F06EF910E000207749086009F0DB
:10283000B1FB05211A2009F07AF905211C2009F0C5
:1028400076F900211E2009F05CF922E06E4800684C
:1028500068B901206C49086009F09CFB0A211A2024
:1028600009F065F900211C2009F04BF910E0002067
:102870006549086009F08EFB05211A2009F057F917
:1028800005211C2009F053F900211E2009F039F917
:1028900000BF00BF80E409F0C6FB0121002009F061
:1028A00002F901220821022009F0BAF803210220CE
:1028B00009F011F90821042009F0F5F809F06AFB84
:1028C0005248006838B90A211A2009F030F900216D
:1028D0001C2009F016F94D48006801280BD105218C
:1028E0001A2009F024F905211C2009F020F9002103
:1028F0001E2009F006F9029810B1012856D12AE0ED
:1029000042480068401E41490860084600680028A7
:1029100001DA012008603D48006848B909F03AFB37
:102920000A211A2009F003F900211C2009F0E9F816
:102930003648006801280DD109F02CFB05211A202A
:1029400009F0F5F805211C2009F0F1F800211E20FE
:1029500009F0D7F82AE02D480068401C2B49086090
:1029600008460068012801DD00200860274800684B
:1029700048B909F00FFB0A211A2009F0D8F8002104
:102980001C2009F0BEF82148006801280DD109F08B
:1029900001FB05211A2009F0CAF805211C2009F0C5
:1029A000C6F800211E2009F0ACF800BF00BF03E507
:1029B00009F039FB0221002009F075F801220821F5
:1029C000022009F02DF80321022009F084F80821E3
:1029D000042009F068F809F0DDFA0D4800680128C4
:1029E00018D103211A2009F0A2F809211C2009F0AE
:1029F0009EF803211E2009F09AF817E0F402002047
:102A0000F0020020F8020020FC0200200003002059
:102A10000403002000211A2009F089F808211C2055
:102A200009F085F800211E2009F06BF8029810B11A
:102A300001284ED126E0F848006888B90120F649FF
:102A4000086009F0A7FA03211A2009F070F809219B
:102A50001C2009F06CF803211E2009F068F810E032
:102A60000020ED49086009F095FA00211A2009F0CC
:102A70005EF808211C2009F05AF800211E2009F0F8
:102A800040F826E0E448006888B90120E24908607F
:102A900009F080FA03211A2009F049F809211C20C5
:102AA00009F045F803211E2009F041F810E000204C
:102AB000D949086009F06EFA00211A2009F037F8A8
:102AC00008211C2009F033F800211E2009F019F814
:102AD00000BF00BF70E409F0A6FA0321002008F04F
:102AE000E2FF01220821022008F09AFF03210220C0
:102AF00008F0F1FF0821042008F0D5FF09F04AFA98
:102B0000C64800680A2190FBF1F201FB1200C0B236
:102B1000014600901A2008F0F4FFC04800680A211E
:102B200090FBF1F090FBF1F201FB1200C0B2014604
:102B300000901C2008F0E5FFB8480068642190FB75
:102B4000F1F0C0B2014600901E2008F0DAFF0298B2
:102B500010B101286CD135E0B0480068401EAF4983
:102B6000086008460068012802DA4FF41670086011
:102B700009F010FAA94800680A2190FBF1F201FB64
:102B80001200C0B2014600901A2008F0BAFFA34814
:102B900000680A2190FBF1F090FBF1F201FB1200BA
:102BA000C0B2014600901C2008F0ABFF9B480068B3
:102BB000642190FBF1F0C0B2014600901E2008F0A5
:102BC000A0FF35E095480068401C9449086008461D
:102BD0000068B0F5167F01DD0120086009F0DAF920
:102BE0008E4800680A2190FBF1F201FB1200C0B28E
:102BF000014600901A2008F084FF884800680A21E6
:102C000090FBF1F090FBF1F201FB1200C0B2014623
:102C100000901C2008F075FF80480068642190FB3C
:102C2000F1F0C0B2014600901E2008F06AFF00BF1C
:102C300000BF8AE409F0F7F90421002008F033FF0F
:102C400001220821022008F0EBFE0321022008F0F7
:102C500042FF0821042008F026FF09F09BF9704884
:102C600000680A2190FBF1F201FB1200C0B201469C
:102C700000901A2008F045FF694800680A2190FB7F
:102C8000F1F090FBF1F201FB1200C0B2014600909E
:102C90001C2008F036FF62480068642190FBF1F0C8
:102CA000C0B2014600901E2008F02BFF029810B120
:102CB00001286CD135E05A480068401E5849086028
:102CC00008460068012802DA4FF41670086009F01F
:102CD00061F9534800680A2190FBF1F201FB1200F0
:102CE000C0B2014600901A2008F00BFF4C48006863
:102CF0000A2190FBF1F090FBF1F201FB1200C0B24F
:102D0000014600901C2008F0FCFE45480068642144
:102D100090FBF1F0C0B2014600901E2008F0F1FED9
:102D200035E03F480068401C3D490860084600689F
:102D3000B0F5167F01DD0120086009F02BF9384855
:102D400000680A2190FBF1F201FB1200C0B20146BB
:102D500000901A2008F0D5FE314800680A2190FB47
:102D6000F1F090FBF1F201FB1200C0B201460090BD
:102D70001C2008F0C6FE2A480068642190FBF1F090
:102D8000C0B2014600901E2008F0BBFE00BF00BF8D
:102D9000AAE409F048F90521002008F084FE012288
:102DA0000821022008F03CFE0321022008F093FED7
:102DB0000821042008F077FE09F0ECF819480068B3
:102DC0000A2190FBF1F201FB1200C0B20146009013
:102DD0001A2008F096FE029810B101283FD123E096
:102DE00010480068401E0F49086008460068002827
:102DF00001DA0120086009F0CDF80A4800680A21CC
:102E000090FBF1F201FB1200C0B2014600901A20C3
:102E100008F077FE23E000000403002008030020F0
:102E20000C0300201C030020FE480068401CFD49E4
:102E3000086008460068012801DD0020086009F0EC
:102E4000A9F8F84800680A2190FBF1F201FB120092
:102E5000C0B2014600901A2008F053FE00BF00BF28
:102E600042E409F0E0F800220821072008F0D8FD2C
:102E7000002208210A2008F0D3FD0021084608F0AE
:102E80002AFE01220821022008F0CAFD03210220A7
:102E900008F021FE0421084608F005FE0121172054
:102EA00008F083FE09F076F8DF4800680A2190FBFD
:102EB000F1F201FB1200C0B2014600901A2008F0A6
:102EC00020FE012211461C2008F0AAFDD648006809
:102ED0000A2190FBF1F090FBF1F201FB1200C0B26D
:102EE000014600901C2008F048FECF48006864218D
:102EF00090FBF1F0C0B2014600901E2008F001FEE8
:102F0000029810B1012839D139E0C7480068401E45
:102F1000C549086008460068002801DA00200860FA
:102F200009F038F8C04800680A2190FBF1F201FB73
:102F30001200C0B2014600901A2008F0E2FD012202
:102F400011461C2008F06CFDB74800680A2190FB70
:102F5000F1F090FBF1F201FB1200C0B201460090CB
:102F60001C2008F00AFEB0480068642190FBF1F0D4
:102F7000C0B2014600901E2008F0C3FD4FE0AA48F1
:102F80000068401CA8490860A8480068A84909686A
:102F9000401A032190FBF1F000EB8000A249096880
:102FA000B1EB400F0CDDA1480068A1490968401A47
:102FB000032190FBF1F000EB800040009A4908608B
:102FC00008F0E8FF984800680A2190FBF1F201FB45
:102FD0001200C0B2014600901A2008F092FD0122B2
:102FE00011461C2008F01CFD8F4800680A2190FB48
:102FF000F1F090FBF1F201FB1200C0B2014600902B
:103000001C2008F0BAFD88480068642190FBF1F0AC
:10301000C0B2014600901E2008F073FD00BF00BF43
:1030200038E409F000F80021084608F054FD0122B8
:103030000821022008F0F4FC0B21022008F04BFDCF
:103040000421084608F02FFD7A4800680A2190FB09
:10305000F1F201FB1200C0B20246012100901C20D7
:1030600008F0DEFC08F096FF00211A2008F085FD2C
:10307000704800680A2190FBF1F090FBF1F201FB2F
:103080001200C0B2014600901C2008F076FD69488D
:103090000068642190FBF1F0C0B2014600901E2050
:1030A00008F02FFD029810B1012839D139E06148AC
:1030B0000068401E5F49086008460068002801DA81
:1030C0000020086008F066FF5A4800680A2190FB5B
:1030D000F1F201FB1200C0B2014600901A2008F084
:1030E0004CFD012211461C2008F09AFC5148006852
:1030F0000A2190FBF1F090FBF1F201FB1200C0B24B
:10310000014600901C2008F038FD4A480068642100
:1031100090FBF1F0C0B2014600901E2008F0F1FCD7
:103120004FE044480068401C42490860424800683B
:1031300042490968401A032190FBF1F000EB80003E
:103140003C490968B1EB400F0CDD3B4800683B4946
:103150000968401A032190FBF1F000EB8000400069
:103160003449086008F016FF324800680A2190FBD5
:10317000F1F201FB1200C0B2014600901A2008F0E3
:10318000FCFC012211461C2008F04AFC294800687A
:103190000A2190FBF1F090FBF1F201FB1200C0B2AA
:1031A000014600901C2008F0E8FC224800686421D9
:1031B00090FBF1F0C0B2014600901E2008F0A1FC87
:1031C00000BF00BF86E408F02EFF0021084608F08B
:1031D0006AFC01220821022008F022FC03210220BF
:1031E00008F079FC0921042008F05DFC08F0D2FE0B
:1031F00013480078642190FBF1F201FB12000A21D0
:1032000090FBF1F201FB1200C0B2014600901A20BF
:1032100008F077FC0A480078642190FBF1F201FB8A
:1032200012000FE01C03002020030020E002002019
:10323000E402002028030020F0020020F402002015
:103240006F0200200A2190FBF1F0C0B2014600900D
:103250001C2008F056FCFE480078642190FBF1F039
:10326000C0B2014600901E2008F04BFC029810B13D
:10327000012876D13AE0F6480078401EF4490870FB
:1032800008460078012801DAFF20087008F082FE65
:10329000EF480078642190FBF1F201FB12000A2153
:1032A00090FBF1F201FB1200C0B2014600901A201F
:1032B00008F027FCE6480078642190FBF1F201FB5E
:1032C00012000A2190FBF1F0C0B2014600901C20D0
:1032D00008F017FCDE480078642190FBF1F0C0B2E2
:1032E000014600901E2008F00CFC3AE0D848007817
:1032F000401CD749087008460078FF2801DD0120EE
:10330000087008F047FED2480078642190FBF1F283
:1033100001FB12000A2190FBF1F201FB1200C0B286
:10332000014600901A2008F0ECFBC948007864219F
:1033300090FBF1F201FB12000A2190FBF1F0C0B208
:10334000014600901C2008F0DCFBC1480078642195
:1033500090FBF1F0C0B2014600901E2008F0D1FBB6
:1033600000BF00BF65E408F05EFE0121002008F008
:103370009AFB01220821022008F052FB03210220BF
:1033800008F0A9FB0921042008F08DFB08F002FEDB
:10339000B0480078642190FBF1F201FB12000A2191
:1033A00090FBF1F201FB1200C0B2014600901A201E
:1033B00008F0A7FBA7480078642190FBF1F201FB1D
:1033C00012000A2190FBF1F0C0B2014600901C20CF
:1033D00008F097FB9F480078642190FBF1F0C0B2A1
:1033E000014600901E2008F08CFB029810B10128C5
:1033F00076D13AE097480078401E96490870084612
:103400000078012801DAFF20087008F0C3FD914818
:103410000078642190FBF1F201FB12000A2190FB7D
:10342000F1F201FB1200C0B2014600901A2008F030
:1034300068FB88480078642190FBF1F201FB1200E0
:103440000A2190FBF1F0C0B2014600901C2008F068
:1034500058FB80480078642190FBF1F0C0B201462F
:1034600000901E2008F04DFB3AE07A480078401C9E
:103470007849087008460078FF2801DD01200870AF
:1034800008F088FD73480078642190FBF1F201FB9D
:1034900012000A2190FBF1F201FB1200C0B20146BA
:1034A00000901A2008F02DFB6A480078642190FBF8
:1034B000F1F201FB12000A2190FBF1F0C0B20146CB
:1034C00000901C2008F01DFB62480078642190FBEE
:1034D000F1F0C0B2014600901E2008F012FB00BFC0
:1034E00000BF55E408F09FFD0221002008F0DBFA40
:1034F00001220821022008F093FA0321022008F09B
:10350000EAFA0921042008F0CEFA08F043FD5248F7
:103510000078642190FBF1F201FB12000A2190FB7C
:10352000F1F201FB1200C0B2014600901A2008F02F
:10353000E8FA49480078642190FBF1F201FB12009F
:103540000A2190FBF1F0C0B2014600901C2008F067
:10355000D8FA41480078642190FBF1F0C0B20146EE
:1035600000901E2008F0CDFA029810B101287ED1FB
:103570003AE039480078401E37490870084600781C
:10358000012801DAFF20087008F004FD32480078B5
:10359000642190FBF1F201FB12000A2190FBF1F291
:1035A00001FB1200C0B2014600901A2008F0A9FAEF
:1035B00029480078642190FBF1F201FB12000A21F6
:1035C00090FBF1F0C0B2014600901C2008F099FA7F
:1035D00021480078642190FBF1F0C0B201460090D0
:1035E0001E2008F08EFA42E01B480078401C1A4961
:1035F000087008460078FF2801DD0120087008F0F7
:10360000C9FC15480078642190FBF1F201FB12001F
:103610000A2190FBF1F201FB1200C0B201460090BA
:103620001A2008F06EFA0C480078642190FBF1F241
:1036300001FB12000A2190FBF1F0C0B2014600909C
:103640001C2008F05EFA04480078642106E00000BF
:103650006F020020700200207102002090FBF1F048
:10366000C0B2014600901E2008F04BFA00BF00BF18
:10367000D8E208F0D8FC0321002008F014FA012257
:103680000821022008F0CCF90321022008F023FAD7
:103690000921042008F007FA08F07CFCFE480078B5
:1036A000642190FBF1F201FB12000A2190FBF1F280
:1036B00001FB1200C0B2014600901A2008F021FA66
:1036C000F5480078642190FBF1F201FB12000A2119
:1036D00090FBF1F0C0B2014600901C2008F011FAF6
:1036E000ED480078642190FBF1F0C0B201460090F3
:1036F0001E2008F006FA029810B1012876D13AE0AF
:10370000E5480078401EE449087008460078012822
:1037100001DAFF20087008F03DFCDF4800786421E2
:1037200090FBF1F201FB12000A2190FBF1F201FB88
:103730001200C0B2014600901A2008F0E2F9D64803
:103740000078642190FBF1F201FB12000A2190FB4A
:10375000F1F0C0B2014600901C2008F0D2F9CE482A
:103760000078642190FBF1F0C0B2014600901E2069
:1037700008F0C7F93AE0C8480078401CC64908700C
:1037800008460078FF2801DD0120087008F002FCDF
:10379000C1480078642190FBF1F201FB12000A217C
:1037A00090FBF1F201FB1200C0B2014600901A201A
:1037B00008F0A7F9B8480078642190FBF1F201FB0A
:1037C00012000A2190FBF1F0C0B2014600901C20CB
:1037D00008F097F9B0480078642190FBF1F0C0B28E
:1037E000014600901E2008F08CF900BF00BFA3E343
:1037F00008F019FC0021084608F055F901220821BB
:10380000022008F00DF90321022008F064F90521D7
:10381000042008F048F90121172008F0C6F908F043
:10382000B9FB9E48006800280ADA01220821072017
:1038300008F0F6F89948006840429949086008E0A5
:10384000964800689649086000220821072008F081
:10385000E7F8934800680A2190FBF1F201FB12009F
:10386000C0B2014600901A2008F04BF9012211461F
:103870001C2008F0D5F88A4800680A2190FBF1F076
:1038800090FBF1F201FB1200C0B2014600901C2037
:1038900008F073F982480068642190FBF1F0C0B22F
:1038A000014600901E2008F02CF9029810B1012862
:1038B00053D153E079480068401E784908600846B3
:1038C000006810F1640F02DA6FF06300086073485B
:1038D000006800280ADA01220821072008F0A0F871
:1038E0006E48006840426E49086008E06B48006816
:1038F0006B49086000220821072008F091F808F0C1
:1039000049FB674800680A2190FBF1F201FB1200B5
:10391000C0B2014600901A2008F0F3F801221146C7
:103920001C2008F07DF85E4800680A2190FBF1F049
:1039300090FBF1F201FB1200C0B2014600901C2086
:1039400008F01BF956480068642190FBF1F0C0B202
:10395000014600901E2008F0D4F851E04F4800685E
:10396000401C4E49086008460068642801DD642058
:1039700008604A48006800280ADA01220821072066
:1039800008F04EF84548006840424549086008E0A4
:10399000424800684249086000220821072008F0D8
:1039A0003FF808F0F7FA3E4800680A2190FBF1F270
:1039B00001FB1200C0B2014600901A2008F0A1F8E5
:1039C000012211461C2008F02BF8354800680A2116
:1039D00090FBF1F090FBF1F201FB1200C0B2014646
:1039E00000901C2008F0C9F82D480068642190FB65
:1039F000F1F0C0B2014600901E2008F082F800BF2E
:103A000000BF99E208F00FFB0021084608F04BF8D0
:103A100001220821022008F003F80B21022008F0FF
:103A20005AF80521042008F03EF808F0B3FA1D48C2
:103A3000006800280ADA01220821072007F0F0FFB9
:103A40001848006840421849086008E015480068B6
:103A50001549086000220821072007F0E1FF1248FD
:103A600000680A2190FBF1F201FB1200C0B201468E
:103A700000901A2008F081F8012211461C2007F05E
:103A8000CFFF094800680A2190FBF1F090FBF1F2AA
:103A900001FB1200C0B209E07202002050030020B6
:103AA00054030020580300205C03002001460090CE
:103AB0001C2008F062F8FB480068642190FBF1F0DC
:103AC000C0B2014600901E2008F01BF8029810B109
:103AD000012853D153E0F4480068401EF2490860C1
:103AE0000846006810F1640F02DA6FF063000860A6
:103AF000ED48006800280ADA01220821072007F0B3
:103B00008FFFE94800684042E649086008E0E6485F
:103B10000068E449086000220821072007F080FFC0
:103B200008F038FADF4800680A2190FBF1F201FB47
:103B30001200C0B2014600901A2008F01EF80122BF
:103B400011461C2007F06CFFD64800680A2190FB44
:103B5000F1F090FBF1F201FB1200C0B201460090BF
:103B60001C2008F00AF8CF480068642190FBF1F0AF
:103B7000C0B2014600901E2007F0C3FF51E0CA48C2
:103B80000068401CC849086008460068642801DDD8
:103B900064200860C448006800280ADA012208216D
:103BA000072007F03DFFC04800684042BD4908605B
:103BB00008E0BD480068BB490860002208210720D2
:103BC00007F02EFF08F0E6F9B64800680A2190FBDE
:103BD000F1F201FB1200C0B2014600901A2007F07A
:103BE000CCFF012211461C2007F01AFFAD480068E7
:103BF0000A2190FBF1F090FBF1F201FB1200C0B240
:103C0000014600901C2007F0B8FFA6480068642118
:103C100090FBF1F0C0B2014600901E2007F071FF4A
:103C200000BF00BF88E108F0FEF90421002007F082
:103C30003AFF01220821022007F0F2FE03210220B0
:103C400007F049FF0921042007F02DFF08F0A2F931
:103C500008F0F5F99548008842F2107190FBF1F0F8
:103C6000C0B2014600900B2007F0E2FD8F480088AB
:103C700042F2107190FBF1F201FB12004FF47A71E5
:103C800090FBF1F0C0B2014600900D2007F0D0FD8E
:103C9000864800884FF47A7190FBF1F201FB120024
:103CA000642190FBF1F0C0B2014600900F2007F0B4
:103CB000BFFD7E480088642190FBF1F201FB1200F9
:103CC0000A2190FBF1F0C0B201460090112007F0EC
:103CD000AFFD764800880A2190FBF1F201FB12004B
:103CE000C0B201460090132007F0A2FD029810B167
:103CF00001285AD15AE06D480088401E6B4908805F
:103D000008460088012802DA4FF6FF70088008F0A4
:103D100096F96648008842F2107190FBF1F0C0B24B
:103D2000014600900B2007F083FD6048008842F2B6
:103D3000107190FBF1F201FB12004FF47A7190FBCD
:103D4000F1F0C0B2014600900D2007F071FD574818
:103D500000884FF47A7190FBF1F201FB12006421AC
:103D600090FBF1F0C0B2014600900F2007F060FD1B
:103D70004E480088642190FBF1F201FB12000A21F9
:103D800090FBF1F0C0B201460090112007F050FD09
:103D9000464800880A2190FBF1F201FB1200C0B2F4
:103DA00001460090132007F043FD5AE03F48008889
:103DB000401C3E49088008460088B0F5803F01DB82
:103DC0000120088008F03BF93848008842F2107161
:103DD00090FBF1F0C0B2014600900B2007F028FDE7
:103DE0003248008842F2107190FBF1F201FB1200A0
:103DF0004FF47A7190FBF1F0C0B2014600900D20B3
:103E000007F016FD294800884FF47A7190FBF1F213
:103E100001FB1200642190FBF1F0C0B2014600905A
:103E20000F2007F005FD21480088642190FBF1F286
:103E300001FB12000A2190FBF1F0C0B20146009094
:103E4000112007F0F5FC194800880A2190FBF1F2D7
:103E500001FB1200C0B201460090132007F0E8FCFD
:103E600000BF00BF68E008F0DEF80421002007F082
:103E700032FE0621022007F02EFE0521042007F065
:103E800012FE08F0DCF808F085F8094800780146D1
:103E900000901A2007F035FE029858B1012833D15E
:103EA0001DE000005C030020580300207402002085
:103EB00014030020FE480068401EFD4908600846C3
:103EC0000068012801DA0420086008F063F8F84867
:103ED0000078014600901A2007F013FE14E0F44821
:103EE0000068401CF249086008460068042801DDAB
:103EF0000120086008F04EF8ED4800780146009077
:103F00001A2007F0FEFD00BF00BF15E008F08BF897
:103F10000621022007F0C7FD0121042007F0C3FDA0
:103F200008F038F80120E34908600020E249086001
:103F30000120E249086000BF00BF0EBD03B583B099
:103F400003981A2882F01F83DFE810F01A001C0083
:103F5000D400C901460244034D040205B2051A0605
:103F600095062207A9076308120971093A0AF60A99
:103F7000FE0BFC0CF40DF90E03101611BF12071303
:103F800002F001BB08F04FF80021084607F0A3FD3E
:103F900001220821022007F043FD0121022007F041
:103FA00082FD0121042007F07EFD07F0F3FFC448E5
:103FB00000686421B0FBF1F201FB12000A21B0FBA2
:103FC000F1F201FB1200014602901A2007F099FD60
:103FD000BB4800686421B0FBF1F201FB12000A212A
:103FE000B0FBF1F0014602901C2007F08AFDB448B6
:103FF00000686421B0FBF1F0C0B2014602901E20BF
:1040000007F07FFD049810B1012871D137E0AC486A
:104010000068401EAA4908600846006808B9FE20EA
:10402000086007F0B7FFA64800686421B0FBF1F212
:1040300001FB12000A21B0FBF1F201FB1200014664
:1040400002901A2007F05DFD9D4800686421B0FBD6
:10405000F1F201FB12000A21B0FBF1F001460290DF
:104060001C2007F04EFD964800686421B0FBF1F07B
:10407000C0B2014602901E2007F043FD38E0904890
:104080000068401C8E49086008460068FE2801D977
:104090000120086007F07EFF894800686421B0FBBA
:1040A000F1F201FB12000A21B0FBF1F201FB120058
:1040B000014602901A2007F024FD8148006864211F
:1040C000B0FBF1F201FB12000A21B0FBF1F0014656
:1040D00002901C2007F015FD794800686421B0FBB0
:1040E000F1F0C0B2014602901E2007F00AFD00BFA9
:1040F00000BF45E707F097FF0221002007F0EBFC27
:1041000001220821022007F08BFC01220821022055
:1041100007F0C4FB0121022007F0DDFC022104208E
:1041200007F0C1FC07F036FF66486749096850F898
:1041300021006649086008460068642190FBF1F0A0
:104140000A2190FBF1F201FB1200C0B2014602907D
:104150001A2007F0D6FC5D480068642190FBF1F05E
:104160000A2190FBF1F090FBF1F201FB1200C0B2CA
:10417000014602901C2007F0C4FC5448006842F23B
:10418000107190FBF1F0C0B2014602901E2007F0C2
:10419000B8FC049810B1012846D146E04A480068AE
:1041A000401E4949086008460068002801DA0420DA
:1041B000086044484449096850F8210043490860B0
:1041C000084600680AF097FA07F0E4FE3F480068E6
:1041D000642190FBF1F00A2190FBF1F201FB120047
:1041E000C0B2014602901A2007F08BFC37480068E5
:1041F000642190FBF1F00A2190FBF1F090FBF1F2C9
:1042000001FB1200C0B2014602901C2007F079FCAD
:104210002E48006842F2107190FBF1F0C0B20146E6
:1042200002901E2007F06DFC57E027480068401CF4
:104230002549086008460068042801DD0020086060
:1042400020482149096850F82100204908600846A3
:1042500000680AF050FA07F09DFE1C4800686421CF
:1042600090FBF1F00A2190FBF1F201FB1200C0B2C9
:10427000014602901A2007F044FC144800686421AB
:1042800090FBF1F00A2190FBF1F090FBF1F201FBC1
:104290001200C0B2014602901C2007F032FC0B480D
:1042A000006842F2107190FBF1F0C0B201460FE0DD
:1042B00014030020800300206C03002088030020EA
:1042C000BC020020C8020020C4020020C00200205E
:1042D00002901E2007F015FC00BF00BF50E607F05B
:1042E000A2FE0821002007F0F6FB0122082102208F
:1042F00007F096FB0721022007F0EDFB03210420C5
:1043000007F0D1FBFE48006801280AD107F042FE01
:104310000A211A2007F00BFC00211C2007F0F1FBFA
:104320000DE007F037FE05211A2007F000FC0521FB
:104330001C2007F0FCFB00211E2007F0E2FB049884
:1043400010B1012846D122E0ED48006868B901208B
:10435000EB49086007F01EFE0A211A2007F0E7FB70
:1043600000211C2007F0CDFB10E00020E44908608C
:1043700007F010FE05211A2007F0D9FB05211C20AB
:1043800007F0D5FB00211E2007F0BBFB22E0DC4834
:10439000006868B90120DA49086007F0FBFD0A21CE
:1043A0001A2007F0C4FB00211C2007F0AAFB10E034
:1043B0000020D349086007F0EDFD05211A2007F021
:1043C000B6FB05211C2007F0B2FB00211E2007F0E0
:1043D00098FB00BF00BFD3E507F025FE0B210020AE
:1043E00007F079FB01220821022007F019FB0321C5
:1043F000022007F070FB0421084607F054FB01215E
:10440000172007F0D2FB07F0C5FDBE480068002862
:104410000ADA01220821072007F002FBB9480068E8
:104420004042B949086008E0B6480068B6490860EB
:1044300000220821072007F0F3FA00211A2007F0D4
:1044400060FB012211461C2007F0EAFAAE48006822
:104450000A2190FBF1F201FB1200C0B2014602906A
:104460001C2007F08AFBA84800680A2190FBF1F0A5
:10447000C0B2014602901E2007F043FB049810B121
:10448000012875D175E0A14800689E4909688842F5
:1044900026DD07F07FFD9B48006800280ADA01222C
:1044A0000821072007F0BCFA964800684042964968
:1044B000086008E0934800689349086000220821DA
:1044C000072007F0ADFA08211A2007F030FB082179
:1044D0001C2007F02CFB06211E2007F028FB47E0DC
:1044E00088480068401E874908600846006810F147
:1044F000280F02DA6FF02700086007F04BFD8148B3
:10450000006800280ADA01220821072007F088FA4B
:104510007C48006840427C49086008E079480068AF
:104520007949086000220821072007F079FA002164
:104530001A2007F0E6FA012211461C2007F070FA53
:10454000714800680A2190FBF1F201FB1200C0B231
:10455000014602901C2007F010FB6B4800680A21FE
:1045600090FBF1F0C0B2014602901E2007F0C9FA9C
:104570002EE064480068401C6249086008460068F4
:10458000502801DD5020086007F004FD00211A20AA
:1045900007F0B7FA012211461C2007F041FA5A48E9
:1045A00000680A2190FBF1F201FB1200C0B2014643
:1045B00002901C2007F0E1FA534800680A2190FBA2
:1045C000F1F0C0B2014602901E2007F09AFA00BF37
:1045D00000BFD5E407F027FD0421002007F07BFA97
:1045E00001220821022007F01BFA0321022007F014
:1045F00072FA0521042007F056FA0121172007F06E
:10460000D4FA07F0C7FC4148006800280ADA012202
:104610000821072007F004FA3C48006840423C4962
:10462000086008E03948006839490860002208211C
:10463000072007F0F5F900211A2007F062FA01229D
:1046400011461C2007F0ECF9314800680A2190FB64
:10465000F1F201FB1200C0B2014602901C2007F0EB
:104660008CFA2B4800680A2190FBF1F0C0B2014699
:1046700002901E2007F045FA049810B1012853D18A
:1046800053E022480068401E204908600846006840
:1046900010F1280F02DA6FF02700086007F07AFCAB
:1046A0001A48006800280ADA01220821072007F0CA
:1046B000B7F91648006840421549086008E01348F9
:1046C00000681349086000220821072007F0A8F9B4
:1046D00000211A2007F015FA012211461C2007F0CC
:1046E0009FF90B4800680A2190FBF1F201FB1200D0
:1046F000C0B2014602901C2007F03FFA044809E0CE
:10470000DC020020E0020020EC020020E402002095
:10471000E802002000680A2190FBF1F0C0B20146D7
:1047200002901E2007F0EDF95BE0F7480068F749BA
:10473000096888420EDD07F02DFC08211A2007F0D9
:10474000F6F908211C2007F0F2F906211E2007F0D7
:10475000EEF945E0EC480068401CEB49086008466B
:104760000068502801DD5020086007F013FCE6487F
:10477000006800280ADA01220821072007F050F912
:10478000E14800684042E249086008E0DE4800680D
:10479000DF49086000220821072007F041F90021C5
:1047A0001A2007F0AEF9012211461C2007F038F953
:1047B000D74800680A2190FBF1F201FB1200C0B259
:1047C000014602901C2007F0D8F9D14800680A2160
:1047D00090FBF1F0C0B2014602901E2007F091F963
:1047E00000BF00BF85E400220821072007F018F968
:1047F00007F019FC0B21002007F06DF901220821B8
:10480000022007F00DF90B21022007F064F90621C0
:10481000042007F048F907F0BDFB00211A2007F03B
:10482000ACF9012211461C2007F0FAF8B9480068DB
:104830000A2190FBF1F201FB1200C0B20146029086
:104840001C2007F09AF9B34800680A2190FBF1F0A8
:10485000C0B2014602901E2007F053F9049810B12F
:10486000012873D143E0AB480068AB49096888422E
:104870000EDA07F08FFB08211A2007F058F90821FB
:104880001C2007F054F906211E2007F050F92DE0F6
:10489000A0480068401E9F4908600846006800283C
:1048A00001DA0120086007F075FB00211A2007F0EB
:1048B00064F9012211461C2007F0B2F895480068FF
:1048C0000A2190FBF1F201FB1200C0B201460290F6
:1048D0001C2007F052F98F4800680A2190FBF1F084
:1048E000C0B2014602901E2007F00BF92EE0894865
:1048F0000068401C8749086008460068632801DD9D
:104900006320086007F046FB00211A2007F035F904
:10491000012211461C2007F083F87E4800680A2116
:1049200090FBF1F201FB1200C0B2014602901C2084
:1049300007F023F9774800680A2190FBF1F0C0B234
:10494000014602901E2007F0DCF800BF00BFC5E45E
:1049500007F069FB0421002007F0BDF801220821BF
:10496000022007F05DF80B21022007F0B4F80721C0
:10497000042007F098F807F00DFB00211A2007F03B
:10498000FCF8012211461C2007F04AF86248006832
:104990000A2190FBF1F201FB1200C0B20146029025
:1049A0001C2007F0EAF85C4800680A2190FBF1F04F
:1049B000C0B2014602901E2007F0A3F8049810B17F
:1049C000012873D12EE054480068401E5249086007
:1049D00008460068002801DA0020086007F0DAFACB
:1049E00000211A2007F0C9F8012211461C2007F007
:1049F00017F8494800680A2190FBF1F201FB120008
:104A0000C0B2014602901C2007F0B7F84248006887
:104A10000A2190FBF1F0C0B2014602901E2007F07F
:104A200070F843E03B4800683B49096888420EDA69
:104A300007F0B0FA08211A2007F079F808211C20A5
:104A400007F075F806211E2007F071F82DE03248B6
:104A50000068401C3049086008460068632801DD92
:104A60006320086007F096FA00211A2007F085F805
:104A7000012211461C2006F0D3FF274800680A21B6
:104A800090FBF1F201FB1200C0B2014602901C2023
:104A900007F073F8204800680A2190FBF1F0C0B2DB
:104AA000014602901E2007F02CF800BF00BF15E45D
:104AB00007F0B9FA0521002007F00DF801220821BE
:104AC000022006F0ADFF0321022007F004F80821C0
:104AD000042006F0E8FF0121172007F066F807F030
:104AE00059FA0E480068012804D105211C2007F05E
:104AF0001EF803E003211C2007F019F8049878B190
:104B000001283BD123E00000E4020020E002002065
:104B1000E8020020F0020020F4020020F802002049
:104B2000FE48006848B90120FC49086007F032FAE5
:104B300005211C2006F0FBFF08E00020F749086073
:104B400007F028FA03211C2006F0F1FF16E0F348D5
:104B5000006848B90120F149086007F01BFA0521F7
:104B60001C2006F0E4FF08E00020EC49086007F094
:104B700011FA03211C2006F0DAFF00BF00BF2AE46F
:104B800007F051FA0821002006F0A5FF01220821B4
:104B9000022006F045FF0521022006F09CFF0921B6
:104BA000042006F080FF07F0F5F9DD4800680128D1
:104BB00008D10A211A2006F0BAFF00211C2006F0B5
:104BC000A0FF0BE005211A2006F0B1FF05211C20F3
:104BD00006F0ADFF00211E2006F093FF049810B1EF
:104BE000012846D122E0CE48006868B90120CC49AE
:104BF000086007F0CFF90A211A2006F098FF00217B
:104C00001C2006F07EFF10E00020C549086007F078
:104C1000C1F905211A2006F08AFF05211C2006F0A3
:104C200086FF00211E2006F06CFF22E0BC480068D1
:104C300068B90120BA49086007F0ACF90A211A20C6
:104C400006F075FF00211C2006F05BFF10E000203D
:104C5000B349086007F09EF905211A2006F067FFA6
:104C600005211C2006F063FF00211E2006F049FFED
:104C700000BF00BFADE407F0D6F90121002006F027
:104C800012FF01220821022006F0CAFE00210220A4
:104C900006F009FF0321042006F01DFF07F07AF952
:104CA000A048006838B90A211A2006F040FF002108
:104CB0001C2006F026FF9B48006801280BD1052127
:104CC0001A2006F034FF05211C2006F030FF0021D9
:104CD0001E2006F016FF049810B1012856D12AE0D4
:104CE00090480068401E8F49086008460068002808
:104CF00001DA012008608B48006848B907F04AF9DA
:104D00000A211A2006F013FF00211C2006F0F9FEEC
:104D10008448006801280DD107F03CF905211A20CC
:104D200006F005FF05211C2006F001FF00211E20D2
:104D300006F0E7FE2AE07B480068401C79490860DD
:104D400008460068012801DD0020086075480068F9
:104D500048B907F01FF90A211A2006F0E8FE0021E1
:104D60001C2006F0CEFE6F48006801280DD107F028
:104D700011F905211A2006F0DAFE05211C2006F0A3
:104D8000D6FE00211E2006F0BCFE00BF00BF20E4BE
:104D900007F049F90221002006F085FE01220821D2
:104DA000022006F03DFE0021022006F07CFE0321D9
:104DB000042006F090FE07F0EDF85B48006801283B
:104DC0000CD103211A2006F0B2FE09211C2006F0A6
:104DD000AEFE03211E2006F0AAFE0BE000211A20E1
:104DE00006F0A5FE08211C2006F0A1FE00211E20D1
:104DF00006F087FE049810B101284ED126E04A48FB
:104E0000006888B901204849086007F0C3F8032109
:104E10001A2006F08CFE09211C2006F088FE0321D2
:104E20001E2006F084FE10E000203F49086007F0D5
:104E3000B1F800211A2006F07AFE08211C2006F0A5
:104E400076FE00211E2006F05CFE26E03648006853
:104E500088B901203449086007F09CF803211A2022
:104E600006F065FE09211C2006F061FE03211E20CC
:104E700006F05DFE10E000202B49086007F08AF87C
:104E800000211A2006F053FE08211C2006F04FFED8
:104E900000211E2006F035FE00BF00BFA2E407F08F
:104EA000C2F80321002006F0FEFD012208210220A5
:104EB00006F0B6FD0021022006F0F5FD03210420D6
:104EC00006F009FE07F066F8184800680A2190FB12
:104ED000F1F201FB1200C0B2014602901A2006F066
:104EE00010FE124800680A2190FBF1F090FBF1F2ED
:104EF00001FB1200C0B2014602901C2006F001FE28
:104F00000A480068642190FBF1F0C0B201460290AB
:104F10001E2006F0F6FD049868B109E0F8020020B2
:104F2000FC020020000300200403002008030020EE
:104F300001286CD135E0FE480068401EFC4908603D
:104F400008460068012802DA4FF41670086007F07E
:104F500021F8F74800680A2190FBF1F201FB1200EA
:104F6000C0B2014602901A2006F0CBFDF04800685E
:104F70000A2190FBF1F090FBF1F201FB1200C0B2AC
:104F8000014602901C2006F0BCFDE948006864213F
:104F900090FBF1F0C0B2014602901E2006F0B1FD78
:104FA00035E0E3480068401CE149086008460068B5
:104FB000B0F5167F01DD0120086006F0EBFFDC484C
:104FC00000680A2190FBF1F201FB1200C0B2014619
:104FD00002901A2006F095FDD54800680A2190FB42
:104FE000F1F090FBF1F201FB1200C0B20146029019
:104FF0001C2006F086FDCE480068642190FBF1F08D
:10500000C0B2014602901E2006F07BFD00BF00BF2B
:105010009DE407F008F80421002006F044FD012279
:105020000821022006F0FCFC0021022006F03BFDD6
:105030000321042006F04FFD06F0ACFFBD480068D8
:105040000A2190FBF1F201FB1200C0B2014602906E
:105050001A2006F056FDB74800680A2190FBF1F0CF
:1050600090FBF1F201FB1200C0B2014602901C203D
:1050700006F047FDAF480068642190FBF1F0C0B234
:10508000014602901E2006F03CFD049810B1012854
:105090006CD135E0A7480068401EA6490860084664
:1050A0000068012802DA4FF41670086006F072FFFB
:1050B000A04800680A2190FBF1F201FB1200C0B287
:1050C000014602901A2006F01CFD9A4800680A2149
:1050D00090FBF1F090FBF1F201FB1200C0B201462F
:1050E00002901C2006F00DFD92480068642190FBA0
:1050F000F1F0C0B2014602901E2006F002FD35E03C
:105100008C480068401C8B49086008460068B0F570
:10511000167F01DD0120086006F03CFF854800682D
:105120000A2190FBF1F201FB1200C0B2014602908D
:105130001A2006F0E6FC7F4800680A2190FBF1F097
:1051400090FBF1F201FB1200C0B2014602901C205C
:1051500006F0D7FC77480068642190FBF1F0C0B2FC
:10516000014602901E2006F0CCFC00BF00BF9EE46A
:1051700006F059FF0521002006F095FC01220821C8
:10518000022006F04DFC0021022006F08CFC0321D9
:10519000042006F0A0FC06F0FDFE674800680A2126
:1051A00090FBF1F201FB1200C0B2014602901A20FE
:1051B00006F0A7FC049810B1012836D11AE05E4829
:1051C0000068401E5C49086008460068002801DA53
:1051D0000120086006F0DEFE574800680A2190FBB7
:1051E000F1F201FB1200C0B2014602901A2006F053
:1051F00088FC1AE050480068401C4F490860084687
:105200000068012801DD0020086006F0C3FE4A485E
:1052100000680A2190FBF1F201FB1200C0B20146C6
:1052200002901A2006F06DFC00BF00BF3FE406F0BC
:10523000FAFE0621002006F036FC01220821022099
:1052400006F0EEFB0021022006F02DFC03210420D5
:1052500006F041FC0121172006F0A7FC06F09AFE9B
:10526000364800680A2190FBF1F201FB1200C0B23F
:10527000014602901A2006F044FC012211461C202F
:1052800006F0CEFB2D4800680A2190FBF1F090FB60
:10529000F1F201FB1200C0B2014602901C2006F0A0
:1052A0006CFC26480068642190FBF1F0C0B2014616
:1052B00002901E2006F025FC049810B101287DD133
:1052C00042E01E480068401E1C490860084600680D
:1052D000002801DA0020086006F05CFE174800682C
:1052E0000A2190FBF1F201FB1200C0B201460290CC
:1052F0001A2006F006FC012211461C2006F090FB45
:105300000E4800680A2190FBF1F090FBF1F201FBDE
:105310001200C0B2014602901C2006F02EFC074885
:105320000068642190FBF1F0C0B20146029007E0F2
:10533000080300200C0300201C0300202003002091
:105340001E2006F0DEFB39E0FA480068401CF949EF
:10535000086008460068782801DD7820086006F0BB
:1053600019FEF44800680A2190FBF1F201FB1200DB
:10537000C0B2014602901A2006F0C3FB012211467A
:105380001C2006F04DFBEB4800680A2190FBF1F071
:1053900090FBF1F201FB1200C0B2014602901C200A
:1053A00006F0EBFBE3480068642190FBF1F0C0B22B
:1053B000014602901E2006F0A4FB00BF00BF59E486
:1053C00006F031FE0721002006F06DFB01220821C6
:1053D000022006F025FB0021022006F064FB0321D9
:1053E000042006F078FBD44800680A2190FBF1F213
:1053F00001FB1200C0B20246012102901C2006F0FF
:105400000FFB06F0C7FD00211A2006F0B6FBCA48C4
:1054100000680A2190FBF1F090FBF1F201FB120011
:10542000C0B2014602901C2006F0A7FBC2480068EB
:10543000642190FBF1F0C0B2014602901E2006F0FC
:1054400060FB049810B1012874D139E0BA480068B3
:10545000401EB949086008460068002801DA0020AB
:10546000086006F097FDB44800680A2190FBF1F24D
:1054700001FB1200C0B2014602901A2006F07DFB2B
:10548000012211461C2006F0CBFAAB4800680A2125
:1054900090FBF1F090FBF1F201FB1200C0B201466B
:1054A00002901C2006F069FBA3480068642190FB71
:1054B000F1F0C0B2014602901E2006F022FB39E056
:1054C0009D480068401C9C490860084600686428A4
:1054D00001DD6420086006F05DFD974800680A2140
:1054E00090FBF1F201FB1200C0B2014602901A20BB
:1054F00006F043FB012211461C2006F091FA8E486B
:1055000000680A2190FBF1F090FBF1F201FB120020
:10551000C0B2014602901C2006F02FFB86480068AE
:10552000642190FBF1F0C0B2014602901E2006F00B
:10553000E8FA00BF00BF2AE406F075FD082100204C
:1055400006F0B1FA01220821022006F069FA0021D2
:10555000022006F0A8FA0321042006F0BCFA01217B
:10556000172006F022FB06F015FD7448006800289D
:105570000ADA01220821072006F052FA6F48006873
:1055800040426F49086008E06C4800686C49086058
:1055900000220821072006F043FA00211A2006F015
:1055A000B0FA012211461C2006F03AFA644800685D
:1055B0000A2190FBF1F201FB1200C0B201460290F9
:1055C0001C2006F0DAFA5E4800680A2190FBF1F030
:1055D000C0B2014602901E2006F093FA049810B162
:1055E000012875D175E05548006856490968884218
:1055F00026DD06F0CFFC5148006800280ADA0122B7
:105600000821072006F00CFA4C48006840424C493B
:10561000086008E0494800684949086000220821FC
:10562000072006F0FDF908211A2006F080FA08216B
:105630001C2006F07CFA06211E2006F078FA47E0CE
:105640003E480068401E3D4908600846006810F169
:10565000280F02DA6FF02700086006F09BFC37483D
:10566000006800280ADA01220821072006F0D8F98C
:105670003248006840423249086008E02F4800681C
:105680002F49086000220821072006F0C9F90021EF
:105690001A2006F036FA012211461C2006F0C0F945
:1056A000274800680A2190FBF1F201FB1200C0B20A
:1056B000014602901C2006F060FA214800680A2189
:1056C00090FBF1F0C0B2014602901E2006F019FADC
:1056D0002EE01A480068401C184908600846006817
:1056E000502801DD5020086006F054FC00211A20EB
:1056F00006F007FA012211461C2006F091F9104825
:1057000000680A2190FBF1F201FB1200C0B20146D1
:1057100002901C2006F031FA094800680A2190FB2B
:10572000F1F0C0B2014602901E2006F0EAF900BF77
:1057300000BF6DE420030020280300203003002078
:10574000340300203803002006F06DFC09210020FE
:1057500006F0A9F901220821022006F061F90021D2
:10576000022006F0A0F90321042006F0B4F901217B
:10577000172006F01AFA06F00DFCFE480068002813
:105780000ADA01220821072006F04AF9F9480068E0
:105790004042F949086008E0F6480068F6490860A8
:1057A00000220821072006F03BF900211A2006F00C
:1057B000A8F9012211461C2006F032F9EE480068D3
:1057C0000A2190FBF1F201FB1200C0B201460290E7
:1057D0001C2006F0D2F9E84800680A2190FBF1F09D
:1057E000C0B2014602901E2006F08BF9049810B159
:1057F000012875D175E0E1480068DE4909688842F2
:1058000026DD06F0C7FBDB48006800280ADA012223
:105810000821072006F004F9D64800684042D6491E
:10582000086008E0D3480068D349086000220821D6
:10583000072006F0F5F808211A2006F078F908216B
:105840001C2006F074F906211E2006F070F947E0CE
:10585000C8480068401EC74908600846006810F143
:10586000280F02DA6FF02700086006F093FBC148AA
:10587000006800280ADA01220821072006F0D0F883
:10588000BC4800684042BC49086008E0B94800686C
:10589000B949086000220821072006F0C1F800215C
:1058A0001A2006F02EF9012211461C2006F0B8F845
:1058B000B14800680A2190FBF1F201FB1200C0B26E
:1058C000014602901C2006F058F9AB4800680A21F6
:1058D00090FBF1F0C0B2014602901E2006F011F9D3
:1058E0002EE0A4480068401CA249086008460068F1
:1058F000502801DD5020086006F04CFB00211A20E2
:1059000006F0FFF8012211461C2006F089F89A489B
:1059100000680A2190FBF1F201FB1200C0B20146BF
:1059200002901C2006F029F9934800680A2190FB98
:10593000F1F0C0B2014602901E2006F0E2F800BF6E
:1059400000BF14E406F06FFB0021084606F0ABF838
:1059500001220821022006F063F80121022006F04E
:10596000A2F80321042006F0B6F806F013FB8448E1
:10597000006800280ADA01220821072006F050F802
:105980007F48006840427F49086008E07C48006822
:105990007C49086000220821072006F041F8002118
:1059A0001A2006F0EAF8012211461C2006F038F809
:1059B000744800680A2190FBF1F201FB1200C0B2AA
:1059C000014602901C2006F0D8F86E4800680A21B3
:1059D00090FBF1F0C0B2014602901E2006F091F853
:1059E000049810B1012873D173E0654800686649D6
:1059F0000968884226DD06F0CDFA61480068002873
:105A00000ADA01220821072006F00AF85C4800683B
:105A100040425C49086008E05948006859490860FC
:105A200000220821072005F0FBFF08211A2006F0BC
:105A30007EF808211C2006F07AF806211E2006F0C8
:105A400076F845E04E480068401E4D49086008461B
:105A50000068002801DA0020086006F09BFA484838
:105A6000006800280ADA01220821072005F0D8FF83
:105A70004348006840424349086008E040480068E5
:105A80004049086000220821072005F0C9FF0021D5
:105A90001A2006F072F8012211461C2005F0C0FF02
:105AA000384800680A2190FBF1F201FB1200C0B2F5
:105AB000014602901C2006F060F8324800680A2176
:105AC00090FBF1F0C0B2014602901E2006F019F8DA
:105AD0002EE02B480068401C2949086008460068F1
