:020000040800F2
:10000000F810002041E80008850F0008870F00085D
:100010008B0F00088F0F0008930F000800000000EE
:10002000000000000000000000000000970F000822
:10003000990F0008000000009B0F00089D0F0008AA
:100040005BE800085BE800085BE80008A9C9000855
:100050005BE800085BE800085BE800085BE8000874
:100060005BE800085BE800085BE800085BE8000864
:100070005BE800085BE800085BE800085BE8000854
:10008000E9D6000849D700085BE800085BE80008EB
:100090005BE800085BE800085BE800085BE8000834
:1000A0005BE800085BE800085BE800085BE8000824
:1000B00075AA0008F9A900080B0F00085BE8000802
:1000C0005BE800085BE800085BE800085BE8000804
:1000D0005BE80008750B00080F0B00085BE80008E0
:1000E0002BDC00085BE800085BE800085BE8000820
:1000F0005BE800085BE800085BE800085BE80008D4
:100100005BE800085BE80008F5AA00085BE8000867
:100110005BE800085BE800085BE800085BE80008B3
:100120005BE800085BE800085BE800085BE80008A3
:1001300000F002F800F062F80AA090E8000C824497
:100140008344AAF10107DA4501D100F057F8AFF274
:10015000090EBAE80F0013F0010F18BFFB1A43F0A5
:100160000103184764220100842201000A444FF071
:10017000000C10F8013B13F0070408BF10F8014B06
:100180001D1108BF10F8015B641E05D010F8016B4B
:10019000641E01F8016BF9D113F0080F1EBF10F8AF
:1001A000014BAD1C0C1B09D16D1E58BF01F801CBD2
:1001B000FAD505E014F8016B01F8016B6D1EF9D555
:1001C0009142D6D37047000000230024002500266A
:1001D000103A28BF78C1FBD8520728BF30C148BFAA
:1001E0000B607047642910F04587732911F00B806C
:1001F000002070471FB51FBD10B510BD11F00CF8E1
:100200001146FFF7F7FF09F0D6F811F02AF803B40A
:10021000FFF7F2FF03BC0EF061FA00000CB50020FE
:10022000019000906C48006840F480306A49086092
:1002300000BF6948006800F4003000900198401C3D
:100240000190009818B90198B0F5A06FF1D16248FB
:10025000006800F4003010B10120009001E000209F
:1002600000900098012843D15C48006840F01000DD
:100270005A4908600846006820F0030008600846F4
:10028000006840F0020008605348406852494860E6
:100290000846406848600846406840F4806048600E
:1002A0000846406820F47C1048600846406840F4E6
:1002B000E81048600846006840F08070086000BFA1
:1002C0004548006800F000700028F9D042484068B6
:1002D00020F00300404948600846406840F00200B2
:1002E000486000BF3C48406800F00C000828F9D185
:1002F0000CBD10B5FFF792FF10BD10B53648006871
:1003000040F001003449086008464068344908401C
:100310003149486008460068324908402E49086063
:100320000846006820F4802008600846406820F4F1
:10033000FE0048604FF41F008860FFF7DAFF4FF0BF
:1003400000602949086010BD10B50021002000227E
:10035000214B5B6803F00C0121B1042906D0082968
:1003600028D107E0214B224C236027E01F4B204C73
:10037000236023E0184B5B6803F47010164B5B6836
:1003800003F48032022303EB904022B9194B43431C
:10039000174C23600DE0104B5B6803F4003323B16E
:1003A000144B4343124C236003E0104B4343104C67
:1003B000236003E00D4B0E4C236000BF00BF064BD3
:1003C0005B68C3F303130C4CE15C094B1B68CB4027
:1003D000074C236010BD00000010024000200240C6
:1003E0000000FFF8FFFFF6FE08ED00E000127A00C3
:1003F0000000002000093D000400002070B5024606
:100400000C46FF25FF2309E012F8010B80EA0501E5
:10041000FA48405C80EA0305F948435C201EA4F1D9
:100420000106F4B2F0D143EA052070BD10B50120F9
:10043000F4490870F4480EF0E3FEF4490870F448FB
:100440000078012856D00021F2480FF03BFC002133
:10045000F0480FF0CBFEF0480078A0B1EB480078F0
:10046000EE49097888420ED10020ED490870ED4927
:10047000087008460078401C0870E4480078EA4993
:10048000E84A12788854E448007860BBE448007871
:1004900048BBE4480078642813DADC480178E24A73
:1004A000E0480078401C1154DE480078401CDD49CB
:1004B000087008460078082815DB084600780870A0
:1004C00011E00120D6490870D1490870D54800785C
:1004D000D5490870D54800688078D5490968887082
:1004E0000020D04908700020CB4908700121C9487C
:1004F0000FF0E8FB10BD10B50120C2490870CD49CE
:100500000870CD480EF07CFEC0490870C0480078E5
:10051000012856D00021BF480FF0D4FB0021BD4870
:100520000FF064FEBC480078A0B1B8480078BB4921
:10053000097888420ED10020B9490870B94908707D
:1005400008460078401C0870B0480078B649B54AA3
:1005500012788854B048007860BBB148007848BB36
:10056000B0480078642813DAA8480178AE4AAD484C
:100570000078401C1154AB480078401CA949087011
:1005800008460078082815DB08460078087011E056
:100590000120A34908709E490870A2480078A2492A
:1005A0000870A24800688078A14909688870002016
:1005B0009C490870002098490870012195480FF067
:1005C00081FB10BD10B59A4800689C490978405CD1
:1005D0009B490870084601788B480EF00DFE97483D
:1005E0000078401C954908709148006800780978A7
:1005F000884210DA0020864908708D490968087021
:100600008849087001208D490870002240F2266157
:100610007D480EF090FD10BD70B500257F48007834
:100620008849087003204870874800788870874997
:100630008748006811F00CFD064611F06DFC000AB9
:100640008049C87081498248006811F001FD064662
:1006500011F062FC7B4908717E48006811F05CFC77
:100660000121B1EBE03F07D17A4801684FF08F409C
:1006700011F0F6FD7749086074497648006811F07A
:10068000E7FC064611F048FC000A6E4948716F49C4
:100690007048006811F0DCFC064611F03DFC694929
:1006A000887169480088051F04E00021A81D654A7B
:1006B00011546D1E002DF8DC63480078C01CC1B2D7
:1006C0006048FFF79BFE044621125E4A5E480088A0
:1006D000C01C11545C480088001D14545A4800780E
:1006E000401D5D49087010465C490860012240F2D7
:1006F000277145480EF01FFD70BD70B500254748B5
:10070000007850490870032048704F48007888707E
:100710005048006811F000FC0121B1EBE03F07D127
:100720004C4801684FF08F4011F09AFD494908602C
:1007300046494848006811F08BFC064611F0ECFB76
:10074000000A4049C87041494248006811F080FCE5
:10075000064611F0E1FB3B4908713B480088851EC5
:1007600004E00021281D374A11546D1E002DF8DCCD
:1007700035480078C01CC1B23248FFF73FFE04463E
:100780002112304A30480088C01C11542E4800887D
:10079000001D14542C480078401D2F490870104645
:1007A0002E490860012240F2277117480EF0C3FC61
:1007B00070BD70B5002519480078224908700320E3
:1007C000487021480078887020492148006811F05D
:1007D0003FFC064611F0A0FB000A1A49C8701B49ED
:1007E0001B48006811F034FC064611F095FB1549D2
:1007F000087115480088851E37E00000660000205B
:10080000660100205D000020004400404C000020F4
:100810005C0000200008004048000020BC020020CE
:10082000490000204F000020C40400205400002094
:10083000580000205F0000200038014050000020D8
:100840004D000020C107002044000020000020418E
:10085000A8030020A403002094020020900200209E
:100860000021281DFD4A11546D1E002DF8DCFC48A6
:100870000078C01CC1B2F948FFF7C0FD0446211240
:10088000F64AF7480088C01C1154F5480088001D3E
:100890001454F3480078401DF24908701046F2499C
:1008A0000860012240F22771F0480EF044FC70BD50
:1008B00010B50220EE490870EE4800884FF6FA7134
:1008C000884205DAEC48007810B900200DF031F8C4
:1008D000E84800884FF6FA71884203DAE648007863
:1008E00001280ED101200DF024F80120E249087002
:1008F000E04800884FF6FA71884202DB3220DD4979
:1009000008800A20DD49088008460288DC49D94869
:1009100000880CF0EBFFDB480078D0490870D8481D
:1009200000784870D64840788870D5488078C8707C
:10093000D348C0780871D24800794871D0484079CE
:100940008871CF488079C871CD48C0790872CC4889
:10095000007A4872CA48407A88720B20C1490870F0
:10096000C44800880A30C3490880084600880A2124
:1009700090FBF1F0C449098888420BDD3220BD4963
:1009800008800020C14908703220C1490880002039
:10099000C0490870B148B4490860012240F227718B
:1009A000B2480EF0C8FB10BD70B50025BA480088EB
:1009B000B5490880B3480078A849087003204870FA
:1009C00002208870B0480088000AC870AE480078DD
:1009D00008710521A148FFF711FD044620129F4927
:1009E00048718C7107209F4908709C489E49086097
:1009F000012240F227719D480EF09DFB70BD2DE94C
:100A0000F04104460F460020A4490870A44800782D
:100A100000283BD12078401E255C4FF6FF7000EA8D
:100A200005252078205C05432078C01E205C8C4979
:100A30000880084600884FF6FF7101EA00208849C7
:100A400008802078801E205C098808434FF6FF71DB
:100A500001EA40008249088008460088202801DD1C
:100A6000202008802078801EC1B2601CFFF7C6FCE1
:100A7000064606218B48FFF7C1FC06462078801EFB
:100A8000C1B2601CFFF7BAFC064600E02E46AE423B
:100A900038D18348007808BBA07801281BD00328F0
:100AA0001AD1022180480DF0F8FF6D480088042813
:100AB00002D1FFF7B1FD0DE069480088022809D195
:100AC000207910B9FFF775FE04E02079012801D1E3
:100AD000FFF713FE01E000E000BF16E0E07840B150
:100AE00010280DD1022170480DF0D7FFFFF7E0FE6E
:100AF00007E002216C480DF0D0FFFFF755FF00E042
:100B000000BF02E0002069490870BDE8F08110B51F
:100B100040F2244155480EF0F3FB01280DD1534813
:100B20000EF06EFB40F2244150480EF013FC012001
:100B30005F49087000205F49087040F225514B481A
:100B40000EF0DEFB012814D148480EF059FB5A493B
:100B5000087040F2255145480EF0FCFB56480078DD
:100B60005649544A1278885452480078401C5149DA
:100B7000087010BD70B586B000240226002500BFA5
:100B800004E0002003A90855601CC4B20A2CF8DB5D
:100B900040F225514A480EF0B3FB30B348480EF0FE
:100BA0002FFB4849087048480078F0B9084600789B
:100BB000232802D100204549087042480178434863
:100BC00002780078401C414B1870414881543D48E0
:100BD00000780A2809D118460078801E3C49085C34
:100BE0000D2802D1012038490870374800780128C3
:100BF0007CD100203449087035484078012876D1EE
:100C000034480088022805DB0DF02AFB0221264823
:100C10000DF045FF2E4880782F4908702C48C07889
:100C20002E4908702A4800792D49087028484079D3
:100C30002C4908702648C179807901EB00202A49A7
:100C400008802348C179807901EB00202049497947
:100C50001F4A1279CDE90021029049E0C107002026
:100C60004400002094020020900200200044004034
:100C70006503002046000020600000206400002082
:100C800068060020BC0200206200002064030020EF
:100C90009003002063030020840200205D000020F8
:100CA0005F000020C5040020000801405C00002017
:100CB0006C0200206D02002015000020900600202C
:100CC0000038014066020020670200206802002010
:100CD0007C060020780200206F02002070020020B5
:100CE0007102002072020020740200200BE109E072
:100CF000AB48C3788278ABA1B34810F049F9012022
:100D0000B2490870A6484078022866D123208DF8A1
:100D10000C0002208DF80D000D208DF814000A2023
:100D20008DF8150013241DE0A748005D2E280FD074
:100D3000A548005D22280BD0A348005D03A9895D6A
:100D400001EB810100EB4100303803A9885501E037
:100D5000701CC6B29C48005D2C2801D1264603E0D9
:100D6000601CC4B22A2CDFDD00BF701CC4B20FE0CF
:100D70009548005D0D2808D09348005D05EB85017E
:100D800000EB4100303885B200E003E0601CC4B2E3
:100D90002A2CEDDD00BF2846E91705EB1161090A91
:100DA0008DF81210E91705EB11610912A5EB01216D
:100DB000C9B28DF8131000240DE003A8015D84482A
:100DC0000EF01AFA00BF802181480EF083FA002845
:100DD000F9D0601CC4B20A2CEFDB714840780328BC
:100DE00020D17C480088022805DB0DF039FA022169
:100DF00079480DF054FE6A48C178807801EB0020F4
:100E000076490860084600887549088000207149C5
:100E1000088074490880744908807449087001206A
:100E20006A4908705E484078042826D123208DF84E
:100E30000C0004208DF80D0068480088000A8DF829
:100E40000E00664800788DF80F000D208DF8100018
:100E50000A208DF8110000240DE003A8015D5C4814
:100E60000EF0CAF900BF802159480EF033FA00286D
:100E7000F9D0601CC4B2062CEFDB49484078052845
:100E80001ED154480088022801DB0DF016FB002417
:100E900006E04349A01C085C55490855601CC4B2D3
:100EA00054480078001FA042F3DC00205049085548
:100EB000514B0A4651A1574810F06AF80DF0D9FA83
:100EC0003748407806281ED142480088022801DBB6
:100ED0000DF0F3FA002406E03149A01C085C4649F5
:100EE0000855601CC4B243480078001FA042F3DCE0
:100EF0000020414908550B463D4A40A1454810F0A5
:100F000047F80DF0B6FA06B070BD10B501214248A1
:100F10000FF0A1F9002834D00120404908700021C9
:100F20003D480EF0CFFE00213B480FF05FF9012055
:100F30003B4908703B4800783B4908703B480078C3
:100F4000D8B138480078042817DD012038490870E6
:100F500035480079222803D03348C078102803D1BF
:100F600001203449087002E00020324908703248FC
:100F7000016832480068FFF742FD012126480FF062
:100F80007BF910BD704700BFFEE700BFFEE700BF62
:100F9000FEE700BFFEE770477047704770470000EC
:100FA0007C06002041542B43495053544152543D38
:100FB00022544350222C2225642E25642E25642E93
:100FC0002564222C25640D006C0A002014000020EA
:100FD000003801407802002000080140180000207D
:100FE0007C02002014040020160400207A02002055
:100FF0001C000020680200203000002041542B43D8
:10100000574A41503D222573222C222573220D0A76
:10101000000000008204002000080040480000207A
:10102000490000204F000020C40400205D00002083
:101030005C0000205F0000205800002054000020C9
:10104000002100E0491C8142FCD3704710B564299F
:1010500010D2302202700A22B1FBF2F2303242701A
:101060002E2242700A22B1FBF2F302FB131230323D
:10107000827021E064291FD3B1F57A7F1CD26422EB
:10108000B1FBF2F2303202706422B1FBF2F302FBE8
:1010900013120A23B2FBF3F2303242702E22827016
:1010A0006422B1FBF2F302FB13120A23B2FBF3F446
:1010B00003FB14223032C27010BD3EB50924F9483A
:1010C000048001200CF035FC2246F74900200CF08A
:1010D0000DFC64200DF0D5FAF3480078F349087050
:1010E000F1484078F2490870EF488078F14908707B
:1010F000ED48C078F0490870EB484179007901EB80
:101100000020EE49088008460088EB490978E94A42
:101110001278CDE900210290E5480378E34802788F
:10112000E7A1F0480FF034FFDF488079EE490870FE
:10113000DD48017AC07901EB0020EC4908600846DF
:101140000068EB4908603EBD10B5D6480480D7481A
:101150000078E8490870D64800784870D54800788B
:101160008870D5480078C870D4490888C11700EB4A
:101170001161090ADF4A1171D0490888C11700EBD3
:1011800011610912A0EB01215171D7480078114675
:101190008871D6480088000AC871D448007808725F
:1011A000092401200CF0C5FB2246D24900200CF096
:1011B000AEFB64200DF065FA10BD10B53224B948BD
:1011C000048000200CF0B5FB2246B74900200CF04B
:1011D0008DFB64200DF055FAB3480078C6490860CD
:1011E000B1484078C5490860C548096850F82100F1
:1011F000C4490860AC488078C3490860AA48C078F0
:10120000C249086008460068502804DD08460068A6
:10121000A0F580700860A4480079BD4908600846C0
:101220000068502804DD08460068A0F5807008605A
:101230009D484079B74908609B488079B649086065
:101240009948C079B54908609748007AB449086060
:101250009548407AB34908609348807AB24908605B
:101260009148C07AB14908608F48007BB049086056
:101270008D48407BAF4908608B48807BAE49086051
:101280008948C07BAD4908808748007C097800EB1D
:101290000120AA4908808448407CA94908708248F6
:1012A000807CA84908608048C07CA74908607E48C7
:1012B000007DA649086008460068502804DD0846FD
:1012C0000068A0F5807008607748407DA0490860FC
:1012D00008460068502804DD08460068A0F58070C4
:1012E00008607148807D9B4908606F48C07D9A49BD
:1012F00008606D48007E99490860084600686428C7
:1013000004DD08460068A0F5807008606648407EED
:101310009349086008460068642804DD08460068B0
:10132000A0F5807008606048807E18B15E48807EBD
:10133000FF2812D15C48C07E18B15B48C07EFF28F0
:101340000BD15948007F18B15748007FFF2804D1BE
:101350004FF4C8708349086011E05348807E5249B9
:10136000C97E01EB810100EB41004F49097F01EB90
:10137000C10202EB011100EB81007A4908604A4882
:10138000407F18B14848407FFF281BD14648807FE6
:1013900018B14548807FFF2814D14348C07F18B159
:1013A0004148C07FFF280DD13F4890F8200020B170
:1013B0003D4890F82000FF2804D14FF4FA606A49B4
:1013C000086014E03848407F3749897F0A2202FBD1
:1013D00001003549C97F642202FB0100324991F8BE
:1013E00020104FF47A7202FB01005F4908602E481A
:1013F00090F8210020B12C4890F82100FF2816D148
:10140000294890F8220020B1274890F82200FF28B0
:101410000DD1254890F8230020B1234890F82300EF
:10142000FF2804D14FF4C8705049086010E01E48EE
:1014300090F821001C4991F822100A2202FB0100B9
:10144000194991F82310642202FB01004749086002
:10145000154890F8240020B1134890F82400FF2884
:101460001FD1114890F8250020B10F4890F82500B1
:10147000FF287FD10C4890F8260020B10A4890F848
:101480002600FF2876D1084890F8270020B10648AA
:1014900090F82700FF286DD14FF4FA6034490860B6
:1014A00080E067E060030020250800206F02002034
:1014B00070020020710200207202002074020020DD
:1014C00041542B43495053544152543D22544350AC
:1014D000222C2225642E25642E25642E2564222CA0
:1014E00025640D006C0A00206E0200201800002008
:1014F0007C020020F3070020BC020020C402002070
:10150000C8020020C0020020DC020020E00200200F
:10151000E4020020F0020020F4020020F802002083
:10152000FC02002000030020040300200803002028
:101530000C0300201003002014030020900300205F
:101540006303002020030020280300203003002034
:1015500038030020400300204803002050030020EF
:1015600058030020B4030020B8030020BC0300206F
:10157000C0030020FE4890F82400FD4991F8251092
:101580000A2202FB0100FA4991F82610642202FBAC
:101590000100F74991F827104FF47A7202FB01001D
:1015A000F4490860F24890F8280020B1F04890F81B
:1015B0002800FF281FD1EE4890F8290020B1EC4800
:1015C00090F82900FF2816D1E94890F82A0020B1A8
:1015D000E74890F82A00FF280DD1E54890F82B0045
:1015E00020B1E34890F82B00FF2804D14FF4FA60B3
:1015F000E149086017E0DE4890F82800DC4991F8DE
:1016000029100A2202FB0100D94991F82A1064220C
:1016100002FB0100D64991F82B104FF47A7202FBBD
:101620000100D5490860D24890F82C0020B1D0487C
:1016300090F82C00FF281FD1CD4890F82D0020B144
:10164000CB4890F82D00FF2816D1C94890F82E00FD
:1016500020B1C74890F82E00FF280DD1C44890F85B
:101660002F0020B1C24890F82F00FF2804D14FF47A
:10167000FA60C249086017E0BD4890F82C00BC49E8
:1016800091F82D100A2202FB0100B94991F82E10A1
:10169000642202FB0100B64991F82F104FF47A72D0
:1016A00002FB0100B5490860FFF707FD10BD10B54A
:1016B000B3480480B3480078B3490870B348007851
:1016C0004870B34800788870B2480078C870B24853
:1016D00000780871B14800784871B1480078887185
:1016E000B0480078C871B04800780872AF480078F8
:1016F0004872AF4800788872AE480078C872AE4829
:1017000000780873AD4800784873AD480078887356
:10171000AC480088000AC873AA4800780874AA4830
:1017200000784874A94800788874A9480078C8747B
:10173000A84800780875A84800784875A748007838
:101740008875A7480078C875A64800780876A64826
:1017500000784876A5480068642190FBF1F201FB0F
:1017600012000A2190FBF1F201FB120086498876F3
:101770009E480068642190FBF1F201FB12000A21EF
:1017800090FBF1F08049C87698480068642190FB8E
:10179000F1F07D490877964800684FF47A7190FB24
:1017A000F1F201FB1200642190FBF1F201FB120047
:1017B0000A2190FBF1F201FB1200734948778C4833
:1017C00000684FF47A7190FBF1F201FB1200642182
:1017D00090FBF1F201FB12000A2190FBF1F06A4943
:1017E0008877834800684FF47A7190FBF1F201FB2F
:1017F0001200642190FBF1F06349C8777C480068CF
:101800004FF47A7190FBF1F05F4981F8200079483C
:101810000068642190FBF1F201FB12000A2190FBA9
:10182000F1F201FB1200584981F82100714800686B
:10183000642190FBF1F201FB12000A2190FBF1F010
:10184000514981F822006B480068642190FBF1F057
:101850004D4981F82300474800684FF47A7190FBA6
:10186000F1F201FB1200642190FBF1F201FB120086
:101870000A2190FBF1F201FB1200434981F8240098
:101880003C4800684FF47A7190FBF1F201FB1200C2
:10189000642190FBF1F201FB12000A2190FBF1F0B0
:1018A000394981F82500334800684FF47A7190FB7C
:1018B000F1F201FB1200642190FBF1F0324981F852
:1018C00026002C4800684FF47A7190FBF1F02E4905
:1018D00081F82700284800684FF47A7190FBF1F2F4
:1018E00001FB1200642190FBF1F201FB12000A21BE
:1018F00090FBF1F201FB1200234981F828001E48F9
:1019000000684FF47A7190FBF1F201FB1200642140
:1019100090FBF1F201FB12000A2190FBF1F01A4951
:1019200081F82900144800684FF47A7190FBF1F2B5
:1019300001FB1200642190FBF1F0134981F82A00A9
:101940000D4800684FF47A7190FBF1F00E4981F870
:101950002B000A4800684FF47A7190FBF1F201FB0A
:101960001200642190FBF1F201FB12000A2143E016
:1019700025080020C0030020C4030020C803002065
:1019800060030020BC020020F3070020C4020020F6
:10199000DC020020E0020020E4020020F00200202F
:1019A000F4020020F8020020FC02002000030020C6
:1019B00004030020080300200C0300201003002073
:1019C0001403002090030020630300202003002064
:1019D00028030020300300203803002040030020AB
:1019E000480300205003002058030020B4030020C7
:1019F000B8030020BC03002090FBF1F201FB1200B1
:101A0000FE4981F82C00FE4800684FF47A7190FB83
:101A1000F1F201FB1200642190FBF1F201FB1200D4
:101A20000A2190FBF1F0F54981F82D00F448006897
:101A30004FF47A7190FBF1F201FB1200642190FBEC
:101A4000F1F0EE4981F82E00ED4800684FF47A710C
:101A500090FBF1F0E94981F82F00322400200BF0CF
:101A600068FF2246E54900200BF051FF64200CF08E
:101A700008FEFFF769FB10BD08B5012114200DF029
:101A80001BFA4FF48060ADF8000010208DF80300C1
:101A900003208DF802006946DA480CF051FF4FF43C
:101AA0008061D8480CF0F9FF0220ADF8000010204A
:101AB0008DF8030003208DF802006946D2480CF02F
:101AC0003FFF0221D0480CF0E8FF2020ADF80000D5
:101AD0006946CD480CF034FF2021CB480CF0DFFFE5
:101AE0001020ADF800006946C7480CF029FF10210E
:101AF000C5480CF0D2FF08BD08B5012104200DF047
:101B0000DBF94020ADF8000010208DF80300032021
:101B10008DF802006946BC480CF012FF08BD10B5F4
:101B200004464021B8480CF0B8FFA0B20CF0A9FD63
:101B30004021B5480CF0B3FF10BD03B581B00021C2
:101B40004FF080400EF0BEF801981A2882F01A82F9
:101B5000DFE810F01A001C00D900A50124023F03A1
:101B6000AD094F0418058D0A740E7E0FE705420675
:101B7000C5065207E707960845095F0B2F0CEE0CC8
:101B8000B50D8F10AF11021202F0FCB90AF04BFA3A
:101B90000021084609F09FFF01220821022009F0D8
:101BA0003FFF0121022009F07EFF0121042009F0FE
:101BB0007AFF0AF0EFF995480078642190FBF1F282
:101BC00001FB12000A2190FBF1F201FB1200C0B2EE
:101BD000014600901A2009F094FF8C480078642197
:101BE00090FBF1F201FB12000A2190FBF1F0C0B270
:101BF000014600901C2009F084FF8448007864218D
:101C000090FBF1F0C0B2014600901E2009F079FF70
:101C1000029810B1012874D13AE07C480078401E47
:101C20007A49087008460078012801DAFF20087018
:101C30000AF0B0F975480078642190FBF1F201FBDD
:101C400012000A2190FBF1F201FB1200C0B2014622
:101C500000901A2009F055FF6C480078642190FB31
:101C6000F1F201FB12000A2190FBF1F0C0B2014633
:101C700000901C2009F045FF64480078642190FB27
:101C8000F1F0C0B2014600901E2009F03AFF38E0A2
:101C90005E480078401C5D49087008460078FF28BF
:101CA00001DD0120087059480078642190FBF1F2B1
:101CB00001FB12000A2190FBF1F201FB1200C0B2FD
:101CC000014600901A2009F01CFF5048007864215A
:101CD00090FBF1F201FB12000A2190FBF1F0C0B27F
:101CE000014600901C2009F00CFF48480078642150
:101CF00090FBF1F0C0B2014600901E2009F001FFF8
:101D000000BF00BF40E70AF08EF90221002009F071
:101D1000E2FE01220821022009F082FE01220821B0
:101D2000022009F0BBFD0121022009F0D4FE0221AE
:101D3000042009F0B8FE0AF02DF935480068642146
:101D4000B0FBF1F201FB12000A21B0FBF1F201FB42
:101D50001200014600901A2009F0D3FE2C480068BA
:101D60006421B0FBF1F201FB12000A21B0FBF1F09B
:101D7000014600901C2009F0C4FE2548006864213B
:101D8000B0FBF1F0C0B2014600901E2009F0B9FE90
:101D9000029810B1012845D145E01D480068401E59
:101DA0001B4908600846006810B940F2E730086037
:101DB0000AF0F0F8164800686421B0FBF1F201FB6C
:101DC00012000A21B0FBF1F201FB12000146009063
:101DD0001A2009F096FE0E4800686421B0FBF1F26B
:101DE00001FB12000A21B0FBF1F0014600901C201B
:101DF00009F087FE0648006864210BE0F307002025
:101E0000C803002000100140000801406E020020BD
:101E100018000020B0FBF1F0C0B2014600901E2077
:101E200009F06FFE39E0FE480068401CFC4908607C
:101E300008460068B0F57A7F01D3012008600AF0F7
:101E4000A9F8F74800686421B0FBF1F201FB120029
:101E50000A21B0FBF1F201FB1200014600901A20AA
:101E600009F04FFEEE4800686421B0FBF1F201FB7F
:101E700012000A21B0FBF1F0014600901C2009F08D
:101E800040FEE74800686421B0FBF1F0C0B20146B3
:101E900000901E2009F035FE00BF00BF74E60AF076
:101EA000C2F80821002009F016FE012208210220B4
:101EB00009F0B6FD0721022009F00DFE03210420E0
:101EC00009F0F1FD0AF0BBF8D648006801280AD1F4
:101ED0000AF060F80A211A2009F029FE00211C20CE
:101EE00009F00FFE0DE00AF055F805211A2009F05F
:101EF0001EFE05211C2009F01AFE00211E2009F0FB
:101F000000FE029810B1012846D122E0C5480068C1
:101F100068B90120C34908600AF03CF80A211A2078
:101F200009F005FE00211C2009F0EBFD10E0002067
:101F3000BC4908600AF02EF805211A2009F0F7FDC7
:101F400005211C2009F0F3FD00211E2009F0D9FD18
:101F500022E0B448006868B90120B24908600AF07C
:101F600019F80A211A2009F0E2FD00211C2009F0CD
:101F7000C8FD10E00020AB4908600AF00BF805210D
:101F80001A2009F0D4FD05211C2009F0D0FD002104
:101F90001E2009F0B6FD00BF00BFF5E50AF043F8CA
:101FA0000B21002009F097FD01220821022009F0F1
:101FB00037FD0321022009F08EFD0421084609F0B7
:101FC00072FD0121172009F0F0FD09F0E3FF9648AA
:101FD000006800280ADA01220821072009F020FD04
:101FE0009148006840429149086008E08E480068C6
:101FF0008E49086000220821072009F011FD002108
:102000001A2009F07EFD012211461C2009F008FD6E
:10201000864800680A2190FBF1F201FB1200C0B271
:10202000014600901C2009F0A8FD804800680A21A4
:1020300090FBF1F0C0B2014600901E2009F061FD56
:10204000029810B101287AD17AE07948006876497F
:10205000096888422BDB09F09DFF7348006800285F
:102060000ADA01220821072009F0DAFC6E4800682C
:1020700040426E49086008E06B4800686B490860A0
:1020800000220821072009F0CBFC002208210720AC
:1020900009F0C6FC08211A2009F049FD08211C207E
:1020A00009F045FD06211E2009F041FD47E05E488C
:1020B0000068401E5C4908600846006810F1280F5F
:1020C00002DA6FF02700086009F064FF56480068E4
:1020D00000280ADA01220821072009F0A1FC524851
:1020E000006840425149086008E04F4800684F4985
:1020F000086000220821072009F092FC00211A2024
:1021000009F0FFFC012211461C2009F089FC474818
:1021100000680A2190FBF1F201FB1200C0B20146F7
:1021200000901C2009F029FD404800680A2190FB1E
:10213000F1F0C0B2014600901E2009F0E2FC46E03A
:1021400039480068401C3849086008460068502833
:1021500001DD5020086009F01DFF334800680028A9
:102160000ADA01220821072009F05AFC2E480068EB
:1021700040422E49086008E02B4800682B4908605F
:1021800000220821072009F04BFC00211A2009F049
:10219000B8FC012211461C2009F042FC23480068CB
:1021A0000A2190FBF1F201FB1200C0B2014600903F
:1021B0001C2009F0E2FC1D4800680A2190FBF1F0A8
:1021C000C0B2014600901E2009F09BFC00BF00BF7A
:1021D000DAE409F028FF0421002009F07CFC012248
:1021E0000821022009F01CFC0321022009F073FCE5
:1021F0000421084609F057FC0121172009F0D5FCFD
:1022000009F0C8FE0A480068002817DA01220821F0
:10221000072009F005FC06480068404205490BE02C
:1022200018000020DC020020E0020020EC02002068
:10223000E4020020E8020020086008E0FE48006890
:10224000FE49086000220821072009F0E9FB00216F
:102250001A2009F056FC012211461C2009F0E0FB6F
:10226000F64800680A2190FBF1F201FB1200C0B2AF
:10227000014600901C2009F080FCF04800680A210B
:1022800090FBF1F0C0B2014600901E2009F039FC2D
:10229000029810B1012848D148E0E7480068401E84
:1022A000E54908600846006810F1280F02DA6FF06F
:1022B0002700086009F06EFEDF48006800280ADA8F
:1022C00001220821072009F0ABFBDB4800684042EF
:1022D000DA49086008E0D8480068D8490860002258
:1022E0000821072009F09CFB00211A2009F009FCB5
:1022F000012211461C2009F093FBD04800680A21F6
:1023000090FBF1F201FB1200C0B2014600901C20CC
:1023100009F033FCC94800680A2190FBF1F0C0B213
:10232000014600901E2009F0ECFB60E0C248006806
:10233000C3490968884213DB09F02CFE00220821FA
:10234000072009F06DFB08211A2009F0F0FB082195
:102350001C2009F0ECFB06211E2009F0E8FB45E0FB
:10236000B5480068401CB449086008460068502819
:1023700001DD5020086009F00DFEAF48006800281C
:102380000ADA01220821072009F04AFBAA4800685E
:102390004042AA49086008E0A7480068A7490860C9
:1023A00000220821072009F03BFB00211A2009F038
:1023B000A8FB012211461C2009F032FB9F4800684F
:1023C0000A2190FBF1F201FB1200C0B2014600901D
:1023D0001C2009F0D2FB994800680A2190FBF1F01B
:1023E000C0B2014600901E2009F08BFB00BF00BF69
:1023F00088E400220821072009F012FB09F013FEEF
:102400000B21002009F067FB01220821022009F0BE
:1024100007FB0B21022009F05EFB0421084609F0AE
:1024200042FB09F0B7FD00220821072009F0F8FA65
:1024300000211A2009F0A1FB012211461C2009F0FD
:10244000EFFA804800680A2190FBF1F201FB1200CC
:10245000C0B2014600901C2009F08FFB794800684B
:102460000A2190FBF1F0C0B2014600901E2009F055
:1024700048FB029810B101284DD14DE07148006829
:1024800071490968884213DC09F084FD00220821A3
:10249000072009F0C5FA08211A2009F048FB082195
:1024A0001C2009F044FB06211E2009F040FB32E00D
:1024B00064480068401E63490860084600680028B8
:1024C00001DA0120086009F065FD002208210720DB
:1024D00009F0A6FA00211A2009F04FFB012211464B
:1024E0001C2009F09DFA574800680A2190FBF1F280
:1024F00001FB1200C0B2014600901C2009F03DFB18
:10250000504800680A2190FBF1F0C0B201460090EB
:102510001E2009F0F6FA33E04A480068401C494999
:10252000086008460068632801DD6320086009F040
:1025300031FD00220821072009F072FA00211A203B
:1025400009F01BFB012211461C2009F069FA3D48E5
:1025500000680A2190FBF1F201FB1200C0B20146B3
:1025600000901C2009F009FB364800680A2190FB06
:10257000F1F0C0B2014600901E2009F0C2FA00BF7F
:1025800000BF8BE409F04FFD0421002009F0A3FAFD
:1025900001220821022009F043FA0B21022009F050
:1025A0009AFA0421084609F07EFA09F0F3FC0022A9
:1025B0000821072009F034FA00211A2009F0DDFA79
:1025C000012211461C2009F02BFA1F4800680A213D
:1025D00090FBF1F201FB1200C0B2014600901C20FA
:1025E00009F0CBFA184800680A2190FBF1F0C0B25C
:1025F000014600901E2009F084FA029810B10128CB
:102600003ED13EE010480068401E0F490860084671
:102610000068002801DA0020086009F0BBFC0022F5
:102620000821072009F0FCF900211A2009F0A5FA79
:10263000012211461C2009E0E4020020E8020020EB
:10264000E0020020F0020020F402002009F0E8F986
:10265000FC4800680A2190FBF1F201FB1200C0B2B5
:10266000014600901C2009F088FAF64800680A210B
:1026700090FBF1F0C0B2014600901E2009F041FA33
:102680004DE0F1480068EF490968884213DC09F021
:1026900081FC00220821072009F0C2F908211A2034
:1026A00009F045FA08211C2009F041FA06211E20F4
:1026B00009F03DFA32E0E3480068401CE149086057
:1026C00008460068632801DD6320086009F062FCA9
:1026D00000220821072009F0A3F900211A2009F09F
:1026E0004CFA012211461C2009F09AF9D5480068DD
:1026F0000A2190FBF1F201FB1200C0B201460090EA
:102700001C2009F03AFACF4800680A2190FBF1F04A
:10271000C0B2014600901E2009F0F3F900BF00BFCF
:102720003BE409F080FC0521002009F0D4F90122E6
:102730000821022009F074F90321022009F0CBF9E5
:102740000621042009F0AFF90121172009F02DFA24
:1027500009F020FCBD480068012804D105211C2097
:1027600009F0E5F903E003211C2009F0E0F90298E3
:1027700010B101282ED116E0B448006848B90120F4
:10278000B249086009F006FC05211C2009F0CFF9C8
:1027900008E00020AD49086009F0FCFB03211C2083
:1027A00009F0C5F916E0A948006848B90120A74911
:1027B000086009F0EFFB05211C2009F0B8F908E0DA
:1027C0000020A249086009F0E5FB03211C2009F064
:1027D000AEF900BF00BFFBE409F025FC0821002092
:1027E00009F079F901220821022009F019F90521DF
:1027F000022009F070F90721042009F054F909F0CA
:10280000C9FB93480068012808D10A211A2009F061
:102810008EF900211C2009F074F90BE005211A2023
:1028200009F085F905211C2009F081F900211E20FD
:1028300009F067F9029810B101284ED126E08448CA
:10284000006878B90120824908608249087009F05F
:10285000A1FB0A211A2009F06AF900211C2009F0C5
:1028600050F912E000207A4908607A49087009F0AE
:1028700091FB05211A2009F05AF905211C2009F0C5
:1028800056F900211E2009F03CF926E07048006846
:1028900078B901206E4908606E49087009F07AFB2A
:1028A0000A211A2009F043F900211C2009F029F916
:1028B00012E00020664908606649087009F06AFB6A
:1028C00005211A2009F033F905211C2009F02FF900
:1028D00000211E2009F015F900BF00BF78E409F0BF
:1028E000A2FB0121002009F0DEF8012208210220CC
:1028F00009F096F80321022009F0EDF808210420E0
:1029000009F0D1F809F046FB5348006838B90A21AC
:102910001A2009F00CF900211C2009F0F2F84E48A9
:10292000006801280BD105211A2009F000F90521C2
:102930001C2009F0FCF800211E2009F0E2F80298A2
:1029400010B1012856D12AE043480068401E424990
:10295000086008460068002801DA012008603E4847
:10296000006848B909F016FB0A211A2009F0DFF8BF
:1029700000211C2009F0C5F83748006801280DD156
:1029800009F008FB05211A2009F0D1F805211C20C7
:1029900009F0CDF800211E2009F0B3F82AE02E48F6
:1029A0000068401C2C49086008460068012801DDC9
:1029B000002008602848006848B909F0EBFA0A21AD
:1029C0001A2009F0B4F800211C2009F09AF82248D6
:1029D000006801280DD109F0DDFA05211A2009F05F
:1029E000A6F805211C2009F0A2F800211E2009F0FC
:1029F00088F800BF00BFFBE409F015FB02210020AE
:102A000009F051F801220821022009F009F80321F8
:102A1000022009F060F80821042009F044F809F0C8
:102A2000B9FA0E48006801281AD103211A2009F0CA
:102A30007EF809211C2009F07AF803211E2009F0F4
:102A400076F819E0F4020020F0020020F8020020DD
:102A5000FC02002076020020000300200403002076
:102A600000211A2009F063F808211C2009F05FF802
:102A700000211E2009F045F8029810B101284ED11E
:102A800026E0F848006888B90120F649086009F096
:102A900081FA03211A2009F04AF809211C2009F0C3
:102AA00046F803211E2009F042F810E00020ED490D
:102AB000086009F06FFA00211A2009F038F808219F
:102AC0001C2009F034F800211E2009F01AF826E035
:102AD000E448006888B90120E249086009F05AFA20
:102AE00003211A2009F023F809211C2009F01FF8FE
:102AF00003211E2009F01BF810E00020D9490860CE
:102B000009F048FA00211A2009F011F808211C20C8
:102B100009F00DF800211E2008F0F3FF00BF00BFF0
:102B200066E409F080FA0321002008F0BCFF0122CE
:102B30000821022008F074FF0321022008F0CBFFD7
:102B40000821042008F0AFFF09F024FAC648006805
:102B50000A2190FBF1F201FB1200C0B20146009085
:102B60001A2008F0CEFFC04800680A2190FBF1F05F
:102B700090FBF1F201FB1200C0B2014600901C2054
:102B800008F0BFFFB8480068642190FBF1F0C0B2C4
:102B9000014600901E2008F0B4FF029810B10128F1
:102BA0006CD135E0B0480068401EAF490860084667
:102BB0000068012802DA4FF41670086009F0EAF99B
:102BC000A94800680A2190FBF1F201FB1200C0B293
:102BD000014600901A2008F094FFA34800680A21DB
:102BE00090FBF1F090FBF1F201FB1200C0B2014644
:102BF00000901C2008F085FF9B480068642190FB32
:102C0000F1F0C0B2014600901E2008F07AFF35E0D6
:102C100095480068401C9449086008460068B0F573
:102C2000167F01DD0120086009F0B4F98E480068C4
:102C30000A2190FBF1F201FB1200C0B201460090A4
:102C40001A2008F05EFF884800680A2190FBF1F026
:102C500090FBF1F201FB1200C0B2014600901C2073
:102C600008F04FFF80480068642190FBF1F0C0B28B
:102C7000014600901E2008F044FF00BF00BF80E422
:102C800009F0D1F90421002008F00DFF01220821EC
:102C9000022008F0C5FE0321022008F01CFF0821D5
:102CA000042008F000FF09F075F9704800680A2157
:102CB00090FBF1F201FB1200C0B2014600901A2015
:102CC00008F01FFF694800680A2190FBF1F090FBB3
:102CD000F1F201FB1200C0B2014600901C2008F086
:102CE00010FF62480068642190FBF1F0C0B2014619
:102CF00000901E2008F005FF029810B101286CD149
:102D000035E05A480068401E584908600846006887
:102D1000012802DA4FF41670086009F03BF95348B5
:102D200000680A2190FBF1F201FB1200C0B20146DB
:102D300000901A2008F0E5FE4C4800680A2190FB3C
:102D4000F1F090FBF1F201FB1200C0B201460090DD
:102D50001C2008F0D6FE45480068642190FBF1F085
:102D6000C0B2014600901E2008F0CBFE35E03F487F
:102D70000068401C3D49086008460068B0F5167FB1
:102D800001DD0120086009F005F9384800680A21D2
:102D900090FBF1F201FB1200C0B2014600901A2034
:102DA00008F0AFFE314800680A2190FBF1F090FB7B
:102DB000F1F201FB1200C0B2014600901C2008F0A5
:102DC000A0FE2A480068642190FBF1F0C0B20146E1
:102DD00000901E2008F095FE00BF00BFA0E409F09F
:102DE00022F90521002008F05EFE012208210220C0
:102DF00008F016FE0321022008F06DFE08210420D1
:102E000008F051FE09F0C6F8194800680A2190FB45
:102E1000F1F201FB1200C0B2014600901A2008F046
:102E200070FE029810B101283FD123E010480068DD
:102E3000401E0F49086008460068002801DA01209A
:102E4000086009F0A7F80A4800680A2190FBF1F22F
:102E500001FB1200C0B2014600901A2008F051FE9A
:102E600023E0000004030020080300200C030020DE
:102E70001C030020FE480068401CFD49086008460D
:102E80000068012801DD0020086009F083F8F84897
:102E900000680A2190FBF1F201FB1200C0B201466A
:102EA00000901A2008F02DFE00BF00BF38E409F0A2
:102EB000BAF800220821072008F0B2FD00220821FC
:102EC0000A2008F0ADFD0021084608F004FE0122AA
:102ED0000821022008F0A4FD0321022008F0FBFDD8
:102EE0000421084608F0DFFD0121172008F05DFEEF
:102EF00009F050F8DF4800680A2190FBF1F201FB6D
:102F00001200C0B2014600901A2008F0FAFD01221A
:102F100011461C2008F084FDD64800680A2190FB69
:102F2000F1F090FBF1F201FB1200C0B201460090FB
:102F30001C2008F022FECF480068642190FBF1F0CD
:102F4000C0B2014600901E2008F0DBFD029810B1CF
:102F5000012839D139E0C7480068401EC5490860DA
:102F600008460068002801DA0020086009F012F81D
:102F7000C04800680A2190FBF1F201FB1200C0B2C8
:102F8000014600901A2008F0BCFD012211461C20C9
:102F900008F046FDB74800680A2190FBF1F090FB6D
:102FA000F1F201FB1200C0B2014600901C2008F0B3
:102FB000E4FDB0480068642190FBF1F0C0B2014626
:102FC00000901E2008F09DFD4FE0AA480068401CBC
:102FD000A8490860A8480068A8490968401A032160
:102FE00090FBF1F000EB8000A2490968B1EB400FC3
:102FF0000CDDA1480068A1490968401A032190FB33
:10300000F1F000EB800040009A49086008F0C2FF30
:10301000984800680A2190FBF1F201FB1200C0B24F
:10302000014600901A2008F06CFD012211461C2078
:1030300008F0F6FC8F4800680A2190FBF1F090FB45
:10304000F1F201FB1200C0B2014600901C2008F012
:1030500094FD88480068642190FBF1F0C0B20146FD
:1030600000901E2008F04DFD00BF00BF36E408F0C0
:10307000DAFF0021084608F02EFD01220821022077
:1030800008F0CEFC0B21022008F025FD04210846A3
:1030900008F009FD7A4800680A2190FBF1F201FB73
:1030A0001200C0B20246012100901C2008F0B8FCBA
:1030B00008F070FF00211A2008F05FFD70480068DA
:1030C0000A2190FBF1F090FBF1F201FB1200C0B27B
:1030D000014600901C2008F050FD694800686421FA
:1030E00090FBF1F0C0B2014600901E2008F009FDEF
:1030F000029810B1012839D139E061480068401EBA
:103100005F49086008460068002801DA002008606E
:1031100008F040FF5A4800680A2190FBF1F201FBD9
:103120001200C0B2014600901A2008F026FD0122CC
:1031300011461C2008F074FC514800680A2190FBDD
:10314000F1F090FBF1F201FB1200C0B201460090D9
:103150001C2008F012FD4A480068642190FBF1F041
:10316000C0B2014600901E2008F0CBFC4FE044485E
:103170000068401C424908604248006842490968AA
:10318000401A032190FBF1F000EB80003C490968F4
:10319000B1EB400F0CDD3B4800683B490968401A21
:1031A000032190FBF1F000EB8000400034490860FF
:1031B00008F0F0FE324800680A2190FBF1F201FBB2
:1031C0001200C0B2014600901A2008F0D6FC01227D
:1031D00011461C2008F024FC294800680A2190FBB5
:1031E000F1F090FBF1F201FB1200C0B20146009039
:1031F0001C2008F0C2FC22480068642190FBF1F01A
:10320000C0B2014600901E2008F07BFC00BF00BF4A
:1032100086E408F008FF0021084608F044FC01227B
:103220000821022008F0FCFB0321022008F053FCD7
:103230000921042008F037FC08F0ACFE13480078A0
:10324000642190FBF1F201FB12000A2190FBF1F2E4
:1032500001FB1200C0B2014600901A2008F051FC98
:103260000A480078642190FBF1F201FB12000FE0A4
:103270001C03002020030020E0020020E4020020C4
:1032800028030020F0020020F40200206F0200203A
:103290000A2190FBF1F0C0B2014600901C2008F01A
:1032A00030FCFE480078642190FBF1F0C0B201468A
:1032B00000901E2008F025FC029810B1012876D15C
:1032C0003AE0F6480078401EF44908700846007855
:1032D000012801DAFF20087008F05CFEEF48007852
:1032E000642190FBF1F201FB12000A2190FBF1F244
:1032F00001FB1200C0B2014600901A2008F001FC48
:10330000E6480078642190FBF1F201FB12000A21EB
:1033100090FBF1F0C0B2014600901C2008F0F1FBD8
:10332000DE480078642190FBF1F0C0B201460090C5
:103330001E2008F0E6FB3AE0D8480078401CD74948
:10334000087008460078FF2801DD0120087008F0A9
:1033500021FED2480078642190FBF1F201FB1200BB
:103360000A2190FBF1F201FB1200C0B2014600906D
:103370001A2008F0C6FBC9480078642190FBF1F2DE
:1033800001FB12000A2190FBF1F0C0B2014600904F
:103390001C2008F0B6FBC1480078642190FBF1F0D6
:1033A000C0B2014600901E2008F0ABFB00BF00BF7A
:1033B00065E408F038FE0121002008F074FB0122CA
:1033C0000821022008F02CFB0321022008F083FBD7
:1033D0000921042008F067FB08F0DCFDB048007804
:1033E000642190FBF1F201FB12000A2190FBF1F243
:1033F00001FB1200C0B2014600901A2008F081FBC8
:10340000A7480078642190FBF1F201FB12000A2129
:1034100090FBF1F0C0B2014600901C2008F071FB57
:103420009F480078642190FBF1F0C0B20146009003
:103430001E2008F066FB029810B1012876D13AE010
:1034400097480078401E9649087008460078012881
:1034500001DAFF20087008F09DFD91480078642192
:1034600090FBF1F201FB12000A2190FBF1F201FB4B
:103470001200C0B2014600901A2008F042FB8848B2
:103480000078642190FBF1F201FB12000A2190FB0D
:10349000F1F0C0B2014600901C2008F032FB8048D9
:1034A0000078642190FBF1F0C0B2014600901E202C
:1034B00008F027FB3AE07A480078401C7849087009
:1034C00008460078FF2801DD0120087008F062FD41
:1034D00073480078642190FBF1F201FB12000A218D
:1034E00090FBF1F201FB1200C0B2014600901A20DD
:1034F00008F007FB6A480078642190FBF1F201FBB9
:1035000012000A2190FBF1F0C0B2014600901C208D
:1035100008F0F7FA62480078642190FBF1F0C0B23D
:10352000014600901E2008F0ECFA00BF00BF55E4F1
:1035300008F079FD0221002008F0B5FA01220821E7
:10354000022008F06DFA0321022008F0C4FA0921D4
:10355000042008F0A8FA08F01DFD52480078642104
:1035600090FBF1F201FB12000A2190FBF1F201FB4A
:103570001200C0B2014600901A2008F0C2FA494871
:103580000078642190FBF1F201FB12000A2190FB0C
:10359000F1F0C0B2014600901C2008F0B2FA414898
:1035A0000078642190FBF1F0C0B2014600901E202B
:1035B00008F0A7FA029810B101287ED13AE0394804
:1035C0000078401E3749087008460078012801DA63
:1035D000FF20087008F0DEFC32480078642190FB80
:1035E000F1F201FB12000A2190FBF1F201FB120043
:1035F000C0B2014600901A2008F083FA29480078EA
:10360000642190FBF1F201FB12000A2190FBF1F022
:10361000C0B2014600901C2008F073FA21480078DF
:10362000642190FBF1F0C0B2014600901E2008F02A
:1036300068FA42E01B480078401C1A4908700846A6
:103640000078FF2801DD0120087008F0A3FC154870
:103650000078642190FBF1F201FB12000A2190FB3B
:10366000F1F201FB1200C0B2014600901A2008F0EE
:1036700048FA0C480078642190FBF1F201FB12003B
:103680000A2190FBF1F0C0B2014600901C2008F026
:1036900038FA04480078642106E000006F02002038
:1036A000700200207102002090FBF1F0C0B20146D0
:1036B00000901E2008F025FA00BF00BFD8E208F0F5
:1036C000B2FC0321002008F0EEF9012208210220BB
:1036D00008F0A6F90321022008F0FDF909210420D1
:1036E00008F0E1F908F056FCFE480078642190FBF0
:1036F000F1F201FB12000A2190FBF1F201FB120032
:10370000C0B2014600901A2008F0FBF9F548007895
:10371000642190FBF1F201FB12000A2190FBF1F011
:10372000C0B2014600901C2008F0EBF9ED4800788B
:10373000642190FBF1F0C0B2014600901E2008F019
:10374000E0F9029810B1012876D13AE0E548007816
:10375000401EE449087008460078012801DAFF207D
:10376000087008F017FCDF480078642190FBF1F244
:1037700001FB12000A2190FBF1F201FB1200C0B222
:10378000014600901A2008F0BCF9D6480078642160
:1037900090FBF1F201FB12000A2190FBF1F0C0B2A4
:1037A000014600901C2008F0ACF9CE480078642156
:1037B00090FBF1F0C0B2014600901E2008F0A1F984
:1037C0003AE0C8480078401CC649087008460078AE
:1037D000FF2801DD0120087008F0DCFBC1480078FB
:1037E000642190FBF1F201FB12000A2190FBF1F23F
:1037F00001FB1200C0B2014600901A2008F081F9C6
:10380000B8480078642190FBF1F201FB12000A2114
:1038100090FBF1F0C0B2014600901C2008F071F955
:10382000B0480078642190FBF1F0C0B201460090EE
:103830001E2008F066F900BF00BFA3E308F0F3FB09
:103840000021084608F02FF901220821022008F083
:10385000E7F80321022008F03EF90521042008F0D2
:1038600022F90121172008F0A0F908F093FB9E48E7
:10387000006800280ADA01220821072008F0D0F8A1
:103880009948006840429949086008E096480068F5
:103890009649086000220821072008F0C1F89348E3
:1038A00000680A2190FBF1F201FB1200C0B2014650
:1038B00000901A2008F025F9012211461C2008F07A
:1038C000AFF88A4800680A2190FBF1F090FBF1F212
:1038D00001FB1200C0B2014600901C2008F04DF917
:1038E00082480068642190FBF1F0C0B2014600906C
:1038F0001E2008F006F9029810B1012853D153E0B8
:1039000079480068401E784908600846006810F150
:10391000640F02DA6FF063000860734800680028E3
:103920000ADA01220821072008F07AF86E480068B8
:1039300040426E49086008E06B4800686B490860C7
:1039400000220821072008F06BF808F023FB6748E5
:1039500000680A2190FBF1F201FB1200C0B201469F
:1039600000901A2008F0CDF8012211461C2008F022
:1039700057F85E4800680A2190FBF1F090FBF1F2E5
:1039800001FB1200C0B2014600901C2008F0F5F8BF
:1039900056480068642190FBF1F0C0B201460090E7
:1039A0001E2008F0AEF851E04F480068401C4E4918
:1039B000086008460068642801DD642008604A4801
:1039C000006800280ADA01220821072008F028F8F8
:1039D0004548006840424549086008E042480068A0
:1039E0004249086000220821072008F019F808F071
:1039F000D1FA3E4800680A2190FBF1F201FB120067
:103A0000C0B2014600901A2008F07BF8012211464E
:103A10001C2008F005F8354800680A2190FBF1F0F9
:103A200090FBF1F201FB1200C0B2014600901C2095
:103A300008F0A3F82D480068642190FBF1F0C0B2B3
:103A4000014600901E2008F05CF800BF00BF99E21C
:103A500008F0E9FA0021084608F025F801220821BB
:103A6000022007F0DDFF0B21022008F034F80521C9
:103A7000042008F018F808F08DFA1D4800680028A6
:103A80000ADA01220821072007F0CAFF1848006857
:103A900040421849086008E0154800681549086068
:103AA00000220821072007F0BBFF124800680A2106
:103AB00090FBF1F201FB1200C0B2014600901A2007
:103AC00008F05BF8012211461C2007F0A9FF094805
:103AD00000680A2190FBF1F090FBF1F201FB12006B
:103AE000C0B209E0720200205003002054030020FD
:103AF000580300205C030020014600901C2008F0C1
:103B00003CF8FB480068642190FBF1F0C0B201462C
:103B100000901E2007F0F5FF029810B1012853D144
:103B200053E0F4480068401EF24908600846006807
:103B300010F1640F02DA6FF063000860ED4800686E
:103B400000280ADA01220821072007F069FFE94866
:103B500000684042E649086008E0E6480068E44939
:103B6000086000220821072007F05AFF08F012FA27
:103B7000DF4800680A2190FBF1F201FB1200C0B29D
:103B8000014600901A2007F0F8FF012211461C2080
:103B900007F046FFD64800680A2190FBF1F090FB41
:103BA000F1F201FB1200C0B2014600901C2007F0A8
:103BB000E4FFCF480068642190FBF1F0C0B20146F9
:103BC00000901E2007F09DFF51E0CA480068401C8D
:103BD000C849086008460068642801DD6420086060
:103BE000C448006800280ADA01220821072007F0EB
:103BF00017FFC04800684042BD49086008E0BD4862
:103C00000068BB49086000220821072007F008FF70
:103C100008F0C0F9B64800680A2190FBF1F201FBF8
:103C20001200C0B2014600901A2007F0A6FF012240
:103C300011461C2007F0F4FEAD4800680A2190FBF5
:103C4000F1F090FBF1F201FB1200C0B201460090CE
:103C50001C2007F092FFA6480068642190FBF1F059
:103C6000C0B2014600901E2007F04BFF00BF00BF0E
:103C700088E108F0D8F90421002007F014FF0122A0
:103C80000821022007F0CCFE0321022007F023FFC9
:103C90000921042007F007FF08F07CF908F0CFF9AC
:103CA0009548008842F2107190FBF1F0C0B20146D5
:103CB00000900B2007F0BCFD8F48008842F2107185
:103CC00090FBF1F201FB12004FF47A7190FBF1F0DE
:103CD000C0B2014600900D2007F0AAFD864800887A
:103CE0004FF47A7190FBF1F201FB1200642190FB1A
:103CF000F1F0C0B2014600900F2007F099FD7E4818
:103D00000088642190FBF1F201FB12000A2190FB74
:103D1000F1F0C0B201460090112007F089FD76480D
:103D200000880A2190FBF1F201FB1200C0B20146AB
:103D30000090132007F07CFD029810B101285AD1A1
:103D40005AE06D480088401E6B490880084600888C
:103D5000012802DA4FF6FF70088008F070F9664813
:103D6000008842F2107190FBF1F0C0B20146009061
:103D70000B2007F05DFD6048008842F2107190FB57
:103D8000F1F201FB12004FF47A7190FBF1F0C0B236
:103D9000014600900D2007F04BFD574800884FF476
:103DA0007A7190FBF1F201FB1200642190FBF1F0BB
:103DB000C0B2014600900F2007F03AFD4E4800883F
:103DC000642190FBF1F201FB12000A2190FBF1F05B
:103DD000C0B201460090112007F02AFD4648008835
:103DE0000A2190FBF1F201FB1200C0B201460090E3
:103DF000132007F01DFD5AE03F480088401C3E4953
:103E0000088008460088B0F5803F01DB012008806B
:103E100008F015F93848008842F2107190FBF1F073
:103E2000C0B2014600900B2007F002FD3248008826
:103E300042F2107190FBF1F201FB12004FF47A7123
:103E400090FBF1F0C0B2014600900D2007F0F0FCAD
:103E5000294800884FF47A7190FBF1F201FB1200BF
:103E6000642190FBF1F0C0B2014600900F2007F0F2
:103E7000DFFC21480088642190FBF1F201FB120075
:103E80000A2190FBF1F0C0B201460090112007F02A
:103E9000CFFC194800880A2190FBF1F201FB1200C7
:103EA000C0B201460090132007F0C2FC00BF00BF63
:103EB00068E008F0B8F80421002007F00CFE0621A5
:103EC000022007F008FE0521042007F0ECFD08F0B1
:103ED000B6F808F05FF809480078014600901A200B
:103EE00007F00FFE029858B1012833D11DE0000001
:103EF0005C030020580300207402002014030020FB
:103F0000FE480068401EFD49086008460068012818
:103F100001DA0420086008F03DF8F848007801460E
:103F200000901A2007F0EDFD14E0F4480068401CF2
:103F3000F249086008460068042801DD0120086095
:103F400008F028F8ED480078014600901A2007F0A4
:103F5000D8FD00BF00BF15E008F065F8062102207B
:103F600007F0A1FD0121042007F09DFD08F012F8E3
:103F70000120E34908600020E24908600120E2498D
:103F8000086000BF00BF0EBD03B583B003981A28B8
:103F900082F01F83DFE810F01A001C00D400C90172
:103FA000460244034D040205B2051A06950622078F
:103FB000A9076308120971093A0AF60AFE0BFC0CFC
:103FC000F40DF90E03101611BF12071302F001BB16
:103FD00008F029F80021084607F07DFD012208219C
:103FE000022007F01DFD0121022007F05CFD0121E8
:103FF000042007F058FD07F0CDFFC4480068642195
:10400000B0FBF1F201FB12000A21B0FBF1F201FB5F
:104010001200014602901A2007F073FDBB480068A9
:104020006421B0FBF1F201FB12000A21B0FBF1F0B8
:10403000014602901C2007F064FDB448006864212A
:10404000B0FBF1F0C0B2014602901E2007F059FD0E
:10405000049810B1012871D137E0AC480068401EC7
:10406000AA4908600846006808B9FE20086007F001
:1040700091FFA64800686421B0FBF1F201FB120039
:104080000A21B0FBF1F201FB1200014602901A2056
:1040900007F037FD9D4800686421B0FBF1F201FB99
:1040A00012000A21B0FBF1F0014602901C2007F03B
:1040B00028FD964800686421B0FBF1F0C0B20146CB
:1040C00002901E2007F01DFD38E090480068401C5B
:1040D0008E49086008460068FE2801D90120086062
:1040E00007F058FF894800686421B0FBF1F201FB3A
:1040F00012000A21B0FBF1F201FB1200014602900E
:104100001A2007F0FEFC814800686421B0FBF1F240
:1041100001FB12000A21B0FBF1F0014602901C20C5
:1041200007F0EFFC794800686421B0FBF1F0C0B201
:10413000014602901E2007F0E4FC00BF00BF45E7E7
:1041400007F071FF0221002007F0C5FC01220821C1
:10415000022007F065FC01220821022007F09EFBE7
:104160000121022007F0B7FC0221042007F09BFC8C
:1041700007F010FF66486749096850F82100664952
:10418000086008460068642190FBF1F00A2190FB6A
:10419000F1F201FB1200C0B2014602901A2007F0B2
:1041A000B0FC5D480068642190FBF1F00A2190FBAF
:1041B000F1F090FBF1F201FB1200C0B20146029057
:1041C0001C2007F09EFC5448006842F2107190FBDE
:1041D000F1F0C0B2014602901E2007F092FC049854
:1041E00010B1012846D146E04A480068401E4949BE
:1041F000086008460068002801DA04200860444886
:104200004449096850F8210043490860084600689D
:104210000AF073FA07F0BEFE3F480068642190FB85
:10422000F1F00A2190FBF1F201FB1200C0B201464D
:1042300002901A2007F065FC37480068642190FB63
:10424000F1F00A2190FBF1F090FBF1F201FB12007A
:10425000C0B2014602901C2007F053FC2E480068B3
:1042600042F2107190FBF1F0C0B2014602901E20A4
:1042700007F047FC57E027480068401C25490860C4
:1042800008460068042801DD002008602048214914
:10429000096850F8210020490860084600680AF0C3
:1042A0002CFA07F077FE1C480068642190FBF1F0BF
:1042B0000A2190FBF1F201FB1200C0B2014602900C
:1042C0001A2007F01EFC14480068642190FBF1F0EE
:1042D0000A2190FBF1F090FBF1F201FB1200C0B259
:1042E000014602901C2007F00CFC0B48006842F2CB
:1042F000107190FBF1F0C0B201460FE014030020F2
:10430000800300206C03002088030020BC020020F2
:10431000C8020020C4020020C002002002901E201B
:1043200007F0EFFB00BF00BF50E607F07CFE08215E
:10433000002007F0D0FB01220821022007F070FBCB
:104340000721022007F0C7FB0321042007F0ABFB85
:10435000FE48006801280AD107F01CFE0A211A2035
:1043600007F0E5FB00211C2007F0CBFB0DE007F078
:1043700011FE05211A2007F0DAFB05211C2007F0A9
:10438000D6FB00211E2007F0BCFB049810B10128C9
:1043900046D122E0ED48006868B90120EB49086089
:1043A00007F0F8FD0A211A2007F0C1FB00211C20AC
:1043B00007F0A7FB10E00020E449086007F0EAFDE1
:1043C00005211A2007F0B3FB05211C2007F0AFFBE5
:1043D00000211E2007F095FB22E0DC48006868B948
:1043E0000120DA49086007F0D5FD0A211A2007F0FC
:1043F0009EFB00211C2007F084FB10E00020D34925
:10440000086007F0C7FD05211A2007F090FB052181
:104410001C2007F08CFB00211E2007F072FB00BF60
:1044200000BFD3E507F0FFFD0B21002007F053FB91
:1044300001220821022007F0F3FA0321022007F0ED
:104440004AFB0421084607F02EFB0121172007F044
:10445000ACFB07F09FFDBE48006800280ADA012285
:104460000821072007F0DCFAB94800684042B94942
:10447000086008E0B6480068B649086000220821D4
:10448000072007F0CDFA00211A2007F03AFB01229D
:1044900011461C2007F0C4FAAE4800680A2190FBC0
:1044A000F1F201FB1200C0B2014602901C2007F09D
:1044B00064FBA84800680A2190FBF1F0C0B20146F5
:1044C00002901E2007F01DFB049810B1012875D141
:1044D00075E0A14800689E490968884226DD07F01A
:1044E00059FD9B48006800280ADA012208210720AC
:1044F00007F096FA9648006840429649086008E03E
:10450000934800689349086000220821072007F0BB
:1045100087FA08211A2007F00AFB08211C2007F05F
:1045200006FB06211E2007F002FB47E088480068D2
:10453000401E874908600846006810F1280F02DA1B
:104540006FF02700086007F025FD8148006800280B
:104550000ADA01220821072007F062FA7C48006885
:1045600040427C49086008E0794800687949086061
:1045700000220821072007F053FA00211A2007F033
:10458000C0FA012211461C2007F04AFA714800685F
:104590000A2190FBF1F201FB1200C0B20146029029
:1045A0001C2007F0EAFA6B4800680A2190FBF1F042
:1045B000C0B2014602901E2007F0A3FA2EE0644824
:1045C0000068401C6249086008460068502801DD08
:1045D0005020086007F0DEFC00211A2007F091FA55
:1045E000012211461C2007F01BFA5A4800680A21D4
:1045F00090FBF1F201FB1200C0B2014602901C20B8
:1046000007F0BBFA534800680A2190FBF1F0C0B2F2
:10461000014602901E2007F074FA00BF00BFD5E4E7
:1046200007F001FD0421002007F055FA01220821BE
:10463000022007F0F5F90321022007F04CFA0521CA
:10464000042007F030FA0121172007F0AEFA07F036
:10465000A1FC4148006800280ADA0122082107204D
:1046600007F0DEF93C48006840423C49086008E039
:10467000394800683949086000220821072007F0FE
:10468000CFF900211A2007F03CFA012211461C2024
:1046900007F0C6F9314800680A2190FBF1F201FBEE
:1046A0001200C0B2014602901C2007F066FA2B48A7
:1046B00000680A2190FBF1F0C0B2014602901E2072
:1046C00007F01FFA049810B1012853D153E0224893
:1046D0000068401E204908600846006810F1280F55
:1046E00002DA6FF02700086007F054FC1A480068EF
:1046F00000280ADA01220821072007F091F916485C
:10470000006840421549086008E0134800681349F2
:10471000086000220821072007F082F900211A20F2
:1047200007F0EFF9012211461C2007F079F90B4838
:1047300000680A2190FBF1F201FB1200C0B20146B1
:1047400002901C2007F019FA044809E0DC0200205E
:10475000E0020020EC020020E4020020E802002039
:1047600000680A2190FBF1F0C0B2014602901E20C1
:1047700007F0C7F95BE0F7480068F7490968884225
:104780000EDD07F007FC08211A2007F0D0F90821F8
:104790001C2007F0CCF906211E2007F0C8F945E0DF
:1047A000EC480068401CEB49086008460068502847
:1047B00001DD5020086007F0EDFBE64800680028A6
:1047C0000ADA01220821072007F02AF9E1480068E7
:1047D0004042E249086008E0DE480068DF490860BE
:1047E00000220821072007F01BF900211A2007F0FA
:1047F00088F9012211461C2007F012F9D7480068F9
:104800000A2190FBF1F201FB1200C0B201460290B6
:104810001C2007F0B2F9D14800680A2190FBF1F0A2
:10482000C0B2014602901E2007F06BF900BF00BF26
:1048300085E400220821072007F0F2F807F0F3FBD7
:104840000B21002007F047F901220821022007F080
:10485000E7F80B21022007F03EF90621042007F0BB
:1048600022F907F097FB00211A2007F086F90122B0
:1048700011461C2007F0D4F8B94800680A2190FBC3
:10488000F1F201FB1200C0B2014602901C2007F0B9
:1048900074F9B34800680A2190FBF1F0C0B20146F8
:1048A00002901E2007F02DF9049810B1012873D151
:1048B00043E0AB480068AB49096888420EDA07F06C
:1048C00069FB08211A2007F032F908211C2007F0A3
:1048D0002EF906211E2007F02AF92DE0A0480068D5
:1048E000401E9F49086008460068002801DA012040
:1048F000086007F04FFB00211A2007F03EF9012263
:1049000011461C2007F08CF8954800680A2190FB9E
:10491000F1F201FB1200C0B2014602901C2007F028
:104920002CF98F4800680A2190FBF1F0C0B20146D3
:1049300002901E2007F0E5F82EE089480068401C30
:104940008749086008460068632801DD6320086025
:1049500007F020FB00211A2007F00FF90122114671
:104960001C2007F05DF87E4800680A2190FBF1F2F8
:1049700001FB1200C0B2014602901C2007F0FDF8B6
:10498000774800680A2190FBF1F0C0B2014602901E
:104990001E2007F0B6F800BF00BFC5E407F043FBD8
:1049A0000421002007F097F801220821022007F0D7
:1049B00037F80B21022007F08EF80721042007F0BA
:1049C00072F807F0E7FA00211A2007F0D6F8012262
:1049D00011461C2007F024F8624800680A2190FB69
:1049E000F1F201FB1200C0B2014602901C2007F058
:1049F000C4F85C4800680A2190FBF1F0C0B201469F
:104A000002901E2007F07DF8049810B1012873D1A0
:104A10002EE054480068401E52490860084600686D
:104A2000002801DA0020086007F0B4FA00211A20FB
:104A300007F0A3F8012211461C2006F0F1FF4948B7
:104A400000680A2190FBF1F201FB1200C0B201469E
:104A500002901C2007F091F8424800680A2190FB60
:104A6000F1F0C0B2014602901E2007F04AF843E080
:104A70003B4800683B49096888420EDA07F08AFA29
:104A800008211A2007F053F808211C2007F04FF8DE
:104A900006211E2007F04BF82DE032480068401C2C
:104AA0003049086008460068632801DD632008601B
:104AB00007F070FA00211A2007F05FF80122114672
:104AC0001C2006F0ADFF274800680A2190FBF1F298
:104AD00001FB1200C0B2014602901C2007F04DF805
:104AE000204800680A2190FBF1F0C0B20146029014
:104AF0001E2007F006F800BF00BF15E407F093FA88
:104B00000521002006F0E7FF01220821022006F01F
:104B100087FF0321022006F0DEFF0821042006F0B3
:104B2000C2FF0121172007F040F807F033FA0E48C2
:104B30000068012804D105211C2006F0F8FF03E0DD
:104B400003211C2006F0F3FF049878B101283BD123
:104B500023E00000E4020020E0020020E802002040
:104B6000F0020020F4020020F8020020FE48006855
:104B700048B90120FC49086007F00CFA05211C2007
:104B800006F0D5FF08E00020F749086007F002FAB8
:104B900003211C2006F0CBFF16E0F348006848B95B
:104BA0000120F149086007F0F5F905211C2006F005
:104BB000BEFF08E00020EC49086007F0EBF9032194
:104BC0001C2006F0B4FF00BF00BF2AE407F02BFA58
:104BD0000821002006F07FFF01220821022006F0B4
:104BE0001FFF0521022006F076FF0921042006F0B0
:104BF0005AFF07F0CFF9DD480068012808D10A21E3
:104C00001A2006F094FF00211C2006F07AFF0BE02A
:104C100005211A2006F08BFF05211C2006F087FFD6
:104C200000211E2006F06DFF049810B1012846D126
:104C300022E0CE48006868B90120CC49086007F03E
:104C4000A9F90A211A2006F072FF00211C2006F0A3
:104C500058FF10E00020C549086007F09BF90521C6
:104C60001A2006F064FF05211C2006F060FF0021D9
:104C70001E2006F046FF22E0BC48006868B901200B
:104C8000BA49086007F086F90A211A2006F04FFF9A
:104C900000211C2006F035FF10E00020B349086019
:104CA00007F078F905211A2006F041FF05211C20A4
:104CB00006F03DFF00211E2006F023FF00BF00BFCD
:104CC000ADE407F0B0F90121002006F0ECFE01226E
:104CD0000821022006F0A4FE0021022006F0E3FED7
:104CE0000321042006F0F7FE07F054F9A0480068FD
:104CF00038B90A211A2006F01AFF00211C2006F0FC
:104D000000FF9B48006801280BD105211A2006F0FE
:104D10000EFF05211C2006F00AFF00211E2006F0D0
:104D2000F0FE049810B1012856D12AE0904800689E
:104D3000401E8F49086008460068002801DA0120FB
:104D400008608B48006848B907F024F90A211A2046
:104D500006F0EDFE00211C2006F0D3FE844800681A
:104D600001280DD107F016F905211A2006F0DFFE03
:104D700005211C2006F0DBFE00211E2006F0C1FEEE
:104D80002AE07B480068401C7949086008460068B2
:104D9000012801DD002008607548006848B907F067
:104DA000F9F80A211A2006F0C2FE00211C2006F0A4
:104DB000A8FE6F48006801280DD107F0EBF8052127
:104DC0001A2006F0B4FE05211C2006F0B0FE0021DA
:104DD0001E2006F096FE00BF00BF20E407F023F976
:104DE0000221002006F05FFE01220821022006F0C9
:104DF00017FE0021022006F056FE0321042006F0D3
:104E00006AFE07F0C7F85B48006801280CD103214F
:104E10001A2006F08CFE09211C2006F088FE0321D2
:104E20001E2006F084FE0BE000211A2006F07FFE13
:104E300008211C2006F07BFE00211E2006F061FEEA
:104E4000049810B101284ED126E04A48006888B97C
:104E500001204849086007F09DF803211A2006F058
:104E600066FE09211C2006F062FE03211E2006F0CA
:104E70005EFE10E000203F49086007F08BF800213B
:104E80001A2006F054FE08211C2006F050FE0021D6
:104E90001E2006F036FE26E03648006888B901205C
:104EA0003449086007F076F803211A2006F03FFE27
:104EB00009211C2006F03BFE03211E2006F037FED0
:104EC00010E000202B49086007F064F800211A2048
:104ED00006F02DFE08211C2006F029FE00211E20D0
:104EE00006F00FFE00BF00BFA2E407F09CF803210C
:104EF000002006F0D8FD01220821022006F090FDD6
:104F00000021022006F0CFFD0321042006F0E3FD7E
:104F100007F040F8184800680A2190FBF1F201FB05
:104F20001200C0B2014602901A2006F0EAFD1248B3
:104F300000680A2190FBF1F090FBF1F201FB1200F6
:104F4000C0B2014602901C2006F0DBFD0A48006852
:104F5000642190FBF1F0C0B2014602901E2006F0E1
:104F6000D0FD049868B109E0F8020020FC0200209E
:104F700000030020040300200803002001286CD156
:104F800035E0FE480068401EFC490860084600689D
:104F9000012802DA4FF41670086006F0FBFFF748AC
:104FA00000680A2190FBF1F201FB1200C0B2014639
:104FB00002901A2006F0A5FDF04800680A2190FB37
:104FC000F1F090FBF1F201FB1200C0B20146029039
:104FD0001C2006F096FDE9480068642190FBF1F082
:104FE000C0B2014602901E2006F08BFD35E0E3487A
:104FF0000068401CE149086008460068B0F5167F6B
:1050000001DD0120086006F0C5FFDC4800680A21C8
:1050100090FBF1F201FB1200C0B2014602901A208F
:1050200006F06FFDD54800680A2190FBF1F090FB77
:10503000F1F201FB1200C0B2014602901C2006F002
:1050400060FDCE480068642190FBF1F0C0B20146DB
:1050500002901E2006F055FD00BF00BF9DE406F043
:10506000E2FF0421002006F01EFD0122082102209B
:1050700006F0D6FC0021022006F015FD03210420D5
:1050800006F029FD06F086FFBD4800680A2190FB66
:10509000F1F201FB1200C0B2014602901A2006F0A4
:1050A00030FDB74800680A2190FBF1F090FBF1F267
:1050B00001FB1200C0B2014602901C2006F021FD47
:1050C000AF480068642190FBF1F0C0B20146029045
:1050D0001E2006F016FD049810B101286CD135E0B1
:1050E000A7480068401EA6490860084600680128D5
:1050F00002DA4FF41670086006F04CFFA048006812
:105100000A2190FBF1F201FB1200C0B201460290AD
:105110001A2006F0F6FC9A4800680A2190FBF1F08C
:1051200090FBF1F201FB1200C0B2014602901C207C
:1051300006F0E7FC92480068642190FBF1F0C0B2F1
:10514000014602901E2006F0DCFC35E08C48006829
:10515000401C8B49086008460068B0F5167F01DDE9
:105160000120086006F016FF854800680A2190FBC0
:10517000F1F201FB1200C0B2014602901A2006F0C3
:10518000C0FC7F4800680A2190FBF1F090FBF1F22F
:1051900001FB1200C0B2014602901C2006F0B1FCD7
:1051A00077480068642190FBF1F0C0B2014602909C
:1051B0001E2006F0A6FC00BF00BF9EE406F033FFF1
:1051C0000521002006F06FFC01220821022006F0D4
:1051D00027FC0021022006F066FC0321042006F0D3
:1051E0007AFC06F0D7FE674800680A2190FBF1F2CE
:1051F00001FB1200C0B2014602901A2006F081FCA9
:10520000049810B1012836D11AE05E480068401EAB
:105210005C49086008460068002801DA012008603F
:1052200006F0B8FE574800680A2190FBF1F201FB36
:105230001200C0B2014602901A2006F062FC1AE089
:1052400050480068401C4F49086008460068012823
:1052500001DD0020086006F09DFE4A4800680A2132
:1052600090FBF1F201FB1200C0B2014602901A203D
:1052700006F047FC00BF00BF3FE406F0D4FE062165
:10528000002006F010FC01220821022006F0C8FBD5
:105290000021022006F007FC0321042006F01BFC7D
:1052A0000121172006F081FC06F074FE36480068E4
:1052B0000A2190FBF1F201FB1200C0B201460290FC
:1052C0001A2006F01EFC012211461C2006F0A8FB45
:1052D0002D4800680A2190FBF1F090FBF1F201FBF0
:1052E0001200C0B2014602901C2006F046FC26487F
:1052F0000068642190FBF1F0C0B2014602901E20CC
:1053000006F0FFFB049810B101287DD142E01E4851
:105310000068401E1C49086008460068002801DA41
:105320000020086006F036FE174800680A2190FB4E
:10533000F1F201FB1200C0B2014602901A2006F001
:10534000E0FB012211461C2006F06AFB0E480068B3
:105350000A2190FBF1F090FBF1F201FB1200C0B2C8
:10536000014602901C2006F008FC074800686421F2
:1053700090FBF1F0C0B20146029007E00803002064
:105380000C0300201C030020200300201E2006F038
:10539000B8FB39E0FA480068401CF9490860084643
:1053A0000068782801DD7820086006F0F3FDF448F5
:1053B00000680A2190FBF1F201FB1200C0B2014625
:1053C00002901A2006F09DFB012211461C2006F0D7
:1053D00027FBEB4800680A2190FBF1F090FBF1F20B
:1053E00001FB1200C0B2014602901C2006F0C5FB72
:1053F000E3480068642190FBF1F0C0B201460290DE
:105400001E2006F07EFB00BF00BF59E406F00BFE35
:105410000721002006F047FB01220821022006F0A8
:10542000FFFA0021022006F03EFB0321042006F0D3
:1054300052FBD44800680A2190FBF1F201FB1200F4
:10544000C0B20246012102901C2006F0E9FA06F0E3
:10545000A1FD00211A2006F090FBCA4800680A212D
:1054600090FBF1F090FBF1F201FB1200C0B201469B
:1054700002901C2006F081FBC2480068642190FB6A
:10548000F1F0C0B2014602901E2006F03AFB0498EB
:1054900010B1012874D139E0BA480068401EB949FA
:1054A000086008460068002801DA0020086006F05D
:1054B00071FDB44800680A2190FBF1F201FB120073
:1054C000C0B2014602901A2006F057FB0122114695
:1054D0001C2006F0A5FAAB4800680A2190FBF1F009
:1054E00090FBF1F201FB1200C0B2014602901C20B9
:1054F00006F043FBA3480068642190FBF1F0C0B2C2
:10550000014602901E2006F0FCFA39E09D48006832
:10551000401C9C49086008460068642801DD64203E
:10552000086006F037FD974800680A2190FBF1F209
:1055300001FB1200C0B2014602901A2006F01DFBCA
:10554000012211461C2006F06BFA8E4800680A21E1
:1055500090FBF1F090FBF1F201FB1200C0B20146AA
:1055600002901C2006F009FB86480068642190FB2D
:10557000F1F0C0B2014602901E2006F0C2FA00BF50
:1055800000BF2AE406F04FFD0821002006F08BFA48
:1055900001220821022006F043FA0021022006F031
:1055A00082FA0321042006F096FA0121172006F062
:1055B000FCFA06F0EFFC7448006800280ADA0122C1
:1055C0000821072006F02CFA6F48006840426F4916
:1055D000086008E06C4800686C49086000220821F7
:1055E000072006F01DFA00211A2006F08AFA01228F
:1055F00011461C2006F014FA644800680A2190FB4A
:10560000F1F201FB1200C0B2014602901C2006F02C
:10561000B4FA5E4800680A2190FBF1F0C0B201467E
:1056200002901E2006F06DFA049810B1012875D181
:1056300075E05548006856490968884226DD06F03D
:10564000A9FC5148006800280ADA01220821072035
:1056500006F0E6F94C48006840424C49086008E012
:10566000494800684949086000220821072006F0DF
:10567000D7F908211A2006F05AFA08211C2006F052
:1056800056FA06211E2006F052FA47E03E4800680E
:10569000401E3D4908600846006810F1280F02DAF4
:1056A0006FF02700086006F075FC37480068002896
:1056B0000ADA01220821072006F0B2F93248006810
:1056C00040423249086008E02F4800682F490860CE
:1056D00000220821072006F0A3F900211A2006F075
:1056E00010FA012211461C2006F09AF9274800689A
:1056F0000A2190FBF1F201FB1200C0B201460290B8
:105700001C2006F03AFA214800680A2190FBF1F0CB
:10571000C0B2014602901E2006F0F3F92EE01A48AE
:105720000068401C1849086008460068502801DDE0
:105730005020086006F02EFC00211A2006F0E1F946
:10574000012211461C2006F06BF9104800680A215E
:1057500090FBF1F201FB1200C0B2014602901C2046
:1057600006F00BFA094800680A2190FBF1F0C0B27C
:10577000014602901E2006F0C4F900BF00BF6DE490
:1057800020030020280300203003002034030020E1
:105790003803002006F047FC0921002006F083F9B9
:1057A00001220821022006F03BF90021022006F028
:1057B0007AF90321042006F08EF90121172006F062
:1057C000F4F906F0E7FBFE48006800280ADA012237
:1057D0000821072006F024F9F94800684042F949F9
:1057E000086008E0F6480068F649086000220821D1
:1057F000072006F015F900211A2006F082F901228F
:1058000011461C2006F00CF9EE4800680A2190FBB6
:10581000F1F201FB1200C0B2014602901C2006F01A
:10582000ACF9E84800680A2190FBF1F0C0B20146EB
:1058300002901E2006F065F9049810B1012875D178
:1058400075E0E1480068DE490968884226DD06F017
:10585000A1FBDB48006800280ADA012208210720A2
:1058600006F0DEF8D64800684042D649086008E0F5
:10587000D3480068D349086000220821072006F0B9
:10588000CFF808211A2006F052F908211C2006F052
:105890004EF906211E2006F04AF947E0C848006884
:1058A000401EC74908600846006810F1280F02DA58
:1058B0006FF02700086006F06DFBC1480068002803
:1058C0000ADA01220821072006F0AAF8BC4800687D
:1058D0004042BC49086008E0B9480068B94908601E
:1058E00000220821072006F09BF800211A2006F06C
:1058F00008F9012211461C2006F092F8B148006810
:105900000A2190FBF1F201FB1200C0B201460290A5
:105910001C2006F032F9AB4800680A2190FBF1F038
:10592000C0B2014602901E2006F0EBF82EE0A4481B
:105930000068401CA249086008460068502801DD44
:105940005020086006F026FB00211A2006F0D9F846
:10595000012211461C2006F063F89A4800680A21CB
:1059600090FBF1F201FB1200C0B2014602901C2034
:1059700006F003F9934800680A2190FBF1F0C0B2E9
:10598000014602901E2006F0BCF800BF00BF14E4E0
:1059900006F049FB0021084606F085F8012208219F
:1059A000022006F03DF80121022006F07CF80321D8
:1059B000042006F090F806F0EDFA8448006800280C
:1059C0000ADA01220821072006F02AF87F48006839
:1059D00040427F49086008E07C4800687C490860D4
:1059E00000220821072006F01BF800211A2006F0EB
:1059F000C4F8012211461C2006F012F87448006811
:105A00000A2190FBF1F201FB1200C0B201460290A4
:105A10001C2006F0B2F86E4800680A2190FBF1F0F5
:105A2000C0B2014602901E2006F06BF8049810B137
:105A3000012873D173E065480068664909688842A7
:105A400026DD06F0A7FA6148006800280ADA01227C
:105A50000821072005F0E4FF5C48006840425C49EB
:105A6000086008E059480068594908600022082188
:105A7000072005F0D5FF08211A2006F058F8082164
:105A80001C2006F054F806211E2006F050F845E0D0
:105A90004E480068401E4D490860084600680028CE
:105AA00001DA0020086006F075FA4848006800280E
:105AB0000ADA01220821072005F0B2FF43480068F6
:105AC00040424349086008E0404800684049086097
:105AD00000220821072005F0A3FF00211A2006F06C
