:020000040800F2
:10000000F8100020FDE70008850F0008870F0008A2
:100010008B0F00088F0F0008930F000800000000EE
:10002000000000000000000000000000970F000822
:10003000990F0008000000009B0F00089D0F0008AA
:1000400017E8000817E8000817E8000865C9000865
:1000500017E8000817E8000817E8000817E8000884
:1000600017E8000817E8000817E8000817E8000874
:1000700017E8000817E8000817E8000817E8000864
:10008000A5D6000805D7000817E8000817E80008FB
:1000900017E8000817E8000817E8000817E8000844
:1000A00017E8000817E8000817E8000817E8000834
:1000B0003DAA0008C1A900080B0F000817E80008B6
:1000C00017E8000817E8000817E8000817E8000814
:1000D00017E80008750B00080F0B000817E8000868
:1000E000E7DB000817E8000817E8000817E8000831
:1000F00017E8000817E8000817E8000817E80008E4
:1001000017E8000817E80008BDAA000817E800086B
:1001100017E8000817E8000817E8000817E80008C3
:1001200017E8000817E8000817E8000817E80008B3
:1001300000F002F800F062F80AA090E8000C824497
:100140008344AAF10107DA4501D100F057F8AFF274
:10015000090EBAE80F0013F0010F18BFFB1A43F0A5
:100160000103184720220100402201000A444FF0F9
:10017000000C10F8013B13F0070408BF10F8014B06
:100180001D1108BF10F8015B641E05D010F8016B4B
:10019000641E01F8016BF9D113F0080F1EBF10F8AF
:1001A000014BAD1C0C1B09D16D1E58BF01F801CBD2
:1001B000FAD505E014F8016B01F8016B6D1EF9D555
:1001C0009142D6D37047000000230024002500266A
:1001D000103A28BF78C1FBD8520728BF30C148BFAA
:1001E0000B607047642910F02387732910F0E987AA
:1001F000002070471FB51FBD10B510BD10F0EAFFFD
:100200001146FFF7F7FF09F0CCF811F008F803B436
:10021000FFF7F2FF03BC0EF03FFA00000CB5002020
:10022000019000906C48006840F480306A49086092
:1002300000BF6948006800F4003000900198401C3D
:100240000190009818B90198B0F5A06FF1D16248FB
:10025000006800F4003010B10120009001E000209F
:1002600000900098012843D15C48006840F01000DD
:100270005A4908600846006820F0030008600846F4
:10028000006840F0020008605348406852494860E6
:100290000846406848600846406840F4806048600E
:1002A0000846406820F47C1048600846406840F4E6
:1002B000E81048600846006840F08070086000BFA1
:1002C0004548006800F000700028F9D042484068B6
:1002D00020F00300404948600846406840F00200B2
:1002E000486000BF3C48406800F00C000828F9D185
:1002F0000CBD10B5FFF792FF10BD10B53648006871
:1003000040F001003449086008464068344908401C
:100310003149486008460068324908402E49086063
:100320000846006820F4802008600846406820F4F1
:10033000FE0048604FF41F008860FFF7DAFF4FF0BF
:1003400000602949086010BD10B50021002000227E
:10035000214B5B6803F00C0121B1042906D0082968
:1003600028D107E0214B224C236027E01F4B204C73
:10037000236023E0184B5B6803F47010164B5B6836
:1003800003F48032022303EB904022B9194B43431C
:10039000174C23600DE0104B5B6803F4003323B16E
:1003A000144B4343124C236003E0104B4343104C67
:1003B000236003E00D4B0E4C236000BF00BF064BD3
:1003C0005B68C3F303130C4CE15C094B1B68CB4027
:1003D000074C236010BD00000010024000200240C6
:1003E0000000FFF8FFFFF6FE08ED00E000127A00C3
:1003F0000000002000093D000400002070B5024606
:100400000C46FF25FF2309E012F8010B80EA0501E5
:10041000FA48405C80EA0305F948435C201EA4F1D9
:100420000106F4B2F0D143EA052070BD10B50120F9
:10043000F4490870F4480EF0C1FEF4490870F4481D
:100440000078012856D00021F2480FF019FC002155
:10045000F0480FF0A9FEF0480078A0B1EB48007812
:10046000EE49097888420ED10020ED490870ED4927
:10047000087008460078401C0870E4480078EA4993
:10048000E84A12788854E448007860BBE448007871
:1004900048BBE4480078642813DADC480178E24A73
:1004A000E0480078401C1154DE480078401CDD49CB
:1004B000087008460078082815DB084600780870A0
:1004C00011E00120D6490870D1490870D54800785C
:1004D000D5490870D54800688078D5490968887082
:1004E0000020D04908700020CB4908700121C9487C
:1004F0000FF0C6FB10BD10B50120C2490870CD49F0
:100500000870CD480EF05AFEC0490870C048007807
:10051000012856D00021BF480FF0B2FB0021BD4892
:100520000FF042FEBC480078A0B1B8480078BB4943
:10053000097888420ED10020B9490870B94908707D
:1005400008460078401C0870B0480078B649B54AA3
:1005500012788854B048007860BBB148007848BB36
:10056000B0480078642813DAA8480178AE4AAD484C
:100570000078401C1154AB480078401CA949087011
:1005800008460078082815DB08460078087011E056
:100590000120A34908709E490870A2480078A2492A
:1005A0000870A24800688078A14909688870002016
:1005B0009C490870002098490870012195480FF067
:1005C0005FFB10BD10B59A4800689C490978405CF3
:1005D0009B490870084601788B480EF0EBFD974860
:1005E0000078401C954908709148006800780978A7
:1005F000884210DA0020864908708D490968087021
:100600008849087001208D490870002240F2266157
:100610007D480EF06EFD10BD70B500257F48007856
:100620008849087003204870874800788870874997
:100630008748006811F0EAFC064611F04BFC000AFE
:100640008049C87081498248006811F0DFFC064685
:1006500011F040FC7B4908717E48006811F03AFCBB
:100660000121B1EBE03F07D17A4801684FF08F409C
:1006700011F0D4FD7749086074497648006811F09C
:10068000C5FC064611F026FC000A6E4948716F4908
:100690007048006811F0BAFC064611F01BFC69496D
:1006A000887169480088051F04E00021A81D654A7B
:1006B00011546D1E002DF8DC63480078C01CC1B2D7
:1006C0006048FFF79BFE044621125E4A5E480088A0
:1006D000C01C11545C480088001D14545A4800780E
:1006E000401D5D49087010465C490860012240F2D7
:1006F000277145480EF0FDFC70BD70B500254748D8
:10070000007850490870032048704F48007888707E
:100710005048006811F0DEFB0121B1EBE03F07D14A
:100720004C4801684FF08F4011F078FD494908604E
:1007300046494848006811F069FC064611F0CAFBBA
:10074000000A4049C87041494248006811F05EFC07
:10075000064611F0BFFB3B4908713B480088851EE7
:1007600004E00021281D374A11546D1E002DF8DCCD
:1007700035480078C01CC1B23248FFF73FFE04463E
:100780002112304A30480088C01C11542E4800887D
:10079000001D14542C480078401D2F490870104645
:1007A0002E490860012240F2277117480EF0A1FC83
:1007B00070BD70B5002519480078224908700320E3
:1007C000487021480078887020492148006811F05D
:1007D0001DFC064611F07EFB000A1A49C8701B4931
:1007E0001B48006811F012FC064611F073FB154916
:1007F000087115480088851E37E00000660000205B
:10080000660100205D000020004400404C000020F4
:100810005C0000200008004048000020BC020020CE
:10082000490000204F000020C40400205400002094
:10083000580000205F0000200038014050000020D8
:100840004D000020C107002044000020000020418E
:10085000A8030020A403002094020020900200209E
:100860000021281DFD4A11546D1E002DF8DCFC48A6
:100870000078C01CC1B2F948FFF7C0FD0446211240
:10088000F64AF7480088C01C1154F5480088001D3E
:100890001454F3480078401DF24908701046F2499C
:1008A0000860012240F22771F0480EF022FC70BD72
:1008B00010B50220EE490870EE4800884FF6FA7134
:1008C000884205DAEC48007810B900200DF00FF8E6
:1008D000E84800884FF6FA71884203DAE648007863
:1008E00001280ED101200DF002F80120E249087024
:1008F000E04800884FF6FA71884202DB3220DD4979
:1009000008800A20DD49088008460288DC49D94869
:1009100000880CF0C9FFDB480078D0490870D8483F
:1009200000784870D64840788870D5488078C8707C
:10093000D348C0780871D24800794871D0484079CE
:100940008871CF488079C871CD48C0790872CC4889
:10095000007A4872CA48407A88720B20C1490870F0
:10096000C44800880A30C3490880084600880A2124
:1009700090FBF1F0C449098888420BDD3220BD4963
:1009800008800020C14908703220C1490880002039
:10099000C0490870B148B4490860012240F227718B
:1009A000B2480EF0A6FB10BD70B50025BA4800880D
:1009B000B5490880B3480078A849087003204870FA
:1009C00002208870B0480088000AC870AE480078DD
:1009D00008710521A148FFF711FD044620129F4927
:1009E00048718C7107209F4908709C489E49086097
:1009F000012240F227719D480EF07BFB70BD2DE96E
:100A0000F04104460F460020A4490870A44800782D
:100A100000283BD12078401E255C4FF6FF7000EA8D
:100A200005252078205C05432078C01E205C8C4979
:100A30000880084600884FF6FF7101EA00208849C7
:100A400008802078801E205C098808434FF6FF71DB
:100A500001EA40008249088008460088202801DD1C
:100A6000202008802078801EC1B2601CFFF7C6FCE1
:100A7000064606218B48FFF7C1FC06462078801EFB
:100A8000C1B2601CFFF7BAFC064600E02E46AE423B
:100A900038D18348007808BBA07801281BD00328F0
:100AA0001AD1022180480DF0D6FF6D480088042835
:100AB00002D1FFF7B1FD0DE069480088022809D195
:100AC000207910B9FFF775FE04E02079012801D1E3
:100AD000FFF713FE01E000E000BF16E0E07840B150
:100AE00010280DD1022170480DF0B5FFFFF7E0FE90
:100AF00007E002216C480DF0AEFFFFF755FF00E064
:100B000000BF02E0002069490870BDE8F08110B51F
:100B100040F2244155480EF0D1FB01280DD1534835
:100B20000EF04CFB40F2244150480EF0F1FB012046
:100B30005F49087000205F49087040F225514B481A
:100B40000EF0BCFB012814D148480EF037FB5A497F
:100B5000087040F2255145480EF0DAFB56480078FF
:100B60005649544A1278885452480078401C5149DA
:100B7000087010BD70B586B000240226002500BFA5
:100B800004E0002003A90855601CC4B20A2CF8DB5D
:100B900040F225514A480EF091FB30B348480EF020
:100BA0000DFB4849087048480078F0B908460078BD
:100BB000232802D100204549087042480178434863
:100BC00002780078401C414B1870414881543D48E0
:100BD00000780A2809D118460078801E3C49085C34
:100BE0000D2802D1012038490870374800780128C3
:100BF0007CD100203449087035484078012876D1EE
:100C000034480088022805DB0DF008FB0221264845
:100C10000DF023FF2E4880782F4908702C48C078AB
:100C20002E4908702A4800792D49087028484079D3
:100C30002C4908702648C179807901EB00202A49A7
:100C400008802348C179807901EB00202049497947
:100C50001F4A1279CDE90021029049E0C107002026
:100C60004400002094020020900200200044004034
:100C70006503002046000020600000206400002082
:100C800068060020BC0200206200002064030020EF
:100C90009003002063030020840200205D000020F8
:100CA0005F000020C5040020000801405C00002017
:100CB0006C0200206D02002015000020900600202C
:100CC0000038014066020020670200206802002010
:100CD0007C060020780200206F02002070020020B5
:100CE0007102002072020020740200200BE109E072
:100CF000AB48C3788278ABA1B34810F027F9012044
:100D0000B2490870A6484078022866D123208DF8A1
:100D10000C0002208DF80D000D208DF814000A2023
:100D20008DF8150013241DE0A748005D2E280FD074
:100D3000A548005D22280BD0A348005D03A9895D6A
:100D400001EB810100EB4100303803A9885501E037
:100D5000701CC6B29C48005D2C2801D1264603E0D9
:100D6000601CC4B22A2CDFDD00BF701CC4B20FE0CF
:100D70009548005D0D2808D09348005D05EB85017E
:100D800000EB4100303885B200E003E0601CC4B2E3
:100D90002A2CEDDD00BF2846E91705EB1161090A91
:100DA0008DF81210E91705EB11610912A5EB01216D
:100DB000C9B28DF8131000240DE003A8015D84482A
:100DC0000EF0F8F900BF802181480EF061FA00288A
:100DD000F9D0601CC4B20A2CEFDB714840780328BC
:100DE00020D17C480088022805DB0DF017FA02218B
:100DF00079480DF032FE6A48C178807801EB002016
:100E000076490860084600887549088000207149C5
:100E1000088074490880744908807449087001206A
:100E20006A4908705E484078042826D123208DF84E
:100E30000C0004208DF80D0068480088000A8DF829
:100E40000E00664800788DF80F000D208DF8100018
:100E50000A208DF8110000240DE003A8015D5C4814
:100E60000EF0A8F900BF802159480EF011FA0028B1
:100E7000F9D0601CC4B2062CEFDB49484078052845
:100E80001ED154480088022801DB0DF0F4FA00243A
:100E900006E04349A01C085C55490855601CC4B2D3
:100EA00054480078001FA042F3DC00205049085548
:100EB000514B0A4651A1574810F048F80DF0B7FAC7
:100EC0003748407806281ED142480088022801DBB6
:100ED0000DF0D1FA002406E03149A01C085C464917
:100EE0000855601CC4B243480078001FA042F3DCE0
:100EF0000020414908550B463D4A40A1454810F0A5
:100F000025F80DF094FA06B070BD10B501214248E5
:100F10000FF07FF9002834D00120404908700021EB
:100F20003D480EF0ADFE00213B480FF03DF9012099
:100F30003B4908703B4800783B4908703B480078C3
:100F4000D8B138480078042817DD012038490870E6
:100F500035480079222803D03348C078102803D1BF
:100F600001203449087002E00020324908703248FC
:100F7000016832480068FFF742FD012126480FF062
:100F800059F910BD704700BFFEE700BFFEE700BF84
:100F9000FEE700BFFEE770477047704770470000EC
:100FA0007C06002041542B43495053544152543D38
:100FB00022544350222C2225642E25642E25642E93
:100FC0002564222C25640D006C0A002014000020EA
:100FD000003801407802002000080140180000207D
:100FE0007C02002014040020160400207A02002055
:100FF0001C000020680200203000002041542B43D8
:10100000574A41503D222573222C222573220D0A76
:10101000000000008204002000080040480000207A
:10102000490000204F000020C40400205D00002083
:101030005C0000205F0000205800002054000020C9
:10104000002100E0491C8142FCD3704710B564299F
:1010500010D2302202700A22B1FBF2F2303242701A
:101060002E2242700A22B1FBF2F302FB131230323D
:10107000827021E064291FD3B1F57A7F1CD26422EB
:10108000B1FBF2F2303202706422B1FBF2F302FBE8
:1010900013120A23B2FBF3F2303242702E22827016
:1010A0006422B1FBF2F302FB13120A23B2FBF3F446
:1010B00003FB14223032C27010BD3EB50924F9483A
:1010C000048001200CF013FC2246F74900200CF0AC
:1010D000EBFB64200DF0B3FAF3480078F349087095
:1010E000F1484078F2490870EF488078F14908707B
:1010F000ED48C078F0490870EB484179007901EB80
:101100000020EE49088008460088EB490978E94A42
:101110001278CDE900210290E5480378E34802788F
:10112000E7A1F0480FF012FFDF488079EE49087020
:10113000DD48017AC07901EB0020EC4908600846DF
:101140000068EB4908603EBD10B5D6480480D7481A
:101150000078E8490870D64800784870D54800788B
:101160008870D5480078C870D4490888C11700EB4A
:101170001161090ADF4A1171D0490888C11700EBD3
:1011800011610912A0EB01215171D7480078114675
:101190008871D6480088000AC871D448007808725F
:1011A000092401200CF0A3FB2246D24900200CF0B8
:1011B0008CFB64200DF043FA10BD10B53224B94801
:1011C000048000200CF093FB2246B74900200CF06D
:1011D0006BFB64200DF033FAB3480078C649086011
:1011E000B1484078C5490860C548096850F82100F1
:1011F000C4490860AC488078C3490860AA48C078F0
:10120000C249086008460068502804DD08460068A6
:10121000A0F580700860A4480079BD4908600846C0
:101220000068502804DD08460068A0F5807008605A
:101230009D484079B74908609B488079B649086065
:101240009948C079B54908609748007AB449086060
:101250009548407AB34908609348807AB24908605B
:101260009148C07AB14908608F48007BB049086056
:101270008D48407BAF4908608B48807BAE49086051
:101280008948C07BAD4908808748007C097800EB1D
:101290000120AA4908808448407CA94908708248F6
:1012A000807CA84908608048C07CA74908607E48C7
:1012B000007DA649086008460068502804DD0846FD
:1012C0000068A0F5807008607748407DA0490860FC
:1012D00008460068502804DD08460068A0F58070C4
:1012E00008607148807D9B4908606F48C07D9A49BD
:1012F00008606D48007E99490860084600686428C7
:1013000004DD08460068A0F5807008606648407EED
:101310009349086008460068642804DD08460068B0
:10132000A0F5807008606048807E18B15E48807EBD
:10133000FF2812D15C48C07E18B15B48C07EFF28F0
:101340000BD15948007F18B15748007FFF2804D1BE
:101350004FF4C8708349086011E05348807E5249B9
:10136000C97E01EB810100EB41004F49097F01EB90
:10137000C10202EB011100EB81007A4908604A4882
:10138000407F18B14848407FFF281BD14648807FE6
:1013900018B14548807FFF2814D14348C07F18B159
:1013A0004148C07FFF280DD13F4890F8200020B170
:1013B0003D4890F82000FF2804D14FF4FA606A49B4
:1013C000086014E03848407F3749897F0A2202FBD1
:1013D00001003549C97F642202FB0100324991F8BE
:1013E00020104FF47A7202FB01005F4908602E481A
:1013F00090F8210020B12C4890F82100FF2816D148
:10140000294890F8220020B1274890F82200FF28B0
:101410000DD1254890F8230020B1234890F82300EF
:10142000FF2804D14FF4C8705049086010E01E48EE
:1014300090F821001C4991F822100A2202FB0100B9
:10144000194991F82310642202FB01004749086002
:10145000154890F8240020B1134890F82400FF2884
:101460001FD1114890F8250020B10F4890F82500B1
:10147000FF287FD10C4890F8260020B10A4890F848
:101480002600FF2876D1084890F8270020B10648AA
:1014900090F82700FF286DD14FF4FA6034490860B6
:1014A00080E067E060030020250800206F02002034
:1014B00070020020710200207202002074020020DD
:1014C00041542B43495053544152543D22544350AC
:1014D000222C2225642E25642E25642E2564222CA0
:1014E00025640D006C0A00206E0200201800002008
:1014F0007C020020F3070020BC020020C402002070
:10150000C8020020C0020020DC020020E00200200F
:10151000E4020020F0020020F4020020F802002083
:10152000FC02002000030020040300200803002028
:101530000C0300201003002014030020900300205F
:101540006303002020030020280300203003002034
:1015500038030020400300204803002050030020EF
:1015600058030020B4030020B8030020BC0300206F
:10157000C0030020FE4890F82400FD4991F8251092
:101580000A2202FB0100FA4991F82610642202FBAC
:101590000100F74991F827104FF47A7202FB01001D
:1015A000F4490860F24890F8280020B1F04890F81B
:1015B0002800FF281FD1EE4890F8290020B1EC4800
:1015C00090F82900FF2816D1E94890F82A0020B1A8
:1015D000E74890F82A00FF280DD1E54890F82B0045
:1015E00020B1E34890F82B00FF2804D14FF4FA60B3
:1015F000E149086017E0DE4890F82800DC4991F8DE
:1016000029100A2202FB0100D94991F82A1064220C
:1016100002FB0100D64991F82B104FF47A7202FBBD
:101620000100D5490860D24890F82C0020B1D0487C
:1016300090F82C00FF281FD1CD4890F82D0020B144
:10164000CB4890F82D00FF2816D1C94890F82E00FD
:1016500020B1C74890F82E00FF280DD1C44890F85B
:101660002F0020B1C24890F82F00FF2804D14FF47A
:10167000FA60C249086017E0BD4890F82C00BC49E8
:1016800091F82D100A2202FB0100B94991F82E10A1
:10169000642202FB0100B64991F82F104FF47A72D0
:1016A00002FB0100B5490860FFF707FD10BD10B54A
:1016B000B3480480B3480078B3490870B348007851
:1016C0004870B34800788870B2480078C870B24853
:1016D00000780871B14800784871B1480078887185
:1016E000B0480078C871B04800780872AF480078F8
:1016F0004872AF4800788872AE480078C872AE4829
:1017000000780873AD4800784873AD480078887356
:10171000AC480088000AC873AA4800780874AA4830
:1017200000784874A94800788874A9480078C8747B
:10173000A84800780875A84800784875A748007838
:101740008875A7480078C875A64800780876A64826
:1017500000784876A5480068642190FBF1F201FB0F
:1017600012000A2190FBF1F201FB120086498876F3
:101770009E480068642190FBF1F201FB12000A21EF
:1017800090FBF1F08049C87698480068642190FB8E
:10179000F1F07D490877964800684FF47A7190FB24
:1017A000F1F201FB1200642190FBF1F201FB120047
:1017B0000A2190FBF1F201FB1200734948778C4833
:1017C00000684FF47A7190FBF1F201FB1200642182
:1017D00090FBF1F201FB12000A2190FBF1F06A4943
:1017E0008877834800684FF47A7190FBF1F201FB2F
:1017F0001200642190FBF1F06349C8777C480068CF
:101800004FF47A7190FBF1F05F4981F8200079483C
:101810000068642190FBF1F201FB12000A2190FBA9
:10182000F1F201FB1200584981F82100714800686B
:10183000642190FBF1F201FB12000A2190FBF1F010
:10184000514981F822006B480068642190FBF1F057
:101850004D4981F82300474800684FF47A7190FBA6
:10186000F1F201FB1200642190FBF1F201FB120086
:101870000A2190FBF1F201FB1200434981F8240098
:101880003C4800684FF47A7190FBF1F201FB1200C2
:10189000642190FBF1F201FB12000A2190FBF1F0B0
:1018A000394981F82500334800684FF47A7190FB7C
:1018B000F1F201FB1200642190FBF1F0324981F852
:1018C00026002C4800684FF47A7190FBF1F02E4905
:1018D00081F82700284800684FF47A7190FBF1F2F4
:1018E00001FB1200642190FBF1F201FB12000A21BE
:1018F00090FBF1F201FB1200234981F828001E48F9
:1019000000684FF47A7190FBF1F201FB1200642140
:1019100090FBF1F201FB12000A2190FBF1F01A4951
:1019200081F82900144800684FF47A7190FBF1F2B5
:1019300001FB1200642190FBF1F0134981F82A00A9
:101940000D4800684FF47A7190FBF1F00E4981F870
:101950002B000A4800684FF47A7190FBF1F201FB0A
:101960001200642190FBF1F201FB12000A2143E016
:1019700025080020C0030020C4030020C803002065
:1019800060030020BC020020F3070020C4020020F6
:10199000DC020020E0020020E4020020F00200202F
:1019A000F4020020F8020020FC02002000030020C6
:1019B00004030020080300200C0300201003002073
:1019C0001403002090030020630300202003002064
:1019D00028030020300300203803002040030020AB
:1019E000480300205003002058030020B4030020C7
:1019F000B8030020BC03002090FBF1F201FB1200B1
:101A0000FE4981F82C00FE4800684FF47A7190FB83
:101A1000F1F201FB1200642190FBF1F201FB1200D4
:101A20000A2190FBF1F0F54981F82D00F448006897
:101A30004FF47A7190FBF1F201FB1200642190FBEC
:101A4000F1F0EE4981F82E00ED4800684FF47A710C
:101A500090FBF1F0E94981F82F00322400200BF0CF
:101A600046FF2246E54900200BF02FFF64200CF0D2
:101A7000E6FDFFF769FB10BD08B5012114200DF04C
:101A8000F9F94FF48060ADF8000010208DF80300E4
:101A900003208DF802006946DA480CF02FFF4FF45E
:101AA0008061D8480CF0D7FF0220ADF8000010206C
:101AB0008DF8030003208DF802006946D2480CF02F
:101AC0001DFF0221D0480CF0C6FF2020ADF8000019
:101AD0006946CD480CF012FF2021CB480CF0BDFF29
:101AE0001020ADF800006946C7480CF007FF102130
:101AF000C5480CF0B0FF08BD08B5012104200DF069
:101B0000B9F94020ADF8000010208DF80300032043
:101B10008DF802006946BC480CF0F0FE08BD10B517
:101B200004464021B8480CF096FFA0B20CF087FDA7
:101B30004021B5480CF091FF10BD03B581B00021E4
:101B40004FF080400EF09CF801981A2882F0108225
:101B5000DFE810F01A001C00D900A50124023F03A1
:101B6000A3094F041805830A6A0E740FE70542069D
:101B7000BD064A07DD078C083B09550B250CE40C14
:101B8000AB0D8510A511F81102F0F2B90AF02FFA89
:101B90000021084609F083FF01220821022009F0F4
:101BA00023FF0121022009F062FF0121042009F036
:101BB0005EFF0AF0D3F995480078642190FBF1F2BA
:101BC00001FB12000A2190FBF1F201FB1200C0B2EE
:101BD000014600901A2009F078FF8C4800786421B3
:101BE00090FBF1F201FB12000A2190FBF1F0C0B270
:101BF000014600901C2009F068FF844800786421A9
:101C000090FBF1F0C0B2014600901E2009F05DFF8C
:101C1000029810B1012874D13AE07C480078401E47
:101C20007A49087008460078012801DAFF20087018
:101C30000AF094F975480078642190FBF1F201FBF9
:101C400012000A2190FBF1F201FB1200C0B2014622
:101C500000901A2009F039FF6C480078642190FB4D
:101C6000F1F201FB12000A2190FBF1F0C0B2014633
:101C700000901C2009F029FF64480078642190FB43
:101C8000F1F0C0B2014600901E2009F01EFF38E0BE
:101C90005E480078401C5D49087008460078FF28BF
:101CA00001DD0120087059480078642190FBF1F2B1
:101CB00001FB12000A2190FBF1F201FB1200C0B2FD
:101CC000014600901A2009F000FF50480078642176
:101CD00090FBF1F201FB12000A2190FBF1F0C0B27F
:101CE000014600901C2009F0F0FE4848007864216D
:101CF00090FBF1F0C0B2014600901E2009F0E5FE15
:101D000000BF00BF40E70AF072F90221002009F08D
:101D1000C6FE01220821022009F066FE01220821E8
:101D2000022009F09FFD0121022009F0B8FE0221E6
:101D3000042009F09CFE0AF011F93548006864217E
:101D4000B0FBF1F201FB12000A21B0FBF1F201FB42
:101D50001200014600901A2009F0B7FE2C480068D6
:101D60006421B0FBF1F201FB12000A21B0FBF1F09B
:101D7000014600901C2009F0A8FE25480068642157
:101D8000B0FBF1F0C0B2014600901E2009F09DFEAC
:101D9000029810B1012845D145E01D480068401E59
:101DA0001B4908600846006810B940F2E730086037
:101DB0000AF0D4F8164800686421B0FBF1F201FB88
:101DC00012000A21B0FBF1F201FB12000146009063
:101DD0001A2009F07AFE0E4800686421B0FBF1F287
:101DE00001FB12000A21B0FBF1F0014600901C201B
:101DF00009F06BFE0648006864210BE0F307002041
:101E0000C803002000100140000801406E020020BD
:101E100018000020B0FBF1F0C0B2014600901E2077
:101E200009F053FE39E0FE480068401CFC49086098
:101E300008460068B0F57A7F01D3012008600AF0F7
:101E40008DF8F74800686421B0FBF1F201FB120045
:101E50000A21B0FBF1F201FB1200014600901A20AA
:101E600009F033FEEE4800686421B0FBF1F201FB9B
:101E700012000A21B0FBF1F0014600901C2009F08D
:101E800024FEE74800686421B0FBF1F0C0B20146CF
:101E900000901E2009F019FE00BF00BF74E60AF092
:101EA000A6F80821002009F0FAFD012208210220ED
:101EB00009F09AFD0721022009F0F1FD0321042019
:101EC00009F0D5FD0AF09FF8D648006801280AD12C
:101ED0000AF044F80A211A2009F00DFE00211C2006
:101EE00009F0F3FD0DE00AF039F805211A2009F098
:101EF00002FE05211C2009F0FEFD00211E2009F034
:101F0000E4FD029810B1012846D122E0C5480068DE
:101F100068B90120C34908600AF020F80A211A2094
:101F200009F0E9FD00211C2009F0CFFD10E00020A0
:101F3000BC4908600AF012F805211A2009F0DBFDFF
:101F400005211C2009F0D7FD00211E2009F0BDFD50
:101F500022E0B448006868B90120B249086009F07D
:101F6000FDFF0A211A2009F0C6FD00211C2009F0FE
:101F7000ACFD10E00020AB49086009F0EFFF05213F
:101F80001A2009F0B8FD05211C2009F0B4FD00213C
:101F90001E2009F09AFD00BF00BFF5E50AF027F802
:101FA0000B21002009F07BFD01220821022009F00D
:101FB0001BFD0321022009F072FD0421084609F0EF
:101FC00056FD0121172009F0D4FD09F0C7FF9648FE
:101FD000006800280ADA01220821072009F004FD20
:101FE0009148006840429149086008E08E480068C6
:101FF0008E49086000220821072009F0F5FC002125
:102000001A2009F062FD012211461C2009F0ECFCA7
:10201000864800680A2190FBF1F201FB1200C0B271
:10202000014600901C2009F08CFD804800680A21C0
:1020300090FBF1F0C0B2014600901E2009F045FD72
:10204000029810B101287AD17AE07948006876497F
:10205000096888422BDB09F081FF7348006800287B
:102060000ADA01220821072009F0BEFC6E48006848
:1020700040426E49086008E06B4800686B490860A0
:1020800000220821072009F0AFFC002208210720C8
:1020900009F0AAFC08211A2009F02DFD08211C20B6
:1020A00009F029FD06211E2009F025FD47E05E48C4
:1020B0000068401E5C4908600846006810F1280F5F
:1020C00002DA6FF02700086009F048FF5648006800
:1020D00000280ADA01220821072009F085FC52486D
:1020E000006840425149086008E04F4800684F4985
:1020F000086000220821072009F076FC00211A2040
:1021000009F0E3FC012211461C2009F06DFC474850
:1021100000680A2190FBF1F201FB1200C0B20146F7
:1021200000901C2009F00DFD404800680A2190FB3A
:10213000F1F0C0B2014600901E2009F0C6FC46E056
:1021400039480068401C3849086008460068502833
:1021500001DD5020086009F001FF334800680028C5
:102160000ADA01220821072009F03EFC2E48006807
:1021700040422E49086008E02B4800682B4908605F
:1021800000220821072009F02FFC00211A2009F065
:102190009CFC012211461C2009F026FC2348006803
:1021A0000A2190FBF1F201FB1200C0B2014600903F
:1021B0001C2009F0C6FC1D4800680A2190FBF1F0C4
:1021C000C0B2014600901E2009F07FFC00BF00BF96
:1021D000DAE409F00CFF0421002009F060FC012280
:1021E0000821022009F000FC0321022009F057FC1D
:1021F0000421084609F03BFC0121172009F0B9FC35
:1022000009F0ACFE0A480068002817DA012208210C
:10221000072009F0E9FB06480068404205490BE049
:1022200018000020DC020020E0020020EC02002068
:10223000E4020020E8020020086008E0FE48006890
:10224000FE49086000220821072009F0CDFB00218B
:102250001A2009F03AFC012211461C2009F0C4FBA7
:10226000F64800680A2190FBF1F201FB1200C0B2AF
:10227000014600901C2009F064FCF04800680A2127
:1022800090FBF1F0C0B2014600901E2009F01DFC49
:10229000029810B1012848D148E0E7480068401E84
:1022A000E54908600846006810F1280F02DA6FF06F
:1022B0002700086009F052FEDF48006800280ADAAB
:1022C00001220821072009F08FFBDB48006840420B
:1022D000DA49086008E0D8480068D8490860002258
:1022E0000821072009F080FB00211A2009F0EDFBEE
:1022F000012211461C2009F077FBD04800680A2112
:1023000090FBF1F201FB1200C0B2014600901C20CC
:1023100009F017FCC94800680A2190FBF1F0C0B22F
:10232000014600901E2009F0D0FB60E0C248006822
:10233000C3490968884213DB09F010FE0022082116
:10234000072009F051FB08211A2009F0D4FB0821CD
:102350001C2009F0D0FB06211E2009F0CCFB45E033
:10236000B5480068401CB449086008460068502819
:1023700001DD5020086009F0F1FDAF480068002839
:102380000ADA01220821072009F02EFBAA4800687A
:102390004042AA49086008E0A7480068A7490860C9
:1023A00000220821072009F01FFB00211A2009F054
:1023B0008CFB012211461C2009F016FB9F48006887
:1023C0000A2190FBF1F201FB1200C0B2014600901D
:1023D0001C2009F0B6FB994800680A2190FBF1F037
:1023E000C0B2014600901E2009F06FFB00BF00BF85
:1023F00088E400220821072009F0F6FA09F0F7FD29
:102400000B21002009F04BFB01220821022009F0DA
:10241000EBFA0B21022009F042FB0421084609F0E7
:1024200026FB09F09BFD00220821072009F0DCFAB9
:1024300000211A2009F085FB012211461C2009F019
:10244000D3FA804800680A2190FBF1F201FB1200E8
:10245000C0B2014600901C2009F073FB7948006867
:102460000A2190FBF1F0C0B2014600901E2009F055
:102470002CFB029810B101284DD14DE07148006845
:1024800071490968884213DC09F068FD00220821BF
:10249000072009F0A9FA08211A2009F02CFB0821CD
:1024A0001C2009F028FB06211E2009F024FB32E045
:1024B00064480068401E63490860084600680028B8
:1024C00001DA0120086009F049FD002208210720F7
:1024D00009F08AFA00211A2009F033FB0122114683
:1024E0001C2009F081FA574800680A2190FBF1F29C
:1024F00001FB1200C0B2014600901C2009F021FB34
:10250000504800680A2190FBF1F0C0B201460090EB
:102510001E2009F0DAFA33E04A480068401C4949B5
:10252000086008460068632801DD6320086009F040
:1025300015FD00220821072009F056FA00211A2073
:1025400009F0FFFA012211461C2009F04DFA3D481E
:1025500000680A2190FBF1F201FB1200C0B20146B3
:1025600000901C2009F0EDFA364800680A2190FB23
:10257000F1F0C0B2014600901E2009F0A6FA00BF9B
:1025800000BF8BE409F033FD0421002009F087FA35
:1025900001220821022009F027FA0B21022009F06C
:1025A0007EFA0421084609F062FA09F0D7FC0022FD
:1025B0000821072009F018FA00211A2009F0C1FAB1
:1025C000012211461C2009F00FFA1F4800680A2159
:1025D00090FBF1F201FB1200C0B2014600901C20FA
:1025E00009F0AFFA184800680A2190FBF1F0C0B278
:1025F000014600901E2009F068FA029810B10128E7
:102600003ED13EE010480068401E0F490860084671
:102610000068002801DA0020086009F09FFC002211
:102620000821072009F0E0F900211A2009F089FAB1
:10263000012211461C2009E0E4020020E8020020EB
:10264000E0020020F0020020F402002009F0CCF9A2
:10265000F84800680A2190FBF1F201FB1200C0B2B9
:10266000014600901C2009F06CFAF24800680A212B
:1026700090FBF1F0C0B2014600901E2009F025FA4F
:102680004DE0ED480068EB490968884213DC09F029
:1026900065FC00220821072009F0A6F908211A206C
:1026A00009F029FA08211C2009F025FA06211E202C
:1026B00009F021FA32E0DF480068401CDD4908607B
:1026C00008460068632801DD6320086009F046FCC5
:1026D00000220821072009F087F900211A2009F0BB
:1026E00030FA012211461C2009F07EF9D148006819
:1026F0000A2190FBF1F201FB1200C0B201460090EA
:102700001C2009F01EFACB4800680A2190FBF1F06A
:10271000C0B2014600901E2009F0D7F900BF00BFEB
:102720003BE409F064FC0521002009F0B8F901221E
:102730000821022009F058F90321022009F0AFF91D
:102740000621042009F093F90121172009F011FA5C
:1027500009F004FCB9480068012804D105211C20B7
:1027600009F0C9F903E003211C2009F0C4F902981B
:1027700010B101282ED116E0B048006848B90120F8
:10278000AE49086009F0EAFB05211C2009F0B3F905
:1027900008E00020A949086009F0E0FB03211C20A3
:1027A00009F0A9F916E0A548006848B90120A34935
:1027B000086009F0D3FB05211C2009F09CF908E012
:1027C00000209E49086009F0C9FB03211C2009F084
:1027D00092F900BF00BFFBE409F009FC08210020CA
:1027E00009F05DF901220821022009F0FDF8052118
:1027F000022009F054F90721042009F038F909F002
:10280000ADFB8F480068012808D10A211A2009F081
:1028100072F900211C2009F058F90BE005211A205B
:1028200009F069F905211C2009F065F900211E2035
:1028300009F04BF9029810B1012846D122E08048F6
:10284000006868B901207E49086009F087FB0A2109
:102850001A2009F050F900211C2009F036F910E087
:1028600000207749086009F079FB05211A2009F05A
:1028700042F905211C2009F03EF900211E2009F033
:1028800024F922E06E48006868B901206C490860AC
:1028900009F064FB0A211A2009F02DF900211C20FF
:1028A00009F013F910E000206549086009F056FBB3
:1028B00005211A2009F01FF905211C2009F01BF938
:1028C00000211E2009F001F900BF00BF80E409F0DB
:1028D0008EFB0121002009F0CAF801220821022004
:1028E00009F082F80321022009F0D9F80821042018
:1028F00009F0BDF809F032FB5248006838B90A21E6
:102900001A2009F0F8F800211C2009F0DEF84D48E3
:10291000006801280BD105211A2009F0ECF80521E7
:102920001C2009F0E8F800211E2009F0CEF80298DA
:1029300010B1012856D12AE042480068401E4149A2
:10294000086008460068002801DA012008603D4858
:10295000006848B909F002FB0A211A2009F0CBF8F7
:1029600000211C2009F0B1F83648006801280DD17B
:1029700009F0F4FA05211A2009F0BDF805211C2000
:1029800009F0B9F800211E2009F09FF82AE02D482F
:102990000068401C2B49086008460068012801DDDA
:1029A000002008602748006848B909F0D7FA0A21D2
:1029B0001A2009F0A0F800211C2009F086F821480F
:1029C000006801280DD109F0C9FA05211A2009F083
:1029D00092F805211C2009F08EF800211E2009F034
:1029E00074F800BF00BF03E509F001FB02210020DD
:1029F00009F03DF801220821022008F0F5FF03212B
:102A0000022009F04CF80821042009F030F809F000
:102A1000A5FA0D480068012818D103211A2009F0F1
:102A20006AF809211C2009F066F803211E2009F02C
:102A300062F817E0F4020020F0020020F802002003
:102A4000FC020020000300200403002000211A20C3
:102A500009F051F808211C2009F04DF800211E2032
:102A600009F033F8029810B101284ED126E0F84859
:102A7000006888B90120F649086009F06FFA03215F
:102A80001A2009F038F809211C2009F034F8032134
:102A90001E2009F030F810E00020ED49086009F030
:102AA0005DFA00211A2009F026F808211C2009F0FF
:102AB00022F800211E2009F008F826E0E44800680A
:102AC00088B90120E249086009F048FA03211A2078
:102AD00009F011F809211C2009F00DF803211E202E
:102AE00009F009F810E00020D949086009F036FA29
:102AF00000211A2008F0FFFF08211C2008F0FBFF2E
:102B000000211E2008F0E1FF00BF00BF70E409F0C3
:102B10006EFA0321002008F0AAFF012208210220FA
:102B200008F062FF0321022008F0B9FF0821042009
:102B300008F09DFF09F012FAC64800680A2190FBD0
:102B4000F1F201FB1200C0B2014600901A2008F019
:102B5000BCFFC04800680A2190FBF1F090FBF1F245
:102B600001FB1200C0B2014600901C2008F0ADFF2E
:102B7000B8480068642190FBF1F0C0B201460090B3
:102B80001E2008F0A2FF029810B101286CD135E098
:102B9000B0480068401EAF49086008460068012838
:102BA00002DA4FF41670086009F0D8F9A9480068F5
:102BB0000A2190FBF1F201FB1200C0B20146009025
:102BC0001A2008F082FFA34800680A2190FBF1F068
:102BD00090FBF1F201FB1200C0B2014600901C20F4
:102BE00008F073FF9B480068642190FBF1F0C0B2CD
:102BF000014600901E2008F068FF35E09548006807
:102C0000401C9449086008460068B0F5167F01DD55
:102C10000120086009F0A2F98E4800680A2190FBA3
:102C2000F1F201FB1200C0B2014600901A2008F038
:102C30004CFF884800680A2190FBF1F090FBF1F20C
:102C400001FB1200C0B2014600901C2008F03DFFBD
:102C500080480068642190FBF1F0C0B2014600900A
:102C60001E2008F032FF00BF00BF8AE409F0BFF960
:102C70000421002008F0FBFE01220821022008F0B8
:102C8000B3FE0321022008F00AFF0821042008F007
:102C9000EEFE09F063F9704800680A2190FBF1F23A
:102CA00001FB1200C0B2014600901A2008F00DFF8F
:102CB000694800680A2190FBF1F090FBF1F201FBFA
:102CC0001200C0B2014600901C2008F0FEFE6248CF
:102CD0000068642190FBF1F0C0B2014600901E2014
:102CE00008F0F3FE029810B101286CD135E05A4883
:102CF0000068401E5849086008460068012802DA4A
:102D00004FF41670086009F029F9534800680A2149
:102D100090FBF1F201FB1200C0B2014600901A20B4
:102D200008F0D3FE4C4800680A2190FBF1F090FBBC
:102D3000F1F201FB1200C0B2014600901C2008F025
:102D4000C4FE45480068642190FBF1F0C0B2014622
:102D500000901E2008F0B9FE35E03F480068401C96
:102D60003D49086008460068B0F5167F01DD012086
:102D7000086009F0F3F8384800680A2190FBF1F286
:102D800001FB1200C0B2014600901A2008F09DFE1F
:102D9000314800680A2190FBF1F090FBF1F201FB51
:102DA0001200C0B2014600901C2008F08EFE2A4896
:102DB0000068642190FBF1F0C0B2014600901E2033
:102DC00008F083FE00BF00BFAAE409F010F9052156
:102DD000002008F04CFE01220821022008F004FE29
:102DE0000321022008F05BFE0821042008F03FFECA
:102DF00009F0B4F8194800680A2190FBF1F201FBD0
:102E00001200C0B2014600901A2008F05EFE02983F
:102E100010B101283FD123E010480068401E0F493F
:102E2000086008460068002801DA0120086009F0FF
:102E300095F80A4800680A2190FBF1F201FB1200A4
:102E4000C0B2014600901A2008F03FFE23E00000C7
:102E500004030020080300200C0300201C030020B2
:102E6000FE480068401CFD490860084600680128CB
:102E700001DD0020086009F071F8F84800680A21B7
:102E800090FBF1F201FB1200C0B2014600901A2043
:102E900008F01BFE00BF00BF42E409F0A8F80022C2
:102EA0000821072008F0A0FD002208210A2008F0D0
:102EB0009BFD0021084608F0F2FD012208210220B6
:102EC00008F092FD0321022008F0E9FD04210846E4
:102ED00008F0CDFD0121172008F04BFE09F03EF867
:102EE000DF4800680A2190FBF1F201FB1200C0B23A
:102EF000014600901A2008F0E8FD012211461C202E
:102F000008F072FDD64800680A2190FBF1F090FBB2
:102F1000F1F201FB1200C0B2014600901C2008F043
:102F200010FECF480068642190FBF1F0C0B201466A
:102F300000901E2008F0C9FD029810B1012839D177
:102F400039E0C7480068401EC54908600846006867
:102F5000002801DA0020086009F000F8C048006885
:102F60000A2190FBF1F201FB1200C0B20146009071
:102F70001A2008F0AAFD012211461C2008F034FD99
:102F8000B74800680A2190FBF1F090FBF1F201FBD9
:102F90001200C0B2014600901C2008F0D2FDB048DB
:102FA0000068642190FBF1F0C0B2014600901E2041
:102FB00008F08BFD4FE0AA480068401CA849086053
:102FC000A8480068A8490968401A032190FBF1F05D
:102FD00000EB8000A2490968B1EB400F0CDDA1486D
:102FE0000068A1490968401A032190FBF1F000EB49
:102FF000800040009A49086008F0B0FF98480068D7
:103000000A2190FBF1F201FB1200C0B201460090D0
:103010001A2008F05AFD012211461C2008F0E4FC99
:103020008F4800680A2190FBF1F090FBF1F201FB60
:103030001200C0B2014600901C2008F082FD8848B2
:103040000068642190FBF1F0C0B2014600901E20A0
:1030500008F03BFD00BF00BF38E408F0C8FF0021C6
:10306000084608F01CFD01220821022008F0BCFCE3
:103070000B21022008F013FD0421084608F0F7FC9C
:103080007A4800680A2190FBF1F201FB1200C0B2FD
:103090000246012100901C2008F0A6FC08F05EFF0B
:1030A00000211A2008F04DFD704800680A2190FBAD
:1030B000F1F090FBF1F201FB1200C0B2014600906A
:1030C0001C2008F03EFD69480068642190FBF1F087
:1030D000C0B2014600901E2008F0F7FC029810B123
:1030E000012839D139E061480068401E5F49086015
:1030F00008460068002801DA0020086008F02EFF6A
:103100005A4800680A2190FBF1F201FB1200C0B29C
:10311000014600901A2008F014FD012211461C20DF
:1031200008F062FC514800680A2190FBF1F090FB26
:10313000F1F201FB1200C0B2014600901C2008F021
:1031400000FD4A480068642190FBF1F0C0B20146DE
:1031500000901E2008F0B9FC4FE044480068401C75
:10316000424908604248006842490968401A032100
:1031700090FBF1F000EB80003C490968B1EB400F97
:103180000CDD3B4800683B490968401A032190FB6D
:10319000F1F000EB800040003449086008F0DEFEEA
:1031A000324800680A2190FBF1F201FB1200C0B224
:1031B000014600901A2008F0C4FC012211461C2090
:1031C00008F012FC294800680A2190FBF1F090FBFE
:1031D000F1F201FB1200C0B2014600901C2008F081
:1031E000B0FC22480068642190FBF1F0C0B20146B7
:1031F00000901E2008F069FC00BF00BF86E408F0C4
:10320000F6FE0021084608F032FC012208210220C7
:1032100008F0EAFB0321022008F041FC0921042008
:1032200008F025FC08F09AFE13480078642190FB12
:10323000F1F201FB12000A2190FBF1F201FB1200F6
:10324000C0B2014600901A2008F03FFC0A480078FE
:10325000642190FBF1F201FB12000FE01C0300203F
:1032600020030020E0020020E402002028030020C8
:10327000F0020020F40200206F0200200A2190FBDF
:10328000F1F0C0B2014600901C2008F01EFCFE4880
:103290000078642190FBF1F0C0B2014600901E203E
:1032A00008F013FC029810B1012876D13AE0F648F4
:1032B0000078401EF449087008460078012801DAB9
:1032C000FF20087008F04AFEEF480078642190FB68
:1032D000F1F201FB12000A2190FBF1F201FB120056
:1032E000C0B2014600901A2008F0EFFBE6480078D3
:1032F000642190FBF1F201FB12000A2190FBF1F036
:10330000C0B2014600901C2008F0DFFBDE480078C8
:10331000642190FBF1F0C0B2014600901E2008F03D
:10332000D4FB3AE0D8480078401CD74908700846DA
:103330000078FF2801DD0120087008F00FFED24858
:103340000078642190FBF1F201FB12000A2190FB4E
:10335000F1F201FB1200C0B2014600901A2008F001
:10336000B4FBC9480078642190FBF1F201FB120024
:103370000A2190FBF1F0C0B2014600901C2008F039
:10338000A4FBC1480078642190FBF1F0C0B2014673
:1033900000901E2008F099FB00BF00BF65E408F014
:1033A00026FE0121002008F062FB012208210220F4
:1033B00008F01AFB0321022008F071FB0921042008
:1033C00008F055FB08F0CAFDB0480078642190FB76
:1033D000F1F201FB12000A2190FBF1F201FB120055
:1033E000C0B2014600901A2008F06FFBA748007891
:1033F000642190FBF1F201FB12000A2190FBF1F035
:10340000C0B2014600901C2008F05FFB9F48007886
:10341000642190FBF1F0C0B2014600901E2008F03C
:1034200054FB029810B1012876D13AE09748007811
:10343000401E9649087008460078012801DAFF20EE
:10344000087008F08BFD91480078642190FBF1F240
:1034500001FB12000A2190FBF1F201FB1200C0B245
:10346000014600901A2008F030FB8848007864215B
:1034700090FBF1F201FB12000A2190FBF1F0C0B2C7
:10348000014600901C2008F020FB80480078642151
:1034900090FBF1F0C0B2014600901E2008F015FB31
:1034A0003AE07A480078401C78490870084600786D
:1034B000FF2801DD0120087008F050FD73480078F6
:1034C000642190FBF1F201FB12000A2190FBF1F262
:1034D00001FB1200C0B2014600901A2008F0F5FA74
:1034E0006A480078642190FBF1F201FB12000A2186
:1034F00090FBF1F0C0B2014600901C2008F0E5FA04
:1035000062480078642190FBF1F0C0B2014600905F
:103510001E2008F0DAFA00BF00BF55E408F067FD8E
:103520000221002008F0A3FA01220821022008F05D
:103530005BFA0321022008F0B2FA0921042008F006
:1035400096FA08F00BFD52480078642190FBF1F2E6
:1035500001FB12000A2190FBF1F201FB1200C0B244
:10356000014600901A2008F0B0FA4948007864211A
:1035700090FBF1F201FB12000A2190FBF1F0C0B2C6
:10358000014600901C2008F0A0FA41480078642110
:1035900090FBF1F0C0B2014600901E2008F095FAB1
:1035A000029810B101287ED13AE039480078401ED7
:1035B0003749087008460078012801DAFF200870B2
:1035C00008F0CCFC32480078642190FBF1F201FB5A
:1035D00012000A2190FBF1F201FB1200C0B2014679
:1035E00000901A2008F071FA29480078642190FBB5
:1035F000F1F201FB12000A2190FBF1F0C0B201468A
:1036000000901C2008F061FA21480078642190FBAA
:10361000F1F0C0B2014600901E2008F056FA42E0D8
:103620001B480078401C1A49087008460078FF289B
:1036300001DD0120087008F091FC15480078642134
:1036400090FBF1F201FB12000A2190FBF1F201FB69
:103650001200C0B2014600901A2008F036FA0C4859
:103660000078642190FBF1F201FB12000A2190FB2B
:10367000F1F0C0B2014600901C2008F026FA044880
:103680000078642106E000006F0200207002002034
:103690007102002090FBF1F0C0B2014600901E20A4
:1036A00008F013FA00BF00BFD8E208F0A0FC032125
:1036B000002008F0DCF901220821022008F094F92A
:1036C0000321022008F0EBF90921042008F0CFF9CA
:1036D00008F044FCFE480078642190FBF1F201FB05
:1036E00012000A2190FBF1F201FB1200C0B2014668
:1036F00000901A2008F0E9F9F5480078642190FB61
:10370000F1F201FB12000A2190FBF1F0C0B2014678
:1037100000901C2008F0D9F9ED480078642190FB56
:10372000F1F0C0B2014600901E2008F0CEF90298D8
:1037300010B1012876D13AE0E5480078401EE4490E
:10374000087008460078012801DAFF20087008F0A8
:1037500005FCDF480078642190FBF1F201FB1200C8
:103760000A2190FBF1F201FB1200C0B20146009069
:103770001A2008F0AAF9D6480078642190FBF1F2EB
:1037800001FB12000A2190FBF1F0C0B2014600904B
:103790001C2008F09AF9CE480078642190FBF1F0E3
:1037A000C0B2014600901E2008F08FF93AE0C848E8
:1037B0000078401CC649087008460078FF2801DDE3
:1037C0000120087008F0CAFBC1480078642190FB12
:1037D000F1F201FB12000A2190FBF1F201FB120051
:1037E000C0B2014600901A2008F06FF9B84800787E
:1037F000642190FBF1F201FB12000A2190FBF1F031
:10380000C0B2014600901C2008F05FF9B048007873
:10381000642190FBF1F0C0B2014600901E2008F038
:1038200054F900BF00BFA3E308F0E1FB0021084604
:1038300008F01DF901220821022008F0D5F8032123
:10384000022008F02CF90521042008F010F90121CC
:10385000172008F08EF908F081FB9E4800680028C8
:103860000ADA01220821072008F0BEF8994800680A
:1038700040429949086008E0964800689649086007
:1038800000220821072008F0AFF8934800680A21B9
:1038900090FBF1F201FB1200C0B2014600901A2029
:1038A00008F013F9012211461C2008F09DF88A48FF
:1038B00000680A2190FBF1F090FBF1F201FB12008D
:1038C000C0B2014600901C2008F03BF98248006815
:1038D000642190FBF1F0C0B2014600901E2008F078
:1038E000F4F8029810B1012853D153E079480068E8
:1038F000401E784908600846006810F1640F02DA3B
:103900006FF0630008607348006800280ADA01223B
:103910000821072008F068F86E48006840426E49A8
:10392000086008E06B4800686B49086000220821C5
:10393000072008F059F808F011FB674800680A21D1
:1039400090FBF1F201FB1200C0B2014600901A2078
:1039500008F0BBF8012211461C2008F045F85E482B
:1039600000680A2190FBF1F090FBF1F201FB1200DC
:10397000C0B2014600901C2008F0E3F856480068E9
:10398000642190FBF1F0C0B2014600901E2008F0C7
:103990009CF851E04F480068401C4E4908600846BA
:1039A0000068642801DD642008604A480068002837
:1039B0000ADA01220821072008F016F845480068B5
:1039C00040424549086008E04248006842490860B2
:1039D00000220821072008F007F808F0BFFA3E4847
:1039E00000680A2190FBF1F201FB1200C0B201460F
:1039F00000901A2008F069F8012211461C2007F0F7
:103A0000F3FF354800680A2190FBF1F090FBF1F2DA
:103A100001FB1200C0B2014600901C2008F091F892
:103A20002D480068642190FBF1F0C0B2014600907F
:103A30001E2008F04AF800BF00BF99E208F0D7FA4C
:103A40000021084608F013F801220821022007F09F
:103A5000CBFF0B21022008F022F80521042008F0FA
:103A600006F808F07BFA1D48006800280ADA0122EF
:103A70000821072007F0B8FF18480068404218499D
:103A8000086008E015480068154908600022082110
:103A9000072007F0A9FF124800680A2190FBF1F205
:103AA00001FB1200C0B2014600901A2008F049F84C
:103AB000012211461C2007F097FF094800680A21DF
:103AC00090FBF1F090FBF1F201FB1200C0B209E0B3
:103AD00072020020500300205403002058030020ED
:103AE0005C030020014600901C2008F02AF8FB48E7
:103AF0000068642190FBF1F0C0B2014600901E20E6
:103B000007F0E3FF029810B1012853D153E0F448C5
:103B10000068401EF24908600846006810F1640F12
:103B200002DA6FF063000860ED48006800280ADAE6
:103B300001220821072007F057FFE94800684042AA
:103B4000E649086008E0E6480068E44908600022A9
:103B50000821072007F048FF08F000FADF48006856
:103B60000A2190FBF1F201FB1200C0B20146009065
:103B70001A2007F0E6FF012211461C2007F034FF4F
:103B8000D64800680A2190FBF1F090FBF1F201FBAE
:103B90001200C0B2014600901C2007F0D2FFCF48AF
:103BA0000068642190FBF1F0C0B2014600901E2035
:103BB00007F08BFF51E0CA480068401CC849086004
:103BC00008460068642801DD64200860C448006875
:103BD00000280ADA01220821072007F005FFC04863
:103BE00000684042BD49086008E0BD480068BB4924
:103BF000086000220821072007F0F6FE08F0AEF961
:103C0000B64800680A2190FBF1F201FB1200C0B235
:103C1000014600901A2007F094FF012211461C2053
:103C200007F0E2FEAD4800680A2190FBF1F090FB3E
:103C3000F1F201FB1200C0B2014600901C2007F017
:103C400080FFA6480068642190FBF1F0C0B20146F5
:103C500000901E2007F039FF00BF00BF88E108F088
:103C6000C6F90421002007F002FF012208210220EA
:103C700007F0BAFE0321022007F011FF09210420FA
:103C800007F0F5FE08F06AF908F0BDF995480088DC
:103C900042F2107190FBF1F0C0B2014600900B208F
:103CA00007F0AAFD8F48008842F2107190FBF1F2F4
:103CB00001FB12004FF47A7190FBF1F0C0B20146A3
:103CC00000900D2007F098FD864800884FF47A7127
:103CD00090FBF1F201FB1200642190FBF1F0C0B205
:103CE000014600900F2007F087FD7E480088642180
:103CF00090FBF1F201FB12000A2190FBF1F0C0B23F
:103D000001460090112007F077FD764800880A21CF
:103D100090FBF1F201FB1200C0B2014600901320AB
:103D200007F06AFD029810B101285AD15AE06D4897
:103D30000088401E6B49088008460088012802DA86
:103D40004FF6FF70088008F05EF96648008842F27E
:103D5000107190FBF1F0C0B2014600900B2007F00B
:103D60004BFD6048008842F2107190FBF1F201FBBC
:103D700012004FF47A7190FBF1F0C0B2014600904E
:103D80000D2007F039FD574800884FF47A7190FBF9
:103D9000F1F201FB1200642190FBF1F0C0B2014688
:103DA00000900F2007F028FD4E480088642190FB0A
:103DB000F1F201FB12000A2190FBF1F0C0B20146C2
:103DC0000090112007F018FD464800880A2190FB5A
:103DD000F1F201FB1200C0B201460090132007F07F
:103DE0000BFD5AE03F480088401C3E4908800846C9
:103DF0000088B0F5803F01DB0120088008F003F95E
:103E00003848008842F2107190FBF1F0C0B20146D0
:103E100000900B2007F0F0FC3248008842F210714D
:103E200090FBF1F201FB12004FF47A7190FBF1F07C
:103E3000C0B2014600900D2007F0DEFC2948008842
:103E40004FF47A7190FBF1F201FB1200642190FBB8
:103E5000F1F0C0B2014600900F2007F0CDFC2148E0
:103E60000088642190FBF1F201FB12000A2190FB13
:103E7000F1F0C0B201460090112007F0BDFC1948D6
:103E800000880A2190FBF1F201FB1200C0B201464A
:103E90000090132007F0B0FC00BF00BF68E008F0FE
:103EA000A6F80421002007F0FAFD0621022007F001
:103EB000F6FD0521042007F0DAFD08F0A4F808F06B
:103EC0004DF809480078014600901A2007F0FDFDE2
:103ED000029858B1012833D11DE000005C03002096
:103EE000580300207402002014030020FE480068DC
:103EF000401EFD49086008460068012801DA0420D8
:103F0000086008F02BF8F8480078014600901A2065
:103F100007F0DBFD14E0F4480068401CF24908603B
:103F200008460068042801DD0120086008F016F842
:103F3000ED480078014600901A2007F0C6FD00BF4A
:103F400000BF15E008F053F80621022007F08FFDAE
:103F50000121042007F08BFD08F000F80120E3495F
:103F600008600020E24908600120E249086000BFC3
:103F700000BF0EBD03B583B003981A2882F01F83DB
:103F8000DFE810F01A001C00D400C9014602440307
:103F90004D040205B2051A0695062207A907630813
:103FA000120971093A0AF60AFE0BFC0CF40DF90E1F
:103FB00003101611BF12071302F001BB08F017F827
:103FC0000021084607F06BFD01220821022007F0BE
:103FD0000BFD0121022007F04AFD0121042007F01A
:103FE00046FD07F0BBFFC44800686421B0FBF1F256
:103FF00001FB12000A21B0FBF1F201FB12000146A5
:1040000002901A2007F061FDBB4800686421B0FBF4
:10401000F1F201FB12000A21B0FBF1F0014602901F
:104020001C2007F052FDB44800686421B0FBF1F099
:10403000C0B2014602901E2007F047FD049810B15F
:10404000012871D137E0AC480068401EAA490860D9
:104050000846006808B9FE20086007F07FFFA64800
:1040600000686421B0FBF1F201FB12000A21B0FBF1
:10407000F1F201FB1200014602901A2007F025FD23
:104080009D4800686421B0FBF1F201FB12000A2197
:10409000B0FBF1F0014602901C2007F016FD964897
:1040A00000686421B0FBF1F0C0B2014602901E200E
:1040B00007F00BFD38E090480068401C8E4908600E
:1040C00008460068FE2801D90120086007F046FF75
:1040D000894800686421B0FBF1F201FB12000A215B
:1040E000B0FBF1F201FB1200014602901A2007F02A
:1040F000ECFC814800686421B0FBF1F201FB120086
:104100000A21B0FBF1F0014602901C2007F0DDFC13
:10411000794800686421B0FBF1F0C0B2014602901A
:104120001E2007F0D2FC00BF00BF45E707F05FFF8D
:104130000221002007F0B3FC01220821022007F031
:1041400053FC01220821022007F08CFB01210220F0
:1041500007F0A5FC0221042007F089FC07F0FEFE11
:1041600066486749096850F82100664908600846B2
:104170000068642190FBF1F00A2190FBF1F201FB51
:104180001200C0B2014602901A2007F09EFC5D4862
:104190000068642190FBF1F00A2190FBF1F090FBA4
:1041A000F1F201FB1200C0B2014602901C2007F0A0
:1041B0008CFC5448006842F2107190FBF1F0C0B2E0
:1041C000014602901E2007F080FC049810B10128DF
:1041D00046D146E04A480068401E49490860084602
:1041E0000068002801DA042008604448444909684E
:1041F00050F8210043490860084600680AF05BFA5D
:1042000007F0ACFE3F480068642190FBF1F00A2102
:1042100090FBF1F201FB1200C0B2014602901A209D
:1042200007F053FC37480068642190FBF1F00A2145
:1042300090FBF1F090FBF1F201FB1200C0B20146DD
:1042400002901C2007F041FC2E48006842F21071D9
:1042500090FBF1F0C0B2014602901E2007F035FC41
:1042600057E027480068401C254908600846006858
:10427000042801DD0020086020482149096850F821
:10428000210020490860084600680AF014FA07F087
:1042900065FE1C480068642190FBF1F00A2190FB48
:1042A000F1F201FB1200C0B2014602901A2007F0A1
:1042B0000CFC14480068642190FBF1F00A2190FB8B
:1042C000F1F090FBF1F201FB1200C0B20146029046
:1042D0001C2007F0FAFB0B48006842F2107190FBBB
:1042E000F1F0C0B201460FE014030020800300206B
:1042F0006C03002088030020BC020020C8020020BC
:10430000C4020020C002002002901E2007F0DDFB46
:1043100000BF00BF50E607F06AFE0821002007F04A
:10432000BEFB01220821022007F05EFB07210220CC
:1043300007F0B5FB0321042007F099FBFE48006855
:1043400001280AD107F00AFE0A211A2007F0D3FB40
:1043500000211C2007F0B9FB0DE007F0FFFD05214F
:104360001A2007F0C8FB05211C2007F0C4FB002120
:104370001E2007F0AAFB049810B1012846D122E0C4
:10438000ED48006868B90120EB49086007F0E6FDD8
:104390000A211A2007F0AFFB00211C2007F095FB33
:1043A00010E00020E449086007F0D8FD05211A203C
:1043B00007F0A1FB05211C2007F09DFB00211E201A
:1043C00007F083FB22E0DC48006868B90120DA4985
:1043D000086007F0C3FD0A211A2007F08CFB0021BA
:1043E0001C2007F072FB10E00020D349086007F0A2
:1043F000B5FD05211A2007F07EFB05211C2007F0E2
:104400007AFB00211E2007F060FB00BF00BFD3E550
:1044100007F0EDFD0B21002007F041FB01220821F0
:10442000022007F0E1FA0321022007F038FB042103
:10443000084607F01CFB0121172007F09AFB07F044
:104440008DFDBE48006800280ADA012208210720F5
:1044500007F0CAFAB94800684042B949086008E064
:10446000B6480068B649086000220821072007F016
:10447000BBFA00211A2007F028FB012211461C205C
:1044800007F0B2FAAE4800680A2190FBF1F201FB96
:104490001200C0B2014602901C2007F052FBA8484F
:1044A00000680A2190FBF1F0C0B2014602901E2084
:1044B00007F00BFB049810B1012875D175E0A148F5
:1044C00000689E490968884226DD07F047FD9B4841
:1044D000006800280ADA01220821072007F084FA80
:1044E0009648006840429649086008E09348006892
:1044F0009349086000220821072007F075FA082177
:104500001A2007F0F8FA08211C2007F0F4FA062117
:104510001E2007F0F0FA47E088480068401E8749EF
:1045200008600846006810F1280F02DA6FF02700D3
:10453000086007F013FD8148006800280ADA0122AC
:104540000821072007F050FA7C48006840427C4967
:10455000086008E07948006879490860002208216D
:10456000072007F041FA00211A2007F0AEFA0122D5
:1045700011461C2007F038FA714800680A2190FBA8
:10458000F1F201FB1200C0B2014602901C2007F0BC
:10459000D8FA6B4800680A2190FBF1F0C0B20146DE
:1045A00002901E2007F091FA2EE064480068401C3B
:1045B0006249086008460068502801DD5020086004
:1045C00007F0CCFC00211A2007F07FFA01221146E7
:1045D0001C2007F009FA5A4800680A2190FBF1F202
:1045E00001FB1200C0B2014602901C2007F0A9FA9C
:1045F000534800680A2190FBF1F0C0B201460290D6
:104600001E2007F062FA00BF00BFD5E407F0EFFC00
:104610000421002007F043FA01220821022007F0BC
:10462000E3F90321022007F03AFA0521042007F0FC
:104630001EFA0121172007F09CFA07F08FFC414871
:10464000006800280ADA01220821072007F0CCF9C7
:104650003C48006840423C49086008E0394800682E
:104660003949086000220821072007F0BDF9002120
:104670001A2007F02AFA012211461C2007F0B4F98B
:10468000314800680A2190FBF1F201FB1200C0B230
:10469000014602901C2007F054FA2B4800680A21BA
:1046A00090FBF1F0C0B2014602901E2007F00DFA17
:1046B000049810B1012853D153E022480068401EED
:1046C000204908600846006810F1280F02DA6FF0F0
:1046D0002700086007F042FC1A48006800280ADA40
:1046E00001220821072007F07FF9164800684042A0
:1046F0001549086008E01348006813490860002263
:104700000821072007F070F900211A2007F0DDF9D1
:10471000012211461C2007F067F90B4800680A21A6
:1047200090FBF1F201FB1200C0B2014602901C2086
:1047300007F007FA044809E0DC020020E00200204C
:10474000EC020020E4020020E802002000680A21B8
:1047500090FBF1F0C0B2014602901E2007F0B5F9BF
:104760005BE0F7480068F749096888420EDD07F00A
:10477000F5FB08211A2007F0BEF908211C2007F0DC
:10478000BAF906211E2007F0B6F945E0EC480068AA
:10479000401CEB49086008460068502801DD5020A5
:1047A000086007F0DBFBE648006800280ADA01220F
:1047B0000821072007F018F9E14800684042E24963
:1047C000086008E0DE480068DF4908600022082130
:1047D000072007F009F900211A2007F076F90122D5
:1047E00011461C2007F000F9D74800680A2190FB09
:1047F000F1F201FB1200C0B2014602901C2007F04A
:10480000A0F9D14800680A2190FBF1F0C0B201463E
:1048100002901E2007F059F900BF00BF85E4002276
:104820000821072007F0E0F807F0E1FB0B2100204A
:1048300007F035F901220821022007F0D5F80B21F5
:10484000022007F02CF90621042007F010F907F0E8
:1048500085FB00211A2007F074F9012211461C2063
:1048600007F0C2F8B94800680A2190FBF1F201FB99
:104870001200C0B2014602901C2007F062F9B34852
:1048800000680A2190FBF1F0C0B2014602901E20A0
:1048900007F01BF9049810B1012873D143E0AB482D
:1048A0000068AB49096888420EDA07F057FB082117
:1048B0001A2007F020F908211C2007F01CF9062116
:1048C0001E2007F018F92DE0A0480068401E9F49FF
:1048D000086008460068002801DA0120086007F037
:1048E0003DFB00211A2007F02CF9012211461C2063
:1048F00007F07AF8954800680A2190FBF1F201FB75
:104900001200C0B2014602901C2007F01AF98F482D
:1049100000680A2190FBF1F0C0B2014602901E200F
:1049200007F0D3F82EE089480068401C87490860EA
:1049300008460068632801DD6320086007F00EFB6D
:1049400000211A2007F0FDF8012211461C2007F073
:104950004BF87E4800680A2190FBF1F201FB12003F
:10496000C0B2014602901C2007F0EBF877480068BF
:104970000A2190FBF1F0C0B2014602901E2007F020
:10498000A4F800BF00BFC5E407F031FB04210020FC
:1049900007F085F801220821022007F025F80B21F5
:1049A000022007F07CF80721042007F060F807F0E8
:1049B000D5FA00211A2007F0C4F8012211461C2064
:1049C00007F012F8624800680A2190FBF1F201FB3F
:1049D0001200C0B2014602901C2007F0B2F85C48F9
:1049E00000680A2190FBF1F0C0B2014602901E203F
:1049F00007F06BF8049810B1012873D12EE05448E9
:104A00000068401E5249086008460068002801DA24
:104A10000020086007F0A2FA00211A2007F091F8A0
:104A2000012211461C2006F0DFFF494800680A21D8
:104A300090FBF1F201FB1200C0B2014602901C2073
:104A400007F07FF8424800680A2190FBF1F0C0B2FD
:104A5000014602901E2007F038F843E03B4800680A
:104A60003B49096888420EDA07F078FA08211A20D3
:104A700007F041F808211C2007F03DF806211E2010
:104A800007F039F82DE032480068401C30490860D2
:104A900008460068632801DD6320086007F05EFABD
:104AA00000211A2007F04DF8012211461C2006F0C3
:104AB0009BFF274800680A2190FBF1F201FB1200DE
:104AC000C0B2014602901C2007F03BF82048006865
:104AD0000A2190FBF1F0C0B2014602901E2006F0C0
:104AE000F4FF00BF00BF15E407F081FA05210020A4
:104AF00006F0D5FF01220821022006F075FF0321F0
:104B0000022006F0CCFF0821042006F0B0FF0121AE
:104B1000172007F02EF807F021FA0E480068012848
:104B200004D105211C2006F0E6FF03E003211C2030
:104B300006F0E1FF049878B101283BD123E00000A2
:104B4000E4020020E0020020E8020020F002002041
:104B5000F4020020F8020020FE48006848B9012055
:104B6000FC49086007F0FAF905211C2006F0C3FF94
:104B700008E00020F749086007F0F0F903211C2045
:104B800006F0B9FF16E0F348006848B90120F14982
:104B9000086007F0E3F905211C2006F0ACFF08E0EF
:104BA0000020EC49086007F0D9F903211C2006F029
:104BB000A2FF00BF00BF2AE407F019FA0821002075
:104BC00006F06DFF01220821022006F00DFF0521ED
:104BD000022006F064FF0921042006F048FF07F0D8
:104BE000BDF9DD480068012808D10A211A2006F025
:104BF00082FF00211C2006F068FF0BE005211A202F
:104C000006F079FF05211C2006F075FF00211E200B
:104C100006F05BFF049810B1012846D122E0CE488F
:104C2000006868B90120CC49086007F097F90A21AB
:104C30001A2006F060FF00211C2006F046FF10E05D
:104C40000020C549086007F089F905211A2006F0FF
:104C500052FF05211C2006F04EFF00211E2006F009
:104C600034FF22E0BC48006868B90120BA490860F6
:104C700007F074F90A211A2006F03DFF00211C20DC
:104C800006F023FF10E00020B349086007F066F942
:104C900005211A2006F02FFF05211C2006F02BFF0E
:104CA00000211E2006F011FF00BF00BFADE407F099
:104CB0009EF90121002006F0DAFE012208210220DF
:104CC00006F092FE0021022006F0D1FE032104200E
:104CD00006F0E5FE07F042F9A048006838B90A215D
:104CE0001A2006F008FF00211C2006F0EEFE9B486B
:104CF000006801280BD105211A2006F0FCFE0521D1
:104D00001C2006F0F8FE00211E2006F0DEFE0498AE
:104D100010B1012856D12AE090480068401E8F4902
:104D2000086008460068002801DA012008608B4806
:104D3000006848B907F012F90A211A2006F0DBFED4
:104D400000211C2006F0C1FE8448006801280DD116
:104D500007F004F905211A2006F0CDFE05211C20DC
:104D600006F0C9FE00211E2006F0AFFE2AE07B48B7
:104D70000068401C7949086008460068012801DD88
:104D8000002008607548006848B907F0E7F80A2174
:104D90001A2006F0B0FE00211C2006F096FE6F4897
:104DA000006801280DD107F0D9F805211A2006F076
:104DB000A2FE05211C2006F09EFE00211E2006F00A
:104DC00084FE00BF00BF20E407F011F9022100209B
:104DD00006F04DFE01220821022006F005FE00210A
:104DE000022006F044FE0321042006F058FE07F0DE
:104DF000B5F85B48006801280CD103211A2006F0A1
:104E00007AFE09211C2006F076FE03211E2006F002
:104E100072FE0BE000211A2006F06DFE08211C2016
:104E200006F069FE00211E2006F04FFE049810B126
:104E300001284ED126E04A48006888B90120484937
:104E4000086007F08BF803211A2006F054FE0921B0
:104E50001C2006F050FE03211E2006F04CFE10E040
:104E600000203F49086007F079F800211A2006F079
:104E700042FE08211C2006F03EFE00211E2006F006
:104E800024FE26E03648006888B9012034490860CD
:104E900007F064F803211A2006F02DFE09211C20DA
:104EA00006F029FE03211E2006F025FE10E000205A
:104EB0002B49086007F052F800211A2006F01BFE6B
:104EC00008211C2006F017FE00211E2006F0FDFD23
:104ED00000BF00BFA2E407F08AF80321002006F01B
:104EE000C6FD01220821022006F07EFD00210220DD
:104EF00006F0BDFD0321042006F0D1FD07F02EF8D9
:104F0000184800680A2190FBF1F201FB1200C0B2C0
:104F1000014602901A2006F0D8FD124800680A21C6
:104F200090FBF1F090FBF1F201FB1200C0B20146E0
:104F300002901C2006F0C9FD0A480068642190FB1D
:104F4000F1F0C0B2014602901E2006F0BEFD0498AA
:104F500068B109E0F8020020FC02002000030020F4
:104F6000040300200803002001286CD135E0FE482E
:104F70000068401EFC49086008460068012802DA03
:104F80004FF41670086006F0E9FFF74800680A2140
:104F900090FBF1F201FB1200C0B2014602901A2010
:104FA00006F093FDF04800680A2190FBF1F090FBB9
:104FB000F1F201FB1200C0B2014602901C2006F083
:104FC00084FDE9480068642190FBF1F0C0B201461D
:104FD00002901E2006F079FD35E0E3480068401C91
:104FE000E149086008460068B0F5167F01DD012040
:104FF000086006F0B3FFDC4800680A2190FBF1F27C
:1050000001FB1200C0B2014602901A2006F05DFDBD
:10501000D54800680A2190FBF1F090FBF1F201FB0A
:105020001200C0B2014602901C2006F04EFDCE4890
:105030000068642190FBF1F0C0B2014602901E208E
:1050400006F043FD00BF00BF9DE406F0D0FF042141
:10505000002006F00CFD01220821022006F0C4FC0D
:105060000021022006F003FD0321042006F017FDB5
:1050700006F074FFBD4800680A2190FBF1F201FBC5
:105080001200C0B2014602901A2006F01EFDB74879
:1050900000680A2190FBF1F090FBF1F201FB120095
:1050A000C0B2014602901C2006F00FFDAF48006818
:1050B000642190FBF1F0C0B2014602901E2006F080
:1050C00004FD049810B101286CD135E0A7480068B0
:1050D000401EA649086008460068012802DA4FF41D
:1050E0001670086006F03AFFA04800680A2190FB9D
:1050F000F1F201FB1200C0B2014602901A2006F044
:10510000E4FC9A4800680A2190FBF1F090FBF1F270
:1051100001FB1200C0B2014602901C2006F0D5FC33
:1051200092480068642190FBF1F0C0B20146029001
:105130001E2006F0CAFC35E08C480068401C8B49F4
:10514000086008460068B0F5167F01DD01200860A0
:1051500006F004FF854800680A2190FBF1F201FB8C
:105160001200C0B2014602901A2006F0AEFC7F4841
:1051700000680A2190FBF1F090FBF1F201FB1200B4
:10518000C0B2014602901C2006F09FFC77480068E0
:10519000642190FBF1F0C0B2014602901E2006F09F
:1051A00094FC00BF00BF9EE406F021FF0521002013
:1051B00006F05DFC01220821022006F015FC00210A
:1051C000022006F054FC0321042006F068FC06F0DF
:1051D000C5FE674800680A2190FBF1F201FB12004E
:1051E000C0B2014602901A2006F06FFC049810B17C
:1051F000012836D11AE05E480068401E5C4908600C
:1052000008460068002801DA0120086006F0A6FEC2
:10521000574800680A2190FBF1F201FB1200C0B26E
:10522000014602901A2006F050FC1AE0504800682F
:10523000401C4F49086008460068012801DD002035
:10524000086006F08BFE4A4800680A2190FBF1F2E4
:1052500001FB1200C0B2014602901A2006F035FC94
:1052600000BF00BF3FE406F0C2FE0621002006F0AA
:10527000FEFB01220821022006F0B6FB00210220DD
:1052800006F0F5FB0321042006F009FC012117209C
:1052900006F06FFC06F062FE364800680A2190FBBB
:1052A000F1F201FB1200C0B2014602901A2006F092
:1052B0000CFC012211461C2006F096FB2D480068CC
:1052C0000A2190FBF1F090FBF1F201FB1200C0B259
:1052D000014602901C2006F034FC26480068642138
:1052E00090FBF1F0C0B2014602901E2006F0EDFBEB
:1052F000049810B101287DD142E01E480068401E8C
:105300001C49086008460068002801DA002008608F
:1053100006F024FE174800680A2190FBF1F201FB19
:105320001200C0B2014602901A2006F0CEFB012204
:1053300011461C2006F058FB0E4800680A2190FB1D
:10534000F1F090FBF1F201FB1200C0B201460290B5
:105350001C2006F0F6FB07480068642190FBF1F082
:10536000C0B20146029007E0080300200C030020B1
:105370001C030020200300201E2006F0A6FB39E0BD
:10538000FA480068401CF949086008460068782817
:1053900001DD7820086006F0E1FDF44800680A218C
:1053A00090FBF1F201FB1200C0B2014602901A20FC
:1053B00006F08BFB012211461C2006F015FBEB4882
:1053C00000680A2190FBF1F090FBF1F201FB120062
:1053D000C0B2014602901C2006F0B3FBE34800680F
:1053E000642190FBF1F0C0B2014602901E2006F04D
:1053F0006CFB00BF00BF59E406F0F9FD0721002057
:1054000006F035FB01220821022006F0EDFA00210A
:10541000022006F02CFB0321042006F040FBD448B8
:1054200000680A2190FBF1F201FB1200C0B20246B3
:10543000012102901C2006F0D7FA06F08FFD002112
:105440001A2006F07EFBCA4800680A2190FBF1F0A2
:1054500090FBF1F201FB1200C0B2014602901C2049
:1054600006F06FFBC2480068642190FBF1F0C0B207
:10547000014602901E2006F028FB049810B1012876
:1054800074D139E0BA480068401EB949086008463E
:105490000068002801DA0020086006F05FFDB448CB
:1054A00000680A2190FBF1F201FB1200C0B2014634
:1054B00002901A2006F045FB012211461C2006F03E
:1054C00093FAAB4800680A2190FBF1F090FBF1F2EF
:1054D00001FB1200C0B2014602901C2006F031FB15
:1054E000A3480068642190FBF1F0C0B2014602902D
:1054F0001E2006F0EAFA39E09D480068401C9C49ED
:10550000086008460068642801DD6420086006F031
:1055100025FD974800680A2190FBF1F201FB12007B
:10552000C0B2014602901A2006F00BFB0122114680
:105530001C2006F059FA8E4800680A2190FBF1F011
:1055400090FBF1F201FB1200C0B2014602901C2058
:1055500006F0F7FA86480068642190FBF1F0C0B2CB
:10556000014602901E2006F0B0FA00BF00BF2AE4F8
:1055700006F03DFD0821002006F079FA01220821FD
:10558000022006F031FA0021022006F070FA032111
:10559000042006F084FA0121172006F0EAFA06F04A
:1055A000DDFC7448006800280ADA0122082107207F
:1055B00006F01AFA6F48006840426F49086008E038
:1055C0006C4800686C49086000220821072006F03A
:1055D0000BFA00211A2006F078FA012211461C204D
:1055E00006F002FA644800680A2190FBF1F201FB20
:1055F0001200C0B2014602901C2006F0A2FA5E48DA
:1056000000680A2190FBF1F0C0B2014602901E2012
:1056100006F05BFA049810B1012875D175E0554881
:10562000006856490968884226DD06F097FC514813
:10563000006800280ADA01220821072006F0D4F9C0
:105640004C48006840424C49086008E049480068FE
:105650004949086000220821072006F0C5F9082101
:105660001A2006F048FA08211C2006F044FA062108
:105670001E2006F040FA47E03E480068401E3D49C3
:1056800008600846006810F1280F02DA6FF0270062
:10569000086006F063FC3748006800280ADA012237
:1056A0000821072006F0A0F932480068404232493C
:1056B000086008E02F4800682F4908600022082190
:1056C000072006F091F900211A2006F0FEF90122C8
:1056D00011461C2006F088F9274800680A2190FB33
:1056E000F1F201FB1200C0B2014602901C2006F04C
:1056F00028FA214800680A2190FBF1F0C0B2014667
:1057000002901E2006F0E1F92EE01A480068401CC5
:105710001849086008460068502801DD50200860DC
:1057200006F01CFC00211A2006F0CFF901221146D8
:105730001C2006F059F9104800680A2190FBF1F28C
:1057400001FB1200C0B2014602901C2006F0F9F9DC
:10575000094800680A2190FBF1F0C0B201460290AE
:105760001E2006F0B2F900BF00BF6DE42003002048
:1057700028030020300300203403002038030020D9
:1057800006F035FC0921002006F071F901220821FC
:10579000022006F029F90021022006F068F9032111
:1057A000042006F07CF90121172006F0E2F906F04A
:1057B000D5FBFE48006800280ADA012208210720EC
:1057C00006F012F9F94800684042F949086008E01B
:1057D000F6480068F649086000220821072006F014
:1057E00003F900211A2006F070F9012211461C204D
:1057F00006F0FAF8EE4800680A2190FBF1F201FB8E
:105800001200C0B2014602901C2006F09AF9E84846
:1058100000680A2190FBF1F0C0B2014602901E2000
:1058200006F053F9049810B1012875D175E0E148EC
:105830000068DE490968884226DD06F08FFBDB48F8
:10584000006800280ADA01220821072006F0CCF8B7
:10585000D64800684042D649086008E0D34800684E
:10586000D349086000220821072006F0BDF808216E
:105870001A2006F040F908211C2006F03CF9062108
:105880001E2006F038F947E0C8480068401EC749A6
:1058900008600846006810F1280F02DA6FF0270050
:1058A000086006F05BFBC148006800280ADA0122A4
:1058B0000821072006F098F8BC4800684042BC491F
:1058C000086008E0B9480068B9490860002208216A
:1058D000072006F089F800211A2006F0F6F80122C8
:1058E00011461C2006F080F8B14800680A2190FBA0
:1058F000F1F201FB1200C0B2014602901C2006F03A
:1059000020F9AB4800680A2190FBF1F0C0B20146D3
:1059100002901E2006F0D9F82EE0A4480068401C32
:10592000A249086008460068502801DD5020086040
:1059300006F014FB00211A2006F0C7F801221146D8
:105940001C2006F051F89A4800680A2190FBF1F2F9
:1059500001FB1200C0B2014602901C2006F0F1F8D3
:10596000934800680A2190FBF1F0C0B20146029012
:105970001E2006F0AAF800BF00BF14E406F037FBB3
:105980000021084606F073F801220821022006F0E3
:105990002BF80121022006F06AF80321042006F00A
:1059A0007EF806F0DBFA8448006800280ADA012253
:1059B0000821072006F018F87F48006840427F4918
:1059C000086008E07C4800687C49086000220821E3
:1059D000072006F009F800211A2006F0B2F801228B
:1059E00011461C2006F000F8744800680A2190FB5C
:1059F000F1F201FB1200C0B2014602901C2006F039
:105A0000A0F86E4800680A2190FBF1F0C0B2014690
:105A100002901E2006F059F8049810B1012873D1A5
:105A200073E06548006866490968884226DD06F02B
:105A300095FA6148006800280ADA01220821072047
:105A400005F0D2FF5C48006840425C49086008E00D
:105A5000594800685949086000220821072005F0CC
:105A6000C3FF08211A2006F046F808211C2006F082
:105A700042F806211E2006F03EF845E04E48006838
:105A8000401E4D49086008460068002801DA0020E1
:105A9000086006F063FA4848006800280ADA012224
:105AA0000821072005F0A0FF434800684042434911
:105AB000086008E04048006840490860002208216A
:105AC000072005F091FF00211A2006F03AF8012284
:105AD00011461C2005F088FF384800680A2190FB19
