:020000040800F2
:10000000200F002091B700080F0D0008110D000807
:10001000150D0008190D00081D0D00080000000056
:10002000000000000000000000000000210D00089A
:10003000230D000800000000250D0008270D000812
:10004000ABB70008ABB70008ABB70008C5A3000802
:10005000ABB70008ABB70008ABB70008ABB70008F8
:10006000ABB70008ABB70008ABB70008ABB70008E8
:10007000ABB70008ABB70008ABB70008ABB70008D8
:10008000A1AF000801B00008ABB70008ABB700088B
:10009000ABB70008ABB70008ABB70008ABB70008B8
:1000A000ABB70008ABB70008ABB70008ABB70008A8
:1000B000F97E00087D7E00082B0C0008ABB7000815
:1000C000ABB70008ABB70008ABB70008ABB7000888
:1000D000ABB70008990B0008FF0A0008ABB700088F
:1000E000FFB40008ABB70008ABB70008ABB7000817
:1000F000ABB70008ABB70008ABB70008ABB7000858
:10010000ABB70008ABB70008297F0008ABB7000801
:10011000ABB70008ABB70008ABB70008ABB7000837
:10012000ABB70008ABB70008ABB70008ABB7000827
:1001300000F002F800F05AF80AA090E8000C82449F
:100140008344AAF10107DA4501D100F04FF8AFF27C
:10015000090EBAE80F0013F0010F18BFFB1A43F0A5
:100160000103184758F2000078F200000A444FF0EB
:10017000000C10F8013B13F0070408BF10F8014B06
:100180001D1108BF10F8015B641E05D010F8016B4B
:10019000641E01F8016BF9D113F0080F1EBF10F8AF
:1001A000014BAD1C0C1B09D16D1E58BF01F801CBD2
:1001B000FAD505E014F8016B01F8016B6D1EF9D555
:1001C0009142D6D37047000000230024002500266A
:1001D000103A28BF78C1FBD8520728BF30C148BFAA
:1001E0000B6070471FB51FBD10B510BD0EF00EF8A7
:1001F0001146FFF7F7FF06F02BFC0EF02CF803B4C6
:10020000FFF7F2FF03BC0BF003FA00000CB500206F
:10021000019000906C48006840F480306A490860A2
:1002200000BF6948006800F4003000900198401C4D
:100230000190009818B90198B0F5A06FF1D162480B
:10024000006800F4003010B10120009001E00020AF
:1002500000900098012843D15C48006840F01000ED
:100260005A4908600846006820F003000860084604
:10027000006840F0020008605348406852494860F6
:100280000846406848600846406840F4806048601E
:100290000846406820F47C1048600846406840F4F6
:1002A000E81048600846006840F08070086000BFB1
:1002B0004548006800F000700028F9D042484068C6
:1002C00020F00300404948600846406840F00200C2
:1002D000486000BF3C48406800F00C000828F9D195
:1002E0000CBD10B5FFF792FF10BD10B53648006881
:1002F00040F001003449086008464068344908402D
:100300003149486008460068324908402E49086073
:100310000846006820F4802008600846406820F401
:10032000FE0048604FF41F008860FFF7DAFF4FF0CF
:1003300000602949086010BD10B50021002000228E
:10034000214B5B6803F00C0121B1042906D0082978
:1003500028D107E0214B224C236027E01F4B204C83
:10036000236023E0184B5B6803F47010164B5B6846
:1003700003F48032022303EB904022B9194B43432C
:10038000174C23600DE0104B5B6803F4003323B17E
:10039000144B4343124C236003E0104B4343104C77
:1003A000236003E00D4B0E4C236000BF00BF064BE3
:1003B0005B68C3F303130C4CE15C094B1B68CB4037
:1003C000074C236010BD00000010024000200240D6
:1003D0000000FFF8FFFFF6FE08ED00E000127A00D3
:1003E0000000002000093D000400002070B5024616
:1003F0000C46FF25FF2309E012F8010B80EA0501F6
:10040000FA48405C80EA0305F948435C201EA4F1E9
:100410000106F4B2F0D143EA052070BD10B5012009
:10042000F4490870F4480BF093FEF4490870F4485E
:100430000078012856D00021F2480CF0EBFB002197
:10044000F0480CF07BFEF0480078A0B1EB48007853
:10045000EE49097888420ED10020ED490870ED4937
:10046000087008460078401C0870E4480078EA49A3
:10047000E84A12788854E448007860BBE448007881
:1004800048BBE4480078642813DADC480178E24A83
:10049000E0480078401C1154DE480078401CDD49DB
:1004A000087008460078082815DB084600780870B0
:1004B00011E00120D6490870D1490870D54800786C
:1004C000D5490870D54800688078D5490968887092
:1004D0000020D04908700020CB4908700121C9488C
:1004E0000CF098FB10BD10B50120C2490870CD4931
:1004F0000870CD480BF02CFEC0490870C048007849
:10050000012856D00021BF480CF084FB0021BD48D3
:100510000CF014FEBC480078A0B1B8480078BB4984
:10052000097888420ED10020B9490870B94908708D
:1005300008460078401C0870B0480078B649B54AB3
:1005400012788854B048007860BBB148007848BB46
:10055000B0480078642813DAA8480178AE4AAD485C
:100560000078401C1154AB480078401CA949087021
:1005700008460078082815DB08460078087011E066
:100580000120A34908709E490870A2480078A2493A
:100590000870A24800688078A14909688870002026
:1005A0009C490870002098490870012195480CF07A
:1005B00031FB10BD10B59A4800689C490978405C31
:1005C0009B490870084601788B480BF0BDFD9748A1
:1005D0000078401C954908709148006800780978B7
:1005E000884210DA0020864908708D490968087031
:1005F0008849087001208D490870002240F2266168
:100600007D480BF040FD10BD70B500257F48007897
:1006100088490870032048708748007888708749A7
:10062000874800680EF00EFD06460EF06FFC000ACB
:100630008049C8708149824800680EF003FD064673
:100640000EF064FC7B4908717E4800680EF05EFC89
:100650000121B1EBE03F07D17A4801684FF08F40AC
:100660000EF0F8FD774908607449764800680EF08E
:10067000E9FC06460EF04AFC000A6E4948716F49D3
:10068000704800680EF0DEFC06460EF03FFC69493B
:10069000887169480088051F04E00021A81D654A8B
:1006A00011546D1E002DF8DC63480078C01CC1B2E7
:1006B0006048FFF79BFE044621125E4A5E480088B0
:1006C000C01C11545C480088001D14545A4800781E
:1006D000401D5D49087010465C490860012240F2E7
:1006E000277145480BF0CFFC70BD70B50025474819
:1006F000007850490870032048704F48007888708F
:10070000504800680EF002FC0121B1EBE03F07D138
:100710004C4801684FF08F400EF09CFD494908603D
:100720004649484800680EF08DFC06460EF0EEFB88
:10073000000A4049C8704149424800680EF082FCF6
:1007400006460EF0E3FB3B4908713B480088851ED6
:1007500004E00021281D374A11546D1E002DF8DCDD
:1007600035480078C01CC1B23248FFF73FFE04464E
:100770002112304A30480088C01C11542E4800888D
:10078000001D14542C480078401D2F490870104655
:100790002E490860012240F2277117480BF073FCC4
:1007A00070BD70B5002519480078224908700320F3
:1007B00048702148007888702049214800680EF070
:1007C00041FC06460EF0A2FB000A1A49C8701B49FC
:1007D0001B4800680EF036FC06460EF097FB1549E4
:1007E000087115480088851E37E00000360000209B
:1007F000360100202D000020004400401C00002095
:100800002C00002000080040180000207402002086
:10081000190000201F0000202804002024000020D0
:10082000280000202F000020003801402000002078
:100830001D000020120600201400002000002041AE
:10084000600300205C0300204C02002048020020CE
:100850000021281DFE4A11546D1E002DF8DCFD48B4
:100860000078C01CC1B2FA48FFF7C0FD044621124F
:10087000F74AF8480088C01C1154F6480088001D4B
:100880001454F4480078401DF34908701046F349A9
:100890000860012240F22771F1480BF0F4FB70BDB3
:1008A00010B50220EF490870EF4800884FF6FA7142
:1008B000884205DAED48007810B900200AF095FC6E
:1008C000E94800884FF6FA71884203DAE748007871
:1008D00001280ED101200AF088FC0120E3490870AC
:1008E000E14800884FF6FA71884202DB3220DE4987
:1008F00008800A20DE49088008460288DD49DA4877
:1009000000880AF04FFCDC480078D1490870D948CB
:1009100000784870D74840788870D6488078C8708A
:10092000D448C0780871D34800794871D1484079DB
:100930008871D0488079C871CE48C0790872CD4896
:10094000007A4872CB48407A88720B20C2490870FE
:10095000C54800880A30C4490880084600880A2132
:1009600090FBF1F0C549098888420BDD3220BE4971
:1009700008800020C24908703220C2490880002047
:10098000C1490870B248B5490860012240F2277198
:10099000B3480BF078FB10BD70B50025BB4800884C
:1009A000B6490880B4480078A94908700320487007
:1009B00002208870B1480088000AC870AF480078EB
:1009C00008710521A248FFF711FD04462012A04935
:1009D00048718C710720A04908709D489F490860A4
:1009E000012240F227719E480BF04DFB70BD2DE9AE
:1009F000F04104460F460020A5490870A54800783C
:100A000000283BD12078401E255C4FF6FF7000EA9D
:100A100005252078205C05432078C01E205C8D4988
:100A20000880084600884FF6FF7101EA00208949D6
:100A300008802078801E205C098808434FF6FF71EB
:100A400001EA40008349088008460088202801DD2B
:100A5000202008802078801EC1B2601CFFF7C6FCF1
:100A6000064606218C48FFF7C1FC06462078801E0A
:100A7000C1B2601CFFF7BAFC064600E02E46AE424B
:100A800038D18448007808BBA07801281BD00328FF
:100A90001AD1022181480AF0A8FF6E480088042874
:100AA00002D1FFF7B1FD0DE06A480088022809D1A4
:100AB000207910B9FFF775FE04E02079012801D1F3
:100AC000FFF713FE01E000E000BF16E0E07840B160
:100AD00010280DD1022171480AF087FFFFF7E0FED0
:100AE00007E002216D480AF080FFFFF755FF00E0A4
:100AF00000BF02E000206A490870BDE8F08110B52F
:100B000040F2255156480BF0A3FB20B10320654964
:100B10000870FFF783FC40F2277151480BF098FBF7
:100B2000002838D04C48007800280BDD4B4800687E
:100B300001784A480068401C484B186048480BF050
:100B400003FB1FE000BF402145480BF06BFB002872
:100B5000F9D0002240F2277141480BF094FA0221AB
:100B60004E480AF044FF00204D4908704E49087075
:100B7000322404E0002036490855601E44B2002C9F
:100B8000F8DA00BF34480078002804DD32480078E5
:100B9000401E3149087010BD10B540F22551434840
:100BA0000BF056FB20B103203E490870FFF79BFC79
:100BB00040F227713D480BF04BFB002834D026480B
:100BC000007800280BDD254800680178234800687C
:100BD000401C224B186035480BF0B6FA1BE000BFF2
:100BE000402132480BF01EFB0028F9D0002240F2D1
:100BF00027712E480BF047FA0020294908702A492E
:100C00000870322404E0002011490855601E44B2E7
:100C1000002CF8DA00BF10480078002804DD0E48E8
:100C20000078401E0C49087010BD10B50121204805
:100C30000CF0B9FA002869D001201E490870002183
:100C40001B480BF0E7FF002119480CF077FA33E05E
:100C500012060020140000204C0200204802002050
:100C6000004400401D03002016000020300000203A
:100C700034000020CC050020740200203200002047
:100C80001C030020480300201B0300203C0200201E
:100C90002D0000202F000020290400200008014022
:100CA0002C0000202E0000201F00002000380140F2
:100CB000000800401800002001201B4908701B4854
:100CC00000781B4908701B480078D8B11748007895
:100CD000042817DD012018490870154800792228DA
:100CE00003D01348C078102803D10120134908709D
:100CF00002E000201149087011480168114800689D
:100D0000FFF775FE012110480CF05EFA10BD704728
:100D100000BFFEE700BFFEE700BFFEE700BFFEE743
:100D20007047704770477047190000201F0000206F
:100D3000280400202D0000202C0000202F0000207F
:100D4000280000202400002000080040002100E0CE
:100D5000491C8142FCD3704710B50524FE4804802D
:100D600000200AF042FA2246FC4900200AF01AFA52
:100D700064200AF020FCF9480078F9490870F74827
:100D80004078F8490860F848096850F82100F749A8
:100D9000086010BD10B53224EF48048000200AF02E
:100DA00024FA2246ED4900200AF0FCF964200AF0FA
:100DB00002FCEA480078EA490870E8484078E949C6
:100DC0000860E948096850F82100E8490860E348EC
:100DD0008078E7490860E148C078E649086008463D
:100DE0000068502804DD08460068A0F5807008609F
:100DF000DA480079E049086008460068502804DDB8
:100E000008460068A0F580700860D4484079DB4946
:100E10000860D2488079DA490860D048C079D94959
:100E20000860CE48007AD8490860CC48407AD74953
:100E30000860CA48807AD6490860C848C07AD5494F
:100E40000860C648007BD4490860C448407BD34949
:100E50000860C248807BD2490860C048C07BD14945
:100E60000880BE48007C097800EB0120CD4908804D
:100E7000BA48407CCC490870B848807CCB490860AF
:100E8000B648C07CCA490860B448007DC9490860BA
:100E900008460068502804DD08460068A0F5807008
:100EA0000860AE48407DC449086008460068502884
:100EB00004DD08460068A0F580700860A748807DC2
:100EC000BE490860A548C07DBD490860A348007EB2
:100ED000BC49086008460068642804DD08460068CC
:100EE000A0F5807008609D48407EB74908600846BC
:100EF0000068642804DD08460068A0F5807008607A
:100F00009648807E18B19548807EFF2812D193487C
:100F1000C07E18B19148C07EFF280BD18F48007F5A
:100F200018B18E48007FFF2804D14FF4C870A7493C
:100F3000086011E08948807E8849C97E01EB810103
:100F400000EB41008549097F01EBC10202EB011171
:100F500000EB81009D4908608048407F18B17F48C0
:100F6000407FFF281BD17D48807F18B17B48807F60
:100F7000FF2814D17948C07F18B17848C07FFF2876
:100F80000DD1764890F8200020B1744890F82000E8
:100F9000FF2804D14FF4FA608D49086014E06F48CF
:100FA000407F6E49897F0A2202FB01006B49C97F9D
:100FB000642202FB0100694991F820104FF47A7213
:100FC00002FB010082490860644890F8210020B1CA
:100FD000624890F82100FF2816D1604890F822005E
:100FE00020B15E4890F82200FF280DD15B4890F8B0
:100FF000230020B1594890F82300FF2804D14FF472
:10100000C8707449086010E0544890F821005349B2
:1010100091F822100A2202FB0100504991F8231096
:10102000642202FB01006B4908604C4890F82400E0
:1010300020B14A4890F82400FF281FD1474890F873
:10104000250020B1454890F82500FF2816D14348D7
:1010500090F8260020B1414890F82600FF280DD1D5
:101060003E4890F8270020B13C4890F82700FF2820
:1010700004D14FF4FA605849086017E0374890F8F7
:101080002400364991F825100A2202FB0100334959
:1010900091F82610642202FB0100304991F82710D4
:1010A0004FF47A7202FB01004B4908602B4890F81C
:1010B000280020B1294890F82800FF281FD1274890
:1010C00090F8290020B1254890F82900FF2816D172
:1010D000224890F82A0020B1204890F82A00FF28E2
:1010E0000DD11E4890F82B0020B11C4890F82B0021
:1010F000FF2804D14FF4FA603849086017E0174818
:1011000090F82800154991F829100A2202FB0100E5
:10111000124991F82A10642202FB01000F4991F84C
:101120002B104FF47A7202FB01002C4908600B4827
:1011300090F82C0020B1094890F82C00FF2865D1C8
:10114000064890F82D0020B1044890F82D00FF28A3
:101150005CD1024844E0000018030020760600201D
:10116000740200207C02002080020020780200200F
:1011700094020020980200209C020020A802002077
:10118000AC020020B0020020B4020020B80200200F
:10119000BC020020C0020020C4020020C8020020BF
:1011A000CC020020480300201B030020D8020020AE
:1011B000E0020020E8020020F0020020F8020020F7
:1011C0000003002008030020100300206C0300200F
:1011D0007003002074030020780300207C030020AB
:1011E00090F82E0020B1F94890F82E00FF280DD17C
:1011F000F64890F82F0020B1F44890F82F00FF280F
:1012000004D14FF4FA60F249086017E0EF4890F813
:101210002C00EE4991F82D100A2202FB0100EB4947
:1012200091F82E10642202FB0100E84991F82F107A
:101230004FF47A7202FB0100E549086010BD10B559
:10124000E4480480E4480078E4490870E448007801
:101250004870E44800788870E3480078C870E34834
:1012600000780871E24800784871E2480078887197
:10127000E1480078C871E14800780872E0480078D9
:101280004872E04800788872DF480078C872DF480A
:1012900000780873DE4800784873DE480078887369
:1012A000DD480088000AC873DB4800780874DB4812
:1012B00000784874DA4800788874DA480078C8748E
:1012C000D94800780875D94800784875D84800781A
:1012D0008875D8480078C875D74800780876D74808
:1012E00000784876D6480068642190FBF1F201FB53
:1012F00012000A2190FBF1F201FB1200B749887637
:10130000CF480068642190FBF1F201FB12000A2132
:1013100090FBF1F0B149C876C9480068642190FBA0
:10132000F1F0AE490877C74800684FF47A7190FB36
:10133000F1F201FB1200642190FBF1F201FB1200BB
:101340000A2190FBF1F201FB1200A4494877BD4845
:1013500000684FF47A7190FBF1F201FB12006421F6
:1013600090FBF1F201FB12000A2190FBF1F09B4986
:101370008877B44800684FF47A7190FBF1F201FB72
:101380001200642190FBF1F09449C877AD480068E1
:101390004FF47A7190FBF1F0904981F82000AA484F
:1013A0000068642190FBF1F201FB12000A2190FB1E
:1013B000F1F201FB1200894981F82100A24800687E
:1013C000642190FBF1F201FB12000A2190FBF1F085
:1013D000824981F822009C480068642190FBF1F06A
:1013E0007E4981F82300994800684FF47A7190FB98
:1013F000F1F201FB1200642190FBF1F201FB1200FB
:101400000A2190FBF1F201FB1200744981F82400DB
:101410008E4800684FF47A7190FBF1F201FB1200E4
:10142000642190FBF1F201FB12000A2190FBF1F024
:101430006A4981F82500854800684FF47A7190FB6D
:10144000F1F201FB1200642190FBF1F0634981F895
:1014500026007E4800684FF47A7190FBF1F05F49F6
:1014600081F827007A4800684FF47A7190FBF1F216
:1014700001FB1200642190FBF1F201FB12000A2132
:1014800090FBF1F201FB1200544981F828007048EA
:1014900000684FF47A7190FBF1F201FB12006421B5
:1014A00090FBF1F201FB12000A2190FBF1F04B4995
:1014B00081F82900664800684FF47A7190FBF1F2D8
:1014C00001FB1200642190FBF1F0444981F82A00ED
:1014D0005F4800684FF47A7190FBF1F03F4981F862
:1014E0002B003B4800684FF47A7190FBF1F201FB4E
:1014F0001200642190FBF1F201FB12000A2190FB23
:10150000F1F201FB1200354981F82C0030480068E7
:101510004FF47A7190FBF1F201FB1200642190FB11
:10152000F1F201FB12000A2190FBF1F02B4981F846
:101530002D00274800684FF47A7190FBF1F201FB0F
:101540001200642190FBF1F0244981F82E0020481C
:1015500000684FF47A7190FBF1F0204981F82F0078
:101560003224002009F041FE22461C49002009F0E7
:101570002AFE64200AF01FF810BD08B501210420DE
:101580000AF042FC4020ADF8000010208DF8030066
:1015900003208DF8020069462E480AF079F908BD4B
:1015A00010B5044640212B480AF01FFAA0B20AF0F9
:1015B00002F8402127480AF01AFA10BD03B583B09B
:1015C00003981A2882F0688346E00000760600201F
:1015D000800300201803002074020020440600202D
:1015E0007C02002094020020980200209C0200202F
:1015F000A8020020AC020020B0020020B4020020AB
:10160000B8020020BC020020C0020020C40200205A
:10161000C8020020CC020020480300201B03002049
:10162000D8020020E0020020E8020020F0020020A2
:10163000F80200200003002008030020100300200F
:101640006C03002070030020740300207803002046
:101650007C03002000080140DFE810F01A001C00A5
:10166000DB00BF01460244034D040205B2050D062E
:1016700093062007A70760080F096E092E0AF50ACE
:10168000F30BFE0CF60DFC0E06101811C012081319
:1016900002F002BB07F0A9FF0021084607F007FD92
:1016A00001220821022007F0A7FC0121022007F0F7
:1016B000E6FC0121042007F0E2FC07F057FFFB489D
:1016C0000078642190FBF1F201FB12000A2190FBEB
:1016D000F1F201FB1200C0B2014602901A2007F09D
:1016E000FCFCF2480078642190FBF1F201FB12004F
:1016F0000A2190FBF1F0C0B2014602901C2007F0D5
:10170000ECFCEA480078642190FBF1F0C0B201469D
:1017100002901E2007F0E1FC049810B1012876D158
:101720003AE0E2480078401EE04908700846007838
:10173000012801DAFE20087007F018FFDB48007866
:10174000642190FBF1F201FB12000A2190FBF1F2FF
:1017500001FB1200C0B2014602901A2007F0BDFC46
:10176000D2480078642190FBF1F201FB12000A21BB
:1017700090FBF1F0C0B2014602901C2007F0ADFCD6
:10178000CA480078642190FBF1F0C0B20146029093
:101790001E2007F0A2FC3AE0C4480078401CC34970
:1017A000087008460078FE2801DD0120087007F067
:1017B000DDFEBE480078642190FBF1F201FB1200CF
:1017C0000A2190FBF1F201FB1200C0B20146029027
:1017D0001A2007F082FCB5480078642190FBF1F2F2
:1017E00001FB12000A2190FBF1F0C0B20146029009
:1017F0001C2007F072FCAD480078642190FBF1F0EA
:10180000C0B2014602901E2007F067FC00BF00BF77
:101810003EE707F0EAFE0221002007F048FC012223
:101820000821022007F0E8FB01220821022007F02E
:1018300021FB0121022007F03AFC0221042007F0DD
:101840001EFC07F093FE9A489A49096850F8210057
:101850009949086008460068642190FBF1F00A216C
:1018600090FBF1F201FB1200C0B2014602901A2077
:1018700007F033FC90480068642190FBF1F00A21E6
:1018800090FBF1F090FBF1F201FB1200C0B20146B7
:1018900002901C2007F021FC8748006842F210717A
:1018A00090FBF1F0C0B2014602901E2007F015FC3B
:1018B000049810B1012846D146E07E480068401ED9
:1018C0007C49086008460068002801DA04200860A6
:1018D00077487849096850F8210077490860084638
:1018E000006809F0A4FE07F041FE73480068642117
:1018F00090FBF1F00A2190FBF1F201FB1200C0B263
:10190000014602901A2007F0E8FB6B48006864214A
:1019100090FBF1F00A2190FBF1F090FBF1F201FB5A
:101920001200C0B2014602901C2007F0D6FB6248AC
:10193000006842F2107190FBF1F0C0B201460290D3
:101940001E2007F0CAFB46E05A480068401C59496F
:10195000086008460068042801DD0020086054483B
:101960005449096850F82100534908600846006846
:1019700009F05DFE07F0FAFD4F480068642190FB16
:10198000F1F00A2190FBF1F201FB1200C0B2014616
:1019900002901A2007F0A1FB47480068642190FBE1
:1019A000F1F00A2190FBF1F090FBF1F201FB120043
:1019B000C0B2014602901C2007F08FFB3E48006831
:1019C00042F2107190FBF1F0C0B2014602901E206D
:1019D00007F083FB00BF00BF5AE607F006FE0821B0
:1019E000002007F064FB01220821022007F004FB1D
:1019F0000721022007F05BFB0321042007F03FFBD7
:101A00002E48006801280AD107F0B0FD0A211A20EB
:101A100007F079FB00211C2007F05FFB0DE007F0C9
:101A2000A5FD05211A2007F06EFB05211C2007F0FB
:101A30006AFB00211E2007F050FB049810B101281A
:101A400050D122E01D48006868B901201B49086098
:101A500007F08CFD0A211A2007F055FB00211C20FD
:101A600007F03BFB10E000201449086007F07EFD02
:101A700005211A2007F047FB05211C2007F043FB36
:101A800000211E2007F029FB2CE00C480068B8B9A3
:101A900001200A49086007F069FD0A211A2007F0B1
:101AA00032FB00211C2007F018FB1AE07402002012
:101AB000800200207C020020780200209402002096
:101AC0000020FE49086007F051FD05211A2007F0AB
:101AD0001AFB05211C2007F016FB00211E2007F031
:101AE000FCFA00BF00BFD3E507F07FFD0B2100200B
:101AF00007F0DDFA01220821022007F07DFA032118
:101B0000022007F0D4FA0421084607F0B8FA0121B0
:101B1000172007F036FB07F029FDE9480068002888
:101B20000ADA01220821072007F066FAE448006873
:101B30004042E449086008E0E1480068E149086083
:101B400000220821072007F057FA00211A2007F089
:101B5000C4FA012211461C2007F04EFAD948006849
:101B60000A2190FBF1F201FB1200C0B20146029083
:101B70001C2007F0EEFAD34800680A2190FBF1F030
:101B8000C0B2014602901E2007F0A7FA049810B1D7
:101B9000012875D175E0CC480068C94909688842B8
:101BA00026DD07F0E3FCC648006800280ADA0122B7
:101BB0000821072007F020FAC14800684042C149C7
:101BC000086008E0BE480068BE490860002208219D
:101BD000072007F011FA08211A2007F094FA0821CB
:101BE0001C2007F090FA06211E2007F08CFA47E02F
:101BF000B3480068401EB24908600846006810F10A
:101C0000280F02DA6FF02700086007F0AFFCAC483D
:101C1000006800280ADA01220821072007F0ECF901
:101C2000A74800684042A749086008E0A448006847
:101C3000A449086000220821072007F0DDF90021EF
:101C40001A2007F04AFA012211461C2007F0D4F9A5
:101C50009C4800680A2190FBF1F201FB1200C0B21F
:101C6000014602901C2007F074FA964800680A2189
:101C700090FBF1F0C0B2014602901E2007F02DFA51
:101C80002EE08F480068401C8D49086008460068B7
:101C9000502801DD5020086007F068FC00211A2060
:101CA00007F01BFA012211461C2007F0A5F9854810
:101CB00000680A2190FBF1F201FB1200C0B201465C
:101CC00002901C2007F045FA7E4800680A2190FB2C
:101CD000F1F0C0B2014602901E2007F0FEF900BFED
:101CE00000BFD5E407F081FC0421002007F0DFF9F4
:101CF00001220821022007F07FF90321022007F0CA
:101D0000D6F90521042007F0BAF90121172007F0C0
:101D100038FA07F02BFC6C48006800280ADA012228
:101D20000821072007F068F96748006840426749C2
:101D3000086008E0644800686449086000220821DF
:101D4000072007F059F900211A2007F0C6F90122EF
:101D500011461C2007F050F95C4800680A2190FBEE
:101D6000F1F201FB1200C0B2014602901C2007F004
:101D7000F0F9564800680A2190FBF1F0C0B2014624
:101D800002901E2007F0A9F9049810B1012848D14B
:101D900048E04D480068401E4B490860084600680E
:101DA00010F1280F02DA6FF02700086007F0DEFB61
:101DB0004548006800280ADA01220821072007F0B8
:101DC0001BF94148006840424049086008E03E482D
:101DD00000683E49086000220821072007F00CF93E
:101DE00000211A2007F079F9012211461C2007F082
:101DF00003F9364800680A2190FBF1F201FB12005A
:101E0000C0B2014602901C2007F0A3F92F480068D9
:101E10000A2190FBF1F0C0B2014602901E2007F0AB
:101E20005CF966E0284800682549096888420EDDAB
:101E300007F09CFB08211A2007F065F908211C20F7
:101E400007F061F906211E2007F05DF950E01E48F9
:101E50000068401C1C49086008460068502801DDE5
:101E60005020086007F082FB1748006800280ADA53
:101E700001220821072007F0BFF8134800684042FC
:101E80001249086008E01048006810490860002204
:101E90000821072007F0B0F800211A2007F01DF9EB
:101EA000012211461C2007F0A7F8084800680A2103
:101EB00090FBF1F201FB1200C0B209E09402002095
:101EC00098020020A40200209C020020A002002012
:101ED000014602901C2007F03CF9F84800680A21EE
:101EE00090FBF1F0C0B2014602901E2007F0F5F819
:101EF00000BF00BF8CE400220821072007F07CF817
:101F000007F073FB0B21002007F0D1F80122082114
:101F1000022007F071F80B21022007F0C8F8062113
:101F2000042007F0ACF807F021FB00211A2007F08D
:101F300010F9012211461C2007F05EF8E048006805
:101F40000A2190FBF1F201FB1200C0B2014602909F
:101F50001C2007F0FEF8DA4800680A2190FBF1F037
:101F6000C0B2014602901E2007F0B7F8049810B1E5
:101F7000012873D143E0D2480068D24909688842F9
:101F80000EDA07F0F3FA08211A2007F0BCF808214E
:101F90001C2007F0B8F806211E2007F0B4F82DE049
:101FA000C7480068401EC649086008460068002807
:101FB00001DA0120086007F0D9FA00211A2007F0A1
:101FC000C8F8012211461C2007F016F8BC4800682A
:101FD0000A2190FBF1F201FB1200C0B2014602900F
:101FE0001C2007F0B6F8B64800680A2190FBF1F013
:101FF000C0B2014602901E2007F06FF82EE0B048F4
:102000000068401CAE49086008460068632801DD8E
:102010006320086007F0AAFA00211A2007F099F857
:10202000012211461C2006F0E7FFA54800680A219E
:1020300090FBF1F201FB1200C0B2014602901C209D
:1020400007F087F89E4800680A2190FBF1F0C0B2C3
:10205000014602901E2007F040F800BF00BFBBE41D
:1020600007F0C3FA0421002007F021F8012208211B
:10207000022006F0C1FF0B21022007F018F807210B
:10208000042006F0FCFF07F071FA00211A2007F087
:1020900060F8012211461C2006F0AEFF8948006856
:1020A0000A2190FBF1F201FB1200C0B2014602903E
:1020B0001C2007F04EF8834800680A2190FBF1F0DD
:1020C000C0B2014602901E2007F007F8049810B134
:1020D000012873D12EE07B480068401E79490860D2
:1020E00008460068002801DA0020086007F03EFA80
:1020F00000211A2007F02DF8012211461C2006F0BD
:102100007BFF704800680A2190FBF1F201FB12008E
:10211000C0B2014602901C2007F01BF86948006815
:102120000A2190FBF1F0C0B2014602901E2006F099
:10213000D4FF43E0624800686249096888420EDAC9
:1021400007F014FA08211A2006F0DDFF08211C20F0
:1021500006F0D9FF06211E2006F0D5FF2DE05948D4
:102160000068401C5749086008460068632801DD84
:102170006320086007F0FAF900211A2006F0E9FF51
:10218000012211461C2006F037FF4E4800680A2144
:1021900090FBF1F201FB1200C0B2014602901C203C
:1021A00006F0D7FF474800680A2190FBF1F0C0B263
:1021B000014602901E2006F090FF00BF00BF0BE416
:1021C00007F013FA0521002006F071FF0122082113
:1021D000022006F011FF0321022006F068FF08210B
:1021E000042006F04CFF0121172006F0CAFF07F07B
:1021F000BDF935480068012804D105211C2006F0EE
:1022000082FF03E003211C2006F07DFF049810B13B
:1022100001282ED116E02C48006848B901202A492F
:10222000086007F0A3F905211C2006F06CFF08E008
:1022300000202549086007F099F903211C2006F0C9
:1022400062FF16E02048006848B901201E49086076
:1022500007F08CF905211C2006F055FF08E000204E
:102260001949086007F082F903211C2006F04BFF92
:1022700000BF00BF37E407F0B8F90821002006F0DE
:1022800016FF01220821022006F0B6FE05210220D9
:1022900006F00DFF0921042006F0F1FE07F066F9B3
:1022A0000A480068012813D10A211A2006F02BFFE2
:1022B00000211C2006F011FF16E00000A002002003
:1022C000A8020020AC020020B0020020B4020020CE
:1022D00005211A2006F017FF05211C2006F013FF28
:1022E00000211E2006F0F9FE049810B1012846D105
:1022F00022E0FE48006868B90120FC49086007F048
:1023000035F90A211A2006F0FEFE00211C2006F0F5
:10231000E4FE10E00020F549086007F027F90521E8
:102320001A2006F0F0FE05211C2006F0ECFE00212C
:102330001E2006F0D2FE22E0EC48006868B90120B9
:10234000EA49086007F012F90A211A2006F0DBFEBC
:1023500000211C2006F0C1FE10E00020E3490860C7
:1023600007F004F905211A2006F0CDFE05211C20F6
:1023700006F0C9FE00211E2006F0AFFE00BF00BF20
:10238000AFE407F032F90121002006F078FE0122C7
:102390000821022006F030FE0021022006F06FFE28
:1023A0000321042006F083FE07F0E0F8D04800681F
:1023B00038B90A211A2006F0A6FE00211C2006F0DA
:1023C0008CFECB48006801280BD105211A2006F0AD
:1023D0009AFE05211C2006F096FE00211E2006F024
:1023E0007CFE049810B1012856D12AE0C04800684C
:1023F000401EBF49086008460068002801DA012035
:102400000860BB48006848B907F0B0F80A211A20F4
:1024100006F079FE00211C2006F05FFEB44800683B
:1024200001280DD107F0A2F805211A2006F06BFE55
:1024300005211C2006F067FE00211E2006F04DFE3F
:102440002AE0AB480068401CA949086008460068BB
:10245000012801DD00200860A548006848B907F0A0
:1024600085F80A211A2006F04EFE00211C2006F0F5
:1024700034FE9F48006801280DD107F077F8052148
:102480001A2006F040FE05211C2006F03CFE00212B
:102490001E2006F022FE00BF00BF22E407F0A5F8D0
:1024A0000221002006F0EBFD01220821022006F0A7
:1024B000A3FD0021022006F0E2FD0321042006F026
:1024C000F6FD07F053F88B48006801280CD1032172
:1024D0001A2006F018FE09211C2006F014FE032124
:1024E0001E2006F010FE0BE000211A2006F00BFE65
:1024F00008211C2006F007FE00211E2006F0EDFD3D
:10250000049810B101284ED126E07A48006888B9B5
:1025100001207849086007F029F803211A2006F005
:10252000F2FD09211C2006F0EEFD03211E2006F01D
:10253000EAFD10E000206F49086007F017F800215D
:102540001A2006F0E0FD08211C2006F0DCFD002129
:102550001E2006F0C2FD26E06648006888B901200A
:102560006449086007F002F803211A2006F0CBFD49
:1025700009211C2006F0C7FD03211E2006F0C3FD23
:1025800010E000205B49086006F0F0FF00211A20EF
:1025900006F0B9FD08211C2006F0B5FD00211E2023
:1025A00006F09BFD00BF00BFA4E407F01EF8032166
:1025B000002006F064FD01220821022006F01CFD27
:1025C0000021022006F05BFD0321042006F06FFDD0
:1025D00006F0CCFF484800680A2190FBF1F201FBAD
:1025E0001200C0B2014602901A2006F076FD424861
:1025F00000680A2190FBF1F090FBF1F201FB120060
:10260000C0B2014602901C2006F067FD3A480068FF
:10261000642190FBF1F0C0B2014602901E2006F04A
:102620005CFD049810B1012876D135E0324800688D
:10263000401E3149086008460068012802DA4FF45C
:102640001670086006F092FF2B4800680A2190FB84
:10265000F1F201FB1200C0B2014602901A2006F00E
:102660003CFD254800680A2190FBF1F090FBF1F257
:1026700001FB1200C0B2014602901C2006F02DFDA5
:102680001D480068642190FBF1F0C0B20146029041
:102690001E2006F022FD3FE017480068401C164946
:1026A000086008460068B0F5167F01DD012008606B
:1026B00006F05CFF104800680A2190FBF1F201FB74
:1026C0001200C0B2014602901A2006F006FD0A4828
:1026D00000680A2190FBF1F090FBF1F201FB12007F
:1026E000C0B2014602901C2008E00000B4020020A5
:1026F000B8020020BC020020C002002006F0EDFC61
:10270000FE480068642190FBF1F0C0B201460290DF
:102710001E2006F0E2FC00BF00BFA0E406F065FF4B
:102720000421002006F0ABFC01220821022006F063
:1027300063FC0021022006F0A2FC0321042006F025
:10274000B6FC06F013FFEE4800680A2190FBF1F298
:1027500001FB1200C0B2014602901A2006F0BDFC37
:10276000E74800680A2190FBF1F090FBF1F201FBD1
:102770001200C0B2014602901C2006F0AEFCE048F8
:102780000068642190FBF1F0C0B2014602901E2067
:1027900006F0A3FC049810B101286CD135E0D848AC
:1027A0000068401ED649086008460068012802DA21
:1027B0004FF41670086006F0D9FED14800680A216F
:1027C00090FBF1F201FB1200C0B2014602901A2008
:1027D00006F083FCCA4800680A2190FBF1F090FBE8
:1027E000F1F201FB1200C0B2014602901C2006F07B
:1027F00074FCC3480068642190FBF1F0C0B201464C
:1028000002901E2006F069FC35E0BD480068401CBF
:10281000BB49086008460068B0F5167F01DD01205D
:10282000086006F0A3FEB64800680A2190FBF1F2AA
:1028300001FB1200C0B2014602901A2006F04DFCC6
:10284000AF4800680A2190FBF1F090FBF1F201FB28
:102850001200C0B2014602901C2006F03EFCA848BF
:102860000068642190FBF1F0C0B2014602901E2086
:1028700006F033FC00BF00BFA1E406F0B6FE052160
:10288000002006F0FCFB01220821022006F0B4FB28
:102890000021022006F0F3FB0321042006F007FCD0
:1028A00006F064FE974800680A2190FBF1F201FBF4
:1028B0001200C0B2014602901A2006F00EFC0498E5
:1028C00010B1012836D11AE08E480068401E8D49AB
:1028D000086008460068002801DA0120086006F058
:1028E00045FE884800680A2190FBF1F201FB1200C6
:1028F000C0B2014602901A2006F0EFFB1AE08148B0
:102900000068401C7F49086008460068012801DD16
:102910000020086006F02AFE7A4800680A2190FB31
:10292000F1F201FB1200C0B2014602901A2006F03B
:10293000D4FB00BF00BF42E406F057FE0621002092
:1029400006F09DFB01220821022006F055FB002124
:10295000022006F094FB0321042006F0A8FB0121CD
:10296000172006F00EFC06F001FE674800680A21F9
:1029700090FBF1F201FB1200C0B2014602901A2056
:1029800006F0ABFB012211461C2006F035FB5E4829
:1029900000680A2190FBF1F090FBF1F201FB1200BC
:1029A000C0B2014602901C2006F0D3FB56480068D6
:1029B000642190FBF1F0C0B2014602901E2006F0A7
:1029C0008CFB049810B1012874D139E04E4800689E
:1029D000401E4D49086008460068002801DA0020C2
:1029E000086006F0C3FD484800680A2190FBF1F238
:1029F00001FB1200C0B2014602901A2006F06DFBE6
:102A0000012211461C2006F0F7FA3F4800680A210F
:102A100090FBF1F090FBF1F201FB1200C0B2014615
:102A200002901C2006F095FB37480068642190FB5B
:102A3000F1F0C0B2014602901E2006F04EFB39E0D4
:102A400031480068401C3049086008460068782812
:102A500001DD7820086006F089FD2B4800680A2116
:102A600090FBF1F201FB1200C0B2014602901A2065
:102A700006F033FB012211461C2006F0BDFA224865
:102A800000680A2190FBF1F090FBF1F201FB1200CB
:102A9000C0B2014602901C2006F05BFB1A48006899
:102AA000642190FBF1F0C0B2014602901E2006F0B6
:102AB00014FB00BF00BF63E406F097FD0721002070
:102AC00006F0DDFA01220821022006F095FA002125
:102AD000022006F0D4FA0321042006F0E8FA0B489D
:102AE00000680A2190FBF1F201FB1200C0B202461D
:102AF000012102901C2006F07FFA09E0C0020020AC
:102B0000C4020020D4020020D8020020E0020020ED
:102B100006F02CFD00211A2006F01BFBFE48006881
:102B20000A2190FBF1F090FBF1F201FB1200C0B220
:102B3000014602901C2006F00CFBF7480068642157
:102B400090FBF1F0C0B2014602901E2006F0C5FADB
:102B5000049810B1012874D139E0EF480068401E94
:102B6000ED49086008460068002801DA0020086086
:102B700006F0FCFCE84800680A2190FBF1F201FB3A
:102B80001200C0B2014602901A2006F0E2FA0122B9
:102B900011461C2006F030FADF4800680A2190FB3D
:102BA000F1F090FBF1F201FB1200C0B2014602907D
:102BB0001C2006F0CEFAD8480068642190FBF1F0A2
:102BC000C0B2014602901E2006F087FA39E0D248D2
:102BD0000068401CD049086008460068642801DD90
:102BE0006420086006F0C2FCCB4800680A2190FB14
:102BF000F1F201FB1200C0B2014602901A2006F069
:102C0000A8FA012211461C2006F0F6F9C248006815
:102C10000A2190FBF1F090FBF1F201FB1200C0B22F
:102C2000014602901C2006F094FABB48006864211B
:102C300090FBF1F0C0B2014602901E2006F04DFA62
:102C400000BF00BF29E406F0D0FC0821002006F0F8
:102C500016FA01220821022006F0CEF900210220F6
:102C600006F00DFA0321042006F021FA01211720B5
:102C700006F087FA06F07AFCA848006800280ADA0D
:102C800001220821072006F0B7F9A4480068404255
:102C9000A349086008E0A1480068A1490860002233
:102CA0000821072006F0A8F900211A2006F015FADD
:102CB000012211461C2006F09FF9994800680A215C
:102CC00090FBF1F201FB1200C0B2014602901C2001
:102CD00006F03FFA924800680A2190FBF1F0C0B27A
:102CE000014602901E2006F0F8F9049810B1012860
:102CF00075D175E0894800688A490968884226DDEF
:102D000006F034FC8548006800280ADA0122082110
:102D1000072006F071F98148006840428049086048
:102D200008E07E4800687E490860002208210720EC
:102D300006F062F908211A2006F0E5F908211C20A6
:102D400006F0E1F906211E2006F0DDF947E07348A0
:102D50000068401E714908600846006810F1280F9D
:102D600002DA6FF02700086006F000FC6B4800688C
:102D700000280ADA01220821072006F03DF96748F9
:102D8000006840426649086008E064480068644999
:102D9000086000220821072006F02EF900211A20E1
:102DA00006F09BF9012211461C2006F025F95C482B
:102DB00000680A2190FBF1F201FB1200C0B201464B
:102DC00002901C2006F0C5F9554800680A2190FBC6
:102DD000F1F0C0B2014602901E2006F07EF92EE00E
:102DE0004E480068401C4D4908600846006850285D
:102DF00001DD5020086006F0B9FB00211A2006F022
:102E00006CF9012211461C2006F0F6F844480068CF
:102E10000A2190FBF1F201FB1200C0B201460290C0
:102E20001C2006F096F93E4800680A2190FBF1F05C
:102E3000C0B2014602901E2006F04FF900BF00BF4D
:102E40006BE406F0D2FB0921002006F018F90122FC
:102E50000821022006F0D0F80021022006F00FF928
:102E60000321042006F023F90121172006F089F937
:102E700006F07CFB2B48006800280ADA01220821B2
:102E8000072006F0B9F82748006840422649086044
:102E900008E024480068244908600022082107202F
:102EA00006F0AAF800211A2006F017F901221146AF
:102EB0001C2006F0A1F81C4800680A2190FBF1F2E2
:102EC00001FB1200C0B2014602901C2006F041F93D
:102ED000154800680A2190FBF1F0C0B2014602904B
:102EE0001E2006F0FAF8049810B101287ED182E085
:102EF0000A4800680B490968884231DD06F036FB54
:102F000008480068002815DA01220821072006F089
:102F100073F80448006809E0E0020020E80200209D
:102F2000EC020020F0020020F40200204042FB49A5
:102F3000086008E0FA480068F849086000220821A3
:102F4000072006F059F808211A2006F0DCF80821BD
:102F50001C2006F0D8F806211E2006F0D4F849E01F
:102F6000EF480068401EEE4908600846006810F10E
:102F7000280F02DA6FF02700086006F0F7FAE84839
:102F8000006800280ADA01220821072006F034F838
:102F9000E34800684042E149086008E0E048006812
:102FA000DE49086000220821072006F025F80021EC
:102FB0001A2006F092F8012211461C2006F01CF897
:102FC000D64800680A2190FBF1F201FB1200C0B262
:102FD000014602901C2006F0BCF8D04800680A2187
:102FE00090FBF1F0C0B20146029000E032E01E20FA
:102FF00006F073F82EE0CA480068401CC849086013
:1030000008460068502801DD5020086006F0AEFA3E
:1030100000211A2006F061F8012211461C2005F05B
:10302000EBFFBE4800680A2190FBF1F201FB1200A1
:10303000C0B2014602901C2006F08BF8B748006829
:103040000A2190FBF1F0C0B2014602901E2006F06A
:1030500044F800BF00BF0FE406F0C7FA002108469D
:1030600006F00DF801220821022005F0C5FF01211C
:10307000022006F004F80321042006F018F806F0F8
:1030800075FAA848006800280ADA012208210720FA
:1030900005F0B2FFA34800684042A349086008E079
:1030A000A0480068A049086000220821072005F018
:1030B000A3FF00211A2006F04CF8012211461C2023
:1030C00005F09AFF984800680A2190FBF1F201FB95
:1030D0001200C0B2014602901C2006F03AF8924855
:1030E00000680A2190FBF1F0C0B2014602901E2058
:1030F00005F0F3FF049810B1012873D173E08948FB
:1031000000688A490968884226DD06F02FFA85485A
:10311000006800280ADA01220821072005F06CFF68
:103120008048006840428049086008E07D480068A7
:103130007D49086000220821072005F05DFF082175
:103140001A2005F0E0FF08211C2005F0DCFF062115
:103150001E2005F0D8FF45E072480068401E714906
:10316000086008460068002801DA0020086006F0C0
:10317000FDF96C48006800280ADA012208210720BE
:1031800005F03AFF6748006840426749086008E078
:10319000644800686449086000220821072005F09F
:1031A0002BFF00211A2005F0D4FF012211461C201C
:1031B00005F022FF5C4800680A2190FBF1F201FB58
:1031C0001200C0B2014602901C2005F0C2FF564812
:1031D00000680A2190FBF1F0C0B2014602901E2067
:1031E00005F07BFF2EE04F480068401C4D49086009
:1031F00008460068632801DD0920086006F0B6F97A
:1032000000211A2005F0A5FF012211461C2005F01F
:10321000F3FE454800680A2190FBF1F201FB120021
:10322000C0B2014602901C2005F093FF3E480068A2
:103230000A2190FBF1F0C0B2014602901E2005F079
:103240004CFF00BF00BF36E406F0CFF9012100209B
:1032500005F015FF01220821022005F0CDFE012115
:10326000022005F00CFF0321042005F020FF06F0EA
:103270007DF92E48006800280ADA0122082107207B
:1032800005F0BAFE2948006840422949086008E074
:10329000264800682649086000220821072005F01A
:1032A000ABFE00211A2005F054FF012211461C201C
:1032B00005F0A2FE1E4800680A2190FBF1F201FB16
:1032C0001200C0B2014602901C2005F042FF1848CF
:1032D00000680A2190FBF1F0C0B2014602901E2066
:1032E00005F0FBFE049810B101287DD181E00D4866
:1032F00000680E490968884232DD06F037F90B484C
:103300000068002816DA01220821072005F074FE63
:103310000648006840420649086014E0F4020020B4
:10332000F0020020F8020020FC0200200003002030
:1033300004030020FB480068FB49086000220821C4
:10334000072005F059FE08211A2005F0DCFE0821AF
:103350001C2005F0D8FE06211E2005F0D4FE47E013
:10336000F0480068401EEF490860084600680028E1
:1033700001DA0020086006F0F9F8EA480068002841
:103380000ADA01220821072005F036FEE548006828
:103390004042E549086008E0E2480068E249086008
:1033A00000220821072005F027FE00211A2005F041
:1033B000D0FE012211461C2005F01EFEDA480068EE
:1033C0000A2190FBF1F201FB1200C0B2014602900B
:1033D0001C2005F0BEFED44800680A2190FBF1F0E5
:1033E000C0B20146029000E032E01E2005F075FEFA
:1033F0002EE0CC480068401CCA49086008460068B6
:10340000632801DD6320086006F0B0F800211A206F
:1034100005F09FFE012211461C2005F0EDFDC2487B
:1034200000680A2190FBF1F201FB1200C0B20146D4
:1034300002901C2005F08DFEBB4800680A2190FB1D
:10344000F1F0C0B2014602901E2005F046FE00BF1A
:1034500000BF1AE206F0C9F80221002005F00FFEB5
:1034600001220821022005F0C7FD0121022005F0FC
:1034700006FE0321042005F01AFE0121172005F0A5
:1034800080FE06F073F8A948006800280ADA0122D5
:103490000821072005F0B0FDA44800684042A44977
:1034A000086008E0A1480068A149086000220821DE
:1034B000072005F0A1FD9E4800680A2190FBF1F26B
:1034C00001FB1200C0B2014602901A2005F005FE71
:1034D000012211461C2005F08FFD954800680A2145
:1034E00090FBF1F090FBF1F201FB1200C0B201463B
:1034F00002901C2005F02DFE8D480068642190FB91
:10350000F1F0C0B2014602901E2005F0E6FD0498DD
:1035100010B1012853D153E084480068401E83490C
:1035200008600846006810F1640F02DA6FF063006B
:1035300008607E48006800280ADA01220821072076
:1035400005F05AFD7948006840427949086008E072
:10355000764800687649086000220821072005F0B7
:103560004BFD06F003F8724800680A2190FBF1F267
:1035700001FB1200C0B2014602901A2005F0ADFD19
:10358000012211461C2005F037FD694800680A2118
:1035900090FBF1F090FBF1F201FB1200C0B201468A
:1035A00002901C2005F0D5FD61480068642190FB65
:1035B000F1F0C0B2014602901E2005F08EFD51E0F0
:1035C0005A480068401C5949086008460068642849
:1035D00001DD642008605548006800280ADA0122ED
:1035E0000821072005F008FD504800684042504976
:1035F000086008E04D4800684D4908600022082135
:10360000072005F0F9FC05F0B1FF494800680A21E0
:1036100090FBF1F201FB1200C0B2014602901A20A9
:1036200005F05BFD012211461C2005F0E5FC404839
:1036300000680A2190FBF1F090FBF1F201FB12000F
:10364000C0B2014602901C2005F083FD3848006896
:10365000642190FBF1F0C0B2014602901E2005F0FB
:103660003CFD00BF00BF17E305F0BFFF03210020B2
:1036700005F005FD01220821022005F0BDFC012115
:10368000022005F0FCFC0321042005F010FD05F0EC
:103690006DFF2848006800280ADA01220821072067
:1036A00005F0AAFC2348006840422349086008E06E
:1036B000204800682049086000220821072005F002
:1036C0009BFC1D4800680A2190FBF1F201FB1200EF
:1036D000C0B2014602901A2005F03BFD01221146BE
:1036E0001C2005F089FC144800680A2190FBF1F0C9
:1036F00090FBF1F201FB1200C0B2014602901C20C7
:1037000005F027FD0C480068642190FBF1F0C0B281
:10371000014602901E2005F0E0FC049870B10128DB
:103720005FD15FE0000300200403002008030020B5
:103730000C0300201003002014030020FE48006842
:10374000401EFD4908600846006810F1640F02DA67
:103750006FF063000860F848006800280ADA012268
:103760000821072005F048FCF34800684042F3496F
:10377000086008E0F0480068F0490860002208216D
:10378000072005F039FC05F0F1FEEC4800680A213D
:1037900090FBF1F201FB1200C0B2014602901A2028
:1037A00005F0D7FC012211461C2005F025FCE3485A
:1037B00000680A2190FBF1F090FBF1F201FB12008E
:1037C000C0B2014602901C2005F0C3FCDB48006833
:1037D000642190FBF1F0C0B2014602901E2005F07A
:1037E0007CFC51E0D4480068401CD349086008467E
:1037F0000068642801DD64200860CF480068002864
:103800000ADA01220821072005F0F6FBCA48006801
:103810004042CA49086008E0C7480068C7490860D4
:1038200000220821072005F0E7FB05F09FFEC348B2
:1038300000680A2190FBF1F201FB1200C0B20146C0
:1038400002901A2005F085FC012211461C2005F08B
:10385000D3FBBA4800680A2190FBF1F090FBF1F22B
:1038600001FB1200C0B2014602901C2005F071FC61
:10387000B2480068642190FBF1F0C0B201460290AA
:103880001E2005F02AFC00BF00BF05E205F0ADFEDA
:103890000821002005F00BFC0721022005F007FCA1
:1038A0000121042005F003FC00220821072005F077
:1038B000A3FB05F05BFE4FF08041A14800680BF0D0
:1038C000C1FB02909F4800680146019002980BF0EE
:1038D00085FB08D201211C2005F0FFFB00211A20E6
:1038E00005F0FBFB79E14FF08041954800680BF053
:1038F000A9FB0290934840680146019002980BF0A2
:103900006DFB17D24FF080418D4800680BF09AFB99
:1039100002908C4800680146019002980BF05EFC12
:1039200008D802211C2005F0D8FB00211A2005F040
:10393000D4FB52E14FF08041814800680BF082FBDC
:103940000290804880680146019002980BF046FB87
:1039500017D24FF080417A4800680BF073FB029059
:10396000784840680146019002980BF037FC08D86F
:1039700003211C2005F0B1FB00211A2005F0ADFB4E
:103980002BE14FF080416E4800680BF05BFB02902A
:103990006C48C0680146019002980BF01FFB17D2DB
:1039A0004FF08041664800680BF04CFB0290654880
:1039B00080680146019002980BF010FC08D80421A1
:1039C0001C2005F08AFB00211A2005F086FB04E18B
:1039D0004FF080415A4800680BF034FB0290594880
:1039E00000690146019002980BF0F8FA17D24FF0E7
:1039F0008041534800680BF025FB02905148C06895
:103A00000146019002980BF0E9FB08D805211C2023
:103A100005F063FB00211A2005F05FFBDDE04FF0AD
:103A20008041474800680BF00DFB02904548406913
:103A30000146019002980BF0D1FA17D24FF0804165
:103A40003F4800680BF0FEFA02903E4800690146CC
:103A5000019002980BF0C2FB08D806211C2005F04B
:103A60003CFB00211A2005F038FBB6E04FF0804106
:103A7000334800680BF0E6FA02903248806901464C
:103A8000019002980BF0AAFA17D24FF080412C480F
:103A900000680BF0D7FA02902A484069014601906D
:103AA00002980BF09BFB08D807211C2005F015FBA2
:103AB00000211A2005F011FB8FE04FF080412048D3
:103AC00000680BF0BFFA02901E48C06901460190E1
:103AD00002980BF083FA17D24FF080411848006823
:103AE0000BF0B0FA029017488069014601900298E5
:103AF0000BF074FB08D808211C2005F0EEFA002119
:103B00001A2005F0EAFA68E04FF080410C4800689E
:103B10000BF098FA02900B48006A01460190029857
:103B20000BF05CFA20D24FF08041054800680BF0A2
:103B300089FA0290034807E01003002014030020D4
:103B4000900300209C030020C06901460190029868
:103B50000BF044FB08D809211C2005F0BEFA002117
:103B60001A2005F0BAFA38E04FF08041FE480068AC
:103B70000BF068FA0290FD48406A014601900298F5
:103B80000BF02CFA0ED24FF08041F74800680BF092
:103B900059FA0290F548006A0146019002980BF02C
:103BA0001DFB0ED94FF08041EF4800680BF04AFA38
:103BB0000290EE48406A0146019002980BF00EFB1D
:103BC0000BD801211E2005F088FA00211C2005F0E9
:103BD00084FA00211A2005F080FA5DE005F005FD69
:103BE0000421002005F063FA0621022005F05FFAA7
:103BF0000521042005F043FA05F0B8FCDC48007804
:103C0000014602901A2005F068FA049810B10128C4
:103C10002AD114E0D6480068401ED54908600846FD
:103C20000068012801DA0420086005F09FFCD048F4
:103C30000078014602901A2005F04FFA14E0CC48B3
:103C40000068401CCA49086008460068042801DD75
:103C50000120086005F08AFCC54800780146029002
:103C60001A2005F03AFA00BF00BF15E005F0BDFCD0
:103C70000621022005F003FA0121042005F0FFF9D6
:103C800005F074FC0120BB4908600020BA490860B7
:103C90000120BA49086000BF00BF05B000BD03B5F0
:103CA00083B003981A2882F03883DFE810F01A00F6
:103CB0001C00DB00D40151024F0389095D04120589
:103CC000490A0F0F2610CD052806A3063007C407A2
:103CD00073082209050B100C0E0D170E2C11D812AB
:103CE000201302F01ABB05F080FC0021084605F005
:103CF000DEF901220821022005F07EF901210220CF
:103D000005F0BDF90121042005F0B9F905F02EFCFC
:103D10009B480078642190FBF1F201FB12000A211C
:103D200090FBF1F201FB1200C0B2014602901A2092
:103D300005F0D3F992480078642190FBF1F201FB81
:103D400012000A2190FBF1F0C0B2014602901C2043
:103D500005F0C3F98A480078642190FBF1F0C0B205
:103D6000014602901E2005F0B8F9049810B1012810
:103D700076D13AE082480078401E814908700846B2
:103D80000078012801DAFE20087005F0EFFB7C487E
:103D90000078642190FBF1F201FB12000A2190FBF4
:103DA000F1F201FB1200C0B2014602901A2005F0A8
:103DB00094F973480078642190FBF1F201FB120042
:103DC0000A2190FBF1F0C0B2014602901C2005F0E0
:103DD00084F96B480078642190FBF1F0C0B2014691
:103DE00002901E2005F079F93AE065480078401C01
:103DF0006349087008460078FE2801DD012008703C
:103E000005F0B4FB5E480078642190FBF1F201FB01
:103E100012000A2190FBF1F201FB1200C0B2014630
:103E200002901A2005F059F955480078642190FB5A
:103E3000F1F201FB12000A2190FBF1F0C0B2014641
:103E400002901C2005F049F94D480078642190FB50
:103E5000F1F0C0B2014602901E2005F03EF900BF0D
:103E600000BF3EE705F0C1FB0221002005F01FF96D
:103E700001220821022005F0BFF8012208210220BA
:103E800004F0F8FF0121022005F011F902210420BD
:103E900005F0F5F805F06AFB3A483B49096850F827
:103EA00021003A49086008460068642190FBF1F05F
:103EB0000A2190FBF1F201FB1200C0B20146029010
:103EC0001A2005F00AF931480068642190FBF1F0EE
:103ED0000A2190FBF1F090FBF1F201FB1200C0B25D
:103EE000014602901C2005F0F8F82848006842F2CC
:103EF000107190FBF1F0C0B2014602901E2005F057
:103F0000ECF8049810B101285BD15BE01E48006812
:103F1000401E1D49086008460068002801DA042098
:103F2000086018481849096850F8210017490860C6
:103F30000846006807F07BFB05F018FB1348006893
:103F4000642190FBF1F00A2190FBF1F201FB1200D9
:103F5000C0B2014602901A2005F0BFF80B48006875
:103F6000642190FBF1F013E0900300209C030020FB
:103F7000CC0200203803002024030020400300204E
:103F800074020020800200207C02002078020020C1
:103F90000A2190FBF1F090FBF1F201FB1200C0B29C
:103FA000014602901C2005F098F8FC48006842F297
:103FB000107190FBF1F0C0B2014602901E2005F096
:103FC0008CF846E0F6480068401CF5490860084651
:103FD0000068042801DD00200860F248F049096803
:103FE00050F82100ED4908600846006807F01FFB03
:103FF00005F0BCFAE9480068642190FBF1F00A2161
:1040000090FBF1F201FB1200C0B2014602901A20AF
:1040100005F063F8E1480068642190FBF1F00A21A3
:1040200090FBF1F090FBF1F201FB1200C0B20146EF
:1040300002901C2005F051F8D848006842F2107137
:1040400090FBF1F0C0B2014602901E2005F045F849
:1040500000BF00BF45E605F0C8FA0821002005F0C2
:1040600026F801220821022004F0C6FF07210220C1
:1040700005F01DF80321042005F001F8CA48006886
:1040800001280AD105F072FA0A211A2005F03BF83E
:1040900000211C2005F021F80DE005F067FA05214C
:1040A0001A2005F030F805211C2005F02CF800211D
:1040B0001E2005F012F8049810B1012846D122E024
:1040C000B948006868B90120B749086005F04EFAA0
:1040D0000A211A2005F017F800211C2004F0FDFF2A
:1040E00010E00020B049086005F040FA05211A20D0
:1040F00005F009F805211C2005F005F800211E2017
:1041000004F0EBFF22E0A848006868B90120A64946
:10411000086005F02BFA0A211A2004F0F4FF0021B0
:104120001C2004F0DAFF10E000209F49086005F031
:104130001DFA05211A2004F0E6FF05211C2004F0D9
:10414000E2FF00211E2004F0C8FF00BF00BFC8E549
:1041500005F04BFA0B21002004F0A9FF01220821F1
:10416000022004F049FF0321022004F0A0FF0421F3
:10417000084604F084FF0121172005F002F805F03D
:10418000F5F98A48006800280ADA01220821072088
:1041900004F032FF8548006840428549086008E025
:1041A000824800688249086000220821072004F044
:1041B00023FF00211A2004F090FF012211461C2049
:1041C00004F01AFF7A4800680A2190FBF1F201FB23
:1041D0001200C0B2014602901C2004F0BAFF7448DD
:1041E00000680A2190FBF1F0C0B2014602901E2047
:1041F00004F073FF049810B1012875D175E06D4883
:1042000000686A490968884226DD05F0AFF9674809
:10421000006800280ADA01220821072004F0ECFED9
:104220006248006840426249086008E05F480068F0
:104230005F49086000220821072004F0DDFE082104
:104240001A2004F060FF08211C2004F05CFF062106
:104250001E2004F058FF47E054480068401E5349B0
:1042600008600846006810F1280F02DA6FF0270096
:10427000086005F07BF94D48006800280ADA012241
:104280000821072004F0B8FE484800684042484929
:10429000086008E045480068454908600022082198
:1042A000072004F0A9FE00211A2004F016FF0122C5
:1042B00011461C2004F0A0FE3D4800680A2190FB36
:1042C000F1F201FB1200C0B2014602901C2004F082
:1042D00040FF374800680A2190FBF1F0C0B2014668
:1042E00002901E2004F0F9FE2EE030480068401CC9
:1042F0002E49086008460068502801DD50200860FB
:1043000005F034F900211A2004F0E7FE01221146DD
:104310001C2004F071FE264800680A2190FBF1F28F
:1043200001FB1200C0B2014602901C2004F011FFF4
:104330001F4800680A2190FBF1F0C0B201460290CC
:104340001E2004F0CAFE00BF00BFCAE405F04DF90C
:104350000421002004F0ABFE01220821022004F019
:104360004BFE0321022004F0A2FE0421084604F0C3
:1043700086FE0121172004F004FF05F0F7F80D4830
:10438000006800281ADA01220821072004F034FE10
:104390000848006840420849086018E07802002098
:1043A0007C0200208002002094020020980200205D
:1043B000A40200209C020020A0020020FA4800680D
:1043C000FA49086000220821072004F015FE0021A8
:1043D0001A2004F082FE012211461C2004F00CFE7B
:1043E000F24800680A2190FBF1F201FB1200C0B212
:1043F000014602901C2004F0ACFEEC4800680A2143
:1044000090FBF1F0C0B2014602901E2004F065FE60
:10441000049810B1012848D148E0E3480068401EE4
:10442000E14908600846006810F1280F02DA6FF0D1
:104430002700086005F09AF8DB48006800280ADACF
:1044400001220821072004F0D7FDD7480068404228
:10445000D649086008E0D4480068D44908600022C2
:104460000821072004F0C8FD00211A2004F035FEC1
:10447000012211461C2004F0BFFDCC4800680A212F
:1044800090FBF1F201FB1200C0B2014602901C2029
:1044900004F05FFEC54800680A2190FBF1F0C0B24D
:1044A000014602901E2004F018FE5BE0BE48006842
:1044B000BF49096888420EDD05F058F808211A2026
:1044C00004F021FE08211C2004F01DFE06211E2000
:1044D00004F019FE45E0B4480068401CB249086089
:1044E00008460068502801DD5020086005F03EF8BD
:1044F000AD48006800280ADA01220821072004F0EC
:104500007BFDA94800684042A849086008E0A64829
:104510000068A649086000220821072004F06CFD0D
:1045200000211A2004F0D9FD012211461C2004F0BC
:1045300063FD9E4800680A2190FBF1F201FB120026
:10454000C0B2014602901C2004F003FE97480068A8
:104550000A2190FBF1F0C0B2014602901E2004F047
:10456000BCFD00BF00BF7CE400220821072004F04E
:1045700043FD05F03AF80B21002004F098FD0122DC
:104580000821022004F038FD0B21022004F08FFDE9
:104590000421084604F073FD04F0E8FF00211A200E
:1045A00004F0D7FD012211461C2004F025FD8148AE
:1045B00000680A2190FBF1F201FB1200C0B2014633
:1045C00002901C2004F0C5FD7A4800680A2190FB87
:1045D000F1F0C0B2014602901E2004F07EFD049866
:1045E00010B1012873D143E072480068724909682C
:1045F00088420EDA04F0BAFF08211A2004F083FD85
:1046000008211C2004F07FFD06211E2004F07BFD04
:104610002DE068480068401E66490860084600684A
:10462000002801DA0120086004F0A0FF00211A2010
:1046300004F08FFD012211461C2004F0DDFC5D48D2
:1046400000680A2190FBF1F201FB1200C0B20146A2
:1046500002901C2004F07DFD564800680A2190FB62
:10466000F1F0C0B2014602901E2004F036FD2EE0AB
:1046700050480068401C4F4908600846006863289D
:1046800001DD6320086004F071FF00211A2004F0AE
:1046900060FD012211461C2004F0AEFC4548006874
:1046A0000A2190FBF1F201FB1200C0B20146029018
:1046B0001C2004F04EFD3F4800680A2190FBF1F0F9
:1046C000C0B2014602901E2004F007FD00BF00BFEB
:1046D000C0E404F08AFF0421002004F0E8FC012279
:1046E0000821022004F088FC0B21022004F0DFFCEA
:1046F0000421084604F0C3FC04F038FF00211A200E
:1047000004F027FD012211461C2004F075FC2A4804
:1047100000680A2190FBF1F201FB1200C0B20146D1
:1047200002901C2004F015FD234800680A2190FB2C
:10473000F1F0C0B2014602901E2004F0CEFC0498B5
:1047400010B101287ED139E01B480068401E1A498B
:10475000086008460068002801DA0020086004F0BC
:1047600005FF00211A2004F0F4FC012211461C2050
:1047700004F042FC104800680A2190FBF1F201FBB2
:104780001200C0B2014602901C2004F0E2FC0A486C
:1047900000680A2190FBF1F0C0B2014602901E2091
:1047A00004F09BFC4EE000009C020020A0020020D0
:1047B00098020020A8020020AC020020FA480068FD
:1047C000FA49096888420EDA04F0D0FE08211A205E
:1047D00004F099FC08211C2004F095FC06211E2001
:1047E00004F091FC2DE0F1480068401CEF4908609E
:1047F00008460068632801DD6320086004F0B6FE07
:1048000000211A2004F0A5FC012211461C2004F00E
:10481000F3FBE64800680A2190FBF1F201FB12006D
:10482000C0B2014602901C2004F093FCDF480068EF
:104830000A2190FBF1F0C0B2014602901E2004F064
:104840004CFC00BF00BF05E404F0CFFE05210020B2
:1048500004F02DFC01220821022004F0CDFB0321ED
:10486000022004F024FC0621042004F008FC0121AD
:10487000172004F086FC04F079FECD48006801287A
:1048800004D105211C2004F03EFC03E003211C2080
:1048900004F039FC049810B101282ED116E0C44868
:1048A000006848B90120C249086004F05FFE052194
:1048B0001C2004F028FC08E00020BD49086004F03A
:1048C00055FE03211C2004F01EFC16E0B8480068C9
:1048D00048B90120B649086004F048FE05211C20B3
:1048E00004F011FC08E00020B149086004F03EFE2D
:1048F00003211C2004F007FC00BF00BF27E404F0E4
:1049000074FE0821002004F0D2FB012208210220BD
:1049100004F072FB0521022004F0C9FB07210420EA
:1049200004F0ADFB04F022FEA2480068012808D183
:104930000A211A2004F0E7FB00211C2004F0CDFB23
:104940000BE005211A2004F0DEFB05211C2004F0F9
:10495000DAFB00211E2004F0C0FB049810B10128EE
:1049600046D122E09348006868B901209149086067
:1049700004F0FCFD0A211A2004F0C5FB00211C20D4
:1049800004F0ABFB10E000208A49086004F0EEFD63
:1049900005211A2004F0B7FB05211C2004F0B3FB0D
:1049A00000211E2004F099FB22E08248006868B9CB
:1049B00001208049086004F0D9FD0A211A2004F082
:1049C000A2FB00211C2004F088FB10E000207949A4
:1049D000086004F0CBFD05211A2004F094FB0521AA
:1049E0001C2004F090FB00211E2004F076FB00BF89
:1049F00000BFAAE404F0F9FD0121002004F03FFB10
:104A000001220821022004F0F7FA0321022004F019
:104A10004EFB0821042004F032FB04F0A7FD664899
:104A2000006838B90A211A2004F06DFB00211C200F
:104A300004F053FB6048006801280BD105211A20BF
:104A400004F061FB05211C2004F05DFB00211E2009
:104A500004F043FB049810B1012856D12AE05648CF
:104A60000068401E5449086008460068002801DAC2
:104A7000012008605048006848B904F077FD0A2119
:104A80001A2004F040FB00211C2004F026FB4A48B9
:104A9000006801280DD104F069FD05211A2004F0F9
:104AA00032FB05211C2004F02EFB00211E2004F007
:104AB00014FB2AE040480068401C3F490860084653
:104AC0000068012801DD002008603B48006848B903
:104AD00004F04CFD0A211A2004F015FB00211C20D3
:104AE00004F0FBFA3448006801280DD104F03EFDC3
:104AF00005211A2004F007FB05211C2004F003FB0C
:104B000000211E2004F0E9FA00BF00BF1DE404F0FC
:104B10006CFD0221002004F0B2FA012208210220DB
:104B200004F06AFA0321022004F0C1FA08210420EB
:104B300004F0A5FA04F01AFD2048006801280CD101
:104B400003211A2004F0DFFA09211C2004F0DBFA0B
:104B500003211E2004F0D7FA0BE000211A2004F0F4
:104B6000D2FA08211C2004F0CEFA00211E2004F005
:104B7000B4FA049810B101285BD133E00F48006803
:104B8000F0B901200D49086004F0F0FC03211A205F
:104B900004F0B9FA09211C2004F0B5FA03211E2003
:104BA00004F0B1FA1DE00000A8020020AC020020D1
:104BB000B0020020B4020020B8020020BC02002095
:104BC0000020FB49086004F0D1FC00211A2004F009
:104BD0009AFA08211C2004F096FA00211E2004F005
:104BE0007CFA26E0F248006888B90120F0490860A4
:104BF00004F0BCFC03211A2004F085FA09211C20D2
:104C000004F081FA03211E2004F07DFA10E0002058
:104C1000E749086004F0AAFC00211A2004F073FAA6
:104C200008211C2004F06FFA00211E2004F055FA20
:104C300000BF00BF97E404F0D8FC0321002004F07B
:104C40001EFA01220821022004F0D6F903210220D5
:104C500004F02DFA0821042004F011FA04F086FC77
:104C6000D44800680A2190FBF1F201FB1200C0B2A7
:104C7000014602901A2004F030FACE4800680A215A
:104C800090FBF1F090FBF1F201FB1200C0B2014683
:104C900002901C2004F021FAC6480068642190FBB1
:104CA000F1F0C0B2014602901E2004F016FA0498FA
:104CB00010B101286CD135E0BE480068401EBD49E6
:104CC000086008460068012802DA4FF41670086090
:104CD00004F04CFCB74800680A2190FBF1F201FB9C
:104CE0001200C0B2014602901A2004F0F6F9B14851
:104CF00000680A2190FBF1F090FBF1F201FB120039
:104D0000C0B2014602901C2004F0E7F9A9480068EF
:104D1000642190FBF1F0C0B2014602901E2004F025
:104D2000DCF935E0A3480068401CA2490860084649
:104D30000068B0F5167F01DD0120086004F016FC64
:104D40009C4800680A2190FBF1F201FB1200C0B2FE
:104D5000014602901A2004F0C0F9964800680A2122
:104D600090FBF1F090FBF1F201FB1200C0B20146A2
:104D700002901C2004F0B1F98E480068642190FB79
:104D8000F1F0C0B2014602901E2004F0A6F900BF67
:104D900000BF9DE404F029FC0421002004F06FF919
:104DA00001220821022004F027F90321022004F047
:104DB0007EF90821042004F062F904F0D7FB7E4854
:104DC00000680A2190FBF1F201FB1200C0B201461B
:104DD00002901A2004F081F9774800680A2190FBBC
:104DE000F1F090FBF1F201FB1200C0B2014602901B
:104DF0001C2004F072F970480068642190FBF1F007
:104E0000C0B2014602901E2004F067F9049810B168
:104E100001286CD135E068480068401E664908608A
:104E200008460068012802DA4FF41670086004F0A2
:104E30009DFB614800680A2190FBF1F201FB120022
:104E4000C0B2014602901A2004F047F95A4800689F
:104E50000A2190FBF1F090FBF1F201FB1200C0B2CD
:104E6000014602901C2004F038F953480068642180
:104E700090FBF1F0C0B2014602901E2004F02DF923
:104E800035E04D480068401C4B4908600846006802
:104E9000B0F5167F01DD0120086004F067FB46488D
:104EA00000680A2190FBF1F201FB1200C0B201463A
:104EB00002901A2004F011F93F4800680A2190FB83
:104EC000F1F090FBF1F201FB1200C0B2014602903A
:104ED0001C2004F002F938480068642190FBF1F0CE
:104EE000C0B2014602901E2004F0F7F800BF00BFD8
:104EF000A9E404F07AFB0521002004F0C0F80122A7
:104F00000821022004F078F80321022004F0CFF8F1
:104F10000821042004F0B3F804F028FB27480068B7
:104F20000A2190FBF1F201FB1200C0B2014602908F
:104F30001A2004F0D2F8049810B1012836D11AE0F2
:104F40001E480068401E1D49086008460068002889
:104F500001DA0120086004F009FB184800680A2102
:104F600090FBF1F201FB1200C0B2014602901A2040
:104F700004F0B3F81AE011480068401C0F490860BB
:104F800008460068012801DD0020086004F0EEFA00
:104F90000A4800680A2190FBF1F201FB1200C0B23E
:104FA000014602901A2004F098F800BF00BF4AE4BE
:104FB000BC020020C0020020C4020020D402002055
:104FC00004F013FB0021084604F071F801220821C7
:104FD000022004F011F80321022004F068F80421F3
:104FE000084604F04CF80121172004F0CAF804F038
:104FF000BDFAFE4800680A2190FBF1F201FB1200A5
:10500000C0B2014602901A2004F067F8012211464E
:105010001C2003F0F1FFF54800680A2190FBF1F035
:1050200090FBF1F201FB1200C0B2014602901C207D
:1050300004F08FF8ED480068642190FBF1F0C0B2F5
:10504000014602901E2004F048F8049810B101288F
:1050500074D139E0E5480068401EE449086008461C
:105060000068002801DA0020086004F07FFADF48B9
:1050700000680A2190FBF1F201FB1200C0B2014668
:1050800002901A2004F029F8012211461C2003F096
:10509000B3FFD64800680A2190FBF1F090FBF1F2D3
:1050A00001FB1200C0B2014602901C2004F051F82E
:1050B000CE480068642190FBF1F0C0B20146029036
:1050C0001E2004F00AF839E0C8480068401CC749AF
:1050D000086008460068782801DD7820086004F040
:1050E00045FAC24800680A2190FBF1F201FB120068
:1050F000C0B2014602901A2003F0EFFF01221146D0
:105100001C2003F079FFB94800680A2190FBF1F0F8
:1051100090FBF1F201FB1200C0B2014602901C208C
:1051200004F017F8B1480068642190FBF1F0C0B2B8
:10513000014602901E2003F0D0FF00BF00BF58E4DC
:1051400004F053FA0021084603F0B1FF01220821C0
:10515000022003F051FF0B21022003F0A8FF0421DD
:10516000084603F08CFFA24800680A2190FBF1F288
:1051700001FB1200C0B20246012102901C2003F084
:105180003BFF04F0F3F900211A2003F0E2FF9848F6
:1051900000680A2190FBF1F090FBF1F201FB120094
:1051A000C0B2014602901C2003F0D3FF9048006873
:1051B000642190FBF1F0C0B2014602901E2003F082
:1051C0008CFF049810B1012874D139E08848006838
:1051D000401E8749086008460068002801DA002060
:1051E000086004F0C3F9824800680A2190FBF1F2DC
:1051F00001FB1200C0B2014602901A2003F0A9FF81
:10520000012211461C2003F0F7FE794800680A21AC
:1052100090FBF1F090FBF1F201FB1200C0B20146ED
:1052200002901C2003F095FF71480068642190FBF8
:10523000F1F0C0B2014602901E2003F04EFF39E0AB
:105240006B480068401C6A4908600846006864288A
:1052500001DD6420086004F089F9654800680A21CE
:1052600090FBF1F201FB1200C0B2014602901A203D
:1052700003F06FFF012211461C2003F0BDFE5C48C5
:1052800000680A2190FBF1F090FBF1F201FB1200A3
:10529000C0B2014602901C2003F05BFF5448006836
:1052A000642190FBF1F0C0B2014602901E2003F091
:1052B00014FF00BF00BF29E404F097F9002108465D
:1052C00003F0DDFE01220821022003F095FE0321F8
:1052D000022003F0ECFE0921042003F0D0FE01219E
:1052E000172003F04EFF04F041F9424800680028FF
:1052F0000ADA01220821072003F07EFE3D480068FB
:1053000040423D49086008E03A4800683A49086070
:1053100000220821072003F06FFE00211A2003F06D
:10532000DCFE012211461C2003F066FE32480068B4
:105330000A2190FBF1F201FB1200C0B2014602907B
:105340001C2003F006FF2C4800680A2190FBF1F0B6
:10535000C0B2014602901E2003F0BFFE049810B1B7
:1053600001287DD182E023480068244909688842E9
:1053700026DD04F0FBF81F48006800280ADA012245
:105380000821072003F038FE1A48006840421A49F5
:10539000086008E0174800681749086000220821E3
:1053A000072003F029FE08211A2003F0ACFE082193
:1053B0001C2003F0A8FE06211E2003F0A4FE54E0EA
:1053C0000C480068401E0B4908600846006810F150
:1053D000280F02DA6FF02700086004F0C7F80548CC
:1053E0000068002815DA0122082109E0D80200200F
:1053F000E0020020E8020020EC020020F002002081
:10540000072003F0F9FDFE4800684042FD490860AE
:1054100008E0FB480068FB490860002208210720DB
:1054200003F0EAFD00211A2003F057FE0122114685
:105430001C2003F0E1FDF34800680A2190FBF1F223
:1054400001FB1200C0B2014602901C2003F081FE55
:10545000EC4800680A2190FBF1F0C0B2014600E080
:1054600033E002901E2003F038FE2EE0E44800688E
:10547000401CE349086008460068502801DD5020C0
:10548000086004F073F800211A2003F026FE0122C0
:1054900011461C2003F0B0FDDA4800680A2190FB99
:1054A000F1F201FB1200C0B2014602901C2003F091
:1054B00050FED44800680A2190FBF1F0C0B20146CA
:1054C00002901E2003F009FE00BF00BF61E404F05B
:1054D0008CF80121002003F0D2FD012208210220D6
:1054E00003F08AFD0321022003F0E1FD09210420DD
:1054F00003F0C5FD0121172003F043FE04F036F848
:10550000C148006800280ADA01220821072003F0B8
:1055100073FDBD4800684042BC49086008E0BA48D5
:105520000068BA49086000220821072003F064FDE2
:1055300000211A2003F0D1FD012211461C2003F0A6
:105540005BFDB24800680A2190FBF1F201FB1200FA
:10555000C0B2014602901C2003F0FBFDAB4800687E
:105560000A2190FBF1F0C0B2014602901E2003F028
:10557000B4FD049810B1012875D175E0A048006809
:10558000A1490968884226DD03F0F0FF9E480068C3
:1055900000280ADA01220821072003F02DFD9A488D
:1055A000006840429949086008E0974800689749B8
:1055B000086000220821072003F01EFD08211A20A0
:1055C00003F0A1FD08211C2003F09DFD06211E20F3
:1055D00003F099FD47E08C480068401E8A49086046
:1055E0000846006810F1280F02DA6FF02700086003
:1055F00003F0BCFF8448006800280ADA0122082171
:10560000072003F0F9FC8048006840427F490860A9
:1056100008E07D4800687D490860002208210720D5
:1056200003F0EAFC00211A2003F057FD0122114685
:105630001C2003F0E1FC754800680A2190FBF1F2A0
:1056400001FB1200C0B2014602901C2003F081FD54
:105650006E4800680A2190FBF1F0C0B2014602904A
:105660001E2003F03AFD2EE067480068401C6649A2
:10567000086008460068502801DD5020086003F0EB
:1056800075FF00211A2003F028FD012211461C207D
:1056900003F0B2FC5D4800680A2190FBF1F201FBC7
:1056A0001200C0B2014602901C2003F052FD574880
:1056B00000680A2190FBF1F0C0B2014602901E2062
:1056C00003F00BFD00BF00BF12E403F08EFF0021CA
:1056D000084603F0D4FC01220821022003F08CFCD0
:1056E0000B21022003F0E3FC0921042003F0C7FC96
:1056F00003F03CFF4648006800280ADA012208212E
:10570000072003F079FC42480068404241490860A4
:1057100008E03F4800683F49086000220821072050
:1057200003F06AFC00211A2003F013FD0122114648
:105730001C2003F061FC374800680A2190FBF1F25D
:1057400001FB1200C0B2014602901C2003F001FDD3
:10575000304800680A2190FBF1F0C0B20146029087
:105760001E2003F0BAFC049810B101287ED184E019
:105770002748006828490968884226DD03F0F6FEBC
:105780002348006800280ADA01220821072003F0D4
:1057900033FC1F48006840421E49086008E01C486E
:1057A00000681C49086000220821072003F024FC3F
:1057B00008211A2003F0A7FC08211C2003F0A3FCF9
:1057C00006211E2003F09FFC56E011480068401E91
:1057D0000F49086008460068002801DA00200860C8
:1057E00003F0C4FE0A480068002819DA01220821E3
:1057F000072003F001FC06480068404205490DE01F
:10580000E8020020EC020020F0020020F402002058
:10581000F8020020FC02002000030020086008E0DD
:10582000FE480068FE49086000220821072003F0B6
:10583000E3FB00211A2003F08CFC012211461C20FE
:1058400003F0DAFBF64800680A2190FBF1F201FB55
:105850001200C0B2014602901C2003F07AFCF0480E
:1058600000680A2190FBF1F0C0B200E034E001468C
:1058700002901E2003F031FC2EE0E8480068401C36
:10588000E649086008460068632801DD09200860D1
:1058900003F06CFE00211A2003F05BFC012211468C
:1058A0001C2003F0A9FBDE4800680A2190FBF1F2FE
:1058B00001FB1200C0B2014602901C2003F049FC1B
:1058C000D74800680A2190FBF1F0C0B2014602906F
:1058D0001E2003F002FC00BF00BF30E403F085FE91
:1058E0000121002003F0CBFB01220821022003F05C
:1058F00083FB0B21022003F0DAFB0921042003F0D3
:10590000BEFB03F033FEC748006800280ADA012214
:105910000821072003F070FBC24800684042C249DA
:10592000086008E0BF480068BF49086000220821FD
:10593000072003F061FB00211A2003F00AFC01227A
:1059400011461C2003F058FBB74800680A2190FB61
:10595000F1F201FB1200C0B2014602901C2003F0DC
:10596000F8FBB14800680A2190FBF1F0C0B2014693
:1059700002901E2003F0B1FB049810B1012873D1EE
:1059800073E0A6480068A7490968884226DD03F04D
:10599000EDFDA448006800280ADA0122082107204A
:1059A00003F02AFB9F48006840429F49086008E0D6
:1059B0009C4800689C49086000220821072003F0E9
:1059C0001BFB08211A2003F09EFB08211C2003F07A
:1059D0009AFB06211E2003F096FB45E091480068E3
:1059E000401E9049086008460068002801DA00203F
:1059F000086003F0BBFD8B48006800280ADA01222A
:105A00000821072003F0F8FA8648006840428649DA
:105A1000086008E083480068834908600022082184
:105A2000072003F0E9FA00211A2003F092FB01227B
:105A300011461C2003F0E0FA7B4800680A2190FB25
:105A4000F1F201FB1200C0B2014602901C2003F0EB
:105A500080FB754800680A2190FBF1F0C0B2014656
:105A600002901E2003F039FB2EE06E480068401CB7
:105A70006C49086008460068632801DD63200860FF
:105A800003F074FD00211A2003F063FB012211468C
:105A90001C2003F0B1FA644800680A2190FBF1F27F
:105AA00001FB1200C0B2014602901C2003F051FB22
:105AB0005D4800680A2190FBF1F0C0B201460290F7
:105AC0001E2003F00AFB00BF00BF1BE203F08DFDA8
:105AD0000021084603F0D3FA01220821022003F036
