:020000040800F2
:10000000200F002031B800080F0D0008110D000866
:10001000150D0008190D00081D0D00080000000056
:10002000000000000000000000000000210D00089A
:10003000230D000800000000250D0008270D000812
:100040004BB800084BB800084BB8000865A400087E
:100050004BB800084BB800084BB800084BB8000874
:100060004BB800084BB800084BB800084BB8000864
:100070004BB800084BB800084BB800084BB8000854
:1000800041B00008A1B000084BB800084BB8000808
:100090004BB800084BB800084BB800084BB8000834
:1000A0004BB800084BB800084BB800084BB8000824
:1000B000997F00081D7F00082B0C00084BB8000832
:1000C0004BB800084BB800084BB800084BB8000804
:1000D0004BB80008990B0008FF0A00084BB800084D
:1000E0009FB500084BB800084BB800084BB8000893
:1000F0004BB800084BB800084BB800084BB80008D4
:100100004BB800084BB80008C97F00084BB800087E
:100110004BB800084BB800084BB800084BB80008B3
:100120004BB800084BB800084BB800084BB80008A3
:1001300000F002F800F05AF80AA090E8000C82449F
:100140008344AAF10107DA4501D100F04FF8AFF27C
:10015000090EBAE80F0013F0010F18BFFB1A43F0A5
:1001600001031847F8F2000018F300000A444FF0AA
:10017000000C10F8013B13F0070408BF10F8014B06
:100180001D1108BF10F8015B641E05D010F8016B4B
:10019000641E01F8016BF9D113F0080F1EBF10F8AF
:1001A000014BAD1C0C1B09D16D1E58BF01F801CBD2
:1001B000FAD505E014F8016B01F8016B6D1EF9D555
:1001C0009142D6D37047000000230024002500266A
:1001D000103A28BF78C1FBD8520728BF30C148BFAA
:1001E0000B6070471FB51FBD10B510BD0EF05EF857
:1001F0001146FFF7F7FF06F062FC0EF07CF803B43F
:10020000FFF7F2FF03BC0BF053FA00000CB500201F
:10021000019000906C48006840F480306A490860A2
:1002200000BF6948006800F4003000900198401C4D
:100230000190009818B90198B0F5A06FF1D162480B
:10024000006800F4003010B10120009001E00020AF
:1002500000900098012843D15C48006840F01000ED
:100260005A4908600846006820F003000860084604
:10027000006840F0020008605348406852494860F6
:100280000846406848600846406840F4806048601E
:100290000846406820F47C1048600846406840F4F6
:1002A000E81048600846006840F08070086000BFB1
:1002B0004548006800F000700028F9D042484068C6
:1002C00020F00300404948600846406840F00200C2
:1002D000486000BF3C48406800F00C000828F9D195
:1002E0000CBD10B5FFF792FF10BD10B53648006881
:1002F00040F001003449086008464068344908402D
:100300003149486008460068324908402E49086073
:100310000846006820F4802008600846406820F401
:10032000FE0048604FF41F008860FFF7DAFF4FF0CF
:1003300000602949086010BD10B50021002000228E
:10034000214B5B6803F00C0121B1042906D0082978
:1003500028D107E0214B224C236027E01F4B204C83
:10036000236023E0184B5B6803F47010164B5B6846
:1003700003F48032022303EB904022B9194B43432C
:10038000174C23600DE0104B5B6803F4003323B17E
:10039000144B4343124C236003E0104B4343104C77
:1003A000236003E00D4B0E4C236000BF00BF064BE3
:1003B0005B68C3F303130C4CE15C094B1B68CB4037
:1003C000074C236010BD00000010024000200240D6
:1003D0000000FFF8FFFFF6FE08ED00E000127A00D3
:1003E0000000002000093D000400002070B5024616
:1003F0000C46FF25FF2309E012F8010B80EA0501F6
:10040000FA48405C80EA0305F948435C201EA4F1E9
:100410000106F4B2F0D143EA052070BD10B5012009
:10042000F4490870F4480BF0E3FEF4490870F4480E
:100430000078012856D00021F2480CF03BFC002146
:10044000F0480CF0CBFEF0480078A0B1EB48007803
:10045000EE49097888420ED10020ED490870ED4937
:10046000087008460078401C0870E4480078EA49A3
:10047000E84A12788854E448007860BBE448007881
:1004800048BBE4480078642813DADC480178E24A83
:10049000E0480078401C1154DE480078401CDD49DB
:1004A000087008460078082815DB084600780870B0
:1004B00011E00120D6490870D1490870D54800786C
:1004C000D5490870D54800688078D5490968887092
:1004D0000020D04908700020CB4908700121C9488C
:1004E0000CF0E8FB10BD10B50120C2490870CD49E1
:1004F0000870CD480BF07CFEC0490870C0480078F9
:10050000012856D00021BF480CF0D4FB0021BD4883
:100510000CF064FEBC480078A0B1B8480078BB4934
:10052000097888420ED10020B9490870B94908708D
:1005300008460078401C0870B0480078B649B54AB3
:1005400012788854B048007860BBB148007848BB46
:10055000B0480078642813DAA8480178AE4AAD485C
:100560000078401C1154AB480078401CA949087021
:1005700008460078082815DB08460078087011E066
:100580000120A34908709E490870A2480078A2493A
:100590000870A24800688078A14909688870002026
:1005A0009C490870002098490870012195480CF07A
:1005B00081FB10BD10B59A4800689C490978405CE1
:1005C0009B490870084601788B480BF00DFE974850
:1005D0000078401C954908709148006800780978B7
:1005E000884210DA0020864908708D490968087031
:1005F0008849087001208D490870002240F2266168
:100600007D480BF090FD10BD70B500257F48007847
:1006100088490870032048708748007888708749A7
:10062000874800680EF05EFD06460EF0BFFC000A2B
:100630008049C8708149824800680EF053FD064623
:100640000EF0B4FC7B4908717E4800680EF0AEFCE9
:100650000121B1EBE03F07D17A4801684FF08F40AC
:100660000EF048FE774908607449764800680EF03D
:1006700039FD06460EF09AFC000A6E4948716F4932
:10068000704800680EF02EFD06460EF08FFC69499A
:10069000887169480088051F04E00021A81D654A8B
:1006A00011546D1E002DF8DC63480078C01CC1B2E7
:1006B0006048FFF79BFE044621125E4A5E480088B0
:1006C000C01C11545C480088001D14545A4800781E
:1006D000401D5D49087010465C490860012240F2E7
:1006E000277145480BF01FFD70BD70B500254748C8
:1006F000007850490870032048704F48007888708F
:10070000504800680EF052FC0121B1EBE03F07D1E8
:100710004C4801684FF08F400EF0ECFD49490860ED
:100720004649484800680EF0DDFC06460EF03EFCE7
:10073000000A4049C8704149424800680EF0D2FCA6
:1007400006460EF033FC3B4908713B480088851E85
:1007500004E00021281D374A11546D1E002DF8DCDD
:1007600035480078C01CC1B23248FFF73FFE04464E
:100770002112304A30480088C01C11542E4800888D
:10078000001D14542C480078401D2F490870104655
:100790002E490860012240F2277117480BF0C3FC74
:1007A00070BD70B5002519480078224908700320F3
:1007B00048702148007888702049214800680EF070
:1007C00091FC06460EF0F2FB000A1A49C8701B495C
:1007D0001B4800680EF086FC06460EF0E7FB154944
:1007E000087115480088851E37E00000360000209B
:1007F000360100202D000020004400401C00002095
:100800002C00002000080040180000207402002086
:10081000190000201F0000202804002024000020D0
:10082000280000202F000020003801402000002078
:100830001D000020120600201400002000002041AE
:10084000600300205C0300204C02002048020020CE
:100850000021281DFE4A11546D1E002DF8DCFD48B4
:100860000078C01CC1B2FA48FFF7C0FD044621124F
:10087000F74AF8480088C01C1154F6480088001D4B
:100880001454F4480078401DF34908701046F349A9
:100890000860012240F22771F1480BF044FC70BD62
:1008A00010B50220EF490870EF4800884FF6FA7142
:1008B000884205DAED48007810B900200AF0E5FC1E
:1008C000E94800884FF6FA71884203DAE748007871
:1008D00001280ED101200AF0D8FC0120E34908705C
:1008E000E14800884FF6FA71884202DB3220DE4987
:1008F00008800A20DE49088008460288DD49DA4877
:1009000000880AF09FFCDC480078D1490870D9487B
:1009100000784870D74840788870D6488078C8708A
:10092000D448C0780871D34800794871D1484079DB
:100930008871D0488079C871CE48C0790872CD4896
:10094000007A4872CB48407A88720B20C2490870FE
:10095000C54800880A30C4490880084600880A2132
:1009600090FBF1F0C549098888420BDD3220BE4971
:1009700008800020C24908703220C2490880002047
:10098000C1490870B248B5490860012240F2277198
:10099000B3480BF0C8FB10BD70B50025BB480088FC
:1009A000B6490880B4480078A94908700320487007
:1009B00002208870B1480088000AC870AF480078EB
:1009C00008710521A248FFF711FD04462012A04935
:1009D00048718C710720A04908709D489F490860A4
:1009E000012240F227719E480BF09DFB70BD2DE95E
:1009F000F04104460F460020A5490870A54800783C
:100A000000283BD12078401E255C4FF6FF7000EA9D
:100A100005252078205C05432078C01E205C8D4988
:100A20000880084600884FF6FF7101EA00208949D6
:100A300008802078801E205C098808434FF6FF71EB
:100A400001EA40008349088008460088202801DD2B
:100A5000202008802078801EC1B2601CFFF7C6FCF1
:100A6000064606218C48FFF7C1FC06462078801E0A
:100A7000C1B2601CFFF7BAFC064600E02E46AE424B
:100A800038D18448007808BBA07801281BD00328FF
:100A90001AD1022181480AF0F8FF6E480088042824
:100AA00002D1FFF7B1FD0DE06A480088022809D1A4
:100AB000207910B9FFF775FE04E02079012801D1F3
:100AC000FFF713FE01E000E000BF16E0E07840B160
:100AD00010280DD1022171480AF0D7FFFFF7E0FE80
:100AE00007E002216D480AF0D0FFFFF755FF00E054
:100AF00000BF02E000206A490870BDE8F08110B52F
:100B000040F2255156480BF0F3FB20B10320654914
:100B10000870FFF783FC40F2277151480BF0E8FBA7
:100B2000002838D04C48007800280BDD4B4800687E
:100B300001784A480068401C484B186048480BF050
:100B400053FB1FE000BF402145480BF0BBFB0028D2
:100B5000F9D0002240F2277141480BF0E4FA02215B
:100B60004E480AF094FF00204D4908704E49087025
:100B7000322404E0002036490855601E44B2002C9F
:100B8000F8DA00BF34480078002804DD32480078E5
:100B9000401E3149087010BD10B540F22551434840
:100BA0000BF0A6FB20B103203E490870FFF79BFC29
:100BB00040F227713D480BF09BFB002834D02648BB
:100BC000007800280BDD254800680178234800687C
:100BD000401C224B186035480BF006FB1BE000BFA1
:100BE000402132480BF06EFB0028F9D0002240F281
:100BF00027712E480BF097FA0020294908702A49DE
:100C00000870322404E0002011490855601E44B2E7
:100C1000002CF8DA00BF10480078002804DD0E48E8
:100C20000078401E0C49087010BD10B50121204805
:100C30000CF009FB002869D001201E490870002132
:100C40001B480CF037F8002119480CF0C7FA33E0C4
:100C500012060020140000204C0200204802002050
:100C6000004400401D03002016000020300000203A
:100C700034000020CC050020740200203200002047
:100C80001C030020480300201B0300203C0200201E
:100C90002D0000202F000020290400200008014022
:100CA0002C0000202E0000201F00002000380140F2
:100CB000000800401800002001201B4908701B4854
:100CC00000781B4908701B480078D8B11748007895
:100CD000042817DD012018490870154800792228DA
:100CE00003D01348C078102803D10120134908709D
:100CF00002E000201149087011480168114800689D
:100D0000FFF775FE012110480CF0AEFA10BD7047D8
:100D100000BFFEE700BFFEE700BFFEE700BFFEE743
:100D20007047704770477047190000201F0000206F
:100D3000280400202D0000202C0000202F0000207F
:100D4000280000202400002000080040002100E0CE
:100D5000491C8142FCD3704710B50524FE4804802D
:100D600000200AF092FA2246FC4900200AF06AFAB2
:100D700064200AF070FCF9480078F9490870F748D7
:100D80004078F8490860F848096850F82100F749A8
:100D9000086010BD10B53224EF48048000200AF02E
:100DA00074FA2246ED4900200AF04CFA64200AF059
:100DB00052FCEA480078EA490870E8484078E94976
:100DC0000860E948096850F82100E8490860E348EC
:100DD0008078E7490860E148C078E649086008463D
:100DE0000068502804DD08460068A0F5807008609F
:100DF000DA480079E049086008460068502804DDB8
:100E000008460068A0F580700860D4484079DB4946
:100E10000860D2488079DA490860D048C079D94959
:100E20000860CE48007AD8490860CC48407AD74953
:100E30000860CA48807AD6490860C848C07AD5494F
:100E40000860C648007BD4490860C448407BD34949
:100E50000860C248807BD2490860C048C07BD14945
:100E60000880BE48007C097800EB0120CD4908804D
:100E7000BA48407CCC490870B848807CCB490860AF
:100E8000B648C07CCA490860B448007DC9490860BA
:100E900008460068502804DD08460068A0F5807008
:100EA0000860AE48407DC449086008460068502884
:100EB00004DD08460068A0F580700860A748807DC2
:100EC000BE490860A548C07DBD490860A348007EB2
:100ED000BC49086008460068642804DD08460068CC
:100EE000A0F5807008609D48407EB74908600846BC
:100EF0000068642804DD08460068A0F5807008607A
:100F00009648807E18B19548807EFF2812D193487C
:100F1000C07E18B19148C07EFF280BD18F48007F5A
:100F200018B18E48007FFF2804D14FF4C870A7493C
:100F3000086011E08948807E8849C97E01EB810103
:100F400000EB41008549097F01EBC10202EB011171
:100F500000EB81009D4908608048407F18B17F48C0
:100F6000407FFF281BD17D48807F18B17B48807F60
:100F7000FF2814D17948C07F18B17848C07FFF2876
:100F80000DD1764890F8200020B1744890F82000E8
:100F9000FF2804D14FF4FA608D49086014E06F48CF
:100FA000407F6E49897F0A2202FB01006B49C97F9D
:100FB000642202FB0100694991F820104FF47A7213
:100FC00002FB010082490860644890F8210020B1CA
:100FD000624890F82100FF2816D1604890F822005E
:100FE00020B15E4890F82200FF280DD15B4890F8B0
:100FF000230020B1594890F82300FF2804D14FF472
:10100000C8707449086010E0544890F821005349B2
:1010100091F822100A2202FB0100504991F8231096
:10102000642202FB01006B4908604C4890F82400E0
:1010300020B14A4890F82400FF281FD1474890F873
:10104000250020B1454890F82500FF2816D14348D7
:1010500090F8260020B1414890F82600FF280DD1D5
:101060003E4890F8270020B13C4890F82700FF2820
:1010700004D14FF4FA605849086017E0374890F8F7
:101080002400364991F825100A2202FB0100334959
:1010900091F82610642202FB0100304991F82710D4
:1010A0004FF47A7202FB01004B4908602B4890F81C
:1010B000280020B1294890F82800FF281FD1274890
:1010C00090F8290020B1254890F82900FF2816D172
:1010D000224890F82A0020B1204890F82A00FF28E2
:1010E0000DD11E4890F82B0020B11C4890F82B0021
:1010F000FF2804D14FF4FA603849086017E0174818
:1011000090F82800154991F829100A2202FB0100E5
:10111000124991F82A10642202FB01000F4991F84C
:101120002B104FF47A7202FB01002C4908600B4827
:1011300090F82C0020B1094890F82C00FF2865D1C8
:10114000064890F82D0020B1044890F82D00FF28A3
:101150005CD1024844E0000018030020760600201D
:10116000740200207C02002080020020780200200F
:1011700094020020980200209C020020A802002077
:10118000AC020020B0020020B4020020B80200200F
:10119000BC020020C0020020C4020020C8020020BF
:1011A000CC020020480300201B030020D8020020AE
:1011B000E0020020E8020020F0020020F8020020F7
:1011C0000003002008030020100300206C0300200F
:1011D0007003002074030020780300207C030020AB
:1011E00090F82E0020B1F94890F82E00FF280DD17C
:1011F000F64890F82F0020B1F44890F82F00FF280F
:1012000004D14FF4FA60F249086017E0EF4890F813
:101210002C00EE4991F82D100A2202FB0100EB4947
:1012200091F82E10642202FB0100E84991F82F107A
:101230004FF47A7202FB0100E549086010BD10B559
:10124000E4480480E4480078E4490870E448007801
:101250004870E44800788870E3480078C870E34834
:1012600000780871E24800784871E2480078887197
:10127000E1480078C871E14800780872E0480078D9
:101280004872E04800788872DF480078C872DF480A
:1012900000780873DE4800784873DE480078887369
:1012A000DD480088000AC873DB4800780874DB4812
:1012B00000784874DA4800788874DA480078C8748E
:1012C000D94800780875D94800784875D84800781A
:1012D0008875D8480078C875D74800780876D74808
:1012E00000784876D6480068642190FBF1F201FB53
:1012F00012000A2190FBF1F201FB1200B749887637
:10130000CF480068642190FBF1F201FB12000A2132
:1013100090FBF1F0B149C876C9480068642190FBA0
:10132000F1F0AE490877C74800684FF47A7190FB36
:10133000F1F201FB1200642190FBF1F201FB1200BB
:101340000A2190FBF1F201FB1200A4494877BD4845
:1013500000684FF47A7190FBF1F201FB12006421F6
:1013600090FBF1F201FB12000A2190FBF1F09B4986
:101370008877B44800684FF47A7190FBF1F201FB72
:101380001200642190FBF1F09449C877AD480068E1
:101390004FF47A7190FBF1F0904981F82000AA484F
:1013A0000068642190FBF1F201FB12000A2190FB1E
:1013B000F1F201FB1200894981F82100A24800687E
:1013C000642190FBF1F201FB12000A2190FBF1F085
:1013D000824981F822009C480068642190FBF1F06A
:1013E0007E4981F82300994800684FF47A7190FB98
:1013F000F1F201FB1200642190FBF1F201FB1200FB
:101400000A2190FBF1F201FB1200744981F82400DB
:101410008E4800684FF47A7190FBF1F201FB1200E4
:10142000642190FBF1F201FB12000A2190FBF1F024
:101430006A4981F82500854800684FF47A7190FB6D
:10144000F1F201FB1200642190FBF1F0634981F895
:1014500026007E4800684FF47A7190FBF1F05F49F6
:1014600081F827007A4800684FF47A7190FBF1F216
:1014700001FB1200642190FBF1F201FB12000A2132
:1014800090FBF1F201FB1200544981F828007048EA
:1014900000684FF47A7190FBF1F201FB12006421B5
:1014A00090FBF1F201FB12000A2190FBF1F04B4995
:1014B00081F82900664800684FF47A7190FBF1F2D8
:1014C00001FB1200642190FBF1F0444981F82A00ED
:1014D0005F4800684FF47A7190FBF1F03F4981F862
:1014E0002B003B4800684FF47A7190FBF1F201FB4E
:1014F0001200642190FBF1F201FB12000A2190FB23
:10150000F1F201FB1200354981F82C0030480068E7
:101510004FF47A7190FBF1F201FB1200642190FB11
:10152000F1F201FB12000A2190FBF1F02B4981F846
:101530002D00274800684FF47A7190FBF1F201FB0F
:101540001200642190FBF1F0244981F82E0020481C
:1015500000684FF47A7190FBF1F0204981F82F0078
:101560003224002009F091FE22461C49002009F097
:101570007AFE64200AF06FF810BD08B5012104203E
:101580000AF092FC4020ADF8000010208DF8030016
:1015900003208DF8020069462E480AF0C9F908BDFB
:1015A00010B5044640212B480AF06FFAA0B20AF0A9
:1015B00052F8402127480AF06AFA10BD03B583B0FB
:1015C00003981A2882F0688346E00000760600201F
:1015D000800300201803002074020020440600202D
:1015E0007C02002094020020980200209C0200202F
:1015F000A8020020AC020020B0020020B4020020AB
:10160000B8020020BC020020C0020020C40200205A
:10161000C8020020CC020020480300201B03002049
:10162000D8020020E0020020E8020020F0020020A2
:10163000F80200200003002008030020100300200F
:101640006C03002070030020740300207803002046
:101650007C03002000080140DFE810F01A001C00A5
:10166000DB00BF01460244034D040205B2050D062E
:1016700093062007A70760080F096E092E0AF50ACE
:10168000F30BFE0CF60DFC0E06101811C012081319
:1016900002F002BB07F0F9FF0021084607F057FDF2
:1016A00001220821022007F0F7FC0121022007F0A7
:1016B00036FD0121042007F032FD07F0A7FFFB48AB
:1016C0000078642190FBF1F201FB12000A2190FBEB
:1016D000F1F201FB1200C0B2014602901A2007F09D
:1016E0004CFDF2480078642190FBF1F201FB1200FE
:1016F0000A2190FBF1F0C0B2014602901C2007F0D5
:101700003CFDEA480078642190FBF1F0C0B201464C
:1017100002901E2007F031FD049810B1012876D107
:101720003AE0E2480078401EE04908700846007838
:10173000012801DAFE20087007F068FFDB48007816
:10174000642190FBF1F201FB12000A2190FBF1F2FF
:1017500001FB1200C0B2014602901A2007F00DFDF5
:10176000D2480078642190FBF1F201FB12000A21BB
:1017700090FBF1F0C0B2014602901C2007F0FDFC86
:10178000CA480078642190FBF1F0C0B20146029093
:101790001E2007F0F2FC3AE0C4480078401CC34920
:1017A000087008460078FE2801DD0120087007F067
:1017B0002DFFBE480078642190FBF1F201FB12007E
:1017C0000A2190FBF1F201FB1200C0B20146029027
:1017D0001A2007F0D2FCB5480078642190FBF1F2A2
:1017E00001FB12000A2190FBF1F0C0B20146029009
:1017F0001C2007F0C2FCAD480078642190FBF1F09A
:10180000C0B2014602901E2007F0B7FC00BF00BF27
:101810003EE707F03AFF0221002007F098FC012282
:101820000821022007F038FC01220821022007F0DD
:1018300071FB0121022007F08AFC0221042007F03D
:101840006EFC07F0E3FE9A489A49096850F82100B7
:101850009949086008460068642190FBF1F00A216C
:1018600090FBF1F201FB1200C0B2014602901A2077
:1018700007F083FC90480068642190FBF1F00A2196
:1018800090FBF1F090FBF1F201FB1200C0B20146B7
:1018900002901C2007F071FC8748006842F210712A
:1018A00090FBF1F0C0B2014602901E2007F065FCEB
:1018B000049810B1012846D146E07E480068401ED9
:1018C0007C49086008460068002801DA04200860A6
:1018D00077487849096850F8210077490860084638
:1018E000006809F0F4FE07F091FE73480068642177
:1018F00090FBF1F00A2190FBF1F201FB1200C0B263
:10190000014602901A2007F038FC6B4800686421F9
:1019100090FBF1F00A2190FBF1F090FBF1F201FB5A
:101920001200C0B2014602901C2007F026FC62485B
:10193000006842F2107190FBF1F0C0B201460290D3
:101940001E2007F01AFC46E05A480068401C59491E
:10195000086008460068042801DD0020086054483B
:101960005449096850F82100534908600846006846
:1019700009F0ADFE07F04AFE4F480068642190FB75
:10198000F1F00A2190FBF1F201FB1200C0B2014616
:1019900002901A2007F0F1FB47480068642190FB91
:1019A000F1F00A2190FBF1F090FBF1F201FB120043
:1019B000C0B2014602901C2007F0DFFB3E480068E1
:1019C00042F2107190FBF1F0C0B2014602901E206D
:1019D00007F0D3FB00BF00BF5AE607F056FE082110
:1019E000002007F0B4FB01220821022007F054FB7D
:1019F0000721022007F0ABFB0321042007F08FFB37
:101A00002E48006801280AD107F000FE0A211A209A
:101A100007F0C9FB00211C2007F0AFFB0DE007F029
:101A2000F5FD05211A2007F0BEFB05211C2007F05B
:101A3000BAFB00211E2007F0A0FB049810B101287A
:101A400050D122E01D48006868B901201B49086098
:101A500007F0DCFD0A211A2007F0A5FB00211C205D
:101A600007F08BFB10E000201449086007F0CEFD62
:101A700005211A2007F097FB05211C2007F093FB96
:101A800000211E2007F079FB2CE00C480068B8B953
:101A900001200A49086007F0B9FD0A211A2007F061
:101AA00082FB00211C2007F068FB1AE07402002072
:101AB000800200207C020020780200209402002096
:101AC0000020FE49086007F0A1FD05211A2007F05B
:101AD0006AFB05211C2007F066FB00211E2007F091
:101AE0004CFB00BF00BFD3E507F0CFFD0B2100206A
:101AF00007F02DFB01220821022007F0CDFA032177
:101B0000022007F024FB0421084607F008FB01210E
:101B1000172007F086FB07F079FDE94800680028E8
:101B20000ADA01220821072007F0B6FAE448006823
:101B30004042E449086008E0E1480068E149086083
:101B400000220821072007F0A7FA00211A2007F039
:101B500014FB012211461C2007F09EFAD9480068A8
:101B60000A2190FBF1F201FB1200C0B20146029083
:101B70001C2007F03EFBD34800680A2190FBF1F0DF
:101B8000C0B2014602901E2007F0F7FA049810B187
:101B9000012875D175E0CC480068C94909688842B8
:101BA00026DD07F033FDC648006800280ADA012266
:101BB0000821072007F070FAC14800684042C14977
:101BC000086008E0BE480068BE490860002208219D
:101BD000072007F061FA08211A2007F0E4FA08212B
:101BE0001C2007F0E0FA06211E2007F0DCFA47E08F
:101BF000B3480068401EB24908600846006810F10A
:101C0000280F02DA6FF02700086007F0FFFCAC48ED
:101C1000006800280ADA01220821072007F03CFAB0
:101C2000A74800684042A749086008E0A448006847
:101C3000A449086000220821072007F02DFA00219E
:101C40001A2007F09AFA012211461C2007F024FA04
:101C50009C4800680A2190FBF1F201FB1200C0B21F
:101C6000014602901C2007F0C4FA964800680A2139
:101C700090FBF1F0C0B2014602901E2007F07DFA01
:101C80002EE08F480068401C8D49086008460068B7
:101C9000502801DD5020086007F0B8FC00211A2010
:101CA00007F06BFA012211461C2007F0F5F9854870
:101CB00000680A2190FBF1F201FB1200C0B201465C
:101CC00002901C2007F095FA7E4800680A2190FBDC
:101CD000F1F0C0B2014602901E2007F04EFA00BF9C
:101CE00000BFD5E407F0D1FC0421002007F02FFA53
:101CF00001220821022007F0CFF90321022007F07A
:101D000026FA0521042007F00AFA0121172007F01E
:101D100088FA07F07BFC6C48006800280ADA012288
:101D20000821072007F0B8F9674800684042674972
:101D3000086008E0644800686449086000220821DF
:101D4000072007F0A9F900211A2007F016FA01224E
:101D500011461C2007F0A0F95C4800680A2190FB9E
:101D6000F1F201FB1200C0B2014602901C2007F004
:101D700040FA564800680A2190FBF1F0C0B20146D3
:101D800002901E2007F0F9F9049810B1012848D1FB
:101D900048E04D480068401E4B490860084600680E
:101DA00010F1280F02DA6FF02700086007F02EFC10
:101DB0004548006800280ADA01220821072007F0B8
:101DC0006BF94148006840424049086008E03E48DD
:101DD00000683E49086000220821072007F05CF9EE
:101DE00000211A2007F0C9F9012211461C2007F032
:101DF00053F9364800680A2190FBF1F201FB12000A
:101E0000C0B2014602901C2007F0F3F92F48006889
:101E10000A2190FBF1F0C0B2014602901E2007F0AB
:101E2000ACF966E0284800682549096888420EDD5B
:101E300007F0ECFB08211A2007F0B5F908211C2057
:101E400007F0B1F906211E2007F0ADF950E01E4859
:101E50000068401C1C49086008460068502801DDE5
:101E60005020086007F0D2FB1748006800280ADA03
:101E700001220821072007F00FF9134800684042AB
:101E80001249086008E01048006810490860002204
:101E90000821072007F000F900211A2007F06DF94A
:101EA000012211461C2007F0F7F8084800680A21B3
:101EB00090FBF1F201FB1200C0B209E09402002095
:101EC00098020020A40200209C020020A002002012
:101ED000014602901C2007F08CF9F84800680A219E
:101EE00090FBF1F0C0B2014602901E2007F045F9C8
:101EF00000BF00BF8CE400220821072007F0CCF8C7
:101F000007F0C3FB0B21002007F021F90122082173
:101F1000022007F0C1F80B21022007F018F9062172
:101F2000042007F0FCF807F071FB00211A2007F0ED
:101F300060F9012211461C2007F0AEF8E048006865
:101F40000A2190FBF1F201FB1200C0B2014602909F
:101F50001C2007F04EF9DA4800680A2190FBF1F0E6
:101F6000C0B2014602901E2007F007F9049810B194
:101F7000012873D143E0D2480068D24909688842F9
:101F80000EDA07F043FB08211A2007F00CF90821AC
:101F90001C2007F008F906211E2007F004F92DE0A7
:101FA000C7480068401EC649086008460068002807
:101FB00001DA0120086007F029FB00211A2007F050
:101FC00018F9012211461C2007F066F8BC48006889
:101FD0000A2190FBF1F201FB1200C0B2014602900F
:101FE0001C2007F006F9B64800680A2190FBF1F0C2
:101FF000C0B2014602901E2007F0BFF82EE0B048A4
:102000000068401CAE49086008460068632801DD8E
:102010006320086007F0FAFA00211A2007F0E9F8B7
:10202000012211461C2007F037F8A54800680A2154
:1020300090FBF1F201FB1200C0B2014602901C209D
:1020400007F0D7F89E4800680A2190FBF1F0C0B273
:10205000014602901E2007F090F800BF00BFBBE4CD
:1020600007F013FB0421002007F071F8012208217A
:10207000022007F011F80B21022007F068F8072171
:10208000042007F04CF807F0C1FA00211A2007F0ED
:10209000B0F8012211461C2006F0FEFF89480068B6
:1020A0000A2190FBF1F201FB1200C0B2014602903E
:1020B0001C2007F09EF8834800680A2190FBF1F08D
:1020C000C0B2014602901E2007F057F8049810B1E4
:1020D000012873D12EE07B480068401E79490860D2
:1020E00008460068002801DA0020086007F08EFA30
:1020F00000211A2007F07DF8012211461C2006F06D
:10210000CBFF704800680A2190FBF1F201FB12003E
:10211000C0B2014602901C2007F06BF869480068C5
:102120000A2190FBF1F0C0B2014602901E2007F098
:1021300024F843E0624800686249096888420EDA80
:1021400007F064FA08211A2007F02DF808211C2056
:1021500007F029F806211E2007F025F82DE0594840
:102160000068401C5749086008460068632801DD84
:102170006320086007F04AFA00211A2007F039F8B6
:10218000012211461C2006F087FF4E4800680A21F4
:1021900090FBF1F201FB1200C0B2014602901C203C
:1021A00007F027F8474800680A2190FBF1F0C0B219
:1021B000014602901E2006F0E0FF00BF00BF0BE4C6
:1021C00007F063FA0521002006F0C1FF0122082173
:1021D000022006F061FF0321022006F0B8FF08216B
:1021E000042006F09CFF0121172007F01AF807F0E1
:1021F0000DFA35480068012804D105211C2006F09D
:10220000D2FF03E003211C2006F0CDFF049810B19B
:1022100001282ED116E02C48006848B901202A492F
:10222000086007F0F3F905211C2006F0BCFF08E068
:1022300000202549086007F0E9F903211C2006F079
:10224000B2FF16E02048006848B901201E49086026
:1022500007F0DCF905211C2006F0A5FF08E00020AE
:102260001949086007F0D2F903211C2006F09BFFF2
:1022700000BF00BF37E407F008FA0821002006F08D
:1022800066FF01220821022006F006FF0521022038
:1022900006F05DFF0921042006F041FF07F0B6F9C2
:1022A0000A480068012813D10A211A2006F07BFF92
:1022B00000211C2006F061FF16E00000A0020020B3
:1022C000A8020020AC020020B0020020B4020020CE
:1022D00005211A2006F067FF05211C2006F063FF88
:1022E00000211E2006F049FF049810B1012846D1B4
:1022F00022E0FE48006868B90120FC49086007F048
:1023000085F90A211A2006F04EFF00211C2006F054
:1023100034FF10E00020F549086007F077F9052147
:102320001A2006F040FF05211C2006F03CFF00218A
:102330001E2006F022FF22E0EC48006868B9012068
:10234000EA49086007F062F90A211A2006F02BFF1B
:1023500000211C2006F011FF10E00020E349086076
:1023600007F054F905211A2006F01DFF05211C2055
:1023700006F019FF00211E2006F0FFFE00BF00BF7F
:10238000AFE407F082F90121002006F0C8FE012227
:102390000821022006F080FE0021022006F0BFFE88
:1023A0000321042006F0D3FE07F030F9D04800687E
:1023B00038B90A211A2006F0F6FE00211C2006F08A
:1023C000DCFECB48006801280BD105211A2006F05D
:1023D000EAFE05211C2006F0E6FE00211E2006F084
:1023E000CCFE049810B1012856D12AE0C0480068FC
:1023F000401EBF49086008460068002801DA012035
:102400000860BB48006848B907F000F90A211A20A3
:1024100006F0C9FE00211C2006F0AFFEB44800689B
:1024200001280DD107F0F2F805211A2006F0BBFEB5
:1024300005211C2006F0B7FE00211E2006F09DFE9F
:102440002AE0AB480068401CA949086008460068BB
:10245000012801DD00200860A548006848B907F0A0
:10246000D5F80A211A2006F09EFE00211C2006F055
:1024700084FE9F48006801280DD107F0C7F80521A8
:102480001A2006F090FE05211C2006F08CFE00218B
:102490001E2006F072FE00BF00BF22E407F0F5F830
:1024A0000221002006F03BFE01220821022006F056
:1024B000F3FD0021022006F032FE0321042006F085
:1024C00046FE07F0A3F88B48006801280CD10321D1
:1024D0001A2006F068FE09211C2006F064FE032184
:1024E0001E2006F060FE0BE000211A2006F05BFEC5
:1024F00008211C2006F057FE00211E2006F03DFE9C
:10250000049810B101284ED126E07A48006888B9B5
:1025100001207849086007F079F803211A2006F0B5
:1025200042FE09211C2006F03EFE03211E2006F07B
:102530003AFE10E000206F49086007F067F80021BC
:102540001A2006F030FE08211C2006F02CFE002187
:102550001E2006F012FE26E06648006888B90120B9
:102560006449086007F052F803211A2006F01BFEA8
:1025700009211C2006F017FE03211E2006F013FE81
:1025800010E000205B49086007F040F800211A20A5
:1025900006F009FE08211C2006F005FE00211E2081
:1025A00006F0EBFD00BF00BFA4E407F06EF80321C6
:1025B000002006F0B4FD01220821022006F06CFD87
:1025C0000021022006F0ABFD0321042006F0BFFD30
:1025D00007F01CF8484800680A2190FBF1F201FB63
:1025E0001200C0B2014602901A2006F0C6FD424811
:1025F00000680A2190FBF1F090FBF1F201FB120060
:10260000C0B2014602901C2006F0B7FD3A480068AF
:10261000642190FBF1F0C0B2014602901E2006F04A
:10262000ACFD049810B1012876D135E0324800683D
:10263000401E3149086008460068012802DA4FF45C
:102640001670086006F0E2FF2B4800680A2190FB34
:10265000F1F201FB1200C0B2014602901A2006F00E
:102660008CFD254800680A2190FBF1F090FBF1F207
:1026700001FB1200C0B2014602901C2006F07DFD55
:102680001D480068642190FBF1F0C0B20146029041
:102690001E2006F072FD3FE017480068401C1649F6
:1026A000086008460068B0F5167F01DD012008606B
:1026B00006F0ACFF104800680A2190FBF1F201FB24
:1026C0001200C0B2014602901A2006F056FD0A48D8
:1026D00000680A2190FBF1F090FBF1F201FB12007F
:1026E000C0B2014602901C2008E00000B4020020A5
:1026F000B8020020BC020020C002002006F03DFD10
:10270000FE480068642190FBF1F0C0B201460290DF
:102710001E2006F032FD00BF00BFA0E406F0B5FFAA
:102720000421002006F0FBFC01220821022006F013
:10273000B3FC0021022006F0F2FC0321042006F085
:1027400006FD06F063FFEE4800680A2190FBF1F2F7
:1027500001FB1200C0B2014602901A2006F00DFDE6
:10276000E74800680A2190FBF1F090FBF1F201FBD1
:102770001200C0B2014602901C2006F0FEFCE048A8
:102780000068642190FBF1F0C0B2014602901E2067
:1027900006F0F3FC049810B101286CD135E0D8485C
:1027A0000068401ED649086008460068012802DA21
:1027B0004FF41670086006F029FFD14800680A211E
:1027C00090FBF1F201FB1200C0B2014602901A2008
:1027D00006F0D3FCCA4800680A2190FBF1F090FB98
:1027E000F1F201FB1200C0B2014602901C2006F07B
:1027F000C4FCC3480068642190FBF1F0C0B20146FC
:1028000002901E2006F0B9FC35E0BD480068401C6F
:10281000BB49086008460068B0F5167F01DD01205D
:10282000086006F0F3FEB64800680A2190FBF1F25A
:1028300001FB1200C0B2014602901A2006F09DFC76
:10284000AF4800680A2190FBF1F090FBF1F201FB28
:102850001200C0B2014602901C2006F08EFCA8486F
:102860000068642190FBF1F0C0B2014602901E2086
:1028700006F083FC00BF00BFA1E406F006FF0521BF
:10288000002006F04CFC01220821022006F004FC86
:102890000021022006F043FC0321042006F057FC2F
:1028A00006F0B4FE974800680A2190FBF1F201FBA4
:1028B0001200C0B2014602901A2006F05EFC049895
:1028C00010B1012836D11AE08E480068401E8D49AB
:1028D000086008460068002801DA0120086006F058
:1028E00095FE884800680A2190FBF1F201FB120076
:1028F000C0B2014602901A2006F03FFC1AE081485F
:102900000068401C7F49086008460068012801DD16
:102910000020086006F07AFE7A4800680A2190FBE1
:10292000F1F201FB1200C0B2014602901A2006F03B
:1029300024FC00BF00BF42E406F0A7FE06210020F1
:1029400006F0EDFB01220821022006F0A5FB002184
:10295000022006F0E4FB0321042006F0F8FB01212D
:10296000172006F05EFC06F051FE674800680A2159
:1029700090FBF1F201FB1200C0B2014602901A2056
:1029800006F0FBFB012211461C2006F085FB5E4889
:1029900000680A2190FBF1F090FBF1F201FB1200BC
:1029A000C0B2014602901C2006F023FC5648006885
:1029B000642190FBF1F0C0B2014602901E2006F0A7
:1029C000DCFB049810B1012874D139E04E4800684E
:1029D000401E4D49086008460068002801DA0020C2
:1029E000086006F013FE484800680A2190FBF1F2E7
:1029F00001FB1200C0B2014602901A2006F0BDFB96
:102A0000012211461C2006F047FB3F4800680A21BE
:102A100090FBF1F090FBF1F201FB1200C0B2014615
:102A200002901C2006F0E5FB37480068642190FB0B
:102A3000F1F0C0B2014602901E2006F09EFB39E084
:102A400031480068401C3049086008460068782812
:102A500001DD7820086006F0D9FD2B4800680A21C6
:102A600090FBF1F201FB1200C0B2014602901A2065
:102A700006F083FB012211461C2006F00DFB2248C4
:102A800000680A2190FBF1F090FBF1F201FB1200CB
:102A9000C0B2014602901C2006F0ABFB1A48006849
:102AA000642190FBF1F0C0B2014602901E2006F0B6
:102AB00064FB00BF00BF63E406F0E7FD07210020D0
:102AC00006F02DFB01220821022006F0E5FA002184
:102AD000022006F024FB0321042006F038FB0B48FB
:102AE00000680A2190FBF1F201FB1200C0B202461D
:102AF000012102901C2006F0CFFA09E0C00200205C
:102B0000C4020020D4020020D8020020E0020020ED
:102B100006F07CFD00211A2006F06BFBFE480068E1
:102B20000A2190FBF1F090FBF1F201FB1200C0B220
:102B3000014602901C2006F05CFBF7480068642107
:102B400090FBF1F0C0B2014602901E2006F015FB8A
:102B5000049810B1012874D139E0EF480068401E94
:102B6000ED49086008460068002801DA0020086086
:102B700006F04CFDE84800680A2190FBF1F201FBE9
:102B80001200C0B2014602901A2006F032FB012268
:102B900011461C2006F080FADF4800680A2190FBED
:102BA000F1F090FBF1F201FB1200C0B2014602907D
:102BB0001C2006F01EFBD8480068642190FBF1F051
:102BC000C0B2014602901E2006F0D7FA39E0D24882
:102BD0000068401CD049086008460068642801DD90
:102BE0006420086006F012FDCB4800680A2190FBC3
:102BF000F1F201FB1200C0B2014602901A2006F069
:102C0000F8FA012211461C2006F046FAC248006874
:102C10000A2190FBF1F090FBF1F201FB1200C0B22F
:102C2000014602901C2006F0E4FABB4800686421CB
:102C300090FBF1F0C0B2014602901E2006F09DFA12
:102C400000BF00BF29E406F020FD0821002006F0A7
:102C500066FA01220821022006F01EFA0021022055
:102C600006F05DFA0321042006F071FA0121172015
:102C700006F0D7FA06F0CAFCA848006800280ADA6D
:102C800001220821072006F007FAA4480068404204
:102C9000A349086008E0A1480068A1490860002233
:102CA0000821072006F0F8F900211A2006F065FA3D
:102CB000012211461C2006F0EFF9994800680A210C
:102CC00090FBF1F201FB1200C0B2014602901C2001
:102CD00006F08FFA924800680A2190FBF1F0C0B22A
:102CE000014602901E2006F048FA049810B101280F
:102CF00075D175E0894800688A490968884226DDEF
:102D000006F084FC8548006800280ADA01220821C0
:102D1000072006F0C1F981480068404280490860F8
:102D200008E07E4800687E490860002208210720EC
:102D300006F0B2F908211A2006F035FA08211C2005
:102D400006F031FA06211E2006F02DFA47E07348FE
:102D50000068401E714908600846006810F1280F9D
:102D600002DA6FF02700086006F050FC6B4800683C
:102D700000280ADA01220821072006F08DF96748A9
:102D8000006840426649086008E064480068644999
:102D9000086000220821072006F07EF900211A2091
:102DA00006F0EBF9012211461C2006F075F95C488B
:102DB00000680A2190FBF1F201FB1200C0B201464B
:102DC00002901C2006F015FA554800680A2190FB75
:102DD000F1F0C0B2014602901E2006F0CEF92EE0BE
:102DE0004E480068401C4D4908600846006850285D
:102DF00001DD5020086006F009FC00211A2006F0D1
:102E0000BCF9012211461C2006F046F9444800682E
:102E10000A2190FBF1F201FB1200C0B201460290C0
:102E20001C2006F0E6F93E4800680A2190FBF1F00C
:102E3000C0B2014602901E2006F09FF900BF00BFFD
:102E40006BE406F022FC0921002006F068F901225B
:102E50000821022006F020F90021022006F05FF987
:102E60000321042006F073F90121172006F0D9F997
:102E700006F0CCFB2B48006800280ADA0122082162
:102E8000072006F009F927480068404226490860F3
:102E900008E024480068244908600022082107202F
:102EA00006F0FAF800211A2006F067F9012211460F
:102EB0001C2006F0F1F81C4800680A2190FBF1F292
:102EC00001FB1200C0B2014602901C2006F091F9ED
:102ED000154800680A2190FBF1F0C0B2014602904B
:102EE0001E2006F04AF9049810B101287ED182E034
:102EF0000A4800680B490968884231DD06F086FB04
:102F000008480068002815DA01220821072006F089
:102F1000C3F80448006809E0E0020020E80200204D
:102F2000EC020020F0020020F40200204042FB49A5
:102F3000086008E0FA480068F849086000220821A3
:102F4000072006F0A9F808211A2006F02CF908211C
:102F50001C2006F028F906211E2006F024F949E07D
:102F6000EF480068401EEE4908600846006810F10E
:102F7000280F02DA6FF02700086006F047FBE848E8
:102F8000006800280ADA01220821072006F084F8E8
:102F9000E34800684042E149086008E0E048006812
:102FA000DE49086000220821072006F075F800219C
:102FB0001A2006F0E2F8012211461C2006F06CF8F7
:102FC000D64800680A2190FBF1F201FB1200C0B262
:102FD000014602901C2006F00CF9D04800680A2136
:102FE00090FBF1F0C0B20146029000E032E01E20FA
:102FF00006F0C3F82EE0CA480068401CC8490860C3
:1030000008460068502801DD5020086006F0FEFAEE
:1030100000211A2006F0B1F8012211461C2006F00A
:103020003BF8BE4800680A2190FBF1F201FB120058
:10303000C0B2014602901C2006F0DBF8B7480068D9
:103040000A2190FBF1F0C0B2014602901E2006F06A
:1030500094F800BF00BF0FE406F017FB00210846FC
:1030600006F05DF801220821022006F015F8012182
:10307000022006F054F80321042006F068F806F058
:10308000C5FAA848006800280ADA012208210720AA
:1030900006F002F8A34800684042A349086008E02F
:1030A000A0480068A049086000220821072005F018
:1030B000F3FF00211A2006F09CF8012211461C2083
:1030C00005F0EAFF984800680A2190FBF1F201FB45
:1030D0001200C0B2014602901C2006F08AF8924805
:1030E00000680A2190FBF1F0C0B2014602901E2058
:1030F00006F043F8049810B1012873D173E08948B1
:1031000000688A490968884226DD06F07FFA85480A
:10311000006800280ADA01220821072005F0BCFF18
:103120008048006840428049086008E07D480068A7
:103130007D49086000220821072005F0ADFF082125
:103140001A2006F030F808211C2006F02CF8062181
:103150001E2006F028F845E072480068401E7149BC
:10316000086008460068002801DA0020086006F0C0
:103170004DFA6C48006800280ADA0122082107206D
:1031800005F08AFF6748006840426749086008E028
:10319000644800686449086000220821072005F09F
:1031A0007BFF00211A2006F024F8012211461C2082
:1031B00005F072FF5C4800680A2190FBF1F201FB08
:1031C0001200C0B2014602901C2006F012F85648C8
:1031D00000680A2190FBF1F0C0B2014602901E2067
:1031E00005F0CBFF2EE04F480068401C4D490860B9
:1031F00008460068632801DD0920086006F006FA29
:1032000000211A2005F0F5FF012211461C2005F0CF
:1032100043FF454800680A2190FBF1F201FB1200D0
:10322000C0B2014602901C2005F0E3FF3E48006852
:103230000A2190FBF1F0C0B2014602901E2005F079
:103240009CFF00BF00BF36E406F01FFA01210020FA
:1032500005F065FF01220821022005F01DFF012174
:10326000022005F05CFF0321042005F070FF06F04A
:10327000CDF92E48006800280ADA0122082107202B
:1032800005F00AFF2948006840422949086008E023
:10329000264800682649086000220821072005F01A
:1032A000FBFE00211A2005F0A4FF012211461C207C
:1032B00005F0F2FE1E4800680A2190FBF1F201FBC6
:1032C0001200C0B2014602901C2005F092FF18487F
:1032D00000680A2190FBF1F0C0B2014602901E2066
:1032E00005F04BFF049810B101287DD181E00D4815
:1032F00000680E490968884232DD06F087F90B48FC
:103300000068002816DA01220821072005F0C4FE13
:103310000648006840420649086014E0F4020020B4
:10332000F0020020F8020020FC0200200003002030
:1033300004030020FB480068FB49086000220821C4
:10334000072005F0A9FE08211A2005F02CFF08210E
:103350001C2005F028FF06211E2005F024FF47E071
:10336000F0480068401EEF490860084600680028E1
:1033700001DA0020086006F049F9EA4800680028F0
:103380000ADA01220821072005F086FEE5480068D8
:103390004042E549086008E0E2480068E249086008
:1033A00000220821072005F077FE00211A2005F0F1
:1033B00020FF012211461C2005F06EFEDA4800684D
:1033C0000A2190FBF1F201FB1200C0B2014602900B
:1033D0001C2005F00EFFD44800680A2190FBF1F094
:1033E000C0B20146029000E032E01E2005F0C5FEAA
:1033F0002EE0CC480068401CCA49086008460068B6
:10340000632801DD6320086006F000F900211A201E
:1034100005F0EFFE012211461C2005F03DFEC248DA
:1034200000680A2190FBF1F201FB1200C0B20146D4
:1034300002901C2005F0DDFEBB4800680A2190FBCD
:10344000F1F0C0B2014602901E2005F096FE00BFCA
:1034500000BF1AE206F019F90221002005F05FFE14
:1034600001220821022005F017FE0121022005F0AB
:1034700056FE0321042005F06AFE0121172005F005
:10348000D0FE06F0C3F8A948006800280ADA012235
:103490000821072005F000FEA44800684042A44926
:1034A000086008E0A1480068A149086000220821DE
:1034B000072005F0F1FD9E4800680A2190FBF1F21B
:1034C00001FB1200C0B2014602901A2005F055FE21
:1034D000012211461C2005F0DFFD954800680A21F5
:1034E00090FBF1F090FBF1F201FB1200C0B201463B
:1034F00002901C2005F07DFE8D480068642190FB41
:10350000F1F0C0B2014602901E2005F036FE04988C
:1035100010B1012853D153E084480068401E83490C
:1035200008600846006810F1640F02DA6FF063006B
:1035300008607E48006800280ADA01220821072076
:1035400005F0AAFD7948006840427949086008E022
:10355000764800687649086000220821072005F0B7
:103560009BFD06F053F8724800680A2190FBF1F2C7
:1035700001FB1200C0B2014602901A2005F0FDFDC9
:10358000012211461C2005F087FD694800680A21C8
:1035900090FBF1F090FBF1F201FB1200C0B201468A
:1035A00002901C2005F025FE61480068642190FB14
:1035B000F1F0C0B2014602901E2005F0DEFD51E0A0
:1035C0005A480068401C5949086008460068642849
:1035D00001DD642008605548006800280ADA0122ED
:1035E0000821072005F058FD504800684042504926
:1035F000086008E04D4800684D4908600022082135
:10360000072005F049FD06F001F8494800680A2145
:1036100090FBF1F201FB1200C0B2014602901A20A9
:1036200005F0ABFD012211461C2005F035FD404898
:1036300000680A2190FBF1F090FBF1F201FB12000F
:10364000C0B2014602901C2005F0D3FD3848006846
:10365000642190FBF1F0C0B2014602901E2005F0FB
:103660008CFD00BF00BF17E306F00FF80321002018
:1036700005F055FD01220821022005F00DFD012174
:10368000022005F04CFD0321042005F060FD05F04B
:10369000BDFF2848006800280ADA01220821072017
:1036A00005F0FAFC2348006840422349086008E01E
:1036B000204800682049086000220821072005F002
:1036C000EBFC1D4800680A2190FBF1F201FB12009F
:1036D000C0B2014602901A2005F08BFD012211466E
:1036E0001C2005F0D9FC144800680A2190FBF1F079
:1036F00090FBF1F201FB1200C0B2014602901C20C7
:1037000005F077FD0C480068642190FBF1F0C0B231
:10371000014602901E2005F030FD049870B101288A
:103720005FD15FE0000300200403002008030020B5
:103730000C0300201003002014030020FE48006842
:10374000401EFD4908600846006810F1640F02DA67
:103750006FF063000860F848006800280ADA012268
:103760000821072005F098FCF34800684042F3491F
:10377000086008E0F0480068F0490860002208216D
:10378000072005F089FC05F041FFEC4800680A219C
:1037900090FBF1F201FB1200C0B2014602901A2028
:1037A00005F027FD012211461C2005F075FCE348B9
:1037B00000680A2190FBF1F090FBF1F201FB12008E
:1037C000C0B2014602901C2005F013FDDB480068E2
:1037D000642190FBF1F0C0B2014602901E2005F07A
:1037E000CCFC51E0D4480068401CD349086008462E
:1037F0000068642801DD64200860CF480068002864
:103800000ADA01220821072005F046FCCA480068B0
:103810004042CA49086008E0C7480068C7490860D4
:1038200000220821072005F037FC05F0EFFEC34811
:1038300000680A2190FBF1F201FB1200C0B20146C0
:1038400002901A2005F0D5FC012211461C2005F03B
:1038500023FCBA4800680A2190FBF1F090FBF1F2DA
:1038600001FB1200C0B2014602901C2005F0C1FC11
:10387000B2480068642190FBF1F0C0B201460290AA
:103880001E2005F07AFC00BF00BF05E205F0FDFE3A
:103890000821002005F05BFC0721022005F057FC01
:1038A0000121042005F053FC00220821072005F027
:1038B000F3FB05F0ABFE4FF08041A14800680BF030
:1038C00011FC02909F4800680146019002980BF09D
:1038D000D5FB08D201211C2005F04FFC00211A2045
:1038E00005F04BFC79E14FF08041954800680BF002
:1038F000F9FB0290934840680146019002980BF052
:10390000BDFB17D24FF080418D4800680BF0EAFBF9
:1039100002908C4800680146019002980BF0AEFCC2
:1039200008D802211C2005F028FC00211A2005F0EF
:1039300024FC52E14FF08041814800680BF0D2FB3B
:103940000290804880680146019002980BF096FB37
:1039500017D24FF080417A4800680BF0C3FB029009
:10396000784840680146019002980BF087FC08D81F
:1039700003211C2005F001FC00211A2005F0FDFBAD
:103980002BE14FF080416E4800680BF0ABFB0290DA
:103990006C48C0680146019002980BF06FFB17D28B
:1039A0004FF08041664800680BF09CFB0290654830
:1039B00080680146019002980BF060FC08D8042151
:1039C0001C2005F0DAFB00211A2005F0D6FB04E1EB
:1039D0004FF080415A4800680BF084FB0290594830
:1039E00000690146019002980BF048FB17D24FF096
:1039F0008041534800680BF075FB02905148C06845
:103A00000146019002980BF039FC08D805211C20D2
:103A100005F0B3FB00211A2005F0AFFBDDE04FF00D
:103A20008041474800680BF05DFB029045484069C3
:103A30000146019002980BF021FB17D24FF0804114
:103A40003F4800680BF04EFB02903E48006901467B
:103A5000019002980BF012FC08D806211C2005F0FA
:103A60008CFB00211A2005F088FBB6E04FF0804166
:103A7000334800680BF036FB0290324880690146FB
:103A8000019002980BF0FAFA17D24FF080412C48BF
:103A900000680BF027FB02902A484069014601901C
:103AA00002980BF0EBFB08D807211C2005F065FB02
:103AB00000211A2005F061FB8FE04FF08041204883
:103AC00000680BF00FFB02901E48C0690146019090
:103AD00002980BF0D3FA17D24FF0804118480068D3
:103AE0000BF000FB02901748806901460190029894
:103AF0000BF0C4FB08D808211C2005F03EFB002178
:103B00001A2005F03AFB68E04FF080410C4800684D
:103B10000BF0E8FA02900B48006A01460190029807
:103B20000BF0ACFA20D24FF08041054800680BF052
:103B3000D9FA0290034807E0100300201403002084
:103B4000900300209C030020C06901460190029868
:103B50000BF094FB08D809211C2005F00EFB002176
:103B60001A2005F00AFB38E04FF08041FE4800685B
:103B70000BF0B8FA0290FD48406A014601900298A5
:103B80000BF07CFA0ED24FF08041F74800680BF042
:103B9000A9FA0290F548006A0146019002980BF0DC
:103BA0006DFB0ED94FF08041EF4800680BF09AFA98
:103BB0000290EE48406A0146019002980BF05EFBCD
:103BC0000BD801211E2005F0D8FA00211C2005F099
:103BD000D4FA00211A2005F0D0FA5DE005F055FD79
:103BE0000421002005F0B3FA0621022005F0AFFA07
:103BF0000521042005F093FA05F008FDDC48007863
:103C0000014602901A2005F0B8FA049810B1012874
:103C10002AD114E0D6480068401ED54908600846FD
:103C20000068012801DA0420086005F0EFFCD048A4
:103C30000078014602901A2005F09FFA14E0CC4863
:103C40000068401CCA49086008460068042801DD75
:103C50000120086005F0DAFCC548007801460290B2
:103C60001A2005F08AFA00BF00BF15E005F00DFD2F
:103C70000621022005F053FA0121042005F04FFA35
:103C800005F0C4FC0120BB4908600020BA49086067
:103C90000120BA49086000BF00BF05B000BD03B5F0
:103CA00083B003981A2882F07583DFE810F01A00B9
:103CB0001C00DB00D40151024F0389095D04120589
:103CC000690A4B0F6210CD052806A3063007C4070A
:103CD000730822093B0B4D0C4B0D530E6811151345
:103CE0005D1302F057BB05F0D0FC0021084605F03B
:103CF0002EFA01220821022005F0CEF9012102202E
:103D000005F00DFA0121042005F009FA05F07EFC0A
:103D10009B480078642190FBF1F201FB12000A211C
:103D200090FBF1F201FB1200C0B2014602901A2092
:103D300005F023FA92480078642190FBF1F201FB30
:103D400012000A2190FBF1F0C0B2014602901C2043
:103D500005F013FA8A480078642190FBF1F0C0B2B4
:103D6000014602901E2005F008FA049810B10128BF
:103D700076D13AE082480078401E814908700846B2
:103D80000078012801DAFE20087005F03FFC7C482D
:103D90000078642190FBF1F201FB12000A2190FBF4
:103DA000F1F201FB1200C0B2014602901A2005F0A8
:103DB000E4F973480078642190FBF1F201FB1200F2
:103DC0000A2190FBF1F0C0B2014602901C2005F0E0
:103DD000D4F96B480078642190FBF1F0C0B2014641
:103DE00002901E2005F0C9F93AE065480078401CB1
:103DF0006349087008460078FE2801DD012008703C
:103E000005F004FC5E480078642190FBF1F201FBB0
:103E100012000A2190FBF1F201FB1200C0B2014630
:103E200002901A2005F0A9F955480078642190FB0A
:103E3000F1F201FB12000A2190FBF1F0C0B2014641
:103E400002901C2005F099F94D480078642190FB00
:103E5000F1F0C0B2014602901E2005F08EF900BFBD
:103E600000BF3EE705F011FC0221002005F06FF9CC
:103E700001220821022005F00FF901220821022069
:103E800005F048F80121022005F061F90221042023
:103E900005F045F905F0BAFB3A483B49096850F886
:103EA00021003A49086008460068642190FBF1F05F
:103EB0000A2190FBF1F201FB1200C0B20146029010
:103EC0001A2005F05AF931480068642190FBF1F09E
:103ED0000A2190FBF1F090FBF1F201FB1200C0B25D
:103EE000014602901C2005F048F92848006842F27B
:103EF000107190FBF1F0C0B2014602901E2005F057
:103F00003CF9049810B101285BD15BE01E480068C1
:103F1000401E1D49086008460068002801DA042098
:103F2000086018481849096850F8210017490860C6
:103F30000846006807F0CBFB05F068FB13480068F3
:103F4000642190FBF1F00A2190FBF1F201FB1200D9
:103F5000C0B2014602901A2005F00FF90B48006824
:103F6000642190FBF1F013E0900300209C030020FB
:103F7000CC0200203803002024030020400300204E
:103F800074020020800200207C02002078020020C1
:103F90000A2190FBF1F090FBF1F201FB1200C0B29C
:103FA000014602901C2005F0E8F8FC48006842F247
:103FB000107190FBF1F0C0B2014602901E2005F096
:103FC000DCF846E0F6480068401CF5490860084601
:103FD0000068042801DD00200860F248F049096803
:103FE00050F82100ED4908600846006807F06FFBB3
:103FF00005F00CFBE9480068642190FBF1F00A2110
:1040000090FBF1F201FB1200C0B2014602901A20AF
:1040100005F0B3F8E1480068642190FBF1F00A2153
:1040200090FBF1F090FBF1F201FB1200C0B20146EF
:1040300002901C2005F0A1F8D848006842F21071E7
:1040400090FBF1F0C0B2014602901E2005F095F8F9
:1040500000BF00BF45E605F018FB0821002005F071
:1040600076F801220821022005F016F80721022027
:1040700005F06DF80321042005F051F8CA480068E6
:1040800001280AD105F0C2FA0A211A2005F08BF89E
:1040900000211C2005F071F80DE005F0B7FA0521AC
:1040A0001A2005F080F805211C2005F07CF800217D
:1040B0001E2005F062F8049810B1012846D122E0D4
:1040C000B948006868B90120B749086005F09EFA50
:1040D0000A211A2005F067F800211C2005F04DF890
:1040E00010E00020B049086005F090FA05211A2080
:1040F00005F059F805211C2005F055F800211E2077
:1041000005F03BF822E0A848006868B90120A649FC
:10411000086005F07BFA0A211A2005F044F8002116
:104120001C2005F02AF810E000209F49086005F0E7
:104130006DFA05211A2005F036F805211C2005F03E
:1041400032F800211E2005F018F800BF00BFC8E5B6
:1041500005F09BFA0B21002004F0F9FF0122082151
:10416000022004F099FF0321022004F0F0FF042153
:10417000084604F0D4FF0121172005F052F805F09D
:1041800045FA8A48006800280ADA01220821072037
:1041900004F082FF8548006840428549086008E0D5
:1041A000824800688249086000220821072004F044
:1041B00073FF00211A2004F0E0FF012211461C20A9
:1041C00004F06AFF7A4800680A2190FBF1F201FBD3
:1041D0001200C0B2014602901C2005F00AF8744893
:1041E00000680A2190FBF1F0C0B2014602901E2047
:1041F00004F0C3FF049810B1012875D175E06D4833
:1042000000686A490968884226DD05F0FFF96748B9
:10421000006800280ADA01220821072004F03CFF88
:104220006248006840426249086008E05F480068F0
:104230005F49086000220821072004F02DFF0821B3
:104240001A2004F0B0FF08211C2004F0ACFF062166
:104250001E2004F0A8FF47E054480068401E534960
:1042600008600846006810F1280F02DA6FF0270096
:10427000086005F0CBF94D48006800280ADA0122F1
:104280000821072004F008FF4848006840424849D8
:10429000086008E045480068454908600022082198
:1042A000072004F0F9FE00211A2004F066FF012225
:1042B00011461C2004F0F0FE3D4800680A2190FBE6
:1042C000F1F201FB1200C0B2014602901C2004F082
:1042D00090FF374800680A2190FBF1F0C0B2014618
:1042E00002901E2004F049FF2EE030480068401C78
:1042F0002E49086008460068502801DD50200860FB
:1043000005F084F900211A2004F037FF012211463C
:104310001C2004F0C1FE264800680A2190FBF1F23F
:1043200001FB1200C0B2014602901C2004F061FFA4
:104330001F4800680A2190FBF1F0C0B201460290CC
:104340001E2004F01AFF00BF00BFCAE405F09DF96B
:104350000421002004F0FBFE01220821022004F0C9
:104360009BFE0321022004F0F2FE0421084604F023
:10437000D6FE0121172004F054FF05F047F90D483F
:10438000006800281ADA01220821072004F084FEC0
:104390000848006840420849086018E07802002098
:1043A0007C0200208002002094020020980200205D
:1043B000A40200209C020020A0020020FA4800680D
:1043C000FA49086000220821072004F065FE002158
:1043D0001A2004F0D2FE012211461C2004F05CFEDB
:1043E000F24800680A2190FBF1F201FB1200C0B212
:1043F000014602901C2004F0FCFEEC4800680A21F3
:1044000090FBF1F0C0B2014602901E2004F0B5FE10
:10441000049810B1012848D148E0E3480068401EE4
:10442000E14908600846006810F1280F02DA6FF0D1
:104430002700086005F0EAF8DB48006800280ADA7F
:1044400001220821072004F027FED74800684042D7
:10445000D649086008E0D4480068D44908600022C2
:104460000821072004F018FE00211A2004F085FE20
:10447000012211461C2004F00FFECC4800680A21DE
:1044800090FBF1F201FB1200C0B2014602901C2029
:1044900004F0AFFEC54800680A2190FBF1F0C0B2FD
:1044A000014602901E2004F068FE5BE0BE480068F2
:1044B000BF49096888420EDD05F0A8F808211A20D6
:1044C00004F071FE08211C2004F06DFE06211E2060
:1044D00004F069FE45E0B4480068401CB249086039
:1044E00008460068502801DD5020086005F08EF86D
:1044F000AD48006800280ADA01220821072004F0EC
:10450000CBFDA94800684042A849086008E0A648D9
:104510000068A649086000220821072004F0BCFDBD
:1045200000211A2004F029FE012211461C2004F06B
:10453000B3FD9E4800680A2190FBF1F201FB1200D6
:10454000C0B2014602901C2004F053FE9748006858
:104550000A2190FBF1F0C0B2014602901E2004F047
:104560000CFE00BF00BF7CE400220821072004F0FD
:1045700093FD05F08AF80B21002004F0E8FD0122EC
:104580000821022004F088FD0B21022004F0DFFD49
:104590000421084604F0C3FD05F038F800211A2074
:1045A00004F027FE012211461C2004F075FD81480D
:1045B00000680A2190FBF1F201FB1200C0B2014633
:1045C00002901C2004F015FE7A4800680A2190FB36
:1045D000F1F0C0B2014602901E2004F0CEFD049816
:1045E00010B1012873D143E072480068724909682C
:1045F00088420EDA05F00AF808211A2004F0D3FDEB
:1046000008211C2004F0CFFD06211E2004F0CBFD64
:104610002DE068480068401E66490860084600684A
:10462000002801DA0120086004F0F0FF00211A20C0
:1046300004F0DFFD012211461C2004F02DFD5D4831
:1046400000680A2190FBF1F201FB1200C0B20146A2
:1046500002901C2004F0CDFD564800680A2190FB12
:10466000F1F0C0B2014602901E2004F086FD2EE05B
:1046700050480068401C4F4908600846006863289D
:1046800001DD6320086004F0C1FF00211A2004F05E
:10469000B0FD012211461C2004F0FEFC45480068D4
:1046A0000A2190FBF1F201FB1200C0B20146029018
:1046B0001C2004F09EFD3F4800680A2190FBF1F0A9
:1046C000C0B2014602901E2004F057FD00BF00BF9B
:1046D000C0E404F0DAFF0421002004F038FD0122D8
:1046E0000821022004F0D8FC0B21022004F02FFD49
:1046F0000421084604F013FD04F088FF00211A206D
:1047000004F077FD012211461C2004F0C5FC2A4864
:1047100000680A2190FBF1F201FB1200C0B20146D1
:1047200002901C2004F065FD234800680A2190FBDC
:10473000F1F0C0B2014602901E2004F01EFD049864
:1047400010B101287ED139E01B480068401E1A498B
:10475000086008460068002801DA0020086004F0BC
:1047600055FF00211A2004F044FD012211461C20AF
:1047700004F092FC104800680A2190FBF1F201FB62
:104780001200C0B2014602901C2004F032FD0A481B
:1047900000680A2190FBF1F0C0B2014602901E2091
:1047A00004F0EBFC4EE000009C020020A002002080
:1047B00098020020A8020020AC020020FA480068FD
:1047C000FA49096888420EDA04F020FF08211A200D
:1047D00004F0E9FC08211C2004F0E5FC06211E2061
:1047E00004F0E1FC2DE0F1480068401CEF4908604E
:1047F00008460068632801DD6320086004F006FFB6
:1048000000211A2004F0F5FC012211461C2004F0BE
:1048100043FCE64800680A2190FBF1F201FB12001C
:10482000C0B2014602901C2004F0E3FCDF4800689F
:104830000A2190FBF1F0C0B2014602901E2004F064
:104840009CFC00BF00BF05E404F01FFF0521002011
:1048500004F07DFC01220821022004F01DFC03214C
:10486000022004F074FC0621042004F058FC01210D
:10487000172004F0D6FC04F0C9FECD4800680128DA
:1048800004D105211C2004F08EFC03E003211C2030
:1048900004F089FC049810B101282ED116E0C44818
:1048A000006848B90120C249086004F0AFFE052144
:1048B0001C2004F078FC08E00020BD49086004F0EA
:1048C000A5FE03211C2004F06EFC16E0B848006829
:1048D00048B90120B649086004F098FE05211C2063
:1048E00004F061FC08E00020B149086004F08EFE8D
:1048F00003211C2004F057FC00BF00BF27E404F094
:10490000C4FE0821002004F022FC0122082102201C
:1049100004F0C2FB0521022004F019FC0721042049
:1049200004F0FDFB04F072FEA2480068012808D1E3
:104930000A211A2004F037FC00211C2004F01DFC81
:104940000BE005211A2004F02EFC05211C2004F0A8
:104950002AFC00211E2004F010FC049810B101284C
:1049600046D122E09348006868B901209149086067
:1049700004F04CFE0A211A2004F015FC00211C2032
:1049800004F0FBFB10E000208A49086004F03EFEC2
:1049900005211A2004F007FC05211C2004F003FC6B
:1049A00000211E2004F0E9FB22E08248006868B97B
:1049B00001208049086004F029FE0A211A2004F031
:1049C000F2FB00211C2004F0D8FB10E00020794904
:1049D000086004F01BFE05211A2004F0E4FB052109
:1049E0001C2004F0E0FB00211E2004F0C6FB00BFE9
:1049F00000BFAAE404F049FE0121002004F08FFB6F
:104A000001220821022004F047FB0321022004F0C8
:104A10009EFB0821042004F082FB04F0F7FD6648A9
:104A2000006838B90A211A2004F0BDFB00211C20BF
:104A300004F0A3FB6048006801280BD105211A206F
:104A400004F0B1FB05211C2004F0ADFB00211E2069
:104A500004F093FB049810B1012856D12AE056487F
:104A60000068401E5449086008460068002801DAC2
:104A7000012008605048006848B904F0C7FD0A21C9
:104A80001A2004F090FB00211C2004F076FB4A4819
:104A9000006801280DD104F0B9FD05211A2004F0A9
:104AA00082FB05211C2004F07EFB00211E2004F067
:104AB00064FB2AE040480068401C3F490860084603
:104AC0000068012801DD002008603B48006848B903
:104AD00004F09CFD0A211A2004F065FB00211C2033
:104AE00004F04BFB3448006801280DD104F08EFD22
:104AF00005211A2004F057FB05211C2004F053FB6C
:104B000000211E2004F039FB00BF00BF1DE404F0AB
:104B1000BCFD0221002004F002FB0122082102203A
:104B200004F0BAFA0321022004F011FB082104204A
:104B300004F0F5FA04F06AFD2048006801280CD161
:104B400003211A2004F02FFB09211C2004F02BFB69
:104B500003211E2004F027FB0BE000211A2004F0A3
:104B600022FB08211C2004F01EFB00211E2004F063
:104B700004FB049810B101285BD133E00F480068B2
:104B8000F0B901200D49086004F040FD03211A200E
:104B900004F009FB09211C2004F005FB03211E2061
:104BA00004F001FB1DE00000A8020020AC02002080
:104BB000B0020020B4020020B8020020BC02002095
:104BC0000020FB49086004F021FD00211A2004F0B8
:104BD000EAFA08211C2004F0E6FA00211E2004F065
:104BE000CCFA26E0F248006888B90120F049086054
:104BF00004F00CFD03211A2004F0D5FA09211C2031
:104C000004F0D1FA03211E2004F0CDFA10E00020B8
:104C1000E749086004F0FAFC00211A2004F0C3FA06
:104C200008211C2004F0BFFA00211E2004F0A5FA80
:104C300000BF00BF97E404F028FD0321002004F02A
:104C40006EFA01220821022004F026FA0321022034
:104C500004F07DFA0821042004F061FA04F0D6FC87
:104C6000D44800680A2190FBF1F201FB1200C0B2A7
:104C7000014602901A2004F080FACE4800680A210A
:104C800090FBF1F090FBF1F201FB1200C0B2014683
:104C900002901C2004F071FAC6480068642190FB61
:104CA000F1F0C0B2014602901E2004F066FA0498AA
:104CB00010B101286CD135E0BE480068401EBD49E6
:104CC000086008460068012802DA4FF41670086090
:104CD00004F09CFCB74800680A2190FBF1F201FB4C
:104CE0001200C0B2014602901A2004F046FAB14800
:104CF00000680A2190FBF1F090FBF1F201FB120039
:104D0000C0B2014602901C2004F037FAA94800689E
:104D1000642190FBF1F0C0B2014602901E2004F025
:104D20002CFA35E0A3480068401CA24908600846F8
:104D30000068B0F5167F01DD0120086004F066FC14
:104D40009C4800680A2190FBF1F201FB1200C0B2FE
:104D5000014602901A2004F010FA964800680A21D1
:104D600090FBF1F090FBF1F201FB1200C0B20146A2
:104D700002901C2004F001FA8E480068642190FB28
:104D8000F1F0C0B2014602901E2004F0F6F900BF17
:104D900000BF9DE404F079FC0421002004F0BFF979
:104DA00001220821022004F077F90321022004F0F7
:104DB000CEF90821042004F0B2F904F027FC7E4863
:104DC00000680A2190FBF1F201FB1200C0B201461B
:104DD00002901A2004F0D1F9774800680A2190FB6C
:104DE000F1F090FBF1F201FB1200C0B2014602901B
:104DF0001C2004F0C2F970480068642190FBF1F0B7
:104E0000C0B2014602901E2004F0B7F9049810B118
:104E100001286CD135E068480068401E664908608A
:104E200008460068012802DA4FF41670086004F0A2
:104E3000EDFB614800680A2190FBF1F201FB1200D2
:104E4000C0B2014602901A2004F097F95A4800684F
:104E50000A2190FBF1F090FBF1F201FB1200C0B2CD
:104E6000014602901C2004F088F953480068642130
:104E700090FBF1F0C0B2014602901E2004F07DF9D3
:104E800035E04D480068401C4B4908600846006802
:104E9000B0F5167F01DD0120086004F0B7FB46483D
:104EA00000680A2190FBF1F201FB1200C0B201463A
:104EB00002901A2004F061F93F4800680A2190FB33
:104EC000F1F090FBF1F201FB1200C0B2014602903A
:104ED0001C2004F052F938480068642190FBF1F07E
:104EE000C0B2014602901E2004F047F900BF00BF87
:104EF000A9E404F0CAFB0521002004F010F9012206
:104F00000821022004F0C8F80321022004F01FF950
:104F10000821042004F003F904F078FB2748006816
:104F20000A2190FBF1F201FB1200C0B2014602908F
:104F30001A2004F022F9049810B1012836D11AE0A1
:104F40001E480068401E1D49086008460068002889
:104F500001DA0120086004F059FB184800680A21B2
:104F600090FBF1F201FB1200C0B2014602901A2040
:104F700004F003F91AE011480068401C0F4908606A
:104F800008460068012801DD0020086004F03EFBAF
:104F90000A4800680A2190FBF1F201FB1200C0B23E
:104FA000014602901A2004F0E8F800BF00BF4AE46E
:104FB000BC020020C0020020C4020020D402002055
:104FC00004F063FB00220821072004F065F80022AA
:104FD00008210A2004F060F80021084604F0B7F820
:104FE00001220821022004F057F80321022004F0D6
:104FF000AEF80421084604F092F80121172004F0CD
:1050000010F904F003FBFE4800680A2190FBF1F25E
:1050100001FB1200C0B2014602901A2004F0ADF864
:10502000012211461C2004F037F8F54800680A21D7
:1050300090FBF1F090FBF1F201FB1200C0B20146CF
:1050400002901C2004F0D5F8ED480068642190FB24
:10505000F1F0C0B2014602901E2004F08EF80498D0
:1050600010B1012839D139E0E5480068401EE44913
:10507000086008460068002801DA0020086004F093
:10508000C5FADF4800680A2190FBF1F201FB12002B
:10509000C0B2014602901A2004F06FF801221146B6
:1050A0001C2003F0F9FFD64800680A2190FBF1F0BC
:1050B00090FBF1F201FB1200C0B2014602901C20ED
:1050C00004F097F8CE480068642190FBF1F0C0B27C
:1050D000014602901E2004F050F84FE0C8480068D6
:1050E000401CC7490860C7480068C7490968401A9A
:1050F000032190FBF1F000EB8000C1490968B1EB9E
:10510000400F0CDDBF480068BF490968401A032101
:1051100090FBF1F000EB80004000B949086004F01A
:1051200075FAB74800680A2190FBF1F201FB120002
:10513000C0B2014602901A2004F01FF80122114665
:105140001C2003F0A9FFAE4800680A2190FBF1F093
:1051500090FBF1F201FB1200C0B2014602901C204C
:1051600004F047F8A6480068642190FBF1F0C0B253
:10517000014602901E2004F000F800BF00BF38E492
:1051800004F083FA0021084603F0E1FF0122082120
:10519000022003F081FF0B21022003F0D8FF04213D
:1051A000084603F0BCFF994800680A2190FBF1F221
:1051B00001FB1200C0B20246012102901C2003F044
:1051C0006BFF04F023FA00211A2004F012F88F4834
:1051D00000680A2190FBF1F090FBF1F201FB120054
:1051E000C0B2014602901C2004F003F88748006812
:1051F000642190FBF1F0C0B2014602901E2003F042
:10520000BCFF049810B1012839D139E07F4800680B
:10521000401E7E49086008460068002801DA002028
:10522000086004F0F3F9794800680A2190FBF1F274
:1052300001FB1200C0B2014602901A2003F0D9FF10
:10524000012211461C2003F027FF704800680A2144
:1052500090FBF1F090FBF1F201FB1200C0B20146AD
:1052600002901C2003F0C5FF68480068642190FB91
:10527000F1F0C0B2014602901E2003F07EFF4FE025
:1052800062480068401C61490860614800686149E3
:105290000968401A032190FBF1F000EB80005B49A4
:1052A0000968B1EB400F0CDD59480068594909689D
:1052B000401A032190FBF1F000EB800040005349BD
:1052C000086004F0A3F9514800680A2190FBF1F24C
:1052D00001FB1200C0B2014602901A2003F089FFC0
:1052E000012211461C2003F0D7FE484800680A211D
:1052F00090FBF1F090FBF1F201FB1200C0B201460D
:1053000002901C2003F075FF40480068642190FB68
:10531000F1F0C0B2014602901E2003F02EFF00BF44
:1053200000BF87E404F0B1F90021084603F0F7FE5E
:1053300001220821022003F0AFFE0321022003F026
:1053400006FF0921042003F0EAFE0121172003F0E3
:1053500068FF04F05BF93048006800280ADA01228F
:105360000821072003F098FE2B48006840422B4993
:10537000086008E0284800682849086000220821E1
:10538000072003F089FE00211A2003F0F6FE012217
:1053900011461C2003F080FE204800680A2190FB83
:1053A000F1F201FB1200C0B2014602901C2003F092
:1053B00020FF1A4800680A2190FBF1F0C0B20146B4
:1053C00002901E2003F0D9FE049810B101287DD16F
:1053D00089E01148006812490968884238DD04F004
:1053E00015F90D48006800281CDA01220821072061
:1053F00003F052FE084800684042084908601AE07D
:10540000D8020020980200209C020020E002002028
:10541000A8020020AC020020E8020020EC020020DC
:10542000F0020020FC480068FC49086000220821C6
:10543000072003F031FE08211A2003F0B4FE0821F2
:105440001C2003F0B0FE06211E2003F0ACFE49E054
:10545000F1480068401EF04908600846006810F1F5
:10546000280F02DA6FF02700086004F0CFF8EA484E
:10547000006800280ADA01220821072003F00CFE48
:10548000E54800684042E549086008E0E2480068F5
:10549000E249086000220821072003F0FDFD0021F9
:1054A0001A2003F06AFE012211461C2003F0F4FDCD
:1054B000DA4800680A2190FBF1F201FB1200C0B249
:1054C000014602901C2003F094FE00E03AE0D3482D
:1054D00000680A2190FBF1F0C0B2014602901E2044
:1054E00003F04BFE2EE0CC480068401CCA4908601F
:1054F00008460068502801DD5020086004F086F856
:1055000000211A2003F039FE012211461C2003F06D
:10551000C3FDC24800680A2190FBF1F201FB1200B2
:10552000C0B2014602901C2003F063FEBB48006835
:105530000A2190FBF1F0C0B2014602901E2003F058
:105540001CFE00BF00BF24E404F09FF801210020EE
:1055500003F0E5FD01220821022003F09DFD032157
:10556000022003F0F4FD0921042003F0D8FD0121FD
:10557000172003F056FE04F049F8A94800680028F7
:105580000ADA01220821072003F086FDA4480068FA
:105590004042A449086008E0A1480068A1490860A9
:1055A00000220821072003F077FD00211A2003F0D4
:1055B000E4FD012211461C2003F06EFD99480068AD
:1055C0000A2190FBF1F201FB1200C0B201460290E9
:1055D0001C2003F00EFE934800680A2190FBF1F0B6
:1055E000C0B2014602901E2003F0C7FD049810B11E
:1055F000012875D175E088480068894909688842A2
:1056000026DD04F003F88648006800280ADA012243
:105610000821072003F040FD81480068404281498D
:10562000086008E07E4800687E4908600022082182
:10563000072003F031FD08211A2003F0B4FD0821F2
:105640001C2003F0B0FD06211E2003F0ACFD47E056
:1056500073480068401E724908600846006810F1EF
:10566000280F02DA6FF02700086003F0CFFF6C48C4
:10567000006800280ADA01220821072003F00CFD47
:105680006748006840426749086008E0644800686D
:105690006449086000220821072003F0FDFC002176
:1056A0001A2003F06AFD012211461C2003F0F4FCCD
:1056B0005C4800680A2190FBF1F201FB1200C0B2C5
:1056C000014602901C2003F094FD564800680A2110
:1056D00090FBF1F0C0B2014602901E2003F04DFD98
:1056E0002EE04F480068401C4D490860084600689D
:1056F000502801DD5020086003F088FF00211A20A7
:1057000003F03BFD012211461C2003F0C5FC454877
:1057100000680A2190FBF1F201FB1200C0B20146C1
:1057200002901C2003F065FD3E4800680A2190FBB2
:10573000F1F0C0B2014602901E2003F01EFD00BF32
:1057400000BF34E403F0A1FF0021084603F0E7FCAA
:1057500001220821022003F09FFC0B21022003F00C
:10576000F6FC0921042003F0DAFC03F04FFF2E4879
:10577000006800280ADA01220821072003F08CFCC7
:105780002948006840422949086008E02648006826
:105790002649086000220821072003F07DFC002133
:1057A0001A2003F026FD012211461C2003F074FC90
:1057B0001E4800680A2190FBF1F201FB1200C0B202
:1057C000014602901C2003F014FD184800680A21CD
:1057D00090FBF1F0C0B2014602901E2003F0CDFC18
:1057E000049810B101287DD183E00F48006810496A
:1057F0000968884234DD03F009FF0B48006800287F
:1058000018DA01220821072003F046FC0648006848
:1058100040420649086016E0E8020020EC02002041
:10582000F0020020F4020020F8020020FC02002018
:1058300000030020FE480068FE490860002208219D
:10584000072003F029FC08211A2003F0ACFC0821F2
:105850001C2003F0A8FC06211E2003F0A4FC47E056
:10586000F3480068401EF2490860084600680028B6
:1058700001DA0020086003F0C9FEED480068002846
:105880000ADA01220821072003F006FCE848006834
:105890004042E849086008E0E5480068E5490860DA
:1058A00000220821072003F0F7FB00211A2003F053
:1058B000A0FC012211461C2003F0EEFBDD4800682D
:1058C0000A2190FBF1F201FB1200C0B201460290E6
:1058D0001C2003F08EFCD74800680A2190FBF1F0F1
:1058E000C0B200E034E0014602901E2003F045FC07
:1058F0002EE0CF480068401CCD490860084600688B
:10590000632801DD0920086003F080FE00211A20D1
:1059100003F06FFC012211461C2003F0BDFBC548BB
:1059200000680A2190FBF1F201FB1200C0B20146AF
:1059300002901C2003F05DFCBE4800680A2190FB29
:10594000F1F0C0B2014602901E2003F016FC00BF29
:1059500000BF14E403F099FE0121002003F0DFFBF7
:1059600001220821022003F097FB0B21022003F003
:10597000EEFB0921042003F0D2FB03F047FEAE4802
:10598000006800280ADA01220821072003F084FBBE
:10599000A94800684042A949086008E0A648006894
:1059A000A649086000220821072003F075FB0021AA
:1059B0001A2003F01EFC012211461C2003F06CFB90
:1059C0009E4800680A2190FBF1F201FB1200C0B270
:1059D000014602901C2003F00CFC984800680A2144
:1059E00090FBF1F0C0B2014602901E2003F0C5FB0F
:1059F000049810B1012873D173E08D4800688E4976
:105A00000968884226DD03F001FE8B480068002803
:105A10000ADA01220821072003F03EFB86480068CD
:105A200040428649086008E083480068834908606E
:105A300000220821072003F02FFB08211A2003F081
:105A4000B2FB08211C2003F0AEFB06211E2003F050
:105A5000AAFB45E078480068401E77490860084680
:105A60000068002801DA0020086003F0CFFD7248CA
:105A7000006800280ADA01220821072003F00CFB45
:105A80006D48006840426D49086008E06A48006857
:105A90006A49086000220821072003F0FDFA00216E
:105AA0001A2003F0A6FB012211461C2003F0F4FA91
:105AB000624800680A2190FBF1F201FB1200C0B2BB
:105AC000014602901C2003F094FB5C4800680A2108
:105AD00090FBF1F0C0B2014602901E2003F04DFB96
